{
	"ethereum/contracts/loss_report.sol": {
		"LossReport": {
			"abi": [
				{
					"inputs": [
						{
							"internalType": "string",
							"name": "_pid",
							"type": "string"
						},
						{
							"internalType": "string",
							"name": "_name",
							"type": "string"
						},
						{
							"internalType": "string",
							"name": "_cid",
							"type": "string"
						},
						{
							"internalType": "string",
							"name": "_phoneNumber",
							"type": "string"
						},
						{
							"internalType": "string",
							"name": "_emailAddress",
							"type": "string"
						},
						{
							"internalType": "string",
							"name": "_propertyType",
							"type": "string"
						},
						{
							"internalType": "string",
							"name": "_propertyDescription",
							"type": "string"
						},
						{
							"internalType": "string",
							"name": "_dateOfLoss",
							"type": "string"
						},
						{
							"internalType": "string",
							"name": "_timeOfLoss",
							"type": "string"
						},
						{
							"internalType": "string",
							"name": "_locationOfLoss",
							"type": "string"
						},
						{
							"internalType": "string",
							"name": "_valueOfLoss",
							"type": "string"
						}
					],
					"stateMutability": "nonpayable",
					"type": "constructor"
				},
				{
					"inputs": [],
					"name": "getData",
					"outputs": [
						{
							"internalType": "string",
							"name": "",
							"type": "string"
						},
						{
							"internalType": "string",
							"name": "",
							"type": "string"
						},
						{
							"internalType": "string",
							"name": "",
							"type": "string"
						},
						{
							"internalType": "string",
							"name": "",
							"type": "string"
						},
						{
							"internalType": "string",
							"name": "",
							"type": "string"
						},
						{
							"internalType": "string",
							"name": "",
							"type": "string"
						},
						{
							"internalType": "string",
							"name": "",
							"type": "string"
						},
						{
							"internalType": "string",
							"name": "",
							"type": "string"
						},
						{
							"internalType": "string",
							"name": "",
							"type": "string"
						},
						{
							"internalType": "string",
							"name": "",
							"type": "string"
						},
						{
							"internalType": "bool",
							"name": "",
							"type": "bool"
						},
						{
							"internalType": "bool",
							"name": "",
							"type": "bool"
						}
					],
					"stateMutability": "view",
					"type": "function"
				},
				{
					"inputs": [],
					"name": "getInvestigator",
					"outputs": [
						{
							"components": [
								{
									"internalType": "string",
									"name": "name",
									"type": "string"
								},
								{
									"internalType": "string",
									"name": "cid",
									"type": "string"
								},
								{
									"internalType": "string",
									"name": "badgeNumber",
									"type": "string"
								},
								{
									"internalType": "string",
									"name": "rank",
									"type": "string"
								}
							],
							"internalType": "struct LossReport.Investigator",
							"name": "",
							"type": "tuple"
						}
					],
					"stateMutability": "view",
					"type": "function"
				},
				{
					"inputs": [],
					"name": "getPictureID",
					"outputs": [
						{
							"internalType": "string",
							"name": "",
							"type": "string"
						}
					],
					"stateMutability": "view",
					"type": "function"
				},
				{
					"inputs": [],
					"name": "investigationStarted",
					"outputs": [],
					"stateMutability": "nonpayable",
					"type": "function"
				},
				{
					"inputs": [],
					"name": "markAsFound",
					"outputs": [],
					"stateMutability": "nonpayable",
					"type": "function"
				},
				{
					"inputs": [
						{
							"internalType": "string",
							"name": "_name",
							"type": "string"
						},
						{
							"internalType": "string",
							"name": "_cid",
							"type": "string"
						},
						{
							"internalType": "string",
							"name": "_badgeNumber",
							"type": "string"
						},
						{
							"internalType": "string",
							"name": "_rank",
							"type": "string"
						}
					],
					"name": "setInvestigator",
					"outputs": [],
					"stateMutability": "nonpayable",
					"type": "function"
				}
			],
			"devdoc": {
				"kind": "dev",
				"methods": {},
				"version": 1
			},
			"evm": {
				"assembly": "    /* \"ethereum/contracts/loss_report.sol\":817:3148  contract LossReport {\r... */\n  mstore(0x40, 0x80)\n    /* \"ethereum/contracts/loss_report.sol\":1378:2140  constructor(string memory _pid, string memory _name, string memory _cid, string memory _phoneNumber, string memory _emailAddress, string memory _propertyType, string memory _propertyDescription, string memory _dateOfLoss, string memory _timeOfLoss, string memory _locationOfLoss, string memory _valueOfLoss){\r... */\n  callvalue\n  dup1\n  iszero\n  tag_1\n  jumpi\n  0x00\n  dup1\n  revert\ntag_1:\n  pop\n  mload(0x40)\n  sub(codesize, bytecodeSize)\n  dup1\n  bytecodeSize\n  dup4\n  codecopy\n  dup2\n  dup2\n  add\n  0x40\n  mstore\n  dup2\n  add\n  swap1\n  tag_2\n  swap2\n  swap1\n  tag_3\n  jump\t// in\ntag_2:\n    /* \"ethereum/contracts/loss_report.sol\":1702:1706  _pid */\n  dup11\n    /* \"ethereum/contracts/loss_report.sol\":1696:1699  pid */\n  0x00\n    /* \"ethereum/contracts/loss_report.sol\":1696:1706  pid = _pid */\n  swap1\n  dup1\n  mload\n  swap1\n  0x20\n  add\n  swap1\n  tag_6\n  swap3\n  swap2\n  swap1\n  tag_7\n  jump\t// in\ntag_6:\n  pop\n    /* \"ethereum/contracts/loss_report.sol\":1724:1729  _name */\n  dup10\n    /* \"ethereum/contracts/loss_report.sol\":1717:1721  name */\n  0x01\n    /* \"ethereum/contracts/loss_report.sol\":1717:1729  name = _name */\n  swap1\n  dup1\n  mload\n  swap1\n  0x20\n  add\n  swap1\n  tag_8\n  swap3\n  swap2\n  swap1\n  tag_7\n  jump\t// in\ntag_8:\n  pop\n    /* \"ethereum/contracts/loss_report.sol\":1746:1750  _cid */\n  dup9\n    /* \"ethereum/contracts/loss_report.sol\":1740:1743  cid */\n  0x02\n    /* \"ethereum/contracts/loss_report.sol\":1740:1750  cid = _cid */\n  swap1\n  dup1\n  mload\n  swap1\n  0x20\n  add\n  swap1\n  tag_9\n  swap3\n  swap2\n  swap1\n  tag_7\n  jump\t// in\ntag_9:\n  pop\n    /* \"ethereum/contracts/loss_report.sol\":1775:1787  _phoneNumber */\n  dup8\n    /* \"ethereum/contracts/loss_report.sol\":1761:1772  phoneNumber */\n  0x03\n    /* \"ethereum/contracts/loss_report.sol\":1761:1787  phoneNumber = _phoneNumber */\n  swap1\n  dup1\n  mload\n  swap1\n  0x20\n  add\n  swap1\n  tag_10\n  swap3\n  swap2\n  swap1\n  tag_7\n  jump\t// in\ntag_10:\n  pop\n    /* \"ethereum/contracts/loss_report.sol\":1813:1826  _emailAddress */\n  dup7\n    /* \"ethereum/contracts/loss_report.sol\":1798:1810  emailAddress */\n  0x04\n    /* \"ethereum/contracts/loss_report.sol\":1798:1826  emailAddress = _emailAddress */\n  swap1\n  dup1\n  mload\n  swap1\n  0x20\n  add\n  swap1\n  tag_11\n  swap3\n  swap2\n  swap1\n  tag_7\n  jump\t// in\ntag_11:\n  pop\n    /* \"ethereum/contracts/loss_report.sol\":1852:1865  _propertyType */\n  dup6\n    /* \"ethereum/contracts/loss_report.sol\":1837:1849  propertyType */\n  0x05\n    /* \"ethereum/contracts/loss_report.sol\":1837:1865  propertyType = _propertyType */\n  swap1\n  dup1\n  mload\n  swap1\n  0x20\n  add\n  swap1\n  tag_12\n  swap3\n  swap2\n  swap1\n  tag_7\n  jump\t// in\ntag_12:\n  pop\n    /* \"ethereum/contracts/loss_report.sol\":1898:1918  _propertyDescription */\n  dup5\n    /* \"ethereum/contracts/loss_report.sol\":1876:1895  propertyDescription */\n  0x06\n    /* \"ethereum/contracts/loss_report.sol\":1876:1918  propertyDescription = _propertyDescription */\n  swap1\n  dup1\n  mload\n  swap1\n  0x20\n  add\n  swap1\n  tag_13\n  swap3\n  swap2\n  swap1\n  tag_7\n  jump\t// in\ntag_13:\n  pop\n    /* \"ethereum/contracts/loss_report.sol\":1942:1953  _dateOfLoss */\n  dup4\n    /* \"ethereum/contracts/loss_report.sol\":1929:1939  dateOfLoss */\n  0x07\n    /* \"ethereum/contracts/loss_report.sol\":1929:1953  dateOfLoss = _dateOfLoss */\n  swap1\n  dup1\n  mload\n  swap1\n  0x20\n  add\n  swap1\n  tag_14\n  swap3\n  swap2\n  swap1\n  tag_7\n  jump\t// in\ntag_14:\n  pop\n    /* \"ethereum/contracts/loss_report.sol\":1977:1988  _timeOfLoss */\n  dup3\n    /* \"ethereum/contracts/loss_report.sol\":1964:1974  timeOfLoss */\n  0x08\n    /* \"ethereum/contracts/loss_report.sol\":1964:1988  timeOfLoss = _timeOfLoss */\n  swap1\n  dup1\n  mload\n  swap1\n  0x20\n  add\n  swap1\n  tag_15\n  swap3\n  swap2\n  swap1\n  tag_7\n  jump\t// in\ntag_15:\n  pop\n    /* \"ethereum/contracts/loss_report.sol\":2016:2031  _locationOfLoss */\n  dup2\n    /* \"ethereum/contracts/loss_report.sol\":1999:2013  locationOfLoss */\n  0x09\n    /* \"ethereum/contracts/loss_report.sol\":1999:2031  locationOfLoss = _locationOfLoss */\n  swap1\n  dup1\n  mload\n  swap1\n  0x20\n  add\n  swap1\n  tag_16\n  swap3\n  swap2\n  swap1\n  tag_7\n  jump\t// in\ntag_16:\n  pop\n    /* \"ethereum/contracts/loss_report.sol\":2056:2068  _valueOfLoss */\n  dup1\n    /* \"ethereum/contracts/loss_report.sol\":2042:2053  valueOfLoss */\n  0x0a\n    /* \"ethereum/contracts/loss_report.sol\":2042:2068  valueOfLoss = _valueOfLoss */\n  swap1\n  dup1\n  mload\n  swap1\n  0x20\n  add\n  swap1\n  tag_17\n  swap3\n  swap2\n  swap1\n  tag_7\n  jump\t// in\ntag_17:\n  pop\n    /* \"ethereum/contracts/loss_report.sol\":2101:2106  false */\n  0x00\n    /* \"ethereum/contracts/loss_report.sol\":2079:2098  isBeingInvestigated */\n  0x0b\n  0x00\n    /* \"ethereum/contracts/loss_report.sol\":2079:2106  isBeingInvestigated = false */\n  0x0100\n  exp\n  dup2\n  sload\n  dup2\n  0xff\n  mul\n  not\n  and\n  swap1\n  dup4\n  iszero\n  iszero\n  mul\n  or\n  swap1\n  sstore\n  pop\n    /* \"ethereum/contracts/loss_report.sol\":2127:2132  false */\n  0x00\n    /* \"ethereum/contracts/loss_report.sol\":2117:2124  isFound */\n  0x0b\n  0x01\n    /* \"ethereum/contracts/loss_report.sol\":2117:2132  isFound = false */\n  0x0100\n  exp\n  dup2\n  sload\n  dup2\n  0xff\n  mul\n  not\n  and\n  swap1\n  dup4\n  iszero\n  iszero\n  mul\n  or\n  swap1\n  sstore\n  pop\n    /* \"ethereum/contracts/loss_report.sol\":1378:2140  constructor(string memory _pid, string memory _name, string memory _cid, string memory _phoneNumber, string memory _emailAddress, string memory _propertyType, string memory _propertyDescription, string memory _dateOfLoss, string memory _timeOfLoss, string memory _locationOfLoss, string memory _valueOfLoss){\r... */\n  pop\n  pop\n  pop\n  pop\n  pop\n  pop\n  pop\n  pop\n  pop\n  pop\n  pop\n    /* \"ethereum/contracts/loss_report.sol\":817:3148  contract LossReport {\r... */\n  jump(tag_18)\ntag_7:\n  dup3\n  dup1\n  sload\n  tag_19\n  swap1\n  tag_20\n  jump\t// in\ntag_19:\n  swap1\n  0x00\n  mstore\n  keccak256(0x00, 0x20)\n  swap1\n  0x1f\n  add\n  0x20\n  swap1\n  div\n  dup2\n  add\n  swap3\n  dup3\n  tag_22\n  jumpi\n  0x00\n  dup6\n  sstore\n  jump(tag_21)\ntag_22:\n  dup3\n  0x1f\n  lt\n  tag_23\n  jumpi\n  dup1\n  mload\n  not(0xff)\n  and\n  dup4\n  dup1\n  add\n  or\n  dup6\n  sstore\n  jump(tag_21)\ntag_23:\n  dup3\n  dup1\n  add\n  0x01\n  add\n  dup6\n  sstore\n  dup3\n  iszero\n  tag_21\n  jumpi\n  swap2\n  dup3\n  add\ntag_24:\n  dup3\n  dup2\n  gt\n  iszero\n  tag_25\n  jumpi\n  dup3\n  mload\n  dup3\n  sstore\n  swap2\n  0x20\n  add\n  swap2\n  swap1\n  0x01\n  add\n  swap1\n  jump(tag_24)\ntag_25:\ntag_21:\n  pop\n  swap1\n  pop\n  tag_26\n  swap2\n  swap1\n  tag_27\n  jump\t// in\ntag_26:\n  pop\n  swap1\n  jump\t// out\ntag_27:\ntag_28:\n  dup1\n  dup3\n  gt\n  iszero\n  tag_29\n  jumpi\n  0x00\n  dup2\n  0x00\n  swap1\n  sstore\n  pop\n  0x01\n  add\n  jump(tag_28)\ntag_29:\n  pop\n  swap1\n  jump\t// out\n    /* \"#utility.yul\":7:428   */\ntag_31:\n    /* \"#utility.yul\":96:101   */\n  0x00\n    /* \"#utility.yul\":121:187   */\n  tag_33\n    /* \"#utility.yul\":137:186   */\n  tag_34\n    /* \"#utility.yul\":179:185   */\n  dup5\n    /* \"#utility.yul\":137:186   */\n  tag_35\n  jump\t// in\ntag_34:\n    /* \"#utility.yul\":121:187   */\n  tag_36\n  jump\t// in\ntag_33:\n    /* \"#utility.yul\":112:187   */\n  swap1\n  pop\n    /* \"#utility.yul\":210:216   */\n  dup3\n    /* \"#utility.yul\":203:208   */\n  dup2\n    /* \"#utility.yul\":196:217   */\n  mstore\n    /* \"#utility.yul\":248:252   */\n  0x20\n    /* \"#utility.yul\":241:246   */\n  dup2\n    /* \"#utility.yul\":237:253   */\n  add\n    /* \"#utility.yul\":286:289   */\n  dup5\n    /* \"#utility.yul\":277:283   */\n  dup5\n    /* \"#utility.yul\":272:275   */\n  dup5\n    /* \"#utility.yul\":268:284   */\n  add\n    /* \"#utility.yul\":265:290   */\n  gt\n    /* \"#utility.yul\":262:264   */\n  iszero\n  tag_37\n  jumpi\n    /* \"#utility.yul\":293:372   */\n  tag_38\n  tag_39\n  jump\t// in\ntag_38:\n    /* \"#utility.yul\":262:264   */\ntag_37:\n    /* \"#utility.yul\":383:422   */\n  tag_40\n    /* \"#utility.yul\":415:421   */\n  dup5\n    /* \"#utility.yul\":410:413   */\n  dup3\n    /* \"#utility.yul\":405:408   */\n  dup6\n    /* \"#utility.yul\":383:422   */\n  tag_41\n  jump\t// in\ntag_40:\n    /* \"#utility.yul\":102:428   */\n  pop\n  swap4\n  swap3\n  pop\n  pop\n  pop\n  jump\t// out\n    /* \"#utility.yul\":448:803   */\ntag_42:\n    /* \"#utility.yul\":515:520   */\n  0x00\n    /* \"#utility.yul\":564:567   */\n  dup3\n    /* \"#utility.yul\":557:561   */\n  0x1f\n    /* \"#utility.yul\":549:555   */\n  dup4\n    /* \"#utility.yul\":545:562   */\n  add\n    /* \"#utility.yul\":541:568   */\n  slt\n    /* \"#utility.yul\":531:533   */\n  tag_44\n  jumpi\n    /* \"#utility.yul\":572:651   */\n  tag_45\n  tag_46\n  jump\t// in\ntag_45:\n    /* \"#utility.yul\":531:533   */\ntag_44:\n    /* \"#utility.yul\":682:688   */\n  dup2\n    /* \"#utility.yul\":676:689   */\n  mload\n    /* \"#utility.yul\":707:797   */\n  tag_47\n    /* \"#utility.yul\":793:796   */\n  dup5\n    /* \"#utility.yul\":785:791   */\n  dup3\n    /* \"#utility.yul\":778:782   */\n  0x20\n    /* \"#utility.yul\":770:776   */\n  dup7\n    /* \"#utility.yul\":766:783   */\n  add\n    /* \"#utility.yul\":707:797   */\n  tag_31\n  jump\t// in\ntag_47:\n    /* \"#utility.yul\":698:797   */\n  swap2\n  pop\n    /* \"#utility.yul\":521:803   */\n  pop\n  swap3\n  swap2\n  pop\n  pop\n  jump\t// out\n    /* \"#utility.yul\":809:4633   */\ntag_3:\n    /* \"#utility.yul\":1079:1085   */\n  0x00\n    /* \"#utility.yul\":1087:1093   */\n  dup1\n    /* \"#utility.yul\":1095:1101   */\n  0x00\n    /* \"#utility.yul\":1103:1109   */\n  dup1\n    /* \"#utility.yul\":1111:1117   */\n  0x00\n    /* \"#utility.yul\":1119:1125   */\n  dup1\n    /* \"#utility.yul\":1127:1133   */\n  0x00\n    /* \"#utility.yul\":1135:1141   */\n  dup1\n    /* \"#utility.yul\":1143:1149   */\n  0x00\n    /* \"#utility.yul\":1151:1157   */\n  dup1\n    /* \"#utility.yul\":1159:1166   */\n  0x00\n    /* \"#utility.yul\":1209:1212   */\n  0x0160\n    /* \"#utility.yul\":1197:1206   */\n  dup13\n    /* \"#utility.yul\":1188:1195   */\n  dup15\n    /* \"#utility.yul\":1184:1207   */\n  sub\n    /* \"#utility.yul\":1180:1213   */\n  slt\n    /* \"#utility.yul\":1177:1179   */\n  iszero\n  tag_49\n  jumpi\n    /* \"#utility.yul\":1216:1295   */\n  tag_50\n  tag_51\n  jump\t// in\ntag_50:\n    /* \"#utility.yul\":1177:1179   */\ntag_49:\n    /* \"#utility.yul\":1357:1358   */\n  0x00\n    /* \"#utility.yul\":1346:1355   */\n  dup13\n    /* \"#utility.yul\":1342:1359   */\n  add\n    /* \"#utility.yul\":1336:1360   */\n  mload\n    /* \"#utility.yul\":1387:1405   */\n  0xffffffffffffffff\n    /* \"#utility.yul\":1379:1385   */\n  dup2\n    /* \"#utility.yul\":1376:1406   */\n  gt\n    /* \"#utility.yul\":1373:1375   */\n  iszero\n  tag_52\n  jumpi\n    /* \"#utility.yul\":1409:1488   */\n  tag_53\n  tag_54\n  jump\t// in\ntag_53:\n    /* \"#utility.yul\":1373:1375   */\ntag_52:\n    /* \"#utility.yul\":1514:1588   */\n  tag_55\n    /* \"#utility.yul\":1580:1587   */\n  dup15\n    /* \"#utility.yul\":1571:1577   */\n  dup3\n    /* \"#utility.yul\":1560:1569   */\n  dup16\n    /* \"#utility.yul\":1556:1578   */\n  add\n    /* \"#utility.yul\":1514:1588   */\n  tag_42\n  jump\t// in\ntag_55:\n    /* \"#utility.yul\":1504:1588   */\n  swap12\n  pop\n    /* \"#utility.yul\":1307:1598   */\n  pop\n    /* \"#utility.yul\":1658:1660   */\n  0x20\n    /* \"#utility.yul\":1647:1656   */\n  dup13\n    /* \"#utility.yul\":1643:1661   */\n  add\n    /* \"#utility.yul\":1637:1662   */\n  mload\n    /* \"#utility.yul\":1689:1707   */\n  0xffffffffffffffff\n    /* \"#utility.yul\":1681:1687   */\n  dup2\n    /* \"#utility.yul\":1678:1708   */\n  gt\n    /* \"#utility.yul\":1675:1677   */\n  iszero\n  tag_56\n  jumpi\n    /* \"#utility.yul\":1711:1790   */\n  tag_57\n  tag_54\n  jump\t// in\ntag_57:\n    /* \"#utility.yul\":1675:1677   */\ntag_56:\n    /* \"#utility.yul\":1816:1890   */\n  tag_58\n    /* \"#utility.yul\":1882:1889   */\n  dup15\n    /* \"#utility.yul\":1873:1879   */\n  dup3\n    /* \"#utility.yul\":1862:1871   */\n  dup16\n    /* \"#utility.yul\":1858:1880   */\n  add\n    /* \"#utility.yul\":1816:1890   */\n  tag_42\n  jump\t// in\ntag_58:\n    /* \"#utility.yul\":1806:1890   */\n  swap11\n  pop\n    /* \"#utility.yul\":1608:1900   */\n  pop\n    /* \"#utility.yul\":1960:1962   */\n  0x40\n    /* \"#utility.yul\":1949:1958   */\n  dup13\n    /* \"#utility.yul\":1945:1963   */\n  add\n    /* \"#utility.yul\":1939:1964   */\n  mload\n    /* \"#utility.yul\":1991:2009   */\n  0xffffffffffffffff\n    /* \"#utility.yul\":1983:1989   */\n  dup2\n    /* \"#utility.yul\":1980:2010   */\n  gt\n    /* \"#utility.yul\":1977:1979   */\n  iszero\n  tag_59\n  jumpi\n    /* \"#utility.yul\":2013:2092   */\n  tag_60\n  tag_54\n  jump\t// in\ntag_60:\n    /* \"#utility.yul\":1977:1979   */\ntag_59:\n    /* \"#utility.yul\":2118:2192   */\n  tag_61\n    /* \"#utility.yul\":2184:2191   */\n  dup15\n    /* \"#utility.yul\":2175:2181   */\n  dup3\n    /* \"#utility.yul\":2164:2173   */\n  dup16\n    /* \"#utility.yul\":2160:2182   */\n  add\n    /* \"#utility.yul\":2118:2192   */\n  tag_42\n  jump\t// in\ntag_61:\n    /* \"#utility.yul\":2108:2192   */\n  swap10\n  pop\n    /* \"#utility.yul\":1910:2202   */\n  pop\n    /* \"#utility.yul\":2262:2264   */\n  0x60\n    /* \"#utility.yul\":2251:2260   */\n  dup13\n    /* \"#utility.yul\":2247:2265   */\n  add\n    /* \"#utility.yul\":2241:2266   */\n  mload\n    /* \"#utility.yul\":2293:2311   */\n  0xffffffffffffffff\n    /* \"#utility.yul\":2285:2291   */\n  dup2\n    /* \"#utility.yul\":2282:2312   */\n  gt\n    /* \"#utility.yul\":2279:2281   */\n  iszero\n  tag_62\n  jumpi\n    /* \"#utility.yul\":2315:2394   */\n  tag_63\n  tag_54\n  jump\t// in\ntag_63:\n    /* \"#utility.yul\":2279:2281   */\ntag_62:\n    /* \"#utility.yul\":2420:2494   */\n  tag_64\n    /* \"#utility.yul\":2486:2493   */\n  dup15\n    /* \"#utility.yul\":2477:2483   */\n  dup3\n    /* \"#utility.yul\":2466:2475   */\n  dup16\n    /* \"#utility.yul\":2462:2484   */\n  add\n    /* \"#utility.yul\":2420:2494   */\n  tag_42\n  jump\t// in\ntag_64:\n    /* \"#utility.yul\":2410:2494   */\n  swap9\n  pop\n    /* \"#utility.yul\":2212:2504   */\n  pop\n    /* \"#utility.yul\":2564:2567   */\n  0x80\n    /* \"#utility.yul\":2553:2562   */\n  dup13\n    /* \"#utility.yul\":2549:2568   */\n  add\n    /* \"#utility.yul\":2543:2569   */\n  mload\n    /* \"#utility.yul\":2596:2614   */\n  0xffffffffffffffff\n    /* \"#utility.yul\":2588:2594   */\n  dup2\n    /* \"#utility.yul\":2585:2615   */\n  gt\n    /* \"#utility.yul\":2582:2584   */\n  iszero\n  tag_65\n  jumpi\n    /* \"#utility.yul\":2618:2697   */\n  tag_66\n  tag_54\n  jump\t// in\ntag_66:\n    /* \"#utility.yul\":2582:2584   */\ntag_65:\n    /* \"#utility.yul\":2723:2797   */\n  tag_67\n    /* \"#utility.yul\":2789:2796   */\n  dup15\n    /* \"#utility.yul\":2780:2786   */\n  dup3\n    /* \"#utility.yul\":2769:2778   */\n  dup16\n    /* \"#utility.yul\":2765:2787   */\n  add\n    /* \"#utility.yul\":2723:2797   */\n  tag_42\n  jump\t// in\ntag_67:\n    /* \"#utility.yul\":2713:2797   */\n  swap8\n  pop\n    /* \"#utility.yul\":2514:2807   */\n  pop\n    /* \"#utility.yul\":2867:2870   */\n  0xa0\n    /* \"#utility.yul\":2856:2865   */\n  dup13\n    /* \"#utility.yul\":2852:2871   */\n  add\n    /* \"#utility.yul\":2846:2872   */\n  mload\n    /* \"#utility.yul\":2899:2917   */\n  0xffffffffffffffff\n    /* \"#utility.yul\":2891:2897   */\n  dup2\n    /* \"#utility.yul\":2888:2918   */\n  gt\n    /* \"#utility.yul\":2885:2887   */\n  iszero\n  tag_68\n  jumpi\n    /* \"#utility.yul\":2921:3000   */\n  tag_69\n  tag_54\n  jump\t// in\ntag_69:\n    /* \"#utility.yul\":2885:2887   */\ntag_68:\n    /* \"#utility.yul\":3026:3100   */\n  tag_70\n    /* \"#utility.yul\":3092:3099   */\n  dup15\n    /* \"#utility.yul\":3083:3089   */\n  dup3\n    /* \"#utility.yul\":3072:3081   */\n  dup16\n    /* \"#utility.yul\":3068:3090   */\n  add\n    /* \"#utility.yul\":3026:3100   */\n  tag_42\n  jump\t// in\ntag_70:\n    /* \"#utility.yul\":3016:3100   */\n  swap7\n  pop\n    /* \"#utility.yul\":2817:3110   */\n  pop\n    /* \"#utility.yul\":3170:3173   */\n  0xc0\n    /* \"#utility.yul\":3159:3168   */\n  dup13\n    /* \"#utility.yul\":3155:3174   */\n  add\n    /* \"#utility.yul\":3149:3175   */\n  mload\n    /* \"#utility.yul\":3202:3220   */\n  0xffffffffffffffff\n    /* \"#utility.yul\":3194:3200   */\n  dup2\n    /* \"#utility.yul\":3191:3221   */\n  gt\n    /* \"#utility.yul\":3188:3190   */\n  iszero\n  tag_71\n  jumpi\n    /* \"#utility.yul\":3224:3303   */\n  tag_72\n  tag_54\n  jump\t// in\ntag_72:\n    /* \"#utility.yul\":3188:3190   */\ntag_71:\n    /* \"#utility.yul\":3329:3403   */\n  tag_73\n    /* \"#utility.yul\":3395:3402   */\n  dup15\n    /* \"#utility.yul\":3386:3392   */\n  dup3\n    /* \"#utility.yul\":3375:3384   */\n  dup16\n    /* \"#utility.yul\":3371:3393   */\n  add\n    /* \"#utility.yul\":3329:3403   */\n  tag_42\n  jump\t// in\ntag_73:\n    /* \"#utility.yul\":3319:3403   */\n  swap6\n  pop\n    /* \"#utility.yul\":3120:3413   */\n  pop\n    /* \"#utility.yul\":3473:3476   */\n  0xe0\n    /* \"#utility.yul\":3462:3471   */\n  dup13\n    /* \"#utility.yul\":3458:3477   */\n  add\n    /* \"#utility.yul\":3452:3478   */\n  mload\n    /* \"#utility.yul\":3505:3523   */\n  0xffffffffffffffff\n    /* \"#utility.yul\":3497:3503   */\n  dup2\n    /* \"#utility.yul\":3494:3524   */\n  gt\n    /* \"#utility.yul\":3491:3493   */\n  iszero\n  tag_74\n  jumpi\n    /* \"#utility.yul\":3527:3606   */\n  tag_75\n  tag_54\n  jump\t// in\ntag_75:\n    /* \"#utility.yul\":3491:3493   */\ntag_74:\n    /* \"#utility.yul\":3632:3706   */\n  tag_76\n    /* \"#utility.yul\":3698:3705   */\n  dup15\n    /* \"#utility.yul\":3689:3695   */\n  dup3\n    /* \"#utility.yul\":3678:3687   */\n  dup16\n    /* \"#utility.yul\":3674:3696   */\n  add\n    /* \"#utility.yul\":3632:3706   */\n  tag_42\n  jump\t// in\ntag_76:\n    /* \"#utility.yul\":3622:3706   */\n  swap5\n  pop\n    /* \"#utility.yul\":3423:3716   */\n  pop\n    /* \"#utility.yul\":3776:3779   */\n  0x0100\n    /* \"#utility.yul\":3765:3774   */\n  dup13\n    /* \"#utility.yul\":3761:3780   */\n  add\n    /* \"#utility.yul\":3755:3781   */\n  mload\n    /* \"#utility.yul\":3808:3826   */\n  0xffffffffffffffff\n    /* \"#utility.yul\":3800:3806   */\n  dup2\n    /* \"#utility.yul\":3797:3827   */\n  gt\n    /* \"#utility.yul\":3794:3796   */\n  iszero\n  tag_77\n  jumpi\n    /* \"#utility.yul\":3830:3909   */\n  tag_78\n  tag_54\n  jump\t// in\ntag_78:\n    /* \"#utility.yul\":3794:3796   */\ntag_77:\n    /* \"#utility.yul\":3935:4009   */\n  tag_79\n    /* \"#utility.yul\":4001:4008   */\n  dup15\n    /* \"#utility.yul\":3992:3998   */\n  dup3\n    /* \"#utility.yul\":3981:3990   */\n  dup16\n    /* \"#utility.yul\":3977:3999   */\n  add\n    /* \"#utility.yul\":3935:4009   */\n  tag_42\n  jump\t// in\ntag_79:\n    /* \"#utility.yul\":3925:4009   */\n  swap4\n  pop\n    /* \"#utility.yul\":3726:4019   */\n  pop\n    /* \"#utility.yul\":4079:4082   */\n  0x0120\n    /* \"#utility.yul\":4068:4077   */\n  dup13\n    /* \"#utility.yul\":4064:4083   */\n  add\n    /* \"#utility.yul\":4058:4084   */\n  mload\n    /* \"#utility.yul\":4111:4129   */\n  0xffffffffffffffff\n    /* \"#utility.yul\":4103:4109   */\n  dup2\n    /* \"#utility.yul\":4100:4130   */\n  gt\n    /* \"#utility.yul\":4097:4099   */\n  iszero\n  tag_80\n  jumpi\n    /* \"#utility.yul\":4133:4212   */\n  tag_81\n  tag_54\n  jump\t// in\ntag_81:\n    /* \"#utility.yul\":4097:4099   */\ntag_80:\n    /* \"#utility.yul\":4238:4312   */\n  tag_82\n    /* \"#utility.yul\":4304:4311   */\n  dup15\n    /* \"#utility.yul\":4295:4301   */\n  dup3\n    /* \"#utility.yul\":4284:4293   */\n  dup16\n    /* \"#utility.yul\":4280:4302   */\n  add\n    /* \"#utility.yul\":4238:4312   */\n  tag_42\n  jump\t// in\ntag_82:\n    /* \"#utility.yul\":4228:4312   */\n  swap3\n  pop\n    /* \"#utility.yul\":4029:4322   */\n  pop\n    /* \"#utility.yul\":4382:4385   */\n  0x0140\n    /* \"#utility.yul\":4371:4380   */\n  dup13\n    /* \"#utility.yul\":4367:4386   */\n  add\n    /* \"#utility.yul\":4361:4387   */\n  mload\n    /* \"#utility.yul\":4414:4432   */\n  0xffffffffffffffff\n    /* \"#utility.yul\":4406:4412   */\n  dup2\n    /* \"#utility.yul\":4403:4433   */\n  gt\n    /* \"#utility.yul\":4400:4402   */\n  iszero\n  tag_83\n  jumpi\n    /* \"#utility.yul\":4436:4515   */\n  tag_84\n  tag_54\n  jump\t// in\ntag_84:\n    /* \"#utility.yul\":4400:4402   */\ntag_83:\n    /* \"#utility.yul\":4542:4616   */\n  tag_85\n    /* \"#utility.yul\":4608:4615   */\n  dup15\n    /* \"#utility.yul\":4599:4605   */\n  dup3\n    /* \"#utility.yul\":4588:4597   */\n  dup16\n    /* \"#utility.yul\":4584:4606   */\n  add\n    /* \"#utility.yul\":4542:4616   */\n  tag_42\n  jump\t// in\ntag_85:\n    /* \"#utility.yul\":4531:4616   */\n  swap2\n  pop\n    /* \"#utility.yul\":4332:4626   */\n  pop\n    /* \"#utility.yul\":1167:4633   */\n  swap3\n  swap6\n  swap9\n  swap12\n  pop\n  swap3\n  swap6\n  swap9\n  swap12\n  swap1\n  swap4\n  swap7\n  swap10\n  pop\n  jump\t// out\n    /* \"#utility.yul\":4639:4768   */\ntag_36:\n    /* \"#utility.yul\":4673:4679   */\n  0x00\n    /* \"#utility.yul\":4700:4720   */\n  tag_87\n  tag_88\n  jump\t// in\ntag_87:\n    /* \"#utility.yul\":4690:4720   */\n  swap1\n  pop\n    /* \"#utility.yul\":4729:4762   */\n  tag_89\n    /* \"#utility.yul\":4757:4761   */\n  dup3\n    /* \"#utility.yul\":4749:4755   */\n  dup3\n    /* \"#utility.yul\":4729:4762   */\n  tag_90\n  jump\t// in\ntag_89:\n    /* \"#utility.yul\":4680:4768   */\n  swap2\n  swap1\n  pop\n  jump\t// out\n    /* \"#utility.yul\":4774:4849   */\ntag_88:\n    /* \"#utility.yul\":4807:4813   */\n  0x00\n    /* \"#utility.yul\":4840:4842   */\n  0x40\n    /* \"#utility.yul\":4834:4843   */\n  mload\n    /* \"#utility.yul\":4824:4843   */\n  swap1\n  pop\n    /* \"#utility.yul\":4814:4849   */\n  swap1\n  jump\t// out\n    /* \"#utility.yul\":4855:5163   */\ntag_35:\n    /* \"#utility.yul\":4917:4921   */\n  0x00\n    /* \"#utility.yul\":5007:5025   */\n  0xffffffffffffffff\n    /* \"#utility.yul\":4999:5005   */\n  dup3\n    /* \"#utility.yul\":4996:5026   */\n  gt\n    /* \"#utility.yul\":4993:4995   */\n  iszero\n  tag_93\n  jumpi\n    /* \"#utility.yul\":5029:5047   */\n  tag_94\n  tag_95\n  jump\t// in\ntag_94:\n    /* \"#utility.yul\":4993:4995   */\ntag_93:\n    /* \"#utility.yul\":5067:5096   */\n  tag_96\n    /* \"#utility.yul\":5089:5095   */\n  dup3\n    /* \"#utility.yul\":5067:5096   */\n  tag_97\n  jump\t// in\ntag_96:\n    /* \"#utility.yul\":5059:5096   */\n  swap1\n  pop\n    /* \"#utility.yul\":5151:5155   */\n  0x20\n    /* \"#utility.yul\":5145:5149   */\n  dup2\n    /* \"#utility.yul\":5141:5156   */\n  add\n    /* \"#utility.yul\":5133:5156   */\n  swap1\n  pop\n    /* \"#utility.yul\":4922:5163   */\n  swap2\n  swap1\n  pop\n  jump\t// out\n    /* \"#utility.yul\":5169:5476   */\ntag_41:\n    /* \"#utility.yul\":5237:5238   */\n  0x00\n    /* \"#utility.yul\":5247:5360   */\ntag_99:\n    /* \"#utility.yul\":5261:5267   */\n  dup4\n    /* \"#utility.yul\":5258:5259   */\n  dup2\n    /* \"#utility.yul\":5255:5268   */\n  lt\n    /* \"#utility.yul\":5247:5360   */\n  iszero\n  tag_101\n  jumpi\n    /* \"#utility.yul\":5346:5347   */\n  dup1\n    /* \"#utility.yul\":5341:5344   */\n  dup3\n    /* \"#utility.yul\":5337:5348   */\n  add\n    /* \"#utility.yul\":5331:5349   */\n  mload\n    /* \"#utility.yul\":5327:5328   */\n  dup2\n    /* \"#utility.yul\":5322:5325   */\n  dup5\n    /* \"#utility.yul\":5318:5329   */\n  add\n    /* \"#utility.yul\":5311:5350   */\n  mstore\n    /* \"#utility.yul\":5283:5285   */\n  0x20\n    /* \"#utility.yul\":5280:5281   */\n  dup2\n    /* \"#utility.yul\":5276:5286   */\n  add\n    /* \"#utility.yul\":5271:5286   */\n  swap1\n  pop\n    /* \"#utility.yul\":5247:5360   */\n  jump(tag_99)\ntag_101:\n    /* \"#utility.yul\":5378:5384   */\n  dup4\n    /* \"#utility.yul\":5375:5376   */\n  dup2\n    /* \"#utility.yul\":5372:5385   */\n  gt\n    /* \"#utility.yul\":5369:5371   */\n  iszero\n  tag_102\n  jumpi\n    /* \"#utility.yul\":5458:5459   */\n  0x00\n    /* \"#utility.yul\":5449:5455   */\n  dup5\n    /* \"#utility.yul\":5444:5447   */\n  dup5\n    /* \"#utility.yul\":5440:5456   */\n  add\n    /* \"#utility.yul\":5433:5460   */\n  mstore\n    /* \"#utility.yul\":5369:5371   */\ntag_102:\n    /* \"#utility.yul\":5218:5476   */\n  pop\n  pop\n  pop\n  pop\n  jump\t// out\n    /* \"#utility.yul\":5482:5802   */\ntag_20:\n    /* \"#utility.yul\":5526:5532   */\n  0x00\n    /* \"#utility.yul\":5563:5564   */\n  0x02\n    /* \"#utility.yul\":5557:5561   */\n  dup3\n    /* \"#utility.yul\":5553:5565   */\n  div\n    /* \"#utility.yul\":5543:5565   */\n  swap1\n  pop\n    /* \"#utility.yul\":5610:5611   */\n  0x01\n    /* \"#utility.yul\":5604:5608   */\n  dup3\n    /* \"#utility.yul\":5600:5612   */\n  and\n    /* \"#utility.yul\":5631:5649   */\n  dup1\n    /* \"#utility.yul\":5621:5623   */\n  tag_104\n  jumpi\n    /* \"#utility.yul\":5687:5691   */\n  0x7f\n    /* \"#utility.yul\":5679:5685   */\n  dup3\n    /* \"#utility.yul\":5675:5692   */\n  and\n    /* \"#utility.yul\":5665:5692   */\n  swap2\n  pop\n    /* \"#utility.yul\":5621:5623   */\ntag_104:\n    /* \"#utility.yul\":5749:5751   */\n  0x20\n    /* \"#utility.yul\":5741:5747   */\n  dup3\n    /* \"#utility.yul\":5738:5752   */\n  lt\n    /* \"#utility.yul\":5718:5736   */\n  dup2\n    /* \"#utility.yul\":5715:5753   */\n  eq\n    /* \"#utility.yul\":5712:5714   */\n  iszero\n  tag_105\n  jumpi\n    /* \"#utility.yul\":5768:5786   */\n  tag_106\n  tag_107\n  jump\t// in\ntag_106:\n    /* \"#utility.yul\":5712:5714   */\ntag_105:\n    /* \"#utility.yul\":5533:5802   */\n  pop\n  swap2\n  swap1\n  pop\n  jump\t// out\n    /* \"#utility.yul\":5808:6089   */\ntag_90:\n    /* \"#utility.yul\":5891:5918   */\n  tag_109\n    /* \"#utility.yul\":5913:5917   */\n  dup3\n    /* \"#utility.yul\":5891:5918   */\n  tag_97\n  jump\t// in\ntag_109:\n    /* \"#utility.yul\":5883:5889   */\n  dup2\n    /* \"#utility.yul\":5879:5919   */\n  add\n    /* \"#utility.yul\":6021:6027   */\n  dup2\n    /* \"#utility.yul\":6009:6019   */\n  dup2\n    /* \"#utility.yul\":6006:6028   */\n  lt\n    /* \"#utility.yul\":5985:6003   */\n  0xffffffffffffffff\n    /* \"#utility.yul\":5973:5983   */\n  dup3\n    /* \"#utility.yul\":5970:6004   */\n  gt\n    /* \"#utility.yul\":5967:6029   */\n  or\n    /* \"#utility.yul\":5964:5966   */\n  iszero\n  tag_110\n  jumpi\n    /* \"#utility.yul\":6032:6050   */\n  tag_111\n  tag_95\n  jump\t// in\ntag_111:\n    /* \"#utility.yul\":5964:5966   */\ntag_110:\n    /* \"#utility.yul\":6072:6082   */\n  dup1\n    /* \"#utility.yul\":6068:6070   */\n  0x40\n    /* \"#utility.yul\":6061:6083   */\n  mstore\n    /* \"#utility.yul\":5851:6089   */\n  pop\n  pop\n  pop\n  jump\t// out\n    /* \"#utility.yul\":6095:6275   */\ntag_107:\n    /* \"#utility.yul\":6143:6220   */\n  0x4e487b7100000000000000000000000000000000000000000000000000000000\n    /* \"#utility.yul\":6140:6141   */\n  0x00\n    /* \"#utility.yul\":6133:6221   */\n  mstore\n    /* \"#utility.yul\":6240:6244   */\n  0x22\n    /* \"#utility.yul\":6237:6238   */\n  0x04\n    /* \"#utility.yul\":6230:6245   */\n  mstore\n    /* \"#utility.yul\":6264:6268   */\n  0x24\n    /* \"#utility.yul\":6261:6262   */\n  0x00\n    /* \"#utility.yul\":6254:6269   */\n  revert\n    /* \"#utility.yul\":6281:6461   */\ntag_95:\n    /* \"#utility.yul\":6329:6406   */\n  0x4e487b7100000000000000000000000000000000000000000000000000000000\n    /* \"#utility.yul\":6326:6327   */\n  0x00\n    /* \"#utility.yul\":6319:6407   */\n  mstore\n    /* \"#utility.yul\":6426:6430   */\n  0x41\n    /* \"#utility.yul\":6423:6424   */\n  0x04\n    /* \"#utility.yul\":6416:6431   */\n  mstore\n    /* \"#utility.yul\":6450:6454   */\n  0x24\n    /* \"#utility.yul\":6447:6448   */\n  0x00\n    /* \"#utility.yul\":6440:6455   */\n  revert\n    /* \"#utility.yul\":6467:6584   */\ntag_46:\n    /* \"#utility.yul\":6576:6577   */\n  0x00\n    /* \"#utility.yul\":6573:6574   */\n  dup1\n    /* \"#utility.yul\":6566:6578   */\n  revert\n    /* \"#utility.yul\":6590:6707   */\ntag_39:\n    /* \"#utility.yul\":6699:6700   */\n  0x00\n    /* \"#utility.yul\":6696:6697   */\n  dup1\n    /* \"#utility.yul\":6689:6701   */\n  revert\n    /* \"#utility.yul\":6713:6830   */\ntag_54:\n    /* \"#utility.yul\":6822:6823   */\n  0x00\n    /* \"#utility.yul\":6819:6820   */\n  dup1\n    /* \"#utility.yul\":6812:6824   */\n  revert\n    /* \"#utility.yul\":6836:6953   */\ntag_51:\n    /* \"#utility.yul\":6945:6946   */\n  0x00\n    /* \"#utility.yul\":6942:6943   */\n  dup1\n    /* \"#utility.yul\":6935:6947   */\n  revert\n    /* \"#utility.yul\":6959:7061   */\ntag_97:\n    /* \"#utility.yul\":7000:7006   */\n  0x00\n    /* \"#utility.yul\":7051:7053   */\n  0x1f\n    /* \"#utility.yul\":7047:7054   */\n  not\n    /* \"#utility.yul\":7042:7044   */\n  0x1f\n    /* \"#utility.yul\":7035:7040   */\n  dup4\n    /* \"#utility.yul\":7031:7045   */\n  add\n    /* \"#utility.yul\":7027:7055   */\n  and\n    /* \"#utility.yul\":7017:7055   */\n  swap1\n  pop\n    /* \"#utility.yul\":7007:7061   */\n  swap2\n  swap1\n  pop\n  jump\t// out\n    /* \"ethereum/contracts/loss_report.sol\":817:3148  contract LossReport {\r... */\ntag_18:\n  dataSize(sub_0)\n  dup1\n  dataOffset(sub_0)\n  0x00\n  codecopy\n  0x00\n  return\nstop\n\nsub_0: assembly {\n        /* \"ethereum/contracts/loss_report.sol\":817:3148  contract LossReport {\r... */\n      mstore(0x40, 0x80)\n      callvalue\n      dup1\n      iszero\n      tag_1\n      jumpi\n      0x00\n      dup1\n      revert\n    tag_1:\n      pop\n      jumpi(tag_2, lt(calldatasize, 0x04))\n      shr(0xe0, calldataload(0x00))\n      dup1\n      0x30884b68\n      eq\n      tag_3\n      jumpi\n      dup1\n      0x3bc5de30\n      eq\n      tag_4\n      jumpi\n      dup1\n      0x47f450b0\n      eq\n      tag_5\n      jumpi\n      dup1\n      0x4a2bfdc7\n      eq\n      tag_6\n      jumpi\n      dup1\n      0x86444b43\n      eq\n      tag_7\n      jumpi\n      dup1\n      0xdc4ade84\n      eq\n      tag_8\n      jumpi\n    tag_2:\n      0x00\n      dup1\n      revert\n        /* \"ethereum/contracts/loss_report.sol\":3055:3143  function getPictureID() public view returns(string memory) {\r... */\n    tag_3:\n      tag_9\n      tag_10\n      jump\t// in\n    tag_9:\n      mload(0x40)\n      tag_11\n      swap2\n      swap1\n      tag_12\n      jump\t// in\n    tag_11:\n      mload(0x40)\n      dup1\n      swap2\n      sub\n      swap1\n      return\n        /* \"ethereum/contracts/loss_report.sol\":2668:3043  function getData() public view returns(string memory, string memory,string memory,string memory,string memory,string memory,string memory,string memory,string memory,string memory, bool, bool) {\r... */\n    tag_4:\n      tag_13\n      tag_14\n      jump\t// in\n    tag_13:\n      mload(0x40)\n      tag_15\n      swap13\n      swap12\n      swap11\n      swap10\n      swap9\n      swap8\n      swap7\n      swap6\n      swap5\n      swap4\n      swap3\n      swap2\n      swap1\n      tag_16\n      jump\t// in\n    tag_15:\n      mload(0x40)\n      dup1\n      swap2\n      sub\n      swap1\n      return\n        /* \"ethereum/contracts/loss_report.sol\":2554:2660  function getInvestigator() public view returns(Investigator memory) {\r... */\n    tag_5:\n      tag_17\n      tag_18\n      jump\t// in\n    tag_17:\n      mload(0x40)\n      tag_19\n      swap2\n      swap1\n      tag_20\n      jump\t// in\n    tag_19:\n      mload(0x40)\n      dup1\n      swap2\n      sub\n      swap1\n      return\n        /* \"ethereum/contracts/loss_report.sol\":2391:2475  function investigationStarted() public {\r... */\n    tag_6:\n      tag_21\n      tag_22\n      jump\t// in\n    tag_21:\n      stop\n        /* \"ethereum/contracts/loss_report.sol\":2148:2383  function setInvestigator(string memory _name, string memory _cid, string memory _badgeNumber, string memory _rank) public {\r... */\n    tag_7:\n      tag_23\n      0x04\n      dup1\n      calldatasize\n      sub\n      dup2\n      add\n      swap1\n      tag_24\n      swap2\n      swap1\n      tag_25\n      jump\t// in\n    tag_24:\n      tag_26\n      jump\t// in\n    tag_23:\n      stop\n        /* \"ethereum/contracts/loss_report.sol\":2483:2546  function markAsFound() public {\r... */\n    tag_8:\n      tag_27\n      tag_28\n      jump\t// in\n    tag_27:\n      stop\n        /* \"ethereum/contracts/loss_report.sol\":3055:3143  function getPictureID() public view returns(string memory) {\r... */\n    tag_10:\n        /* \"ethereum/contracts/loss_report.sol\":3099:3112  string memory */\n      0x60\n        /* \"ethereum/contracts/loss_report.sol\":3132:3135  pid */\n      0x00\n        /* \"ethereum/contracts/loss_report.sol\":3125:3135  return pid */\n      dup1\n      sload\n      tag_30\n      swap1\n      tag_31\n      jump\t// in\n    tag_30:\n      dup1\n      0x1f\n      add\n      0x20\n      dup1\n      swap2\n      div\n      mul\n      0x20\n      add\n      mload(0x40)\n      swap1\n      dup2\n      add\n      0x40\n      mstore\n      dup1\n      swap3\n      swap2\n      swap1\n      dup2\n      dup2\n      mstore\n      0x20\n      add\n      dup3\n      dup1\n      sload\n      tag_32\n      swap1\n      tag_31\n      jump\t// in\n    tag_32:\n      dup1\n      iszero\n      tag_33\n      jumpi\n      dup1\n      0x1f\n      lt\n      tag_34\n      jumpi\n      0x0100\n      dup1\n      dup4\n      sload\n      div\n      mul\n      dup4\n      mstore\n      swap2\n      0x20\n      add\n      swap2\n      jump(tag_33)\n    tag_34:\n      dup3\n      add\n      swap2\n      swap1\n      0x00\n      mstore\n      keccak256(0x00, 0x20)\n      swap1\n    tag_35:\n      dup2\n      sload\n      dup2\n      mstore\n      swap1\n      0x01\n      add\n      swap1\n      0x20\n      add\n      dup1\n      dup4\n      gt\n      tag_35\n      jumpi\n      dup3\n      swap1\n      sub\n      0x1f\n      and\n      dup3\n      add\n      swap2\n    tag_33:\n      pop\n      pop\n      pop\n      pop\n      pop\n      swap1\n      pop\n        /* \"ethereum/contracts/loss_report.sol\":3055:3143  function getPictureID() public view returns(string memory) {\r... */\n      swap1\n      jump\t// out\n        /* \"ethereum/contracts/loss_report.sol\":2668:3043  function getData() public view returns(string memory, string memory,string memory,string memory,string memory,string memory,string memory,string memory,string memory,string memory, bool, bool) {\r... */\n    tag_14:\n        /* \"ethereum/contracts/loss_report.sol\":2707:2720  string memory */\n      0x60\n        /* \"ethereum/contracts/loss_report.sol\":2722:2735  string memory */\n      dup1\n        /* \"ethereum/contracts/loss_report.sol\":2736:2749  string memory */\n      0x60\n        /* \"ethereum/contracts/loss_report.sol\":2750:2763  string memory */\n      dup1\n        /* \"ethereum/contracts/loss_report.sol\":2764:2777  string memory */\n      0x60\n        /* \"ethereum/contracts/loss_report.sol\":2778:2791  string memory */\n      dup1\n        /* \"ethereum/contracts/loss_report.sol\":2792:2805  string memory */\n      0x60\n        /* \"ethereum/contracts/loss_report.sol\":2806:2819  string memory */\n      dup1\n        /* \"ethereum/contracts/loss_report.sol\":2820:2833  string memory */\n      0x60\n        /* \"ethereum/contracts/loss_report.sol\":2834:2847  string memory */\n      dup1\n        /* \"ethereum/contracts/loss_report.sol\":2849:2853  bool */\n      0x00\n        /* \"ethereum/contracts/loss_report.sol\":2855:2859  bool */\n      dup1\n        /* \"ethereum/contracts/loss_report.sol\":2880:2884  name */\n      0x01\n        /* \"ethereum/contracts/loss_report.sol\":2886:2889  cid */\n      0x02\n        /* \"ethereum/contracts/loss_report.sol\":2891:2902  phoneNumber */\n      0x03\n        /* \"ethereum/contracts/loss_report.sol\":2904:2916  emailAddress */\n      0x04\n        /* \"ethereum/contracts/loss_report.sol\":2918:2930  propertyType */\n      0x05\n        /* \"ethereum/contracts/loss_report.sol\":2932:2951  propertyDescription */\n      0x06\n        /* \"ethereum/contracts/loss_report.sol\":2953:2963  dateOfLoss */\n      0x07\n        /* \"ethereum/contracts/loss_report.sol\":2965:2975  timeOfLoss */\n      0x08\n        /* \"ethereum/contracts/loss_report.sol\":2977:2991  locationOfLoss */\n      0x09\n        /* \"ethereum/contracts/loss_report.sol\":2993:3004  valueOfLoss */\n      0x0a\n        /* \"ethereum/contracts/loss_report.sol\":3006:3025  isBeingInvestigated */\n      0x0b\n      0x00\n      swap1\n      sload\n      swap1\n      0x0100\n      exp\n      swap1\n      div\n      0xff\n      and\n        /* \"ethereum/contracts/loss_report.sol\":3027:3034  isFound */\n      0x0b\n      0x01\n      swap1\n      sload\n      swap1\n      0x0100\n      exp\n      swap1\n      div\n      0xff\n      and\n        /* \"ethereum/contracts/loss_report.sol\":2872:3035  return (name, cid, phoneNumber, emailAddress, propertyType, propertyDescription, dateOfLoss, timeOfLoss, locationOfLoss, valueOfLoss, isBeingInvestigated, isFound) */\n      dup12\n      dup1\n      sload\n      tag_37\n      swap1\n      tag_31\n      jump\t// in\n    tag_37:\n      dup1\n      0x1f\n      add\n      0x20\n      dup1\n      swap2\n      div\n      mul\n      0x20\n      add\n      mload(0x40)\n      swap1\n      dup2\n      add\n      0x40\n      mstore\n      dup1\n      swap3\n      swap2\n      swap1\n      dup2\n      dup2\n      mstore\n      0x20\n      add\n      dup3\n      dup1\n      sload\n      tag_38\n      swap1\n      tag_31\n      jump\t// in\n    tag_38:\n      dup1\n      iszero\n      tag_39\n      jumpi\n      dup1\n      0x1f\n      lt\n      tag_40\n      jumpi\n      0x0100\n      dup1\n      dup4\n      sload\n      div\n      mul\n      dup4\n      mstore\n      swap2\n      0x20\n      add\n      swap2\n      jump(tag_39)\n    tag_40:\n      dup3\n      add\n      swap2\n      swap1\n      0x00\n      mstore\n      keccak256(0x00, 0x20)\n      swap1\n    tag_41:\n      dup2\n      sload\n      dup2\n      mstore\n      swap1\n      0x01\n      add\n      swap1\n      0x20\n      add\n      dup1\n      dup4\n      gt\n      tag_41\n      jumpi\n      dup3\n      swap1\n      sub\n      0x1f\n      and\n      dup3\n      add\n      swap2\n    tag_39:\n      pop\n      pop\n      pop\n      pop\n      pop\n      swap12\n      pop\n      dup11\n      dup1\n      sload\n      tag_42\n      swap1\n      tag_31\n      jump\t// in\n    tag_42:\n      dup1\n      0x1f\n      add\n      0x20\n      dup1\n      swap2\n      div\n      mul\n      0x20\n      add\n      mload(0x40)\n      swap1\n      dup2\n      add\n      0x40\n      mstore\n      dup1\n      swap3\n      swap2\n      swap1\n      dup2\n      dup2\n      mstore\n      0x20\n      add\n      dup3\n      dup1\n      sload\n      tag_43\n      swap1\n      tag_31\n      jump\t// in\n    tag_43:\n      dup1\n      iszero\n      tag_44\n      jumpi\n      dup1\n      0x1f\n      lt\n      tag_45\n      jumpi\n      0x0100\n      dup1\n      dup4\n      sload\n      div\n      mul\n      dup4\n      mstore\n      swap2\n      0x20\n      add\n      swap2\n      jump(tag_44)\n    tag_45:\n      dup3\n      add\n      swap2\n      swap1\n      0x00\n      mstore\n      keccak256(0x00, 0x20)\n      swap1\n    tag_46:\n      dup2\n      sload\n      dup2\n      mstore\n      swap1\n      0x01\n      add\n      swap1\n      0x20\n      add\n      dup1\n      dup4\n      gt\n      tag_46\n      jumpi\n      dup3\n      swap1\n      sub\n      0x1f\n      and\n      dup3\n      add\n      swap2\n    tag_44:\n      pop\n      pop\n      pop\n      pop\n      pop\n      swap11\n      pop\n      dup10\n      dup1\n      sload\n      tag_47\n      swap1\n      tag_31\n      jump\t// in\n    tag_47:\n      dup1\n      0x1f\n      add\n      0x20\n      dup1\n      swap2\n      div\n      mul\n      0x20\n      add\n      mload(0x40)\n      swap1\n      dup2\n      add\n      0x40\n      mstore\n      dup1\n      swap3\n      swap2\n      swap1\n      dup2\n      dup2\n      mstore\n      0x20\n      add\n      dup3\n      dup1\n      sload\n      tag_48\n      swap1\n      tag_31\n      jump\t// in\n    tag_48:\n      dup1\n      iszero\n      tag_49\n      jumpi\n      dup1\n      0x1f\n      lt\n      tag_50\n      jumpi\n      0x0100\n      dup1\n      dup4\n      sload\n      div\n      mul\n      dup4\n      mstore\n      swap2\n      0x20\n      add\n      swap2\n      jump(tag_49)\n    tag_50:\n      dup3\n      add\n      swap2\n      swap1\n      0x00\n      mstore\n      keccak256(0x00, 0x20)\n      swap1\n    tag_51:\n      dup2\n      sload\n      dup2\n      mstore\n      swap1\n      0x01\n      add\n      swap1\n      0x20\n      add\n      dup1\n      dup4\n      gt\n      tag_51\n      jumpi\n      dup3\n      swap1\n      sub\n      0x1f\n      and\n      dup3\n      add\n      swap2\n    tag_49:\n      pop\n      pop\n      pop\n      pop\n      pop\n      swap10\n      pop\n      dup9\n      dup1\n      sload\n      tag_52\n      swap1\n      tag_31\n      jump\t// in\n    tag_52:\n      dup1\n      0x1f\n      add\n      0x20\n      dup1\n      swap2\n      div\n      mul\n      0x20\n      add\n      mload(0x40)\n      swap1\n      dup2\n      add\n      0x40\n      mstore\n      dup1\n      swap3\n      swap2\n      swap1\n      dup2\n      dup2\n      mstore\n      0x20\n      add\n      dup3\n      dup1\n      sload\n      tag_53\n      swap1\n      tag_31\n      jump\t// in\n    tag_53:\n      dup1\n      iszero\n      tag_54\n      jumpi\n      dup1\n      0x1f\n      lt\n      tag_55\n      jumpi\n      0x0100\n      dup1\n      dup4\n      sload\n      div\n      mul\n      dup4\n      mstore\n      swap2\n      0x20\n      add\n      swap2\n      jump(tag_54)\n    tag_55:\n      dup3\n      add\n      swap2\n      swap1\n      0x00\n      mstore\n      keccak256(0x00, 0x20)\n      swap1\n    tag_56:\n      dup2\n      sload\n      dup2\n      mstore\n      swap1\n      0x01\n      add\n      swap1\n      0x20\n      add\n      dup1\n      dup4\n      gt\n      tag_56\n      jumpi\n      dup3\n      swap1\n      sub\n      0x1f\n      and\n      dup3\n      add\n      swap2\n    tag_54:\n      pop\n      pop\n      pop\n      pop\n      pop\n      swap9\n      pop\n      dup8\n      dup1\n      sload\n      tag_57\n      swap1\n      tag_31\n      jump\t// in\n    tag_57:\n      dup1\n      0x1f\n      add\n      0x20\n      dup1\n      swap2\n      div\n      mul\n      0x20\n      add\n      mload(0x40)\n      swap1\n      dup2\n      add\n      0x40\n      mstore\n      dup1\n      swap3\n      swap2\n      swap1\n      dup2\n      dup2\n      mstore\n      0x20\n      add\n      dup3\n      dup1\n      sload\n      tag_58\n      swap1\n      tag_31\n      jump\t// in\n    tag_58:\n      dup1\n      iszero\n      tag_59\n      jumpi\n      dup1\n      0x1f\n      lt\n      tag_60\n      jumpi\n      0x0100\n      dup1\n      dup4\n      sload\n      div\n      mul\n      dup4\n      mstore\n      swap2\n      0x20\n      add\n      swap2\n      jump(tag_59)\n    tag_60:\n      dup3\n      add\n      swap2\n      swap1\n      0x00\n      mstore\n      keccak256(0x00, 0x20)\n      swap1\n    tag_61:\n      dup2\n      sload\n      dup2\n      mstore\n      swap1\n      0x01\n      add\n      swap1\n      0x20\n      add\n      dup1\n      dup4\n      gt\n      tag_61\n      jumpi\n      dup3\n      swap1\n      sub\n      0x1f\n      and\n      dup3\n      add\n      swap2\n    tag_59:\n      pop\n      pop\n      pop\n      pop\n      pop\n      swap8\n      pop\n      dup7\n      dup1\n      sload\n      tag_62\n      swap1\n      tag_31\n      jump\t// in\n    tag_62:\n      dup1\n      0x1f\n      add\n      0x20\n      dup1\n      swap2\n      div\n      mul\n      0x20\n      add\n      mload(0x40)\n      swap1\n      dup2\n      add\n      0x40\n      mstore\n      dup1\n      swap3\n      swap2\n      swap1\n      dup2\n      dup2\n      mstore\n      0x20\n      add\n      dup3\n      dup1\n      sload\n      tag_63\n      swap1\n      tag_31\n      jump\t// in\n    tag_63:\n      dup1\n      iszero\n      tag_64\n      jumpi\n      dup1\n      0x1f\n      lt\n      tag_65\n      jumpi\n      0x0100\n      dup1\n      dup4\n      sload\n      div\n      mul\n      dup4\n      mstore\n      swap2\n      0x20\n      add\n      swap2\n      jump(tag_64)\n    tag_65:\n      dup3\n      add\n      swap2\n      swap1\n      0x00\n      mstore\n      keccak256(0x00, 0x20)\n      swap1\n    tag_66:\n      dup2\n      sload\n      dup2\n      mstore\n      swap1\n      0x01\n      add\n      swap1\n      0x20\n      add\n      dup1\n      dup4\n      gt\n      tag_66\n      jumpi\n      dup3\n      swap1\n      sub\n      0x1f\n      and\n      dup3\n      add\n      swap2\n    tag_64:\n      pop\n      pop\n      pop\n      pop\n      pop\n      swap7\n      pop\n      dup6\n      dup1\n      sload\n      tag_67\n      swap1\n      tag_31\n      jump\t// in\n    tag_67:\n      dup1\n      0x1f\n      add\n      0x20\n      dup1\n      swap2\n      div\n      mul\n      0x20\n      add\n      mload(0x40)\n      swap1\n      dup2\n      add\n      0x40\n      mstore\n      dup1\n      swap3\n      swap2\n      swap1\n      dup2\n      dup2\n      mstore\n      0x20\n      add\n      dup3\n      dup1\n      sload\n      tag_68\n      swap1\n      tag_31\n      jump\t// in\n    tag_68:\n      dup1\n      iszero\n      tag_69\n      jumpi\n      dup1\n      0x1f\n      lt\n      tag_70\n      jumpi\n      0x0100\n      dup1\n      dup4\n      sload\n      div\n      mul\n      dup4\n      mstore\n      swap2\n      0x20\n      add\n      swap2\n      jump(tag_69)\n    tag_70:\n      dup3\n      add\n      swap2\n      swap1\n      0x00\n      mstore\n      keccak256(0x00, 0x20)\n      swap1\n    tag_71:\n      dup2\n      sload\n      dup2\n      mstore\n      swap1\n      0x01\n      add\n      swap1\n      0x20\n      add\n      dup1\n      dup4\n      gt\n      tag_71\n      jumpi\n      dup3\n      swap1\n      sub\n      0x1f\n      and\n      dup3\n      add\n      swap2\n    tag_69:\n      pop\n      pop\n      pop\n      pop\n      pop\n      swap6\n      pop\n      dup5\n      dup1\n      sload\n      tag_72\n      swap1\n      tag_31\n      jump\t// in\n    tag_72:\n      dup1\n      0x1f\n      add\n      0x20\n      dup1\n      swap2\n      div\n      mul\n      0x20\n      add\n      mload(0x40)\n      swap1\n      dup2\n      add\n      0x40\n      mstore\n      dup1\n      swap3\n      swap2\n      swap1\n      dup2\n      dup2\n      mstore\n      0x20\n      add\n      dup3\n      dup1\n      sload\n      tag_73\n      swap1\n      tag_31\n      jump\t// in\n    tag_73:\n      dup1\n      iszero\n      tag_74\n      jumpi\n      dup1\n      0x1f\n      lt\n      tag_75\n      jumpi\n      0x0100\n      dup1\n      dup4\n      sload\n      div\n      mul\n      dup4\n      mstore\n      swap2\n      0x20\n      add\n      swap2\n      jump(tag_74)\n    tag_75:\n      dup3\n      add\n      swap2\n      swap1\n      0x00\n      mstore\n      keccak256(0x00, 0x20)\n      swap1\n    tag_76:\n      dup2\n      sload\n      dup2\n      mstore\n      swap1\n      0x01\n      add\n      swap1\n      0x20\n      add\n      dup1\n      dup4\n      gt\n      tag_76\n      jumpi\n      dup3\n      swap1\n      sub\n      0x1f\n      and\n      dup3\n      add\n      swap2\n    tag_74:\n      pop\n      pop\n      pop\n      pop\n      pop\n      swap5\n      pop\n      dup4\n      dup1\n      sload\n      tag_77\n      swap1\n      tag_31\n      jump\t// in\n    tag_77:\n      dup1\n      0x1f\n      add\n      0x20\n      dup1\n      swap2\n      div\n      mul\n      0x20\n      add\n      mload(0x40)\n      swap1\n      dup2\n      add\n      0x40\n      mstore\n      dup1\n      swap3\n      swap2\n      swap1\n      dup2\n      dup2\n      mstore\n      0x20\n      add\n      dup3\n      dup1\n      sload\n      tag_78\n      swap1\n      tag_31\n      jump\t// in\n    tag_78:\n      dup1\n      iszero\n      tag_79\n      jumpi\n      dup1\n      0x1f\n      lt\n      tag_80\n      jumpi\n      0x0100\n      dup1\n      dup4\n      sload\n      div\n      mul\n      dup4\n      mstore\n      swap2\n      0x20\n      add\n      swap2\n      jump(tag_79)\n    tag_80:\n      dup3\n      add\n      swap2\n      swap1\n      0x00\n      mstore\n      keccak256(0x00, 0x20)\n      swap1\n    tag_81:\n      dup2\n      sload\n      dup2\n      mstore\n      swap1\n      0x01\n      add\n      swap1\n      0x20\n      add\n      dup1\n      dup4\n      gt\n      tag_81\n      jumpi\n      dup3\n      swap1\n      sub\n      0x1f\n      and\n      dup3\n      add\n      swap2\n    tag_79:\n      pop\n      pop\n      pop\n      pop\n      pop\n      swap4\n      pop\n      dup3\n      dup1\n      sload\n      tag_82\n      swap1\n      tag_31\n      jump\t// in\n    tag_82:\n      dup1\n      0x1f\n      add\n      0x20\n      dup1\n      swap2\n      div\n      mul\n      0x20\n      add\n      mload(0x40)\n      swap1\n      dup2\n      add\n      0x40\n      mstore\n      dup1\n      swap3\n      swap2\n      swap1\n      dup2\n      dup2\n      mstore\n      0x20\n      add\n      dup3\n      dup1\n      sload\n      tag_83\n      swap1\n      tag_31\n      jump\t// in\n    tag_83:\n      dup1\n      iszero\n      tag_84\n      jumpi\n      dup1\n      0x1f\n      lt\n      tag_85\n      jumpi\n      0x0100\n      dup1\n      dup4\n      sload\n      div\n      mul\n      dup4\n      mstore\n      swap2\n      0x20\n      add\n      swap2\n      jump(tag_84)\n    tag_85:\n      dup3\n      add\n      swap2\n      swap1\n      0x00\n      mstore\n      keccak256(0x00, 0x20)\n      swap1\n    tag_86:\n      dup2\n      sload\n      dup2\n      mstore\n      swap1\n      0x01\n      add\n      swap1\n      0x20\n      add\n      dup1\n      dup4\n      gt\n      tag_86\n      jumpi\n      dup3\n      swap1\n      sub\n      0x1f\n      and\n      dup3\n      add\n      swap2\n    tag_84:\n      pop\n      pop\n      pop\n      pop\n      pop\n      swap3\n      pop\n      swap12\n      pop\n      swap12\n      pop\n      swap12\n      pop\n      swap12\n      pop\n      swap12\n      pop\n      swap12\n      pop\n      swap12\n      pop\n      swap12\n      pop\n      swap12\n      pop\n      swap12\n      pop\n      swap12\n      pop\n      swap12\n      pop\n        /* \"ethereum/contracts/loss_report.sol\":2668:3043  function getData() public view returns(string memory, string memory,string memory,string memory,string memory,string memory,string memory,string memory,string memory,string memory, bool, bool) {\r... */\n      swap1\n      swap2\n      swap3\n      swap4\n      swap5\n      swap6\n      swap7\n      swap8\n      swap9\n      swap10\n      swap11\n      swap12\n      jump\t// out\n        /* \"ethereum/contracts/loss_report.sol\":2554:2660  function getInvestigator() public view returns(Investigator memory) {\r... */\n    tag_18:\n        /* \"ethereum/contracts/loss_report.sol\":2601:2620  Investigator memory */\n      tag_87\n      tag_88\n      jump\t// in\n    tag_87:\n        /* \"ethereum/contracts/loss_report.sol\":2640:2652  investigator */\n      0x0c\n        /* \"ethereum/contracts/loss_report.sol\":2633:2652  return investigator */\n      mload(0x40)\n      dup1\n      0x80\n      add\n      0x40\n      mstore\n      swap1\n      dup2\n      0x00\n      dup3\n      add\n      dup1\n      sload\n      tag_90\n      swap1\n      tag_31\n      jump\t// in\n    tag_90:\n      dup1\n      0x1f\n      add\n      0x20\n      dup1\n      swap2\n      div\n      mul\n      0x20\n      add\n      mload(0x40)\n      swap1\n      dup2\n      add\n      0x40\n      mstore\n      dup1\n      swap3\n      swap2\n      swap1\n      dup2\n      dup2\n      mstore\n      0x20\n      add\n      dup3\n      dup1\n      sload\n      tag_91\n      swap1\n      tag_31\n      jump\t// in\n    tag_91:\n      dup1\n      iszero\n      tag_92\n      jumpi\n      dup1\n      0x1f\n      lt\n      tag_93\n      jumpi\n      0x0100\n      dup1\n      dup4\n      sload\n      div\n      mul\n      dup4\n      mstore\n      swap2\n      0x20\n      add\n      swap2\n      jump(tag_92)\n    tag_93:\n      dup3\n      add\n      swap2\n      swap1\n      0x00\n      mstore\n      keccak256(0x00, 0x20)\n      swap1\n    tag_94:\n      dup2\n      sload\n      dup2\n      mstore\n      swap1\n      0x01\n      add\n      swap1\n      0x20\n      add\n      dup1\n      dup4\n      gt\n      tag_94\n      jumpi\n      dup3\n      swap1\n      sub\n      0x1f\n      and\n      dup3\n      add\n      swap2\n    tag_92:\n      pop\n      pop\n      pop\n      pop\n      pop\n      dup2\n      mstore\n      0x20\n      add\n      0x01\n      dup3\n      add\n      dup1\n      sload\n      tag_95\n      swap1\n      tag_31\n      jump\t// in\n    tag_95:\n      dup1\n      0x1f\n      add\n      0x20\n      dup1\n      swap2\n      div\n      mul\n      0x20\n      add\n      mload(0x40)\n      swap1\n      dup2\n      add\n      0x40\n      mstore\n      dup1\n      swap3\n      swap2\n      swap1\n      dup2\n      dup2\n      mstore\n      0x20\n      add\n      dup3\n      dup1\n      sload\n      tag_96\n      swap1\n      tag_31\n      jump\t// in\n    tag_96:\n      dup1\n      iszero\n      tag_97\n      jumpi\n      dup1\n      0x1f\n      lt\n      tag_98\n      jumpi\n      0x0100\n      dup1\n      dup4\n      sload\n      div\n      mul\n      dup4\n      mstore\n      swap2\n      0x20\n      add\n      swap2\n      jump(tag_97)\n    tag_98:\n      dup3\n      add\n      swap2\n      swap1\n      0x00\n      mstore\n      keccak256(0x00, 0x20)\n      swap1\n    tag_99:\n      dup2\n      sload\n      dup2\n      mstore\n      swap1\n      0x01\n      add\n      swap1\n      0x20\n      add\n      dup1\n      dup4\n      gt\n      tag_99\n      jumpi\n      dup3\n      swap1\n      sub\n      0x1f\n      and\n      dup3\n      add\n      swap2\n    tag_97:\n      pop\n      pop\n      pop\n      pop\n      pop\n      dup2\n      mstore\n      0x20\n      add\n      0x02\n      dup3\n      add\n      dup1\n      sload\n      tag_100\n      swap1\n      tag_31\n      jump\t// in\n    tag_100:\n      dup1\n      0x1f\n      add\n      0x20\n      dup1\n      swap2\n      div\n      mul\n      0x20\n      add\n      mload(0x40)\n      swap1\n      dup2\n      add\n      0x40\n      mstore\n      dup1\n      swap3\n      swap2\n      swap1\n      dup2\n      dup2\n      mstore\n      0x20\n      add\n      dup3\n      dup1\n      sload\n      tag_101\n      swap1\n      tag_31\n      jump\t// in\n    tag_101:\n      dup1\n      iszero\n      tag_102\n      jumpi\n      dup1\n      0x1f\n      lt\n      tag_103\n      jumpi\n      0x0100\n      dup1\n      dup4\n      sload\n      div\n      mul\n      dup4\n      mstore\n      swap2\n      0x20\n      add\n      swap2\n      jump(tag_102)\n    tag_103:\n      dup3\n      add\n      swap2\n      swap1\n      0x00\n      mstore\n      keccak256(0x00, 0x20)\n      swap1\n    tag_104:\n      dup2\n      sload\n      dup2\n      mstore\n      swap1\n      0x01\n      add\n      swap1\n      0x20\n      add\n      dup1\n      dup4\n      gt\n      tag_104\n      jumpi\n      dup3\n      swap1\n      sub\n      0x1f\n      and\n      dup3\n      add\n      swap2\n    tag_102:\n      pop\n      pop\n      pop\n      pop\n      pop\n      dup2\n      mstore\n      0x20\n      add\n      0x03\n      dup3\n      add\n      dup1\n      sload\n      tag_105\n      swap1\n      tag_31\n      jump\t// in\n    tag_105:\n      dup1\n      0x1f\n      add\n      0x20\n      dup1\n      swap2\n      div\n      mul\n      0x20\n      add\n      mload(0x40)\n      swap1\n      dup2\n      add\n      0x40\n      mstore\n      dup1\n      swap3\n      swap2\n      swap1\n      dup2\n      dup2\n      mstore\n      0x20\n      add\n      dup3\n      dup1\n      sload\n      tag_106\n      swap1\n      tag_31\n      jump\t// in\n    tag_106:\n      dup1\n      iszero\n      tag_107\n      jumpi\n      dup1\n      0x1f\n      lt\n      tag_108\n      jumpi\n      0x0100\n      dup1\n      dup4\n      sload\n      div\n      mul\n      dup4\n      mstore\n      swap2\n      0x20\n      add\n      swap2\n      jump(tag_107)\n    tag_108:\n      dup3\n      add\n      swap2\n      swap1\n      0x00\n      mstore\n      keccak256(0x00, 0x20)\n      swap1\n    tag_109:\n      dup2\n      sload\n      dup2\n      mstore\n      swap1\n      0x01\n      add\n      swap1\n      0x20\n      add\n      dup1\n      dup4\n      gt\n      tag_109\n      jumpi\n      dup3\n      swap1\n      sub\n      0x1f\n      and\n      dup3\n      add\n      swap2\n    tag_107:\n      pop\n      pop\n      pop\n      pop\n      pop\n      dup2\n      mstore\n      pop\n      pop\n      swap1\n      pop\n        /* \"ethereum/contracts/loss_report.sol\":2554:2660  function getInvestigator() public view returns(Investigator memory) {\r... */\n      swap1\n      jump\t// out\n        /* \"ethereum/contracts/loss_report.sol\":2391:2475  function investigationStarted() public {\r... */\n    tag_22:\n        /* \"ethereum/contracts/loss_report.sol\":2463:2467  true */\n      0x01\n        /* \"ethereum/contracts/loss_report.sol\":2441:2460  isBeingInvestigated */\n      0x0b\n      0x00\n        /* \"ethereum/contracts/loss_report.sol\":2441:2467  isBeingInvestigated = true */\n      0x0100\n      exp\n      dup2\n      sload\n      dup2\n      0xff\n      mul\n      not\n      and\n      swap1\n      dup4\n      iszero\n      iszero\n      mul\n      or\n      swap1\n      sstore\n      pop\n        /* \"ethereum/contracts/loss_report.sol\":2391:2475  function investigationStarted() public {\r... */\n      jump\t// out\n        /* \"ethereum/contracts/loss_report.sol\":2148:2383  function setInvestigator(string memory _name, string memory _cid, string memory _badgeNumber, string memory _rank) public {\r... */\n    tag_26:\n        /* \"ethereum/contracts/loss_report.sol\":2296:2342  Investigator(_name, _cid, _badgeNumber, _rank) */\n      mload(0x40)\n      dup1\n      0x80\n      add\n      0x40\n      mstore\n      dup1\n        /* \"ethereum/contracts/loss_report.sol\":2309:2314  _name */\n      dup6\n        /* \"ethereum/contracts/loss_report.sol\":2296:2342  Investigator(_name, _cid, _badgeNumber, _rank) */\n      dup2\n      mstore\n      0x20\n      add\n        /* \"ethereum/contracts/loss_report.sol\":2316:2320  _cid */\n      dup5\n        /* \"ethereum/contracts/loss_report.sol\":2296:2342  Investigator(_name, _cid, _badgeNumber, _rank) */\n      dup2\n      mstore\n      0x20\n      add\n        /* \"ethereum/contracts/loss_report.sol\":2322:2334  _badgeNumber */\n      dup4\n        /* \"ethereum/contracts/loss_report.sol\":2296:2342  Investigator(_name, _cid, _badgeNumber, _rank) */\n      dup2\n      mstore\n      0x20\n      add\n        /* \"ethereum/contracts/loss_report.sol\":2336:2341  _rank */\n      dup3\n        /* \"ethereum/contracts/loss_report.sol\":2296:2342  Investigator(_name, _cid, _badgeNumber, _rank) */\n      dup2\n      mstore\n      pop\n        /* \"ethereum/contracts/loss_report.sol\":2281:2293  investigator */\n      0x0c\n        /* \"ethereum/contracts/loss_report.sol\":2281:2342  investigator = Investigator(_name, _cid, _badgeNumber, _rank) */\n      0x00\n      dup3\n      add\n      mload\n      dup2\n      0x00\n      add\n      swap1\n      dup1\n      mload\n      swap1\n      0x20\n      add\n      swap1\n      tag_112\n      swap3\n      swap2\n      swap1\n      tag_113\n      jump\t// in\n    tag_112:\n      pop\n      0x20\n      dup3\n      add\n      mload\n      dup2\n      0x01\n      add\n      swap1\n      dup1\n      mload\n      swap1\n      0x20\n      add\n      swap1\n      tag_114\n      swap3\n      swap2\n      swap1\n      tag_113\n      jump\t// in\n    tag_114:\n      pop\n      0x40\n      dup3\n      add\n      mload\n      dup2\n      0x02\n      add\n      swap1\n      dup1\n      mload\n      swap1\n      0x20\n      add\n      swap1\n      tag_115\n      swap3\n      swap2\n      swap1\n      tag_113\n      jump\t// in\n    tag_115:\n      pop\n      0x60\n      dup3\n      add\n      mload\n      dup2\n      0x03\n      add\n      swap1\n      dup1\n      mload\n      swap1\n      0x20\n      add\n      swap1\n      tag_116\n      swap3\n      swap2\n      swap1\n      tag_113\n      jump\t// in\n    tag_116:\n      pop\n      swap1\n      pop\n      pop\n        /* \"ethereum/contracts/loss_report.sol\":2353:2375  investigationStarted() */\n      tag_117\n        /* \"ethereum/contracts/loss_report.sol\":2353:2373  investigationStarted */\n      tag_22\n        /* \"ethereum/contracts/loss_report.sol\":2353:2375  investigationStarted() */\n      jump\t// in\n    tag_117:\n        /* \"ethereum/contracts/loss_report.sol\":2148:2383  function setInvestigator(string memory _name, string memory _cid, string memory _badgeNumber, string memory _rank) public {\r... */\n      pop\n      pop\n      pop\n      pop\n      jump\t// out\n        /* \"ethereum/contracts/loss_report.sol\":2483:2546  function markAsFound() public {\r... */\n    tag_28:\n        /* \"ethereum/contracts/loss_report.sol\":2534:2538  true */\n      0x01\n        /* \"ethereum/contracts/loss_report.sol\":2524:2531  isFound */\n      0x0b\n      0x01\n        /* \"ethereum/contracts/loss_report.sol\":2524:2538  isFound = true */\n      0x0100\n      exp\n      dup2\n      sload\n      dup2\n      0xff\n      mul\n      not\n      and\n      swap1\n      dup4\n      iszero\n      iszero\n      mul\n      or\n      swap1\n      sstore\n      pop\n        /* \"ethereum/contracts/loss_report.sol\":2483:2546  function markAsFound() public {\r... */\n      jump\t// out\n    tag_88:\n      mload(0x40)\n      dup1\n      0x80\n      add\n      0x40\n      mstore\n      dup1\n      0x60\n      dup2\n      mstore\n      0x20\n      add\n      0x60\n      dup2\n      mstore\n      0x20\n      add\n      0x60\n      dup2\n      mstore\n      0x20\n      add\n      0x60\n      dup2\n      mstore\n      pop\n      swap1\n      jump\t// out\n    tag_113:\n      dup3\n      dup1\n      sload\n      tag_119\n      swap1\n      tag_31\n      jump\t// in\n    tag_119:\n      swap1\n      0x00\n      mstore\n      keccak256(0x00, 0x20)\n      swap1\n      0x1f\n      add\n      0x20\n      swap1\n      div\n      dup2\n      add\n      swap3\n      dup3\n      tag_121\n      jumpi\n      0x00\n      dup6\n      sstore\n      jump(tag_120)\n    tag_121:\n      dup3\n      0x1f\n      lt\n      tag_122\n      jumpi\n      dup1\n      mload\n      not(0xff)\n      and\n      dup4\n      dup1\n      add\n      or\n      dup6\n      sstore\n      jump(tag_120)\n    tag_122:\n      dup3\n      dup1\n      add\n      0x01\n      add\n      dup6\n      sstore\n      dup3\n      iszero\n      tag_120\n      jumpi\n      swap2\n      dup3\n      add\n    tag_123:\n      dup3\n      dup2\n      gt\n      iszero\n      tag_124\n      jumpi\n      dup3\n      mload\n      dup3\n      sstore\n      swap2\n      0x20\n      add\n      swap2\n      swap1\n      0x01\n      add\n      swap1\n      jump(tag_123)\n    tag_124:\n    tag_120:\n      pop\n      swap1\n      pop\n      tag_125\n      swap2\n      swap1\n      tag_126\n      jump\t// in\n    tag_125:\n      pop\n      swap1\n      jump\t// out\n    tag_126:\n    tag_127:\n      dup1\n      dup3\n      gt\n      iszero\n      tag_128\n      jumpi\n      0x00\n      dup2\n      0x00\n      swap1\n      sstore\n      pop\n      0x01\n      add\n      jump(tag_127)\n    tag_128:\n      pop\n      swap1\n      jump\t// out\n        /* \"#utility.yul\":7:419   */\n    tag_130:\n        /* \"#utility.yul\":85:90   */\n      0x00\n        /* \"#utility.yul\":110:176   */\n      tag_132\n        /* \"#utility.yul\":126:175   */\n      tag_133\n        /* \"#utility.yul\":168:174   */\n      dup5\n        /* \"#utility.yul\":126:175   */\n      tag_134\n      jump\t// in\n    tag_133:\n        /* \"#utility.yul\":110:176   */\n      tag_135\n      jump\t// in\n    tag_132:\n        /* \"#utility.yul\":101:176   */\n      swap1\n      pop\n        /* \"#utility.yul\":199:205   */\n      dup3\n        /* \"#utility.yul\":192:197   */\n      dup2\n        /* \"#utility.yul\":185:206   */\n      mstore\n        /* \"#utility.yul\":237:241   */\n      0x20\n        /* \"#utility.yul\":230:235   */\n      dup2\n        /* \"#utility.yul\":226:242   */\n      add\n        /* \"#utility.yul\":275:278   */\n      dup5\n        /* \"#utility.yul\":266:272   */\n      dup5\n        /* \"#utility.yul\":261:264   */\n      dup5\n        /* \"#utility.yul\":257:273   */\n      add\n        /* \"#utility.yul\":254:279   */\n      gt\n        /* \"#utility.yul\":251:253   */\n      iszero\n      tag_136\n      jumpi\n        /* \"#utility.yul\":282:361   */\n      tag_137\n      tag_138\n      jump\t// in\n    tag_137:\n        /* \"#utility.yul\":251:253   */\n    tag_136:\n        /* \"#utility.yul\":372:413   */\n      tag_139\n        /* \"#utility.yul\":406:412   */\n      dup5\n        /* \"#utility.yul\":401:404   */\n      dup3\n        /* \"#utility.yul\":396:399   */\n      dup6\n        /* \"#utility.yul\":372:413   */\n      tag_140\n      jump\t// in\n    tag_139:\n        /* \"#utility.yul\":91:419   */\n      pop\n      swap4\n      swap3\n      pop\n      pop\n      pop\n      jump\t// out\n        /* \"#utility.yul\":439:779   */\n    tag_141:\n        /* \"#utility.yul\":495:500   */\n      0x00\n        /* \"#utility.yul\":544:547   */\n      dup3\n        /* \"#utility.yul\":537:541   */\n      0x1f\n        /* \"#utility.yul\":529:535   */\n      dup4\n        /* \"#utility.yul\":525:542   */\n      add\n        /* \"#utility.yul\":521:548   */\n      slt\n        /* \"#utility.yul\":511:513   */\n      tag_143\n      jumpi\n        /* \"#utility.yul\":552:631   */\n      tag_144\n      tag_145\n      jump\t// in\n    tag_144:\n        /* \"#utility.yul\":511:513   */\n    tag_143:\n        /* \"#utility.yul\":669:675   */\n      dup2\n        /* \"#utility.yul\":656:676   */\n      calldataload\n        /* \"#utility.yul\":694:773   */\n      tag_146\n        /* \"#utility.yul\":769:772   */\n      dup5\n        /* \"#utility.yul\":761:767   */\n      dup3\n        /* \"#utility.yul\":754:758   */\n      0x20\n        /* \"#utility.yul\":746:752   */\n      dup7\n        /* \"#utility.yul\":742:759   */\n      add\n        /* \"#utility.yul\":694:773   */\n      tag_130\n      jump\t// in\n    tag_146:\n        /* \"#utility.yul\":685:773   */\n      swap2\n      pop\n        /* \"#utility.yul\":501:779   */\n      pop\n      swap3\n      swap2\n      pop\n      pop\n      jump\t// out\n        /* \"#utility.yul\":785:2270   */\n    tag_25:\n        /* \"#utility.yul\":911:917   */\n      0x00\n        /* \"#utility.yul\":919:925   */\n      dup1\n        /* \"#utility.yul\":927:933   */\n      0x00\n        /* \"#utility.yul\":935:941   */\n      dup1\n        /* \"#utility.yul\":984:987   */\n      0x80\n        /* \"#utility.yul\":972:981   */\n      dup6\n        /* \"#utility.yul\":963:970   */\n      dup8\n        /* \"#utility.yul\":959:982   */\n      sub\n        /* \"#utility.yul\":955:988   */\n      slt\n        /* \"#utility.yul\":952:954   */\n      iszero\n      tag_148\n      jumpi\n        /* \"#utility.yul\":991:1070   */\n      tag_149\n      tag_150\n      jump\t// in\n    tag_149:\n        /* \"#utility.yul\":952:954   */\n    tag_148:\n        /* \"#utility.yul\":1139:1140   */\n      0x00\n        /* \"#utility.yul\":1128:1137   */\n      dup6\n        /* \"#utility.yul\":1124:1141   */\n      add\n        /* \"#utility.yul\":1111:1142   */\n      calldataload\n        /* \"#utility.yul\":1169:1187   */\n      0xffffffffffffffff\n        /* \"#utility.yul\":1161:1167   */\n      dup2\n        /* \"#utility.yul\":1158:1188   */\n      gt\n        /* \"#utility.yul\":1155:1157   */\n      iszero\n      tag_151\n      jumpi\n        /* \"#utility.yul\":1191:1270   */\n      tag_152\n      tag_153\n      jump\t// in\n    tag_152:\n        /* \"#utility.yul\":1155:1157   */\n    tag_151:\n        /* \"#utility.yul\":1296:1359   */\n      tag_154\n        /* \"#utility.yul\":1351:1358   */\n      dup8\n        /* \"#utility.yul\":1342:1348   */\n      dup3\n        /* \"#utility.yul\":1331:1340   */\n      dup9\n        /* \"#utility.yul\":1327:1349   */\n      add\n        /* \"#utility.yul\":1296:1359   */\n      tag_141\n      jump\t// in\n    tag_154:\n        /* \"#utility.yul\":1286:1359   */\n      swap5\n      pop\n        /* \"#utility.yul\":1082:1369   */\n      pop\n        /* \"#utility.yul\":1436:1438   */\n      0x20\n        /* \"#utility.yul\":1425:1434   */\n      dup6\n        /* \"#utility.yul\":1421:1439   */\n      add\n        /* \"#utility.yul\":1408:1440   */\n      calldataload\n        /* \"#utility.yul\":1467:1485   */\n      0xffffffffffffffff\n        /* \"#utility.yul\":1459:1465   */\n      dup2\n        /* \"#utility.yul\":1456:1486   */\n      gt\n        /* \"#utility.yul\":1453:1455   */\n      iszero\n      tag_155\n      jumpi\n        /* \"#utility.yul\":1489:1568   */\n      tag_156\n      tag_153\n      jump\t// in\n    tag_156:\n        /* \"#utility.yul\":1453:1455   */\n    tag_155:\n        /* \"#utility.yul\":1594:1657   */\n      tag_157\n        /* \"#utility.yul\":1649:1656   */\n      dup8\n        /* \"#utility.yul\":1640:1646   */\n      dup3\n        /* \"#utility.yul\":1629:1638   */\n      dup9\n        /* \"#utility.yul\":1625:1647   */\n      add\n        /* \"#utility.yul\":1594:1657   */\n      tag_141\n      jump\t// in\n    tag_157:\n        /* \"#utility.yul\":1584:1657   */\n      swap4\n      pop\n        /* \"#utility.yul\":1379:1667   */\n      pop\n        /* \"#utility.yul\":1734:1736   */\n      0x40\n        /* \"#utility.yul\":1723:1732   */\n      dup6\n        /* \"#utility.yul\":1719:1737   */\n      add\n        /* \"#utility.yul\":1706:1738   */\n      calldataload\n        /* \"#utility.yul\":1765:1783   */\n      0xffffffffffffffff\n        /* \"#utility.yul\":1757:1763   */\n      dup2\n        /* \"#utility.yul\":1754:1784   */\n      gt\n        /* \"#utility.yul\":1751:1753   */\n      iszero\n      tag_158\n      jumpi\n        /* \"#utility.yul\":1787:1866   */\n      tag_159\n      tag_153\n      jump\t// in\n    tag_159:\n        /* \"#utility.yul\":1751:1753   */\n    tag_158:\n        /* \"#utility.yul\":1892:1955   */\n      tag_160\n        /* \"#utility.yul\":1947:1954   */\n      dup8\n        /* \"#utility.yul\":1938:1944   */\n      dup3\n        /* \"#utility.yul\":1927:1936   */\n      dup9\n        /* \"#utility.yul\":1923:1945   */\n      add\n        /* \"#utility.yul\":1892:1955   */\n      tag_141\n      jump\t// in\n    tag_160:\n        /* \"#utility.yul\":1882:1955   */\n      swap3\n      pop\n        /* \"#utility.yul\":1677:1965   */\n      pop\n        /* \"#utility.yul\":2032:2034   */\n      0x60\n        /* \"#utility.yul\":2021:2030   */\n      dup6\n        /* \"#utility.yul\":2017:2035   */\n      add\n        /* \"#utility.yul\":2004:2036   */\n      calldataload\n        /* \"#utility.yul\":2063:2081   */\n      0xffffffffffffffff\n        /* \"#utility.yul\":2055:2061   */\n      dup2\n        /* \"#utility.yul\":2052:2082   */\n      gt\n        /* \"#utility.yul\":2049:2051   */\n      iszero\n      tag_161\n      jumpi\n        /* \"#utility.yul\":2085:2164   */\n      tag_162\n      tag_153\n      jump\t// in\n    tag_162:\n        /* \"#utility.yul\":2049:2051   */\n    tag_161:\n        /* \"#utility.yul\":2190:2253   */\n      tag_163\n        /* \"#utility.yul\":2245:2252   */\n      dup8\n        /* \"#utility.yul\":2236:2242   */\n      dup3\n        /* \"#utility.yul\":2225:2234   */\n      dup9\n        /* \"#utility.yul\":2221:2243   */\n      add\n        /* \"#utility.yul\":2190:2253   */\n      tag_141\n      jump\t// in\n    tag_163:\n        /* \"#utility.yul\":2180:2253   */\n      swap2\n      pop\n        /* \"#utility.yul\":1975:2263   */\n      pop\n        /* \"#utility.yul\":942:2270   */\n      swap3\n      swap6\n      swap2\n      swap5\n      pop\n      swap3\n      pop\n      jump\t// out\n        /* \"#utility.yul\":2276:2385   */\n    tag_164:\n        /* \"#utility.yul\":2357:2378   */\n      tag_166\n        /* \"#utility.yul\":2372:2377   */\n      dup2\n        /* \"#utility.yul\":2357:2378   */\n      tag_167\n      jump\t// in\n    tag_166:\n        /* \"#utility.yul\":2352:2355   */\n      dup3\n        /* \"#utility.yul\":2345:2379   */\n      mstore\n        /* \"#utility.yul\":2335:2385   */\n      pop\n      pop\n      jump\t// out\n        /* \"#utility.yul\":2391:2735   */\n    tag_168:\n        /* \"#utility.yul\":2469:2472   */\n      0x00\n        /* \"#utility.yul\":2497:2536   */\n      tag_170\n        /* \"#utility.yul\":2530:2535   */\n      dup3\n        /* \"#utility.yul\":2497:2536   */\n      tag_171\n      jump\t// in\n    tag_170:\n        /* \"#utility.yul\":2552:2613   */\n      tag_172\n        /* \"#utility.yul\":2606:2612   */\n      dup2\n        /* \"#utility.yul\":2601:2604   */\n      dup6\n        /* \"#utility.yul\":2552:2613   */\n      tag_173\n      jump\t// in\n    tag_172:\n        /* \"#utility.yul\":2545:2613   */\n      swap4\n      pop\n        /* \"#utility.yul\":2622:2674   */\n      tag_174\n        /* \"#utility.yul\":2667:2673   */\n      dup2\n        /* \"#utility.yul\":2662:2665   */\n      dup6\n        /* \"#utility.yul\":2655:2659   */\n      0x20\n        /* \"#utility.yul\":2648:2653   */\n      dup7\n        /* \"#utility.yul\":2644:2660   */\n      add\n        /* \"#utility.yul\":2622:2674   */\n      tag_175\n      jump\t// in\n    tag_174:\n        /* \"#utility.yul\":2699:2728   */\n      tag_176\n        /* \"#utility.yul\":2721:2727   */\n      dup2\n        /* \"#utility.yul\":2699:2728   */\n      tag_177\n      jump\t// in\n    tag_176:\n        /* \"#utility.yul\":2694:2697   */\n      dup5\n        /* \"#utility.yul\":2690:2729   */\n      add\n        /* \"#utility.yul\":2683:2729   */\n      swap2\n      pop\n        /* \"#utility.yul\":2473:2735   */\n      pop\n      swap3\n      swap2\n      pop\n      pop\n      jump\t// out\n        /* \"#utility.yul\":2741:3105   */\n    tag_178:\n        /* \"#utility.yul\":2829:2832   */\n      0x00\n        /* \"#utility.yul\":2857:2896   */\n      tag_180\n        /* \"#utility.yul\":2890:2895   */\n      dup3\n        /* \"#utility.yul\":2857:2896   */\n      tag_171\n      jump\t// in\n    tag_180:\n        /* \"#utility.yul\":2912:2983   */\n      tag_181\n        /* \"#utility.yul\":2976:2982   */\n      dup2\n        /* \"#utility.yul\":2971:2974   */\n      dup6\n        /* \"#utility.yul\":2912:2983   */\n      tag_182\n      jump\t// in\n    tag_181:\n        /* \"#utility.yul\":2905:2983   */\n      swap4\n      pop\n        /* \"#utility.yul\":2992:3044   */\n      tag_183\n        /* \"#utility.yul\":3037:3043   */\n      dup2\n        /* \"#utility.yul\":3032:3035   */\n      dup6\n        /* \"#utility.yul\":3025:3029   */\n      0x20\n        /* \"#utility.yul\":3018:3023   */\n      dup7\n        /* \"#utility.yul\":3014:3030   */\n      add\n        /* \"#utility.yul\":2992:3044   */\n      tag_175\n      jump\t// in\n    tag_183:\n        /* \"#utility.yul\":3069:3098   */\n      tag_184\n        /* \"#utility.yul\":3091:3097   */\n      dup2\n        /* \"#utility.yul\":3069:3098   */\n      tag_177\n      jump\t// in\n    tag_184:\n        /* \"#utility.yul\":3064:3067   */\n      dup5\n        /* \"#utility.yul\":3060:3099   */\n      add\n        /* \"#utility.yul\":3053:3099   */\n      swap2\n      pop\n        /* \"#utility.yul\":2833:3105   */\n      pop\n      swap3\n      swap2\n      pop\n      pop\n      jump\t// out\n        /* \"#utility.yul\":3183:4362   */\n    tag_185:\n        /* \"#utility.yul\":3308:3311   */\n      0x00\n        /* \"#utility.yul\":3344:3348   */\n      0x80\n        /* \"#utility.yul\":3339:3342   */\n      dup4\n        /* \"#utility.yul\":3335:3349   */\n      add\n        /* \"#utility.yul\":3431:3435   */\n      0x00\n        /* \"#utility.yul\":3424:3429   */\n      dup4\n        /* \"#utility.yul\":3420:3436   */\n      add\n        /* \"#utility.yul\":3414:3437   */\n      mload\n        /* \"#utility.yul\":3484:3487   */\n      dup5\n        /* \"#utility.yul\":3478:3482   */\n      dup3\n        /* \"#utility.yul\":3474:3488   */\n      sub\n        /* \"#utility.yul\":3467:3471   */\n      0x00\n        /* \"#utility.yul\":3462:3465   */\n      dup7\n        /* \"#utility.yul\":3458:3472   */\n      add\n        /* \"#utility.yul\":3451:3489   */\n      mstore\n        /* \"#utility.yul\":3510:3583   */\n      tag_187\n        /* \"#utility.yul\":3578:3582   */\n      dup3\n        /* \"#utility.yul\":3564:3576   */\n      dup3\n        /* \"#utility.yul\":3510:3583   */\n      tag_168\n      jump\t// in\n    tag_187:\n        /* \"#utility.yul\":3502:3583   */\n      swap2\n      pop\n        /* \"#utility.yul\":3359:3594   */\n      pop\n        /* \"#utility.yul\":3675:3679   */\n      0x20\n        /* \"#utility.yul\":3668:3673   */\n      dup4\n        /* \"#utility.yul\":3664:3680   */\n      add\n        /* \"#utility.yul\":3658:3681   */\n      mload\n        /* \"#utility.yul\":3728:3731   */\n      dup5\n        /* \"#utility.yul\":3722:3726   */\n      dup3\n        /* \"#utility.yul\":3718:3732   */\n      sub\n        /* \"#utility.yul\":3711:3715   */\n      0x20\n        /* \"#utility.yul\":3706:3709   */\n      dup7\n        /* \"#utility.yul\":3702:3716   */\n      add\n        /* \"#utility.yul\":3695:3733   */\n      mstore\n        /* \"#utility.yul\":3754:3827   */\n      tag_188\n        /* \"#utility.yul\":3822:3826   */\n      dup3\n        /* \"#utility.yul\":3808:3820   */\n      dup3\n        /* \"#utility.yul\":3754:3827   */\n      tag_168\n      jump\t// in\n    tag_188:\n        /* \"#utility.yul\":3746:3827   */\n      swap2\n      pop\n        /* \"#utility.yul\":3604:3838   */\n      pop\n        /* \"#utility.yul\":3927:3931   */\n      0x40\n        /* \"#utility.yul\":3920:3925   */\n      dup4\n        /* \"#utility.yul\":3916:3932   */\n      add\n        /* \"#utility.yul\":3910:3933   */\n      mload\n        /* \"#utility.yul\":3980:3983   */\n      dup5\n        /* \"#utility.yul\":3974:3978   */\n      dup3\n        /* \"#utility.yul\":3970:3984   */\n      sub\n        /* \"#utility.yul\":3963:3967   */\n      0x40\n        /* \"#utility.yul\":3958:3961   */\n      dup7\n        /* \"#utility.yul\":3954:3968   */\n      add\n        /* \"#utility.yul\":3947:3985   */\n      mstore\n        /* \"#utility.yul\":4006:4079   */\n      tag_189\n        /* \"#utility.yul\":4074:4078   */\n      dup3\n        /* \"#utility.yul\":4060:4072   */\n      dup3\n        /* \"#utility.yul\":4006:4079   */\n      tag_168\n      jump\t// in\n    tag_189:\n        /* \"#utility.yul\":3998:4079   */\n      swap2\n      pop\n        /* \"#utility.yul\":3848:4090   */\n      pop\n        /* \"#utility.yul\":4172:4176   */\n      0x60\n        /* \"#utility.yul\":4165:4170   */\n      dup4\n        /* \"#utility.yul\":4161:4177   */\n      add\n        /* \"#utility.yul\":4155:4178   */\n      mload\n        /* \"#utility.yul\":4225:4228   */\n      dup5\n        /* \"#utility.yul\":4219:4223   */\n      dup3\n        /* \"#utility.yul\":4215:4229   */\n      sub\n        /* \"#utility.yul\":4208:4212   */\n      0x60\n        /* \"#utility.yul\":4203:4206   */\n      dup7\n        /* \"#utility.yul\":4199:4213   */\n      add\n        /* \"#utility.yul\":4192:4230   */\n      mstore\n        /* \"#utility.yul\":4251:4324   */\n      tag_190\n        /* \"#utility.yul\":4319:4323   */\n      dup3\n        /* \"#utility.yul\":4305:4317   */\n      dup3\n        /* \"#utility.yul\":4251:4324   */\n      tag_168\n      jump\t// in\n    tag_190:\n        /* \"#utility.yul\":4243:4324   */\n      swap2\n      pop\n        /* \"#utility.yul\":4100:4335   */\n      pop\n        /* \"#utility.yul\":4352:4356   */\n      dup1\n        /* \"#utility.yul\":4345:4356   */\n      swap2\n      pop\n        /* \"#utility.yul\":3313:4362   */\n      pop\n      swap3\n      swap2\n      pop\n      pop\n      jump\t// out\n        /* \"#utility.yul\":4368:4681   */\n    tag_12:\n        /* \"#utility.yul\":4481:4485   */\n      0x00\n        /* \"#utility.yul\":4519:4521   */\n      0x20\n        /* \"#utility.yul\":4508:4517   */\n      dup3\n        /* \"#utility.yul\":4504:4522   */\n      add\n        /* \"#utility.yul\":4496:4522   */\n      swap1\n      pop\n        /* \"#utility.yul\":4568:4577   */\n      dup2\n        /* \"#utility.yul\":4562:4566   */\n      dup2\n        /* \"#utility.yul\":4558:4578   */\n      sub\n        /* \"#utility.yul\":4554:4555   */\n      0x00\n        /* \"#utility.yul\":4543:4552   */\n      dup4\n        /* \"#utility.yul\":4539:4556   */\n      add\n        /* \"#utility.yul\":4532:4579   */\n      mstore\n        /* \"#utility.yul\":4596:4674   */\n      tag_192\n        /* \"#utility.yul\":4669:4673   */\n      dup2\n        /* \"#utility.yul\":4660:4666   */\n      dup5\n        /* \"#utility.yul\":4596:4674   */\n      tag_178\n      jump\t// in\n    tag_192:\n        /* \"#utility.yul\":4588:4674   */\n      swap1\n      pop\n        /* \"#utility.yul\":4486:4681   */\n      swap3\n      swap2\n      pop\n      pop\n      jump\t// out\n        /* \"#utility.yul\":4687:7018   */\n    tag_16:\n        /* \"#utility.yul\":5278:5282   */\n      0x00\n        /* \"#utility.yul\":5316:5319   */\n      0x0180\n        /* \"#utility.yul\":5305:5314   */\n      dup3\n        /* \"#utility.yul\":5301:5320   */\n      add\n        /* \"#utility.yul\":5293:5320   */\n      swap1\n      pop\n        /* \"#utility.yul\":5366:5375   */\n      dup2\n        /* \"#utility.yul\":5360:5364   */\n      dup2\n        /* \"#utility.yul\":5356:5376   */\n      sub\n        /* \"#utility.yul\":5352:5353   */\n      0x00\n        /* \"#utility.yul\":5341:5350   */\n      dup4\n        /* \"#utility.yul\":5337:5354   */\n      add\n        /* \"#utility.yul\":5330:5377   */\n      mstore\n        /* \"#utility.yul\":5394:5472   */\n      tag_194\n        /* \"#utility.yul\":5467:5471   */\n      dup2\n        /* \"#utility.yul\":5458:5464   */\n      dup16\n        /* \"#utility.yul\":5394:5472   */\n      tag_178\n      jump\t// in\n    tag_194:\n        /* \"#utility.yul\":5386:5472   */\n      swap1\n      pop\n        /* \"#utility.yul\":5519:5528   */\n      dup2\n        /* \"#utility.yul\":5513:5517   */\n      dup2\n        /* \"#utility.yul\":5509:5529   */\n      sub\n        /* \"#utility.yul\":5504:5506   */\n      0x20\n        /* \"#utility.yul\":5493:5502   */\n      dup4\n        /* \"#utility.yul\":5489:5507   */\n      add\n        /* \"#utility.yul\":5482:5530   */\n      mstore\n        /* \"#utility.yul\":5547:5625   */\n      tag_195\n        /* \"#utility.yul\":5620:5624   */\n      dup2\n        /* \"#utility.yul\":5611:5617   */\n      dup15\n        /* \"#utility.yul\":5547:5625   */\n      tag_178\n      jump\t// in\n    tag_195:\n        /* \"#utility.yul\":5539:5625   */\n      swap1\n      pop\n        /* \"#utility.yul\":5672:5681   */\n      dup2\n        /* \"#utility.yul\":5666:5670   */\n      dup2\n        /* \"#utility.yul\":5662:5682   */\n      sub\n        /* \"#utility.yul\":5657:5659   */\n      0x40\n        /* \"#utility.yul\":5646:5655   */\n      dup4\n        /* \"#utility.yul\":5642:5660   */\n      add\n        /* \"#utility.yul\":5635:5683   */\n      mstore\n        /* \"#utility.yul\":5700:5778   */\n      tag_196\n        /* \"#utility.yul\":5773:5777   */\n      dup2\n        /* \"#utility.yul\":5764:5770   */\n      dup14\n        /* \"#utility.yul\":5700:5778   */\n      tag_178\n      jump\t// in\n    tag_196:\n        /* \"#utility.yul\":5692:5778   */\n      swap1\n      pop\n        /* \"#utility.yul\":5825:5834   */\n      dup2\n        /* \"#utility.yul\":5819:5823   */\n      dup2\n        /* \"#utility.yul\":5815:5835   */\n      sub\n        /* \"#utility.yul\":5810:5812   */\n      0x60\n        /* \"#utility.yul\":5799:5808   */\n      dup4\n        /* \"#utility.yul\":5795:5813   */\n      add\n        /* \"#utility.yul\":5788:5836   */\n      mstore\n        /* \"#utility.yul\":5853:5931   */\n      tag_197\n        /* \"#utility.yul\":5926:5930   */\n      dup2\n        /* \"#utility.yul\":5917:5923   */\n      dup13\n        /* \"#utility.yul\":5853:5931   */\n      tag_178\n      jump\t// in\n    tag_197:\n        /* \"#utility.yul\":5845:5931   */\n      swap1\n      pop\n        /* \"#utility.yul\":5979:5988   */\n      dup2\n        /* \"#utility.yul\":5973:5977   */\n      dup2\n        /* \"#utility.yul\":5969:5989   */\n      sub\n        /* \"#utility.yul\":5963:5966   */\n      0x80\n        /* \"#utility.yul\":5952:5961   */\n      dup4\n        /* \"#utility.yul\":5948:5967   */\n      add\n        /* \"#utility.yul\":5941:5990   */\n      mstore\n        /* \"#utility.yul\":6007:6085   */\n      tag_198\n        /* \"#utility.yul\":6080:6084   */\n      dup2\n        /* \"#utility.yul\":6071:6077   */\n      dup12\n        /* \"#utility.yul\":6007:6085   */\n      tag_178\n      jump\t// in\n    tag_198:\n        /* \"#utility.yul\":5999:6085   */\n      swap1\n      pop\n        /* \"#utility.yul\":6133:6142   */\n      dup2\n        /* \"#utility.yul\":6127:6131   */\n      dup2\n        /* \"#utility.yul\":6123:6143   */\n      sub\n        /* \"#utility.yul\":6117:6120   */\n      0xa0\n        /* \"#utility.yul\":6106:6115   */\n      dup4\n        /* \"#utility.yul\":6102:6121   */\n      add\n        /* \"#utility.yul\":6095:6144   */\n      mstore\n        /* \"#utility.yul\":6161:6239   */\n      tag_199\n        /* \"#utility.yul\":6234:6238   */\n      dup2\n        /* \"#utility.yul\":6225:6231   */\n      dup11\n        /* \"#utility.yul\":6161:6239   */\n      tag_178\n      jump\t// in\n    tag_199:\n        /* \"#utility.yul\":6153:6239   */\n      swap1\n      pop\n        /* \"#utility.yul\":6287:6296   */\n      dup2\n        /* \"#utility.yul\":6281:6285   */\n      dup2\n        /* \"#utility.yul\":6277:6297   */\n      sub\n        /* \"#utility.yul\":6271:6274   */\n      0xc0\n        /* \"#utility.yul\":6260:6269   */\n      dup4\n        /* \"#utility.yul\":6256:6275   */\n      add\n        /* \"#utility.yul\":6249:6298   */\n      mstore\n        /* \"#utility.yul\":6315:6393   */\n      tag_200\n        /* \"#utility.yul\":6388:6392   */\n      dup2\n        /* \"#utility.yul\":6379:6385   */\n      dup10\n        /* \"#utility.yul\":6315:6393   */\n      tag_178\n      jump\t// in\n    tag_200:\n        /* \"#utility.yul\":6307:6393   */\n      swap1\n      pop\n        /* \"#utility.yul\":6441:6450   */\n      dup2\n        /* \"#utility.yul\":6435:6439   */\n      dup2\n        /* \"#utility.yul\":6431:6451   */\n      sub\n        /* \"#utility.yul\":6425:6428   */\n      0xe0\n        /* \"#utility.yul\":6414:6423   */\n      dup4\n        /* \"#utility.yul\":6410:6429   */\n      add\n        /* \"#utility.yul\":6403:6452   */\n      mstore\n        /* \"#utility.yul\":6469:6547   */\n      tag_201\n        /* \"#utility.yul\":6542:6546   */\n      dup2\n        /* \"#utility.yul\":6533:6539   */\n      dup9\n        /* \"#utility.yul\":6469:6547   */\n      tag_178\n      jump\t// in\n    tag_201:\n        /* \"#utility.yul\":6461:6547   */\n      swap1\n      pop\n        /* \"#utility.yul\":6595:6604   */\n      dup2\n        /* \"#utility.yul\":6589:6593   */\n      dup2\n        /* \"#utility.yul\":6585:6605   */\n      sub\n        /* \"#utility.yul\":6579:6582   */\n      0x0100\n        /* \"#utility.yul\":6568:6577   */\n      dup4\n        /* \"#utility.yul\":6564:6583   */\n      add\n        /* \"#utility.yul\":6557:6606   */\n      mstore\n        /* \"#utility.yul\":6623:6701   */\n      tag_202\n        /* \"#utility.yul\":6696:6700   */\n      dup2\n        /* \"#utility.yul\":6687:6693   */\n      dup8\n        /* \"#utility.yul\":6623:6701   */\n      tag_178\n      jump\t// in\n    tag_202:\n        /* \"#utility.yul\":6615:6701   */\n      swap1\n      pop\n        /* \"#utility.yul\":6749:6758   */\n      dup2\n        /* \"#utility.yul\":6743:6747   */\n      dup2\n        /* \"#utility.yul\":6739:6759   */\n      sub\n        /* \"#utility.yul\":6733:6736   */\n      0x0120\n        /* \"#utility.yul\":6722:6731   */\n      dup4\n        /* \"#utility.yul\":6718:6737   */\n      add\n        /* \"#utility.yul\":6711:6760   */\n      mstore\n        /* \"#utility.yul\":6777:6855   */\n      tag_203\n        /* \"#utility.yul\":6850:6854   */\n      dup2\n        /* \"#utility.yul\":6841:6847   */\n      dup7\n        /* \"#utility.yul\":6777:6855   */\n      tag_178\n      jump\t// in\n    tag_203:\n        /* \"#utility.yul\":6769:6855   */\n      swap1\n      pop\n        /* \"#utility.yul\":6865:6933   */\n      tag_204\n        /* \"#utility.yul\":6928:6931   */\n      0x0140\n        /* \"#utility.yul\":6917:6926   */\n      dup4\n        /* \"#utility.yul\":6913:6932   */\n      add\n        /* \"#utility.yul\":6903:6910   */\n      dup6\n        /* \"#utility.yul\":6865:6933   */\n      tag_164\n      jump\t// in\n    tag_204:\n        /* \"#utility.yul\":6943:7011   */\n      tag_205\n        /* \"#utility.yul\":7006:7009   */\n      0x0160\n        /* \"#utility.yul\":6995:7004   */\n      dup4\n        /* \"#utility.yul\":6991:7010   */\n      add\n        /* \"#utility.yul\":6981:6988   */\n      dup5\n        /* \"#utility.yul\":6943:7011   */\n      tag_164\n      jump\t// in\n    tag_205:\n        /* \"#utility.yul\":5283:7018   */\n      swap14\n      swap13\n      pop\n      pop\n      pop\n      pop\n      pop\n      pop\n      pop\n      pop\n      pop\n      pop\n      pop\n      pop\n      pop\n      jump\t// out\n        /* \"#utility.yul\":7024:7409   */\n    tag_20:\n        /* \"#utility.yul\":7173:7177   */\n      0x00\n        /* \"#utility.yul\":7211:7213   */\n      0x20\n        /* \"#utility.yul\":7200:7209   */\n      dup3\n        /* \"#utility.yul\":7196:7214   */\n      add\n        /* \"#utility.yul\":7188:7214   */\n      swap1\n      pop\n        /* \"#utility.yul\":7260:7269   */\n      dup2\n        /* \"#utility.yul\":7254:7258   */\n      dup2\n        /* \"#utility.yul\":7250:7270   */\n      sub\n        /* \"#utility.yul\":7246:7247   */\n      0x00\n        /* \"#utility.yul\":7235:7244   */\n      dup4\n        /* \"#utility.yul\":7231:7248   */\n      add\n        /* \"#utility.yul\":7224:7271   */\n      mstore\n        /* \"#utility.yul\":7288:7402   */\n      tag_207\n        /* \"#utility.yul\":7397:7401   */\n      dup2\n        /* \"#utility.yul\":7388:7394   */\n      dup5\n        /* \"#utility.yul\":7288:7402   */\n      tag_185\n      jump\t// in\n    tag_207:\n        /* \"#utility.yul\":7280:7402   */\n      swap1\n      pop\n        /* \"#utility.yul\":7178:7409   */\n      swap3\n      swap2\n      pop\n      pop\n      jump\t// out\n        /* \"#utility.yul\":7415:7544   */\n    tag_135:\n        /* \"#utility.yul\":7449:7455   */\n      0x00\n        /* \"#utility.yul\":7476:7496   */\n      tag_209\n      tag_210\n      jump\t// in\n    tag_209:\n        /* \"#utility.yul\":7466:7496   */\n      swap1\n      pop\n        /* \"#utility.yul\":7505:7538   */\n      tag_211\n        /* \"#utility.yul\":7533:7537   */\n      dup3\n        /* \"#utility.yul\":7525:7531   */\n      dup3\n        /* \"#utility.yul\":7505:7538   */\n      tag_212\n      jump\t// in\n    tag_211:\n        /* \"#utility.yul\":7456:7544   */\n      swap2\n      swap1\n      pop\n      jump\t// out\n        /* \"#utility.yul\":7550:7625   */\n    tag_210:\n        /* \"#utility.yul\":7583:7589   */\n      0x00\n        /* \"#utility.yul\":7616:7618   */\n      0x40\n        /* \"#utility.yul\":7610:7619   */\n      mload\n        /* \"#utility.yul\":7600:7619   */\n      swap1\n      pop\n        /* \"#utility.yul\":7590:7625   */\n      swap1\n      jump\t// out\n        /* \"#utility.yul\":7631:7939   */\n    tag_134:\n        /* \"#utility.yul\":7693:7697   */\n      0x00\n        /* \"#utility.yul\":7783:7801   */\n      0xffffffffffffffff\n        /* \"#utility.yul\":7775:7781   */\n      dup3\n        /* \"#utility.yul\":7772:7802   */\n      gt\n        /* \"#utility.yul\":7769:7771   */\n      iszero\n      tag_215\n      jumpi\n        /* \"#utility.yul\":7805:7823   */\n      tag_216\n      tag_217\n      jump\t// in\n    tag_216:\n        /* \"#utility.yul\":7769:7771   */\n    tag_215:\n        /* \"#utility.yul\":7843:7872   */\n      tag_218\n        /* \"#utility.yul\":7865:7871   */\n      dup3\n        /* \"#utility.yul\":7843:7872   */\n      tag_177\n      jump\t// in\n    tag_218:\n        /* \"#utility.yul\":7835:7872   */\n      swap1\n      pop\n        /* \"#utility.yul\":7927:7931   */\n      0x20\n        /* \"#utility.yul\":7921:7925   */\n      dup2\n        /* \"#utility.yul\":7917:7932   */\n      add\n        /* \"#utility.yul\":7909:7932   */\n      swap1\n      pop\n        /* \"#utility.yul\":7698:7939   */\n      swap2\n      swap1\n      pop\n      jump\t// out\n        /* \"#utility.yul\":7945:8044   */\n    tag_171:\n        /* \"#utility.yul\":7997:8003   */\n      0x00\n        /* \"#utility.yul\":8031:8036   */\n      dup2\n        /* \"#utility.yul\":8025:8037   */\n      mload\n        /* \"#utility.yul\":8015:8037   */\n      swap1\n      pop\n        /* \"#utility.yul\":8004:8044   */\n      swap2\n      swap1\n      pop\n      jump\t// out\n        /* \"#utility.yul\":8050:8209   */\n    tag_173:\n        /* \"#utility.yul\":8124:8135   */\n      0x00\n        /* \"#utility.yul\":8158:8164   */\n      dup3\n        /* \"#utility.yul\":8153:8156   */\n      dup3\n        /* \"#utility.yul\":8146:8165   */\n      mstore\n        /* \"#utility.yul\":8198:8202   */\n      0x20\n        /* \"#utility.yul\":8193:8196   */\n      dup3\n        /* \"#utility.yul\":8189:8203   */\n      add\n        /* \"#utility.yul\":8174:8203   */\n      swap1\n      pop\n        /* \"#utility.yul\":8136:8209   */\n      swap3\n      swap2\n      pop\n      pop\n      jump\t// out\n        /* \"#utility.yul\":8215:8384   */\n    tag_182:\n        /* \"#utility.yul\":8299:8310   */\n      0x00\n        /* \"#utility.yul\":8333:8339   */\n      dup3\n        /* \"#utility.yul\":8328:8331   */\n      dup3\n        /* \"#utility.yul\":8321:8340   */\n      mstore\n        /* \"#utility.yul\":8373:8377   */\n      0x20\n        /* \"#utility.yul\":8368:8371   */\n      dup3\n        /* \"#utility.yul\":8364:8378   */\n      add\n        /* \"#utility.yul\":8349:8378   */\n      swap1\n      pop\n        /* \"#utility.yul\":8311:8384   */\n      swap3\n      swap2\n      pop\n      pop\n      jump\t// out\n        /* \"#utility.yul\":8390:8480   */\n    tag_167:\n        /* \"#utility.yul\":8424:8431   */\n      0x00\n        /* \"#utility.yul\":8467:8472   */\n      dup2\n        /* \"#utility.yul\":8460:8473   */\n      iszero\n        /* \"#utility.yul\":8453:8474   */\n      iszero\n        /* \"#utility.yul\":8442:8474   */\n      swap1\n      pop\n        /* \"#utility.yul\":8432:8480   */\n      swap2\n      swap1\n      pop\n      jump\t// out\n        /* \"#utility.yul\":8486:8640   */\n    tag_140:\n        /* \"#utility.yul\":8570:8576   */\n      dup3\n        /* \"#utility.yul\":8565:8568   */\n      dup2\n        /* \"#utility.yul\":8560:8563   */\n      dup4\n        /* \"#utility.yul\":8547:8577   */\n      calldatacopy\n        /* \"#utility.yul\":8632:8633   */\n      0x00\n        /* \"#utility.yul\":8623:8629   */\n      dup4\n        /* \"#utility.yul\":8618:8621   */\n      dup4\n        /* \"#utility.yul\":8614:8630   */\n      add\n        /* \"#utility.yul\":8607:8634   */\n      mstore\n        /* \"#utility.yul\":8537:8640   */\n      pop\n      pop\n      pop\n      jump\t// out\n        /* \"#utility.yul\":8646:8953   */\n    tag_175:\n        /* \"#utility.yul\":8714:8715   */\n      0x00\n        /* \"#utility.yul\":8724:8837   */\n    tag_225:\n        /* \"#utility.yul\":8738:8744   */\n      dup4\n        /* \"#utility.yul\":8735:8736   */\n      dup2\n        /* \"#utility.yul\":8732:8745   */\n      lt\n        /* \"#utility.yul\":8724:8837   */\n      iszero\n      tag_227\n      jumpi\n        /* \"#utility.yul\":8823:8824   */\n      dup1\n        /* \"#utility.yul\":8818:8821   */\n      dup3\n        /* \"#utility.yul\":8814:8825   */\n      add\n        /* \"#utility.yul\":8808:8826   */\n      mload\n        /* \"#utility.yul\":8804:8805   */\n      dup2\n        /* \"#utility.yul\":8799:8802   */\n      dup5\n        /* \"#utility.yul\":8795:8806   */\n      add\n        /* \"#utility.yul\":8788:8827   */\n      mstore\n        /* \"#utility.yul\":8760:8762   */\n      0x20\n        /* \"#utility.yul\":8757:8758   */\n      dup2\n        /* \"#utility.yul\":8753:8763   */\n      add\n        /* \"#utility.yul\":8748:8763   */\n      swap1\n      pop\n        /* \"#utility.yul\":8724:8837   */\n      jump(tag_225)\n    tag_227:\n        /* \"#utility.yul\":8855:8861   */\n      dup4\n        /* \"#utility.yul\":8852:8853   */\n      dup2\n        /* \"#utility.yul\":8849:8862   */\n      gt\n        /* \"#utility.yul\":8846:8848   */\n      iszero\n      tag_228\n      jumpi\n        /* \"#utility.yul\":8935:8936   */\n      0x00\n        /* \"#utility.yul\":8926:8932   */\n      dup5\n        /* \"#utility.yul\":8921:8924   */\n      dup5\n        /* \"#utility.yul\":8917:8933   */\n      add\n        /* \"#utility.yul\":8910:8937   */\n      mstore\n        /* \"#utility.yul\":8846:8848   */\n    tag_228:\n        /* \"#utility.yul\":8695:8953   */\n      pop\n      pop\n      pop\n      pop\n      jump\t// out\n        /* \"#utility.yul\":8959:9279   */\n    tag_31:\n        /* \"#utility.yul\":9003:9009   */\n      0x00\n        /* \"#utility.yul\":9040:9041   */\n      0x02\n        /* \"#utility.yul\":9034:9038   */\n      dup3\n        /* \"#utility.yul\":9030:9042   */\n      div\n        /* \"#utility.yul\":9020:9042   */\n      swap1\n      pop\n        /* \"#utility.yul\":9087:9088   */\n      0x01\n        /* \"#utility.yul\":9081:9085   */\n      dup3\n        /* \"#utility.yul\":9077:9089   */\n      and\n        /* \"#utility.yul\":9108:9126   */\n      dup1\n        /* \"#utility.yul\":9098:9100   */\n      tag_230\n      jumpi\n        /* \"#utility.yul\":9164:9168   */\n      0x7f\n        /* \"#utility.yul\":9156:9162   */\n      dup3\n        /* \"#utility.yul\":9152:9169   */\n      and\n        /* \"#utility.yul\":9142:9169   */\n      swap2\n      pop\n        /* \"#utility.yul\":9098:9100   */\n    tag_230:\n        /* \"#utility.yul\":9226:9228   */\n      0x20\n        /* \"#utility.yul\":9218:9224   */\n      dup3\n        /* \"#utility.yul\":9215:9229   */\n      lt\n        /* \"#utility.yul\":9195:9213   */\n      dup2\n        /* \"#utility.yul\":9192:9230   */\n      eq\n        /* \"#utility.yul\":9189:9191   */\n      iszero\n      tag_231\n      jumpi\n        /* \"#utility.yul\":9245:9263   */\n      tag_232\n      tag_233\n      jump\t// in\n    tag_232:\n        /* \"#utility.yul\":9189:9191   */\n    tag_231:\n        /* \"#utility.yul\":9010:9279   */\n      pop\n      swap2\n      swap1\n      pop\n      jump\t// out\n        /* \"#utility.yul\":9285:9566   */\n    tag_212:\n        /* \"#utility.yul\":9368:9395   */\n      tag_235\n        /* \"#utility.yul\":9390:9394   */\n      dup3\n        /* \"#utility.yul\":9368:9395   */\n      tag_177\n      jump\t// in\n    tag_235:\n        /* \"#utility.yul\":9360:9366   */\n      dup2\n        /* \"#utility.yul\":9356:9396   */\n      add\n        /* \"#utility.yul\":9498:9504   */\n      dup2\n        /* \"#utility.yul\":9486:9496   */\n      dup2\n        /* \"#utility.yul\":9483:9505   */\n      lt\n        /* \"#utility.yul\":9462:9480   */\n      0xffffffffffffffff\n        /* \"#utility.yul\":9450:9460   */\n      dup3\n        /* \"#utility.yul\":9447:9481   */\n      gt\n        /* \"#utility.yul\":9444:9506   */\n      or\n        /* \"#utility.yul\":9441:9443   */\n      iszero\n      tag_236\n      jumpi\n        /* \"#utility.yul\":9509:9527   */\n      tag_237\n      tag_217\n      jump\t// in\n    tag_237:\n        /* \"#utility.yul\":9441:9443   */\n    tag_236:\n        /* \"#utility.yul\":9549:9559   */\n      dup1\n        /* \"#utility.yul\":9545:9547   */\n      0x40\n        /* \"#utility.yul\":9538:9560   */\n      mstore\n        /* \"#utility.yul\":9328:9566   */\n      pop\n      pop\n      pop\n      jump\t// out\n        /* \"#utility.yul\":9572:9752   */\n    tag_233:\n        /* \"#utility.yul\":9620:9697   */\n      0x4e487b7100000000000000000000000000000000000000000000000000000000\n        /* \"#utility.yul\":9617:9618   */\n      0x00\n        /* \"#utility.yul\":9610:9698   */\n      mstore\n        /* \"#utility.yul\":9717:9721   */\n      0x22\n        /* \"#utility.yul\":9714:9715   */\n      0x04\n        /* \"#utility.yul\":9707:9722   */\n      mstore\n        /* \"#utility.yul\":9741:9745   */\n      0x24\n        /* \"#utility.yul\":9738:9739   */\n      0x00\n        /* \"#utility.yul\":9731:9746   */\n      revert\n        /* \"#utility.yul\":9758:9938   */\n    tag_217:\n        /* \"#utility.yul\":9806:9883   */\n      0x4e487b7100000000000000000000000000000000000000000000000000000000\n        /* \"#utility.yul\":9803:9804   */\n      0x00\n        /* \"#utility.yul\":9796:9884   */\n      mstore\n        /* \"#utility.yul\":9903:9907   */\n      0x41\n        /* \"#utility.yul\":9900:9901   */\n      0x04\n        /* \"#utility.yul\":9893:9908   */\n      mstore\n        /* \"#utility.yul\":9927:9931   */\n      0x24\n        /* \"#utility.yul\":9924:9925   */\n      0x00\n        /* \"#utility.yul\":9917:9932   */\n      revert\n        /* \"#utility.yul\":9944:10061   */\n    tag_145:\n        /* \"#utility.yul\":10053:10054   */\n      0x00\n        /* \"#utility.yul\":10050:10051   */\n      dup1\n        /* \"#utility.yul\":10043:10055   */\n      revert\n        /* \"#utility.yul\":10067:10184   */\n    tag_138:\n        /* \"#utility.yul\":10176:10177   */\n      0x00\n        /* \"#utility.yul\":10173:10174   */\n      dup1\n        /* \"#utility.yul\":10166:10178   */\n      revert\n        /* \"#utility.yul\":10190:10307   */\n    tag_153:\n        /* \"#utility.yul\":10299:10300   */\n      0x00\n        /* \"#utility.yul\":10296:10297   */\n      dup1\n        /* \"#utility.yul\":10289:10301   */\n      revert\n        /* \"#utility.yul\":10313:10430   */\n    tag_150:\n        /* \"#utility.yul\":10422:10423   */\n      0x00\n        /* \"#utility.yul\":10419:10420   */\n      dup1\n        /* \"#utility.yul\":10412:10424   */\n      revert\n        /* \"#utility.yul\":10436:10538   */\n    tag_177:\n        /* \"#utility.yul\":10477:10483   */\n      0x00\n        /* \"#utility.yul\":10528:10530   */\n      0x1f\n        /* \"#utility.yul\":10524:10531   */\n      not\n        /* \"#utility.yul\":10519:10521   */\n      0x1f\n        /* \"#utility.yul\":10512:10517   */\n      dup4\n        /* \"#utility.yul\":10508:10522   */\n      add\n        /* \"#utility.yul\":10504:10532   */\n      and\n        /* \"#utility.yul\":10494:10532   */\n      swap1\n      pop\n        /* \"#utility.yul\":10484:10538   */\n      swap2\n      swap1\n      pop\n      jump\t// out\n\n    auxdata: 0xa26469706673582212208d5acfa62b79839739a583516a446848aebdee3e52d18f4f73b84332054b4aad64736f6c63430008060033\n}\n",
				"bytecode": {
					"linkReferences": {},
					"object": "60806040523480156200001157600080fd5b50604051620017a7380380620017a78339818101604052810190620000379190620002bf565b8a600090805190602001906200004f92919062000191565b5089600190805190602001906200006892919062000191565b5088600290805190602001906200008192919062000191565b5087600390805190602001906200009a92919062000191565b508660049080519060200190620000b392919062000191565b508560059080519060200190620000cc92919062000191565b508460069080519060200190620000e592919062000191565b508360079080519060200190620000fe92919062000191565b5082600890805190602001906200011792919062000191565b5081600990805190602001906200013092919062000191565b5080600a90805190602001906200014992919062000191565b506000600b60006101000a81548160ff0219169083151502179055506000600b60016101000a81548160ff0219169083151502179055505050505050505050505050620006a5565b8280546200019f90620005b6565b90600052602060002090601f016020900481019282620001c357600085556200020f565b82601f10620001de57805160ff19168380011785556200020f565b828001600101855582156200020f579182015b828111156200020e578251825591602001919060010190620001f1565b5b5090506200021e919062000222565b5090565b5b808211156200023d57600081600090555060010162000223565b5090565b60006200025862000252846200054a565b62000521565b90508281526020810184848401111562000277576200027662000685565b5b6200028484828562000580565b509392505050565b600082601f830112620002a457620002a362000680565b5b8151620002b684826020860162000241565b91505092915050565b60008060008060008060008060008060006101608c8e031215620002e857620002e76200068f565b5b60008c015167ffffffffffffffff8111156200030957620003086200068a565b5b620003178e828f016200028c565b9b505060208c015167ffffffffffffffff8111156200033b576200033a6200068a565b5b620003498e828f016200028c565b9a505060408c015167ffffffffffffffff8111156200036d576200036c6200068a565b5b6200037b8e828f016200028c565b99505060608c015167ffffffffffffffff8111156200039f576200039e6200068a565b5b620003ad8e828f016200028c565b98505060808c015167ffffffffffffffff811115620003d157620003d06200068a565b5b620003df8e828f016200028c565b97505060a08c015167ffffffffffffffff8111156200040357620004026200068a565b5b620004118e828f016200028c565b96505060c08c015167ffffffffffffffff8111156200043557620004346200068a565b5b620004438e828f016200028c565b95505060e08c015167ffffffffffffffff8111156200046757620004666200068a565b5b620004758e828f016200028c565b9450506101008c015167ffffffffffffffff8111156200049a57620004996200068a565b5b620004a88e828f016200028c565b9350506101208c015167ffffffffffffffff811115620004cd57620004cc6200068a565b5b620004db8e828f016200028c565b9250506101408c015167ffffffffffffffff8111156200050057620004ff6200068a565b5b6200050e8e828f016200028c565b9150509295989b509295989b9093969950565b60006200052d62000540565b90506200053b8282620005ec565b919050565b6000604051905090565b600067ffffffffffffffff82111562000568576200056762000651565b5b620005738262000694565b9050602081019050919050565b60005b83811015620005a057808201518184015260208101905062000583565b83811115620005b0576000848401525b50505050565b60006002820490506001821680620005cf57607f821691505b60208210811415620005e657620005e562000622565b5b50919050565b620005f78262000694565b810181811067ffffffffffffffff8211171562000619576200061862000651565b5b80604052505050565b7f4e487b7100000000000000000000000000000000000000000000000000000000600052602260045260246000fd5b7f4e487b7100000000000000000000000000000000000000000000000000000000600052604160045260246000fd5b600080fd5b600080fd5b600080fd5b600080fd5b6000601f19601f8301169050919050565b6110f280620006b56000396000f3fe608060405234801561001057600080fd5b50600436106100625760003560e01c806330884b68146100675780633bc5de301461008557806347f450b0146100ae5780634a2bfdc7146100cc57806386444b43146100d6578063dc4ade84146100f2575b600080fd5b61006f6100fc565b60405161007c9190610dc1565b60405180910390f35b61008d61018e565b6040516100a59c9b9a99989796959493929190610de3565b60405180910390f35b6100b6610772565b6040516100c39190610ee3565b60405180910390f35b6100d46109d4565b005b6100f060048036038101906100eb9190610bf1565b6109f1565b005b6100fa610a99565b005b60606000805461010b90610fd6565b80601f016020809104026020016040519081016040528092919081815260200182805461013790610fd6565b80156101845780601f1061015957610100808354040283529160200191610184565b820191906000526020600020905b81548152906001019060200180831161016757829003601f168201915b5050505050905090565b606080606080606080606080606080600080600160026003600460056006600760086009600a600b60009054906101000a900460ff16600b60019054906101000a900460ff168b80546101e090610fd6565b80601f016020809104026020016040519081016040528092919081815260200182805461020c90610fd6565b80156102595780601f1061022e57610100808354040283529160200191610259565b820191906000526020600020905b81548152906001019060200180831161023c57829003601f168201915b50505050509b508a805461026c90610fd6565b80601f016020809104026020016040519081016040528092919081815260200182805461029890610fd6565b80156102e55780601f106102ba576101008083540402835291602001916102e5565b820191906000526020600020905b8154815290600101906020018083116102c857829003601f168201915b50505050509a508980546102f890610fd6565b80601f016020809104026020016040519081016040528092919081815260200182805461032490610fd6565b80156103715780601f1061034657610100808354040283529160200191610371565b820191906000526020600020905b81548152906001019060200180831161035457829003601f168201915b5050505050995088805461038490610fd6565b80601f01602080910402602001604051908101604052809291908181526020018280546103b090610fd6565b80156103fd5780601f106103d2576101008083540402835291602001916103fd565b820191906000526020600020905b8154815290600101906020018083116103e057829003601f168201915b5050505050985087805461041090610fd6565b80601f016020809104026020016040519081016040528092919081815260200182805461043c90610fd6565b80156104895780601f1061045e57610100808354040283529160200191610489565b820191906000526020600020905b81548152906001019060200180831161046c57829003601f168201915b5050505050975086805461049c90610fd6565b80601f01602080910402602001604051908101604052809291908181526020018280546104c890610fd6565b80156105155780601f106104ea57610100808354040283529160200191610515565b820191906000526020600020905b8154815290600101906020018083116104f857829003601f168201915b5050505050965085805461052890610fd6565b80601f016020809104026020016040519081016040528092919081815260200182805461055490610fd6565b80156105a15780601f10610576576101008083540402835291602001916105a1565b820191906000526020600020905b81548152906001019060200180831161058457829003601f168201915b505050505095508480546105b490610fd6565b80601f01602080910402602001604051908101604052809291908181526020018280546105e090610fd6565b801561062d5780601f106106025761010080835404028352916020019161062d565b820191906000526020600020905b81548152906001019060200180831161061057829003601f168201915b5050505050945083805461064090610fd6565b80601f016020809104026020016040519081016040528092919081815260200182805461066c90610fd6565b80156106b95780601f1061068e576101008083540402835291602001916106b9565b820191906000526020600020905b81548152906001019060200180831161069c57829003601f168201915b505050505093508280546106cc90610fd6565b80601f01602080910402602001604051908101604052809291908181526020018280546106f890610fd6565b80156107455780601f1061071a57610100808354040283529160200191610745565b820191906000526020600020905b81548152906001019060200180831161072857829003601f168201915b505050505092509b509b509b509b509b509b509b509b509b509b509b509b50909192939495969798999a9b565b61077a610ab6565b600c60405180608001604052908160008201805461079790610fd6565b80601f01602080910402602001604051908101604052809291908181526020018280546107c390610fd6565b80156108105780601f106107e557610100808354040283529160200191610810565b820191906000526020600020905b8154815290600101906020018083116107f357829003601f168201915b5050505050815260200160018201805461082990610fd6565b80601f016020809104026020016040519081016040528092919081815260200182805461085590610fd6565b80156108a25780601f10610877576101008083540402835291602001916108a2565b820191906000526020600020905b81548152906001019060200180831161088557829003601f168201915b505050505081526020016002820180546108bb90610fd6565b80601f01602080910402602001604051908101604052809291908181526020018280546108e790610fd6565b80156109345780601f1061090957610100808354040283529160200191610934565b820191906000526020600020905b81548152906001019060200180831161091757829003601f168201915b5050505050815260200160038201805461094d90610fd6565b80601f016020809104026020016040519081016040528092919081815260200182805461097990610fd6565b80156109c65780601f1061099b576101008083540402835291602001916109c6565b820191906000526020600020905b8154815290600101906020018083116109a957829003601f168201915b505050505081525050905090565b6001600b60006101000a81548160ff021916908315150217905550565b604051806080016040528085815260200184815260200183815260200182815250600c6000820151816000019080519060200190610a30929190610ade565b506020820151816001019080519060200190610a4d929190610ade565b506040820151816002019080519060200190610a6a929190610ade565b506060820151816003019080519060200190610a87929190610ade565b50905050610a936109d4565b50505050565b6001600b60016101000a81548160ff021916908315150217905550565b6040518060800160405280606081526020016060815260200160608152602001606081525090565b828054610aea90610fd6565b90600052602060002090601f016020900481019282610b0c5760008555610b53565b82601f10610b2557805160ff1916838001178555610b53565b82800160010185558215610b53579182015b82811115610b52578251825591602001919060010190610b37565b5b509050610b609190610b64565b5090565b5b80821115610b7d576000816000905550600101610b65565b5090565b6000610b94610b8f84610f2a565b610f05565b905082815260208101848484011115610bb057610baf61109c565b5b610bbb848285610f94565b509392505050565b600082601f830112610bd857610bd7611097565b5b8135610be8848260208601610b81565b91505092915050565b60008060008060808587031215610c0b57610c0a6110a6565b5b600085013567ffffffffffffffff811115610c2957610c286110a1565b5b610c3587828801610bc3565b945050602085013567ffffffffffffffff811115610c5657610c556110a1565b5b610c6287828801610bc3565b935050604085013567ffffffffffffffff811115610c8357610c826110a1565b5b610c8f87828801610bc3565b925050606085013567ffffffffffffffff811115610cb057610caf6110a1565b5b610cbc87828801610bc3565b91505092959194509250565b610cd181610f88565b82525050565b6000610ce282610f5b565b610cec8185610f66565b9350610cfc818560208601610fa3565b610d05816110ab565b840191505092915050565b6000610d1b82610f5b565b610d258185610f77565b9350610d35818560208601610fa3565b610d3e816110ab565b840191505092915050565b60006080830160008301518482036000860152610d668282610cd7565b91505060208301518482036020860152610d808282610cd7565b91505060408301518482036040860152610d9a8282610cd7565b91505060608301518482036060860152610db48282610cd7565b9150508091505092915050565b60006020820190508181036000830152610ddb8184610d10565b905092915050565b6000610180820190508181036000830152610dfe818f610d10565b90508181036020830152610e12818e610d10565b90508181036040830152610e26818d610d10565b90508181036060830152610e3a818c610d10565b90508181036080830152610e4e818b610d10565b905081810360a0830152610e62818a610d10565b905081810360c0830152610e768189610d10565b905081810360e0830152610e8a8188610d10565b9050818103610100830152610e9f8187610d10565b9050818103610120830152610eb48186610d10565b9050610ec4610140830185610cc8565b610ed2610160830184610cc8565b9d9c50505050505050505050505050565b60006020820190508181036000830152610efd8184610d49565b905092915050565b6000610f0f610f20565b9050610f1b8282611008565b919050565b6000604051905090565b600067ffffffffffffffff821115610f4557610f44611068565b5b610f4e826110ab565b9050602081019050919050565b600081519050919050565b600082825260208201905092915050565b600082825260208201905092915050565b60008115159050919050565b82818337600083830152505050565b60005b83811015610fc1578082015181840152602081019050610fa6565b83811115610fd0576000848401525b50505050565b60006002820490506001821680610fee57607f821691505b6020821081141561100257611001611039565b5b50919050565b611011826110ab565b810181811067ffffffffffffffff821117156110305761102f611068565b5b80604052505050565b7f4e487b7100000000000000000000000000000000000000000000000000000000600052602260045260246000fd5b7f4e487b7100000000000000000000000000000000000000000000000000000000600052604160045260246000fd5b600080fd5b600080fd5b600080fd5b600080fd5b6000601f19601f830116905091905056fea26469706673582212208d5acfa62b79839739a583516a446848aebdee3e52d18f4f73b84332054b4aad64736f6c63430008060033",
					"opcodes": "PUSH1 0x80 PUSH1 0x40 MSTORE CALLVALUE DUP1 ISZERO PUSH3 0x11 JUMPI PUSH1 0x0 DUP1 REVERT JUMPDEST POP PUSH1 0x40 MLOAD PUSH3 0x17A7 CODESIZE SUB DUP1 PUSH3 0x17A7 DUP4 CODECOPY DUP2 DUP2 ADD PUSH1 0x40 MSTORE DUP2 ADD SWAP1 PUSH3 0x37 SWAP2 SWAP1 PUSH3 0x2BF JUMP JUMPDEST DUP11 PUSH1 0x0 SWAP1 DUP1 MLOAD SWAP1 PUSH1 0x20 ADD SWAP1 PUSH3 0x4F SWAP3 SWAP2 SWAP1 PUSH3 0x191 JUMP JUMPDEST POP DUP10 PUSH1 0x1 SWAP1 DUP1 MLOAD SWAP1 PUSH1 0x20 ADD SWAP1 PUSH3 0x68 SWAP3 SWAP2 SWAP1 PUSH3 0x191 JUMP JUMPDEST POP DUP9 PUSH1 0x2 SWAP1 DUP1 MLOAD SWAP1 PUSH1 0x20 ADD SWAP1 PUSH3 0x81 SWAP3 SWAP2 SWAP1 PUSH3 0x191 JUMP JUMPDEST POP DUP8 PUSH1 0x3 SWAP1 DUP1 MLOAD SWAP1 PUSH1 0x20 ADD SWAP1 PUSH3 0x9A SWAP3 SWAP2 SWAP1 PUSH3 0x191 JUMP JUMPDEST POP DUP7 PUSH1 0x4 SWAP1 DUP1 MLOAD SWAP1 PUSH1 0x20 ADD SWAP1 PUSH3 0xB3 SWAP3 SWAP2 SWAP1 PUSH3 0x191 JUMP JUMPDEST POP DUP6 PUSH1 0x5 SWAP1 DUP1 MLOAD SWAP1 PUSH1 0x20 ADD SWAP1 PUSH3 0xCC SWAP3 SWAP2 SWAP1 PUSH3 0x191 JUMP JUMPDEST POP DUP5 PUSH1 0x6 SWAP1 DUP1 MLOAD SWAP1 PUSH1 0x20 ADD SWAP1 PUSH3 0xE5 SWAP3 SWAP2 SWAP1 PUSH3 0x191 JUMP JUMPDEST POP DUP4 PUSH1 0x7 SWAP1 DUP1 MLOAD SWAP1 PUSH1 0x20 ADD SWAP1 PUSH3 0xFE SWAP3 SWAP2 SWAP1 PUSH3 0x191 JUMP JUMPDEST POP DUP3 PUSH1 0x8 SWAP1 DUP1 MLOAD SWAP1 PUSH1 0x20 ADD SWAP1 PUSH3 0x117 SWAP3 SWAP2 SWAP1 PUSH3 0x191 JUMP JUMPDEST POP DUP2 PUSH1 0x9 SWAP1 DUP1 MLOAD SWAP1 PUSH1 0x20 ADD SWAP1 PUSH3 0x130 SWAP3 SWAP2 SWAP1 PUSH3 0x191 JUMP JUMPDEST POP DUP1 PUSH1 0xA SWAP1 DUP1 MLOAD SWAP1 PUSH1 0x20 ADD SWAP1 PUSH3 0x149 SWAP3 SWAP2 SWAP1 PUSH3 0x191 JUMP JUMPDEST POP PUSH1 0x0 PUSH1 0xB PUSH1 0x0 PUSH2 0x100 EXP DUP2 SLOAD DUP2 PUSH1 0xFF MUL NOT AND SWAP1 DUP4 ISZERO ISZERO MUL OR SWAP1 SSTORE POP PUSH1 0x0 PUSH1 0xB PUSH1 0x1 PUSH2 0x100 EXP DUP2 SLOAD DUP2 PUSH1 0xFF MUL NOT AND SWAP1 DUP4 ISZERO ISZERO MUL OR SWAP1 SSTORE POP POP POP POP POP POP POP POP POP POP POP POP PUSH3 0x6A5 JUMP JUMPDEST DUP3 DUP1 SLOAD PUSH3 0x19F SWAP1 PUSH3 0x5B6 JUMP JUMPDEST SWAP1 PUSH1 0x0 MSTORE PUSH1 0x20 PUSH1 0x0 KECCAK256 SWAP1 PUSH1 0x1F ADD PUSH1 0x20 SWAP1 DIV DUP2 ADD SWAP3 DUP3 PUSH3 0x1C3 JUMPI PUSH1 0x0 DUP6 SSTORE PUSH3 0x20F JUMP JUMPDEST DUP3 PUSH1 0x1F LT PUSH3 0x1DE JUMPI DUP1 MLOAD PUSH1 0xFF NOT AND DUP4 DUP1 ADD OR DUP6 SSTORE PUSH3 0x20F JUMP JUMPDEST DUP3 DUP1 ADD PUSH1 0x1 ADD DUP6 SSTORE DUP3 ISZERO PUSH3 0x20F JUMPI SWAP2 DUP3 ADD JUMPDEST DUP3 DUP2 GT ISZERO PUSH3 0x20E JUMPI DUP3 MLOAD DUP3 SSTORE SWAP2 PUSH1 0x20 ADD SWAP2 SWAP1 PUSH1 0x1 ADD SWAP1 PUSH3 0x1F1 JUMP JUMPDEST JUMPDEST POP SWAP1 POP PUSH3 0x21E SWAP2 SWAP1 PUSH3 0x222 JUMP JUMPDEST POP SWAP1 JUMP JUMPDEST JUMPDEST DUP1 DUP3 GT ISZERO PUSH3 0x23D JUMPI PUSH1 0x0 DUP2 PUSH1 0x0 SWAP1 SSTORE POP PUSH1 0x1 ADD PUSH3 0x223 JUMP JUMPDEST POP SWAP1 JUMP JUMPDEST PUSH1 0x0 PUSH3 0x258 PUSH3 0x252 DUP5 PUSH3 0x54A JUMP JUMPDEST PUSH3 0x521 JUMP JUMPDEST SWAP1 POP DUP3 DUP2 MSTORE PUSH1 0x20 DUP2 ADD DUP5 DUP5 DUP5 ADD GT ISZERO PUSH3 0x277 JUMPI PUSH3 0x276 PUSH3 0x685 JUMP JUMPDEST JUMPDEST PUSH3 0x284 DUP5 DUP3 DUP6 PUSH3 0x580 JUMP JUMPDEST POP SWAP4 SWAP3 POP POP POP JUMP JUMPDEST PUSH1 0x0 DUP3 PUSH1 0x1F DUP4 ADD SLT PUSH3 0x2A4 JUMPI PUSH3 0x2A3 PUSH3 0x680 JUMP JUMPDEST JUMPDEST DUP2 MLOAD PUSH3 0x2B6 DUP5 DUP3 PUSH1 0x20 DUP7 ADD PUSH3 0x241 JUMP JUMPDEST SWAP2 POP POP SWAP3 SWAP2 POP POP JUMP JUMPDEST PUSH1 0x0 DUP1 PUSH1 0x0 DUP1 PUSH1 0x0 DUP1 PUSH1 0x0 DUP1 PUSH1 0x0 DUP1 PUSH1 0x0 PUSH2 0x160 DUP13 DUP15 SUB SLT ISZERO PUSH3 0x2E8 JUMPI PUSH3 0x2E7 PUSH3 0x68F JUMP JUMPDEST JUMPDEST PUSH1 0x0 DUP13 ADD MLOAD PUSH8 0xFFFFFFFFFFFFFFFF DUP2 GT ISZERO PUSH3 0x309 JUMPI PUSH3 0x308 PUSH3 0x68A JUMP JUMPDEST JUMPDEST PUSH3 0x317 DUP15 DUP3 DUP16 ADD PUSH3 0x28C JUMP JUMPDEST SWAP12 POP POP PUSH1 0x20 DUP13 ADD MLOAD PUSH8 0xFFFFFFFFFFFFFFFF DUP2 GT ISZERO PUSH3 0x33B JUMPI PUSH3 0x33A PUSH3 0x68A JUMP JUMPDEST JUMPDEST PUSH3 0x349 DUP15 DUP3 DUP16 ADD PUSH3 0x28C JUMP JUMPDEST SWAP11 POP POP PUSH1 0x40 DUP13 ADD MLOAD PUSH8 0xFFFFFFFFFFFFFFFF DUP2 GT ISZERO PUSH3 0x36D JUMPI PUSH3 0x36C PUSH3 0x68A JUMP JUMPDEST JUMPDEST PUSH3 0x37B DUP15 DUP3 DUP16 ADD PUSH3 0x28C JUMP JUMPDEST SWAP10 POP POP PUSH1 0x60 DUP13 ADD MLOAD PUSH8 0xFFFFFFFFFFFFFFFF DUP2 GT ISZERO PUSH3 0x39F JUMPI PUSH3 0x39E PUSH3 0x68A JUMP JUMPDEST JUMPDEST PUSH3 0x3AD DUP15 DUP3 DUP16 ADD PUSH3 0x28C JUMP JUMPDEST SWAP9 POP POP PUSH1 0x80 DUP13 ADD MLOAD PUSH8 0xFFFFFFFFFFFFFFFF DUP2 GT ISZERO PUSH3 0x3D1 JUMPI PUSH3 0x3D0 PUSH3 0x68A JUMP JUMPDEST JUMPDEST PUSH3 0x3DF DUP15 DUP3 DUP16 ADD PUSH3 0x28C JUMP JUMPDEST SWAP8 POP POP PUSH1 0xA0 DUP13 ADD MLOAD PUSH8 0xFFFFFFFFFFFFFFFF DUP2 GT ISZERO PUSH3 0x403 JUMPI PUSH3 0x402 PUSH3 0x68A JUMP JUMPDEST JUMPDEST PUSH3 0x411 DUP15 DUP3 DUP16 ADD PUSH3 0x28C JUMP JUMPDEST SWAP7 POP POP PUSH1 0xC0 DUP13 ADD MLOAD PUSH8 0xFFFFFFFFFFFFFFFF DUP2 GT ISZERO PUSH3 0x435 JUMPI PUSH3 0x434 PUSH3 0x68A JUMP JUMPDEST JUMPDEST PUSH3 0x443 DUP15 DUP3 DUP16 ADD PUSH3 0x28C JUMP JUMPDEST SWAP6 POP POP PUSH1 0xE0 DUP13 ADD MLOAD PUSH8 0xFFFFFFFFFFFFFFFF DUP2 GT ISZERO PUSH3 0x467 JUMPI PUSH3 0x466 PUSH3 0x68A JUMP JUMPDEST JUMPDEST PUSH3 0x475 DUP15 DUP3 DUP16 ADD PUSH3 0x28C JUMP JUMPDEST SWAP5 POP POP PUSH2 0x100 DUP13 ADD MLOAD PUSH8 0xFFFFFFFFFFFFFFFF DUP2 GT ISZERO PUSH3 0x49A JUMPI PUSH3 0x499 PUSH3 0x68A JUMP JUMPDEST JUMPDEST PUSH3 0x4A8 DUP15 DUP3 DUP16 ADD PUSH3 0x28C JUMP JUMPDEST SWAP4 POP POP PUSH2 0x120 DUP13 ADD MLOAD PUSH8 0xFFFFFFFFFFFFFFFF DUP2 GT ISZERO PUSH3 0x4CD JUMPI PUSH3 0x4CC PUSH3 0x68A JUMP JUMPDEST JUMPDEST PUSH3 0x4DB DUP15 DUP3 DUP16 ADD PUSH3 0x28C JUMP JUMPDEST SWAP3 POP POP PUSH2 0x140 DUP13 ADD MLOAD PUSH8 0xFFFFFFFFFFFFFFFF DUP2 GT ISZERO PUSH3 0x500 JUMPI PUSH3 0x4FF PUSH3 0x68A JUMP JUMPDEST JUMPDEST PUSH3 0x50E DUP15 DUP3 DUP16 ADD PUSH3 0x28C JUMP JUMPDEST SWAP2 POP POP SWAP3 SWAP6 SWAP9 SWAP12 POP SWAP3 SWAP6 SWAP9 SWAP12 SWAP1 SWAP4 SWAP7 SWAP10 POP JUMP JUMPDEST PUSH1 0x0 PUSH3 0x52D PUSH3 0x540 JUMP JUMPDEST SWAP1 POP PUSH3 0x53B DUP3 DUP3 PUSH3 0x5EC JUMP JUMPDEST SWAP2 SWAP1 POP JUMP JUMPDEST PUSH1 0x0 PUSH1 0x40 MLOAD SWAP1 POP SWAP1 JUMP JUMPDEST PUSH1 0x0 PUSH8 0xFFFFFFFFFFFFFFFF DUP3 GT ISZERO PUSH3 0x568 JUMPI PUSH3 0x567 PUSH3 0x651 JUMP JUMPDEST JUMPDEST PUSH3 0x573 DUP3 PUSH3 0x694 JUMP JUMPDEST SWAP1 POP PUSH1 0x20 DUP2 ADD SWAP1 POP SWAP2 SWAP1 POP JUMP JUMPDEST PUSH1 0x0 JUMPDEST DUP4 DUP2 LT ISZERO PUSH3 0x5A0 JUMPI DUP1 DUP3 ADD MLOAD DUP2 DUP5 ADD MSTORE PUSH1 0x20 DUP2 ADD SWAP1 POP PUSH3 0x583 JUMP JUMPDEST DUP4 DUP2 GT ISZERO PUSH3 0x5B0 JUMPI PUSH1 0x0 DUP5 DUP5 ADD MSTORE JUMPDEST POP POP POP POP JUMP JUMPDEST PUSH1 0x0 PUSH1 0x2 DUP3 DIV SWAP1 POP PUSH1 0x1 DUP3 AND DUP1 PUSH3 0x5CF JUMPI PUSH1 0x7F DUP3 AND SWAP2 POP JUMPDEST PUSH1 0x20 DUP3 LT DUP2 EQ ISZERO PUSH3 0x5E6 JUMPI PUSH3 0x5E5 PUSH3 0x622 JUMP JUMPDEST JUMPDEST POP SWAP2 SWAP1 POP JUMP JUMPDEST PUSH3 0x5F7 DUP3 PUSH3 0x694 JUMP JUMPDEST DUP2 ADD DUP2 DUP2 LT PUSH8 0xFFFFFFFFFFFFFFFF DUP3 GT OR ISZERO PUSH3 0x619 JUMPI PUSH3 0x618 PUSH3 0x651 JUMP JUMPDEST JUMPDEST DUP1 PUSH1 0x40 MSTORE POP POP POP JUMP JUMPDEST PUSH32 0x4E487B7100000000000000000000000000000000000000000000000000000000 PUSH1 0x0 MSTORE PUSH1 0x22 PUSH1 0x4 MSTORE PUSH1 0x24 PUSH1 0x0 REVERT JUMPDEST PUSH32 0x4E487B7100000000000000000000000000000000000000000000000000000000 PUSH1 0x0 MSTORE PUSH1 0x41 PUSH1 0x4 MSTORE PUSH1 0x24 PUSH1 0x0 REVERT JUMPDEST PUSH1 0x0 DUP1 REVERT JUMPDEST PUSH1 0x0 DUP1 REVERT JUMPDEST PUSH1 0x0 DUP1 REVERT JUMPDEST PUSH1 0x0 DUP1 REVERT JUMPDEST PUSH1 0x0 PUSH1 0x1F NOT PUSH1 0x1F DUP4 ADD AND SWAP1 POP SWAP2 SWAP1 POP JUMP JUMPDEST PUSH2 0x10F2 DUP1 PUSH3 0x6B5 PUSH1 0x0 CODECOPY PUSH1 0x0 RETURN INVALID PUSH1 0x80 PUSH1 0x40 MSTORE CALLVALUE DUP1 ISZERO PUSH2 0x10 JUMPI PUSH1 0x0 DUP1 REVERT JUMPDEST POP PUSH1 0x4 CALLDATASIZE LT PUSH2 0x62 JUMPI PUSH1 0x0 CALLDATALOAD PUSH1 0xE0 SHR DUP1 PUSH4 0x30884B68 EQ PUSH2 0x67 JUMPI DUP1 PUSH4 0x3BC5DE30 EQ PUSH2 0x85 JUMPI DUP1 PUSH4 0x47F450B0 EQ PUSH2 0xAE JUMPI DUP1 PUSH4 0x4A2BFDC7 EQ PUSH2 0xCC JUMPI DUP1 PUSH4 0x86444B43 EQ PUSH2 0xD6 JUMPI DUP1 PUSH4 0xDC4ADE84 EQ PUSH2 0xF2 JUMPI JUMPDEST PUSH1 0x0 DUP1 REVERT JUMPDEST PUSH2 0x6F PUSH2 0xFC JUMP JUMPDEST PUSH1 0x40 MLOAD PUSH2 0x7C SWAP2 SWAP1 PUSH2 0xDC1 JUMP JUMPDEST PUSH1 0x40 MLOAD DUP1 SWAP2 SUB SWAP1 RETURN JUMPDEST PUSH2 0x8D PUSH2 0x18E JUMP JUMPDEST PUSH1 0x40 MLOAD PUSH2 0xA5 SWAP13 SWAP12 SWAP11 SWAP10 SWAP9 SWAP8 SWAP7 SWAP6 SWAP5 SWAP4 SWAP3 SWAP2 SWAP1 PUSH2 0xDE3 JUMP JUMPDEST PUSH1 0x40 MLOAD DUP1 SWAP2 SUB SWAP1 RETURN JUMPDEST PUSH2 0xB6 PUSH2 0x772 JUMP JUMPDEST PUSH1 0x40 MLOAD PUSH2 0xC3 SWAP2 SWAP1 PUSH2 0xEE3 JUMP JUMPDEST PUSH1 0x40 MLOAD DUP1 SWAP2 SUB SWAP1 RETURN JUMPDEST PUSH2 0xD4 PUSH2 0x9D4 JUMP JUMPDEST STOP JUMPDEST PUSH2 0xF0 PUSH1 0x4 DUP1 CALLDATASIZE SUB DUP2 ADD SWAP1 PUSH2 0xEB SWAP2 SWAP1 PUSH2 0xBF1 JUMP JUMPDEST PUSH2 0x9F1 JUMP JUMPDEST STOP JUMPDEST PUSH2 0xFA PUSH2 0xA99 JUMP JUMPDEST STOP JUMPDEST PUSH1 0x60 PUSH1 0x0 DUP1 SLOAD PUSH2 0x10B SWAP1 PUSH2 0xFD6 JUMP JUMPDEST DUP1 PUSH1 0x1F ADD PUSH1 0x20 DUP1 SWAP2 DIV MUL PUSH1 0x20 ADD PUSH1 0x40 MLOAD SWAP1 DUP2 ADD PUSH1 0x40 MSTORE DUP1 SWAP3 SWAP2 SWAP1 DUP2 DUP2 MSTORE PUSH1 0x20 ADD DUP3 DUP1 SLOAD PUSH2 0x137 SWAP1 PUSH2 0xFD6 JUMP JUMPDEST DUP1 ISZERO PUSH2 0x184 JUMPI DUP1 PUSH1 0x1F LT PUSH2 0x159 JUMPI PUSH2 0x100 DUP1 DUP4 SLOAD DIV MUL DUP4 MSTORE SWAP2 PUSH1 0x20 ADD SWAP2 PUSH2 0x184 JUMP JUMPDEST DUP3 ADD SWAP2 SWAP1 PUSH1 0x0 MSTORE PUSH1 0x20 PUSH1 0x0 KECCAK256 SWAP1 JUMPDEST DUP2 SLOAD DUP2 MSTORE SWAP1 PUSH1 0x1 ADD SWAP1 PUSH1 0x20 ADD DUP1 DUP4 GT PUSH2 0x167 JUMPI DUP3 SWAP1 SUB PUSH1 0x1F AND DUP3 ADD SWAP2 JUMPDEST POP POP POP POP POP SWAP1 POP SWAP1 JUMP JUMPDEST PUSH1 0x60 DUP1 PUSH1 0x60 DUP1 PUSH1 0x60 DUP1 PUSH1 0x60 DUP1 PUSH1 0x60 DUP1 PUSH1 0x0 DUP1 PUSH1 0x1 PUSH1 0x2 PUSH1 0x3 PUSH1 0x4 PUSH1 0x5 PUSH1 0x6 PUSH1 0x7 PUSH1 0x8 PUSH1 0x9 PUSH1 0xA PUSH1 0xB PUSH1 0x0 SWAP1 SLOAD SWAP1 PUSH2 0x100 EXP SWAP1 DIV PUSH1 0xFF AND PUSH1 0xB PUSH1 0x1 SWAP1 SLOAD SWAP1 PUSH2 0x100 EXP SWAP1 DIV PUSH1 0xFF AND DUP12 DUP1 SLOAD PUSH2 0x1E0 SWAP1 PUSH2 0xFD6 JUMP JUMPDEST DUP1 PUSH1 0x1F ADD PUSH1 0x20 DUP1 SWAP2 DIV MUL PUSH1 0x20 ADD PUSH1 0x40 MLOAD SWAP1 DUP2 ADD PUSH1 0x40 MSTORE DUP1 SWAP3 SWAP2 SWAP1 DUP2 DUP2 MSTORE PUSH1 0x20 ADD DUP3 DUP1 SLOAD PUSH2 0x20C SWAP1 PUSH2 0xFD6 JUMP JUMPDEST DUP1 ISZERO PUSH2 0x259 JUMPI DUP1 PUSH1 0x1F LT PUSH2 0x22E JUMPI PUSH2 0x100 DUP1 DUP4 SLOAD DIV MUL DUP4 MSTORE SWAP2 PUSH1 0x20 ADD SWAP2 PUSH2 0x259 JUMP JUMPDEST DUP3 ADD SWAP2 SWAP1 PUSH1 0x0 MSTORE PUSH1 0x20 PUSH1 0x0 KECCAK256 SWAP1 JUMPDEST DUP2 SLOAD DUP2 MSTORE SWAP1 PUSH1 0x1 ADD SWAP1 PUSH1 0x20 ADD DUP1 DUP4 GT PUSH2 0x23C JUMPI DUP3 SWAP1 SUB PUSH1 0x1F AND DUP3 ADD SWAP2 JUMPDEST POP POP POP POP POP SWAP12 POP DUP11 DUP1 SLOAD PUSH2 0x26C SWAP1 PUSH2 0xFD6 JUMP JUMPDEST DUP1 PUSH1 0x1F ADD PUSH1 0x20 DUP1 SWAP2 DIV MUL PUSH1 0x20 ADD PUSH1 0x40 MLOAD SWAP1 DUP2 ADD PUSH1 0x40 MSTORE DUP1 SWAP3 SWAP2 SWAP1 DUP2 DUP2 MSTORE PUSH1 0x20 ADD DUP3 DUP1 SLOAD PUSH2 0x298 SWAP1 PUSH2 0xFD6 JUMP JUMPDEST DUP1 ISZERO PUSH2 0x2E5 JUMPI DUP1 PUSH1 0x1F LT PUSH2 0x2BA JUMPI PUSH2 0x100 DUP1 DUP4 SLOAD DIV MUL DUP4 MSTORE SWAP2 PUSH1 0x20 ADD SWAP2 PUSH2 0x2E5 JUMP JUMPDEST DUP3 ADD SWAP2 SWAP1 PUSH1 0x0 MSTORE PUSH1 0x20 PUSH1 0x0 KECCAK256 SWAP1 JUMPDEST DUP2 SLOAD DUP2 MSTORE SWAP1 PUSH1 0x1 ADD SWAP1 PUSH1 0x20 ADD DUP1 DUP4 GT PUSH2 0x2C8 JUMPI DUP3 SWAP1 SUB PUSH1 0x1F AND DUP3 ADD SWAP2 JUMPDEST POP POP POP POP POP SWAP11 POP DUP10 DUP1 SLOAD PUSH2 0x2F8 SWAP1 PUSH2 0xFD6 JUMP JUMPDEST DUP1 PUSH1 0x1F ADD PUSH1 0x20 DUP1 SWAP2 DIV MUL PUSH1 0x20 ADD PUSH1 0x40 MLOAD SWAP1 DUP2 ADD PUSH1 0x40 MSTORE DUP1 SWAP3 SWAP2 SWAP1 DUP2 DUP2 MSTORE PUSH1 0x20 ADD DUP3 DUP1 SLOAD PUSH2 0x324 SWAP1 PUSH2 0xFD6 JUMP JUMPDEST DUP1 ISZERO PUSH2 0x371 JUMPI DUP1 PUSH1 0x1F LT PUSH2 0x346 JUMPI PUSH2 0x100 DUP1 DUP4 SLOAD DIV MUL DUP4 MSTORE SWAP2 PUSH1 0x20 ADD SWAP2 PUSH2 0x371 JUMP JUMPDEST DUP3 ADD SWAP2 SWAP1 PUSH1 0x0 MSTORE PUSH1 0x20 PUSH1 0x0 KECCAK256 SWAP1 JUMPDEST DUP2 SLOAD DUP2 MSTORE SWAP1 PUSH1 0x1 ADD SWAP1 PUSH1 0x20 ADD DUP1 DUP4 GT PUSH2 0x354 JUMPI DUP3 SWAP1 SUB PUSH1 0x1F AND DUP3 ADD SWAP2 JUMPDEST POP POP POP POP POP SWAP10 POP DUP9 DUP1 SLOAD PUSH2 0x384 SWAP1 PUSH2 0xFD6 JUMP JUMPDEST DUP1 PUSH1 0x1F ADD PUSH1 0x20 DUP1 SWAP2 DIV MUL PUSH1 0x20 ADD PUSH1 0x40 MLOAD SWAP1 DUP2 ADD PUSH1 0x40 MSTORE DUP1 SWAP3 SWAP2 SWAP1 DUP2 DUP2 MSTORE PUSH1 0x20 ADD DUP3 DUP1 SLOAD PUSH2 0x3B0 SWAP1 PUSH2 0xFD6 JUMP JUMPDEST DUP1 ISZERO PUSH2 0x3FD JUMPI DUP1 PUSH1 0x1F LT PUSH2 0x3D2 JUMPI PUSH2 0x100 DUP1 DUP4 SLOAD DIV MUL DUP4 MSTORE SWAP2 PUSH1 0x20 ADD SWAP2 PUSH2 0x3FD JUMP JUMPDEST DUP3 ADD SWAP2 SWAP1 PUSH1 0x0 MSTORE PUSH1 0x20 PUSH1 0x0 KECCAK256 SWAP1 JUMPDEST DUP2 SLOAD DUP2 MSTORE SWAP1 PUSH1 0x1 ADD SWAP1 PUSH1 0x20 ADD DUP1 DUP4 GT PUSH2 0x3E0 JUMPI DUP3 SWAP1 SUB PUSH1 0x1F AND DUP3 ADD SWAP2 JUMPDEST POP POP POP POP POP SWAP9 POP DUP8 DUP1 SLOAD PUSH2 0x410 SWAP1 PUSH2 0xFD6 JUMP JUMPDEST DUP1 PUSH1 0x1F ADD PUSH1 0x20 DUP1 SWAP2 DIV MUL PUSH1 0x20 ADD PUSH1 0x40 MLOAD SWAP1 DUP2 ADD PUSH1 0x40 MSTORE DUP1 SWAP3 SWAP2 SWAP1 DUP2 DUP2 MSTORE PUSH1 0x20 ADD DUP3 DUP1 SLOAD PUSH2 0x43C SWAP1 PUSH2 0xFD6 JUMP JUMPDEST DUP1 ISZERO PUSH2 0x489 JUMPI DUP1 PUSH1 0x1F LT PUSH2 0x45E JUMPI PUSH2 0x100 DUP1 DUP4 SLOAD DIV MUL DUP4 MSTORE SWAP2 PUSH1 0x20 ADD SWAP2 PUSH2 0x489 JUMP JUMPDEST DUP3 ADD SWAP2 SWAP1 PUSH1 0x0 MSTORE PUSH1 0x20 PUSH1 0x0 KECCAK256 SWAP1 JUMPDEST DUP2 SLOAD DUP2 MSTORE SWAP1 PUSH1 0x1 ADD SWAP1 PUSH1 0x20 ADD DUP1 DUP4 GT PUSH2 0x46C JUMPI DUP3 SWAP1 SUB PUSH1 0x1F AND DUP3 ADD SWAP2 JUMPDEST POP POP POP POP POP SWAP8 POP DUP7 DUP1 SLOAD PUSH2 0x49C SWAP1 PUSH2 0xFD6 JUMP JUMPDEST DUP1 PUSH1 0x1F ADD PUSH1 0x20 DUP1 SWAP2 DIV MUL PUSH1 0x20 ADD PUSH1 0x40 MLOAD SWAP1 DUP2 ADD PUSH1 0x40 MSTORE DUP1 SWAP3 SWAP2 SWAP1 DUP2 DUP2 MSTORE PUSH1 0x20 ADD DUP3 DUP1 SLOAD PUSH2 0x4C8 SWAP1 PUSH2 0xFD6 JUMP JUMPDEST DUP1 ISZERO PUSH2 0x515 JUMPI DUP1 PUSH1 0x1F LT PUSH2 0x4EA JUMPI PUSH2 0x100 DUP1 DUP4 SLOAD DIV MUL DUP4 MSTORE SWAP2 PUSH1 0x20 ADD SWAP2 PUSH2 0x515 JUMP JUMPDEST DUP3 ADD SWAP2 SWAP1 PUSH1 0x0 MSTORE PUSH1 0x20 PUSH1 0x0 KECCAK256 SWAP1 JUMPDEST DUP2 SLOAD DUP2 MSTORE SWAP1 PUSH1 0x1 ADD SWAP1 PUSH1 0x20 ADD DUP1 DUP4 GT PUSH2 0x4F8 JUMPI DUP3 SWAP1 SUB PUSH1 0x1F AND DUP3 ADD SWAP2 JUMPDEST POP POP POP POP POP SWAP7 POP DUP6 DUP1 SLOAD PUSH2 0x528 SWAP1 PUSH2 0xFD6 JUMP JUMPDEST DUP1 PUSH1 0x1F ADD PUSH1 0x20 DUP1 SWAP2 DIV MUL PUSH1 0x20 ADD PUSH1 0x40 MLOAD SWAP1 DUP2 ADD PUSH1 0x40 MSTORE DUP1 SWAP3 SWAP2 SWAP1 DUP2 DUP2 MSTORE PUSH1 0x20 ADD DUP3 DUP1 SLOAD PUSH2 0x554 SWAP1 PUSH2 0xFD6 JUMP JUMPDEST DUP1 ISZERO PUSH2 0x5A1 JUMPI DUP1 PUSH1 0x1F LT PUSH2 0x576 JUMPI PUSH2 0x100 DUP1 DUP4 SLOAD DIV MUL DUP4 MSTORE SWAP2 PUSH1 0x20 ADD SWAP2 PUSH2 0x5A1 JUMP JUMPDEST DUP3 ADD SWAP2 SWAP1 PUSH1 0x0 MSTORE PUSH1 0x20 PUSH1 0x0 KECCAK256 SWAP1 JUMPDEST DUP2 SLOAD DUP2 MSTORE SWAP1 PUSH1 0x1 ADD SWAP1 PUSH1 0x20 ADD DUP1 DUP4 GT PUSH2 0x584 JUMPI DUP3 SWAP1 SUB PUSH1 0x1F AND DUP3 ADD SWAP2 JUMPDEST POP POP POP POP POP SWAP6 POP DUP5 DUP1 SLOAD PUSH2 0x5B4 SWAP1 PUSH2 0xFD6 JUMP JUMPDEST DUP1 PUSH1 0x1F ADD PUSH1 0x20 DUP1 SWAP2 DIV MUL PUSH1 0x20 ADD PUSH1 0x40 MLOAD SWAP1 DUP2 ADD PUSH1 0x40 MSTORE DUP1 SWAP3 SWAP2 SWAP1 DUP2 DUP2 MSTORE PUSH1 0x20 ADD DUP3 DUP1 SLOAD PUSH2 0x5E0 SWAP1 PUSH2 0xFD6 JUMP JUMPDEST DUP1 ISZERO PUSH2 0x62D JUMPI DUP1 PUSH1 0x1F LT PUSH2 0x602 JUMPI PUSH2 0x100 DUP1 DUP4 SLOAD DIV MUL DUP4 MSTORE SWAP2 PUSH1 0x20 ADD SWAP2 PUSH2 0x62D JUMP JUMPDEST DUP3 ADD SWAP2 SWAP1 PUSH1 0x0 MSTORE PUSH1 0x20 PUSH1 0x0 KECCAK256 SWAP1 JUMPDEST DUP2 SLOAD DUP2 MSTORE SWAP1 PUSH1 0x1 ADD SWAP1 PUSH1 0x20 ADD DUP1 DUP4 GT PUSH2 0x610 JUMPI DUP3 SWAP1 SUB PUSH1 0x1F AND DUP3 ADD SWAP2 JUMPDEST POP POP POP POP POP SWAP5 POP DUP4 DUP1 SLOAD PUSH2 0x640 SWAP1 PUSH2 0xFD6 JUMP JUMPDEST DUP1 PUSH1 0x1F ADD PUSH1 0x20 DUP1 SWAP2 DIV MUL PUSH1 0x20 ADD PUSH1 0x40 MLOAD SWAP1 DUP2 ADD PUSH1 0x40 MSTORE DUP1 SWAP3 SWAP2 SWAP1 DUP2 DUP2 MSTORE PUSH1 0x20 ADD DUP3 DUP1 SLOAD PUSH2 0x66C SWAP1 PUSH2 0xFD6 JUMP JUMPDEST DUP1 ISZERO PUSH2 0x6B9 JUMPI DUP1 PUSH1 0x1F LT PUSH2 0x68E JUMPI PUSH2 0x100 DUP1 DUP4 SLOAD DIV MUL DUP4 MSTORE SWAP2 PUSH1 0x20 ADD SWAP2 PUSH2 0x6B9 JUMP JUMPDEST DUP3 ADD SWAP2 SWAP1 PUSH1 0x0 MSTORE PUSH1 0x20 PUSH1 0x0 KECCAK256 SWAP1 JUMPDEST DUP2 SLOAD DUP2 MSTORE SWAP1 PUSH1 0x1 ADD SWAP1 PUSH1 0x20 ADD DUP1 DUP4 GT PUSH2 0x69C JUMPI DUP3 SWAP1 SUB PUSH1 0x1F AND DUP3 ADD SWAP2 JUMPDEST POP POP POP POP POP SWAP4 POP DUP3 DUP1 SLOAD PUSH2 0x6CC SWAP1 PUSH2 0xFD6 JUMP JUMPDEST DUP1 PUSH1 0x1F ADD PUSH1 0x20 DUP1 SWAP2 DIV MUL PUSH1 0x20 ADD PUSH1 0x40 MLOAD SWAP1 DUP2 ADD PUSH1 0x40 MSTORE DUP1 SWAP3 SWAP2 SWAP1 DUP2 DUP2 MSTORE PUSH1 0x20 ADD DUP3 DUP1 SLOAD PUSH2 0x6F8 SWAP1 PUSH2 0xFD6 JUMP JUMPDEST DUP1 ISZERO PUSH2 0x745 JUMPI DUP1 PUSH1 0x1F LT PUSH2 0x71A JUMPI PUSH2 0x100 DUP1 DUP4 SLOAD DIV MUL DUP4 MSTORE SWAP2 PUSH1 0x20 ADD SWAP2 PUSH2 0x745 JUMP JUMPDEST DUP3 ADD SWAP2 SWAP1 PUSH1 0x0 MSTORE PUSH1 0x20 PUSH1 0x0 KECCAK256 SWAP1 JUMPDEST DUP2 SLOAD DUP2 MSTORE SWAP1 PUSH1 0x1 ADD SWAP1 PUSH1 0x20 ADD DUP1 DUP4 GT PUSH2 0x728 JUMPI DUP3 SWAP1 SUB PUSH1 0x1F AND DUP3 ADD SWAP2 JUMPDEST POP POP POP POP POP SWAP3 POP SWAP12 POP SWAP12 POP SWAP12 POP SWAP12 POP SWAP12 POP SWAP12 POP SWAP12 POP SWAP12 POP SWAP12 POP SWAP12 POP SWAP12 POP SWAP12 POP SWAP1 SWAP2 SWAP3 SWAP4 SWAP5 SWAP6 SWAP7 SWAP8 SWAP9 SWAP10 SWAP11 SWAP12 JUMP JUMPDEST PUSH2 0x77A PUSH2 0xAB6 JUMP JUMPDEST PUSH1 0xC PUSH1 0x40 MLOAD DUP1 PUSH1 0x80 ADD PUSH1 0x40 MSTORE SWAP1 DUP2 PUSH1 0x0 DUP3 ADD DUP1 SLOAD PUSH2 0x797 SWAP1 PUSH2 0xFD6 JUMP JUMPDEST DUP1 PUSH1 0x1F ADD PUSH1 0x20 DUP1 SWAP2 DIV MUL PUSH1 0x20 ADD PUSH1 0x40 MLOAD SWAP1 DUP2 ADD PUSH1 0x40 MSTORE DUP1 SWAP3 SWAP2 SWAP1 DUP2 DUP2 MSTORE PUSH1 0x20 ADD DUP3 DUP1 SLOAD PUSH2 0x7C3 SWAP1 PUSH2 0xFD6 JUMP JUMPDEST DUP1 ISZERO PUSH2 0x810 JUMPI DUP1 PUSH1 0x1F LT PUSH2 0x7E5 JUMPI PUSH2 0x100 DUP1 DUP4 SLOAD DIV MUL DUP4 MSTORE SWAP2 PUSH1 0x20 ADD SWAP2 PUSH2 0x810 JUMP JUMPDEST DUP3 ADD SWAP2 SWAP1 PUSH1 0x0 MSTORE PUSH1 0x20 PUSH1 0x0 KECCAK256 SWAP1 JUMPDEST DUP2 SLOAD DUP2 MSTORE SWAP1 PUSH1 0x1 ADD SWAP1 PUSH1 0x20 ADD DUP1 DUP4 GT PUSH2 0x7F3 JUMPI DUP3 SWAP1 SUB PUSH1 0x1F AND DUP3 ADD SWAP2 JUMPDEST POP POP POP POP POP DUP2 MSTORE PUSH1 0x20 ADD PUSH1 0x1 DUP3 ADD DUP1 SLOAD PUSH2 0x829 SWAP1 PUSH2 0xFD6 JUMP JUMPDEST DUP1 PUSH1 0x1F ADD PUSH1 0x20 DUP1 SWAP2 DIV MUL PUSH1 0x20 ADD PUSH1 0x40 MLOAD SWAP1 DUP2 ADD PUSH1 0x40 MSTORE DUP1 SWAP3 SWAP2 SWAP1 DUP2 DUP2 MSTORE PUSH1 0x20 ADD DUP3 DUP1 SLOAD PUSH2 0x855 SWAP1 PUSH2 0xFD6 JUMP JUMPDEST DUP1 ISZERO PUSH2 0x8A2 JUMPI DUP1 PUSH1 0x1F LT PUSH2 0x877 JUMPI PUSH2 0x100 DUP1 DUP4 SLOAD DIV MUL DUP4 MSTORE SWAP2 PUSH1 0x20 ADD SWAP2 PUSH2 0x8A2 JUMP JUMPDEST DUP3 ADD SWAP2 SWAP1 PUSH1 0x0 MSTORE PUSH1 0x20 PUSH1 0x0 KECCAK256 SWAP1 JUMPDEST DUP2 SLOAD DUP2 MSTORE SWAP1 PUSH1 0x1 ADD SWAP1 PUSH1 0x20 ADD DUP1 DUP4 GT PUSH2 0x885 JUMPI DUP3 SWAP1 SUB PUSH1 0x1F AND DUP3 ADD SWAP2 JUMPDEST POP POP POP POP POP DUP2 MSTORE PUSH1 0x20 ADD PUSH1 0x2 DUP3 ADD DUP1 SLOAD PUSH2 0x8BB SWAP1 PUSH2 0xFD6 JUMP JUMPDEST DUP1 PUSH1 0x1F ADD PUSH1 0x20 DUP1 SWAP2 DIV MUL PUSH1 0x20 ADD PUSH1 0x40 MLOAD SWAP1 DUP2 ADD PUSH1 0x40 MSTORE DUP1 SWAP3 SWAP2 SWAP1 DUP2 DUP2 MSTORE PUSH1 0x20 ADD DUP3 DUP1 SLOAD PUSH2 0x8E7 SWAP1 PUSH2 0xFD6 JUMP JUMPDEST DUP1 ISZERO PUSH2 0x934 JUMPI DUP1 PUSH1 0x1F LT PUSH2 0x909 JUMPI PUSH2 0x100 DUP1 DUP4 SLOAD DIV MUL DUP4 MSTORE SWAP2 PUSH1 0x20 ADD SWAP2 PUSH2 0x934 JUMP JUMPDEST DUP3 ADD SWAP2 SWAP1 PUSH1 0x0 MSTORE PUSH1 0x20 PUSH1 0x0 KECCAK256 SWAP1 JUMPDEST DUP2 SLOAD DUP2 MSTORE SWAP1 PUSH1 0x1 ADD SWAP1 PUSH1 0x20 ADD DUP1 DUP4 GT PUSH2 0x917 JUMPI DUP3 SWAP1 SUB PUSH1 0x1F AND DUP3 ADD SWAP2 JUMPDEST POP POP POP POP POP DUP2 MSTORE PUSH1 0x20 ADD PUSH1 0x3 DUP3 ADD DUP1 SLOAD PUSH2 0x94D SWAP1 PUSH2 0xFD6 JUMP JUMPDEST DUP1 PUSH1 0x1F ADD PUSH1 0x20 DUP1 SWAP2 DIV MUL PUSH1 0x20 ADD PUSH1 0x40 MLOAD SWAP1 DUP2 ADD PUSH1 0x40 MSTORE DUP1 SWAP3 SWAP2 SWAP1 DUP2 DUP2 MSTORE PUSH1 0x20 ADD DUP3 DUP1 SLOAD PUSH2 0x979 SWAP1 PUSH2 0xFD6 JUMP JUMPDEST DUP1 ISZERO PUSH2 0x9C6 JUMPI DUP1 PUSH1 0x1F LT PUSH2 0x99B JUMPI PUSH2 0x100 DUP1 DUP4 SLOAD DIV MUL DUP4 MSTORE SWAP2 PUSH1 0x20 ADD SWAP2 PUSH2 0x9C6 JUMP JUMPDEST DUP3 ADD SWAP2 SWAP1 PUSH1 0x0 MSTORE PUSH1 0x20 PUSH1 0x0 KECCAK256 SWAP1 JUMPDEST DUP2 SLOAD DUP2 MSTORE SWAP1 PUSH1 0x1 ADD SWAP1 PUSH1 0x20 ADD DUP1 DUP4 GT PUSH2 0x9A9 JUMPI DUP3 SWAP1 SUB PUSH1 0x1F AND DUP3 ADD SWAP2 JUMPDEST POP POP POP POP POP DUP2 MSTORE POP POP SWAP1 POP SWAP1 JUMP JUMPDEST PUSH1 0x1 PUSH1 0xB PUSH1 0x0 PUSH2 0x100 EXP DUP2 SLOAD DUP2 PUSH1 0xFF MUL NOT AND SWAP1 DUP4 ISZERO ISZERO MUL OR SWAP1 SSTORE POP JUMP JUMPDEST PUSH1 0x40 MLOAD DUP1 PUSH1 0x80 ADD PUSH1 0x40 MSTORE DUP1 DUP6 DUP2 MSTORE PUSH1 0x20 ADD DUP5 DUP2 MSTORE PUSH1 0x20 ADD DUP4 DUP2 MSTORE PUSH1 0x20 ADD DUP3 DUP2 MSTORE POP PUSH1 0xC PUSH1 0x0 DUP3 ADD MLOAD DUP2 PUSH1 0x0 ADD SWAP1 DUP1 MLOAD SWAP1 PUSH1 0x20 ADD SWAP1 PUSH2 0xA30 SWAP3 SWAP2 SWAP1 PUSH2 0xADE JUMP JUMPDEST POP PUSH1 0x20 DUP3 ADD MLOAD DUP2 PUSH1 0x1 ADD SWAP1 DUP1 MLOAD SWAP1 PUSH1 0x20 ADD SWAP1 PUSH2 0xA4D SWAP3 SWAP2 SWAP1 PUSH2 0xADE JUMP JUMPDEST POP PUSH1 0x40 DUP3 ADD MLOAD DUP2 PUSH1 0x2 ADD SWAP1 DUP1 MLOAD SWAP1 PUSH1 0x20 ADD SWAP1 PUSH2 0xA6A SWAP3 SWAP2 SWAP1 PUSH2 0xADE JUMP JUMPDEST POP PUSH1 0x60 DUP3 ADD MLOAD DUP2 PUSH1 0x3 ADD SWAP1 DUP1 MLOAD SWAP1 PUSH1 0x20 ADD SWAP1 PUSH2 0xA87 SWAP3 SWAP2 SWAP1 PUSH2 0xADE JUMP JUMPDEST POP SWAP1 POP POP PUSH2 0xA93 PUSH2 0x9D4 JUMP JUMPDEST POP POP POP POP JUMP JUMPDEST PUSH1 0x1 PUSH1 0xB PUSH1 0x1 PUSH2 0x100 EXP DUP2 SLOAD DUP2 PUSH1 0xFF MUL NOT AND SWAP1 DUP4 ISZERO ISZERO MUL OR SWAP1 SSTORE POP JUMP JUMPDEST PUSH1 0x40 MLOAD DUP1 PUSH1 0x80 ADD PUSH1 0x40 MSTORE DUP1 PUSH1 0x60 DUP2 MSTORE PUSH1 0x20 ADD PUSH1 0x60 DUP2 MSTORE PUSH1 0x20 ADD PUSH1 0x60 DUP2 MSTORE PUSH1 0x20 ADD PUSH1 0x60 DUP2 MSTORE POP SWAP1 JUMP JUMPDEST DUP3 DUP1 SLOAD PUSH2 0xAEA SWAP1 PUSH2 0xFD6 JUMP JUMPDEST SWAP1 PUSH1 0x0 MSTORE PUSH1 0x20 PUSH1 0x0 KECCAK256 SWAP1 PUSH1 0x1F ADD PUSH1 0x20 SWAP1 DIV DUP2 ADD SWAP3 DUP3 PUSH2 0xB0C JUMPI PUSH1 0x0 DUP6 SSTORE PUSH2 0xB53 JUMP JUMPDEST DUP3 PUSH1 0x1F LT PUSH2 0xB25 JUMPI DUP1 MLOAD PUSH1 0xFF NOT AND DUP4 DUP1 ADD OR DUP6 SSTORE PUSH2 0xB53 JUMP JUMPDEST DUP3 DUP1 ADD PUSH1 0x1 ADD DUP6 SSTORE DUP3 ISZERO PUSH2 0xB53 JUMPI SWAP2 DUP3 ADD JUMPDEST DUP3 DUP2 GT ISZERO PUSH2 0xB52 JUMPI DUP3 MLOAD DUP3 SSTORE SWAP2 PUSH1 0x20 ADD SWAP2 SWAP1 PUSH1 0x1 ADD SWAP1 PUSH2 0xB37 JUMP JUMPDEST JUMPDEST POP SWAP1 POP PUSH2 0xB60 SWAP2 SWAP1 PUSH2 0xB64 JUMP JUMPDEST POP SWAP1 JUMP JUMPDEST JUMPDEST DUP1 DUP3 GT ISZERO PUSH2 0xB7D JUMPI PUSH1 0x0 DUP2 PUSH1 0x0 SWAP1 SSTORE POP PUSH1 0x1 ADD PUSH2 0xB65 JUMP JUMPDEST POP SWAP1 JUMP JUMPDEST PUSH1 0x0 PUSH2 0xB94 PUSH2 0xB8F DUP5 PUSH2 0xF2A JUMP JUMPDEST PUSH2 0xF05 JUMP JUMPDEST SWAP1 POP DUP3 DUP2 MSTORE PUSH1 0x20 DUP2 ADD DUP5 DUP5 DUP5 ADD GT ISZERO PUSH2 0xBB0 JUMPI PUSH2 0xBAF PUSH2 0x109C JUMP JUMPDEST JUMPDEST PUSH2 0xBBB DUP5 DUP3 DUP6 PUSH2 0xF94 JUMP JUMPDEST POP SWAP4 SWAP3 POP POP POP JUMP JUMPDEST PUSH1 0x0 DUP3 PUSH1 0x1F DUP4 ADD SLT PUSH2 0xBD8 JUMPI PUSH2 0xBD7 PUSH2 0x1097 JUMP JUMPDEST JUMPDEST DUP2 CALLDATALOAD PUSH2 0xBE8 DUP5 DUP3 PUSH1 0x20 DUP7 ADD PUSH2 0xB81 JUMP JUMPDEST SWAP2 POP POP SWAP3 SWAP2 POP POP JUMP JUMPDEST PUSH1 0x0 DUP1 PUSH1 0x0 DUP1 PUSH1 0x80 DUP6 DUP8 SUB SLT ISZERO PUSH2 0xC0B JUMPI PUSH2 0xC0A PUSH2 0x10A6 JUMP JUMPDEST JUMPDEST PUSH1 0x0 DUP6 ADD CALLDATALOAD PUSH8 0xFFFFFFFFFFFFFFFF DUP2 GT ISZERO PUSH2 0xC29 JUMPI PUSH2 0xC28 PUSH2 0x10A1 JUMP JUMPDEST JUMPDEST PUSH2 0xC35 DUP8 DUP3 DUP9 ADD PUSH2 0xBC3 JUMP JUMPDEST SWAP5 POP POP PUSH1 0x20 DUP6 ADD CALLDATALOAD PUSH8 0xFFFFFFFFFFFFFFFF DUP2 GT ISZERO PUSH2 0xC56 JUMPI PUSH2 0xC55 PUSH2 0x10A1 JUMP JUMPDEST JUMPDEST PUSH2 0xC62 DUP8 DUP3 DUP9 ADD PUSH2 0xBC3 JUMP JUMPDEST SWAP4 POP POP PUSH1 0x40 DUP6 ADD CALLDATALOAD PUSH8 0xFFFFFFFFFFFFFFFF DUP2 GT ISZERO PUSH2 0xC83 JUMPI PUSH2 0xC82 PUSH2 0x10A1 JUMP JUMPDEST JUMPDEST PUSH2 0xC8F DUP8 DUP3 DUP9 ADD PUSH2 0xBC3 JUMP JUMPDEST SWAP3 POP POP PUSH1 0x60 DUP6 ADD CALLDATALOAD PUSH8 0xFFFFFFFFFFFFFFFF DUP2 GT ISZERO PUSH2 0xCB0 JUMPI PUSH2 0xCAF PUSH2 0x10A1 JUMP JUMPDEST JUMPDEST PUSH2 0xCBC DUP8 DUP3 DUP9 ADD PUSH2 0xBC3 JUMP JUMPDEST SWAP2 POP POP SWAP3 SWAP6 SWAP2 SWAP5 POP SWAP3 POP JUMP JUMPDEST PUSH2 0xCD1 DUP2 PUSH2 0xF88 JUMP JUMPDEST DUP3 MSTORE POP POP JUMP JUMPDEST PUSH1 0x0 PUSH2 0xCE2 DUP3 PUSH2 0xF5B JUMP JUMPDEST PUSH2 0xCEC DUP2 DUP6 PUSH2 0xF66 JUMP JUMPDEST SWAP4 POP PUSH2 0xCFC DUP2 DUP6 PUSH1 0x20 DUP7 ADD PUSH2 0xFA3 JUMP JUMPDEST PUSH2 0xD05 DUP2 PUSH2 0x10AB JUMP JUMPDEST DUP5 ADD SWAP2 POP POP SWAP3 SWAP2 POP POP JUMP JUMPDEST PUSH1 0x0 PUSH2 0xD1B DUP3 PUSH2 0xF5B JUMP JUMPDEST PUSH2 0xD25 DUP2 DUP6 PUSH2 0xF77 JUMP JUMPDEST SWAP4 POP PUSH2 0xD35 DUP2 DUP6 PUSH1 0x20 DUP7 ADD PUSH2 0xFA3 JUMP JUMPDEST PUSH2 0xD3E DUP2 PUSH2 0x10AB JUMP JUMPDEST DUP5 ADD SWAP2 POP POP SWAP3 SWAP2 POP POP JUMP JUMPDEST PUSH1 0x0 PUSH1 0x80 DUP4 ADD PUSH1 0x0 DUP4 ADD MLOAD DUP5 DUP3 SUB PUSH1 0x0 DUP7 ADD MSTORE PUSH2 0xD66 DUP3 DUP3 PUSH2 0xCD7 JUMP JUMPDEST SWAP2 POP POP PUSH1 0x20 DUP4 ADD MLOAD DUP5 DUP3 SUB PUSH1 0x20 DUP7 ADD MSTORE PUSH2 0xD80 DUP3 DUP3 PUSH2 0xCD7 JUMP JUMPDEST SWAP2 POP POP PUSH1 0x40 DUP4 ADD MLOAD DUP5 DUP3 SUB PUSH1 0x40 DUP7 ADD MSTORE PUSH2 0xD9A DUP3 DUP3 PUSH2 0xCD7 JUMP JUMPDEST SWAP2 POP POP PUSH1 0x60 DUP4 ADD MLOAD DUP5 DUP3 SUB PUSH1 0x60 DUP7 ADD MSTORE PUSH2 0xDB4 DUP3 DUP3 PUSH2 0xCD7 JUMP JUMPDEST SWAP2 POP POP DUP1 SWAP2 POP POP SWAP3 SWAP2 POP POP JUMP JUMPDEST PUSH1 0x0 PUSH1 0x20 DUP3 ADD SWAP1 POP DUP2 DUP2 SUB PUSH1 0x0 DUP4 ADD MSTORE PUSH2 0xDDB DUP2 DUP5 PUSH2 0xD10 JUMP JUMPDEST SWAP1 POP SWAP3 SWAP2 POP POP JUMP JUMPDEST PUSH1 0x0 PUSH2 0x180 DUP3 ADD SWAP1 POP DUP2 DUP2 SUB PUSH1 0x0 DUP4 ADD MSTORE PUSH2 0xDFE DUP2 DUP16 PUSH2 0xD10 JUMP JUMPDEST SWAP1 POP DUP2 DUP2 SUB PUSH1 0x20 DUP4 ADD MSTORE PUSH2 0xE12 DUP2 DUP15 PUSH2 0xD10 JUMP JUMPDEST SWAP1 POP DUP2 DUP2 SUB PUSH1 0x40 DUP4 ADD MSTORE PUSH2 0xE26 DUP2 DUP14 PUSH2 0xD10 JUMP JUMPDEST SWAP1 POP DUP2 DUP2 SUB PUSH1 0x60 DUP4 ADD MSTORE PUSH2 0xE3A DUP2 DUP13 PUSH2 0xD10 JUMP JUMPDEST SWAP1 POP DUP2 DUP2 SUB PUSH1 0x80 DUP4 ADD MSTORE PUSH2 0xE4E DUP2 DUP12 PUSH2 0xD10 JUMP JUMPDEST SWAP1 POP DUP2 DUP2 SUB PUSH1 0xA0 DUP4 ADD MSTORE PUSH2 0xE62 DUP2 DUP11 PUSH2 0xD10 JUMP JUMPDEST SWAP1 POP DUP2 DUP2 SUB PUSH1 0xC0 DUP4 ADD MSTORE PUSH2 0xE76 DUP2 DUP10 PUSH2 0xD10 JUMP JUMPDEST SWAP1 POP DUP2 DUP2 SUB PUSH1 0xE0 DUP4 ADD MSTORE PUSH2 0xE8A DUP2 DUP9 PUSH2 0xD10 JUMP JUMPDEST SWAP1 POP DUP2 DUP2 SUB PUSH2 0x100 DUP4 ADD MSTORE PUSH2 0xE9F DUP2 DUP8 PUSH2 0xD10 JUMP JUMPDEST SWAP1 POP DUP2 DUP2 SUB PUSH2 0x120 DUP4 ADD MSTORE PUSH2 0xEB4 DUP2 DUP7 PUSH2 0xD10 JUMP JUMPDEST SWAP1 POP PUSH2 0xEC4 PUSH2 0x140 DUP4 ADD DUP6 PUSH2 0xCC8 JUMP JUMPDEST PUSH2 0xED2 PUSH2 0x160 DUP4 ADD DUP5 PUSH2 0xCC8 JUMP JUMPDEST SWAP14 SWAP13 POP POP POP POP POP POP POP POP POP POP POP POP POP JUMP JUMPDEST PUSH1 0x0 PUSH1 0x20 DUP3 ADD SWAP1 POP DUP2 DUP2 SUB PUSH1 0x0 DUP4 ADD MSTORE PUSH2 0xEFD DUP2 DUP5 PUSH2 0xD49 JUMP JUMPDEST SWAP1 POP SWAP3 SWAP2 POP POP JUMP JUMPDEST PUSH1 0x0 PUSH2 0xF0F PUSH2 0xF20 JUMP JUMPDEST SWAP1 POP PUSH2 0xF1B DUP3 DUP3 PUSH2 0x1008 JUMP JUMPDEST SWAP2 SWAP1 POP JUMP JUMPDEST PUSH1 0x0 PUSH1 0x40 MLOAD SWAP1 POP SWAP1 JUMP JUMPDEST PUSH1 0x0 PUSH8 0xFFFFFFFFFFFFFFFF DUP3 GT ISZERO PUSH2 0xF45 JUMPI PUSH2 0xF44 PUSH2 0x1068 JUMP JUMPDEST JUMPDEST PUSH2 0xF4E DUP3 PUSH2 0x10AB JUMP JUMPDEST SWAP1 POP PUSH1 0x20 DUP2 ADD SWAP1 POP SWAP2 SWAP1 POP JUMP JUMPDEST PUSH1 0x0 DUP2 MLOAD SWAP1 POP SWAP2 SWAP1 POP JUMP JUMPDEST PUSH1 0x0 DUP3 DUP3 MSTORE PUSH1 0x20 DUP3 ADD SWAP1 POP SWAP3 SWAP2 POP POP JUMP JUMPDEST PUSH1 0x0 DUP3 DUP3 MSTORE PUSH1 0x20 DUP3 ADD SWAP1 POP SWAP3 SWAP2 POP POP JUMP JUMPDEST PUSH1 0x0 DUP2 ISZERO ISZERO SWAP1 POP SWAP2 SWAP1 POP JUMP JUMPDEST DUP3 DUP2 DUP4 CALLDATACOPY PUSH1 0x0 DUP4 DUP4 ADD MSTORE POP POP POP JUMP JUMPDEST PUSH1 0x0 JUMPDEST DUP4 DUP2 LT ISZERO PUSH2 0xFC1 JUMPI DUP1 DUP3 ADD MLOAD DUP2 DUP5 ADD MSTORE PUSH1 0x20 DUP2 ADD SWAP1 POP PUSH2 0xFA6 JUMP JUMPDEST DUP4 DUP2 GT ISZERO PUSH2 0xFD0 JUMPI PUSH1 0x0 DUP5 DUP5 ADD MSTORE JUMPDEST POP POP POP POP JUMP JUMPDEST PUSH1 0x0 PUSH1 0x2 DUP3 DIV SWAP1 POP PUSH1 0x1 DUP3 AND DUP1 PUSH2 0xFEE JUMPI PUSH1 0x7F DUP3 AND SWAP2 POP JUMPDEST PUSH1 0x20 DUP3 LT DUP2 EQ ISZERO PUSH2 0x1002 JUMPI PUSH2 0x1001 PUSH2 0x1039 JUMP JUMPDEST JUMPDEST POP SWAP2 SWAP1 POP JUMP JUMPDEST PUSH2 0x1011 DUP3 PUSH2 0x10AB JUMP JUMPDEST DUP2 ADD DUP2 DUP2 LT PUSH8 0xFFFFFFFFFFFFFFFF DUP3 GT OR ISZERO PUSH2 0x1030 JUMPI PUSH2 0x102F PUSH2 0x1068 JUMP JUMPDEST JUMPDEST DUP1 PUSH1 0x40 MSTORE POP POP POP JUMP JUMPDEST PUSH32 0x4E487B7100000000000000000000000000000000000000000000000000000000 PUSH1 0x0 MSTORE PUSH1 0x22 PUSH1 0x4 MSTORE PUSH1 0x24 PUSH1 0x0 REVERT JUMPDEST PUSH32 0x4E487B7100000000000000000000000000000000000000000000000000000000 PUSH1 0x0 MSTORE PUSH1 0x41 PUSH1 0x4 MSTORE PUSH1 0x24 PUSH1 0x0 REVERT JUMPDEST PUSH1 0x0 DUP1 REVERT JUMPDEST PUSH1 0x0 DUP1 REVERT JUMPDEST PUSH1 0x0 DUP1 REVERT JUMPDEST PUSH1 0x0 DUP1 REVERT JUMPDEST PUSH1 0x0 PUSH1 0x1F NOT PUSH1 0x1F DUP4 ADD AND SWAP1 POP SWAP2 SWAP1 POP JUMP INVALID LOG2 PUSH5 0x6970667358 0x22 SLT KECCAK256 DUP14 GAS 0xCF 0xA6 0x2B PUSH26 0x839739A583516A446848AEBDEE3E52D18F4F73B84332054B4AAD PUSH5 0x736F6C6343 STOP ADDMOD MOD STOP CALLER "
				},
				"gasEstimates": {
					"creation": {
						"codeDepositCost": "867600",
						"executionCost": "infinite",
						"totalCost": "infinite"
					},
					"external": {
						"getData()": "infinite",
						"getInvestigator()": "infinite",
						"getPictureID()": "infinite",
						"investigationStarted()": "24455",
						"markAsFound()": "24549",
						"setInvestigator(string,string,string,string)": "infinite"
					}
				},
				"methodIdentifiers": {
					"getData()": "3bc5de30",
					"getInvestigator()": "47f450b0",
					"getPictureID()": "30884b68",
					"investigationStarted()": "4a2bfdc7",
					"markAsFound()": "dc4ade84",
					"setInvestigator(string,string,string,string)": "86444b43"
				}
			},
			"storageLayout": {
				"storage": [
					{
						"astId": 74,
						"contract": "ethereum/contracts/loss_report.sol:LossReport",
						"label": "pid",
						"offset": 0,
						"slot": "0",
						"type": "t_string_storage"
					},
					{
						"astId": 76,
						"contract": "ethereum/contracts/loss_report.sol:LossReport",
						"label": "name",
						"offset": 0,
						"slot": "1",
						"type": "t_string_storage"
					},
					{
						"astId": 78,
						"contract": "ethereum/contracts/loss_report.sol:LossReport",
						"label": "cid",
						"offset": 0,
						"slot": "2",
						"type": "t_string_storage"
					},
					{
						"astId": 80,
						"contract": "ethereum/contracts/loss_report.sol:LossReport",
						"label": "phoneNumber",
						"offset": 0,
						"slot": "3",
						"type": "t_string_storage"
					},
					{
						"astId": 82,
						"contract": "ethereum/contracts/loss_report.sol:LossReport",
						"label": "emailAddress",
						"offset": 0,
						"slot": "4",
						"type": "t_string_storage"
					},
					{
						"astId": 84,
						"contract": "ethereum/contracts/loss_report.sol:LossReport",
						"label": "propertyType",
						"offset": 0,
						"slot": "5",
						"type": "t_string_storage"
					},
					{
						"astId": 86,
						"contract": "ethereum/contracts/loss_report.sol:LossReport",
						"label": "propertyDescription",
						"offset": 0,
						"slot": "6",
						"type": "t_string_storage"
					},
					{
						"astId": 88,
						"contract": "ethereum/contracts/loss_report.sol:LossReport",
						"label": "dateOfLoss",
						"offset": 0,
						"slot": "7",
						"type": "t_string_storage"
					},
					{
						"astId": 90,
						"contract": "ethereum/contracts/loss_report.sol:LossReport",
						"label": "timeOfLoss",
						"offset": 0,
						"slot": "8",
						"type": "t_string_storage"
					},
					{
						"astId": 92,
						"contract": "ethereum/contracts/loss_report.sol:LossReport",
						"label": "locationOfLoss",
						"offset": 0,
						"slot": "9",
						"type": "t_string_storage"
					},
					{
						"astId": 94,
						"contract": "ethereum/contracts/loss_report.sol:LossReport",
						"label": "valueOfLoss",
						"offset": 0,
						"slot": "10",
						"type": "t_string_storage"
					},
					{
						"astId": 96,
						"contract": "ethereum/contracts/loss_report.sol:LossReport",
						"label": "isBeingInvestigated",
						"offset": 0,
						"slot": "11",
						"type": "t_bool"
					},
					{
						"astId": 98,
						"contract": "ethereum/contracts/loss_report.sol:LossReport",
						"label": "isFound",
						"offset": 1,
						"slot": "11",
						"type": "t_bool"
					},
					{
						"astId": 101,
						"contract": "ethereum/contracts/loss_report.sol:LossReport",
						"label": "investigator",
						"offset": 0,
						"slot": "12",
						"type": "t_struct(Investigator)72_storage"
					}
				],
				"types": {
					"t_bool": {
						"encoding": "inplace",
						"label": "bool",
						"numberOfBytes": "1"
					},
					"t_string_storage": {
						"encoding": "bytes",
						"label": "string",
						"numberOfBytes": "32"
					},
					"t_struct(Investigator)72_storage": {
						"encoding": "inplace",
						"label": "struct LossReport.Investigator",
						"members": [
							{
								"astId": 65,
								"contract": "ethereum/contracts/loss_report.sol:LossReport",
								"label": "name",
								"offset": 0,
								"slot": "0",
								"type": "t_string_storage"
							},
							{
								"astId": 67,
								"contract": "ethereum/contracts/loss_report.sol:LossReport",
								"label": "cid",
								"offset": 0,
								"slot": "1",
								"type": "t_string_storage"
							},
							{
								"astId": 69,
								"contract": "ethereum/contracts/loss_report.sol:LossReport",
								"label": "badgeNumber",
								"offset": 0,
								"slot": "2",
								"type": "t_string_storage"
							},
							{
								"astId": 71,
								"contract": "ethereum/contracts/loss_report.sol:LossReport",
								"label": "rank",
								"offset": 0,
								"slot": "3",
								"type": "t_string_storage"
							}
						],
						"numberOfBytes": "128"
					}
				}
			},
			"userdoc": {
				"kind": "user",
				"methods": {},
				"version": 1
			}
		}
	}
}