{
	"ethereum/contracts/criminal_records.sol": {
		"Criminal": {
			"abi": [
				{
					"inputs": [
						{
							"components": [
								{
									"internalType": "string",
									"name": "pictureCID",
									"type": "string"
								},
								{
									"internalType": "string",
									"name": "name",
									"type": "string"
								},
								{
									"internalType": "string",
									"name": "civilianID",
									"type": "string"
								},
								{
									"internalType": "uint256",
									"name": "age",
									"type": "uint256"
								},
								{
									"internalType": "uint256",
									"name": "height",
									"type": "uint256"
								},
								{
									"internalType": "string",
									"name": "mothersName",
									"type": "string"
								},
								{
									"internalType": "string",
									"name": "fathersName",
									"type": "string"
								},
								{
									"internalType": "string",
									"name": "dateOfBirth",
									"type": "string"
								},
								{
									"internalType": "string",
									"name": "skinTone",
									"type": "string"
								},
								{
									"internalType": "string",
									"name": "hairColor",
									"type": "string"
								},
								{
									"internalType": "string",
									"name": "facialHairColor",
									"type": "string"
								},
								{
									"internalType": "string",
									"name": "physique",
									"type": "string"
								},
								{
									"internalType": "string",
									"name": "eyeColor",
									"type": "string"
								},
								{
									"internalType": "string",
									"name": "identificationMark",
									"type": "string"
								},
								{
									"internalType": "string",
									"name": "religion",
									"type": "string"
								},
								{
									"internalType": "uint256",
									"name": "weight",
									"type": "uint256"
								},
								{
									"internalType": "string",
									"name": "nativeLanguage",
									"type": "string"
								},
								{
									"internalType": "string",
									"name": "citizenship",
									"type": "string"
								},
								{
									"internalType": "string",
									"name": "placeOfBirth",
									"type": "string"
								}
							],
							"internalType": "struct CriminalData",
							"name": "_criminalData",
							"type": "tuple"
						}
					],
					"stateMutability": "nonpayable",
					"type": "constructor"
				},
				{
					"inputs": [
						{
							"internalType": "string",
							"name": "trialNumber",
							"type": "string"
						},
						{
							"internalType": "string",
							"name": "date",
							"type": "string"
						},
						{
							"internalType": "string",
							"name": "crimeCommited",
							"type": "string"
						},
						{
							"internalType": "string",
							"name": "jail",
							"type": "string"
						},
						{
							"internalType": "string",
							"name": "location",
							"type": "string"
						}
					],
					"name": "addRecord",
					"outputs": [],
					"stateMutability": "nonpayable",
					"type": "function"
				},
				{
					"inputs": [],
					"name": "getData",
					"outputs": [
						{
							"components": [
								{
									"internalType": "string",
									"name": "pictureCID",
									"type": "string"
								},
								{
									"internalType": "string",
									"name": "name",
									"type": "string"
								},
								{
									"internalType": "string",
									"name": "civilianID",
									"type": "string"
								},
								{
									"internalType": "uint256",
									"name": "age",
									"type": "uint256"
								},
								{
									"internalType": "uint256",
									"name": "height",
									"type": "uint256"
								},
								{
									"internalType": "string",
									"name": "mothersName",
									"type": "string"
								},
								{
									"internalType": "string",
									"name": "fathersName",
									"type": "string"
								},
								{
									"internalType": "string",
									"name": "dateOfBirth",
									"type": "string"
								},
								{
									"internalType": "string",
									"name": "skinTone",
									"type": "string"
								},
								{
									"internalType": "string",
									"name": "hairColor",
									"type": "string"
								},
								{
									"internalType": "string",
									"name": "facialHairColor",
									"type": "string"
								},
								{
									"internalType": "string",
									"name": "physique",
									"type": "string"
								},
								{
									"internalType": "string",
									"name": "eyeColor",
									"type": "string"
								},
								{
									"internalType": "string",
									"name": "identificationMark",
									"type": "string"
								},
								{
									"internalType": "string",
									"name": "religion",
									"type": "string"
								},
								{
									"internalType": "uint256",
									"name": "weight",
									"type": "uint256"
								},
								{
									"internalType": "string",
									"name": "nativeLanguage",
									"type": "string"
								},
								{
									"internalType": "string",
									"name": "citizenship",
									"type": "string"
								},
								{
									"internalType": "string",
									"name": "placeOfBirth",
									"type": "string"
								}
							],
							"internalType": "struct CriminalData",
							"name": "",
							"type": "tuple"
						}
					],
					"stateMutability": "view",
					"type": "function"
				},
				{
					"inputs": [],
					"name": "getRecords",
					"outputs": [
						{
							"components": [
								{
									"internalType": "string",
									"name": "trialNumber",
									"type": "string"
								},
								{
									"internalType": "string",
									"name": "date",
									"type": "string"
								},
								{
									"internalType": "string",
									"name": "crimeCommited",
									"type": "string"
								},
								{
									"internalType": "string",
									"name": "jail",
									"type": "string"
								},
								{
									"internalType": "string",
									"name": "location",
									"type": "string"
								}
							],
							"internalType": "struct Criminal.CriminalRecord[]",
							"name": "",
							"type": "tuple[]"
						}
					],
					"stateMutability": "view",
					"type": "function"
				}
			],
			"devdoc": {
				"kind": "dev",
				"methods": {},
				"version": 1
			},
			"evm": {
				"assembly": "    /* \"ethereum/contracts/criminal_records.sol\":987:2371  contract Criminal {\r... */\n  mstore(0x40, 0x80)\n    /* \"ethereum/contracts/criminal_records.sol\":1705:1799  constructor(CriminalData memory _criminalData) {\r... */\n  callvalue\n  dup1\n  iszero\n  tag_1\n  jumpi\n  0x00\n  dup1\n  revert\ntag_1:\n  pop\n  mload(0x40)\n  sub(codesize, bytecodeSize)\n  dup1\n  bytecodeSize\n  dup4\n  codecopy\n  dup2\n  dup2\n  add\n  0x40\n  mstore\n  dup2\n  add\n  swap1\n  tag_2\n  swap2\n  swap1\n  tag_3\n  jump\t// in\ntag_2:\n    /* \"ethereum/contracts/criminal_records.sol\":1778:1791  _criminalData */\n  dup1\n    /* \"ethereum/contracts/criminal_records.sol\":1763:1775  criminalData */\n  0x13\n    /* \"ethereum/contracts/criminal_records.sol\":1763:1791  criminalData = _criminalData */\n  0x00\n  dup3\n  add\n  mload\n  dup2\n  0x00\n  add\n  swap1\n  dup1\n  mload\n  swap1\n  0x20\n  add\n  swap1\n  tag_6\n  swap3\n  swap2\n  swap1\n  tag_7\n  jump\t// in\ntag_6:\n  pop\n  0x20\n  dup3\n  add\n  mload\n  dup2\n  0x01\n  add\n  swap1\n  dup1\n  mload\n  swap1\n  0x20\n  add\n  swap1\n  tag_8\n  swap3\n  swap2\n  swap1\n  tag_7\n  jump\t// in\ntag_8:\n  pop\n  0x40\n  dup3\n  add\n  mload\n  dup2\n  0x02\n  add\n  swap1\n  dup1\n  mload\n  swap1\n  0x20\n  add\n  swap1\n  tag_9\n  swap3\n  swap2\n  swap1\n  tag_7\n  jump\t// in\ntag_9:\n  pop\n  0x60\n  dup3\n  add\n  mload\n  dup2\n  0x03\n  add\n  sstore\n  0x80\n  dup3\n  add\n  mload\n  dup2\n  0x04\n  add\n  sstore\n  0xa0\n  dup3\n  add\n  mload\n  dup2\n  0x05\n  add\n  swap1\n  dup1\n  mload\n  swap1\n  0x20\n  add\n  swap1\n  tag_10\n  swap3\n  swap2\n  swap1\n  tag_7\n  jump\t// in\ntag_10:\n  pop\n  0xc0\n  dup3\n  add\n  mload\n  dup2\n  0x06\n  add\n  swap1\n  dup1\n  mload\n  swap1\n  0x20\n  add\n  swap1\n  tag_11\n  swap3\n  swap2\n  swap1\n  tag_7\n  jump\t// in\ntag_11:\n  pop\n  0xe0\n  dup3\n  add\n  mload\n  dup2\n  0x07\n  add\n  swap1\n  dup1\n  mload\n  swap1\n  0x20\n  add\n  swap1\n  tag_12\n  swap3\n  swap2\n  swap1\n  tag_7\n  jump\t// in\ntag_12:\n  pop\n  0x0100\n  dup3\n  add\n  mload\n  dup2\n  0x08\n  add\n  swap1\n  dup1\n  mload\n  swap1\n  0x20\n  add\n  swap1\n  tag_13\n  swap3\n  swap2\n  swap1\n  tag_7\n  jump\t// in\ntag_13:\n  pop\n  0x0120\n  dup3\n  add\n  mload\n  dup2\n  0x09\n  add\n  swap1\n  dup1\n  mload\n  swap1\n  0x20\n  add\n  swap1\n  tag_14\n  swap3\n  swap2\n  swap1\n  tag_7\n  jump\t// in\ntag_14:\n  pop\n  0x0140\n  dup3\n  add\n  mload\n  dup2\n  0x0a\n  add\n  swap1\n  dup1\n  mload\n  swap1\n  0x20\n  add\n  swap1\n  tag_15\n  swap3\n  swap2\n  swap1\n  tag_7\n  jump\t// in\ntag_15:\n  pop\n  0x0160\n  dup3\n  add\n  mload\n  dup2\n  0x0b\n  add\n  swap1\n  dup1\n  mload\n  swap1\n  0x20\n  add\n  swap1\n  tag_16\n  swap3\n  swap2\n  swap1\n  tag_7\n  jump\t// in\ntag_16:\n  pop\n  0x0180\n  dup3\n  add\n  mload\n  dup2\n  0x0c\n  add\n  swap1\n  dup1\n  mload\n  swap1\n  0x20\n  add\n  swap1\n  tag_17\n  swap3\n  swap2\n  swap1\n  tag_7\n  jump\t// in\ntag_17:\n  pop\n  0x01a0\n  dup3\n  add\n  mload\n  dup2\n  0x0d\n  add\n  swap1\n  dup1\n  mload\n  swap1\n  0x20\n  add\n  swap1\n  tag_18\n  swap3\n  swap2\n  swap1\n  tag_7\n  jump\t// in\ntag_18:\n  pop\n  0x01c0\n  dup3\n  add\n  mload\n  dup2\n  0x0e\n  add\n  swap1\n  dup1\n  mload\n  swap1\n  0x20\n  add\n  swap1\n  tag_19\n  swap3\n  swap2\n  swap1\n  tag_7\n  jump\t// in\ntag_19:\n  pop\n  0x01e0\n  dup3\n  add\n  mload\n  dup2\n  0x0f\n  add\n  sstore\n  0x0200\n  dup3\n  add\n  mload\n  dup2\n  0x10\n  add\n  swap1\n  dup1\n  mload\n  swap1\n  0x20\n  add\n  swap1\n  tag_20\n  swap3\n  swap2\n  swap1\n  tag_7\n  jump\t// in\ntag_20:\n  pop\n  0x0220\n  dup3\n  add\n  mload\n  dup2\n  0x11\n  add\n  swap1\n  dup1\n  mload\n  swap1\n  0x20\n  add\n  swap1\n  tag_21\n  swap3\n  swap2\n  swap1\n  tag_7\n  jump\t// in\ntag_21:\n  pop\n  0x0240\n  dup3\n  add\n  mload\n  dup2\n  0x12\n  add\n  swap1\n  dup1\n  mload\n  swap1\n  0x20\n  add\n  swap1\n  tag_22\n  swap3\n  swap2\n  swap1\n  tag_7\n  jump\t// in\ntag_22:\n  pop\n  swap1\n  pop\n  pop\n    /* \"ethereum/contracts/criminal_records.sol\":1705:1799  constructor(CriminalData memory _criminalData) {\r... */\n  pop\n    /* \"ethereum/contracts/criminal_records.sol\":987:2371  contract Criminal {\r... */\n  jump(tag_23)\ntag_7:\n  dup3\n  dup1\n  sload\n  tag_24\n  swap1\n  tag_25\n  jump\t// in\ntag_24:\n  swap1\n  0x00\n  mstore\n  keccak256(0x00, 0x20)\n  swap1\n  0x1f\n  add\n  0x20\n  swap1\n  div\n  dup2\n  add\n  swap3\n  dup3\n  tag_27\n  jumpi\n  0x00\n  dup6\n  sstore\n  jump(tag_26)\ntag_27:\n  dup3\n  0x1f\n  lt\n  tag_28\n  jumpi\n  dup1\n  mload\n  not(0xff)\n  and\n  dup4\n  dup1\n  add\n  or\n  dup6\n  sstore\n  jump(tag_26)\ntag_28:\n  dup3\n  dup1\n  add\n  0x01\n  add\n  dup6\n  sstore\n  dup3\n  iszero\n  tag_26\n  jumpi\n  swap2\n  dup3\n  add\ntag_29:\n  dup3\n  dup2\n  gt\n  iszero\n  tag_30\n  jumpi\n  dup3\n  mload\n  dup3\n  sstore\n  swap2\n  0x20\n  add\n  swap2\n  swap1\n  0x01\n  add\n  swap1\n  jump(tag_29)\ntag_30:\ntag_26:\n  pop\n  swap1\n  pop\n  tag_31\n  swap2\n  swap1\n  tag_32\n  jump\t// in\ntag_31:\n  pop\n  swap1\n  jump\t// out\ntag_32:\ntag_33:\n  dup1\n  dup3\n  gt\n  iszero\n  tag_34\n  jumpi\n  0x00\n  dup2\n  0x00\n  swap1\n  sstore\n  pop\n  0x01\n  add\n  jump(tag_33)\ntag_34:\n  pop\n  swap1\n  jump\t// out\n    /* \"#utility.yul\":7:428   */\ntag_36:\n    /* \"#utility.yul\":96:101   */\n  0x00\n    /* \"#utility.yul\":121:187   */\n  tag_38\n    /* \"#utility.yul\":137:186   */\n  tag_39\n    /* \"#utility.yul\":179:185   */\n  dup5\n    /* \"#utility.yul\":137:186   */\n  tag_40\n  jump\t// in\ntag_39:\n    /* \"#utility.yul\":121:187   */\n  tag_41\n  jump\t// in\ntag_38:\n    /* \"#utility.yul\":112:187   */\n  swap1\n  pop\n    /* \"#utility.yul\":210:216   */\n  dup3\n    /* \"#utility.yul\":203:208   */\n  dup2\n    /* \"#utility.yul\":196:217   */\n  mstore\n    /* \"#utility.yul\":248:252   */\n  0x20\n    /* \"#utility.yul\":241:246   */\n  dup2\n    /* \"#utility.yul\":237:253   */\n  add\n    /* \"#utility.yul\":286:289   */\n  dup5\n    /* \"#utility.yul\":277:283   */\n  dup5\n    /* \"#utility.yul\":272:275   */\n  dup5\n    /* \"#utility.yul\":268:284   */\n  add\n    /* \"#utility.yul\":265:290   */\n  gt\n    /* \"#utility.yul\":262:264   */\n  iszero\n  tag_42\n  jumpi\n    /* \"#utility.yul\":293:372   */\n  tag_43\n  tag_44\n  jump\t// in\ntag_43:\n    /* \"#utility.yul\":262:264   */\ntag_42:\n    /* \"#utility.yul\":383:422   */\n  tag_45\n    /* \"#utility.yul\":415:421   */\n  dup5\n    /* \"#utility.yul\":410:413   */\n  dup3\n    /* \"#utility.yul\":405:408   */\n  dup6\n    /* \"#utility.yul\":383:422   */\n  tag_46\n  jump\t// in\ntag_45:\n    /* \"#utility.yul\":102:428   */\n  pop\n  swap4\n  swap3\n  pop\n  pop\n  pop\n  jump\t// out\n    /* \"#utility.yul\":448:803   */\ntag_47:\n    /* \"#utility.yul\":515:520   */\n  0x00\n    /* \"#utility.yul\":564:567   */\n  dup3\n    /* \"#utility.yul\":557:561   */\n  0x1f\n    /* \"#utility.yul\":549:555   */\n  dup4\n    /* \"#utility.yul\":545:562   */\n  add\n    /* \"#utility.yul\":541:568   */\n  slt\n    /* \"#utility.yul\":531:533   */\n  tag_49\n  jumpi\n    /* \"#utility.yul\":572:651   */\n  tag_50\n  tag_51\n  jump\t// in\ntag_50:\n    /* \"#utility.yul\":531:533   */\ntag_49:\n    /* \"#utility.yul\":682:688   */\n  dup2\n    /* \"#utility.yul\":676:689   */\n  mload\n    /* \"#utility.yul\":707:797   */\n  tag_52\n    /* \"#utility.yul\":793:796   */\n  dup5\n    /* \"#utility.yul\":785:791   */\n  dup3\n    /* \"#utility.yul\":778:782   */\n  0x20\n    /* \"#utility.yul\":770:776   */\n  dup7\n    /* \"#utility.yul\":766:783   */\n  add\n    /* \"#utility.yul\":707:797   */\n  tag_36\n  jump\t// in\ntag_52:\n    /* \"#utility.yul\":698:797   */\n  swap2\n  pop\n    /* \"#utility.yul\":521:803   */\n  pop\n  swap3\n  swap2\n  pop\n  pop\n  jump\t// out\n    /* \"#utility.yul\":836:7126   */\ntag_53:\n    /* \"#utility.yul\":924:929   */\n  0x00\n    /* \"#utility.yul\":968:974   */\n  0x0260\n    /* \"#utility.yul\":956:965   */\n  dup3\n    /* \"#utility.yul\":951:954   */\n  dup5\n    /* \"#utility.yul\":947:966   */\n  sub\n    /* \"#utility.yul\":943:975   */\n  slt\n    /* \"#utility.yul\":940:942   */\n  iszero\n  tag_55\n  jumpi\n    /* \"#utility.yul\":978:1057   */\n  tag_56\n  tag_57\n  jump\t// in\ntag_56:\n    /* \"#utility.yul\":940:942   */\ntag_55:\n    /* \"#utility.yul\":1077:1100   */\n  tag_58\n    /* \"#utility.yul\":1093:1099   */\n  0x0260\n    /* \"#utility.yul\":1077:1100   */\n  tag_41\n  jump\t// in\ntag_58:\n    /* \"#utility.yul\":1068:1100   */\n  swap1\n  pop\n    /* \"#utility.yul\":1186:1187   */\n  0x00\n    /* \"#utility.yul\":1175:1184   */\n  dup3\n    /* \"#utility.yul\":1171:1188   */\n  add\n    /* \"#utility.yul\":1165:1189   */\n  mload\n    /* \"#utility.yul\":1216:1234   */\n  0xffffffffffffffff\n    /* \"#utility.yul\":1208:1214   */\n  dup2\n    /* \"#utility.yul\":1205:1235   */\n  gt\n    /* \"#utility.yul\":1202:1204   */\n  iszero\n  tag_59\n  jumpi\n    /* \"#utility.yul\":1238:1317   */\n  tag_60\n  tag_61\n  jump\t// in\ntag_60:\n    /* \"#utility.yul\":1202:1204   */\ntag_59:\n    /* \"#utility.yul\":1358:1428   */\n  tag_62\n    /* \"#utility.yul\":1424:1427   */\n  dup5\n    /* \"#utility.yul\":1415:1421   */\n  dup3\n    /* \"#utility.yul\":1404:1413   */\n  dup6\n    /* \"#utility.yul\":1400:1422   */\n  add\n    /* \"#utility.yul\":1358:1428   */\n  tag_47\n  jump\t// in\ntag_62:\n    /* \"#utility.yul\":1351:1355   */\n  0x00\n    /* \"#utility.yul\":1344:1349   */\n  dup4\n    /* \"#utility.yul\":1340:1356   */\n  add\n    /* \"#utility.yul\":1333:1429   */\n  mstore\n    /* \"#utility.yul\":1110:1440   */\n  pop\n    /* \"#utility.yul\":1520:1522   */\n  0x20\n    /* \"#utility.yul\":1509:1518   */\n  dup3\n    /* \"#utility.yul\":1505:1523   */\n  add\n    /* \"#utility.yul\":1499:1524   */\n  mload\n    /* \"#utility.yul\":1551:1569   */\n  0xffffffffffffffff\n    /* \"#utility.yul\":1543:1549   */\n  dup2\n    /* \"#utility.yul\":1540:1570   */\n  gt\n    /* \"#utility.yul\":1537:1539   */\n  iszero\n  tag_63\n  jumpi\n    /* \"#utility.yul\":1573:1652   */\n  tag_64\n  tag_61\n  jump\t// in\ntag_64:\n    /* \"#utility.yul\":1537:1539   */\ntag_63:\n    /* \"#utility.yul\":1693:1763   */\n  tag_65\n    /* \"#utility.yul\":1759:1762   */\n  dup5\n    /* \"#utility.yul\":1750:1756   */\n  dup3\n    /* \"#utility.yul\":1739:1748   */\n  dup6\n    /* \"#utility.yul\":1735:1757   */\n  add\n    /* \"#utility.yul\":1693:1763   */\n  tag_47\n  jump\t// in\ntag_65:\n    /* \"#utility.yul\":1686:1690   */\n  0x20\n    /* \"#utility.yul\":1679:1684   */\n  dup4\n    /* \"#utility.yul\":1675:1691   */\n  add\n    /* \"#utility.yul\":1668:1764   */\n  mstore\n    /* \"#utility.yul\":1450:1775   */\n  pop\n    /* \"#utility.yul\":1861:1863   */\n  0x40\n    /* \"#utility.yul\":1850:1859   */\n  dup3\n    /* \"#utility.yul\":1846:1864   */\n  add\n    /* \"#utility.yul\":1840:1865   */\n  mload\n    /* \"#utility.yul\":1892:1910   */\n  0xffffffffffffffff\n    /* \"#utility.yul\":1884:1890   */\n  dup2\n    /* \"#utility.yul\":1881:1911   */\n  gt\n    /* \"#utility.yul\":1878:1880   */\n  iszero\n  tag_66\n  jumpi\n    /* \"#utility.yul\":1914:1993   */\n  tag_67\n  tag_61\n  jump\t// in\ntag_67:\n    /* \"#utility.yul\":1878:1880   */\ntag_66:\n    /* \"#utility.yul\":2034:2104   */\n  tag_68\n    /* \"#utility.yul\":2100:2103   */\n  dup5\n    /* \"#utility.yul\":2091:2097   */\n  dup3\n    /* \"#utility.yul\":2080:2089   */\n  dup6\n    /* \"#utility.yul\":2076:2098   */\n  add\n    /* \"#utility.yul\":2034:2104   */\n  tag_47\n  jump\t// in\ntag_68:\n    /* \"#utility.yul\":2027:2031   */\n  0x40\n    /* \"#utility.yul\":2020:2025   */\n  dup4\n    /* \"#utility.yul\":2016:2032   */\n  add\n    /* \"#utility.yul\":2009:2105   */\n  mstore\n    /* \"#utility.yul\":1785:2116   */\n  pop\n    /* \"#utility.yul\":2174:2176   */\n  0x60\n    /* \"#utility.yul\":2215:2275   */\n  tag_69\n    /* \"#utility.yul\":2271:2274   */\n  dup5\n    /* \"#utility.yul\":2262:2268   */\n  dup3\n    /* \"#utility.yul\":2251:2260   */\n  dup6\n    /* \"#utility.yul\":2247:2269   */\n  add\n    /* \"#utility.yul\":2215:2275   */\n  tag_70\n  jump\t// in\ntag_69:\n    /* \"#utility.yul\":2208:2212   */\n  0x60\n    /* \"#utility.yul\":2201:2206   */\n  dup4\n    /* \"#utility.yul\":2197:2213   */\n  add\n    /* \"#utility.yul\":2190:2276   */\n  mstore\n    /* \"#utility.yul\":2126:2287   */\n  pop\n    /* \"#utility.yul\":2348:2351   */\n  0x80\n    /* \"#utility.yul\":2390:2450   */\n  tag_71\n    /* \"#utility.yul\":2446:2449   */\n  dup5\n    /* \"#utility.yul\":2437:2443   */\n  dup3\n    /* \"#utility.yul\":2426:2435   */\n  dup6\n    /* \"#utility.yul\":2422:2444   */\n  add\n    /* \"#utility.yul\":2390:2450   */\n  tag_70\n  jump\t// in\ntag_71:\n    /* \"#utility.yul\":2383:2387   */\n  0x80\n    /* \"#utility.yul\":2376:2381   */\n  dup4\n    /* \"#utility.yul\":2372:2388   */\n  add\n    /* \"#utility.yul\":2365:2451   */\n  mstore\n    /* \"#utility.yul\":2297:2462   */\n  pop\n    /* \"#utility.yul\":2549:2552   */\n  0xa0\n    /* \"#utility.yul\":2538:2547   */\n  dup3\n    /* \"#utility.yul\":2534:2553   */\n  add\n    /* \"#utility.yul\":2528:2554   */\n  mload\n    /* \"#utility.yul\":2581:2599   */\n  0xffffffffffffffff\n    /* \"#utility.yul\":2573:2579   */\n  dup2\n    /* \"#utility.yul\":2570:2600   */\n  gt\n    /* \"#utility.yul\":2567:2569   */\n  iszero\n  tag_72\n  jumpi\n    /* \"#utility.yul\":2603:2682   */\n  tag_73\n  tag_61\n  jump\t// in\ntag_73:\n    /* \"#utility.yul\":2567:2569   */\ntag_72:\n    /* \"#utility.yul\":2723:2793   */\n  tag_74\n    /* \"#utility.yul\":2789:2792   */\n  dup5\n    /* \"#utility.yul\":2780:2786   */\n  dup3\n    /* \"#utility.yul\":2769:2778   */\n  dup6\n    /* \"#utility.yul\":2765:2787   */\n  add\n    /* \"#utility.yul\":2723:2793   */\n  tag_47\n  jump\t// in\ntag_74:\n    /* \"#utility.yul\":2716:2720   */\n  0xa0\n    /* \"#utility.yul\":2709:2714   */\n  dup4\n    /* \"#utility.yul\":2705:2721   */\n  add\n    /* \"#utility.yul\":2698:2794   */\n  mstore\n    /* \"#utility.yul\":2472:2805   */\n  pop\n    /* \"#utility.yul\":2892:2895   */\n  0xc0\n    /* \"#utility.yul\":2881:2890   */\n  dup3\n    /* \"#utility.yul\":2877:2896   */\n  add\n    /* \"#utility.yul\":2871:2897   */\n  mload\n    /* \"#utility.yul\":2924:2942   */\n  0xffffffffffffffff\n    /* \"#utility.yul\":2916:2922   */\n  dup2\n    /* \"#utility.yul\":2913:2943   */\n  gt\n    /* \"#utility.yul\":2910:2912   */\n  iszero\n  tag_75\n  jumpi\n    /* \"#utility.yul\":2946:3025   */\n  tag_76\n  tag_61\n  jump\t// in\ntag_76:\n    /* \"#utility.yul\":2910:2912   */\ntag_75:\n    /* \"#utility.yul\":3066:3136   */\n  tag_77\n    /* \"#utility.yul\":3132:3135   */\n  dup5\n    /* \"#utility.yul\":3123:3129   */\n  dup3\n    /* \"#utility.yul\":3112:3121   */\n  dup6\n    /* \"#utility.yul\":3108:3130   */\n  add\n    /* \"#utility.yul\":3066:3136   */\n  tag_47\n  jump\t// in\ntag_77:\n    /* \"#utility.yul\":3059:3063   */\n  0xc0\n    /* \"#utility.yul\":3052:3057   */\n  dup4\n    /* \"#utility.yul\":3048:3064   */\n  add\n    /* \"#utility.yul\":3041:3137   */\n  mstore\n    /* \"#utility.yul\":2815:3148   */\n  pop\n    /* \"#utility.yul\":3235:3238   */\n  0xe0\n    /* \"#utility.yul\":3224:3233   */\n  dup3\n    /* \"#utility.yul\":3220:3239   */\n  add\n    /* \"#utility.yul\":3214:3240   */\n  mload\n    /* \"#utility.yul\":3267:3285   */\n  0xffffffffffffffff\n    /* \"#utility.yul\":3259:3265   */\n  dup2\n    /* \"#utility.yul\":3256:3286   */\n  gt\n    /* \"#utility.yul\":3253:3255   */\n  iszero\n  tag_78\n  jumpi\n    /* \"#utility.yul\":3289:3368   */\n  tag_79\n  tag_61\n  jump\t// in\ntag_79:\n    /* \"#utility.yul\":3253:3255   */\ntag_78:\n    /* \"#utility.yul\":3409:3479   */\n  tag_80\n    /* \"#utility.yul\":3475:3478   */\n  dup5\n    /* \"#utility.yul\":3466:3472   */\n  dup3\n    /* \"#utility.yul\":3455:3464   */\n  dup6\n    /* \"#utility.yul\":3451:3473   */\n  add\n    /* \"#utility.yul\":3409:3479   */\n  tag_47\n  jump\t// in\ntag_80:\n    /* \"#utility.yul\":3402:3406   */\n  0xe0\n    /* \"#utility.yul\":3395:3400   */\n  dup4\n    /* \"#utility.yul\":3391:3407   */\n  add\n    /* \"#utility.yul\":3384:3480   */\n  mstore\n    /* \"#utility.yul\":3158:3491   */\n  pop\n    /* \"#utility.yul\":3575:3578   */\n  0x0100\n    /* \"#utility.yul\":3564:3573   */\n  dup3\n    /* \"#utility.yul\":3560:3579   */\n  add\n    /* \"#utility.yul\":3554:3580   */\n  mload\n    /* \"#utility.yul\":3607:3625   */\n  0xffffffffffffffff\n    /* \"#utility.yul\":3599:3605   */\n  dup2\n    /* \"#utility.yul\":3596:3626   */\n  gt\n    /* \"#utility.yul\":3593:3595   */\n  iszero\n  tag_81\n  jumpi\n    /* \"#utility.yul\":3629:3708   */\n  tag_82\n  tag_61\n  jump\t// in\ntag_82:\n    /* \"#utility.yul\":3593:3595   */\ntag_81:\n    /* \"#utility.yul\":3751:3821   */\n  tag_83\n    /* \"#utility.yul\":3817:3820   */\n  dup5\n    /* \"#utility.yul\":3808:3814   */\n  dup3\n    /* \"#utility.yul\":3797:3806   */\n  dup6\n    /* \"#utility.yul\":3793:3815   */\n  add\n    /* \"#utility.yul\":3751:3821   */\n  tag_47\n  jump\t// in\ntag_83:\n    /* \"#utility.yul\":3742:3748   */\n  0x0100\n    /* \"#utility.yul\":3735:3740   */\n  dup4\n    /* \"#utility.yul\":3731:3749   */\n  add\n    /* \"#utility.yul\":3724:3822   */\n  mstore\n    /* \"#utility.yul\":3501:3833   */\n  pop\n    /* \"#utility.yul\":3918:3921   */\n  0x0120\n    /* \"#utility.yul\":3907:3916   */\n  dup3\n    /* \"#utility.yul\":3903:3922   */\n  add\n    /* \"#utility.yul\":3897:3923   */\n  mload\n    /* \"#utility.yul\":3950:3968   */\n  0xffffffffffffffff\n    /* \"#utility.yul\":3942:3948   */\n  dup2\n    /* \"#utility.yul\":3939:3969   */\n  gt\n    /* \"#utility.yul\":3936:3938   */\n  iszero\n  tag_84\n  jumpi\n    /* \"#utility.yul\":3972:4051   */\n  tag_85\n  tag_61\n  jump\t// in\ntag_85:\n    /* \"#utility.yul\":3936:3938   */\ntag_84:\n    /* \"#utility.yul\":4094:4164   */\n  tag_86\n    /* \"#utility.yul\":4160:4163   */\n  dup5\n    /* \"#utility.yul\":4151:4157   */\n  dup3\n    /* \"#utility.yul\":4140:4149   */\n  dup6\n    /* \"#utility.yul\":4136:4158   */\n  add\n    /* \"#utility.yul\":4094:4164   */\n  tag_47\n  jump\t// in\ntag_86:\n    /* \"#utility.yul\":4085:4091   */\n  0x0120\n    /* \"#utility.yul\":4078:4083   */\n  dup4\n    /* \"#utility.yul\":4074:4092   */\n  add\n    /* \"#utility.yul\":4067:4165   */\n  mstore\n    /* \"#utility.yul\":3843:4176   */\n  pop\n    /* \"#utility.yul\":4267:4270   */\n  0x0140\n    /* \"#utility.yul\":4256:4265   */\n  dup3\n    /* \"#utility.yul\":4252:4271   */\n  add\n    /* \"#utility.yul\":4246:4272   */\n  mload\n    /* \"#utility.yul\":4299:4317   */\n  0xffffffffffffffff\n    /* \"#utility.yul\":4291:4297   */\n  dup2\n    /* \"#utility.yul\":4288:4318   */\n  gt\n    /* \"#utility.yul\":4285:4287   */\n  iszero\n  tag_87\n  jumpi\n    /* \"#utility.yul\":4321:4400   */\n  tag_88\n  tag_61\n  jump\t// in\ntag_88:\n    /* \"#utility.yul\":4285:4287   */\ntag_87:\n    /* \"#utility.yul\":4443:4513   */\n  tag_89\n    /* \"#utility.yul\":4509:4512   */\n  dup5\n    /* \"#utility.yul\":4500:4506   */\n  dup3\n    /* \"#utility.yul\":4489:4498   */\n  dup6\n    /* \"#utility.yul\":4485:4507   */\n  add\n    /* \"#utility.yul\":4443:4513   */\n  tag_47\n  jump\t// in\ntag_89:\n    /* \"#utility.yul\":4434:4440   */\n  0x0140\n    /* \"#utility.yul\":4427:4432   */\n  dup4\n    /* \"#utility.yul\":4423:4441   */\n  add\n    /* \"#utility.yul\":4416:4514   */\n  mstore\n    /* \"#utility.yul\":4186:4525   */\n  pop\n    /* \"#utility.yul\":4609:4612   */\n  0x0160\n    /* \"#utility.yul\":4598:4607   */\n  dup3\n    /* \"#utility.yul\":4594:4613   */\n  add\n    /* \"#utility.yul\":4588:4614   */\n  mload\n    /* \"#utility.yul\":4641:4659   */\n  0xffffffffffffffff\n    /* \"#utility.yul\":4633:4639   */\n  dup2\n    /* \"#utility.yul\":4630:4660   */\n  gt\n    /* \"#utility.yul\":4627:4629   */\n  iszero\n  tag_90\n  jumpi\n    /* \"#utility.yul\":4663:4742   */\n  tag_91\n  tag_61\n  jump\t// in\ntag_91:\n    /* \"#utility.yul\":4627:4629   */\ntag_90:\n    /* \"#utility.yul\":4785:4855   */\n  tag_92\n    /* \"#utility.yul\":4851:4854   */\n  dup5\n    /* \"#utility.yul\":4842:4848   */\n  dup3\n    /* \"#utility.yul\":4831:4840   */\n  dup6\n    /* \"#utility.yul\":4827:4849   */\n  add\n    /* \"#utility.yul\":4785:4855   */\n  tag_47\n  jump\t// in\ntag_92:\n    /* \"#utility.yul\":4776:4782   */\n  0x0160\n    /* \"#utility.yul\":4769:4774   */\n  dup4\n    /* \"#utility.yul\":4765:4783   */\n  add\n    /* \"#utility.yul\":4758:4856   */\n  mstore\n    /* \"#utility.yul\":4535:4867   */\n  pop\n    /* \"#utility.yul\":4951:4954   */\n  0x0180\n    /* \"#utility.yul\":4940:4949   */\n  dup3\n    /* \"#utility.yul\":4936:4955   */\n  add\n    /* \"#utility.yul\":4930:4956   */\n  mload\n    /* \"#utility.yul\":4983:5001   */\n  0xffffffffffffffff\n    /* \"#utility.yul\":4975:4981   */\n  dup2\n    /* \"#utility.yul\":4972:5002   */\n  gt\n    /* \"#utility.yul\":4969:4971   */\n  iszero\n  tag_93\n  jumpi\n    /* \"#utility.yul\":5005:5084   */\n  tag_94\n  tag_61\n  jump\t// in\ntag_94:\n    /* \"#utility.yul\":4969:4971   */\ntag_93:\n    /* \"#utility.yul\":5127:5197   */\n  tag_95\n    /* \"#utility.yul\":5193:5196   */\n  dup5\n    /* \"#utility.yul\":5184:5190   */\n  dup3\n    /* \"#utility.yul\":5173:5182   */\n  dup6\n    /* \"#utility.yul\":5169:5191   */\n  add\n    /* \"#utility.yul\":5127:5197   */\n  tag_47\n  jump\t// in\ntag_95:\n    /* \"#utility.yul\":5118:5124   */\n  0x0180\n    /* \"#utility.yul\":5111:5116   */\n  dup4\n    /* \"#utility.yul\":5107:5125   */\n  add\n    /* \"#utility.yul\":5100:5198   */\n  mstore\n    /* \"#utility.yul\":4877:5209   */\n  pop\n    /* \"#utility.yul\":5303:5306   */\n  0x01a0\n    /* \"#utility.yul\":5292:5301   */\n  dup3\n    /* \"#utility.yul\":5288:5307   */\n  add\n    /* \"#utility.yul\":5282:5308   */\n  mload\n    /* \"#utility.yul\":5335:5353   */\n  0xffffffffffffffff\n    /* \"#utility.yul\":5327:5333   */\n  dup2\n    /* \"#utility.yul\":5324:5354   */\n  gt\n    /* \"#utility.yul\":5321:5323   */\n  iszero\n  tag_96\n  jumpi\n    /* \"#utility.yul\":5357:5436   */\n  tag_97\n  tag_61\n  jump\t// in\ntag_97:\n    /* \"#utility.yul\":5321:5323   */\ntag_96:\n    /* \"#utility.yul\":5479:5549   */\n  tag_98\n    /* \"#utility.yul\":5545:5548   */\n  dup5\n    /* \"#utility.yul\":5536:5542   */\n  dup3\n    /* \"#utility.yul\":5525:5534   */\n  dup6\n    /* \"#utility.yul\":5521:5543   */\n  add\n    /* \"#utility.yul\":5479:5549   */\n  tag_47\n  jump\t// in\ntag_98:\n    /* \"#utility.yul\":5470:5476   */\n  0x01a0\n    /* \"#utility.yul\":5463:5468   */\n  dup4\n    /* \"#utility.yul\":5459:5477   */\n  add\n    /* \"#utility.yul\":5452:5550   */\n  mstore\n    /* \"#utility.yul\":5219:5561   */\n  pop\n    /* \"#utility.yul\":5645:5648   */\n  0x01c0\n    /* \"#utility.yul\":5634:5643   */\n  dup3\n    /* \"#utility.yul\":5630:5649   */\n  add\n    /* \"#utility.yul\":5624:5650   */\n  mload\n    /* \"#utility.yul\":5677:5695   */\n  0xffffffffffffffff\n    /* \"#utility.yul\":5669:5675   */\n  dup2\n    /* \"#utility.yul\":5666:5696   */\n  gt\n    /* \"#utility.yul\":5663:5665   */\n  iszero\n  tag_99\n  jumpi\n    /* \"#utility.yul\":5699:5778   */\n  tag_100\n  tag_61\n  jump\t// in\ntag_100:\n    /* \"#utility.yul\":5663:5665   */\ntag_99:\n    /* \"#utility.yul\":5821:5891   */\n  tag_101\n    /* \"#utility.yul\":5887:5890   */\n  dup5\n    /* \"#utility.yul\":5878:5884   */\n  dup3\n    /* \"#utility.yul\":5867:5876   */\n  dup6\n    /* \"#utility.yul\":5863:5885   */\n  add\n    /* \"#utility.yul\":5821:5891   */\n  tag_47\n  jump\t// in\ntag_101:\n    /* \"#utility.yul\":5812:5818   */\n  0x01c0\n    /* \"#utility.yul\":5805:5810   */\n  dup4\n    /* \"#utility.yul\":5801:5819   */\n  add\n    /* \"#utility.yul\":5794:5892   */\n  mstore\n    /* \"#utility.yul\":5571:5903   */\n  pop\n    /* \"#utility.yul\":5964:5967   */\n  0x01e0\n    /* \"#utility.yul\":6008:6068   */\n  tag_102\n    /* \"#utility.yul\":6064:6067   */\n  dup5\n    /* \"#utility.yul\":6055:6061   */\n  dup3\n    /* \"#utility.yul\":6044:6053   */\n  dup6\n    /* \"#utility.yul\":6040:6062   */\n  add\n    /* \"#utility.yul\":6008:6068   */\n  tag_70\n  jump\t// in\ntag_102:\n    /* \"#utility.yul\":5999:6005   */\n  0x01e0\n    /* \"#utility.yul\":5992:5997   */\n  dup4\n    /* \"#utility.yul\":5988:6006   */\n  add\n    /* \"#utility.yul\":5981:6069   */\n  mstore\n    /* \"#utility.yul\":5913:6080   */\n  pop\n    /* \"#utility.yul\":6170:6173   */\n  0x0200\n    /* \"#utility.yul\":6159:6168   */\n  dup3\n    /* \"#utility.yul\":6155:6174   */\n  add\n    /* \"#utility.yul\":6149:6175   */\n  mload\n    /* \"#utility.yul\":6202:6220   */\n  0xffffffffffffffff\n    /* \"#utility.yul\":6194:6200   */\n  dup2\n    /* \"#utility.yul\":6191:6221   */\n  gt\n    /* \"#utility.yul\":6188:6190   */\n  iszero\n  tag_103\n  jumpi\n    /* \"#utility.yul\":6224:6303   */\n  tag_104\n  tag_61\n  jump\t// in\ntag_104:\n    /* \"#utility.yul\":6188:6190   */\ntag_103:\n    /* \"#utility.yul\":6346:6416   */\n  tag_105\n    /* \"#utility.yul\":6412:6415   */\n  dup5\n    /* \"#utility.yul\":6403:6409   */\n  dup3\n    /* \"#utility.yul\":6392:6401   */\n  dup6\n    /* \"#utility.yul\":6388:6410   */\n  add\n    /* \"#utility.yul\":6346:6416   */\n  tag_47\n  jump\t// in\ntag_105:\n    /* \"#utility.yul\":6337:6343   */\n  0x0200\n    /* \"#utility.yul\":6330:6335   */\n  dup4\n    /* \"#utility.yul\":6326:6344   */\n  add\n    /* \"#utility.yul\":6319:6417   */\n  mstore\n    /* \"#utility.yul\":6090:6428   */\n  pop\n    /* \"#utility.yul\":6515:6518   */\n  0x0220\n    /* \"#utility.yul\":6504:6513   */\n  dup3\n    /* \"#utility.yul\":6500:6519   */\n  add\n    /* \"#utility.yul\":6494:6520   */\n  mload\n    /* \"#utility.yul\":6547:6565   */\n  0xffffffffffffffff\n    /* \"#utility.yul\":6539:6545   */\n  dup2\n    /* \"#utility.yul\":6536:6566   */\n  gt\n    /* \"#utility.yul\":6533:6535   */\n  iszero\n  tag_106\n  jumpi\n    /* \"#utility.yul\":6569:6648   */\n  tag_107\n  tag_61\n  jump\t// in\ntag_107:\n    /* \"#utility.yul\":6533:6535   */\ntag_106:\n    /* \"#utility.yul\":6691:6761   */\n  tag_108\n    /* \"#utility.yul\":6757:6760   */\n  dup5\n    /* \"#utility.yul\":6748:6754   */\n  dup3\n    /* \"#utility.yul\":6737:6746   */\n  dup6\n    /* \"#utility.yul\":6733:6755   */\n  add\n    /* \"#utility.yul\":6691:6761   */\n  tag_47\n  jump\t// in\ntag_108:\n    /* \"#utility.yul\":6682:6688   */\n  0x0220\n    /* \"#utility.yul\":6675:6680   */\n  dup4\n    /* \"#utility.yul\":6671:6689   */\n  add\n    /* \"#utility.yul\":6664:6762   */\n  mstore\n    /* \"#utility.yul\":6438:6773   */\n  pop\n    /* \"#utility.yul\":6861:6864   */\n  0x0240\n    /* \"#utility.yul\":6850:6859   */\n  dup3\n    /* \"#utility.yul\":6846:6865   */\n  add\n    /* \"#utility.yul\":6840:6866   */\n  mload\n    /* \"#utility.yul\":6893:6911   */\n  0xffffffffffffffff\n    /* \"#utility.yul\":6885:6891   */\n  dup2\n    /* \"#utility.yul\":6882:6912   */\n  gt\n    /* \"#utility.yul\":6879:6881   */\n  iszero\n  tag_109\n  jumpi\n    /* \"#utility.yul\":6915:6994   */\n  tag_110\n  tag_61\n  jump\t// in\ntag_110:\n    /* \"#utility.yul\":6879:6881   */\ntag_109:\n    /* \"#utility.yul\":7037:7107   */\n  tag_111\n    /* \"#utility.yul\":7103:7106   */\n  dup5\n    /* \"#utility.yul\":7094:7100   */\n  dup3\n    /* \"#utility.yul\":7083:7092   */\n  dup6\n    /* \"#utility.yul\":7079:7101   */\n  add\n    /* \"#utility.yul\":7037:7107   */\n  tag_47\n  jump\t// in\ntag_111:\n    /* \"#utility.yul\":7028:7034   */\n  0x0240\n    /* \"#utility.yul\":7021:7026   */\n  dup4\n    /* \"#utility.yul\":7017:7035   */\n  add\n    /* \"#utility.yul\":7010:7108   */\n  mstore\n    /* \"#utility.yul\":6783:7119   */\n  pop\n    /* \"#utility.yul\":930:7126   */\n  swap3\n  swap2\n  pop\n  pop\n  jump\t// out\n    /* \"#utility.yul\":7132:7275   */\ntag_70:\n    /* \"#utility.yul\":7189:7194   */\n  0x00\n    /* \"#utility.yul\":7220:7226   */\n  dup2\n    /* \"#utility.yul\":7214:7227   */\n  mload\n    /* \"#utility.yul\":7205:7227   */\n  swap1\n  pop\n    /* \"#utility.yul\":7236:7269   */\n  tag_113\n    /* \"#utility.yul\":7263:7268   */\n  dup2\n    /* \"#utility.yul\":7236:7269   */\n  tag_114\n  jump\t// in\ntag_113:\n    /* \"#utility.yul\":7195:7275   */\n  swap3\n  swap2\n  pop\n  pop\n  jump\t// out\n    /* \"#utility.yul\":7281:7841   */\ntag_3:\n    /* \"#utility.yul\":7379:7385   */\n  0x00\n    /* \"#utility.yul\":7428:7430   */\n  0x20\n    /* \"#utility.yul\":7416:7425   */\n  dup3\n    /* \"#utility.yul\":7407:7414   */\n  dup5\n    /* \"#utility.yul\":7403:7426   */\n  sub\n    /* \"#utility.yul\":7399:7431   */\n  slt\n    /* \"#utility.yul\":7396:7398   */\n  iszero\n  tag_116\n  jumpi\n    /* \"#utility.yul\":7434:7513   */\n  tag_117\n  tag_118\n  jump\t// in\ntag_117:\n    /* \"#utility.yul\":7396:7398   */\ntag_116:\n    /* \"#utility.yul\":7575:7576   */\n  0x00\n    /* \"#utility.yul\":7564:7573   */\n  dup3\n    /* \"#utility.yul\":7560:7577   */\n  add\n    /* \"#utility.yul\":7554:7578   */\n  mload\n    /* \"#utility.yul\":7605:7623   */\n  0xffffffffffffffff\n    /* \"#utility.yul\":7597:7603   */\n  dup2\n    /* \"#utility.yul\":7594:7624   */\n  gt\n    /* \"#utility.yul\":7591:7593   */\n  iszero\n  tag_119\n  jumpi\n    /* \"#utility.yul\":7627:7706   */\n  tag_120\n  tag_121\n  jump\t// in\ntag_120:\n    /* \"#utility.yul\":7591:7593   */\ntag_119:\n    /* \"#utility.yul\":7732:7824   */\n  tag_122\n    /* \"#utility.yul\":7816:7823   */\n  dup5\n    /* \"#utility.yul\":7807:7813   */\n  dup3\n    /* \"#utility.yul\":7796:7805   */\n  dup6\n    /* \"#utility.yul\":7792:7814   */\n  add\n    /* \"#utility.yul\":7732:7824   */\n  tag_53\n  jump\t// in\ntag_122:\n    /* \"#utility.yul\":7722:7824   */\n  swap2\n  pop\n    /* \"#utility.yul\":7525:7834   */\n  pop\n    /* \"#utility.yul\":7386:7841   */\n  swap3\n  swap2\n  pop\n  pop\n  jump\t// out\n    /* \"#utility.yul\":7847:7976   */\ntag_41:\n    /* \"#utility.yul\":7881:7887   */\n  0x00\n    /* \"#utility.yul\":7908:7928   */\n  tag_124\n  tag_125\n  jump\t// in\ntag_124:\n    /* \"#utility.yul\":7898:7928   */\n  swap1\n  pop\n    /* \"#utility.yul\":7937:7970   */\n  tag_126\n    /* \"#utility.yul\":7965:7969   */\n  dup3\n    /* \"#utility.yul\":7957:7963   */\n  dup3\n    /* \"#utility.yul\":7937:7970   */\n  tag_127\n  jump\t// in\ntag_126:\n    /* \"#utility.yul\":7888:7976   */\n  swap2\n  swap1\n  pop\n  jump\t// out\n    /* \"#utility.yul\":7982:8057   */\ntag_125:\n    /* \"#utility.yul\":8015:8021   */\n  0x00\n    /* \"#utility.yul\":8048:8050   */\n  0x40\n    /* \"#utility.yul\":8042:8051   */\n  mload\n    /* \"#utility.yul\":8032:8051   */\n  swap1\n  pop\n    /* \"#utility.yul\":8022:8057   */\n  swap1\n  jump\t// out\n    /* \"#utility.yul\":8063:8371   */\ntag_40:\n    /* \"#utility.yul\":8125:8129   */\n  0x00\n    /* \"#utility.yul\":8215:8233   */\n  0xffffffffffffffff\n    /* \"#utility.yul\":8207:8213   */\n  dup3\n    /* \"#utility.yul\":8204:8234   */\n  gt\n    /* \"#utility.yul\":8201:8203   */\n  iszero\n  tag_130\n  jumpi\n    /* \"#utility.yul\":8237:8255   */\n  tag_131\n  tag_132\n  jump\t// in\ntag_131:\n    /* \"#utility.yul\":8201:8203   */\ntag_130:\n    /* \"#utility.yul\":8275:8304   */\n  tag_133\n    /* \"#utility.yul\":8297:8303   */\n  dup3\n    /* \"#utility.yul\":8275:8304   */\n  tag_134\n  jump\t// in\ntag_133:\n    /* \"#utility.yul\":8267:8304   */\n  swap1\n  pop\n    /* \"#utility.yul\":8359:8363   */\n  0x20\n    /* \"#utility.yul\":8353:8357   */\n  dup2\n    /* \"#utility.yul\":8349:8364   */\n  add\n    /* \"#utility.yul\":8341:8364   */\n  swap1\n  pop\n    /* \"#utility.yul\":8130:8371   */\n  swap2\n  swap1\n  pop\n  jump\t// out\n    /* \"#utility.yul\":8377:8454   */\ntag_135:\n    /* \"#utility.yul\":8414:8421   */\n  0x00\n    /* \"#utility.yul\":8443:8448   */\n  dup2\n    /* \"#utility.yul\":8432:8448   */\n  swap1\n  pop\n    /* \"#utility.yul\":8422:8454   */\n  swap2\n  swap1\n  pop\n  jump\t// out\n    /* \"#utility.yul\":8460:8767   */\ntag_46:\n    /* \"#utility.yul\":8528:8529   */\n  0x00\n    /* \"#utility.yul\":8538:8651   */\ntag_138:\n    /* \"#utility.yul\":8552:8558   */\n  dup4\n    /* \"#utility.yul\":8549:8550   */\n  dup2\n    /* \"#utility.yul\":8546:8559   */\n  lt\n    /* \"#utility.yul\":8538:8651   */\n  iszero\n  tag_140\n  jumpi\n    /* \"#utility.yul\":8637:8638   */\n  dup1\n    /* \"#utility.yul\":8632:8635   */\n  dup3\n    /* \"#utility.yul\":8628:8639   */\n  add\n    /* \"#utility.yul\":8622:8640   */\n  mload\n    /* \"#utility.yul\":8618:8619   */\n  dup2\n    /* \"#utility.yul\":8613:8616   */\n  dup5\n    /* \"#utility.yul\":8609:8620   */\n  add\n    /* \"#utility.yul\":8602:8641   */\n  mstore\n    /* \"#utility.yul\":8574:8576   */\n  0x20\n    /* \"#utility.yul\":8571:8572   */\n  dup2\n    /* \"#utility.yul\":8567:8577   */\n  add\n    /* \"#utility.yul\":8562:8577   */\n  swap1\n  pop\n    /* \"#utility.yul\":8538:8651   */\n  jump(tag_138)\ntag_140:\n    /* \"#utility.yul\":8669:8675   */\n  dup4\n    /* \"#utility.yul\":8666:8667   */\n  dup2\n    /* \"#utility.yul\":8663:8676   */\n  gt\n    /* \"#utility.yul\":8660:8662   */\n  iszero\n  tag_141\n  jumpi\n    /* \"#utility.yul\":8749:8750   */\n  0x00\n    /* \"#utility.yul\":8740:8746   */\n  dup5\n    /* \"#utility.yul\":8735:8738   */\n  dup5\n    /* \"#utility.yul\":8731:8747   */\n  add\n    /* \"#utility.yul\":8724:8751   */\n  mstore\n    /* \"#utility.yul\":8660:8662   */\ntag_141:\n    /* \"#utility.yul\":8509:8767   */\n  pop\n  pop\n  pop\n  pop\n  jump\t// out\n    /* \"#utility.yul\":8773:9093   */\ntag_25:\n    /* \"#utility.yul\":8817:8823   */\n  0x00\n    /* \"#utility.yul\":8854:8855   */\n  0x02\n    /* \"#utility.yul\":8848:8852   */\n  dup3\n    /* \"#utility.yul\":8844:8856   */\n  div\n    /* \"#utility.yul\":8834:8856   */\n  swap1\n  pop\n    /* \"#utility.yul\":8901:8902   */\n  0x01\n    /* \"#utility.yul\":8895:8899   */\n  dup3\n    /* \"#utility.yul\":8891:8903   */\n  and\n    /* \"#utility.yul\":8922:8940   */\n  dup1\n    /* \"#utility.yul\":8912:8914   */\n  tag_143\n  jumpi\n    /* \"#utility.yul\":8978:8982   */\n  0x7f\n    /* \"#utility.yul\":8970:8976   */\n  dup3\n    /* \"#utility.yul\":8966:8983   */\n  and\n    /* \"#utility.yul\":8956:8983   */\n  swap2\n  pop\n    /* \"#utility.yul\":8912:8914   */\ntag_143:\n    /* \"#utility.yul\":9040:9042   */\n  0x20\n    /* \"#utility.yul\":9032:9038   */\n  dup3\n    /* \"#utility.yul\":9029:9043   */\n  lt\n    /* \"#utility.yul\":9009:9027   */\n  dup2\n    /* \"#utility.yul\":9006:9044   */\n  eq\n    /* \"#utility.yul\":9003:9005   */\n  iszero\n  tag_144\n  jumpi\n    /* \"#utility.yul\":9059:9077   */\n  tag_145\n  tag_146\n  jump\t// in\ntag_145:\n    /* \"#utility.yul\":9003:9005   */\ntag_144:\n    /* \"#utility.yul\":8824:9093   */\n  pop\n  swap2\n  swap1\n  pop\n  jump\t// out\n    /* \"#utility.yul\":9099:9380   */\ntag_127:\n    /* \"#utility.yul\":9182:9209   */\n  tag_148\n    /* \"#utility.yul\":9204:9208   */\n  dup3\n    /* \"#utility.yul\":9182:9209   */\n  tag_134\n  jump\t// in\ntag_148:\n    /* \"#utility.yul\":9174:9180   */\n  dup2\n    /* \"#utility.yul\":9170:9210   */\n  add\n    /* \"#utility.yul\":9312:9318   */\n  dup2\n    /* \"#utility.yul\":9300:9310   */\n  dup2\n    /* \"#utility.yul\":9297:9319   */\n  lt\n    /* \"#utility.yul\":9276:9294   */\n  0xffffffffffffffff\n    /* \"#utility.yul\":9264:9274   */\n  dup3\n    /* \"#utility.yul\":9261:9295   */\n  gt\n    /* \"#utility.yul\":9258:9320   */\n  or\n    /* \"#utility.yul\":9255:9257   */\n  iszero\n  tag_149\n  jumpi\n    /* \"#utility.yul\":9323:9341   */\n  tag_150\n  tag_132\n  jump\t// in\ntag_150:\n    /* \"#utility.yul\":9255:9257   */\ntag_149:\n    /* \"#utility.yul\":9363:9373   */\n  dup1\n    /* \"#utility.yul\":9359:9361   */\n  0x40\n    /* \"#utility.yul\":9352:9374   */\n  mstore\n    /* \"#utility.yul\":9142:9380   */\n  pop\n  pop\n  pop\n  jump\t// out\n    /* \"#utility.yul\":9386:9566   */\ntag_146:\n    /* \"#utility.yul\":9434:9511   */\n  0x4e487b7100000000000000000000000000000000000000000000000000000000\n    /* \"#utility.yul\":9431:9432   */\n  0x00\n    /* \"#utility.yul\":9424:9512   */\n  mstore\n    /* \"#utility.yul\":9531:9535   */\n  0x22\n    /* \"#utility.yul\":9528:9529   */\n  0x04\n    /* \"#utility.yul\":9521:9536   */\n  mstore\n    /* \"#utility.yul\":9555:9559   */\n  0x24\n    /* \"#utility.yul\":9552:9553   */\n  0x00\n    /* \"#utility.yul\":9545:9560   */\n  revert\n    /* \"#utility.yul\":9572:9752   */\ntag_132:\n    /* \"#utility.yul\":9620:9697   */\n  0x4e487b7100000000000000000000000000000000000000000000000000000000\n    /* \"#utility.yul\":9617:9618   */\n  0x00\n    /* \"#utility.yul\":9610:9698   */\n  mstore\n    /* \"#utility.yul\":9717:9721   */\n  0x41\n    /* \"#utility.yul\":9714:9715   */\n  0x04\n    /* \"#utility.yul\":9707:9722   */\n  mstore\n    /* \"#utility.yul\":9741:9745   */\n  0x24\n    /* \"#utility.yul\":9738:9739   */\n  0x00\n    /* \"#utility.yul\":9731:9746   */\n  revert\n    /* \"#utility.yul\":9758:9875   */\ntag_51:\n    /* \"#utility.yul\":9867:9868   */\n  0x00\n    /* \"#utility.yul\":9864:9865   */\n  dup1\n    /* \"#utility.yul\":9857:9869   */\n  revert\n    /* \"#utility.yul\":9881:9998   */\ntag_57:\n    /* \"#utility.yul\":9990:9991   */\n  0x00\n    /* \"#utility.yul\":9987:9988   */\n  dup1\n    /* \"#utility.yul\":9980:9992   */\n  revert\n    /* \"#utility.yul\":10004:10121   */\ntag_61:\n    /* \"#utility.yul\":10113:10114   */\n  0x00\n    /* \"#utility.yul\":10110:10111   */\n  dup1\n    /* \"#utility.yul\":10103:10115   */\n  revert\n    /* \"#utility.yul\":10127:10244   */\ntag_44:\n    /* \"#utility.yul\":10236:10237   */\n  0x00\n    /* \"#utility.yul\":10233:10234   */\n  dup1\n    /* \"#utility.yul\":10226:10238   */\n  revert\n    /* \"#utility.yul\":10250:10367   */\ntag_121:\n    /* \"#utility.yul\":10359:10360   */\n  0x00\n    /* \"#utility.yul\":10356:10357   */\n  dup1\n    /* \"#utility.yul\":10349:10361   */\n  revert\n    /* \"#utility.yul\":10373:10490   */\ntag_118:\n    /* \"#utility.yul\":10482:10483   */\n  0x00\n    /* \"#utility.yul\":10479:10480   */\n  dup1\n    /* \"#utility.yul\":10472:10484   */\n  revert\n    /* \"#utility.yul\":10496:10598   */\ntag_134:\n    /* \"#utility.yul\":10537:10543   */\n  0x00\n    /* \"#utility.yul\":10588:10590   */\n  0x1f\n    /* \"#utility.yul\":10584:10591   */\n  not\n    /* \"#utility.yul\":10579:10581   */\n  0x1f\n    /* \"#utility.yul\":10572:10577   */\n  dup4\n    /* \"#utility.yul\":10568:10582   */\n  add\n    /* \"#utility.yul\":10564:10592   */\n  and\n    /* \"#utility.yul\":10554:10592   */\n  swap1\n  pop\n    /* \"#utility.yul\":10544:10598   */\n  swap2\n  swap1\n  pop\n  jump\t// out\n    /* \"#utility.yul\":10604:10726   */\ntag_114:\n    /* \"#utility.yul\":10677:10701   */\n  tag_161\n    /* \"#utility.yul\":10695:10700   */\n  dup2\n    /* \"#utility.yul\":10677:10701   */\n  tag_135\n  jump\t// in\ntag_161:\n    /* \"#utility.yul\":10670:10675   */\n  dup2\n    /* \"#utility.yul\":10667:10702   */\n  eq\n    /* \"#utility.yul\":10657:10659   */\n  tag_162\n  jumpi\n    /* \"#utility.yul\":10716:10717   */\n  0x00\n    /* \"#utility.yul\":10713:10714   */\n  dup1\n    /* \"#utility.yul\":10706:10718   */\n  revert\n    /* \"#utility.yul\":10657:10659   */\ntag_162:\n    /* \"#utility.yul\":10647:10726   */\n  pop\n  jump\t// out\n    /* \"ethereum/contracts/criminal_records.sol\":987:2371  contract Criminal {\r... */\ntag_23:\n  dataSize(sub_0)\n  dup1\n  dataOffset(sub_0)\n  0x00\n  codecopy\n  0x00\n  return\nstop\n\nsub_0: assembly {\n        /* \"ethereum/contracts/criminal_records.sol\":987:2371  contract Criminal {\r... */\n      mstore(0x40, 0x80)\n      callvalue\n      dup1\n      iszero\n      tag_1\n      jumpi\n      0x00\n      dup1\n      revert\n    tag_1:\n      pop\n      jumpi(tag_2, lt(calldatasize, 0x04))\n      shr(0xe0, calldataload(0x00))\n      dup1\n      0x2d1814f2\n      eq\n      tag_3\n      jumpi\n      dup1\n      0x3bc5de30\n      eq\n      tag_4\n      jumpi\n      dup1\n      0x8eff3c29\n      eq\n      tag_5\n      jumpi\n    tag_2:\n      0x00\n      dup1\n      revert\n        /* \"ethereum/contracts/criminal_records.sol\":1807:2144  function addRecord(\r... */\n    tag_3:\n      tag_6\n      0x04\n      dup1\n      calldatasize\n      sub\n      dup2\n      add\n      swap1\n      tag_7\n      swap2\n      swap1\n      tag_8\n      jump\t// in\n    tag_7:\n      tag_9\n      jump\t// in\n    tag_6:\n      stop\n        /* \"ethereum/contracts/criminal_records.sol\":2152:2251  function getData() public view returns (CriminalData memory) {\r... */\n    tag_4:\n      tag_10\n      tag_11\n      jump\t// in\n    tag_10:\n      mload(0x40)\n      tag_12\n      swap2\n      swap1\n      tag_13\n      jump\t// in\n    tag_12:\n      mload(0x40)\n      dup1\n      swap2\n      sub\n      swap1\n      return\n        /* \"ethereum/contracts/criminal_records.sol\":2259:2368  function getRecords() public view returns (CriminalRecord[] memory) {\r... */\n    tag_5:\n      tag_14\n      tag_15\n      jump\t// in\n    tag_14:\n      mload(0x40)\n      tag_16\n      swap2\n      swap1\n      tag_17\n      jump\t// in\n    tag_16:\n      mload(0x40)\n      dup1\n      swap2\n      sub\n      swap1\n      return\n        /* \"ethereum/contracts/criminal_records.sol\":1807:2144  function addRecord(\r... */\n    tag_9:\n        /* \"ethereum/contracts/criminal_records.sol\":2026:2041  criminalRecords */\n      0x26\n        /* \"ethereum/contracts/criminal_records.sol\":2061:2125  CriminalRecord(trialNumber, date, crimeCommited, jail, location) */\n      mload(0x40)\n      dup1\n      0xa0\n      add\n      0x40\n      mstore\n      dup1\n        /* \"ethereum/contracts/criminal_records.sol\":2076:2087  trialNumber */\n      dup13\n      dup13\n        /* \"ethereum/contracts/criminal_records.sol\":2061:2125  CriminalRecord(trialNumber, date, crimeCommited, jail, location) */\n      dup1\n      dup1\n      0x1f\n      add\n      0x20\n      dup1\n      swap2\n      div\n      mul\n      0x20\n      add\n      mload(0x40)\n      swap1\n      dup2\n      add\n      0x40\n      mstore\n      dup1\n      swap4\n      swap3\n      swap2\n      swap1\n      dup2\n      dup2\n      mstore\n      0x20\n      add\n      dup4\n      dup4\n      dup1\n      dup3\n      dup5\n      calldatacopy\n      0x00\n      dup2\n      dup5\n      add\n      mstore\n      not(0x1f)\n      0x1f\n      dup3\n      add\n      and\n      swap1\n      pop\n      dup1\n      dup4\n      add\n      swap3\n      pop\n      pop\n      pop\n      pop\n      pop\n      pop\n      pop\n      dup2\n      mstore\n      0x20\n      add\n        /* \"ethereum/contracts/criminal_records.sol\":2089:2093  date */\n      dup11\n      dup11\n        /* \"ethereum/contracts/criminal_records.sol\":2061:2125  CriminalRecord(trialNumber, date, crimeCommited, jail, location) */\n      dup1\n      dup1\n      0x1f\n      add\n      0x20\n      dup1\n      swap2\n      div\n      mul\n      0x20\n      add\n      mload(0x40)\n      swap1\n      dup2\n      add\n      0x40\n      mstore\n      dup1\n      swap4\n      swap3\n      swap2\n      swap1\n      dup2\n      dup2\n      mstore\n      0x20\n      add\n      dup4\n      dup4\n      dup1\n      dup3\n      dup5\n      calldatacopy\n      0x00\n      dup2\n      dup5\n      add\n      mstore\n      not(0x1f)\n      0x1f\n      dup3\n      add\n      and\n      swap1\n      pop\n      dup1\n      dup4\n      add\n      swap3\n      pop\n      pop\n      pop\n      pop\n      pop\n      pop\n      pop\n      dup2\n      mstore\n      0x20\n      add\n        /* \"ethereum/contracts/criminal_records.sol\":2095:2108  crimeCommited */\n      dup9\n      dup9\n        /* \"ethereum/contracts/criminal_records.sol\":2061:2125  CriminalRecord(trialNumber, date, crimeCommited, jail, location) */\n      dup1\n      dup1\n      0x1f\n      add\n      0x20\n      dup1\n      swap2\n      div\n      mul\n      0x20\n      add\n      mload(0x40)\n      swap1\n      dup2\n      add\n      0x40\n      mstore\n      dup1\n      swap4\n      swap3\n      swap2\n      swap1\n      dup2\n      dup2\n      mstore\n      0x20\n      add\n      dup4\n      dup4\n      dup1\n      dup3\n      dup5\n      calldatacopy\n      0x00\n      dup2\n      dup5\n      add\n      mstore\n      not(0x1f)\n      0x1f\n      dup3\n      add\n      and\n      swap1\n      pop\n      dup1\n      dup4\n      add\n      swap3\n      pop\n      pop\n      pop\n      pop\n      pop\n      pop\n      pop\n      dup2\n      mstore\n      0x20\n      add\n        /* \"ethereum/contracts/criminal_records.sol\":2110:2114  jail */\n      dup7\n      dup7\n        /* \"ethereum/contracts/criminal_records.sol\":2061:2125  CriminalRecord(trialNumber, date, crimeCommited, jail, location) */\n      dup1\n      dup1\n      0x1f\n      add\n      0x20\n      dup1\n      swap2\n      div\n      mul\n      0x20\n      add\n      mload(0x40)\n      swap1\n      dup2\n      add\n      0x40\n      mstore\n      dup1\n      swap4\n      swap3\n      swap2\n      swap1\n      dup2\n      dup2\n      mstore\n      0x20\n      add\n      dup4\n      dup4\n      dup1\n      dup3\n      dup5\n      calldatacopy\n      0x00\n      dup2\n      dup5\n      add\n      mstore\n      not(0x1f)\n      0x1f\n      dup3\n      add\n      and\n      swap1\n      pop\n      dup1\n      dup4\n      add\n      swap3\n      pop\n      pop\n      pop\n      pop\n      pop\n      pop\n      pop\n      dup2\n      mstore\n      0x20\n      add\n        /* \"ethereum/contracts/criminal_records.sol\":2116:2124  location */\n      dup5\n      dup5\n        /* \"ethereum/contracts/criminal_records.sol\":2061:2125  CriminalRecord(trialNumber, date, crimeCommited, jail, location) */\n      dup1\n      dup1\n      0x1f\n      add\n      0x20\n      dup1\n      swap2\n      div\n      mul\n      0x20\n      add\n      mload(0x40)\n      swap1\n      dup2\n      add\n      0x40\n      mstore\n      dup1\n      swap4\n      swap3\n      swap2\n      swap1\n      dup2\n      dup2\n      mstore\n      0x20\n      add\n      dup4\n      dup4\n      dup1\n      dup3\n      dup5\n      calldatacopy\n      0x00\n      dup2\n      dup5\n      add\n      mstore\n      not(0x1f)\n      0x1f\n      dup3\n      add\n      and\n      swap1\n      pop\n      dup1\n      dup4\n      add\n      swap3\n      pop\n      pop\n      pop\n      pop\n      pop\n      pop\n      pop\n      dup2\n      mstore\n      pop\n        /* \"ethereum/contracts/criminal_records.sol\":2026:2136  criminalRecords.push(\r... */\n      swap1\n      dup1\n      0x01\n      dup2\n      sload\n      add\n      dup1\n      dup3\n      sstore\n      dup1\n      swap2\n      pop\n      pop\n      0x01\n      swap1\n      sub\n      swap1\n      0x00\n      mstore\n      keccak256(0x00, 0x20)\n      swap1\n      0x05\n      mul\n      add\n      0x00\n      swap1\n      swap2\n      swap1\n      swap2\n      swap1\n      swap2\n      pop\n      0x00\n      dup3\n      add\n      mload\n      dup2\n      0x00\n      add\n      swap1\n      dup1\n      mload\n      swap1\n      0x20\n      add\n      swap1\n      tag_20\n      swap3\n      swap2\n      swap1\n      tag_21\n      jump\t// in\n    tag_20:\n      pop\n      0x20\n      dup3\n      add\n      mload\n      dup2\n      0x01\n      add\n      swap1\n      dup1\n      mload\n      swap1\n      0x20\n      add\n      swap1\n      tag_22\n      swap3\n      swap2\n      swap1\n      tag_21\n      jump\t// in\n    tag_22:\n      pop\n      0x40\n      dup3\n      add\n      mload\n      dup2\n      0x02\n      add\n      swap1\n      dup1\n      mload\n      swap1\n      0x20\n      add\n      swap1\n      tag_23\n      swap3\n      swap2\n      swap1\n      tag_21\n      jump\t// in\n    tag_23:\n      pop\n      0x60\n      dup3\n      add\n      mload\n      dup2\n      0x03\n      add\n      swap1\n      dup1\n      mload\n      swap1\n      0x20\n      add\n      swap1\n      tag_24\n      swap3\n      swap2\n      swap1\n      tag_21\n      jump\t// in\n    tag_24:\n      pop\n      0x80\n      dup3\n      add\n      mload\n      dup2\n      0x04\n      add\n      swap1\n      dup1\n      mload\n      swap1\n      0x20\n      add\n      swap1\n      tag_25\n      swap3\n      swap2\n      swap1\n      tag_21\n      jump\t// in\n    tag_25:\n      pop\n      pop\n      pop\n        /* \"ethereum/contracts/criminal_records.sol\":1807:2144  function addRecord(\r... */\n      pop\n      pop\n      pop\n      pop\n      pop\n      pop\n      pop\n      pop\n      pop\n      pop\n      jump\t// out\n        /* \"ethereum/contracts/criminal_records.sol\":2152:2251  function getData() public view returns (CriminalData memory) {\r... */\n    tag_11:\n        /* \"ethereum/contracts/criminal_records.sol\":2192:2211  CriminalData memory */\n      tag_26\n      tag_27\n      jump\t// in\n    tag_26:\n        /* \"ethereum/contracts/criminal_records.sol\":2231:2243  criminalData */\n      0x13\n        /* \"ethereum/contracts/criminal_records.sol\":2224:2243  return criminalData */\n      mload(0x40)\n      dup1\n      0x0260\n      add\n      0x40\n      mstore\n      swap1\n      dup2\n      0x00\n      dup3\n      add\n      dup1\n      sload\n      tag_29\n      swap1\n      tag_30\n      jump\t// in\n    tag_29:\n      dup1\n      0x1f\n      add\n      0x20\n      dup1\n      swap2\n      div\n      mul\n      0x20\n      add\n      mload(0x40)\n      swap1\n      dup2\n      add\n      0x40\n      mstore\n      dup1\n      swap3\n      swap2\n      swap1\n      dup2\n      dup2\n      mstore\n      0x20\n      add\n      dup3\n      dup1\n      sload\n      tag_31\n      swap1\n      tag_30\n      jump\t// in\n    tag_31:\n      dup1\n      iszero\n      tag_32\n      jumpi\n      dup1\n      0x1f\n      lt\n      tag_33\n      jumpi\n      0x0100\n      dup1\n      dup4\n      sload\n      div\n      mul\n      dup4\n      mstore\n      swap2\n      0x20\n      add\n      swap2\n      jump(tag_32)\n    tag_33:\n      dup3\n      add\n      swap2\n      swap1\n      0x00\n      mstore\n      keccak256(0x00, 0x20)\n      swap1\n    tag_34:\n      dup2\n      sload\n      dup2\n      mstore\n      swap1\n      0x01\n      add\n      swap1\n      0x20\n      add\n      dup1\n      dup4\n      gt\n      tag_34\n      jumpi\n      dup3\n      swap1\n      sub\n      0x1f\n      and\n      dup3\n      add\n      swap2\n    tag_32:\n      pop\n      pop\n      pop\n      pop\n      pop\n      dup2\n      mstore\n      0x20\n      add\n      0x01\n      dup3\n      add\n      dup1\n      sload\n      tag_35\n      swap1\n      tag_30\n      jump\t// in\n    tag_35:\n      dup1\n      0x1f\n      add\n      0x20\n      dup1\n      swap2\n      div\n      mul\n      0x20\n      add\n      mload(0x40)\n      swap1\n      dup2\n      add\n      0x40\n      mstore\n      dup1\n      swap3\n      swap2\n      swap1\n      dup2\n      dup2\n      mstore\n      0x20\n      add\n      dup3\n      dup1\n      sload\n      tag_36\n      swap1\n      tag_30\n      jump\t// in\n    tag_36:\n      dup1\n      iszero\n      tag_37\n      jumpi\n      dup1\n      0x1f\n      lt\n      tag_38\n      jumpi\n      0x0100\n      dup1\n      dup4\n      sload\n      div\n      mul\n      dup4\n      mstore\n      swap2\n      0x20\n      add\n      swap2\n      jump(tag_37)\n    tag_38:\n      dup3\n      add\n      swap2\n      swap1\n      0x00\n      mstore\n      keccak256(0x00, 0x20)\n      swap1\n    tag_39:\n      dup2\n      sload\n      dup2\n      mstore\n      swap1\n      0x01\n      add\n      swap1\n      0x20\n      add\n      dup1\n      dup4\n      gt\n      tag_39\n      jumpi\n      dup3\n      swap1\n      sub\n      0x1f\n      and\n      dup3\n      add\n      swap2\n    tag_37:\n      pop\n      pop\n      pop\n      pop\n      pop\n      dup2\n      mstore\n      0x20\n      add\n      0x02\n      dup3\n      add\n      dup1\n      sload\n      tag_40\n      swap1\n      tag_30\n      jump\t// in\n    tag_40:\n      dup1\n      0x1f\n      add\n      0x20\n      dup1\n      swap2\n      div\n      mul\n      0x20\n      add\n      mload(0x40)\n      swap1\n      dup2\n      add\n      0x40\n      mstore\n      dup1\n      swap3\n      swap2\n      swap1\n      dup2\n      dup2\n      mstore\n      0x20\n      add\n      dup3\n      dup1\n      sload\n      tag_41\n      swap1\n      tag_30\n      jump\t// in\n    tag_41:\n      dup1\n      iszero\n      tag_42\n      jumpi\n      dup1\n      0x1f\n      lt\n      tag_43\n      jumpi\n      0x0100\n      dup1\n      dup4\n      sload\n      div\n      mul\n      dup4\n      mstore\n      swap2\n      0x20\n      add\n      swap2\n      jump(tag_42)\n    tag_43:\n      dup3\n      add\n      swap2\n      swap1\n      0x00\n      mstore\n      keccak256(0x00, 0x20)\n      swap1\n    tag_44:\n      dup2\n      sload\n      dup2\n      mstore\n      swap1\n      0x01\n      add\n      swap1\n      0x20\n      add\n      dup1\n      dup4\n      gt\n      tag_44\n      jumpi\n      dup3\n      swap1\n      sub\n      0x1f\n      and\n      dup3\n      add\n      swap2\n    tag_42:\n      pop\n      pop\n      pop\n      pop\n      pop\n      dup2\n      mstore\n      0x20\n      add\n      0x03\n      dup3\n      add\n      sload\n      dup2\n      mstore\n      0x20\n      add\n      0x04\n      dup3\n      add\n      sload\n      dup2\n      mstore\n      0x20\n      add\n      0x05\n      dup3\n      add\n      dup1\n      sload\n      tag_45\n      swap1\n      tag_30\n      jump\t// in\n    tag_45:\n      dup1\n      0x1f\n      add\n      0x20\n      dup1\n      swap2\n      div\n      mul\n      0x20\n      add\n      mload(0x40)\n      swap1\n      dup2\n      add\n      0x40\n      mstore\n      dup1\n      swap3\n      swap2\n      swap1\n      dup2\n      dup2\n      mstore\n      0x20\n      add\n      dup3\n      dup1\n      sload\n      tag_46\n      swap1\n      tag_30\n      jump\t// in\n    tag_46:\n      dup1\n      iszero\n      tag_47\n      jumpi\n      dup1\n      0x1f\n      lt\n      tag_48\n      jumpi\n      0x0100\n      dup1\n      dup4\n      sload\n      div\n      mul\n      dup4\n      mstore\n      swap2\n      0x20\n      add\n      swap2\n      jump(tag_47)\n    tag_48:\n      dup3\n      add\n      swap2\n      swap1\n      0x00\n      mstore\n      keccak256(0x00, 0x20)\n      swap1\n    tag_49:\n      dup2\n      sload\n      dup2\n      mstore\n      swap1\n      0x01\n      add\n      swap1\n      0x20\n      add\n      dup1\n      dup4\n      gt\n      tag_49\n      jumpi\n      dup3\n      swap1\n      sub\n      0x1f\n      and\n      dup3\n      add\n      swap2\n    tag_47:\n      pop\n      pop\n      pop\n      pop\n      pop\n      dup2\n      mstore\n      0x20\n      add\n      0x06\n      dup3\n      add\n      dup1\n      sload\n      tag_50\n      swap1\n      tag_30\n      jump\t// in\n    tag_50:\n      dup1\n      0x1f\n      add\n      0x20\n      dup1\n      swap2\n      div\n      mul\n      0x20\n      add\n      mload(0x40)\n      swap1\n      dup2\n      add\n      0x40\n      mstore\n      dup1\n      swap3\n      swap2\n      swap1\n      dup2\n      dup2\n      mstore\n      0x20\n      add\n      dup3\n      dup1\n      sload\n      tag_51\n      swap1\n      tag_30\n      jump\t// in\n    tag_51:\n      dup1\n      iszero\n      tag_52\n      jumpi\n      dup1\n      0x1f\n      lt\n      tag_53\n      jumpi\n      0x0100\n      dup1\n      dup4\n      sload\n      div\n      mul\n      dup4\n      mstore\n      swap2\n      0x20\n      add\n      swap2\n      jump(tag_52)\n    tag_53:\n      dup3\n      add\n      swap2\n      swap1\n      0x00\n      mstore\n      keccak256(0x00, 0x20)\n      swap1\n    tag_54:\n      dup2\n      sload\n      dup2\n      mstore\n      swap1\n      0x01\n      add\n      swap1\n      0x20\n      add\n      dup1\n      dup4\n      gt\n      tag_54\n      jumpi\n      dup3\n      swap1\n      sub\n      0x1f\n      and\n      dup3\n      add\n      swap2\n    tag_52:\n      pop\n      pop\n      pop\n      pop\n      pop\n      dup2\n      mstore\n      0x20\n      add\n      0x07\n      dup3\n      add\n      dup1\n      sload\n      tag_55\n      swap1\n      tag_30\n      jump\t// in\n    tag_55:\n      dup1\n      0x1f\n      add\n      0x20\n      dup1\n      swap2\n      div\n      mul\n      0x20\n      add\n      mload(0x40)\n      swap1\n      dup2\n      add\n      0x40\n      mstore\n      dup1\n      swap3\n      swap2\n      swap1\n      dup2\n      dup2\n      mstore\n      0x20\n      add\n      dup3\n      dup1\n      sload\n      tag_56\n      swap1\n      tag_30\n      jump\t// in\n    tag_56:\n      dup1\n      iszero\n      tag_57\n      jumpi\n      dup1\n      0x1f\n      lt\n      tag_58\n      jumpi\n      0x0100\n      dup1\n      dup4\n      sload\n      div\n      mul\n      dup4\n      mstore\n      swap2\n      0x20\n      add\n      swap2\n      jump(tag_57)\n    tag_58:\n      dup3\n      add\n      swap2\n      swap1\n      0x00\n      mstore\n      keccak256(0x00, 0x20)\n      swap1\n    tag_59:\n      dup2\n      sload\n      dup2\n      mstore\n      swap1\n      0x01\n      add\n      swap1\n      0x20\n      add\n      dup1\n      dup4\n      gt\n      tag_59\n      jumpi\n      dup3\n      swap1\n      sub\n      0x1f\n      and\n      dup3\n      add\n      swap2\n    tag_57:\n      pop\n      pop\n      pop\n      pop\n      pop\n      dup2\n      mstore\n      0x20\n      add\n      0x08\n      dup3\n      add\n      dup1\n      sload\n      tag_60\n      swap1\n      tag_30\n      jump\t// in\n    tag_60:\n      dup1\n      0x1f\n      add\n      0x20\n      dup1\n      swap2\n      div\n      mul\n      0x20\n      add\n      mload(0x40)\n      swap1\n      dup2\n      add\n      0x40\n      mstore\n      dup1\n      swap3\n      swap2\n      swap1\n      dup2\n      dup2\n      mstore\n      0x20\n      add\n      dup3\n      dup1\n      sload\n      tag_61\n      swap1\n      tag_30\n      jump\t// in\n    tag_61:\n      dup1\n      iszero\n      tag_62\n      jumpi\n      dup1\n      0x1f\n      lt\n      tag_63\n      jumpi\n      0x0100\n      dup1\n      dup4\n      sload\n      div\n      mul\n      dup4\n      mstore\n      swap2\n      0x20\n      add\n      swap2\n      jump(tag_62)\n    tag_63:\n      dup3\n      add\n      swap2\n      swap1\n      0x00\n      mstore\n      keccak256(0x00, 0x20)\n      swap1\n    tag_64:\n      dup2\n      sload\n      dup2\n      mstore\n      swap1\n      0x01\n      add\n      swap1\n      0x20\n      add\n      dup1\n      dup4\n      gt\n      tag_64\n      jumpi\n      dup3\n      swap1\n      sub\n      0x1f\n      and\n      dup3\n      add\n      swap2\n    tag_62:\n      pop\n      pop\n      pop\n      pop\n      pop\n      dup2\n      mstore\n      0x20\n      add\n      0x09\n      dup3\n      add\n      dup1\n      sload\n      tag_65\n      swap1\n      tag_30\n      jump\t// in\n    tag_65:\n      dup1\n      0x1f\n      add\n      0x20\n      dup1\n      swap2\n      div\n      mul\n      0x20\n      add\n      mload(0x40)\n      swap1\n      dup2\n      add\n      0x40\n      mstore\n      dup1\n      swap3\n      swap2\n      swap1\n      dup2\n      dup2\n      mstore\n      0x20\n      add\n      dup3\n      dup1\n      sload\n      tag_66\n      swap1\n      tag_30\n      jump\t// in\n    tag_66:\n      dup1\n      iszero\n      tag_67\n      jumpi\n      dup1\n      0x1f\n      lt\n      tag_68\n      jumpi\n      0x0100\n      dup1\n      dup4\n      sload\n      div\n      mul\n      dup4\n      mstore\n      swap2\n      0x20\n      add\n      swap2\n      jump(tag_67)\n    tag_68:\n      dup3\n      add\n      swap2\n      swap1\n      0x00\n      mstore\n      keccak256(0x00, 0x20)\n      swap1\n    tag_69:\n      dup2\n      sload\n      dup2\n      mstore\n      swap1\n      0x01\n      add\n      swap1\n      0x20\n      add\n      dup1\n      dup4\n      gt\n      tag_69\n      jumpi\n      dup3\n      swap1\n      sub\n      0x1f\n      and\n      dup3\n      add\n      swap2\n    tag_67:\n      pop\n      pop\n      pop\n      pop\n      pop\n      dup2\n      mstore\n      0x20\n      add\n      0x0a\n      dup3\n      add\n      dup1\n      sload\n      tag_70\n      swap1\n      tag_30\n      jump\t// in\n    tag_70:\n      dup1\n      0x1f\n      add\n      0x20\n      dup1\n      swap2\n      div\n      mul\n      0x20\n      add\n      mload(0x40)\n      swap1\n      dup2\n      add\n      0x40\n      mstore\n      dup1\n      swap3\n      swap2\n      swap1\n      dup2\n      dup2\n      mstore\n      0x20\n      add\n      dup3\n      dup1\n      sload\n      tag_71\n      swap1\n      tag_30\n      jump\t// in\n    tag_71:\n      dup1\n      iszero\n      tag_72\n      jumpi\n      dup1\n      0x1f\n      lt\n      tag_73\n      jumpi\n      0x0100\n      dup1\n      dup4\n      sload\n      div\n      mul\n      dup4\n      mstore\n      swap2\n      0x20\n      add\n      swap2\n      jump(tag_72)\n    tag_73:\n      dup3\n      add\n      swap2\n      swap1\n      0x00\n      mstore\n      keccak256(0x00, 0x20)\n      swap1\n    tag_74:\n      dup2\n      sload\n      dup2\n      mstore\n      swap1\n      0x01\n      add\n      swap1\n      0x20\n      add\n      dup1\n      dup4\n      gt\n      tag_74\n      jumpi\n      dup3\n      swap1\n      sub\n      0x1f\n      and\n      dup3\n      add\n      swap2\n    tag_72:\n      pop\n      pop\n      pop\n      pop\n      pop\n      dup2\n      mstore\n      0x20\n      add\n      0x0b\n      dup3\n      add\n      dup1\n      sload\n      tag_75\n      swap1\n      tag_30\n      jump\t// in\n    tag_75:\n      dup1\n      0x1f\n      add\n      0x20\n      dup1\n      swap2\n      div\n      mul\n      0x20\n      add\n      mload(0x40)\n      swap1\n      dup2\n      add\n      0x40\n      mstore\n      dup1\n      swap3\n      swap2\n      swap1\n      dup2\n      dup2\n      mstore\n      0x20\n      add\n      dup3\n      dup1\n      sload\n      tag_76\n      swap1\n      tag_30\n      jump\t// in\n    tag_76:\n      dup1\n      iszero\n      tag_77\n      jumpi\n      dup1\n      0x1f\n      lt\n      tag_78\n      jumpi\n      0x0100\n      dup1\n      dup4\n      sload\n      div\n      mul\n      dup4\n      mstore\n      swap2\n      0x20\n      add\n      swap2\n      jump(tag_77)\n    tag_78:\n      dup3\n      add\n      swap2\n      swap1\n      0x00\n      mstore\n      keccak256(0x00, 0x20)\n      swap1\n    tag_79:\n      dup2\n      sload\n      dup2\n      mstore\n      swap1\n      0x01\n      add\n      swap1\n      0x20\n      add\n      dup1\n      dup4\n      gt\n      tag_79\n      jumpi\n      dup3\n      swap1\n      sub\n      0x1f\n      and\n      dup3\n      add\n      swap2\n    tag_77:\n      pop\n      pop\n      pop\n      pop\n      pop\n      dup2\n      mstore\n      0x20\n      add\n      0x0c\n      dup3\n      add\n      dup1\n      sload\n      tag_80\n      swap1\n      tag_30\n      jump\t// in\n    tag_80:\n      dup1\n      0x1f\n      add\n      0x20\n      dup1\n      swap2\n      div\n      mul\n      0x20\n      add\n      mload(0x40)\n      swap1\n      dup2\n      add\n      0x40\n      mstore\n      dup1\n      swap3\n      swap2\n      swap1\n      dup2\n      dup2\n      mstore\n      0x20\n      add\n      dup3\n      dup1\n      sload\n      tag_81\n      swap1\n      tag_30\n      jump\t// in\n    tag_81:\n      dup1\n      iszero\n      tag_82\n      jumpi\n      dup1\n      0x1f\n      lt\n      tag_83\n      jumpi\n      0x0100\n      dup1\n      dup4\n      sload\n      div\n      mul\n      dup4\n      mstore\n      swap2\n      0x20\n      add\n      swap2\n      jump(tag_82)\n    tag_83:\n      dup3\n      add\n      swap2\n      swap1\n      0x00\n      mstore\n      keccak256(0x00, 0x20)\n      swap1\n    tag_84:\n      dup2\n      sload\n      dup2\n      mstore\n      swap1\n      0x01\n      add\n      swap1\n      0x20\n      add\n      dup1\n      dup4\n      gt\n      tag_84\n      jumpi\n      dup3\n      swap1\n      sub\n      0x1f\n      and\n      dup3\n      add\n      swap2\n    tag_82:\n      pop\n      pop\n      pop\n      pop\n      pop\n      dup2\n      mstore\n      0x20\n      add\n      0x0d\n      dup3\n      add\n      dup1\n      sload\n      tag_85\n      swap1\n      tag_30\n      jump\t// in\n    tag_85:\n      dup1\n      0x1f\n      add\n      0x20\n      dup1\n      swap2\n      div\n      mul\n      0x20\n      add\n      mload(0x40)\n      swap1\n      dup2\n      add\n      0x40\n      mstore\n      dup1\n      swap3\n      swap2\n      swap1\n      dup2\n      dup2\n      mstore\n      0x20\n      add\n      dup3\n      dup1\n      sload\n      tag_86\n      swap1\n      tag_30\n      jump\t// in\n    tag_86:\n      dup1\n      iszero\n      tag_87\n      jumpi\n      dup1\n      0x1f\n      lt\n      tag_88\n      jumpi\n      0x0100\n      dup1\n      dup4\n      sload\n      div\n      mul\n      dup4\n      mstore\n      swap2\n      0x20\n      add\n      swap2\n      jump(tag_87)\n    tag_88:\n      dup3\n      add\n      swap2\n      swap1\n      0x00\n      mstore\n      keccak256(0x00, 0x20)\n      swap1\n    tag_89:\n      dup2\n      sload\n      dup2\n      mstore\n      swap1\n      0x01\n      add\n      swap1\n      0x20\n      add\n      dup1\n      dup4\n      gt\n      tag_89\n      jumpi\n      dup3\n      swap1\n      sub\n      0x1f\n      and\n      dup3\n      add\n      swap2\n    tag_87:\n      pop\n      pop\n      pop\n      pop\n      pop\n      dup2\n      mstore\n      0x20\n      add\n      0x0e\n      dup3\n      add\n      dup1\n      sload\n      tag_90\n      swap1\n      tag_30\n      jump\t// in\n    tag_90:\n      dup1\n      0x1f\n      add\n      0x20\n      dup1\n      swap2\n      div\n      mul\n      0x20\n      add\n      mload(0x40)\n      swap1\n      dup2\n      add\n      0x40\n      mstore\n      dup1\n      swap3\n      swap2\n      swap1\n      dup2\n      dup2\n      mstore\n      0x20\n      add\n      dup3\n      dup1\n      sload\n      tag_91\n      swap1\n      tag_30\n      jump\t// in\n    tag_91:\n      dup1\n      iszero\n      tag_92\n      jumpi\n      dup1\n      0x1f\n      lt\n      tag_93\n      jumpi\n      0x0100\n      dup1\n      dup4\n      sload\n      div\n      mul\n      dup4\n      mstore\n      swap2\n      0x20\n      add\n      swap2\n      jump(tag_92)\n    tag_93:\n      dup3\n      add\n      swap2\n      swap1\n      0x00\n      mstore\n      keccak256(0x00, 0x20)\n      swap1\n    tag_94:\n      dup2\n      sload\n      dup2\n      mstore\n      swap1\n      0x01\n      add\n      swap1\n      0x20\n      add\n      dup1\n      dup4\n      gt\n      tag_94\n      jumpi\n      dup3\n      swap1\n      sub\n      0x1f\n      and\n      dup3\n      add\n      swap2\n    tag_92:\n      pop\n      pop\n      pop\n      pop\n      pop\n      dup2\n      mstore\n      0x20\n      add\n      0x0f\n      dup3\n      add\n      sload\n      dup2\n      mstore\n      0x20\n      add\n      0x10\n      dup3\n      add\n      dup1\n      sload\n      tag_95\n      swap1\n      tag_30\n      jump\t// in\n    tag_95:\n      dup1\n      0x1f\n      add\n      0x20\n      dup1\n      swap2\n      div\n      mul\n      0x20\n      add\n      mload(0x40)\n      swap1\n      dup2\n      add\n      0x40\n      mstore\n      dup1\n      swap3\n      swap2\n      swap1\n      dup2\n      dup2\n      mstore\n      0x20\n      add\n      dup3\n      dup1\n      sload\n      tag_96\n      swap1\n      tag_30\n      jump\t// in\n    tag_96:\n      dup1\n      iszero\n      tag_97\n      jumpi\n      dup1\n      0x1f\n      lt\n      tag_98\n      jumpi\n      0x0100\n      dup1\n      dup4\n      sload\n      div\n      mul\n      dup4\n      mstore\n      swap2\n      0x20\n      add\n      swap2\n      jump(tag_97)\n    tag_98:\n      dup3\n      add\n      swap2\n      swap1\n      0x00\n      mstore\n      keccak256(0x00, 0x20)\n      swap1\n    tag_99:\n      dup2\n      sload\n      dup2\n      mstore\n      swap1\n      0x01\n      add\n      swap1\n      0x20\n      add\n      dup1\n      dup4\n      gt\n      tag_99\n      jumpi\n      dup3\n      swap1\n      sub\n      0x1f\n      and\n      dup3\n      add\n      swap2\n    tag_97:\n      pop\n      pop\n      pop\n      pop\n      pop\n      dup2\n      mstore\n      0x20\n      add\n      0x11\n      dup3\n      add\n      dup1\n      sload\n      tag_100\n      swap1\n      tag_30\n      jump\t// in\n    tag_100:\n      dup1\n      0x1f\n      add\n      0x20\n      dup1\n      swap2\n      div\n      mul\n      0x20\n      add\n      mload(0x40)\n      swap1\n      dup2\n      add\n      0x40\n      mstore\n      dup1\n      swap3\n      swap2\n      swap1\n      dup2\n      dup2\n      mstore\n      0x20\n      add\n      dup3\n      dup1\n      sload\n      tag_101\n      swap1\n      tag_30\n      jump\t// in\n    tag_101:\n      dup1\n      iszero\n      tag_102\n      jumpi\n      dup1\n      0x1f\n      lt\n      tag_103\n      jumpi\n      0x0100\n      dup1\n      dup4\n      sload\n      div\n      mul\n      dup4\n      mstore\n      swap2\n      0x20\n      add\n      swap2\n      jump(tag_102)\n    tag_103:\n      dup3\n      add\n      swap2\n      swap1\n      0x00\n      mstore\n      keccak256(0x00, 0x20)\n      swap1\n    tag_104:\n      dup2\n      sload\n      dup2\n      mstore\n      swap1\n      0x01\n      add\n      swap1\n      0x20\n      add\n      dup1\n      dup4\n      gt\n      tag_104\n      jumpi\n      dup3\n      swap1\n      sub\n      0x1f\n      and\n      dup3\n      add\n      swap2\n    tag_102:\n      pop\n      pop\n      pop\n      pop\n      pop\n      dup2\n      mstore\n      0x20\n      add\n      0x12\n      dup3\n      add\n      dup1\n      sload\n      tag_105\n      swap1\n      tag_30\n      jump\t// in\n    tag_105:\n      dup1\n      0x1f\n      add\n      0x20\n      dup1\n      swap2\n      div\n      mul\n      0x20\n      add\n      mload(0x40)\n      swap1\n      dup2\n      add\n      0x40\n      mstore\n      dup1\n      swap3\n      swap2\n      swap1\n      dup2\n      dup2\n      mstore\n      0x20\n      add\n      dup3\n      dup1\n      sload\n      tag_106\n      swap1\n      tag_30\n      jump\t// in\n    tag_106:\n      dup1\n      iszero\n      tag_107\n      jumpi\n      dup1\n      0x1f\n      lt\n      tag_108\n      jumpi\n      0x0100\n      dup1\n      dup4\n      sload\n      div\n      mul\n      dup4\n      mstore\n      swap2\n      0x20\n      add\n      swap2\n      jump(tag_107)\n    tag_108:\n      dup3\n      add\n      swap2\n      swap1\n      0x00\n      mstore\n      keccak256(0x00, 0x20)\n      swap1\n    tag_109:\n      dup2\n      sload\n      dup2\n      mstore\n      swap1\n      0x01\n      add\n      swap1\n      0x20\n      add\n      dup1\n      dup4\n      gt\n      tag_109\n      jumpi\n      dup3\n      swap1\n      sub\n      0x1f\n      and\n      dup3\n      add\n      swap2\n    tag_107:\n      pop\n      pop\n      pop\n      pop\n      pop\n      dup2\n      mstore\n      pop\n      pop\n      swap1\n      pop\n        /* \"ethereum/contracts/criminal_records.sol\":2152:2251  function getData() public view returns (CriminalData memory) {\r... */\n      swap1\n      jump\t// out\n        /* \"ethereum/contracts/criminal_records.sol\":2259:2368  function getRecords() public view returns (CriminalRecord[] memory) {\r... */\n    tag_15:\n        /* \"ethereum/contracts/criminal_records.sol\":2302:2325  CriminalRecord[] memory */\n      0x60\n        /* \"ethereum/contracts/criminal_records.sol\":2345:2360  criminalRecords */\n      0x26\n        /* \"ethereum/contracts/criminal_records.sol\":2338:2360  return criminalRecords */\n      dup1\n      sload\n      dup1\n      0x20\n      mul\n      0x20\n      add\n      mload(0x40)\n      swap1\n      dup2\n      add\n      0x40\n      mstore\n      dup1\n      swap3\n      swap2\n      swap1\n      dup2\n      dup2\n      mstore\n      0x20\n      add\n      0x00\n      swap1\n    tag_111:\n      dup3\n      dup3\n      lt\n      iszero\n      tag_112\n      jumpi\n      dup4\n      dup3\n      swap1\n      0x00\n      mstore\n      keccak256(0x00, 0x20)\n      swap1\n      0x05\n      mul\n      add\n      mload(0x40)\n      dup1\n      0xa0\n      add\n      0x40\n      mstore\n      swap1\n      dup2\n      0x00\n      dup3\n      add\n      dup1\n      sload\n      tag_114\n      swap1\n      tag_30\n      jump\t// in\n    tag_114:\n      dup1\n      0x1f\n      add\n      0x20\n      dup1\n      swap2\n      div\n      mul\n      0x20\n      add\n      mload(0x40)\n      swap1\n      dup2\n      add\n      0x40\n      mstore\n      dup1\n      swap3\n      swap2\n      swap1\n      dup2\n      dup2\n      mstore\n      0x20\n      add\n      dup3\n      dup1\n      sload\n      tag_115\n      swap1\n      tag_30\n      jump\t// in\n    tag_115:\n      dup1\n      iszero\n      tag_116\n      jumpi\n      dup1\n      0x1f\n      lt\n      tag_117\n      jumpi\n      0x0100\n      dup1\n      dup4\n      sload\n      div\n      mul\n      dup4\n      mstore\n      swap2\n      0x20\n      add\n      swap2\n      jump(tag_116)\n    tag_117:\n      dup3\n      add\n      swap2\n      swap1\n      0x00\n      mstore\n      keccak256(0x00, 0x20)\n      swap1\n    tag_118:\n      dup2\n      sload\n      dup2\n      mstore\n      swap1\n      0x01\n      add\n      swap1\n      0x20\n      add\n      dup1\n      dup4\n      gt\n      tag_118\n      jumpi\n      dup3\n      swap1\n      sub\n      0x1f\n      and\n      dup3\n      add\n      swap2\n    tag_116:\n      pop\n      pop\n      pop\n      pop\n      pop\n      dup2\n      mstore\n      0x20\n      add\n      0x01\n      dup3\n      add\n      dup1\n      sload\n      tag_119\n      swap1\n      tag_30\n      jump\t// in\n    tag_119:\n      dup1\n      0x1f\n      add\n      0x20\n      dup1\n      swap2\n      div\n      mul\n      0x20\n      add\n      mload(0x40)\n      swap1\n      dup2\n      add\n      0x40\n      mstore\n      dup1\n      swap3\n      swap2\n      swap1\n      dup2\n      dup2\n      mstore\n      0x20\n      add\n      dup3\n      dup1\n      sload\n      tag_120\n      swap1\n      tag_30\n      jump\t// in\n    tag_120:\n      dup1\n      iszero\n      tag_121\n      jumpi\n      dup1\n      0x1f\n      lt\n      tag_122\n      jumpi\n      0x0100\n      dup1\n      dup4\n      sload\n      div\n      mul\n      dup4\n      mstore\n      swap2\n      0x20\n      add\n      swap2\n      jump(tag_121)\n    tag_122:\n      dup3\n      add\n      swap2\n      swap1\n      0x00\n      mstore\n      keccak256(0x00, 0x20)\n      swap1\n    tag_123:\n      dup2\n      sload\n      dup2\n      mstore\n      swap1\n      0x01\n      add\n      swap1\n      0x20\n      add\n      dup1\n      dup4\n      gt\n      tag_123\n      jumpi\n      dup3\n      swap1\n      sub\n      0x1f\n      and\n      dup3\n      add\n      swap2\n    tag_121:\n      pop\n      pop\n      pop\n      pop\n      pop\n      dup2\n      mstore\n      0x20\n      add\n      0x02\n      dup3\n      add\n      dup1\n      sload\n      tag_124\n      swap1\n      tag_30\n      jump\t// in\n    tag_124:\n      dup1\n      0x1f\n      add\n      0x20\n      dup1\n      swap2\n      div\n      mul\n      0x20\n      add\n      mload(0x40)\n      swap1\n      dup2\n      add\n      0x40\n      mstore\n      dup1\n      swap3\n      swap2\n      swap1\n      dup2\n      dup2\n      mstore\n      0x20\n      add\n      dup3\n      dup1\n      sload\n      tag_125\n      swap1\n      tag_30\n      jump\t// in\n    tag_125:\n      dup1\n      iszero\n      tag_126\n      jumpi\n      dup1\n      0x1f\n      lt\n      tag_127\n      jumpi\n      0x0100\n      dup1\n      dup4\n      sload\n      div\n      mul\n      dup4\n      mstore\n      swap2\n      0x20\n      add\n      swap2\n      jump(tag_126)\n    tag_127:\n      dup3\n      add\n      swap2\n      swap1\n      0x00\n      mstore\n      keccak256(0x00, 0x20)\n      swap1\n    tag_128:\n      dup2\n      sload\n      dup2\n      mstore\n      swap1\n      0x01\n      add\n      swap1\n      0x20\n      add\n      dup1\n      dup4\n      gt\n      tag_128\n      jumpi\n      dup3\n      swap1\n      sub\n      0x1f\n      and\n      dup3\n      add\n      swap2\n    tag_126:\n      pop\n      pop\n      pop\n      pop\n      pop\n      dup2\n      mstore\n      0x20\n      add\n      0x03\n      dup3\n      add\n      dup1\n      sload\n      tag_129\n      swap1\n      tag_30\n      jump\t// in\n    tag_129:\n      dup1\n      0x1f\n      add\n      0x20\n      dup1\n      swap2\n      div\n      mul\n      0x20\n      add\n      mload(0x40)\n      swap1\n      dup2\n      add\n      0x40\n      mstore\n      dup1\n      swap3\n      swap2\n      swap1\n      dup2\n      dup2\n      mstore\n      0x20\n      add\n      dup3\n      dup1\n      sload\n      tag_130\n      swap1\n      tag_30\n      jump\t// in\n    tag_130:\n      dup1\n      iszero\n      tag_131\n      jumpi\n      dup1\n      0x1f\n      lt\n      tag_132\n      jumpi\n      0x0100\n      dup1\n      dup4\n      sload\n      div\n      mul\n      dup4\n      mstore\n      swap2\n      0x20\n      add\n      swap2\n      jump(tag_131)\n    tag_132:\n      dup3\n      add\n      swap2\n      swap1\n      0x00\n      mstore\n      keccak256(0x00, 0x20)\n      swap1\n    tag_133:\n      dup2\n      sload\n      dup2\n      mstore\n      swap1\n      0x01\n      add\n      swap1\n      0x20\n      add\n      dup1\n      dup4\n      gt\n      tag_133\n      jumpi\n      dup3\n      swap1\n      sub\n      0x1f\n      and\n      dup3\n      add\n      swap2\n    tag_131:\n      pop\n      pop\n      pop\n      pop\n      pop\n      dup2\n      mstore\n      0x20\n      add\n      0x04\n      dup3\n      add\n      dup1\n      sload\n      tag_134\n      swap1\n      tag_30\n      jump\t// in\n    tag_134:\n      dup1\n      0x1f\n      add\n      0x20\n      dup1\n      swap2\n      div\n      mul\n      0x20\n      add\n      mload(0x40)\n      swap1\n      dup2\n      add\n      0x40\n      mstore\n      dup1\n      swap3\n      swap2\n      swap1\n      dup2\n      dup2\n      mstore\n      0x20\n      add\n      dup3\n      dup1\n      sload\n      tag_135\n      swap1\n      tag_30\n      jump\t// in\n    tag_135:\n      dup1\n      iszero\n      tag_136\n      jumpi\n      dup1\n      0x1f\n      lt\n      tag_137\n      jumpi\n      0x0100\n      dup1\n      dup4\n      sload\n      div\n      mul\n      dup4\n      mstore\n      swap2\n      0x20\n      add\n      swap2\n      jump(tag_136)\n    tag_137:\n      dup3\n      add\n      swap2\n      swap1\n      0x00\n      mstore\n      keccak256(0x00, 0x20)\n      swap1\n    tag_138:\n      dup2\n      sload\n      dup2\n      mstore\n      swap1\n      0x01\n      add\n      swap1\n      0x20\n      add\n      dup1\n      dup4\n      gt\n      tag_138\n      jumpi\n      dup3\n      swap1\n      sub\n      0x1f\n      and\n      dup3\n      add\n      swap2\n    tag_136:\n      pop\n      pop\n      pop\n      pop\n      pop\n      dup2\n      mstore\n      pop\n      pop\n      dup2\n      mstore\n      0x20\n      add\n      swap1\n      0x01\n      add\n      swap1\n      jump(tag_111)\n    tag_112:\n      pop\n      pop\n      pop\n      pop\n      swap1\n      pop\n        /* \"ethereum/contracts/criminal_records.sol\":2259:2368  function getRecords() public view returns (CriminalRecord[] memory) {\r... */\n      swap1\n      jump\t// out\n    tag_21:\n      dup3\n      dup1\n      sload\n      tag_139\n      swap1\n      tag_30\n      jump\t// in\n    tag_139:\n      swap1\n      0x00\n      mstore\n      keccak256(0x00, 0x20)\n      swap1\n      0x1f\n      add\n      0x20\n      swap1\n      div\n      dup2\n      add\n      swap3\n      dup3\n      tag_141\n      jumpi\n      0x00\n      dup6\n      sstore\n      jump(tag_140)\n    tag_141:\n      dup3\n      0x1f\n      lt\n      tag_142\n      jumpi\n      dup1\n      mload\n      not(0xff)\n      and\n      dup4\n      dup1\n      add\n      or\n      dup6\n      sstore\n      jump(tag_140)\n    tag_142:\n      dup3\n      dup1\n      add\n      0x01\n      add\n      dup6\n      sstore\n      dup3\n      iszero\n      tag_140\n      jumpi\n      swap2\n      dup3\n      add\n    tag_143:\n      dup3\n      dup2\n      gt\n      iszero\n      tag_144\n      jumpi\n      dup3\n      mload\n      dup3\n      sstore\n      swap2\n      0x20\n      add\n      swap2\n      swap1\n      0x01\n      add\n      swap1\n      jump(tag_143)\n    tag_144:\n    tag_140:\n      pop\n      swap1\n      pop\n      tag_145\n      swap2\n      swap1\n      tag_146\n      jump\t// in\n    tag_145:\n      pop\n      swap1\n      jump\t// out\n    tag_27:\n      mload(0x40)\n      dup1\n      0x0260\n      add\n      0x40\n      mstore\n      dup1\n      0x60\n      dup2\n      mstore\n      0x20\n      add\n      0x60\n      dup2\n      mstore\n      0x20\n      add\n      0x60\n      dup2\n      mstore\n      0x20\n      add\n      0x00\n      dup2\n      mstore\n      0x20\n      add\n      0x00\n      dup2\n      mstore\n      0x20\n      add\n      0x60\n      dup2\n      mstore\n      0x20\n      add\n      0x60\n      dup2\n      mstore\n      0x20\n      add\n      0x60\n      dup2\n      mstore\n      0x20\n      add\n      0x60\n      dup2\n      mstore\n      0x20\n      add\n      0x60\n      dup2\n      mstore\n      0x20\n      add\n      0x60\n      dup2\n      mstore\n      0x20\n      add\n      0x60\n      dup2\n      mstore\n      0x20\n      add\n      0x60\n      dup2\n      mstore\n      0x20\n      add\n      0x60\n      dup2\n      mstore\n      0x20\n      add\n      0x60\n      dup2\n      mstore\n      0x20\n      add\n      0x00\n      dup2\n      mstore\n      0x20\n      add\n      0x60\n      dup2\n      mstore\n      0x20\n      add\n      0x60\n      dup2\n      mstore\n      0x20\n      add\n      0x60\n      dup2\n      mstore\n      pop\n      swap1\n      jump\t// out\n    tag_146:\n    tag_147:\n      dup1\n      dup3\n      gt\n      iszero\n      tag_148\n      jumpi\n      0x00\n      dup2\n      0x00\n      swap1\n      sstore\n      pop\n      0x01\n      add\n      jump(tag_147)\n    tag_148:\n      pop\n      swap1\n      jump\t// out\n        /* \"#utility.yul\":21:574   */\n    tag_150:\n        /* \"#utility.yul\":79:87   */\n      0x00\n        /* \"#utility.yul\":89:95   */\n      dup1\n        /* \"#utility.yul\":139:142   */\n      dup4\n        /* \"#utility.yul\":132:136   */\n      0x1f\n        /* \"#utility.yul\":124:130   */\n      dup5\n        /* \"#utility.yul\":120:137   */\n      add\n        /* \"#utility.yul\":116:143   */\n      slt\n        /* \"#utility.yul\":106:108   */\n      tag_152\n      jumpi\n        /* \"#utility.yul\":147:226   */\n      tag_153\n      tag_154\n      jump\t// in\n    tag_153:\n        /* \"#utility.yul\":106:108   */\n    tag_152:\n        /* \"#utility.yul\":260:266   */\n      dup3\n        /* \"#utility.yul\":247:267   */\n      calldataload\n        /* \"#utility.yul\":237:267   */\n      swap1\n      pop\n        /* \"#utility.yul\":290:308   */\n      0xffffffffffffffff\n        /* \"#utility.yul\":282:288   */\n      dup2\n        /* \"#utility.yul\":279:309   */\n      gt\n        /* \"#utility.yul\":276:278   */\n      iszero\n      tag_155\n      jumpi\n        /* \"#utility.yul\":312:391   */\n      tag_156\n      tag_157\n      jump\t// in\n    tag_156:\n        /* \"#utility.yul\":276:278   */\n    tag_155:\n        /* \"#utility.yul\":426:430   */\n      0x20\n        /* \"#utility.yul\":418:424   */\n      dup4\n        /* \"#utility.yul\":414:431   */\n      add\n        /* \"#utility.yul\":402:431   */\n      swap2\n      pop\n        /* \"#utility.yul\":480:483   */\n      dup4\n        /* \"#utility.yul\":472:476   */\n      0x01\n        /* \"#utility.yul\":464:470   */\n      dup3\n        /* \"#utility.yul\":460:477   */\n      mul\n        /* \"#utility.yul\":450:458   */\n      dup4\n        /* \"#utility.yul\":446:478   */\n      add\n        /* \"#utility.yul\":443:484   */\n      gt\n        /* \"#utility.yul\":440:442   */\n      iszero\n      tag_158\n      jumpi\n        /* \"#utility.yul\":487:566   */\n      tag_159\n      tag_160\n      jump\t// in\n    tag_159:\n        /* \"#utility.yul\":440:442   */\n    tag_158:\n        /* \"#utility.yul\":96:574   */\n      swap3\n      pop\n      swap3\n      swap1\n      pop\n      jump\t// out\n        /* \"#utility.yul\":580:2491   */\n    tag_8:\n        /* \"#utility.yul\":735:741   */\n      0x00\n        /* \"#utility.yul\":743:749   */\n      dup1\n        /* \"#utility.yul\":751:757   */\n      0x00\n        /* \"#utility.yul\":759:765   */\n      dup1\n        /* \"#utility.yul\":767:773   */\n      0x00\n        /* \"#utility.yul\":775:781   */\n      dup1\n        /* \"#utility.yul\":783:789   */\n      0x00\n        /* \"#utility.yul\":791:797   */\n      dup1\n        /* \"#utility.yul\":799:805   */\n      0x00\n        /* \"#utility.yul\":807:813   */\n      dup1\n        /* \"#utility.yul\":856:859   */\n      0xa0\n        /* \"#utility.yul\":844:853   */\n      dup12\n        /* \"#utility.yul\":835:842   */\n      dup14\n        /* \"#utility.yul\":831:854   */\n      sub\n        /* \"#utility.yul\":827:860   */\n      slt\n        /* \"#utility.yul\":824:826   */\n      iszero\n      tag_162\n      jumpi\n        /* \"#utility.yul\":863:942   */\n      tag_163\n      tag_164\n      jump\t// in\n    tag_163:\n        /* \"#utility.yul\":824:826   */\n    tag_162:\n        /* \"#utility.yul\":1011:1012   */\n      0x00\n        /* \"#utility.yul\":1000:1009   */\n      dup12\n        /* \"#utility.yul\":996:1013   */\n      add\n        /* \"#utility.yul\":983:1014   */\n      calldataload\n        /* \"#utility.yul\":1041:1059   */\n      0xffffffffffffffff\n        /* \"#utility.yul\":1033:1039   */\n      dup2\n        /* \"#utility.yul\":1030:1060   */\n      gt\n        /* \"#utility.yul\":1027:1029   */\n      iszero\n      tag_165\n      jumpi\n        /* \"#utility.yul\":1063:1142   */\n      tag_166\n      tag_167\n      jump\t// in\n    tag_166:\n        /* \"#utility.yul\":1027:1029   */\n    tag_165:\n        /* \"#utility.yul\":1176:1241   */\n      tag_168\n        /* \"#utility.yul\":1233:1240   */\n      dup14\n        /* \"#utility.yul\":1224:1230   */\n      dup3\n        /* \"#utility.yul\":1213:1222   */\n      dup15\n        /* \"#utility.yul\":1209:1231   */\n      add\n        /* \"#utility.yul\":1176:1241   */\n      tag_150\n      jump\t// in\n    tag_168:\n        /* \"#utility.yul\":1158:1241   */\n      swap11\n      pop\n      swap11\n      pop\n        /* \"#utility.yul\":954:1251   */\n      pop\n        /* \"#utility.yul\":1318:1320   */\n      0x20\n        /* \"#utility.yul\":1307:1316   */\n      dup12\n        /* \"#utility.yul\":1303:1321   */\n      add\n        /* \"#utility.yul\":1290:1322   */\n      calldataload\n        /* \"#utility.yul\":1349:1367   */\n      0xffffffffffffffff\n        /* \"#utility.yul\":1341:1347   */\n      dup2\n        /* \"#utility.yul\":1338:1368   */\n      gt\n        /* \"#utility.yul\":1335:1337   */\n      iszero\n      tag_169\n      jumpi\n        /* \"#utility.yul\":1371:1450   */\n      tag_170\n      tag_167\n      jump\t// in\n    tag_170:\n        /* \"#utility.yul\":1335:1337   */\n    tag_169:\n        /* \"#utility.yul\":1484:1549   */\n      tag_171\n        /* \"#utility.yul\":1541:1548   */\n      dup14\n        /* \"#utility.yul\":1532:1538   */\n      dup3\n        /* \"#utility.yul\":1521:1530   */\n      dup15\n        /* \"#utility.yul\":1517:1539   */\n      add\n        /* \"#utility.yul\":1484:1549   */\n      tag_150\n      jump\t// in\n    tag_171:\n        /* \"#utility.yul\":1466:1549   */\n      swap9\n      pop\n      swap9\n      pop\n        /* \"#utility.yul\":1261:1559   */\n      pop\n        /* \"#utility.yul\":1626:1628   */\n      0x40\n        /* \"#utility.yul\":1615:1624   */\n      dup12\n        /* \"#utility.yul\":1611:1629   */\n      add\n        /* \"#utility.yul\":1598:1630   */\n      calldataload\n        /* \"#utility.yul\":1657:1675   */\n      0xffffffffffffffff\n        /* \"#utility.yul\":1649:1655   */\n      dup2\n        /* \"#utility.yul\":1646:1676   */\n      gt\n        /* \"#utility.yul\":1643:1645   */\n      iszero\n      tag_172\n      jumpi\n        /* \"#utility.yul\":1679:1758   */\n      tag_173\n      tag_167\n      jump\t// in\n    tag_173:\n        /* \"#utility.yul\":1643:1645   */\n    tag_172:\n        /* \"#utility.yul\":1792:1857   */\n      tag_174\n        /* \"#utility.yul\":1849:1856   */\n      dup14\n        /* \"#utility.yul\":1840:1846   */\n      dup3\n        /* \"#utility.yul\":1829:1838   */\n      dup15\n        /* \"#utility.yul\":1825:1847   */\n      add\n        /* \"#utility.yul\":1792:1857   */\n      tag_150\n      jump\t// in\n    tag_174:\n        /* \"#utility.yul\":1774:1857   */\n      swap7\n      pop\n      swap7\n      pop\n        /* \"#utility.yul\":1569:1867   */\n      pop\n        /* \"#utility.yul\":1934:1936   */\n      0x60\n        /* \"#utility.yul\":1923:1932   */\n      dup12\n        /* \"#utility.yul\":1919:1937   */\n      add\n        /* \"#utility.yul\":1906:1938   */\n      calldataload\n        /* \"#utility.yul\":1965:1983   */\n      0xffffffffffffffff\n        /* \"#utility.yul\":1957:1963   */\n      dup2\n        /* \"#utility.yul\":1954:1984   */\n      gt\n        /* \"#utility.yul\":1951:1953   */\n      iszero\n      tag_175\n      jumpi\n        /* \"#utility.yul\":1987:2066   */\n      tag_176\n      tag_167\n      jump\t// in\n    tag_176:\n        /* \"#utility.yul\":1951:1953   */\n    tag_175:\n        /* \"#utility.yul\":2100:2165   */\n      tag_177\n        /* \"#utility.yul\":2157:2164   */\n      dup14\n        /* \"#utility.yul\":2148:2154   */\n      dup3\n        /* \"#utility.yul\":2137:2146   */\n      dup15\n        /* \"#utility.yul\":2133:2155   */\n      add\n        /* \"#utility.yul\":2100:2165   */\n      tag_150\n      jump\t// in\n    tag_177:\n        /* \"#utility.yul\":2082:2165   */\n      swap5\n      pop\n      swap5\n      pop\n        /* \"#utility.yul\":1877:2175   */\n      pop\n        /* \"#utility.yul\":2242:2245   */\n      0x80\n        /* \"#utility.yul\":2231:2240   */\n      dup12\n        /* \"#utility.yul\":2227:2246   */\n      add\n        /* \"#utility.yul\":2214:2247   */\n      calldataload\n        /* \"#utility.yul\":2274:2292   */\n      0xffffffffffffffff\n        /* \"#utility.yul\":2266:2272   */\n      dup2\n        /* \"#utility.yul\":2263:2293   */\n      gt\n        /* \"#utility.yul\":2260:2262   */\n      iszero\n      tag_178\n      jumpi\n        /* \"#utility.yul\":2296:2375   */\n      tag_179\n      tag_167\n      jump\t// in\n    tag_179:\n        /* \"#utility.yul\":2260:2262   */\n    tag_178:\n        /* \"#utility.yul\":2409:2474   */\n      tag_180\n        /* \"#utility.yul\":2466:2473   */\n      dup14\n        /* \"#utility.yul\":2457:2463   */\n      dup3\n        /* \"#utility.yul\":2446:2455   */\n      dup15\n        /* \"#utility.yul\":2442:2464   */\n      add\n        /* \"#utility.yul\":2409:2474   */\n      tag_150\n      jump\t// in\n    tag_180:\n        /* \"#utility.yul\":2391:2474   */\n      swap3\n      pop\n      swap3\n      pop\n        /* \"#utility.yul\":2185:2484   */\n      pop\n        /* \"#utility.yul\":814:2491   */\n      swap3\n      swap6\n      swap9\n      swap12\n      swap2\n      swap5\n      swap8\n      swap11\n      pop\n      swap3\n      swap6\n      swap9\n      pop\n      jump\t// out\n        /* \"#utility.yul\":2497:2773   */\n    tag_181:\n        /* \"#utility.yul\":2626:2636   */\n      0x00\n        /* \"#utility.yul\":2661:2767   */\n      tag_183\n        /* \"#utility.yul\":2763:2766   */\n      dup4\n        /* \"#utility.yul\":2755:2761   */\n      dup4\n        /* \"#utility.yul\":2661:2767   */\n      tag_184\n      jump\t// in\n    tag_183:\n        /* \"#utility.yul\":2647:2767   */\n      swap1\n      pop\n        /* \"#utility.yul\":2637:2773   */\n      swap3\n      swap2\n      pop\n      pop\n      jump\t// out\n        /* \"#utility.yul\":2855:4006   */\n    tag_185:\n        /* \"#utility.yul\":3034:3037   */\n      0x00\n        /* \"#utility.yul\":3063:3147   */\n      tag_187\n        /* \"#utility.yul\":3141:3146   */\n      dup3\n        /* \"#utility.yul\":3063:3147   */\n      tag_188\n      jump\t// in\n    tag_187:\n        /* \"#utility.yul\":3163:3279   */\n      tag_189\n        /* \"#utility.yul\":3272:3278   */\n      dup2\n        /* \"#utility.yul\":3267:3270   */\n      dup6\n        /* \"#utility.yul\":3163:3279   */\n      tag_190\n      jump\t// in\n    tag_189:\n        /* \"#utility.yul\":3156:3279   */\n      swap4\n      pop\n        /* \"#utility.yul\":3305:3308   */\n      dup4\n        /* \"#utility.yul\":3350:3354   */\n      0x20\n        /* \"#utility.yul\":3342:3348   */\n      dup3\n        /* \"#utility.yul\":3338:3355   */\n      mul\n        /* \"#utility.yul\":3333:3336   */\n      dup6\n        /* \"#utility.yul\":3329:3356   */\n      add\n        /* \"#utility.yul\":3380:3466   */\n      tag_191\n        /* \"#utility.yul\":3460:3465   */\n      dup6\n        /* \"#utility.yul\":3380:3466   */\n      tag_192\n      jump\t// in\n    tag_191:\n        /* \"#utility.yul\":3489:3496   */\n      dup1\n        /* \"#utility.yul\":3520:3521   */\n      0x00\n        /* \"#utility.yul\":3505:3961   */\n    tag_193:\n        /* \"#utility.yul\":3530:3536   */\n      dup6\n        /* \"#utility.yul\":3527:3528   */\n      dup2\n        /* \"#utility.yul\":3524:3537   */\n      lt\n        /* \"#utility.yul\":3505:3961   */\n      iszero\n      tag_195\n      jumpi\n        /* \"#utility.yul\":3601:3610   */\n      dup5\n        /* \"#utility.yul\":3595:3599   */\n      dup5\n        /* \"#utility.yul\":3591:3611   */\n      sub\n        /* \"#utility.yul\":3586:3589   */\n      dup10\n        /* \"#utility.yul\":3579:3612   */\n      mstore\n        /* \"#utility.yul\":3652:3658   */\n      dup2\n        /* \"#utility.yul\":3646:3659   */\n      mload\n        /* \"#utility.yul\":3680:3804   */\n      tag_196\n        /* \"#utility.yul\":3799:3803   */\n      dup6\n        /* \"#utility.yul\":3784:3797   */\n      dup3\n        /* \"#utility.yul\":3680:3804   */\n      tag_181\n      jump\t// in\n    tag_196:\n        /* \"#utility.yul\":3672:3804   */\n      swap5\n      pop\n        /* \"#utility.yul\":3827:3917   */\n      tag_197\n        /* \"#utility.yul\":3910:3916   */\n      dup4\n        /* \"#utility.yul\":3827:3917   */\n      tag_198\n      jump\t// in\n    tag_197:\n        /* \"#utility.yul\":3817:3917   */\n      swap3\n      pop\n        /* \"#utility.yul\":3946:3950   */\n      0x20\n        /* \"#utility.yul\":3941:3944   */\n      dup11\n        /* \"#utility.yul\":3937:3951   */\n      add\n        /* \"#utility.yul\":3930:3951   */\n      swap10\n      pop\n        /* \"#utility.yul\":3565:3961   */\n      pop\n        /* \"#utility.yul\":3552:3553   */\n      0x01\n        /* \"#utility.yul\":3549:3550   */\n      dup2\n        /* \"#utility.yul\":3545:3554   */\n      add\n        /* \"#utility.yul\":3540:3554   */\n      swap1\n      pop\n        /* \"#utility.yul\":3505:3961   */\n      jump(tag_193)\n    tag_195:\n        /* \"#utility.yul\":3509:3523   */\n      pop\n        /* \"#utility.yul\":3977:3981   */\n      dup3\n        /* \"#utility.yul\":3970:3981   */\n      swap8\n      pop\n        /* \"#utility.yul\":3997:4000   */\n      dup8\n        /* \"#utility.yul\":3990:4000   */\n      swap6\n      pop\n        /* \"#utility.yul\":3039:4006   */\n      pop\n      pop\n      pop\n      pop\n      pop\n      swap3\n      swap2\n      pop\n      pop\n      jump\t// out\n        /* \"#utility.yul\":4012:4356   */\n    tag_199:\n        /* \"#utility.yul\":4090:4093   */\n      0x00\n        /* \"#utility.yul\":4118:4157   */\n      tag_201\n        /* \"#utility.yul\":4151:4156   */\n      dup3\n        /* \"#utility.yul\":4118:4157   */\n      tag_202\n      jump\t// in\n    tag_201:\n        /* \"#utility.yul\":4173:4234   */\n      tag_203\n        /* \"#utility.yul\":4227:4233   */\n      dup2\n        /* \"#utility.yul\":4222:4225   */\n      dup6\n        /* \"#utility.yul\":4173:4234   */\n      tag_204\n      jump\t// in\n    tag_203:\n        /* \"#utility.yul\":4166:4234   */\n      swap4\n      pop\n        /* \"#utility.yul\":4243:4295   */\n      tag_205\n        /* \"#utility.yul\":4288:4294   */\n      dup2\n        /* \"#utility.yul\":4283:4286   */\n      dup6\n        /* \"#utility.yul\":4276:4280   */\n      0x20\n        /* \"#utility.yul\":4269:4274   */\n      dup7\n        /* \"#utility.yul\":4265:4281   */\n      add\n        /* \"#utility.yul\":4243:4295   */\n      tag_206\n      jump\t// in\n    tag_205:\n        /* \"#utility.yul\":4320:4349   */\n      tag_207\n        /* \"#utility.yul\":4342:4348   */\n      dup2\n        /* \"#utility.yul\":4320:4349   */\n      tag_208\n      jump\t// in\n    tag_207:\n        /* \"#utility.yul\":4315:4318   */\n      dup5\n        /* \"#utility.yul\":4311:4350   */\n      add\n        /* \"#utility.yul\":4304:4350   */\n      swap2\n      pop\n        /* \"#utility.yul\":4094:4356   */\n      pop\n      swap3\n      swap2\n      pop\n      pop\n      jump\t// out\n        /* \"#utility.yul\":4412:9200   */\n    tag_209:\n        /* \"#utility.yul\":4537:4540   */\n      0x00\n        /* \"#utility.yul\":4573:4579   */\n      0x0260\n        /* \"#utility.yul\":4568:4571   */\n      dup4\n        /* \"#utility.yul\":4564:4580   */\n      add\n        /* \"#utility.yul\":4668:4672   */\n      0x00\n        /* \"#utility.yul\":4661:4666   */\n      dup4\n        /* \"#utility.yul\":4657:4673   */\n      add\n        /* \"#utility.yul\":4651:4674   */\n      mload\n        /* \"#utility.yul\":4721:4724   */\n      dup5\n        /* \"#utility.yul\":4715:4719   */\n      dup3\n        /* \"#utility.yul\":4711:4725   */\n      sub\n        /* \"#utility.yul\":4704:4708   */\n      0x00\n        /* \"#utility.yul\":4699:4702   */\n      dup7\n        /* \"#utility.yul\":4695:4709   */\n      add\n        /* \"#utility.yul\":4688:4726   */\n      mstore\n        /* \"#utility.yul\":4747:4820   */\n      tag_211\n        /* \"#utility.yul\":4815:4819   */\n      dup3\n        /* \"#utility.yul\":4801:4813   */\n      dup3\n        /* \"#utility.yul\":4747:4820   */\n      tag_199\n      jump\t// in\n    tag_211:\n        /* \"#utility.yul\":4739:4820   */\n      swap2\n      pop\n        /* \"#utility.yul\":4590:4831   */\n      pop\n        /* \"#utility.yul\":4913:4917   */\n      0x20\n        /* \"#utility.yul\":4906:4911   */\n      dup4\n        /* \"#utility.yul\":4902:4918   */\n      add\n        /* \"#utility.yul\":4896:4919   */\n      mload\n        /* \"#utility.yul\":4966:4969   */\n      dup5\n        /* \"#utility.yul\":4960:4964   */\n      dup3\n        /* \"#utility.yul\":4956:4970   */\n      sub\n        /* \"#utility.yul\":4949:4953   */\n      0x20\n        /* \"#utility.yul\":4944:4947   */\n      dup7\n        /* \"#utility.yul\":4940:4954   */\n      add\n        /* \"#utility.yul\":4933:4971   */\n      mstore\n        /* \"#utility.yul\":4992:5065   */\n      tag_212\n        /* \"#utility.yul\":5060:5064   */\n      dup3\n        /* \"#utility.yul\":5046:5058   */\n      dup3\n        /* \"#utility.yul\":4992:5065   */\n      tag_199\n      jump\t// in\n    tag_212:\n        /* \"#utility.yul\":4984:5065   */\n      swap2\n      pop\n        /* \"#utility.yul\":4841:5076   */\n      pop\n        /* \"#utility.yul\":5164:5168   */\n      0x40\n        /* \"#utility.yul\":5157:5162   */\n      dup4\n        /* \"#utility.yul\":5153:5169   */\n      add\n        /* \"#utility.yul\":5147:5170   */\n      mload\n        /* \"#utility.yul\":5217:5220   */\n      dup5\n        /* \"#utility.yul\":5211:5215   */\n      dup3\n        /* \"#utility.yul\":5207:5221   */\n      sub\n        /* \"#utility.yul\":5200:5204   */\n      0x40\n        /* \"#utility.yul\":5195:5198   */\n      dup7\n        /* \"#utility.yul\":5191:5205   */\n      add\n        /* \"#utility.yul\":5184:5222   */\n      mstore\n        /* \"#utility.yul\":5243:5316   */\n      tag_213\n        /* \"#utility.yul\":5311:5315   */\n      dup3\n        /* \"#utility.yul\":5297:5309   */\n      dup3\n        /* \"#utility.yul\":5243:5316   */\n      tag_199\n      jump\t// in\n    tag_213:\n        /* \"#utility.yul\":5235:5316   */\n      swap2\n      pop\n        /* \"#utility.yul\":5086:5327   */\n      pop\n        /* \"#utility.yul\":5408:5412   */\n      0x60\n        /* \"#utility.yul\":5401:5406   */\n      dup4\n        /* \"#utility.yul\":5397:5413   */\n      add\n        /* \"#utility.yul\":5391:5414   */\n      mload\n        /* \"#utility.yul\":5427:5490   */\n      tag_214\n        /* \"#utility.yul\":5484:5488   */\n      0x60\n        /* \"#utility.yul\":5479:5482   */\n      dup7\n        /* \"#utility.yul\":5475:5489   */\n      add\n        /* \"#utility.yul\":5461:5473   */\n      dup3\n        /* \"#utility.yul\":5427:5490   */\n      tag_215\n      jump\t// in\n    tag_214:\n        /* \"#utility.yul\":5337:5500   */\n      pop\n        /* \"#utility.yul\":5584:5588   */\n      0x80\n        /* \"#utility.yul\":5577:5582   */\n      dup4\n        /* \"#utility.yul\":5573:5589   */\n      add\n        /* \"#utility.yul\":5567:5590   */\n      mload\n        /* \"#utility.yul\":5603:5666   */\n      tag_216\n        /* \"#utility.yul\":5660:5664   */\n      0x80\n        /* \"#utility.yul\":5655:5658   */\n      dup7\n        /* \"#utility.yul\":5651:5665   */\n      add\n        /* \"#utility.yul\":5637:5649   */\n      dup3\n        /* \"#utility.yul\":5603:5666   */\n      tag_215\n      jump\t// in\n    tag_216:\n        /* \"#utility.yul\":5510:5676   */\n      pop\n        /* \"#utility.yul\":5765:5769   */\n      0xa0\n        /* \"#utility.yul\":5758:5763   */\n      dup4\n        /* \"#utility.yul\":5754:5770   */\n      add\n        /* \"#utility.yul\":5748:5771   */\n      mload\n        /* \"#utility.yul\":5818:5821   */\n      dup5\n        /* \"#utility.yul\":5812:5816   */\n      dup3\n        /* \"#utility.yul\":5808:5822   */\n      sub\n        /* \"#utility.yul\":5801:5805   */\n      0xa0\n        /* \"#utility.yul\":5796:5799   */\n      dup7\n        /* \"#utility.yul\":5792:5806   */\n      add\n        /* \"#utility.yul\":5785:5823   */\n      mstore\n        /* \"#utility.yul\":5844:5917   */\n      tag_217\n        /* \"#utility.yul\":5912:5916   */\n      dup3\n        /* \"#utility.yul\":5898:5910   */\n      dup3\n        /* \"#utility.yul\":5844:5917   */\n      tag_199\n      jump\t// in\n    tag_217:\n        /* \"#utility.yul\":5836:5917   */\n      swap2\n      pop\n        /* \"#utility.yul\":5686:5928   */\n      pop\n        /* \"#utility.yul\":6017:6021   */\n      0xc0\n        /* \"#utility.yul\":6010:6015   */\n      dup4\n        /* \"#utility.yul\":6006:6022   */\n      add\n        /* \"#utility.yul\":6000:6023   */\n      mload\n        /* \"#utility.yul\":6070:6073   */\n      dup5\n        /* \"#utility.yul\":6064:6068   */\n      dup3\n        /* \"#utility.yul\":6060:6074   */\n      sub\n        /* \"#utility.yul\":6053:6057   */\n      0xc0\n        /* \"#utility.yul\":6048:6051   */\n      dup7\n        /* \"#utility.yul\":6044:6058   */\n      add\n        /* \"#utility.yul\":6037:6075   */\n      mstore\n        /* \"#utility.yul\":6096:6169   */\n      tag_218\n        /* \"#utility.yul\":6164:6168   */\n      dup3\n        /* \"#utility.yul\":6150:6162   */\n      dup3\n        /* \"#utility.yul\":6096:6169   */\n      tag_199\n      jump\t// in\n    tag_218:\n        /* \"#utility.yul\":6088:6169   */\n      swap2\n      pop\n        /* \"#utility.yul\":5938:6180   */\n      pop\n        /* \"#utility.yul\":6269:6273   */\n      0xe0\n        /* \"#utility.yul\":6262:6267   */\n      dup4\n        /* \"#utility.yul\":6258:6274   */\n      add\n        /* \"#utility.yul\":6252:6275   */\n      mload\n        /* \"#utility.yul\":6322:6325   */\n      dup5\n        /* \"#utility.yul\":6316:6320   */\n      dup3\n        /* \"#utility.yul\":6312:6326   */\n      sub\n        /* \"#utility.yul\":6305:6309   */\n      0xe0\n        /* \"#utility.yul\":6300:6303   */\n      dup7\n        /* \"#utility.yul\":6296:6310   */\n      add\n        /* \"#utility.yul\":6289:6327   */\n      mstore\n        /* \"#utility.yul\":6348:6421   */\n      tag_219\n        /* \"#utility.yul\":6416:6420   */\n      dup3\n        /* \"#utility.yul\":6402:6414   */\n      dup3\n        /* \"#utility.yul\":6348:6421   */\n      tag_199\n      jump\t// in\n    tag_219:\n        /* \"#utility.yul\":6340:6421   */\n      swap2\n      pop\n        /* \"#utility.yul\":6190:6432   */\n      pop\n        /* \"#utility.yul\":6518:6524   */\n      0x0100\n        /* \"#utility.yul\":6511:6516   */\n      dup4\n        /* \"#utility.yul\":6507:6525   */\n      add\n        /* \"#utility.yul\":6501:6526   */\n      mload\n        /* \"#utility.yul\":6575:6578   */\n      dup5\n        /* \"#utility.yul\":6569:6573   */\n      dup3\n        /* \"#utility.yul\":6565:6579   */\n      sub\n        /* \"#utility.yul\":6556:6562   */\n      0x0100\n        /* \"#utility.yul\":6551:6554   */\n      dup7\n        /* \"#utility.yul\":6547:6563   */\n      add\n        /* \"#utility.yul\":6540:6580   */\n      mstore\n        /* \"#utility.yul\":6601:6674   */\n      tag_220\n        /* \"#utility.yul\":6669:6673   */\n      dup3\n        /* \"#utility.yul\":6655:6667   */\n      dup3\n        /* \"#utility.yul\":6601:6674   */\n      tag_199\n      jump\t// in\n    tag_220:\n        /* \"#utility.yul\":6593:6674   */\n      swap2\n      pop\n        /* \"#utility.yul\":6442:6685   */\n      pop\n        /* \"#utility.yul\":6772:6778   */\n      0x0120\n        /* \"#utility.yul\":6765:6770   */\n      dup4\n        /* \"#utility.yul\":6761:6779   */\n      add\n        /* \"#utility.yul\":6755:6780   */\n      mload\n        /* \"#utility.yul\":6829:6832   */\n      dup5\n        /* \"#utility.yul\":6823:6827   */\n      dup3\n        /* \"#utility.yul\":6819:6833   */\n      sub\n        /* \"#utility.yul\":6810:6816   */\n      0x0120\n        /* \"#utility.yul\":6805:6808   */\n      dup7\n        /* \"#utility.yul\":6801:6817   */\n      add\n        /* \"#utility.yul\":6794:6834   */\n      mstore\n        /* \"#utility.yul\":6855:6928   */\n      tag_221\n        /* \"#utility.yul\":6923:6927   */\n      dup3\n        /* \"#utility.yul\":6909:6921   */\n      dup3\n        /* \"#utility.yul\":6855:6928   */\n      tag_199\n      jump\t// in\n    tag_221:\n        /* \"#utility.yul\":6847:6928   */\n      swap2\n      pop\n        /* \"#utility.yul\":6695:6939   */\n      pop\n        /* \"#utility.yul\":7032:7038   */\n      0x0140\n        /* \"#utility.yul\":7025:7030   */\n      dup4\n        /* \"#utility.yul\":7021:7039   */\n      add\n        /* \"#utility.yul\":7015:7040   */\n      mload\n        /* \"#utility.yul\":7089:7092   */\n      dup5\n        /* \"#utility.yul\":7083:7087   */\n      dup3\n        /* \"#utility.yul\":7079:7093   */\n      sub\n        /* \"#utility.yul\":7070:7076   */\n      0x0140\n        /* \"#utility.yul\":7065:7068   */\n      dup7\n        /* \"#utility.yul\":7061:7077   */\n      add\n        /* \"#utility.yul\":7054:7094   */\n      mstore\n        /* \"#utility.yul\":7115:7188   */\n      tag_222\n        /* \"#utility.yul\":7183:7187   */\n      dup3\n        /* \"#utility.yul\":7169:7181   */\n      dup3\n        /* \"#utility.yul\":7115:7188   */\n      tag_199\n      jump\t// in\n    tag_222:\n        /* \"#utility.yul\":7107:7188   */\n      swap2\n      pop\n        /* \"#utility.yul\":6949:7199   */\n      pop\n        /* \"#utility.yul\":7285:7291   */\n      0x0160\n        /* \"#utility.yul\":7278:7283   */\n      dup4\n        /* \"#utility.yul\":7274:7292   */\n      add\n        /* \"#utility.yul\":7268:7293   */\n      mload\n        /* \"#utility.yul\":7342:7345   */\n      dup5\n        /* \"#utility.yul\":7336:7340   */\n      dup3\n        /* \"#utility.yul\":7332:7346   */\n      sub\n        /* \"#utility.yul\":7323:7329   */\n      0x0160\n        /* \"#utility.yul\":7318:7321   */\n      dup7\n        /* \"#utility.yul\":7314:7330   */\n      add\n        /* \"#utility.yul\":7307:7347   */\n      mstore\n        /* \"#utility.yul\":7368:7441   */\n      tag_223\n        /* \"#utility.yul\":7436:7440   */\n      dup3\n        /* \"#utility.yul\":7422:7434   */\n      dup3\n        /* \"#utility.yul\":7368:7441   */\n      tag_199\n      jump\t// in\n    tag_223:\n        /* \"#utility.yul\":7360:7441   */\n      swap2\n      pop\n        /* \"#utility.yul\":7209:7452   */\n      pop\n        /* \"#utility.yul\":7538:7544   */\n      0x0180\n        /* \"#utility.yul\":7531:7536   */\n      dup4\n        /* \"#utility.yul\":7527:7545   */\n      add\n        /* \"#utility.yul\":7521:7546   */\n      mload\n        /* \"#utility.yul\":7595:7598   */\n      dup5\n        /* \"#utility.yul\":7589:7593   */\n      dup3\n        /* \"#utility.yul\":7585:7599   */\n      sub\n        /* \"#utility.yul\":7576:7582   */\n      0x0180\n        /* \"#utility.yul\":7571:7574   */\n      dup7\n        /* \"#utility.yul\":7567:7583   */\n      add\n        /* \"#utility.yul\":7560:7600   */\n      mstore\n        /* \"#utility.yul\":7621:7694   */\n      tag_224\n        /* \"#utility.yul\":7689:7693   */\n      dup3\n        /* \"#utility.yul\":7675:7687   */\n      dup3\n        /* \"#utility.yul\":7621:7694   */\n      tag_199\n      jump\t// in\n    tag_224:\n        /* \"#utility.yul\":7613:7694   */\n      swap2\n      pop\n        /* \"#utility.yul\":7462:7705   */\n      pop\n        /* \"#utility.yul\":7801:7807   */\n      0x01a0\n        /* \"#utility.yul\":7794:7799   */\n      dup4\n        /* \"#utility.yul\":7790:7808   */\n      add\n        /* \"#utility.yul\":7784:7809   */\n      mload\n        /* \"#utility.yul\":7858:7861   */\n      dup5\n        /* \"#utility.yul\":7852:7856   */\n      dup3\n        /* \"#utility.yul\":7848:7862   */\n      sub\n        /* \"#utility.yul\":7839:7845   */\n      0x01a0\n        /* \"#utility.yul\":7834:7837   */\n      dup7\n        /* \"#utility.yul\":7830:7846   */\n      add\n        /* \"#utility.yul\":7823:7863   */\n      mstore\n        /* \"#utility.yul\":7884:7957   */\n      tag_225\n        /* \"#utility.yul\":7952:7956   */\n      dup3\n        /* \"#utility.yul\":7938:7950   */\n      dup3\n        /* \"#utility.yul\":7884:7957   */\n      tag_199\n      jump\t// in\n    tag_225:\n        /* \"#utility.yul\":7876:7957   */\n      swap2\n      pop\n        /* \"#utility.yul\":7715:7968   */\n      pop\n        /* \"#utility.yul\":8054:8060   */\n      0x01c0\n        /* \"#utility.yul\":8047:8052   */\n      dup4\n        /* \"#utility.yul\":8043:8061   */\n      add\n        /* \"#utility.yul\":8037:8062   */\n      mload\n        /* \"#utility.yul\":8111:8114   */\n      dup5\n        /* \"#utility.yul\":8105:8109   */\n      dup3\n        /* \"#utility.yul\":8101:8115   */\n      sub\n        /* \"#utility.yul\":8092:8098   */\n      0x01c0\n        /* \"#utility.yul\":8087:8090   */\n      dup7\n        /* \"#utility.yul\":8083:8099   */\n      add\n        /* \"#utility.yul\":8076:8116   */\n      mstore\n        /* \"#utility.yul\":8137:8210   */\n      tag_226\n        /* \"#utility.yul\":8205:8209   */\n      dup3\n        /* \"#utility.yul\":8191:8203   */\n      dup3\n        /* \"#utility.yul\":8137:8210   */\n      tag_199\n      jump\t// in\n    tag_226:\n        /* \"#utility.yul\":8129:8210   */\n      swap2\n      pop\n        /* \"#utility.yul\":7978:8221   */\n      pop\n        /* \"#utility.yul\":8305:8311   */\n      0x01e0\n        /* \"#utility.yul\":8298:8303   */\n      dup4\n        /* \"#utility.yul\":8294:8312   */\n      add\n        /* \"#utility.yul\":8288:8313   */\n      mload\n        /* \"#utility.yul\":8326:8391   */\n      tag_227\n        /* \"#utility.yul\":8383:8389   */\n      0x01e0\n        /* \"#utility.yul\":8378:8381   */\n      dup7\n        /* \"#utility.yul\":8374:8390   */\n      add\n        /* \"#utility.yul\":8360:8372   */\n      dup3\n        /* \"#utility.yul\":8326:8391   */\n      tag_215\n      jump\t// in\n    tag_227:\n        /* \"#utility.yul\":8231:8401   */\n      pop\n        /* \"#utility.yul\":8493:8499   */\n      0x0200\n        /* \"#utility.yul\":8486:8491   */\n      dup4\n        /* \"#utility.yul\":8482:8500   */\n      add\n        /* \"#utility.yul\":8476:8501   */\n      mload\n        /* \"#utility.yul\":8550:8553   */\n      dup5\n        /* \"#utility.yul\":8544:8548   */\n      dup3\n        /* \"#utility.yul\":8540:8554   */\n      sub\n        /* \"#utility.yul\":8531:8537   */\n      0x0200\n        /* \"#utility.yul\":8526:8529   */\n      dup7\n        /* \"#utility.yul\":8522:8538   */\n      add\n        /* \"#utility.yul\":8515:8555   */\n      mstore\n        /* \"#utility.yul\":8576:8649   */\n      tag_228\n        /* \"#utility.yul\":8644:8648   */\n      dup3\n        /* \"#utility.yul\":8630:8642   */\n      dup3\n        /* \"#utility.yul\":8576:8649   */\n      tag_199\n      jump\t// in\n    tag_228:\n        /* \"#utility.yul\":8568:8649   */\n      swap2\n      pop\n        /* \"#utility.yul\":8411:8660   */\n      pop\n        /* \"#utility.yul\":8749:8755   */\n      0x0220\n        /* \"#utility.yul\":8742:8747   */\n      dup4\n        /* \"#utility.yul\":8738:8756   */\n      add\n        /* \"#utility.yul\":8732:8757   */\n      mload\n        /* \"#utility.yul\":8806:8809   */\n      dup5\n        /* \"#utility.yul\":8800:8804   */\n      dup3\n        /* \"#utility.yul\":8796:8810   */\n      sub\n        /* \"#utility.yul\":8787:8793   */\n      0x0220\n        /* \"#utility.yul\":8782:8785   */\n      dup7\n        /* \"#utility.yul\":8778:8794   */\n      add\n        /* \"#utility.yul\":8771:8811   */\n      mstore\n        /* \"#utility.yul\":8832:8905   */\n      tag_229\n        /* \"#utility.yul\":8900:8904   */\n      dup3\n        /* \"#utility.yul\":8886:8898   */\n      dup3\n        /* \"#utility.yul\":8832:8905   */\n      tag_199\n      jump\t// in\n    tag_229:\n        /* \"#utility.yul\":8824:8905   */\n      swap2\n      pop\n        /* \"#utility.yul\":8670:8916   */\n      pop\n        /* \"#utility.yul\":9006:9012   */\n      0x0240\n        /* \"#utility.yul\":8999:9004   */\n      dup4\n        /* \"#utility.yul\":8995:9013   */\n      add\n        /* \"#utility.yul\":8989:9014   */\n      mload\n        /* \"#utility.yul\":9063:9066   */\n      dup5\n        /* \"#utility.yul\":9057:9061   */\n      dup3\n        /* \"#utility.yul\":9053:9067   */\n      sub\n        /* \"#utility.yul\":9044:9050   */\n      0x0240\n        /* \"#utility.yul\":9039:9042   */\n      dup7\n        /* \"#utility.yul\":9035:9051   */\n      add\n        /* \"#utility.yul\":9028:9068   */\n      mstore\n        /* \"#utility.yul\":9089:9162   */\n      tag_230\n        /* \"#utility.yul\":9157:9161   */\n      dup3\n        /* \"#utility.yul\":9143:9155   */\n      dup3\n        /* \"#utility.yul\":9089:9162   */\n      tag_199\n      jump\t// in\n    tag_230:\n        /* \"#utility.yul\":9081:9162   */\n      swap2\n      pop\n        /* \"#utility.yul\":8926:9173   */\n      pop\n        /* \"#utility.yul\":9190:9194   */\n      dup1\n        /* \"#utility.yul\":9183:9194   */\n      swap2\n      pop\n        /* \"#utility.yul\":4542:9200   */\n      pop\n      swap3\n      swap2\n      pop\n      pop\n      jump\t// out\n        /* \"#utility.yul\":9278:10710   */\n    tag_184:\n        /* \"#utility.yul\":9397:9400   */\n      0x00\n        /* \"#utility.yul\":9433:9437   */\n      0xa0\n        /* \"#utility.yul\":9428:9431   */\n      dup4\n        /* \"#utility.yul\":9424:9438   */\n      add\n        /* \"#utility.yul\":9527:9531   */\n      0x00\n        /* \"#utility.yul\":9520:9525   */\n      dup4\n        /* \"#utility.yul\":9516:9532   */\n      add\n        /* \"#utility.yul\":9510:9533   */\n      mload\n        /* \"#utility.yul\":9580:9583   */\n      dup5\n        /* \"#utility.yul\":9574:9578   */\n      dup3\n        /* \"#utility.yul\":9570:9584   */\n      sub\n        /* \"#utility.yul\":9563:9567   */\n      0x00\n        /* \"#utility.yul\":9558:9561   */\n      dup7\n        /* \"#utility.yul\":9554:9568   */\n      add\n        /* \"#utility.yul\":9547:9585   */\n      mstore\n        /* \"#utility.yul\":9606:9679   */\n      tag_232\n        /* \"#utility.yul\":9674:9678   */\n      dup3\n        /* \"#utility.yul\":9660:9672   */\n      dup3\n        /* \"#utility.yul\":9606:9679   */\n      tag_199\n      jump\t// in\n    tag_232:\n        /* \"#utility.yul\":9598:9679   */\n      swap2\n      pop\n        /* \"#utility.yul\":9448:9690   */\n      pop\n        /* \"#utility.yul\":9772:9776   */\n      0x20\n        /* \"#utility.yul\":9765:9770   */\n      dup4\n        /* \"#utility.yul\":9761:9777   */\n      add\n        /* \"#utility.yul\":9755:9778   */\n      mload\n        /* \"#utility.yul\":9825:9828   */\n      dup5\n        /* \"#utility.yul\":9819:9823   */\n      dup3\n        /* \"#utility.yul\":9815:9829   */\n      sub\n        /* \"#utility.yul\":9808:9812   */\n      0x20\n        /* \"#utility.yul\":9803:9806   */\n      dup7\n        /* \"#utility.yul\":9799:9813   */\n      add\n        /* \"#utility.yul\":9792:9830   */\n      mstore\n        /* \"#utility.yul\":9851:9924   */\n      tag_233\n        /* \"#utility.yul\":9919:9923   */\n      dup3\n        /* \"#utility.yul\":9905:9917   */\n      dup3\n        /* \"#utility.yul\":9851:9924   */\n      tag_199\n      jump\t// in\n    tag_233:\n        /* \"#utility.yul\":9843:9924   */\n      swap2\n      pop\n        /* \"#utility.yul\":9700:9935   */\n      pop\n        /* \"#utility.yul\":10026:10030   */\n      0x40\n        /* \"#utility.yul\":10019:10024   */\n      dup4\n        /* \"#utility.yul\":10015:10031   */\n      add\n        /* \"#utility.yul\":10009:10032   */\n      mload\n        /* \"#utility.yul\":10079:10082   */\n      dup5\n        /* \"#utility.yul\":10073:10077   */\n      dup3\n        /* \"#utility.yul\":10069:10083   */\n      sub\n        /* \"#utility.yul\":10062:10066   */\n      0x40\n        /* \"#utility.yul\":10057:10060   */\n      dup7\n        /* \"#utility.yul\":10053:10067   */\n      add\n        /* \"#utility.yul\":10046:10084   */\n      mstore\n        /* \"#utility.yul\":10105:10178   */\n      tag_234\n        /* \"#utility.yul\":10173:10177   */\n      dup3\n        /* \"#utility.yul\":10159:10171   */\n      dup3\n        /* \"#utility.yul\":10105:10178   */\n      tag_199\n      jump\t// in\n    tag_234:\n        /* \"#utility.yul\":10097:10178   */\n      swap2\n      pop\n        /* \"#utility.yul\":9945:10189   */\n      pop\n        /* \"#utility.yul\":10271:10275   */\n      0x60\n        /* \"#utility.yul\":10264:10269   */\n      dup4\n        /* \"#utility.yul\":10260:10276   */\n      add\n        /* \"#utility.yul\":10254:10277   */\n      mload\n        /* \"#utility.yul\":10324:10327   */\n      dup5\n        /* \"#utility.yul\":10318:10322   */\n      dup3\n        /* \"#utility.yul\":10314:10328   */\n      sub\n        /* \"#utility.yul\":10307:10311   */\n      0x60\n        /* \"#utility.yul\":10302:10305   */\n      dup7\n        /* \"#utility.yul\":10298:10312   */\n      add\n        /* \"#utility.yul\":10291:10329   */\n      mstore\n        /* \"#utility.yul\":10350:10423   */\n      tag_235\n        /* \"#utility.yul\":10418:10422   */\n      dup3\n        /* \"#utility.yul\":10404:10416   */\n      dup3\n        /* \"#utility.yul\":10350:10423   */\n      tag_199\n      jump\t// in\n    tag_235:\n        /* \"#utility.yul\":10342:10423   */\n      swap2\n      pop\n        /* \"#utility.yul\":10199:10434   */\n      pop\n        /* \"#utility.yul\":10520:10524   */\n      0x80\n        /* \"#utility.yul\":10513:10518   */\n      dup4\n        /* \"#utility.yul\":10509:10525   */\n      add\n        /* \"#utility.yul\":10503:10526   */\n      mload\n        /* \"#utility.yul\":10573:10576   */\n      dup5\n        /* \"#utility.yul\":10567:10571   */\n      dup3\n        /* \"#utility.yul\":10563:10577   */\n      sub\n        /* \"#utility.yul\":10556:10560   */\n      0x80\n        /* \"#utility.yul\":10551:10554   */\n      dup7\n        /* \"#utility.yul\":10547:10561   */\n      add\n        /* \"#utility.yul\":10540:10578   */\n      mstore\n        /* \"#utility.yul\":10599:10672   */\n      tag_236\n        /* \"#utility.yul\":10667:10671   */\n      dup3\n        /* \"#utility.yul\":10653:10665   */\n      dup3\n        /* \"#utility.yul\":10599:10672   */\n      tag_199\n      jump\t// in\n    tag_236:\n        /* \"#utility.yul\":10591:10672   */\n      swap2\n      pop\n        /* \"#utility.yul\":10444:10683   */\n      pop\n        /* \"#utility.yul\":10700:10704   */\n      dup1\n        /* \"#utility.yul\":10693:10704   */\n      swap2\n      pop\n        /* \"#utility.yul\":9402:10710   */\n      pop\n      swap3\n      swap2\n      pop\n      pop\n      jump\t// out\n        /* \"#utility.yul\":10716:10824   */\n    tag_215:\n        /* \"#utility.yul\":10793:10817   */\n      tag_238\n        /* \"#utility.yul\":10811:10816   */\n      dup2\n        /* \"#utility.yul\":10793:10817   */\n      tag_239\n      jump\t// in\n    tag_238:\n        /* \"#utility.yul\":10788:10791   */\n      dup3\n        /* \"#utility.yul\":10781:10818   */\n      mstore\n        /* \"#utility.yul\":10771:10824   */\n      pop\n      pop\n      jump\t// out\n        /* \"#utility.yul\":10830:11323   */\n    tag_17:\n        /* \"#utility.yul\":11033:11037   */\n      0x00\n        /* \"#utility.yul\":11071:11073   */\n      0x20\n        /* \"#utility.yul\":11060:11069   */\n      dup3\n        /* \"#utility.yul\":11056:11074   */\n      add\n        /* \"#utility.yul\":11048:11074   */\n      swap1\n      pop\n        /* \"#utility.yul\":11120:11129   */\n      dup2\n        /* \"#utility.yul\":11114:11118   */\n      dup2\n        /* \"#utility.yul\":11110:11130   */\n      sub\n        /* \"#utility.yul\":11106:11107   */\n      0x00\n        /* \"#utility.yul\":11095:11104   */\n      dup4\n        /* \"#utility.yul\":11091:11108   */\n      add\n        /* \"#utility.yul\":11084:11131   */\n      mstore\n        /* \"#utility.yul\":11148:11316   */\n      tag_241\n        /* \"#utility.yul\":11311:11315   */\n      dup2\n        /* \"#utility.yul\":11302:11308   */\n      dup5\n        /* \"#utility.yul\":11148:11316   */\n      tag_185\n      jump\t// in\n    tag_241:\n        /* \"#utility.yul\":11140:11316   */\n      swap1\n      pop\n        /* \"#utility.yul\":11038:11323   */\n      swap3\n      swap2\n      pop\n      pop\n      jump\t// out\n        /* \"#utility.yul\":11329:11714   */\n    tag_13:\n        /* \"#utility.yul\":11478:11482   */\n      0x00\n        /* \"#utility.yul\":11516:11518   */\n      0x20\n        /* \"#utility.yul\":11505:11514   */\n      dup3\n        /* \"#utility.yul\":11501:11519   */\n      add\n        /* \"#utility.yul\":11493:11519   */\n      swap1\n      pop\n        /* \"#utility.yul\":11565:11574   */\n      dup2\n        /* \"#utility.yul\":11559:11563   */\n      dup2\n        /* \"#utility.yul\":11555:11575   */\n      sub\n        /* \"#utility.yul\":11551:11552   */\n      0x00\n        /* \"#utility.yul\":11540:11549   */\n      dup4\n        /* \"#utility.yul\":11536:11553   */\n      add\n        /* \"#utility.yul\":11529:11576   */\n      mstore\n        /* \"#utility.yul\":11593:11707   */\n      tag_243\n        /* \"#utility.yul\":11702:11706   */\n      dup2\n        /* \"#utility.yul\":11693:11699   */\n      dup5\n        /* \"#utility.yul\":11593:11707   */\n      tag_209\n      jump\t// in\n    tag_243:\n        /* \"#utility.yul\":11585:11707   */\n      swap1\n      pop\n        /* \"#utility.yul\":11483:11714   */\n      swap3\n      swap2\n      pop\n      pop\n      jump\t// out\n        /* \"#utility.yul\":11801:11963   */\n    tag_192:\n        /* \"#utility.yul\":11898:11902   */\n      0x00\n        /* \"#utility.yul\":11921:11924   */\n      dup2\n        /* \"#utility.yul\":11913:11924   */\n      swap1\n      pop\n        /* \"#utility.yul\":11951:11955   */\n      0x20\n        /* \"#utility.yul\":11946:11949   */\n      dup3\n        /* \"#utility.yul\":11942:11956   */\n      add\n        /* \"#utility.yul\":11934:11956   */\n      swap1\n      pop\n        /* \"#utility.yul\":11903:11963   */\n      swap2\n      swap1\n      pop\n      jump\t// out\n        /* \"#utility.yul\":11969:12113   */\n    tag_188:\n        /* \"#utility.yul\":12066:12072   */\n      0x00\n        /* \"#utility.yul\":12100:12105   */\n      dup2\n        /* \"#utility.yul\":12094:12106   */\n      mload\n        /* \"#utility.yul\":12084:12106   */\n      swap1\n      pop\n        /* \"#utility.yul\":12073:12113   */\n      swap2\n      swap1\n      pop\n      jump\t// out\n        /* \"#utility.yul\":12119:12218   */\n    tag_202:\n        /* \"#utility.yul\":12171:12177   */\n      0x00\n        /* \"#utility.yul\":12205:12210   */\n      dup2\n        /* \"#utility.yul\":12199:12211   */\n      mload\n        /* \"#utility.yul\":12189:12211   */\n      swap1\n      pop\n        /* \"#utility.yul\":12178:12218   */\n      swap2\n      swap1\n      pop\n      jump\t// out\n        /* \"#utility.yul\":12224:12367   */\n    tag_198:\n        /* \"#utility.yul\":12324:12328   */\n      0x00\n        /* \"#utility.yul\":12356:12360   */\n      0x20\n        /* \"#utility.yul\":12351:12354   */\n      dup3\n        /* \"#utility.yul\":12347:12361   */\n      add\n        /* \"#utility.yul\":12339:12361   */\n      swap1\n      pop\n        /* \"#utility.yul\":12329:12367   */\n      swap2\n      swap1\n      pop\n      jump\t// out\n        /* \"#utility.yul\":12373:12587   */\n    tag_190:\n        /* \"#utility.yul\":12502:12513   */\n      0x00\n        /* \"#utility.yul\":12536:12542   */\n      dup3\n        /* \"#utility.yul\":12531:12534   */\n      dup3\n        /* \"#utility.yul\":12524:12543   */\n      mstore\n        /* \"#utility.yul\":12576:12580   */\n      0x20\n        /* \"#utility.yul\":12571:12574   */\n      dup3\n        /* \"#utility.yul\":12567:12581   */\n      add\n        /* \"#utility.yul\":12552:12581   */\n      swap1\n      pop\n        /* \"#utility.yul\":12514:12587   */\n      swap3\n      swap2\n      pop\n      pop\n      jump\t// out\n        /* \"#utility.yul\":12593:12752   */\n    tag_204:\n        /* \"#utility.yul\":12667:12678   */\n      0x00\n        /* \"#utility.yul\":12701:12707   */\n      dup3\n        /* \"#utility.yul\":12696:12699   */\n      dup3\n        /* \"#utility.yul\":12689:12708   */\n      mstore\n        /* \"#utility.yul\":12741:12745   */\n      0x20\n        /* \"#utility.yul\":12736:12739   */\n      dup3\n        /* \"#utility.yul\":12732:12746   */\n      add\n        /* \"#utility.yul\":12717:12746   */\n      swap1\n      pop\n        /* \"#utility.yul\":12679:12752   */\n      swap3\n      swap2\n      pop\n      pop\n      jump\t// out\n        /* \"#utility.yul\":12758:12835   */\n    tag_239:\n        /* \"#utility.yul\":12795:12802   */\n      0x00\n        /* \"#utility.yul\":12824:12829   */\n      dup2\n        /* \"#utility.yul\":12813:12829   */\n      swap1\n      pop\n        /* \"#utility.yul\":12803:12835   */\n      swap2\n      swap1\n      pop\n      jump\t// out\n        /* \"#utility.yul\":12841:13148   */\n    tag_206:\n        /* \"#utility.yul\":12909:12910   */\n      0x00\n        /* \"#utility.yul\":12919:13032   */\n    tag_254:\n        /* \"#utility.yul\":12933:12939   */\n      dup4\n        /* \"#utility.yul\":12930:12931   */\n      dup2\n        /* \"#utility.yul\":12927:12940   */\n      lt\n        /* \"#utility.yul\":12919:13032   */\n      iszero\n      tag_256\n      jumpi\n        /* \"#utility.yul\":13018:13019   */\n      dup1\n        /* \"#utility.yul\":13013:13016   */\n      dup3\n        /* \"#utility.yul\":13009:13020   */\n      add\n        /* \"#utility.yul\":13003:13021   */\n      mload\n        /* \"#utility.yul\":12999:13000   */\n      dup2\n        /* \"#utility.yul\":12994:12997   */\n      dup5\n        /* \"#utility.yul\":12990:13001   */\n      add\n        /* \"#utility.yul\":12983:13022   */\n      mstore\n        /* \"#utility.yul\":12955:12957   */\n      0x20\n        /* \"#utility.yul\":12952:12953   */\n      dup2\n        /* \"#utility.yul\":12948:12958   */\n      add\n        /* \"#utility.yul\":12943:12958   */\n      swap1\n      pop\n        /* \"#utility.yul\":12919:13032   */\n      jump(tag_254)\n    tag_256:\n        /* \"#utility.yul\":13050:13056   */\n      dup4\n        /* \"#utility.yul\":13047:13048   */\n      dup2\n        /* \"#utility.yul\":13044:13057   */\n      gt\n        /* \"#utility.yul\":13041:13043   */\n      iszero\n      tag_257\n      jumpi\n        /* \"#utility.yul\":13130:13131   */\n      0x00\n        /* \"#utility.yul\":13121:13127   */\n      dup5\n        /* \"#utility.yul\":13116:13119   */\n      dup5\n        /* \"#utility.yul\":13112:13128   */\n      add\n        /* \"#utility.yul\":13105:13132   */\n      mstore\n        /* \"#utility.yul\":13041:13043   */\n    tag_257:\n        /* \"#utility.yul\":12890:13148   */\n      pop\n      pop\n      pop\n      pop\n      jump\t// out\n        /* \"#utility.yul\":13154:13474   */\n    tag_30:\n        /* \"#utility.yul\":13198:13204   */\n      0x00\n        /* \"#utility.yul\":13235:13236   */\n      0x02\n        /* \"#utility.yul\":13229:13233   */\n      dup3\n        /* \"#utility.yul\":13225:13237   */\n      div\n        /* \"#utility.yul\":13215:13237   */\n      swap1\n      pop\n        /* \"#utility.yul\":13282:13283   */\n      0x01\n        /* \"#utility.yul\":13276:13280   */\n      dup3\n        /* \"#utility.yul\":13272:13284   */\n      and\n        /* \"#utility.yul\":13303:13321   */\n      dup1\n        /* \"#utility.yul\":13293:13295   */\n      tag_259\n      jumpi\n        /* \"#utility.yul\":13359:13363   */\n      0x7f\n        /* \"#utility.yul\":13351:13357   */\n      dup3\n        /* \"#utility.yul\":13347:13364   */\n      and\n        /* \"#utility.yul\":13337:13364   */\n      swap2\n      pop\n        /* \"#utility.yul\":13293:13295   */\n    tag_259:\n        /* \"#utility.yul\":13421:13423   */\n      0x20\n        /* \"#utility.yul\":13413:13419   */\n      dup3\n        /* \"#utility.yul\":13410:13424   */\n      lt\n        /* \"#utility.yul\":13390:13408   */\n      dup2\n        /* \"#utility.yul\":13387:13425   */\n      eq\n        /* \"#utility.yul\":13384:13386   */\n      iszero\n      tag_260\n      jumpi\n        /* \"#utility.yul\":13440:13458   */\n      tag_261\n      tag_262\n      jump\t// in\n    tag_261:\n        /* \"#utility.yul\":13384:13386   */\n    tag_260:\n        /* \"#utility.yul\":13205:13474   */\n      pop\n      swap2\n      swap1\n      pop\n      jump\t// out\n        /* \"#utility.yul\":13480:13660   */\n    tag_262:\n        /* \"#utility.yul\":13528:13605   */\n      0x4e487b7100000000000000000000000000000000000000000000000000000000\n        /* \"#utility.yul\":13525:13526   */\n      0x00\n        /* \"#utility.yul\":13518:13606   */\n      mstore\n        /* \"#utility.yul\":13625:13629   */\n      0x22\n        /* \"#utility.yul\":13622:13623   */\n      0x04\n        /* \"#utility.yul\":13615:13630   */\n      mstore\n        /* \"#utility.yul\":13649:13653   */\n      0x24\n        /* \"#utility.yul\":13646:13647   */\n      0x00\n        /* \"#utility.yul\":13639:13654   */\n      revert\n        /* \"#utility.yul\":13666:13783   */\n    tag_157:\n        /* \"#utility.yul\":13775:13776   */\n      0x00\n        /* \"#utility.yul\":13772:13773   */\n      dup1\n        /* \"#utility.yul\":13765:13777   */\n      revert\n        /* \"#utility.yul\":13789:13906   */\n    tag_154:\n        /* \"#utility.yul\":13898:13899   */\n      0x00\n        /* \"#utility.yul\":13895:13896   */\n      dup1\n        /* \"#utility.yul\":13888:13900   */\n      revert\n        /* \"#utility.yul\":13912:14029   */\n    tag_160:\n        /* \"#utility.yul\":14021:14022   */\n      0x00\n        /* \"#utility.yul\":14018:14019   */\n      dup1\n        /* \"#utility.yul\":14011:14023   */\n      revert\n        /* \"#utility.yul\":14035:14152   */\n    tag_167:\n        /* \"#utility.yul\":14144:14145   */\n      0x00\n        /* \"#utility.yul\":14141:14142   */\n      dup1\n        /* \"#utility.yul\":14134:14146   */\n      revert\n        /* \"#utility.yul\":14158:14275   */\n    tag_164:\n        /* \"#utility.yul\":14267:14268   */\n      0x00\n        /* \"#utility.yul\":14264:14265   */\n      dup1\n        /* \"#utility.yul\":14257:14269   */\n      revert\n        /* \"#utility.yul\":14281:14383   */\n    tag_208:\n        /* \"#utility.yul\":14322:14328   */\n      0x00\n        /* \"#utility.yul\":14373:14375   */\n      0x1f\n        /* \"#utility.yul\":14369:14376   */\n      not\n        /* \"#utility.yul\":14364:14366   */\n      0x1f\n        /* \"#utility.yul\":14357:14362   */\n      dup4\n        /* \"#utility.yul\":14353:14367   */\n      add\n        /* \"#utility.yul\":14349:14377   */\n      and\n        /* \"#utility.yul\":14339:14377   */\n      swap1\n      pop\n        /* \"#utility.yul\":14329:14383   */\n      swap2\n      swap1\n      pop\n      jump\t// out\n\n    auxdata: 0xa26469706673582212209da595e677d5168cbd1427a984367fc7459de8dd4fbc6ce887f8a7864f33780f64736f6c63430008060033\n}\n",
				"bytecode": {
					"linkReferences": {},
					"object": "60806040523480156200001157600080fd5b50604051620020a3380380620020a3833981810160405281019062000037919062000779565b8060136000820151816000019080519060200190620000589291906200025d565b506020820151816001019080519060200190620000779291906200025d565b506040820151816002019080519060200190620000969291906200025d565b50606082015181600301556080820151816004015560a0820151816005019080519060200190620000c99291906200025d565b5060c0820151816006019080519060200190620000e89291906200025d565b5060e0820151816007019080519060200190620001079291906200025d565b50610100820151816008019080519060200190620001279291906200025d565b50610120820151816009019080519060200190620001479291906200025d565b5061014082015181600a019080519060200190620001679291906200025d565b5061016082015181600b019080519060200190620001879291906200025d565b5061018082015181600c019080519060200190620001a79291906200025d565b506101a082015181600d019080519060200190620001c79291906200025d565b506101c082015181600e019080519060200190620001e79291906200025d565b506101e082015181600f0155610200820151816010019080519060200190620002129291906200025d565b50610220820151816011019080519060200190620002329291906200025d565b50610240820151816012019080519060200190620002529291906200025d565b50905050506200097c565b8280546200026b9062000869565b90600052602060002090601f0160209004810192826200028f5760008555620002db565b82601f10620002aa57805160ff1916838001178555620002db565b82800160010185558215620002db579182015b82811115620002da578251825591602001919060010190620002bd565b5b509050620002ea9190620002ee565b5090565b5b8082111562000309576000816000905550600101620002ef565b5090565b6000620003246200031e84620007f3565b620007ca565b90508281526020810184848401111562000343576200034262000942565b5b6200035084828562000833565b509392505050565b600082601f83011262000370576200036f62000933565b5b8151620003828482602086016200030d565b91505092915050565b60006102608284031215620003a557620003a462000938565b5b620003b2610260620007ca565b9050600082015167ffffffffffffffff811115620003d557620003d46200093d565b5b620003e38482850162000358565b600083015250602082015167ffffffffffffffff8111156200040a57620004096200093d565b5b620004188482850162000358565b602083015250604082015167ffffffffffffffff8111156200043f576200043e6200093d565b5b6200044d8482850162000358565b6040830152506060620004638482850162000762565b6060830152506080620004798482850162000762565b60808301525060a082015167ffffffffffffffff811115620004a0576200049f6200093d565b5b620004ae8482850162000358565b60a08301525060c082015167ffffffffffffffff811115620004d557620004d46200093d565b5b620004e38482850162000358565b60c08301525060e082015167ffffffffffffffff8111156200050a57620005096200093d565b5b620005188482850162000358565b60e08301525061010082015167ffffffffffffffff81111562000540576200053f6200093d565b5b6200054e8482850162000358565b6101008301525061012082015167ffffffffffffffff8111156200057757620005766200093d565b5b620005858482850162000358565b6101208301525061014082015167ffffffffffffffff811115620005ae57620005ad6200093d565b5b620005bc8482850162000358565b6101408301525061016082015167ffffffffffffffff811115620005e557620005e46200093d565b5b620005f38482850162000358565b6101608301525061018082015167ffffffffffffffff8111156200061c576200061b6200093d565b5b6200062a8482850162000358565b610180830152506101a082015167ffffffffffffffff8111156200065357620006526200093d565b5b620006618482850162000358565b6101a0830152506101c082015167ffffffffffffffff8111156200068a57620006896200093d565b5b620006988482850162000358565b6101c0830152506101e0620006b08482850162000762565b6101e08301525061020082015167ffffffffffffffff811115620006d957620006d86200093d565b5b620006e78482850162000358565b6102008301525061022082015167ffffffffffffffff81111562000710576200070f6200093d565b5b6200071e8482850162000358565b6102208301525061024082015167ffffffffffffffff8111156200074757620007466200093d565b5b620007558482850162000358565b6102408301525092915050565b600081519050620007738162000962565b92915050565b6000602082840312156200079257620007916200094c565b5b600082015167ffffffffffffffff811115620007b357620007b262000947565b5b620007c1848285016200038b565b91505092915050565b6000620007d6620007e9565b9050620007e482826200089f565b919050565b6000604051905090565b600067ffffffffffffffff82111562000811576200081062000904565b5b6200081c8262000951565b9050602081019050919050565b6000819050919050565b60005b838110156200085357808201518184015260208101905062000836565b8381111562000863576000848401525b50505050565b600060028204905060018216806200088257607f821691505b60208210811415620008995762000898620008d5565b5b50919050565b620008aa8262000951565b810181811067ffffffffffffffff82111715620008cc57620008cb62000904565b5b80604052505050565b7f4e487b7100000000000000000000000000000000000000000000000000000000600052602260045260246000fd5b7f4e487b7100000000000000000000000000000000000000000000000000000000600052604160045260246000fd5b600080fd5b600080fd5b600080fd5b600080fd5b600080fd5b600080fd5b6000601f19601f8301169050919050565b6200096d8162000829565b81146200097957600080fd5b50565b611717806200098c6000396000f3fe608060405234801561001057600080fd5b50600436106100415760003560e01c80632d1814f2146100465780633bc5de30146100625780638eff3c2914610080575b600080fd5b610060600480360381019061005b9190611100565b61009e565b005b61006a6102e3565b60405161007791906115a2565b60405180910390f35b610088610c3c565b6040516100959190611580565b60405180910390f35b60266040518060a001604052808c8c8080601f016020809104026020016040519081016040528093929190818152602001838380828437600081840152601f19601f8201169050808301925050505050505081526020018a8a8080601f016020809104026020016040519081016040528093929190818152602001838380828437600081840152601f19601f82011690508083019250505050505050815260200188888080601f016020809104026020016040519081016040528093929190818152602001838380828437600081840152601f19601f82011690508083019250505050505050815260200186868080601f016020809104026020016040519081016040528093929190818152602001838380828437600081840152601f19601f82011690508083019250505050505050815260200184848080601f016020809104026020016040519081016040528093929190818152602001838380828437600081840152601f19601f8201169050808301925050505050505081525090806001815401808255809150506001900390600052602060002090600502016000909190919091506000820151816000019080519060200190610260929190610f75565b50602082015181600101908051906020019061027d929190610f75565b50604082015181600201908051906020019061029a929190610f75565b5060608201518160030190805190602001906102b7929190610f75565b5060808201518160040190805190602001906102d4929190610f75565b50505050505050505050505050565b6102eb610ffb565b60136040518061026001604052908160008201805461030990611656565b80601f016020809104026020016040519081016040528092919081815260200182805461033590611656565b80156103825780601f1061035757610100808354040283529160200191610382565b820191906000526020600020905b81548152906001019060200180831161036557829003601f168201915b5050505050815260200160018201805461039b90611656565b80601f01602080910402602001604051908101604052809291908181526020018280546103c790611656565b80156104145780601f106103e957610100808354040283529160200191610414565b820191906000526020600020905b8154815290600101906020018083116103f757829003601f168201915b5050505050815260200160028201805461042d90611656565b80601f016020809104026020016040519081016040528092919081815260200182805461045990611656565b80156104a65780601f1061047b576101008083540402835291602001916104a6565b820191906000526020600020905b81548152906001019060200180831161048957829003601f168201915b5050505050815260200160038201548152602001600482015481526020016005820180546104d390611656565b80601f01602080910402602001604051908101604052809291908181526020018280546104ff90611656565b801561054c5780601f106105215761010080835404028352916020019161054c565b820191906000526020600020905b81548152906001019060200180831161052f57829003601f168201915b5050505050815260200160068201805461056590611656565b80601f016020809104026020016040519081016040528092919081815260200182805461059190611656565b80156105de5780601f106105b3576101008083540402835291602001916105de565b820191906000526020600020905b8154815290600101906020018083116105c157829003601f168201915b505050505081526020016007820180546105f790611656565b80601f016020809104026020016040519081016040528092919081815260200182805461062390611656565b80156106705780601f1061064557610100808354040283529160200191610670565b820191906000526020600020905b81548152906001019060200180831161065357829003601f168201915b5050505050815260200160088201805461068990611656565b80601f01602080910402602001604051908101604052809291908181526020018280546106b590611656565b80156107025780601f106106d757610100808354040283529160200191610702565b820191906000526020600020905b8154815290600101906020018083116106e557829003601f168201915b5050505050815260200160098201805461071b90611656565b80601f016020809104026020016040519081016040528092919081815260200182805461074790611656565b80156107945780601f1061076957610100808354040283529160200191610794565b820191906000526020600020905b81548152906001019060200180831161077757829003601f168201915b50505050508152602001600a820180546107ad90611656565b80601f01602080910402602001604051908101604052809291908181526020018280546107d990611656565b80156108265780601f106107fb57610100808354040283529160200191610826565b820191906000526020600020905b81548152906001019060200180831161080957829003601f168201915b50505050508152602001600b8201805461083f90611656565b80601f016020809104026020016040519081016040528092919081815260200182805461086b90611656565b80156108b85780601f1061088d576101008083540402835291602001916108b8565b820191906000526020600020905b81548152906001019060200180831161089b57829003601f168201915b50505050508152602001600c820180546108d190611656565b80601f01602080910402602001604051908101604052809291908181526020018280546108fd90611656565b801561094a5780601f1061091f5761010080835404028352916020019161094a565b820191906000526020600020905b81548152906001019060200180831161092d57829003601f168201915b50505050508152602001600d8201805461096390611656565b80601f016020809104026020016040519081016040528092919081815260200182805461098f90611656565b80156109dc5780601f106109b1576101008083540402835291602001916109dc565b820191906000526020600020905b8154815290600101906020018083116109bf57829003601f168201915b50505050508152602001600e820180546109f590611656565b80601f0160208091040260200160405190810160405280929190818152602001828054610a2190611656565b8015610a6e5780601f10610a4357610100808354040283529160200191610a6e565b820191906000526020600020905b815481529060010190602001808311610a5157829003601f168201915b50505050508152602001600f8201548152602001601082018054610a9190611656565b80601f0160208091040260200160405190810160405280929190818152602001828054610abd90611656565b8015610b0a5780601f10610adf57610100808354040283529160200191610b0a565b820191906000526020600020905b815481529060010190602001808311610aed57829003601f168201915b50505050508152602001601182018054610b2390611656565b80601f0160208091040260200160405190810160405280929190818152602001828054610b4f90611656565b8015610b9c5780601f10610b7157610100808354040283529160200191610b9c565b820191906000526020600020905b815481529060010190602001808311610b7f57829003601f168201915b50505050508152602001601282018054610bb590611656565b80601f0160208091040260200160405190810160405280929190818152602001828054610be190611656565b8015610c2e5780601f10610c0357610100808354040283529160200191610c2e565b820191906000526020600020905b815481529060010190602001808311610c1157829003601f168201915b505050505081525050905090565b60606026805480602002602001604051908101604052809291908181526020016000905b82821015610f6c57838290600052602060002090600502016040518060a0016040529081600082018054610c9390611656565b80601f0160208091040260200160405190810160405280929190818152602001828054610cbf90611656565b8015610d0c5780601f10610ce157610100808354040283529160200191610d0c565b820191906000526020600020905b815481529060010190602001808311610cef57829003601f168201915b50505050508152602001600182018054610d2590611656565b80601f0160208091040260200160405190810160405280929190818152602001828054610d5190611656565b8015610d9e5780601f10610d7357610100808354040283529160200191610d9e565b820191906000526020600020905b815481529060010190602001808311610d8157829003601f168201915b50505050508152602001600282018054610db790611656565b80601f0160208091040260200160405190810160405280929190818152602001828054610de390611656565b8015610e305780601f10610e0557610100808354040283529160200191610e30565b820191906000526020600020905b815481529060010190602001808311610e1357829003601f168201915b50505050508152602001600382018054610e4990611656565b80601f0160208091040260200160405190810160405280929190818152602001828054610e7590611656565b8015610ec25780601f10610e9757610100808354040283529160200191610ec2565b820191906000526020600020905b815481529060010190602001808311610ea557829003601f168201915b50505050508152602001600482018054610edb90611656565b80601f0160208091040260200160405190810160405280929190818152602001828054610f0790611656565b8015610f545780601f10610f2957610100808354040283529160200191610f54565b820191906000526020600020905b815481529060010190602001808311610f3757829003601f168201915b50505050508152505081526020019060010190610c60565b50505050905090565b828054610f8190611656565b90600052602060002090601f016020900481019282610fa35760008555610fea565b82601f10610fbc57805160ff1916838001178555610fea565b82800160010185558215610fea579182015b82811115610fe9578251825591602001919060010190610fce565b5b509050610ff7919061108d565b5090565b604051806102600160405280606081526020016060815260200160608152602001600081526020016000815260200160608152602001606081526020016060815260200160608152602001606081526020016060815260200160608152602001606081526020016060815260200160608152602001600081526020016060815260200160608152602001606081525090565b5b808211156110a657600081600090555060010161108e565b5090565b60008083601f8401126110c0576110bf6116bc565b5b8235905067ffffffffffffffff8111156110dd576110dc6116b7565b5b6020830191508360018202830111156110f9576110f86116c1565b5b9250929050565b60008060008060008060008060008060a08b8d031215611123576111226116cb565b5b60008b013567ffffffffffffffff811115611141576111406116c6565b5b61114d8d828e016110aa565b9a509a505060208b013567ffffffffffffffff8111156111705761116f6116c6565b5b61117c8d828e016110aa565b985098505060408b013567ffffffffffffffff81111561119f5761119e6116c6565b5b6111ab8d828e016110aa565b965096505060608b013567ffffffffffffffff8111156111ce576111cd6116c6565b5b6111da8d828e016110aa565b945094505060808b013567ffffffffffffffff8111156111fd576111fc6116c6565b5b6112098d828e016110aa565b92509250509295989b9194979a5092959850565b600061122983836114df565b905092915050565b600061123c826115d4565b61124681856115f7565b935083602082028501611258856115c4565b8060005b858110156112945784840389528151611275858261121d565b9450611280836115ea565b925060208a0199505060018101905061125c565b50829750879550505050505092915050565b60006112b1826115df565b6112bb8185611608565b93506112cb818560208601611623565b6112d4816116d0565b840191505092915050565b60006102608301600083015184820360008601526112fd82826112a6565b9150506020830151848203602086015261131782826112a6565b9150506040830151848203604086015261133182826112a6565b91505060608301516113466060860182611571565b5060808301516113596080860182611571565b5060a083015184820360a086015261137182826112a6565b91505060c083015184820360c086015261138b82826112a6565b91505060e083015184820360e08601526113a582826112a6565b9150506101008301518482036101008601526113c182826112a6565b9150506101208301518482036101208601526113dd82826112a6565b9150506101408301518482036101408601526113f982826112a6565b91505061016083015184820361016086015261141582826112a6565b91505061018083015184820361018086015261143182826112a6565b9150506101a08301518482036101a086015261144d82826112a6565b9150506101c08301518482036101c086015261146982826112a6565b9150506101e08301516114806101e0860182611571565b5061020083015184820361020086015261149a82826112a6565b9150506102208301518482036102208601526114b682826112a6565b9150506102408301518482036102408601526114d282826112a6565b9150508091505092915050565b600060a08301600083015184820360008601526114fc82826112a6565b9150506020830151848203602086015261151682826112a6565b9150506040830151848203604086015261153082826112a6565b9150506060830151848203606086015261154a82826112a6565b9150506080830151848203608086015261156482826112a6565b9150508091505092915050565b61157a81611619565b82525050565b6000602082019050818103600083015261159a8184611231565b905092915050565b600060208201905081810360008301526115bc81846112df565b905092915050565b6000819050602082019050919050565b600081519050919050565b600081519050919050565b6000602082019050919050565b600082825260208201905092915050565b600082825260208201905092915050565b6000819050919050565b60005b83811015611641578082015181840152602081019050611626565b83811115611650576000848401525b50505050565b6000600282049050600182168061166e57607f821691505b6020821081141561168257611681611688565b5b50919050565b7f4e487b7100000000000000000000000000000000000000000000000000000000600052602260045260246000fd5b600080fd5b600080fd5b600080fd5b600080fd5b600080fd5b6000601f19601f830116905091905056fea26469706673582212209da595e677d5168cbd1427a984367fc7459de8dd4fbc6ce887f8a7864f33780f64736f6c63430008060033",
					"opcodes": "PUSH1 0x80 PUSH1 0x40 MSTORE CALLVALUE DUP1 ISZERO PUSH3 0x11 JUMPI PUSH1 0x0 DUP1 REVERT JUMPDEST POP PUSH1 0x40 MLOAD PUSH3 0x20A3 CODESIZE SUB DUP1 PUSH3 0x20A3 DUP4 CODECOPY DUP2 DUP2 ADD PUSH1 0x40 MSTORE DUP2 ADD SWAP1 PUSH3 0x37 SWAP2 SWAP1 PUSH3 0x779 JUMP JUMPDEST DUP1 PUSH1 0x13 PUSH1 0x0 DUP3 ADD MLOAD DUP2 PUSH1 0x0 ADD SWAP1 DUP1 MLOAD SWAP1 PUSH1 0x20 ADD SWAP1 PUSH3 0x58 SWAP3 SWAP2 SWAP1 PUSH3 0x25D JUMP JUMPDEST POP PUSH1 0x20 DUP3 ADD MLOAD DUP2 PUSH1 0x1 ADD SWAP1 DUP1 MLOAD SWAP1 PUSH1 0x20 ADD SWAP1 PUSH3 0x77 SWAP3 SWAP2 SWAP1 PUSH3 0x25D JUMP JUMPDEST POP PUSH1 0x40 DUP3 ADD MLOAD DUP2 PUSH1 0x2 ADD SWAP1 DUP1 MLOAD SWAP1 PUSH1 0x20 ADD SWAP1 PUSH3 0x96 SWAP3 SWAP2 SWAP1 PUSH3 0x25D JUMP JUMPDEST POP PUSH1 0x60 DUP3 ADD MLOAD DUP2 PUSH1 0x3 ADD SSTORE PUSH1 0x80 DUP3 ADD MLOAD DUP2 PUSH1 0x4 ADD SSTORE PUSH1 0xA0 DUP3 ADD MLOAD DUP2 PUSH1 0x5 ADD SWAP1 DUP1 MLOAD SWAP1 PUSH1 0x20 ADD SWAP1 PUSH3 0xC9 SWAP3 SWAP2 SWAP1 PUSH3 0x25D JUMP JUMPDEST POP PUSH1 0xC0 DUP3 ADD MLOAD DUP2 PUSH1 0x6 ADD SWAP1 DUP1 MLOAD SWAP1 PUSH1 0x20 ADD SWAP1 PUSH3 0xE8 SWAP3 SWAP2 SWAP1 PUSH3 0x25D JUMP JUMPDEST POP PUSH1 0xE0 DUP3 ADD MLOAD DUP2 PUSH1 0x7 ADD SWAP1 DUP1 MLOAD SWAP1 PUSH1 0x20 ADD SWAP1 PUSH3 0x107 SWAP3 SWAP2 SWAP1 PUSH3 0x25D JUMP JUMPDEST POP PUSH2 0x100 DUP3 ADD MLOAD DUP2 PUSH1 0x8 ADD SWAP1 DUP1 MLOAD SWAP1 PUSH1 0x20 ADD SWAP1 PUSH3 0x127 SWAP3 SWAP2 SWAP1 PUSH3 0x25D JUMP JUMPDEST POP PUSH2 0x120 DUP3 ADD MLOAD DUP2 PUSH1 0x9 ADD SWAP1 DUP1 MLOAD SWAP1 PUSH1 0x20 ADD SWAP1 PUSH3 0x147 SWAP3 SWAP2 SWAP1 PUSH3 0x25D JUMP JUMPDEST POP PUSH2 0x140 DUP3 ADD MLOAD DUP2 PUSH1 0xA ADD SWAP1 DUP1 MLOAD SWAP1 PUSH1 0x20 ADD SWAP1 PUSH3 0x167 SWAP3 SWAP2 SWAP1 PUSH3 0x25D JUMP JUMPDEST POP PUSH2 0x160 DUP3 ADD MLOAD DUP2 PUSH1 0xB ADD SWAP1 DUP1 MLOAD SWAP1 PUSH1 0x20 ADD SWAP1 PUSH3 0x187 SWAP3 SWAP2 SWAP1 PUSH3 0x25D JUMP JUMPDEST POP PUSH2 0x180 DUP3 ADD MLOAD DUP2 PUSH1 0xC ADD SWAP1 DUP1 MLOAD SWAP1 PUSH1 0x20 ADD SWAP1 PUSH3 0x1A7 SWAP3 SWAP2 SWAP1 PUSH3 0x25D JUMP JUMPDEST POP PUSH2 0x1A0 DUP3 ADD MLOAD DUP2 PUSH1 0xD ADD SWAP1 DUP1 MLOAD SWAP1 PUSH1 0x20 ADD SWAP1 PUSH3 0x1C7 SWAP3 SWAP2 SWAP1 PUSH3 0x25D JUMP JUMPDEST POP PUSH2 0x1C0 DUP3 ADD MLOAD DUP2 PUSH1 0xE ADD SWAP1 DUP1 MLOAD SWAP1 PUSH1 0x20 ADD SWAP1 PUSH3 0x1E7 SWAP3 SWAP2 SWAP1 PUSH3 0x25D JUMP JUMPDEST POP PUSH2 0x1E0 DUP3 ADD MLOAD DUP2 PUSH1 0xF ADD SSTORE PUSH2 0x200 DUP3 ADD MLOAD DUP2 PUSH1 0x10 ADD SWAP1 DUP1 MLOAD SWAP1 PUSH1 0x20 ADD SWAP1 PUSH3 0x212 SWAP3 SWAP2 SWAP1 PUSH3 0x25D JUMP JUMPDEST POP PUSH2 0x220 DUP3 ADD MLOAD DUP2 PUSH1 0x11 ADD SWAP1 DUP1 MLOAD SWAP1 PUSH1 0x20 ADD SWAP1 PUSH3 0x232 SWAP3 SWAP2 SWAP1 PUSH3 0x25D JUMP JUMPDEST POP PUSH2 0x240 DUP3 ADD MLOAD DUP2 PUSH1 0x12 ADD SWAP1 DUP1 MLOAD SWAP1 PUSH1 0x20 ADD SWAP1 PUSH3 0x252 SWAP3 SWAP2 SWAP1 PUSH3 0x25D JUMP JUMPDEST POP SWAP1 POP POP POP PUSH3 0x97C JUMP JUMPDEST DUP3 DUP1 SLOAD PUSH3 0x26B SWAP1 PUSH3 0x869 JUMP JUMPDEST SWAP1 PUSH1 0x0 MSTORE PUSH1 0x20 PUSH1 0x0 KECCAK256 SWAP1 PUSH1 0x1F ADD PUSH1 0x20 SWAP1 DIV DUP2 ADD SWAP3 DUP3 PUSH3 0x28F JUMPI PUSH1 0x0 DUP6 SSTORE PUSH3 0x2DB JUMP JUMPDEST DUP3 PUSH1 0x1F LT PUSH3 0x2AA JUMPI DUP1 MLOAD PUSH1 0xFF NOT AND DUP4 DUP1 ADD OR DUP6 SSTORE PUSH3 0x2DB JUMP JUMPDEST DUP3 DUP1 ADD PUSH1 0x1 ADD DUP6 SSTORE DUP3 ISZERO PUSH3 0x2DB JUMPI SWAP2 DUP3 ADD JUMPDEST DUP3 DUP2 GT ISZERO PUSH3 0x2DA JUMPI DUP3 MLOAD DUP3 SSTORE SWAP2 PUSH1 0x20 ADD SWAP2 SWAP1 PUSH1 0x1 ADD SWAP1 PUSH3 0x2BD JUMP JUMPDEST JUMPDEST POP SWAP1 POP PUSH3 0x2EA SWAP2 SWAP1 PUSH3 0x2EE JUMP JUMPDEST POP SWAP1 JUMP JUMPDEST JUMPDEST DUP1 DUP3 GT ISZERO PUSH3 0x309 JUMPI PUSH1 0x0 DUP2 PUSH1 0x0 SWAP1 SSTORE POP PUSH1 0x1 ADD PUSH3 0x2EF JUMP JUMPDEST POP SWAP1 JUMP JUMPDEST PUSH1 0x0 PUSH3 0x324 PUSH3 0x31E DUP5 PUSH3 0x7F3 JUMP JUMPDEST PUSH3 0x7CA JUMP JUMPDEST SWAP1 POP DUP3 DUP2 MSTORE PUSH1 0x20 DUP2 ADD DUP5 DUP5 DUP5 ADD GT ISZERO PUSH3 0x343 JUMPI PUSH3 0x342 PUSH3 0x942 JUMP JUMPDEST JUMPDEST PUSH3 0x350 DUP5 DUP3 DUP6 PUSH3 0x833 JUMP JUMPDEST POP SWAP4 SWAP3 POP POP POP JUMP JUMPDEST PUSH1 0x0 DUP3 PUSH1 0x1F DUP4 ADD SLT PUSH3 0x370 JUMPI PUSH3 0x36F PUSH3 0x933 JUMP JUMPDEST JUMPDEST DUP2 MLOAD PUSH3 0x382 DUP5 DUP3 PUSH1 0x20 DUP7 ADD PUSH3 0x30D JUMP JUMPDEST SWAP2 POP POP SWAP3 SWAP2 POP POP JUMP JUMPDEST PUSH1 0x0 PUSH2 0x260 DUP3 DUP5 SUB SLT ISZERO PUSH3 0x3A5 JUMPI PUSH3 0x3A4 PUSH3 0x938 JUMP JUMPDEST JUMPDEST PUSH3 0x3B2 PUSH2 0x260 PUSH3 0x7CA JUMP JUMPDEST SWAP1 POP PUSH1 0x0 DUP3 ADD MLOAD PUSH8 0xFFFFFFFFFFFFFFFF DUP2 GT ISZERO PUSH3 0x3D5 JUMPI PUSH3 0x3D4 PUSH3 0x93D JUMP JUMPDEST JUMPDEST PUSH3 0x3E3 DUP5 DUP3 DUP6 ADD PUSH3 0x358 JUMP JUMPDEST PUSH1 0x0 DUP4 ADD MSTORE POP PUSH1 0x20 DUP3 ADD MLOAD PUSH8 0xFFFFFFFFFFFFFFFF DUP2 GT ISZERO PUSH3 0x40A JUMPI PUSH3 0x409 PUSH3 0x93D JUMP JUMPDEST JUMPDEST PUSH3 0x418 DUP5 DUP3 DUP6 ADD PUSH3 0x358 JUMP JUMPDEST PUSH1 0x20 DUP4 ADD MSTORE POP PUSH1 0x40 DUP3 ADD MLOAD PUSH8 0xFFFFFFFFFFFFFFFF DUP2 GT ISZERO PUSH3 0x43F JUMPI PUSH3 0x43E PUSH3 0x93D JUMP JUMPDEST JUMPDEST PUSH3 0x44D DUP5 DUP3 DUP6 ADD PUSH3 0x358 JUMP JUMPDEST PUSH1 0x40 DUP4 ADD MSTORE POP PUSH1 0x60 PUSH3 0x463 DUP5 DUP3 DUP6 ADD PUSH3 0x762 JUMP JUMPDEST PUSH1 0x60 DUP4 ADD MSTORE POP PUSH1 0x80 PUSH3 0x479 DUP5 DUP3 DUP6 ADD PUSH3 0x762 JUMP JUMPDEST PUSH1 0x80 DUP4 ADD MSTORE POP PUSH1 0xA0 DUP3 ADD MLOAD PUSH8 0xFFFFFFFFFFFFFFFF DUP2 GT ISZERO PUSH3 0x4A0 JUMPI PUSH3 0x49F PUSH3 0x93D JUMP JUMPDEST JUMPDEST PUSH3 0x4AE DUP5 DUP3 DUP6 ADD PUSH3 0x358 JUMP JUMPDEST PUSH1 0xA0 DUP4 ADD MSTORE POP PUSH1 0xC0 DUP3 ADD MLOAD PUSH8 0xFFFFFFFFFFFFFFFF DUP2 GT ISZERO PUSH3 0x4D5 JUMPI PUSH3 0x4D4 PUSH3 0x93D JUMP JUMPDEST JUMPDEST PUSH3 0x4E3 DUP5 DUP3 DUP6 ADD PUSH3 0x358 JUMP JUMPDEST PUSH1 0xC0 DUP4 ADD MSTORE POP PUSH1 0xE0 DUP3 ADD MLOAD PUSH8 0xFFFFFFFFFFFFFFFF DUP2 GT ISZERO PUSH3 0x50A JUMPI PUSH3 0x509 PUSH3 0x93D JUMP JUMPDEST JUMPDEST PUSH3 0x518 DUP5 DUP3 DUP6 ADD PUSH3 0x358 JUMP JUMPDEST PUSH1 0xE0 DUP4 ADD MSTORE POP PUSH2 0x100 DUP3 ADD MLOAD PUSH8 0xFFFFFFFFFFFFFFFF DUP2 GT ISZERO PUSH3 0x540 JUMPI PUSH3 0x53F PUSH3 0x93D JUMP JUMPDEST JUMPDEST PUSH3 0x54E DUP5 DUP3 DUP6 ADD PUSH3 0x358 JUMP JUMPDEST PUSH2 0x100 DUP4 ADD MSTORE POP PUSH2 0x120 DUP3 ADD MLOAD PUSH8 0xFFFFFFFFFFFFFFFF DUP2 GT ISZERO PUSH3 0x577 JUMPI PUSH3 0x576 PUSH3 0x93D JUMP JUMPDEST JUMPDEST PUSH3 0x585 DUP5 DUP3 DUP6 ADD PUSH3 0x358 JUMP JUMPDEST PUSH2 0x120 DUP4 ADD MSTORE POP PUSH2 0x140 DUP3 ADD MLOAD PUSH8 0xFFFFFFFFFFFFFFFF DUP2 GT ISZERO PUSH3 0x5AE JUMPI PUSH3 0x5AD PUSH3 0x93D JUMP JUMPDEST JUMPDEST PUSH3 0x5BC DUP5 DUP3 DUP6 ADD PUSH3 0x358 JUMP JUMPDEST PUSH2 0x140 DUP4 ADD MSTORE POP PUSH2 0x160 DUP3 ADD MLOAD PUSH8 0xFFFFFFFFFFFFFFFF DUP2 GT ISZERO PUSH3 0x5E5 JUMPI PUSH3 0x5E4 PUSH3 0x93D JUMP JUMPDEST JUMPDEST PUSH3 0x5F3 DUP5 DUP3 DUP6 ADD PUSH3 0x358 JUMP JUMPDEST PUSH2 0x160 DUP4 ADD MSTORE POP PUSH2 0x180 DUP3 ADD MLOAD PUSH8 0xFFFFFFFFFFFFFFFF DUP2 GT ISZERO PUSH3 0x61C JUMPI PUSH3 0x61B PUSH3 0x93D JUMP JUMPDEST JUMPDEST PUSH3 0x62A DUP5 DUP3 DUP6 ADD PUSH3 0x358 JUMP JUMPDEST PUSH2 0x180 DUP4 ADD MSTORE POP PUSH2 0x1A0 DUP3 ADD MLOAD PUSH8 0xFFFFFFFFFFFFFFFF DUP2 GT ISZERO PUSH3 0x653 JUMPI PUSH3 0x652 PUSH3 0x93D JUMP JUMPDEST JUMPDEST PUSH3 0x661 DUP5 DUP3 DUP6 ADD PUSH3 0x358 JUMP JUMPDEST PUSH2 0x1A0 DUP4 ADD MSTORE POP PUSH2 0x1C0 DUP3 ADD MLOAD PUSH8 0xFFFFFFFFFFFFFFFF DUP2 GT ISZERO PUSH3 0x68A JUMPI PUSH3 0x689 PUSH3 0x93D JUMP JUMPDEST JUMPDEST PUSH3 0x698 DUP5 DUP3 DUP6 ADD PUSH3 0x358 JUMP JUMPDEST PUSH2 0x1C0 DUP4 ADD MSTORE POP PUSH2 0x1E0 PUSH3 0x6B0 DUP5 DUP3 DUP6 ADD PUSH3 0x762 JUMP JUMPDEST PUSH2 0x1E0 DUP4 ADD MSTORE POP PUSH2 0x200 DUP3 ADD MLOAD PUSH8 0xFFFFFFFFFFFFFFFF DUP2 GT ISZERO PUSH3 0x6D9 JUMPI PUSH3 0x6D8 PUSH3 0x93D JUMP JUMPDEST JUMPDEST PUSH3 0x6E7 DUP5 DUP3 DUP6 ADD PUSH3 0x358 JUMP JUMPDEST PUSH2 0x200 DUP4 ADD MSTORE POP PUSH2 0x220 DUP3 ADD MLOAD PUSH8 0xFFFFFFFFFFFFFFFF DUP2 GT ISZERO PUSH3 0x710 JUMPI PUSH3 0x70F PUSH3 0x93D JUMP JUMPDEST JUMPDEST PUSH3 0x71E DUP5 DUP3 DUP6 ADD PUSH3 0x358 JUMP JUMPDEST PUSH2 0x220 DUP4 ADD MSTORE POP PUSH2 0x240 DUP3 ADD MLOAD PUSH8 0xFFFFFFFFFFFFFFFF DUP2 GT ISZERO PUSH3 0x747 JUMPI PUSH3 0x746 PUSH3 0x93D JUMP JUMPDEST JUMPDEST PUSH3 0x755 DUP5 DUP3 DUP6 ADD PUSH3 0x358 JUMP JUMPDEST PUSH2 0x240 DUP4 ADD MSTORE POP SWAP3 SWAP2 POP POP JUMP JUMPDEST PUSH1 0x0 DUP2 MLOAD SWAP1 POP PUSH3 0x773 DUP2 PUSH3 0x962 JUMP JUMPDEST SWAP3 SWAP2 POP POP JUMP JUMPDEST PUSH1 0x0 PUSH1 0x20 DUP3 DUP5 SUB SLT ISZERO PUSH3 0x792 JUMPI PUSH3 0x791 PUSH3 0x94C JUMP JUMPDEST JUMPDEST PUSH1 0x0 DUP3 ADD MLOAD PUSH8 0xFFFFFFFFFFFFFFFF DUP2 GT ISZERO PUSH3 0x7B3 JUMPI PUSH3 0x7B2 PUSH3 0x947 JUMP JUMPDEST JUMPDEST PUSH3 0x7C1 DUP5 DUP3 DUP6 ADD PUSH3 0x38B JUMP JUMPDEST SWAP2 POP POP SWAP3 SWAP2 POP POP JUMP JUMPDEST PUSH1 0x0 PUSH3 0x7D6 PUSH3 0x7E9 JUMP JUMPDEST SWAP1 POP PUSH3 0x7E4 DUP3 DUP3 PUSH3 0x89F JUMP JUMPDEST SWAP2 SWAP1 POP JUMP JUMPDEST PUSH1 0x0 PUSH1 0x40 MLOAD SWAP1 POP SWAP1 JUMP JUMPDEST PUSH1 0x0 PUSH8 0xFFFFFFFFFFFFFFFF DUP3 GT ISZERO PUSH3 0x811 JUMPI PUSH3 0x810 PUSH3 0x904 JUMP JUMPDEST JUMPDEST PUSH3 0x81C DUP3 PUSH3 0x951 JUMP JUMPDEST SWAP1 POP PUSH1 0x20 DUP2 ADD SWAP1 POP SWAP2 SWAP1 POP JUMP JUMPDEST PUSH1 0x0 DUP2 SWAP1 POP SWAP2 SWAP1 POP JUMP JUMPDEST PUSH1 0x0 JUMPDEST DUP4 DUP2 LT ISZERO PUSH3 0x853 JUMPI DUP1 DUP3 ADD MLOAD DUP2 DUP5 ADD MSTORE PUSH1 0x20 DUP2 ADD SWAP1 POP PUSH3 0x836 JUMP JUMPDEST DUP4 DUP2 GT ISZERO PUSH3 0x863 JUMPI PUSH1 0x0 DUP5 DUP5 ADD MSTORE JUMPDEST POP POP POP POP JUMP JUMPDEST PUSH1 0x0 PUSH1 0x2 DUP3 DIV SWAP1 POP PUSH1 0x1 DUP3 AND DUP1 PUSH3 0x882 JUMPI PUSH1 0x7F DUP3 AND SWAP2 POP JUMPDEST PUSH1 0x20 DUP3 LT DUP2 EQ ISZERO PUSH3 0x899 JUMPI PUSH3 0x898 PUSH3 0x8D5 JUMP JUMPDEST JUMPDEST POP SWAP2 SWAP1 POP JUMP JUMPDEST PUSH3 0x8AA DUP3 PUSH3 0x951 JUMP JUMPDEST DUP2 ADD DUP2 DUP2 LT PUSH8 0xFFFFFFFFFFFFFFFF DUP3 GT OR ISZERO PUSH3 0x8CC JUMPI PUSH3 0x8CB PUSH3 0x904 JUMP JUMPDEST JUMPDEST DUP1 PUSH1 0x40 MSTORE POP POP POP JUMP JUMPDEST PUSH32 0x4E487B7100000000000000000000000000000000000000000000000000000000 PUSH1 0x0 MSTORE PUSH1 0x22 PUSH1 0x4 MSTORE PUSH1 0x24 PUSH1 0x0 REVERT JUMPDEST PUSH32 0x4E487B7100000000000000000000000000000000000000000000000000000000 PUSH1 0x0 MSTORE PUSH1 0x41 PUSH1 0x4 MSTORE PUSH1 0x24 PUSH1 0x0 REVERT JUMPDEST PUSH1 0x0 DUP1 REVERT JUMPDEST PUSH1 0x0 DUP1 REVERT JUMPDEST PUSH1 0x0 DUP1 REVERT JUMPDEST PUSH1 0x0 DUP1 REVERT JUMPDEST PUSH1 0x0 DUP1 REVERT JUMPDEST PUSH1 0x0 DUP1 REVERT JUMPDEST PUSH1 0x0 PUSH1 0x1F NOT PUSH1 0x1F DUP4 ADD AND SWAP1 POP SWAP2 SWAP1 POP JUMP JUMPDEST PUSH3 0x96D DUP2 PUSH3 0x829 JUMP JUMPDEST DUP2 EQ PUSH3 0x979 JUMPI PUSH1 0x0 DUP1 REVERT JUMPDEST POP JUMP JUMPDEST PUSH2 0x1717 DUP1 PUSH3 0x98C PUSH1 0x0 CODECOPY PUSH1 0x0 RETURN INVALID PUSH1 0x80 PUSH1 0x40 MSTORE CALLVALUE DUP1 ISZERO PUSH2 0x10 JUMPI PUSH1 0x0 DUP1 REVERT JUMPDEST POP PUSH1 0x4 CALLDATASIZE LT PUSH2 0x41 JUMPI PUSH1 0x0 CALLDATALOAD PUSH1 0xE0 SHR DUP1 PUSH4 0x2D1814F2 EQ PUSH2 0x46 JUMPI DUP1 PUSH4 0x3BC5DE30 EQ PUSH2 0x62 JUMPI DUP1 PUSH4 0x8EFF3C29 EQ PUSH2 0x80 JUMPI JUMPDEST PUSH1 0x0 DUP1 REVERT JUMPDEST PUSH2 0x60 PUSH1 0x4 DUP1 CALLDATASIZE SUB DUP2 ADD SWAP1 PUSH2 0x5B SWAP2 SWAP1 PUSH2 0x1100 JUMP JUMPDEST PUSH2 0x9E JUMP JUMPDEST STOP JUMPDEST PUSH2 0x6A PUSH2 0x2E3 JUMP JUMPDEST PUSH1 0x40 MLOAD PUSH2 0x77 SWAP2 SWAP1 PUSH2 0x15A2 JUMP JUMPDEST PUSH1 0x40 MLOAD DUP1 SWAP2 SUB SWAP1 RETURN JUMPDEST PUSH2 0x88 PUSH2 0xC3C JUMP JUMPDEST PUSH1 0x40 MLOAD PUSH2 0x95 SWAP2 SWAP1 PUSH2 0x1580 JUMP JUMPDEST PUSH1 0x40 MLOAD DUP1 SWAP2 SUB SWAP1 RETURN JUMPDEST PUSH1 0x26 PUSH1 0x40 MLOAD DUP1 PUSH1 0xA0 ADD PUSH1 0x40 MSTORE DUP1 DUP13 DUP13 DUP1 DUP1 PUSH1 0x1F ADD PUSH1 0x20 DUP1 SWAP2 DIV MUL PUSH1 0x20 ADD PUSH1 0x40 MLOAD SWAP1 DUP2 ADD PUSH1 0x40 MSTORE DUP1 SWAP4 SWAP3 SWAP2 SWAP1 DUP2 DUP2 MSTORE PUSH1 0x20 ADD DUP4 DUP4 DUP1 DUP3 DUP5 CALLDATACOPY PUSH1 0x0 DUP2 DUP5 ADD MSTORE PUSH1 0x1F NOT PUSH1 0x1F DUP3 ADD AND SWAP1 POP DUP1 DUP4 ADD SWAP3 POP POP POP POP POP POP POP DUP2 MSTORE PUSH1 0x20 ADD DUP11 DUP11 DUP1 DUP1 PUSH1 0x1F ADD PUSH1 0x20 DUP1 SWAP2 DIV MUL PUSH1 0x20 ADD PUSH1 0x40 MLOAD SWAP1 DUP2 ADD PUSH1 0x40 MSTORE DUP1 SWAP4 SWAP3 SWAP2 SWAP1 DUP2 DUP2 MSTORE PUSH1 0x20 ADD DUP4 DUP4 DUP1 DUP3 DUP5 CALLDATACOPY PUSH1 0x0 DUP2 DUP5 ADD MSTORE PUSH1 0x1F NOT PUSH1 0x1F DUP3 ADD AND SWAP1 POP DUP1 DUP4 ADD SWAP3 POP POP POP POP POP POP POP DUP2 MSTORE PUSH1 0x20 ADD DUP9 DUP9 DUP1 DUP1 PUSH1 0x1F ADD PUSH1 0x20 DUP1 SWAP2 DIV MUL PUSH1 0x20 ADD PUSH1 0x40 MLOAD SWAP1 DUP2 ADD PUSH1 0x40 MSTORE DUP1 SWAP4 SWAP3 SWAP2 SWAP1 DUP2 DUP2 MSTORE PUSH1 0x20 ADD DUP4 DUP4 DUP1 DUP3 DUP5 CALLDATACOPY PUSH1 0x0 DUP2 DUP5 ADD MSTORE PUSH1 0x1F NOT PUSH1 0x1F DUP3 ADD AND SWAP1 POP DUP1 DUP4 ADD SWAP3 POP POP POP POP POP POP POP DUP2 MSTORE PUSH1 0x20 ADD DUP7 DUP7 DUP1 DUP1 PUSH1 0x1F ADD PUSH1 0x20 DUP1 SWAP2 DIV MUL PUSH1 0x20 ADD PUSH1 0x40 MLOAD SWAP1 DUP2 ADD PUSH1 0x40 MSTORE DUP1 SWAP4 SWAP3 SWAP2 SWAP1 DUP2 DUP2 MSTORE PUSH1 0x20 ADD DUP4 DUP4 DUP1 DUP3 DUP5 CALLDATACOPY PUSH1 0x0 DUP2 DUP5 ADD MSTORE PUSH1 0x1F NOT PUSH1 0x1F DUP3 ADD AND SWAP1 POP DUP1 DUP4 ADD SWAP3 POP POP POP POP POP POP POP DUP2 MSTORE PUSH1 0x20 ADD DUP5 DUP5 DUP1 DUP1 PUSH1 0x1F ADD PUSH1 0x20 DUP1 SWAP2 DIV MUL PUSH1 0x20 ADD PUSH1 0x40 MLOAD SWAP1 DUP2 ADD PUSH1 0x40 MSTORE DUP1 SWAP4 SWAP3 SWAP2 SWAP1 DUP2 DUP2 MSTORE PUSH1 0x20 ADD DUP4 DUP4 DUP1 DUP3 DUP5 CALLDATACOPY PUSH1 0x0 DUP2 DUP5 ADD MSTORE PUSH1 0x1F NOT PUSH1 0x1F DUP3 ADD AND SWAP1 POP DUP1 DUP4 ADD SWAP3 POP POP POP POP POP POP POP DUP2 MSTORE POP SWAP1 DUP1 PUSH1 0x1 DUP2 SLOAD ADD DUP1 DUP3 SSTORE DUP1 SWAP2 POP POP PUSH1 0x1 SWAP1 SUB SWAP1 PUSH1 0x0 MSTORE PUSH1 0x20 PUSH1 0x0 KECCAK256 SWAP1 PUSH1 0x5 MUL ADD PUSH1 0x0 SWAP1 SWAP2 SWAP1 SWAP2 SWAP1 SWAP2 POP PUSH1 0x0 DUP3 ADD MLOAD DUP2 PUSH1 0x0 ADD SWAP1 DUP1 MLOAD SWAP1 PUSH1 0x20 ADD SWAP1 PUSH2 0x260 SWAP3 SWAP2 SWAP1 PUSH2 0xF75 JUMP JUMPDEST POP PUSH1 0x20 DUP3 ADD MLOAD DUP2 PUSH1 0x1 ADD SWAP1 DUP1 MLOAD SWAP1 PUSH1 0x20 ADD SWAP1 PUSH2 0x27D SWAP3 SWAP2 SWAP1 PUSH2 0xF75 JUMP JUMPDEST POP PUSH1 0x40 DUP3 ADD MLOAD DUP2 PUSH1 0x2 ADD SWAP1 DUP1 MLOAD SWAP1 PUSH1 0x20 ADD SWAP1 PUSH2 0x29A SWAP3 SWAP2 SWAP1 PUSH2 0xF75 JUMP JUMPDEST POP PUSH1 0x60 DUP3 ADD MLOAD DUP2 PUSH1 0x3 ADD SWAP1 DUP1 MLOAD SWAP1 PUSH1 0x20 ADD SWAP1 PUSH2 0x2B7 SWAP3 SWAP2 SWAP1 PUSH2 0xF75 JUMP JUMPDEST POP PUSH1 0x80 DUP3 ADD MLOAD DUP2 PUSH1 0x4 ADD SWAP1 DUP1 MLOAD SWAP1 PUSH1 0x20 ADD SWAP1 PUSH2 0x2D4 SWAP3 SWAP2 SWAP1 PUSH2 0xF75 JUMP JUMPDEST POP POP POP POP POP POP POP POP POP POP POP POP POP JUMP JUMPDEST PUSH2 0x2EB PUSH2 0xFFB JUMP JUMPDEST PUSH1 0x13 PUSH1 0x40 MLOAD DUP1 PUSH2 0x260 ADD PUSH1 0x40 MSTORE SWAP1 DUP2 PUSH1 0x0 DUP3 ADD DUP1 SLOAD PUSH2 0x309 SWAP1 PUSH2 0x1656 JUMP JUMPDEST DUP1 PUSH1 0x1F ADD PUSH1 0x20 DUP1 SWAP2 DIV MUL PUSH1 0x20 ADD PUSH1 0x40 MLOAD SWAP1 DUP2 ADD PUSH1 0x40 MSTORE DUP1 SWAP3 SWAP2 SWAP1 DUP2 DUP2 MSTORE PUSH1 0x20 ADD DUP3 DUP1 SLOAD PUSH2 0x335 SWAP1 PUSH2 0x1656 JUMP JUMPDEST DUP1 ISZERO PUSH2 0x382 JUMPI DUP1 PUSH1 0x1F LT PUSH2 0x357 JUMPI PUSH2 0x100 DUP1 DUP4 SLOAD DIV MUL DUP4 MSTORE SWAP2 PUSH1 0x20 ADD SWAP2 PUSH2 0x382 JUMP JUMPDEST DUP3 ADD SWAP2 SWAP1 PUSH1 0x0 MSTORE PUSH1 0x20 PUSH1 0x0 KECCAK256 SWAP1 JUMPDEST DUP2 SLOAD DUP2 MSTORE SWAP1 PUSH1 0x1 ADD SWAP1 PUSH1 0x20 ADD DUP1 DUP4 GT PUSH2 0x365 JUMPI DUP3 SWAP1 SUB PUSH1 0x1F AND DUP3 ADD SWAP2 JUMPDEST POP POP POP POP POP DUP2 MSTORE PUSH1 0x20 ADD PUSH1 0x1 DUP3 ADD DUP1 SLOAD PUSH2 0x39B SWAP1 PUSH2 0x1656 JUMP JUMPDEST DUP1 PUSH1 0x1F ADD PUSH1 0x20 DUP1 SWAP2 DIV MUL PUSH1 0x20 ADD PUSH1 0x40 MLOAD SWAP1 DUP2 ADD PUSH1 0x40 MSTORE DUP1 SWAP3 SWAP2 SWAP1 DUP2 DUP2 MSTORE PUSH1 0x20 ADD DUP3 DUP1 SLOAD PUSH2 0x3C7 SWAP1 PUSH2 0x1656 JUMP JUMPDEST DUP1 ISZERO PUSH2 0x414 JUMPI DUP1 PUSH1 0x1F LT PUSH2 0x3E9 JUMPI PUSH2 0x100 DUP1 DUP4 SLOAD DIV MUL DUP4 MSTORE SWAP2 PUSH1 0x20 ADD SWAP2 PUSH2 0x414 JUMP JUMPDEST DUP3 ADD SWAP2 SWAP1 PUSH1 0x0 MSTORE PUSH1 0x20 PUSH1 0x0 KECCAK256 SWAP1 JUMPDEST DUP2 SLOAD DUP2 MSTORE SWAP1 PUSH1 0x1 ADD SWAP1 PUSH1 0x20 ADD DUP1 DUP4 GT PUSH2 0x3F7 JUMPI DUP3 SWAP1 SUB PUSH1 0x1F AND DUP3 ADD SWAP2 JUMPDEST POP POP POP POP POP DUP2 MSTORE PUSH1 0x20 ADD PUSH1 0x2 DUP3 ADD DUP1 SLOAD PUSH2 0x42D SWAP1 PUSH2 0x1656 JUMP JUMPDEST DUP1 PUSH1 0x1F ADD PUSH1 0x20 DUP1 SWAP2 DIV MUL PUSH1 0x20 ADD PUSH1 0x40 MLOAD SWAP1 DUP2 ADD PUSH1 0x40 MSTORE DUP1 SWAP3 SWAP2 SWAP1 DUP2 DUP2 MSTORE PUSH1 0x20 ADD DUP3 DUP1 SLOAD PUSH2 0x459 SWAP1 PUSH2 0x1656 JUMP JUMPDEST DUP1 ISZERO PUSH2 0x4A6 JUMPI DUP1 PUSH1 0x1F LT PUSH2 0x47B JUMPI PUSH2 0x100 DUP1 DUP4 SLOAD DIV MUL DUP4 MSTORE SWAP2 PUSH1 0x20 ADD SWAP2 PUSH2 0x4A6 JUMP JUMPDEST DUP3 ADD SWAP2 SWAP1 PUSH1 0x0 MSTORE PUSH1 0x20 PUSH1 0x0 KECCAK256 SWAP1 JUMPDEST DUP2 SLOAD DUP2 MSTORE SWAP1 PUSH1 0x1 ADD SWAP1 PUSH1 0x20 ADD DUP1 DUP4 GT PUSH2 0x489 JUMPI DUP3 SWAP1 SUB PUSH1 0x1F AND DUP3 ADD SWAP2 JUMPDEST POP POP POP POP POP DUP2 MSTORE PUSH1 0x20 ADD PUSH1 0x3 DUP3 ADD SLOAD DUP2 MSTORE PUSH1 0x20 ADD PUSH1 0x4 DUP3 ADD SLOAD DUP2 MSTORE PUSH1 0x20 ADD PUSH1 0x5 DUP3 ADD DUP1 SLOAD PUSH2 0x4D3 SWAP1 PUSH2 0x1656 JUMP JUMPDEST DUP1 PUSH1 0x1F ADD PUSH1 0x20 DUP1 SWAP2 DIV MUL PUSH1 0x20 ADD PUSH1 0x40 MLOAD SWAP1 DUP2 ADD PUSH1 0x40 MSTORE DUP1 SWAP3 SWAP2 SWAP1 DUP2 DUP2 MSTORE PUSH1 0x20 ADD DUP3 DUP1 SLOAD PUSH2 0x4FF SWAP1 PUSH2 0x1656 JUMP JUMPDEST DUP1 ISZERO PUSH2 0x54C JUMPI DUP1 PUSH1 0x1F LT PUSH2 0x521 JUMPI PUSH2 0x100 DUP1 DUP4 SLOAD DIV MUL DUP4 MSTORE SWAP2 PUSH1 0x20 ADD SWAP2 PUSH2 0x54C JUMP JUMPDEST DUP3 ADD SWAP2 SWAP1 PUSH1 0x0 MSTORE PUSH1 0x20 PUSH1 0x0 KECCAK256 SWAP1 JUMPDEST DUP2 SLOAD DUP2 MSTORE SWAP1 PUSH1 0x1 ADD SWAP1 PUSH1 0x20 ADD DUP1 DUP4 GT PUSH2 0x52F JUMPI DUP3 SWAP1 SUB PUSH1 0x1F AND DUP3 ADD SWAP2 JUMPDEST POP POP POP POP POP DUP2 MSTORE PUSH1 0x20 ADD PUSH1 0x6 DUP3 ADD DUP1 SLOAD PUSH2 0x565 SWAP1 PUSH2 0x1656 JUMP JUMPDEST DUP1 PUSH1 0x1F ADD PUSH1 0x20 DUP1 SWAP2 DIV MUL PUSH1 0x20 ADD PUSH1 0x40 MLOAD SWAP1 DUP2 ADD PUSH1 0x40 MSTORE DUP1 SWAP3 SWAP2 SWAP1 DUP2 DUP2 MSTORE PUSH1 0x20 ADD DUP3 DUP1 SLOAD PUSH2 0x591 SWAP1 PUSH2 0x1656 JUMP JUMPDEST DUP1 ISZERO PUSH2 0x5DE JUMPI DUP1 PUSH1 0x1F LT PUSH2 0x5B3 JUMPI PUSH2 0x100 DUP1 DUP4 SLOAD DIV MUL DUP4 MSTORE SWAP2 PUSH1 0x20 ADD SWAP2 PUSH2 0x5DE JUMP JUMPDEST DUP3 ADD SWAP2 SWAP1 PUSH1 0x0 MSTORE PUSH1 0x20 PUSH1 0x0 KECCAK256 SWAP1 JUMPDEST DUP2 SLOAD DUP2 MSTORE SWAP1 PUSH1 0x1 ADD SWAP1 PUSH1 0x20 ADD DUP1 DUP4 GT PUSH2 0x5C1 JUMPI DUP3 SWAP1 SUB PUSH1 0x1F AND DUP3 ADD SWAP2 JUMPDEST POP POP POP POP POP DUP2 MSTORE PUSH1 0x20 ADD PUSH1 0x7 DUP3 ADD DUP1 SLOAD PUSH2 0x5F7 SWAP1 PUSH2 0x1656 JUMP JUMPDEST DUP1 PUSH1 0x1F ADD PUSH1 0x20 DUP1 SWAP2 DIV MUL PUSH1 0x20 ADD PUSH1 0x40 MLOAD SWAP1 DUP2 ADD PUSH1 0x40 MSTORE DUP1 SWAP3 SWAP2 SWAP1 DUP2 DUP2 MSTORE PUSH1 0x20 ADD DUP3 DUP1 SLOAD PUSH2 0x623 SWAP1 PUSH2 0x1656 JUMP JUMPDEST DUP1 ISZERO PUSH2 0x670 JUMPI DUP1 PUSH1 0x1F LT PUSH2 0x645 JUMPI PUSH2 0x100 DUP1 DUP4 SLOAD DIV MUL DUP4 MSTORE SWAP2 PUSH1 0x20 ADD SWAP2 PUSH2 0x670 JUMP JUMPDEST DUP3 ADD SWAP2 SWAP1 PUSH1 0x0 MSTORE PUSH1 0x20 PUSH1 0x0 KECCAK256 SWAP1 JUMPDEST DUP2 SLOAD DUP2 MSTORE SWAP1 PUSH1 0x1 ADD SWAP1 PUSH1 0x20 ADD DUP1 DUP4 GT PUSH2 0x653 JUMPI DUP3 SWAP1 SUB PUSH1 0x1F AND DUP3 ADD SWAP2 JUMPDEST POP POP POP POP POP DUP2 MSTORE PUSH1 0x20 ADD PUSH1 0x8 DUP3 ADD DUP1 SLOAD PUSH2 0x689 SWAP1 PUSH2 0x1656 JUMP JUMPDEST DUP1 PUSH1 0x1F ADD PUSH1 0x20 DUP1 SWAP2 DIV MUL PUSH1 0x20 ADD PUSH1 0x40 MLOAD SWAP1 DUP2 ADD PUSH1 0x40 MSTORE DUP1 SWAP3 SWAP2 SWAP1 DUP2 DUP2 MSTORE PUSH1 0x20 ADD DUP3 DUP1 SLOAD PUSH2 0x6B5 SWAP1 PUSH2 0x1656 JUMP JUMPDEST DUP1 ISZERO PUSH2 0x702 JUMPI DUP1 PUSH1 0x1F LT PUSH2 0x6D7 JUMPI PUSH2 0x100 DUP1 DUP4 SLOAD DIV MUL DUP4 MSTORE SWAP2 PUSH1 0x20 ADD SWAP2 PUSH2 0x702 JUMP JUMPDEST DUP3 ADD SWAP2 SWAP1 PUSH1 0x0 MSTORE PUSH1 0x20 PUSH1 0x0 KECCAK256 SWAP1 JUMPDEST DUP2 SLOAD DUP2 MSTORE SWAP1 PUSH1 0x1 ADD SWAP1 PUSH1 0x20 ADD DUP1 DUP4 GT PUSH2 0x6E5 JUMPI DUP3 SWAP1 SUB PUSH1 0x1F AND DUP3 ADD SWAP2 JUMPDEST POP POP POP POP POP DUP2 MSTORE PUSH1 0x20 ADD PUSH1 0x9 DUP3 ADD DUP1 SLOAD PUSH2 0x71B SWAP1 PUSH2 0x1656 JUMP JUMPDEST DUP1 PUSH1 0x1F ADD PUSH1 0x20 DUP1 SWAP2 DIV MUL PUSH1 0x20 ADD PUSH1 0x40 MLOAD SWAP1 DUP2 ADD PUSH1 0x40 MSTORE DUP1 SWAP3 SWAP2 SWAP1 DUP2 DUP2 MSTORE PUSH1 0x20 ADD DUP3 DUP1 SLOAD PUSH2 0x747 SWAP1 PUSH2 0x1656 JUMP JUMPDEST DUP1 ISZERO PUSH2 0x794 JUMPI DUP1 PUSH1 0x1F LT PUSH2 0x769 JUMPI PUSH2 0x100 DUP1 DUP4 SLOAD DIV MUL DUP4 MSTORE SWAP2 PUSH1 0x20 ADD SWAP2 PUSH2 0x794 JUMP JUMPDEST DUP3 ADD SWAP2 SWAP1 PUSH1 0x0 MSTORE PUSH1 0x20 PUSH1 0x0 KECCAK256 SWAP1 JUMPDEST DUP2 SLOAD DUP2 MSTORE SWAP1 PUSH1 0x1 ADD SWAP1 PUSH1 0x20 ADD DUP1 DUP4 GT PUSH2 0x777 JUMPI DUP3 SWAP1 SUB PUSH1 0x1F AND DUP3 ADD SWAP2 JUMPDEST POP POP POP POP POP DUP2 MSTORE PUSH1 0x20 ADD PUSH1 0xA DUP3 ADD DUP1 SLOAD PUSH2 0x7AD SWAP1 PUSH2 0x1656 JUMP JUMPDEST DUP1 PUSH1 0x1F ADD PUSH1 0x20 DUP1 SWAP2 DIV MUL PUSH1 0x20 ADD PUSH1 0x40 MLOAD SWAP1 DUP2 ADD PUSH1 0x40 MSTORE DUP1 SWAP3 SWAP2 SWAP1 DUP2 DUP2 MSTORE PUSH1 0x20 ADD DUP3 DUP1 SLOAD PUSH2 0x7D9 SWAP1 PUSH2 0x1656 JUMP JUMPDEST DUP1 ISZERO PUSH2 0x826 JUMPI DUP1 PUSH1 0x1F LT PUSH2 0x7FB JUMPI PUSH2 0x100 DUP1 DUP4 SLOAD DIV MUL DUP4 MSTORE SWAP2 PUSH1 0x20 ADD SWAP2 PUSH2 0x826 JUMP JUMPDEST DUP3 ADD SWAP2 SWAP1 PUSH1 0x0 MSTORE PUSH1 0x20 PUSH1 0x0 KECCAK256 SWAP1 JUMPDEST DUP2 SLOAD DUP2 MSTORE SWAP1 PUSH1 0x1 ADD SWAP1 PUSH1 0x20 ADD DUP1 DUP4 GT PUSH2 0x809 JUMPI DUP3 SWAP1 SUB PUSH1 0x1F AND DUP3 ADD SWAP2 JUMPDEST POP POP POP POP POP DUP2 MSTORE PUSH1 0x20 ADD PUSH1 0xB DUP3 ADD DUP1 SLOAD PUSH2 0x83F SWAP1 PUSH2 0x1656 JUMP JUMPDEST DUP1 PUSH1 0x1F ADD PUSH1 0x20 DUP1 SWAP2 DIV MUL PUSH1 0x20 ADD PUSH1 0x40 MLOAD SWAP1 DUP2 ADD PUSH1 0x40 MSTORE DUP1 SWAP3 SWAP2 SWAP1 DUP2 DUP2 MSTORE PUSH1 0x20 ADD DUP3 DUP1 SLOAD PUSH2 0x86B SWAP1 PUSH2 0x1656 JUMP JUMPDEST DUP1 ISZERO PUSH2 0x8B8 JUMPI DUP1 PUSH1 0x1F LT PUSH2 0x88D JUMPI PUSH2 0x100 DUP1 DUP4 SLOAD DIV MUL DUP4 MSTORE SWAP2 PUSH1 0x20 ADD SWAP2 PUSH2 0x8B8 JUMP JUMPDEST DUP3 ADD SWAP2 SWAP1 PUSH1 0x0 MSTORE PUSH1 0x20 PUSH1 0x0 KECCAK256 SWAP1 JUMPDEST DUP2 SLOAD DUP2 MSTORE SWAP1 PUSH1 0x1 ADD SWAP1 PUSH1 0x20 ADD DUP1 DUP4 GT PUSH2 0x89B JUMPI DUP3 SWAP1 SUB PUSH1 0x1F AND DUP3 ADD SWAP2 JUMPDEST POP POP POP POP POP DUP2 MSTORE PUSH1 0x20 ADD PUSH1 0xC DUP3 ADD DUP1 SLOAD PUSH2 0x8D1 SWAP1 PUSH2 0x1656 JUMP JUMPDEST DUP1 PUSH1 0x1F ADD PUSH1 0x20 DUP1 SWAP2 DIV MUL PUSH1 0x20 ADD PUSH1 0x40 MLOAD SWAP1 DUP2 ADD PUSH1 0x40 MSTORE DUP1 SWAP3 SWAP2 SWAP1 DUP2 DUP2 MSTORE PUSH1 0x20 ADD DUP3 DUP1 SLOAD PUSH2 0x8FD SWAP1 PUSH2 0x1656 JUMP JUMPDEST DUP1 ISZERO PUSH2 0x94A JUMPI DUP1 PUSH1 0x1F LT PUSH2 0x91F JUMPI PUSH2 0x100 DUP1 DUP4 SLOAD DIV MUL DUP4 MSTORE SWAP2 PUSH1 0x20 ADD SWAP2 PUSH2 0x94A JUMP JUMPDEST DUP3 ADD SWAP2 SWAP1 PUSH1 0x0 MSTORE PUSH1 0x20 PUSH1 0x0 KECCAK256 SWAP1 JUMPDEST DUP2 SLOAD DUP2 MSTORE SWAP1 PUSH1 0x1 ADD SWAP1 PUSH1 0x20 ADD DUP1 DUP4 GT PUSH2 0x92D JUMPI DUP3 SWAP1 SUB PUSH1 0x1F AND DUP3 ADD SWAP2 JUMPDEST POP POP POP POP POP DUP2 MSTORE PUSH1 0x20 ADD PUSH1 0xD DUP3 ADD DUP1 SLOAD PUSH2 0x963 SWAP1 PUSH2 0x1656 JUMP JUMPDEST DUP1 PUSH1 0x1F ADD PUSH1 0x20 DUP1 SWAP2 DIV MUL PUSH1 0x20 ADD PUSH1 0x40 MLOAD SWAP1 DUP2 ADD PUSH1 0x40 MSTORE DUP1 SWAP3 SWAP2 SWAP1 DUP2 DUP2 MSTORE PUSH1 0x20 ADD DUP3 DUP1 SLOAD PUSH2 0x98F SWAP1 PUSH2 0x1656 JUMP JUMPDEST DUP1 ISZERO PUSH2 0x9DC JUMPI DUP1 PUSH1 0x1F LT PUSH2 0x9B1 JUMPI PUSH2 0x100 DUP1 DUP4 SLOAD DIV MUL DUP4 MSTORE SWAP2 PUSH1 0x20 ADD SWAP2 PUSH2 0x9DC JUMP JUMPDEST DUP3 ADD SWAP2 SWAP1 PUSH1 0x0 MSTORE PUSH1 0x20 PUSH1 0x0 KECCAK256 SWAP1 JUMPDEST DUP2 SLOAD DUP2 MSTORE SWAP1 PUSH1 0x1 ADD SWAP1 PUSH1 0x20 ADD DUP1 DUP4 GT PUSH2 0x9BF JUMPI DUP3 SWAP1 SUB PUSH1 0x1F AND DUP3 ADD SWAP2 JUMPDEST POP POP POP POP POP DUP2 MSTORE PUSH1 0x20 ADD PUSH1 0xE DUP3 ADD DUP1 SLOAD PUSH2 0x9F5 SWAP1 PUSH2 0x1656 JUMP JUMPDEST DUP1 PUSH1 0x1F ADD PUSH1 0x20 DUP1 SWAP2 DIV MUL PUSH1 0x20 ADD PUSH1 0x40 MLOAD SWAP1 DUP2 ADD PUSH1 0x40 MSTORE DUP1 SWAP3 SWAP2 SWAP1 DUP2 DUP2 MSTORE PUSH1 0x20 ADD DUP3 DUP1 SLOAD PUSH2 0xA21 SWAP1 PUSH2 0x1656 JUMP JUMPDEST DUP1 ISZERO PUSH2 0xA6E JUMPI DUP1 PUSH1 0x1F LT PUSH2 0xA43 JUMPI PUSH2 0x100 DUP1 DUP4 SLOAD DIV MUL DUP4 MSTORE SWAP2 PUSH1 0x20 ADD SWAP2 PUSH2 0xA6E JUMP JUMPDEST DUP3 ADD SWAP2 SWAP1 PUSH1 0x0 MSTORE PUSH1 0x20 PUSH1 0x0 KECCAK256 SWAP1 JUMPDEST DUP2 SLOAD DUP2 MSTORE SWAP1 PUSH1 0x1 ADD SWAP1 PUSH1 0x20 ADD DUP1 DUP4 GT PUSH2 0xA51 JUMPI DUP3 SWAP1 SUB PUSH1 0x1F AND DUP3 ADD SWAP2 JUMPDEST POP POP POP POP POP DUP2 MSTORE PUSH1 0x20 ADD PUSH1 0xF DUP3 ADD SLOAD DUP2 MSTORE PUSH1 0x20 ADD PUSH1 0x10 DUP3 ADD DUP1 SLOAD PUSH2 0xA91 SWAP1 PUSH2 0x1656 JUMP JUMPDEST DUP1 PUSH1 0x1F ADD PUSH1 0x20 DUP1 SWAP2 DIV MUL PUSH1 0x20 ADD PUSH1 0x40 MLOAD SWAP1 DUP2 ADD PUSH1 0x40 MSTORE DUP1 SWAP3 SWAP2 SWAP1 DUP2 DUP2 MSTORE PUSH1 0x20 ADD DUP3 DUP1 SLOAD PUSH2 0xABD SWAP1 PUSH2 0x1656 JUMP JUMPDEST DUP1 ISZERO PUSH2 0xB0A JUMPI DUP1 PUSH1 0x1F LT PUSH2 0xADF JUMPI PUSH2 0x100 DUP1 DUP4 SLOAD DIV MUL DUP4 MSTORE SWAP2 PUSH1 0x20 ADD SWAP2 PUSH2 0xB0A JUMP JUMPDEST DUP3 ADD SWAP2 SWAP1 PUSH1 0x0 MSTORE PUSH1 0x20 PUSH1 0x0 KECCAK256 SWAP1 JUMPDEST DUP2 SLOAD DUP2 MSTORE SWAP1 PUSH1 0x1 ADD SWAP1 PUSH1 0x20 ADD DUP1 DUP4 GT PUSH2 0xAED JUMPI DUP3 SWAP1 SUB PUSH1 0x1F AND DUP3 ADD SWAP2 JUMPDEST POP POP POP POP POP DUP2 MSTORE PUSH1 0x20 ADD PUSH1 0x11 DUP3 ADD DUP1 SLOAD PUSH2 0xB23 SWAP1 PUSH2 0x1656 JUMP JUMPDEST DUP1 PUSH1 0x1F ADD PUSH1 0x20 DUP1 SWAP2 DIV MUL PUSH1 0x20 ADD PUSH1 0x40 MLOAD SWAP1 DUP2 ADD PUSH1 0x40 MSTORE DUP1 SWAP3 SWAP2 SWAP1 DUP2 DUP2 MSTORE PUSH1 0x20 ADD DUP3 DUP1 SLOAD PUSH2 0xB4F SWAP1 PUSH2 0x1656 JUMP JUMPDEST DUP1 ISZERO PUSH2 0xB9C JUMPI DUP1 PUSH1 0x1F LT PUSH2 0xB71 JUMPI PUSH2 0x100 DUP1 DUP4 SLOAD DIV MUL DUP4 MSTORE SWAP2 PUSH1 0x20 ADD SWAP2 PUSH2 0xB9C JUMP JUMPDEST DUP3 ADD SWAP2 SWAP1 PUSH1 0x0 MSTORE PUSH1 0x20 PUSH1 0x0 KECCAK256 SWAP1 JUMPDEST DUP2 SLOAD DUP2 MSTORE SWAP1 PUSH1 0x1 ADD SWAP1 PUSH1 0x20 ADD DUP1 DUP4 GT PUSH2 0xB7F JUMPI DUP3 SWAP1 SUB PUSH1 0x1F AND DUP3 ADD SWAP2 JUMPDEST POP POP POP POP POP DUP2 MSTORE PUSH1 0x20 ADD PUSH1 0x12 DUP3 ADD DUP1 SLOAD PUSH2 0xBB5 SWAP1 PUSH2 0x1656 JUMP JUMPDEST DUP1 PUSH1 0x1F ADD PUSH1 0x20 DUP1 SWAP2 DIV MUL PUSH1 0x20 ADD PUSH1 0x40 MLOAD SWAP1 DUP2 ADD PUSH1 0x40 MSTORE DUP1 SWAP3 SWAP2 SWAP1 DUP2 DUP2 MSTORE PUSH1 0x20 ADD DUP3 DUP1 SLOAD PUSH2 0xBE1 SWAP1 PUSH2 0x1656 JUMP JUMPDEST DUP1 ISZERO PUSH2 0xC2E JUMPI DUP1 PUSH1 0x1F LT PUSH2 0xC03 JUMPI PUSH2 0x100 DUP1 DUP4 SLOAD DIV MUL DUP4 MSTORE SWAP2 PUSH1 0x20 ADD SWAP2 PUSH2 0xC2E JUMP JUMPDEST DUP3 ADD SWAP2 SWAP1 PUSH1 0x0 MSTORE PUSH1 0x20 PUSH1 0x0 KECCAK256 SWAP1 JUMPDEST DUP2 SLOAD DUP2 MSTORE SWAP1 PUSH1 0x1 ADD SWAP1 PUSH1 0x20 ADD DUP1 DUP4 GT PUSH2 0xC11 JUMPI DUP3 SWAP1 SUB PUSH1 0x1F AND DUP3 ADD SWAP2 JUMPDEST POP POP POP POP POP DUP2 MSTORE POP POP SWAP1 POP SWAP1 JUMP JUMPDEST PUSH1 0x60 PUSH1 0x26 DUP1 SLOAD DUP1 PUSH1 0x20 MUL PUSH1 0x20 ADD PUSH1 0x40 MLOAD SWAP1 DUP2 ADD PUSH1 0x40 MSTORE DUP1 SWAP3 SWAP2 SWAP1 DUP2 DUP2 MSTORE PUSH1 0x20 ADD PUSH1 0x0 SWAP1 JUMPDEST DUP3 DUP3 LT ISZERO PUSH2 0xF6C JUMPI DUP4 DUP3 SWAP1 PUSH1 0x0 MSTORE PUSH1 0x20 PUSH1 0x0 KECCAK256 SWAP1 PUSH1 0x5 MUL ADD PUSH1 0x40 MLOAD DUP1 PUSH1 0xA0 ADD PUSH1 0x40 MSTORE SWAP1 DUP2 PUSH1 0x0 DUP3 ADD DUP1 SLOAD PUSH2 0xC93 SWAP1 PUSH2 0x1656 JUMP JUMPDEST DUP1 PUSH1 0x1F ADD PUSH1 0x20 DUP1 SWAP2 DIV MUL PUSH1 0x20 ADD PUSH1 0x40 MLOAD SWAP1 DUP2 ADD PUSH1 0x40 MSTORE DUP1 SWAP3 SWAP2 SWAP1 DUP2 DUP2 MSTORE PUSH1 0x20 ADD DUP3 DUP1 SLOAD PUSH2 0xCBF SWAP1 PUSH2 0x1656 JUMP JUMPDEST DUP1 ISZERO PUSH2 0xD0C JUMPI DUP1 PUSH1 0x1F LT PUSH2 0xCE1 JUMPI PUSH2 0x100 DUP1 DUP4 SLOAD DIV MUL DUP4 MSTORE SWAP2 PUSH1 0x20 ADD SWAP2 PUSH2 0xD0C JUMP JUMPDEST DUP3 ADD SWAP2 SWAP1 PUSH1 0x0 MSTORE PUSH1 0x20 PUSH1 0x0 KECCAK256 SWAP1 JUMPDEST DUP2 SLOAD DUP2 MSTORE SWAP1 PUSH1 0x1 ADD SWAP1 PUSH1 0x20 ADD DUP1 DUP4 GT PUSH2 0xCEF JUMPI DUP3 SWAP1 SUB PUSH1 0x1F AND DUP3 ADD SWAP2 JUMPDEST POP POP POP POP POP DUP2 MSTORE PUSH1 0x20 ADD PUSH1 0x1 DUP3 ADD DUP1 SLOAD PUSH2 0xD25 SWAP1 PUSH2 0x1656 JUMP JUMPDEST DUP1 PUSH1 0x1F ADD PUSH1 0x20 DUP1 SWAP2 DIV MUL PUSH1 0x20 ADD PUSH1 0x40 MLOAD SWAP1 DUP2 ADD PUSH1 0x40 MSTORE DUP1 SWAP3 SWAP2 SWAP1 DUP2 DUP2 MSTORE PUSH1 0x20 ADD DUP3 DUP1 SLOAD PUSH2 0xD51 SWAP1 PUSH2 0x1656 JUMP JUMPDEST DUP1 ISZERO PUSH2 0xD9E JUMPI DUP1 PUSH1 0x1F LT PUSH2 0xD73 JUMPI PUSH2 0x100 DUP1 DUP4 SLOAD DIV MUL DUP4 MSTORE SWAP2 PUSH1 0x20 ADD SWAP2 PUSH2 0xD9E JUMP JUMPDEST DUP3 ADD SWAP2 SWAP1 PUSH1 0x0 MSTORE PUSH1 0x20 PUSH1 0x0 KECCAK256 SWAP1 JUMPDEST DUP2 SLOAD DUP2 MSTORE SWAP1 PUSH1 0x1 ADD SWAP1 PUSH1 0x20 ADD DUP1 DUP4 GT PUSH2 0xD81 JUMPI DUP3 SWAP1 SUB PUSH1 0x1F AND DUP3 ADD SWAP2 JUMPDEST POP POP POP POP POP DUP2 MSTORE PUSH1 0x20 ADD PUSH1 0x2 DUP3 ADD DUP1 SLOAD PUSH2 0xDB7 SWAP1 PUSH2 0x1656 JUMP JUMPDEST DUP1 PUSH1 0x1F ADD PUSH1 0x20 DUP1 SWAP2 DIV MUL PUSH1 0x20 ADD PUSH1 0x40 MLOAD SWAP1 DUP2 ADD PUSH1 0x40 MSTORE DUP1 SWAP3 SWAP2 SWAP1 DUP2 DUP2 MSTORE PUSH1 0x20 ADD DUP3 DUP1 SLOAD PUSH2 0xDE3 SWAP1 PUSH2 0x1656 JUMP JUMPDEST DUP1 ISZERO PUSH2 0xE30 JUMPI DUP1 PUSH1 0x1F LT PUSH2 0xE05 JUMPI PUSH2 0x100 DUP1 DUP4 SLOAD DIV MUL DUP4 MSTORE SWAP2 PUSH1 0x20 ADD SWAP2 PUSH2 0xE30 JUMP JUMPDEST DUP3 ADD SWAP2 SWAP1 PUSH1 0x0 MSTORE PUSH1 0x20 PUSH1 0x0 KECCAK256 SWAP1 JUMPDEST DUP2 SLOAD DUP2 MSTORE SWAP1 PUSH1 0x1 ADD SWAP1 PUSH1 0x20 ADD DUP1 DUP4 GT PUSH2 0xE13 JUMPI DUP3 SWAP1 SUB PUSH1 0x1F AND DUP3 ADD SWAP2 JUMPDEST POP POP POP POP POP DUP2 MSTORE PUSH1 0x20 ADD PUSH1 0x3 DUP3 ADD DUP1 SLOAD PUSH2 0xE49 SWAP1 PUSH2 0x1656 JUMP JUMPDEST DUP1 PUSH1 0x1F ADD PUSH1 0x20 DUP1 SWAP2 DIV MUL PUSH1 0x20 ADD PUSH1 0x40 MLOAD SWAP1 DUP2 ADD PUSH1 0x40 MSTORE DUP1 SWAP3 SWAP2 SWAP1 DUP2 DUP2 MSTORE PUSH1 0x20 ADD DUP3 DUP1 SLOAD PUSH2 0xE75 SWAP1 PUSH2 0x1656 JUMP JUMPDEST DUP1 ISZERO PUSH2 0xEC2 JUMPI DUP1 PUSH1 0x1F LT PUSH2 0xE97 JUMPI PUSH2 0x100 DUP1 DUP4 SLOAD DIV MUL DUP4 MSTORE SWAP2 PUSH1 0x20 ADD SWAP2 PUSH2 0xEC2 JUMP JUMPDEST DUP3 ADD SWAP2 SWAP1 PUSH1 0x0 MSTORE PUSH1 0x20 PUSH1 0x0 KECCAK256 SWAP1 JUMPDEST DUP2 SLOAD DUP2 MSTORE SWAP1 PUSH1 0x1 ADD SWAP1 PUSH1 0x20 ADD DUP1 DUP4 GT PUSH2 0xEA5 JUMPI DUP3 SWAP1 SUB PUSH1 0x1F AND DUP3 ADD SWAP2 JUMPDEST POP POP POP POP POP DUP2 MSTORE PUSH1 0x20 ADD PUSH1 0x4 DUP3 ADD DUP1 SLOAD PUSH2 0xEDB SWAP1 PUSH2 0x1656 JUMP JUMPDEST DUP1 PUSH1 0x1F ADD PUSH1 0x20 DUP1 SWAP2 DIV MUL PUSH1 0x20 ADD PUSH1 0x40 MLOAD SWAP1 DUP2 ADD PUSH1 0x40 MSTORE DUP1 SWAP3 SWAP2 SWAP1 DUP2 DUP2 MSTORE PUSH1 0x20 ADD DUP3 DUP1 SLOAD PUSH2 0xF07 SWAP1 PUSH2 0x1656 JUMP JUMPDEST DUP1 ISZERO PUSH2 0xF54 JUMPI DUP1 PUSH1 0x1F LT PUSH2 0xF29 JUMPI PUSH2 0x100 DUP1 DUP4 SLOAD DIV MUL DUP4 MSTORE SWAP2 PUSH1 0x20 ADD SWAP2 PUSH2 0xF54 JUMP JUMPDEST DUP3 ADD SWAP2 SWAP1 PUSH1 0x0 MSTORE PUSH1 0x20 PUSH1 0x0 KECCAK256 SWAP1 JUMPDEST DUP2 SLOAD DUP2 MSTORE SWAP1 PUSH1 0x1 ADD SWAP1 PUSH1 0x20 ADD DUP1 DUP4 GT PUSH2 0xF37 JUMPI DUP3 SWAP1 SUB PUSH1 0x1F AND DUP3 ADD SWAP2 JUMPDEST POP POP POP POP POP DUP2 MSTORE POP POP DUP2 MSTORE PUSH1 0x20 ADD SWAP1 PUSH1 0x1 ADD SWAP1 PUSH2 0xC60 JUMP JUMPDEST POP POP POP POP SWAP1 POP SWAP1 JUMP JUMPDEST DUP3 DUP1 SLOAD PUSH2 0xF81 SWAP1 PUSH2 0x1656 JUMP JUMPDEST SWAP1 PUSH1 0x0 MSTORE PUSH1 0x20 PUSH1 0x0 KECCAK256 SWAP1 PUSH1 0x1F ADD PUSH1 0x20 SWAP1 DIV DUP2 ADD SWAP3 DUP3 PUSH2 0xFA3 JUMPI PUSH1 0x0 DUP6 SSTORE PUSH2 0xFEA JUMP JUMPDEST DUP3 PUSH1 0x1F LT PUSH2 0xFBC JUMPI DUP1 MLOAD PUSH1 0xFF NOT AND DUP4 DUP1 ADD OR DUP6 SSTORE PUSH2 0xFEA JUMP JUMPDEST DUP3 DUP1 ADD PUSH1 0x1 ADD DUP6 SSTORE DUP3 ISZERO PUSH2 0xFEA JUMPI SWAP2 DUP3 ADD JUMPDEST DUP3 DUP2 GT ISZERO PUSH2 0xFE9 JUMPI DUP3 MLOAD DUP3 SSTORE SWAP2 PUSH1 0x20 ADD SWAP2 SWAP1 PUSH1 0x1 ADD SWAP1 PUSH2 0xFCE JUMP JUMPDEST JUMPDEST POP SWAP1 POP PUSH2 0xFF7 SWAP2 SWAP1 PUSH2 0x108D JUMP JUMPDEST POP SWAP1 JUMP JUMPDEST PUSH1 0x40 MLOAD DUP1 PUSH2 0x260 ADD PUSH1 0x40 MSTORE DUP1 PUSH1 0x60 DUP2 MSTORE PUSH1 0x20 ADD PUSH1 0x60 DUP2 MSTORE PUSH1 0x20 ADD PUSH1 0x60 DUP2 MSTORE PUSH1 0x20 ADD PUSH1 0x0 DUP2 MSTORE PUSH1 0x20 ADD PUSH1 0x0 DUP2 MSTORE PUSH1 0x20 ADD PUSH1 0x60 DUP2 MSTORE PUSH1 0x20 ADD PUSH1 0x60 DUP2 MSTORE PUSH1 0x20 ADD PUSH1 0x60 DUP2 MSTORE PUSH1 0x20 ADD PUSH1 0x60 DUP2 MSTORE PUSH1 0x20 ADD PUSH1 0x60 DUP2 MSTORE PUSH1 0x20 ADD PUSH1 0x60 DUP2 MSTORE PUSH1 0x20 ADD PUSH1 0x60 DUP2 MSTORE PUSH1 0x20 ADD PUSH1 0x60 DUP2 MSTORE PUSH1 0x20 ADD PUSH1 0x60 DUP2 MSTORE PUSH1 0x20 ADD PUSH1 0x60 DUP2 MSTORE PUSH1 0x20 ADD PUSH1 0x0 DUP2 MSTORE PUSH1 0x20 ADD PUSH1 0x60 DUP2 MSTORE PUSH1 0x20 ADD PUSH1 0x60 DUP2 MSTORE PUSH1 0x20 ADD PUSH1 0x60 DUP2 MSTORE POP SWAP1 JUMP JUMPDEST JUMPDEST DUP1 DUP3 GT ISZERO PUSH2 0x10A6 JUMPI PUSH1 0x0 DUP2 PUSH1 0x0 SWAP1 SSTORE POP PUSH1 0x1 ADD PUSH2 0x108E JUMP JUMPDEST POP SWAP1 JUMP JUMPDEST PUSH1 0x0 DUP1 DUP4 PUSH1 0x1F DUP5 ADD SLT PUSH2 0x10C0 JUMPI PUSH2 0x10BF PUSH2 0x16BC JUMP JUMPDEST JUMPDEST DUP3 CALLDATALOAD SWAP1 POP PUSH8 0xFFFFFFFFFFFFFFFF DUP2 GT ISZERO PUSH2 0x10DD JUMPI PUSH2 0x10DC PUSH2 0x16B7 JUMP JUMPDEST JUMPDEST PUSH1 0x20 DUP4 ADD SWAP2 POP DUP4 PUSH1 0x1 DUP3 MUL DUP4 ADD GT ISZERO PUSH2 0x10F9 JUMPI PUSH2 0x10F8 PUSH2 0x16C1 JUMP JUMPDEST JUMPDEST SWAP3 POP SWAP3 SWAP1 POP JUMP JUMPDEST PUSH1 0x0 DUP1 PUSH1 0x0 DUP1 PUSH1 0x0 DUP1 PUSH1 0x0 DUP1 PUSH1 0x0 DUP1 PUSH1 0xA0 DUP12 DUP14 SUB SLT ISZERO PUSH2 0x1123 JUMPI PUSH2 0x1122 PUSH2 0x16CB JUMP JUMPDEST JUMPDEST PUSH1 0x0 DUP12 ADD CALLDATALOAD PUSH8 0xFFFFFFFFFFFFFFFF DUP2 GT ISZERO PUSH2 0x1141 JUMPI PUSH2 0x1140 PUSH2 0x16C6 JUMP JUMPDEST JUMPDEST PUSH2 0x114D DUP14 DUP3 DUP15 ADD PUSH2 0x10AA JUMP JUMPDEST SWAP11 POP SWAP11 POP POP PUSH1 0x20 DUP12 ADD CALLDATALOAD PUSH8 0xFFFFFFFFFFFFFFFF DUP2 GT ISZERO PUSH2 0x1170 JUMPI PUSH2 0x116F PUSH2 0x16C6 JUMP JUMPDEST JUMPDEST PUSH2 0x117C DUP14 DUP3 DUP15 ADD PUSH2 0x10AA JUMP JUMPDEST SWAP9 POP SWAP9 POP POP PUSH1 0x40 DUP12 ADD CALLDATALOAD PUSH8 0xFFFFFFFFFFFFFFFF DUP2 GT ISZERO PUSH2 0x119F JUMPI PUSH2 0x119E PUSH2 0x16C6 JUMP JUMPDEST JUMPDEST PUSH2 0x11AB DUP14 DUP3 DUP15 ADD PUSH2 0x10AA JUMP JUMPDEST SWAP7 POP SWAP7 POP POP PUSH1 0x60 DUP12 ADD CALLDATALOAD PUSH8 0xFFFFFFFFFFFFFFFF DUP2 GT ISZERO PUSH2 0x11CE JUMPI PUSH2 0x11CD PUSH2 0x16C6 JUMP JUMPDEST JUMPDEST PUSH2 0x11DA DUP14 DUP3 DUP15 ADD PUSH2 0x10AA JUMP JUMPDEST SWAP5 POP SWAP5 POP POP PUSH1 0x80 DUP12 ADD CALLDATALOAD PUSH8 0xFFFFFFFFFFFFFFFF DUP2 GT ISZERO PUSH2 0x11FD JUMPI PUSH2 0x11FC PUSH2 0x16C6 JUMP JUMPDEST JUMPDEST PUSH2 0x1209 DUP14 DUP3 DUP15 ADD PUSH2 0x10AA JUMP JUMPDEST SWAP3 POP SWAP3 POP POP SWAP3 SWAP6 SWAP9 SWAP12 SWAP2 SWAP5 SWAP8 SWAP11 POP SWAP3 SWAP6 SWAP9 POP JUMP JUMPDEST PUSH1 0x0 PUSH2 0x1229 DUP4 DUP4 PUSH2 0x14DF JUMP JUMPDEST SWAP1 POP SWAP3 SWAP2 POP POP JUMP JUMPDEST PUSH1 0x0 PUSH2 0x123C DUP3 PUSH2 0x15D4 JUMP JUMPDEST PUSH2 0x1246 DUP2 DUP6 PUSH2 0x15F7 JUMP JUMPDEST SWAP4 POP DUP4 PUSH1 0x20 DUP3 MUL DUP6 ADD PUSH2 0x1258 DUP6 PUSH2 0x15C4 JUMP JUMPDEST DUP1 PUSH1 0x0 JUMPDEST DUP6 DUP2 LT ISZERO PUSH2 0x1294 JUMPI DUP5 DUP5 SUB DUP10 MSTORE DUP2 MLOAD PUSH2 0x1275 DUP6 DUP3 PUSH2 0x121D JUMP JUMPDEST SWAP5 POP PUSH2 0x1280 DUP4 PUSH2 0x15EA JUMP JUMPDEST SWAP3 POP PUSH1 0x20 DUP11 ADD SWAP10 POP POP PUSH1 0x1 DUP2 ADD SWAP1 POP PUSH2 0x125C JUMP JUMPDEST POP DUP3 SWAP8 POP DUP8 SWAP6 POP POP POP POP POP POP SWAP3 SWAP2 POP POP JUMP JUMPDEST PUSH1 0x0 PUSH2 0x12B1 DUP3 PUSH2 0x15DF JUMP JUMPDEST PUSH2 0x12BB DUP2 DUP6 PUSH2 0x1608 JUMP JUMPDEST SWAP4 POP PUSH2 0x12CB DUP2 DUP6 PUSH1 0x20 DUP7 ADD PUSH2 0x1623 JUMP JUMPDEST PUSH2 0x12D4 DUP2 PUSH2 0x16D0 JUMP JUMPDEST DUP5 ADD SWAP2 POP POP SWAP3 SWAP2 POP POP JUMP JUMPDEST PUSH1 0x0 PUSH2 0x260 DUP4 ADD PUSH1 0x0 DUP4 ADD MLOAD DUP5 DUP3 SUB PUSH1 0x0 DUP7 ADD MSTORE PUSH2 0x12FD DUP3 DUP3 PUSH2 0x12A6 JUMP JUMPDEST SWAP2 POP POP PUSH1 0x20 DUP4 ADD MLOAD DUP5 DUP3 SUB PUSH1 0x20 DUP7 ADD MSTORE PUSH2 0x1317 DUP3 DUP3 PUSH2 0x12A6 JUMP JUMPDEST SWAP2 POP POP PUSH1 0x40 DUP4 ADD MLOAD DUP5 DUP3 SUB PUSH1 0x40 DUP7 ADD MSTORE PUSH2 0x1331 DUP3 DUP3 PUSH2 0x12A6 JUMP JUMPDEST SWAP2 POP POP PUSH1 0x60 DUP4 ADD MLOAD PUSH2 0x1346 PUSH1 0x60 DUP7 ADD DUP3 PUSH2 0x1571 JUMP JUMPDEST POP PUSH1 0x80 DUP4 ADD MLOAD PUSH2 0x1359 PUSH1 0x80 DUP7 ADD DUP3 PUSH2 0x1571 JUMP JUMPDEST POP PUSH1 0xA0 DUP4 ADD MLOAD DUP5 DUP3 SUB PUSH1 0xA0 DUP7 ADD MSTORE PUSH2 0x1371 DUP3 DUP3 PUSH2 0x12A6 JUMP JUMPDEST SWAP2 POP POP PUSH1 0xC0 DUP4 ADD MLOAD DUP5 DUP3 SUB PUSH1 0xC0 DUP7 ADD MSTORE PUSH2 0x138B DUP3 DUP3 PUSH2 0x12A6 JUMP JUMPDEST SWAP2 POP POP PUSH1 0xE0 DUP4 ADD MLOAD DUP5 DUP3 SUB PUSH1 0xE0 DUP7 ADD MSTORE PUSH2 0x13A5 DUP3 DUP3 PUSH2 0x12A6 JUMP JUMPDEST SWAP2 POP POP PUSH2 0x100 DUP4 ADD MLOAD DUP5 DUP3 SUB PUSH2 0x100 DUP7 ADD MSTORE PUSH2 0x13C1 DUP3 DUP3 PUSH2 0x12A6 JUMP JUMPDEST SWAP2 POP POP PUSH2 0x120 DUP4 ADD MLOAD DUP5 DUP3 SUB PUSH2 0x120 DUP7 ADD MSTORE PUSH2 0x13DD DUP3 DUP3 PUSH2 0x12A6 JUMP JUMPDEST SWAP2 POP POP PUSH2 0x140 DUP4 ADD MLOAD DUP5 DUP3 SUB PUSH2 0x140 DUP7 ADD MSTORE PUSH2 0x13F9 DUP3 DUP3 PUSH2 0x12A6 JUMP JUMPDEST SWAP2 POP POP PUSH2 0x160 DUP4 ADD MLOAD DUP5 DUP3 SUB PUSH2 0x160 DUP7 ADD MSTORE PUSH2 0x1415 DUP3 DUP3 PUSH2 0x12A6 JUMP JUMPDEST SWAP2 POP POP PUSH2 0x180 DUP4 ADD MLOAD DUP5 DUP3 SUB PUSH2 0x180 DUP7 ADD MSTORE PUSH2 0x1431 DUP3 DUP3 PUSH2 0x12A6 JUMP JUMPDEST SWAP2 POP POP PUSH2 0x1A0 DUP4 ADD MLOAD DUP5 DUP3 SUB PUSH2 0x1A0 DUP7 ADD MSTORE PUSH2 0x144D DUP3 DUP3 PUSH2 0x12A6 JUMP JUMPDEST SWAP2 POP POP PUSH2 0x1C0 DUP4 ADD MLOAD DUP5 DUP3 SUB PUSH2 0x1C0 DUP7 ADD MSTORE PUSH2 0x1469 DUP3 DUP3 PUSH2 0x12A6 JUMP JUMPDEST SWAP2 POP POP PUSH2 0x1E0 DUP4 ADD MLOAD PUSH2 0x1480 PUSH2 0x1E0 DUP7 ADD DUP3 PUSH2 0x1571 JUMP JUMPDEST POP PUSH2 0x200 DUP4 ADD MLOAD DUP5 DUP3 SUB PUSH2 0x200 DUP7 ADD MSTORE PUSH2 0x149A DUP3 DUP3 PUSH2 0x12A6 JUMP JUMPDEST SWAP2 POP POP PUSH2 0x220 DUP4 ADD MLOAD DUP5 DUP3 SUB PUSH2 0x220 DUP7 ADD MSTORE PUSH2 0x14B6 DUP3 DUP3 PUSH2 0x12A6 JUMP JUMPDEST SWAP2 POP POP PUSH2 0x240 DUP4 ADD MLOAD DUP5 DUP3 SUB PUSH2 0x240 DUP7 ADD MSTORE PUSH2 0x14D2 DUP3 DUP3 PUSH2 0x12A6 JUMP JUMPDEST SWAP2 POP POP DUP1 SWAP2 POP POP SWAP3 SWAP2 POP POP JUMP JUMPDEST PUSH1 0x0 PUSH1 0xA0 DUP4 ADD PUSH1 0x0 DUP4 ADD MLOAD DUP5 DUP3 SUB PUSH1 0x0 DUP7 ADD MSTORE PUSH2 0x14FC DUP3 DUP3 PUSH2 0x12A6 JUMP JUMPDEST SWAP2 POP POP PUSH1 0x20 DUP4 ADD MLOAD DUP5 DUP3 SUB PUSH1 0x20 DUP7 ADD MSTORE PUSH2 0x1516 DUP3 DUP3 PUSH2 0x12A6 JUMP JUMPDEST SWAP2 POP POP PUSH1 0x40 DUP4 ADD MLOAD DUP5 DUP3 SUB PUSH1 0x40 DUP7 ADD MSTORE PUSH2 0x1530 DUP3 DUP3 PUSH2 0x12A6 JUMP JUMPDEST SWAP2 POP POP PUSH1 0x60 DUP4 ADD MLOAD DUP5 DUP3 SUB PUSH1 0x60 DUP7 ADD MSTORE PUSH2 0x154A DUP3 DUP3 PUSH2 0x12A6 JUMP JUMPDEST SWAP2 POP POP PUSH1 0x80 DUP4 ADD MLOAD DUP5 DUP3 SUB PUSH1 0x80 DUP7 ADD MSTORE PUSH2 0x1564 DUP3 DUP3 PUSH2 0x12A6 JUMP JUMPDEST SWAP2 POP POP DUP1 SWAP2 POP POP SWAP3 SWAP2 POP POP JUMP JUMPDEST PUSH2 0x157A DUP2 PUSH2 0x1619 JUMP JUMPDEST DUP3 MSTORE POP POP JUMP JUMPDEST PUSH1 0x0 PUSH1 0x20 DUP3 ADD SWAP1 POP DUP2 DUP2 SUB PUSH1 0x0 DUP4 ADD MSTORE PUSH2 0x159A DUP2 DUP5 PUSH2 0x1231 JUMP JUMPDEST SWAP1 POP SWAP3 SWAP2 POP POP JUMP JUMPDEST PUSH1 0x0 PUSH1 0x20 DUP3 ADD SWAP1 POP DUP2 DUP2 SUB PUSH1 0x0 DUP4 ADD MSTORE PUSH2 0x15BC DUP2 DUP5 PUSH2 0x12DF JUMP JUMPDEST SWAP1 POP SWAP3 SWAP2 POP POP JUMP JUMPDEST PUSH1 0x0 DUP2 SWAP1 POP PUSH1 0x20 DUP3 ADD SWAP1 POP SWAP2 SWAP1 POP JUMP JUMPDEST PUSH1 0x0 DUP2 MLOAD SWAP1 POP SWAP2 SWAP1 POP JUMP JUMPDEST PUSH1 0x0 DUP2 MLOAD SWAP1 POP SWAP2 SWAP1 POP JUMP JUMPDEST PUSH1 0x0 PUSH1 0x20 DUP3 ADD SWAP1 POP SWAP2 SWAP1 POP JUMP JUMPDEST PUSH1 0x0 DUP3 DUP3 MSTORE PUSH1 0x20 DUP3 ADD SWAP1 POP SWAP3 SWAP2 POP POP JUMP JUMPDEST PUSH1 0x0 DUP3 DUP3 MSTORE PUSH1 0x20 DUP3 ADD SWAP1 POP SWAP3 SWAP2 POP POP JUMP JUMPDEST PUSH1 0x0 DUP2 SWAP1 POP SWAP2 SWAP1 POP JUMP JUMPDEST PUSH1 0x0 JUMPDEST DUP4 DUP2 LT ISZERO PUSH2 0x1641 JUMPI DUP1 DUP3 ADD MLOAD DUP2 DUP5 ADD MSTORE PUSH1 0x20 DUP2 ADD SWAP1 POP PUSH2 0x1626 JUMP JUMPDEST DUP4 DUP2 GT ISZERO PUSH2 0x1650 JUMPI PUSH1 0x0 DUP5 DUP5 ADD MSTORE JUMPDEST POP POP POP POP JUMP JUMPDEST PUSH1 0x0 PUSH1 0x2 DUP3 DIV SWAP1 POP PUSH1 0x1 DUP3 AND DUP1 PUSH2 0x166E JUMPI PUSH1 0x7F DUP3 AND SWAP2 POP JUMPDEST PUSH1 0x20 DUP3 LT DUP2 EQ ISZERO PUSH2 0x1682 JUMPI PUSH2 0x1681 PUSH2 0x1688 JUMP JUMPDEST JUMPDEST POP SWAP2 SWAP1 POP JUMP JUMPDEST PUSH32 0x4E487B7100000000000000000000000000000000000000000000000000000000 PUSH1 0x0 MSTORE PUSH1 0x22 PUSH1 0x4 MSTORE PUSH1 0x24 PUSH1 0x0 REVERT JUMPDEST PUSH1 0x0 DUP1 REVERT JUMPDEST PUSH1 0x0 DUP1 REVERT JUMPDEST PUSH1 0x0 DUP1 REVERT JUMPDEST PUSH1 0x0 DUP1 REVERT JUMPDEST PUSH1 0x0 DUP1 REVERT JUMPDEST PUSH1 0x0 PUSH1 0x1F NOT PUSH1 0x1F DUP4 ADD AND SWAP1 POP SWAP2 SWAP1 POP JUMP INVALID LOG2 PUSH5 0x6970667358 0x22 SLT KECCAK256 SWAP14 0xA5 SWAP6 0xE6 PUSH24 0xD5168CBD1427A984367FC7459DE8DD4FBC6CE887F8A7864F CALLER PUSH25 0xF64736F6C6343000806003300000000000000000000000000 "
				},
				"gasEstimates": {
					"creation": {
						"codeDepositCost": "1182200",
						"executionCost": "infinite",
						"totalCost": "infinite"
					},
					"external": {
						"addRecord(string,string,string,string,string)": "infinite",
						"getData()": "infinite",
						"getRecords()": "infinite"
					}
				},
				"methodIdentifiers": {
					"addRecord(string,string,string,string,string)": "2d1814f2",
					"getData()": "3bc5de30",
					"getRecords()": "8eff3c29"
				}
			},
			"storageLayout": {
				"storage": [
					{
						"astId": 86,
						"contract": "ethereum/contracts/criminal_records.sol:Criminal",
						"label": "pictureCID",
						"offset": 0,
						"slot": "0",
						"type": "t_string_storage"
					},
					{
						"astId": 88,
						"contract": "ethereum/contracts/criminal_records.sol:Criminal",
						"label": "name",
						"offset": 0,
						"slot": "1",
						"type": "t_string_storage"
					},
					{
						"astId": 90,
						"contract": "ethereum/contracts/criminal_records.sol:Criminal",
						"label": "civilianID",
						"offset": 0,
						"slot": "2",
						"type": "t_string_storage"
					},
					{
						"astId": 92,
						"contract": "ethereum/contracts/criminal_records.sol:Criminal",
						"label": "age",
						"offset": 0,
						"slot": "3",
						"type": "t_uint256"
					},
					{
						"astId": 94,
						"contract": "ethereum/contracts/criminal_records.sol:Criminal",
						"label": "height",
						"offset": 0,
						"slot": "4",
						"type": "t_uint256"
					},
					{
						"astId": 96,
						"contract": "ethereum/contracts/criminal_records.sol:Criminal",
						"label": "mothersName",
						"offset": 0,
						"slot": "5",
						"type": "t_string_storage"
					},
					{
						"astId": 98,
						"contract": "ethereum/contracts/criminal_records.sol:Criminal",
						"label": "fathersName",
						"offset": 0,
						"slot": "6",
						"type": "t_string_storage"
					},
					{
						"astId": 100,
						"contract": "ethereum/contracts/criminal_records.sol:Criminal",
						"label": "dateOfBirth",
						"offset": 0,
						"slot": "7",
						"type": "t_string_storage"
					},
					{
						"astId": 102,
						"contract": "ethereum/contracts/criminal_records.sol:Criminal",
						"label": "skinTone",
						"offset": 0,
						"slot": "8",
						"type": "t_string_storage"
					},
					{
						"astId": 104,
						"contract": "ethereum/contracts/criminal_records.sol:Criminal",
						"label": "hairColor",
						"offset": 0,
						"slot": "9",
						"type": "t_string_storage"
					},
					{
						"astId": 106,
						"contract": "ethereum/contracts/criminal_records.sol:Criminal",
						"label": "facialHairColor",
						"offset": 0,
						"slot": "10",
						"type": "t_string_storage"
					},
					{
						"astId": 108,
						"contract": "ethereum/contracts/criminal_records.sol:Criminal",
						"label": "physique",
						"offset": 0,
						"slot": "11",
						"type": "t_string_storage"
					},
					{
						"astId": 110,
						"contract": "ethereum/contracts/criminal_records.sol:Criminal",
						"label": "eyeColor",
						"offset": 0,
						"slot": "12",
						"type": "t_string_storage"
					},
					{
						"astId": 112,
						"contract": "ethereum/contracts/criminal_records.sol:Criminal",
						"label": "identificationMark",
						"offset": 0,
						"slot": "13",
						"type": "t_string_storage"
					},
					{
						"astId": 114,
						"contract": "ethereum/contracts/criminal_records.sol:Criminal",
						"label": "religion",
						"offset": 0,
						"slot": "14",
						"type": "t_string_storage"
					},
					{
						"astId": 116,
						"contract": "ethereum/contracts/criminal_records.sol:Criminal",
						"label": "weight",
						"offset": 0,
						"slot": "15",
						"type": "t_uint256"
					},
					{
						"astId": 118,
						"contract": "ethereum/contracts/criminal_records.sol:Criminal",
						"label": "nativeLanguage",
						"offset": 0,
						"slot": "16",
						"type": "t_string_storage"
					},
					{
						"astId": 120,
						"contract": "ethereum/contracts/criminal_records.sol:Criminal",
						"label": "citizenship",
						"offset": 0,
						"slot": "17",
						"type": "t_string_storage"
					},
					{
						"astId": 122,
						"contract": "ethereum/contracts/criminal_records.sol:Criminal",
						"label": "placeOfBirth",
						"offset": 0,
						"slot": "18",
						"type": "t_string_storage"
					},
					{
						"astId": 125,
						"contract": "ethereum/contracts/criminal_records.sol:Criminal",
						"label": "criminalData",
						"offset": 0,
						"slot": "19",
						"type": "t_struct(CriminalData)40_storage"
					},
					{
						"astId": 129,
						"contract": "ethereum/contracts/criminal_records.sol:Criminal",
						"label": "criminalRecords",
						"offset": 0,
						"slot": "38",
						"type": "t_array(t_struct(CriminalRecord)84_storage)dyn_storage"
					}
				],
				"types": {
					"t_array(t_struct(CriminalRecord)84_storage)dyn_storage": {
						"base": "t_struct(CriminalRecord)84_storage",
						"encoding": "dynamic_array",
						"label": "struct Criminal.CriminalRecord[]",
						"numberOfBytes": "32"
					},
					"t_string_storage": {
						"encoding": "bytes",
						"label": "string",
						"numberOfBytes": "32"
					},
					"t_struct(CriminalData)40_storage": {
						"encoding": "inplace",
						"label": "struct CriminalData",
						"members": [
							{
								"astId": 3,
								"contract": "ethereum/contracts/criminal_records.sol:Criminal",
								"label": "pictureCID",
								"offset": 0,
								"slot": "0",
								"type": "t_string_storage"
							},
							{
								"astId": 5,
								"contract": "ethereum/contracts/criminal_records.sol:Criminal",
								"label": "name",
								"offset": 0,
								"slot": "1",
								"type": "t_string_storage"
							},
							{
								"astId": 7,
								"contract": "ethereum/contracts/criminal_records.sol:Criminal",
								"label": "civilianID",
								"offset": 0,
								"slot": "2",
								"type": "t_string_storage"
							},
							{
								"astId": 9,
								"contract": "ethereum/contracts/criminal_records.sol:Criminal",
								"label": "age",
								"offset": 0,
								"slot": "3",
								"type": "t_uint256"
							},
							{
								"astId": 11,
								"contract": "ethereum/contracts/criminal_records.sol:Criminal",
								"label": "height",
								"offset": 0,
								"slot": "4",
								"type": "t_uint256"
							},
							{
								"astId": 13,
								"contract": "ethereum/contracts/criminal_records.sol:Criminal",
								"label": "mothersName",
								"offset": 0,
								"slot": "5",
								"type": "t_string_storage"
							},
							{
								"astId": 15,
								"contract": "ethereum/contracts/criminal_records.sol:Criminal",
								"label": "fathersName",
								"offset": 0,
								"slot": "6",
								"type": "t_string_storage"
							},
							{
								"astId": 17,
								"contract": "ethereum/contracts/criminal_records.sol:Criminal",
								"label": "dateOfBirth",
								"offset": 0,
								"slot": "7",
								"type": "t_string_storage"
							},
							{
								"astId": 19,
								"contract": "ethereum/contracts/criminal_records.sol:Criminal",
								"label": "skinTone",
								"offset": 0,
								"slot": "8",
								"type": "t_string_storage"
							},
							{
								"astId": 21,
								"contract": "ethereum/contracts/criminal_records.sol:Criminal",
								"label": "hairColor",
								"offset": 0,
								"slot": "9",
								"type": "t_string_storage"
							},
							{
								"astId": 23,
								"contract": "ethereum/contracts/criminal_records.sol:Criminal",
								"label": "facialHairColor",
								"offset": 0,
								"slot": "10",
								"type": "t_string_storage"
							},
							{
								"astId": 25,
								"contract": "ethereum/contracts/criminal_records.sol:Criminal",
								"label": "physique",
								"offset": 0,
								"slot": "11",
								"type": "t_string_storage"
							},
							{
								"astId": 27,
								"contract": "ethereum/contracts/criminal_records.sol:Criminal",
								"label": "eyeColor",
								"offset": 0,
								"slot": "12",
								"type": "t_string_storage"
							},
							{
								"astId": 29,
								"contract": "ethereum/contracts/criminal_records.sol:Criminal",
								"label": "identificationMark",
								"offset": 0,
								"slot": "13",
								"type": "t_string_storage"
							},
							{
								"astId": 31,
								"contract": "ethereum/contracts/criminal_records.sol:Criminal",
								"label": "religion",
								"offset": 0,
								"slot": "14",
								"type": "t_string_storage"
							},
							{
								"astId": 33,
								"contract": "ethereum/contracts/criminal_records.sol:Criminal",
								"label": "weight",
								"offset": 0,
								"slot": "15",
								"type": "t_uint256"
							},
							{
								"astId": 35,
								"contract": "ethereum/contracts/criminal_records.sol:Criminal",
								"label": "nativeLanguage",
								"offset": 0,
								"slot": "16",
								"type": "t_string_storage"
							},
							{
								"astId": 37,
								"contract": "ethereum/contracts/criminal_records.sol:Criminal",
								"label": "citizenship",
								"offset": 0,
								"slot": "17",
								"type": "t_string_storage"
							},
							{
								"astId": 39,
								"contract": "ethereum/contracts/criminal_records.sol:Criminal",
								"label": "placeOfBirth",
								"offset": 0,
								"slot": "18",
								"type": "t_string_storage"
							}
						],
						"numberOfBytes": "608"
					},
					"t_struct(CriminalRecord)84_storage": {
						"encoding": "inplace",
						"label": "struct Criminal.CriminalRecord",
						"members": [
							{
								"astId": 75,
								"contract": "ethereum/contracts/criminal_records.sol:Criminal",
								"label": "trialNumber",
								"offset": 0,
								"slot": "0",
								"type": "t_string_storage"
							},
							{
								"astId": 77,
								"contract": "ethereum/contracts/criminal_records.sol:Criminal",
								"label": "date",
								"offset": 0,
								"slot": "1",
								"type": "t_string_storage"
							},
							{
								"astId": 79,
								"contract": "ethereum/contracts/criminal_records.sol:Criminal",
								"label": "crimeCommited",
								"offset": 0,
								"slot": "2",
								"type": "t_string_storage"
							},
							{
								"astId": 81,
								"contract": "ethereum/contracts/criminal_records.sol:Criminal",
								"label": "jail",
								"offset": 0,
								"slot": "3",
								"type": "t_string_storage"
							},
							{
								"astId": 83,
								"contract": "ethereum/contracts/criminal_records.sol:Criminal",
								"label": "location",
								"offset": 0,
								"slot": "4",
								"type": "t_string_storage"
							}
						],
						"numberOfBytes": "160"
					},
					"t_uint256": {
						"encoding": "inplace",
						"label": "uint256",
						"numberOfBytes": "32"
					}
				}
			},
			"userdoc": {
				"kind": "user",
				"methods": {},
				"version": 1
			}
		}
	}
}