{
	"ethereum/contracts/charge_sheet.sol": {
		"ChargeSheet": {
			"abi": [
				{
					"inputs": [
						{
							"internalType": "string",
							"name": "_name",
							"type": "string"
						},
						{
							"internalType": "string",
							"name": "_cid",
							"type": "string"
						},
						{
							"internalType": "string",
							"name": "_dob",
							"type": "string"
						},
						{
							"internalType": "string",
							"name": "_charge",
							"type": "string"
						},
						{
							"internalType": "string",
							"name": "_act",
							"type": "string"
						},
						{
							"internalType": "string",
							"name": "_section",
							"type": "string"
						},
						{
							"internalType": "string",
							"name": "_court",
							"type": "string"
						},
						{
							"internalType": "string",
							"name": "_courtAddress",
							"type": "string"
						},
						{
							"internalType": "string",
							"name": "_dateOfHearing",
							"type": "string"
						},
						{
							"internalType": "string",
							"name": "_timeOfHearing",
							"type": "string"
						}
					],
					"stateMutability": "nonpayable",
					"type": "constructor"
				},
				{
					"inputs": [],
					"name": "getData",
					"outputs": [
						{
							"internalType": "string",
							"name": "",
							"type": "string"
						},
						{
							"internalType": "string",
							"name": "",
							"type": "string"
						},
						{
							"internalType": "string",
							"name": "",
							"type": "string"
						},
						{
							"internalType": "string",
							"name": "",
							"type": "string"
						},
						{
							"internalType": "string",
							"name": "",
							"type": "string"
						},
						{
							"internalType": "string",
							"name": "",
							"type": "string"
						},
						{
							"internalType": "string",
							"name": "",
							"type": "string"
						},
						{
							"internalType": "string",
							"name": "",
							"type": "string"
						},
						{
							"internalType": "string",
							"name": "",
							"type": "string"
						},
						{
							"internalType": "string",
							"name": "",
							"type": "string"
						},
						{
							"internalType": "bool",
							"name": "",
							"type": "bool"
						}
					],
					"stateMutability": "view",
					"type": "function"
				},
				{
					"inputs": [],
					"name": "personIsGuilty",
					"outputs": [],
					"stateMutability": "nonpayable",
					"type": "function"
				},
				{
					"inputs": [],
					"name": "personIsNotGuilty",
					"outputs": [],
					"stateMutability": "nonpayable",
					"type": "function"
				}
			],
			"devdoc": {
				"kind": "dev",
				"methods": {},
				"version": 1
			},
			"evm": {
				"assembly": "    /* \"ethereum/contracts/charge_sheet.sol\":721:2011  contract ChargeSheet {\r... */\n  mstore(0x40, 0x80)\n    /* \"ethereum/contracts/charge_sheet.sol\":974:979  false */\n  0x00\n    /* \"ethereum/contracts/charge_sheet.sol\":958:979  bool isGuilty = false */\n  0x0a\n  exp(0x0100, 0x00)\n  dup2\n  sload\n  dup2\n  0xff\n  mul\n  not\n  and\n  swap1\n  dup4\n  iszero\n  iszero\n  mul\n  or\n  swap1\n  sstore\n  pop\n    /* \"ethereum/contracts/charge_sheet.sol\":988:1535  constructor(string memory _name, string memory _cid, string memory _dob, string memory _charge, string memory _act, string memory _section, string memory _court, string memory _courtAddress, string memory _dateOfHearing, string memory _timeOfHearing) {\r... */\n  callvalue\n  dup1\n  iszero\n  tag_1\n  jumpi\n  0x00\n  dup1\n  revert\ntag_1:\n  pop\n  mload(0x40)\n  sub(codesize, bytecodeSize)\n  dup1\n  bytecodeSize\n  dup4\n  codecopy\n  dup2\n  dup2\n  add\n  0x40\n  mstore\n  dup2\n  add\n  swap1\n  tag_2\n  swap2\n  swap1\n  tag_3\n  jump\t// in\ntag_2:\n    /* \"ethereum/contracts/charge_sheet.sol\":1257:1262  _name */\n  dup10\n    /* \"ethereum/contracts/charge_sheet.sol\":1250:1254  name */\n  0x00\n    /* \"ethereum/contracts/charge_sheet.sol\":1250:1262  name = _name */\n  swap1\n  dup1\n  mload\n  swap1\n  0x20\n  add\n  swap1\n  tag_6\n  swap3\n  swap2\n  swap1\n  tag_7\n  jump\t// in\ntag_6:\n  pop\n    /* \"ethereum/contracts/charge_sheet.sol\":1279:1283  _cid */\n  dup9\n    /* \"ethereum/contracts/charge_sheet.sol\":1273:1276  cid */\n  0x01\n    /* \"ethereum/contracts/charge_sheet.sol\":1273:1283  cid = _cid */\n  swap1\n  dup1\n  mload\n  swap1\n  0x20\n  add\n  swap1\n  tag_8\n  swap3\n  swap2\n  swap1\n  tag_7\n  jump\t// in\ntag_8:\n  pop\n    /* \"ethereum/contracts/charge_sheet.sol\":1300:1304  _dob */\n  dup8\n    /* \"ethereum/contracts/charge_sheet.sol\":1294:1297  dob */\n  0x02\n    /* \"ethereum/contracts/charge_sheet.sol\":1294:1304  dob = _dob */\n  swap1\n  dup1\n  mload\n  swap1\n  0x20\n  add\n  swap1\n  tag_9\n  swap3\n  swap2\n  swap1\n  tag_7\n  jump\t// in\ntag_9:\n  pop\n    /* \"ethereum/contracts/charge_sheet.sol\":1324:1331  _charge */\n  dup7\n    /* \"ethereum/contracts/charge_sheet.sol\":1315:1321  charge */\n  0x03\n    /* \"ethereum/contracts/charge_sheet.sol\":1315:1331  charge = _charge */\n  swap1\n  dup1\n  mload\n  swap1\n  0x20\n  add\n  swap1\n  tag_10\n  swap3\n  swap2\n  swap1\n  tag_7\n  jump\t// in\ntag_10:\n  pop\n    /* \"ethereum/contracts/charge_sheet.sol\":1348:1352  _act */\n  dup6\n    /* \"ethereum/contracts/charge_sheet.sol\":1342:1345  act */\n  0x04\n    /* \"ethereum/contracts/charge_sheet.sol\":1342:1352  act = _act */\n  swap1\n  dup1\n  mload\n  swap1\n  0x20\n  add\n  swap1\n  tag_11\n  swap3\n  swap2\n  swap1\n  tag_7\n  jump\t// in\ntag_11:\n  pop\n    /* \"ethereum/contracts/charge_sheet.sol\":1373:1381  _section */\n  dup5\n    /* \"ethereum/contracts/charge_sheet.sol\":1363:1370  section */\n  0x05\n    /* \"ethereum/contracts/charge_sheet.sol\":1363:1381  section = _section */\n  swap1\n  dup1\n  mload\n  swap1\n  0x20\n  add\n  swap1\n  tag_12\n  swap3\n  swap2\n  swap1\n  tag_7\n  jump\t// in\ntag_12:\n  pop\n    /* \"ethereum/contracts/charge_sheet.sol\":1400:1406  _court */\n  dup4\n    /* \"ethereum/contracts/charge_sheet.sol\":1392:1397  court */\n  0x06\n    /* \"ethereum/contracts/charge_sheet.sol\":1392:1406  court = _court */\n  swap1\n  dup1\n  mload\n  swap1\n  0x20\n  add\n  swap1\n  tag_13\n  swap3\n  swap2\n  swap1\n  tag_7\n  jump\t// in\ntag_13:\n  pop\n    /* \"ethereum/contracts/charge_sheet.sol\":1432:1445  _courtAddress */\n  dup3\n    /* \"ethereum/contracts/charge_sheet.sol\":1417:1429  courtAddress */\n  0x07\n    /* \"ethereum/contracts/charge_sheet.sol\":1417:1445  courtAddress = _courtAddress */\n  swap1\n  dup1\n  mload\n  swap1\n  0x20\n  add\n  swap1\n  tag_14\n  swap3\n  swap2\n  swap1\n  tag_7\n  jump\t// in\ntag_14:\n  pop\n    /* \"ethereum/contracts/charge_sheet.sol\":1472:1486  _dateOfHearing */\n  dup2\n    /* \"ethereum/contracts/charge_sheet.sol\":1456:1469  dateOfHearing */\n  0x08\n    /* \"ethereum/contracts/charge_sheet.sol\":1456:1486  dateOfHearing = _dateOfHearing */\n  swap1\n  dup1\n  mload\n  swap1\n  0x20\n  add\n  swap1\n  tag_15\n  swap3\n  swap2\n  swap1\n  tag_7\n  jump\t// in\ntag_15:\n  pop\n    /* \"ethereum/contracts/charge_sheet.sol\":1513:1527  _timeOfHearing */\n  dup1\n    /* \"ethereum/contracts/charge_sheet.sol\":1497:1510  timeOfHearing */\n  0x09\n    /* \"ethereum/contracts/charge_sheet.sol\":1497:1527  timeOfHearing = _timeOfHearing */\n  swap1\n  dup1\n  mload\n  swap1\n  0x20\n  add\n  swap1\n  tag_16\n  swap3\n  swap2\n  swap1\n  tag_7\n  jump\t// in\ntag_16:\n  pop\n    /* \"ethereum/contracts/charge_sheet.sol\":988:1535  constructor(string memory _name, string memory _cid, string memory _dob, string memory _charge, string memory _act, string memory _section, string memory _court, string memory _courtAddress, string memory _dateOfHearing, string memory _timeOfHearing) {\r... */\n  pop\n  pop\n  pop\n  pop\n  pop\n  pop\n  pop\n  pop\n  pop\n  pop\n    /* \"ethereum/contracts/charge_sheet.sol\":721:2011  contract ChargeSheet {\r... */\n  jump(tag_17)\ntag_7:\n  dup3\n  dup1\n  sload\n  tag_18\n  swap1\n  tag_19\n  jump\t// in\ntag_18:\n  swap1\n  0x00\n  mstore\n  keccak256(0x00, 0x20)\n  swap1\n  0x1f\n  add\n  0x20\n  swap1\n  div\n  dup2\n  add\n  swap3\n  dup3\n  tag_21\n  jumpi\n  0x00\n  dup6\n  sstore\n  jump(tag_20)\ntag_21:\n  dup3\n  0x1f\n  lt\n  tag_22\n  jumpi\n  dup1\n  mload\n  not(0xff)\n  and\n  dup4\n  dup1\n  add\n  or\n  dup6\n  sstore\n  jump(tag_20)\ntag_22:\n  dup3\n  dup1\n  add\n  0x01\n  add\n  dup6\n  sstore\n  dup3\n  iszero\n  tag_20\n  jumpi\n  swap2\n  dup3\n  add\ntag_23:\n  dup3\n  dup2\n  gt\n  iszero\n  tag_24\n  jumpi\n  dup3\n  mload\n  dup3\n  sstore\n  swap2\n  0x20\n  add\n  swap2\n  swap1\n  0x01\n  add\n  swap1\n  jump(tag_23)\ntag_24:\ntag_20:\n  pop\n  swap1\n  pop\n  tag_25\n  swap2\n  swap1\n  tag_26\n  jump\t// in\ntag_25:\n  pop\n  swap1\n  jump\t// out\ntag_26:\ntag_27:\n  dup1\n  dup3\n  gt\n  iszero\n  tag_28\n  jumpi\n  0x00\n  dup2\n  0x00\n  swap1\n  sstore\n  pop\n  0x01\n  add\n  jump(tag_27)\ntag_28:\n  pop\n  swap1\n  jump\t// out\n    /* \"#utility.yul\":7:428   */\ntag_30:\n    /* \"#utility.yul\":96:101   */\n  0x00\n    /* \"#utility.yul\":121:187   */\n  tag_32\n    /* \"#utility.yul\":137:186   */\n  tag_33\n    /* \"#utility.yul\":179:185   */\n  dup5\n    /* \"#utility.yul\":137:186   */\n  tag_34\n  jump\t// in\ntag_33:\n    /* \"#utility.yul\":121:187   */\n  tag_35\n  jump\t// in\ntag_32:\n    /* \"#utility.yul\":112:187   */\n  swap1\n  pop\n    /* \"#utility.yul\":210:216   */\n  dup3\n    /* \"#utility.yul\":203:208   */\n  dup2\n    /* \"#utility.yul\":196:217   */\n  mstore\n    /* \"#utility.yul\":248:252   */\n  0x20\n    /* \"#utility.yul\":241:246   */\n  dup2\n    /* \"#utility.yul\":237:253   */\n  add\n    /* \"#utility.yul\":286:289   */\n  dup5\n    /* \"#utility.yul\":277:283   */\n  dup5\n    /* \"#utility.yul\":272:275   */\n  dup5\n    /* \"#utility.yul\":268:284   */\n  add\n    /* \"#utility.yul\":265:290   */\n  gt\n    /* \"#utility.yul\":262:264   */\n  iszero\n  tag_36\n  jumpi\n    /* \"#utility.yul\":293:372   */\n  tag_37\n  tag_38\n  jump\t// in\ntag_37:\n    /* \"#utility.yul\":262:264   */\ntag_36:\n    /* \"#utility.yul\":383:422   */\n  tag_39\n    /* \"#utility.yul\":415:421   */\n  dup5\n    /* \"#utility.yul\":410:413   */\n  dup3\n    /* \"#utility.yul\":405:408   */\n  dup6\n    /* \"#utility.yul\":383:422   */\n  tag_40\n  jump\t// in\ntag_39:\n    /* \"#utility.yul\":102:428   */\n  pop\n  swap4\n  swap3\n  pop\n  pop\n  pop\n  jump\t// out\n    /* \"#utility.yul\":448:803   */\ntag_41:\n    /* \"#utility.yul\":515:520   */\n  0x00\n    /* \"#utility.yul\":564:567   */\n  dup3\n    /* \"#utility.yul\":557:561   */\n  0x1f\n    /* \"#utility.yul\":549:555   */\n  dup4\n    /* \"#utility.yul\":545:562   */\n  add\n    /* \"#utility.yul\":541:568   */\n  slt\n    /* \"#utility.yul\":531:533   */\n  tag_43\n  jumpi\n    /* \"#utility.yul\":572:651   */\n  tag_44\n  tag_45\n  jump\t// in\ntag_44:\n    /* \"#utility.yul\":531:533   */\ntag_43:\n    /* \"#utility.yul\":682:688   */\n  dup2\n    /* \"#utility.yul\":676:689   */\n  mload\n    /* \"#utility.yul\":707:797   */\n  tag_46\n    /* \"#utility.yul\":793:796   */\n  dup5\n    /* \"#utility.yul\":785:791   */\n  dup3\n    /* \"#utility.yul\":778:782   */\n  0x20\n    /* \"#utility.yul\":770:776   */\n  dup7\n    /* \"#utility.yul\":766:783   */\n  add\n    /* \"#utility.yul\":707:797   */\n  tag_30\n  jump\t// in\ntag_46:\n    /* \"#utility.yul\":698:797   */\n  swap2\n  pop\n    /* \"#utility.yul\":521:803   */\n  pop\n  swap3\n  swap2\n  pop\n  pop\n  jump\t// out\n    /* \"#utility.yul\":809:4301   */\ntag_3:\n    /* \"#utility.yul\":1060:1066   */\n  0x00\n    /* \"#utility.yul\":1068:1074   */\n  dup1\n    /* \"#utility.yul\":1076:1082   */\n  0x00\n    /* \"#utility.yul\":1084:1090   */\n  dup1\n    /* \"#utility.yul\":1092:1098   */\n  0x00\n    /* \"#utility.yul\":1100:1106   */\n  dup1\n    /* \"#utility.yul\":1108:1114   */\n  0x00\n    /* \"#utility.yul\":1116:1122   */\n  dup1\n    /* \"#utility.yul\":1124:1130   */\n  0x00\n    /* \"#utility.yul\":1132:1138   */\n  dup1\n    /* \"#utility.yul\":1181:1184   */\n  0x0140\n    /* \"#utility.yul\":1169:1178   */\n  dup12\n    /* \"#utility.yul\":1160:1167   */\n  dup14\n    /* \"#utility.yul\":1156:1179   */\n  sub\n    /* \"#utility.yul\":1152:1185   */\n  slt\n    /* \"#utility.yul\":1149:1151   */\n  iszero\n  tag_48\n  jumpi\n    /* \"#utility.yul\":1188:1267   */\n  tag_49\n  tag_50\n  jump\t// in\ntag_49:\n    /* \"#utility.yul\":1149:1151   */\ntag_48:\n    /* \"#utility.yul\":1329:1330   */\n  0x00\n    /* \"#utility.yul\":1318:1327   */\n  dup12\n    /* \"#utility.yul\":1314:1331   */\n  add\n    /* \"#utility.yul\":1308:1332   */\n  mload\n    /* \"#utility.yul\":1359:1377   */\n  0xffffffffffffffff\n    /* \"#utility.yul\":1351:1357   */\n  dup2\n    /* \"#utility.yul\":1348:1378   */\n  gt\n    /* \"#utility.yul\":1345:1347   */\n  iszero\n  tag_51\n  jumpi\n    /* \"#utility.yul\":1381:1460   */\n  tag_52\n  tag_53\n  jump\t// in\ntag_52:\n    /* \"#utility.yul\":1345:1347   */\ntag_51:\n    /* \"#utility.yul\":1486:1560   */\n  tag_54\n    /* \"#utility.yul\":1552:1559   */\n  dup14\n    /* \"#utility.yul\":1543:1549   */\n  dup3\n    /* \"#utility.yul\":1532:1541   */\n  dup15\n    /* \"#utility.yul\":1528:1550   */\n  add\n    /* \"#utility.yul\":1486:1560   */\n  tag_41\n  jump\t// in\ntag_54:\n    /* \"#utility.yul\":1476:1560   */\n  swap11\n  pop\n    /* \"#utility.yul\":1279:1570   */\n  pop\n    /* \"#utility.yul\":1630:1632   */\n  0x20\n    /* \"#utility.yul\":1619:1628   */\n  dup12\n    /* \"#utility.yul\":1615:1633   */\n  add\n    /* \"#utility.yul\":1609:1634   */\n  mload\n    /* \"#utility.yul\":1661:1679   */\n  0xffffffffffffffff\n    /* \"#utility.yul\":1653:1659   */\n  dup2\n    /* \"#utility.yul\":1650:1680   */\n  gt\n    /* \"#utility.yul\":1647:1649   */\n  iszero\n  tag_55\n  jumpi\n    /* \"#utility.yul\":1683:1762   */\n  tag_56\n  tag_53\n  jump\t// in\ntag_56:\n    /* \"#utility.yul\":1647:1649   */\ntag_55:\n    /* \"#utility.yul\":1788:1862   */\n  tag_57\n    /* \"#utility.yul\":1854:1861   */\n  dup14\n    /* \"#utility.yul\":1845:1851   */\n  dup3\n    /* \"#utility.yul\":1834:1843   */\n  dup15\n    /* \"#utility.yul\":1830:1852   */\n  add\n    /* \"#utility.yul\":1788:1862   */\n  tag_41\n  jump\t// in\ntag_57:\n    /* \"#utility.yul\":1778:1862   */\n  swap10\n  pop\n    /* \"#utility.yul\":1580:1872   */\n  pop\n    /* \"#utility.yul\":1932:1934   */\n  0x40\n    /* \"#utility.yul\":1921:1930   */\n  dup12\n    /* \"#utility.yul\":1917:1935   */\n  add\n    /* \"#utility.yul\":1911:1936   */\n  mload\n    /* \"#utility.yul\":1963:1981   */\n  0xffffffffffffffff\n    /* \"#utility.yul\":1955:1961   */\n  dup2\n    /* \"#utility.yul\":1952:1982   */\n  gt\n    /* \"#utility.yul\":1949:1951   */\n  iszero\n  tag_58\n  jumpi\n    /* \"#utility.yul\":1985:2064   */\n  tag_59\n  tag_53\n  jump\t// in\ntag_59:\n    /* \"#utility.yul\":1949:1951   */\ntag_58:\n    /* \"#utility.yul\":2090:2164   */\n  tag_60\n    /* \"#utility.yul\":2156:2163   */\n  dup14\n    /* \"#utility.yul\":2147:2153   */\n  dup3\n    /* \"#utility.yul\":2136:2145   */\n  dup15\n    /* \"#utility.yul\":2132:2154   */\n  add\n    /* \"#utility.yul\":2090:2164   */\n  tag_41\n  jump\t// in\ntag_60:\n    /* \"#utility.yul\":2080:2164   */\n  swap9\n  pop\n    /* \"#utility.yul\":1882:2174   */\n  pop\n    /* \"#utility.yul\":2234:2236   */\n  0x60\n    /* \"#utility.yul\":2223:2232   */\n  dup12\n    /* \"#utility.yul\":2219:2237   */\n  add\n    /* \"#utility.yul\":2213:2238   */\n  mload\n    /* \"#utility.yul\":2265:2283   */\n  0xffffffffffffffff\n    /* \"#utility.yul\":2257:2263   */\n  dup2\n    /* \"#utility.yul\":2254:2284   */\n  gt\n    /* \"#utility.yul\":2251:2253   */\n  iszero\n  tag_61\n  jumpi\n    /* \"#utility.yul\":2287:2366   */\n  tag_62\n  tag_53\n  jump\t// in\ntag_62:\n    /* \"#utility.yul\":2251:2253   */\ntag_61:\n    /* \"#utility.yul\":2392:2466   */\n  tag_63\n    /* \"#utility.yul\":2458:2465   */\n  dup14\n    /* \"#utility.yul\":2449:2455   */\n  dup3\n    /* \"#utility.yul\":2438:2447   */\n  dup15\n    /* \"#utility.yul\":2434:2456   */\n  add\n    /* \"#utility.yul\":2392:2466   */\n  tag_41\n  jump\t// in\ntag_63:\n    /* \"#utility.yul\":2382:2466   */\n  swap8\n  pop\n    /* \"#utility.yul\":2184:2476   */\n  pop\n    /* \"#utility.yul\":2536:2539   */\n  0x80\n    /* \"#utility.yul\":2525:2534   */\n  dup12\n    /* \"#utility.yul\":2521:2540   */\n  add\n    /* \"#utility.yul\":2515:2541   */\n  mload\n    /* \"#utility.yul\":2568:2586   */\n  0xffffffffffffffff\n    /* \"#utility.yul\":2560:2566   */\n  dup2\n    /* \"#utility.yul\":2557:2587   */\n  gt\n    /* \"#utility.yul\":2554:2556   */\n  iszero\n  tag_64\n  jumpi\n    /* \"#utility.yul\":2590:2669   */\n  tag_65\n  tag_53\n  jump\t// in\ntag_65:\n    /* \"#utility.yul\":2554:2556   */\ntag_64:\n    /* \"#utility.yul\":2695:2769   */\n  tag_66\n    /* \"#utility.yul\":2761:2768   */\n  dup14\n    /* \"#utility.yul\":2752:2758   */\n  dup3\n    /* \"#utility.yul\":2741:2750   */\n  dup15\n    /* \"#utility.yul\":2737:2759   */\n  add\n    /* \"#utility.yul\":2695:2769   */\n  tag_41\n  jump\t// in\ntag_66:\n    /* \"#utility.yul\":2685:2769   */\n  swap7\n  pop\n    /* \"#utility.yul\":2486:2779   */\n  pop\n    /* \"#utility.yul\":2839:2842   */\n  0xa0\n    /* \"#utility.yul\":2828:2837   */\n  dup12\n    /* \"#utility.yul\":2824:2843   */\n  add\n    /* \"#utility.yul\":2818:2844   */\n  mload\n    /* \"#utility.yul\":2871:2889   */\n  0xffffffffffffffff\n    /* \"#utility.yul\":2863:2869   */\n  dup2\n    /* \"#utility.yul\":2860:2890   */\n  gt\n    /* \"#utility.yul\":2857:2859   */\n  iszero\n  tag_67\n  jumpi\n    /* \"#utility.yul\":2893:2972   */\n  tag_68\n  tag_53\n  jump\t// in\ntag_68:\n    /* \"#utility.yul\":2857:2859   */\ntag_67:\n    /* \"#utility.yul\":2998:3072   */\n  tag_69\n    /* \"#utility.yul\":3064:3071   */\n  dup14\n    /* \"#utility.yul\":3055:3061   */\n  dup3\n    /* \"#utility.yul\":3044:3053   */\n  dup15\n    /* \"#utility.yul\":3040:3062   */\n  add\n    /* \"#utility.yul\":2998:3072   */\n  tag_41\n  jump\t// in\ntag_69:\n    /* \"#utility.yul\":2988:3072   */\n  swap6\n  pop\n    /* \"#utility.yul\":2789:3082   */\n  pop\n    /* \"#utility.yul\":3142:3145   */\n  0xc0\n    /* \"#utility.yul\":3131:3140   */\n  dup12\n    /* \"#utility.yul\":3127:3146   */\n  add\n    /* \"#utility.yul\":3121:3147   */\n  mload\n    /* \"#utility.yul\":3174:3192   */\n  0xffffffffffffffff\n    /* \"#utility.yul\":3166:3172   */\n  dup2\n    /* \"#utility.yul\":3163:3193   */\n  gt\n    /* \"#utility.yul\":3160:3162   */\n  iszero\n  tag_70\n  jumpi\n    /* \"#utility.yul\":3196:3275   */\n  tag_71\n  tag_53\n  jump\t// in\ntag_71:\n    /* \"#utility.yul\":3160:3162   */\ntag_70:\n    /* \"#utility.yul\":3301:3375   */\n  tag_72\n    /* \"#utility.yul\":3367:3374   */\n  dup14\n    /* \"#utility.yul\":3358:3364   */\n  dup3\n    /* \"#utility.yul\":3347:3356   */\n  dup15\n    /* \"#utility.yul\":3343:3365   */\n  add\n    /* \"#utility.yul\":3301:3375   */\n  tag_41\n  jump\t// in\ntag_72:\n    /* \"#utility.yul\":3291:3375   */\n  swap5\n  pop\n    /* \"#utility.yul\":3092:3385   */\n  pop\n    /* \"#utility.yul\":3445:3448   */\n  0xe0\n    /* \"#utility.yul\":3434:3443   */\n  dup12\n    /* \"#utility.yul\":3430:3449   */\n  add\n    /* \"#utility.yul\":3424:3450   */\n  mload\n    /* \"#utility.yul\":3477:3495   */\n  0xffffffffffffffff\n    /* \"#utility.yul\":3469:3475   */\n  dup2\n    /* \"#utility.yul\":3466:3496   */\n  gt\n    /* \"#utility.yul\":3463:3465   */\n  iszero\n  tag_73\n  jumpi\n    /* \"#utility.yul\":3499:3578   */\n  tag_74\n  tag_53\n  jump\t// in\ntag_74:\n    /* \"#utility.yul\":3463:3465   */\ntag_73:\n    /* \"#utility.yul\":3604:3678   */\n  tag_75\n    /* \"#utility.yul\":3670:3677   */\n  dup14\n    /* \"#utility.yul\":3661:3667   */\n  dup3\n    /* \"#utility.yul\":3650:3659   */\n  dup15\n    /* \"#utility.yul\":3646:3668   */\n  add\n    /* \"#utility.yul\":3604:3678   */\n  tag_41\n  jump\t// in\ntag_75:\n    /* \"#utility.yul\":3594:3678   */\n  swap4\n  pop\n    /* \"#utility.yul\":3395:3688   */\n  pop\n    /* \"#utility.yul\":3748:3751   */\n  0x0100\n    /* \"#utility.yul\":3737:3746   */\n  dup12\n    /* \"#utility.yul\":3733:3752   */\n  add\n    /* \"#utility.yul\":3727:3753   */\n  mload\n    /* \"#utility.yul\":3780:3798   */\n  0xffffffffffffffff\n    /* \"#utility.yul\":3772:3778   */\n  dup2\n    /* \"#utility.yul\":3769:3799   */\n  gt\n    /* \"#utility.yul\":3766:3768   */\n  iszero\n  tag_76\n  jumpi\n    /* \"#utility.yul\":3802:3881   */\n  tag_77\n  tag_53\n  jump\t// in\ntag_77:\n    /* \"#utility.yul\":3766:3768   */\ntag_76:\n    /* \"#utility.yul\":3907:3981   */\n  tag_78\n    /* \"#utility.yul\":3973:3980   */\n  dup14\n    /* \"#utility.yul\":3964:3970   */\n  dup3\n    /* \"#utility.yul\":3953:3962   */\n  dup15\n    /* \"#utility.yul\":3949:3971   */\n  add\n    /* \"#utility.yul\":3907:3981   */\n  tag_41\n  jump\t// in\ntag_78:\n    /* \"#utility.yul\":3897:3981   */\n  swap3\n  pop\n    /* \"#utility.yul\":3698:3991   */\n  pop\n    /* \"#utility.yul\":4051:4054   */\n  0x0120\n    /* \"#utility.yul\":4040:4049   */\n  dup12\n    /* \"#utility.yul\":4036:4055   */\n  add\n    /* \"#utility.yul\":4030:4056   */\n  mload\n    /* \"#utility.yul\":4083:4101   */\n  0xffffffffffffffff\n    /* \"#utility.yul\":4075:4081   */\n  dup2\n    /* \"#utility.yul\":4072:4102   */\n  gt\n    /* \"#utility.yul\":4069:4071   */\n  iszero\n  tag_79\n  jumpi\n    /* \"#utility.yul\":4105:4184   */\n  tag_80\n  tag_53\n  jump\t// in\ntag_80:\n    /* \"#utility.yul\":4069:4071   */\ntag_79:\n    /* \"#utility.yul\":4210:4284   */\n  tag_81\n    /* \"#utility.yul\":4276:4283   */\n  dup14\n    /* \"#utility.yul\":4267:4273   */\n  dup3\n    /* \"#utility.yul\":4256:4265   */\n  dup15\n    /* \"#utility.yul\":4252:4274   */\n  add\n    /* \"#utility.yul\":4210:4284   */\n  tag_41\n  jump\t// in\ntag_81:\n    /* \"#utility.yul\":4200:4284   */\n  swap2\n  pop\n    /* \"#utility.yul\":4001:4294   */\n  pop\n    /* \"#utility.yul\":1139:4301   */\n  swap3\n  swap6\n  swap9\n  swap12\n  swap2\n  swap5\n  swap8\n  swap11\n  pop\n  swap3\n  swap6\n  swap9\n  pop\n  jump\t// out\n    /* \"#utility.yul\":4307:4436   */\ntag_35:\n    /* \"#utility.yul\":4341:4347   */\n  0x00\n    /* \"#utility.yul\":4368:4388   */\n  tag_83\n  tag_84\n  jump\t// in\ntag_83:\n    /* \"#utility.yul\":4358:4388   */\n  swap1\n  pop\n    /* \"#utility.yul\":4397:4430   */\n  tag_85\n    /* \"#utility.yul\":4425:4429   */\n  dup3\n    /* \"#utility.yul\":4417:4423   */\n  dup3\n    /* \"#utility.yul\":4397:4430   */\n  tag_86\n  jump\t// in\ntag_85:\n    /* \"#utility.yul\":4348:4436   */\n  swap2\n  swap1\n  pop\n  jump\t// out\n    /* \"#utility.yul\":4442:4517   */\ntag_84:\n    /* \"#utility.yul\":4475:4481   */\n  0x00\n    /* \"#utility.yul\":4508:4510   */\n  0x40\n    /* \"#utility.yul\":4502:4511   */\n  mload\n    /* \"#utility.yul\":4492:4511   */\n  swap1\n  pop\n    /* \"#utility.yul\":4482:4517   */\n  swap1\n  jump\t// out\n    /* \"#utility.yul\":4523:4831   */\ntag_34:\n    /* \"#utility.yul\":4585:4589   */\n  0x00\n    /* \"#utility.yul\":4675:4693   */\n  0xffffffffffffffff\n    /* \"#utility.yul\":4667:4673   */\n  dup3\n    /* \"#utility.yul\":4664:4694   */\n  gt\n    /* \"#utility.yul\":4661:4663   */\n  iszero\n  tag_89\n  jumpi\n    /* \"#utility.yul\":4697:4715   */\n  tag_90\n  tag_91\n  jump\t// in\ntag_90:\n    /* \"#utility.yul\":4661:4663   */\ntag_89:\n    /* \"#utility.yul\":4735:4764   */\n  tag_92\n    /* \"#utility.yul\":4757:4763   */\n  dup3\n    /* \"#utility.yul\":4735:4764   */\n  tag_93\n  jump\t// in\ntag_92:\n    /* \"#utility.yul\":4727:4764   */\n  swap1\n  pop\n    /* \"#utility.yul\":4819:4823   */\n  0x20\n    /* \"#utility.yul\":4813:4817   */\n  dup2\n    /* \"#utility.yul\":4809:4824   */\n  add\n    /* \"#utility.yul\":4801:4824   */\n  swap1\n  pop\n    /* \"#utility.yul\":4590:4831   */\n  swap2\n  swap1\n  pop\n  jump\t// out\n    /* \"#utility.yul\":4837:5144   */\ntag_40:\n    /* \"#utility.yul\":4905:4906   */\n  0x00\n    /* \"#utility.yul\":4915:5028   */\ntag_95:\n    /* \"#utility.yul\":4929:4935   */\n  dup4\n    /* \"#utility.yul\":4926:4927   */\n  dup2\n    /* \"#utility.yul\":4923:4936   */\n  lt\n    /* \"#utility.yul\":4915:5028   */\n  iszero\n  tag_97\n  jumpi\n    /* \"#utility.yul\":5014:5015   */\n  dup1\n    /* \"#utility.yul\":5009:5012   */\n  dup3\n    /* \"#utility.yul\":5005:5016   */\n  add\n    /* \"#utility.yul\":4999:5017   */\n  mload\n    /* \"#utility.yul\":4995:4996   */\n  dup2\n    /* \"#utility.yul\":4990:4993   */\n  dup5\n    /* \"#utility.yul\":4986:4997   */\n  add\n    /* \"#utility.yul\":4979:5018   */\n  mstore\n    /* \"#utility.yul\":4951:4953   */\n  0x20\n    /* \"#utility.yul\":4948:4949   */\n  dup2\n    /* \"#utility.yul\":4944:4954   */\n  add\n    /* \"#utility.yul\":4939:4954   */\n  swap1\n  pop\n    /* \"#utility.yul\":4915:5028   */\n  jump(tag_95)\ntag_97:\n    /* \"#utility.yul\":5046:5052   */\n  dup4\n    /* \"#utility.yul\":5043:5044   */\n  dup2\n    /* \"#utility.yul\":5040:5053   */\n  gt\n    /* \"#utility.yul\":5037:5039   */\n  iszero\n  tag_98\n  jumpi\n    /* \"#utility.yul\":5126:5127   */\n  0x00\n    /* \"#utility.yul\":5117:5123   */\n  dup5\n    /* \"#utility.yul\":5112:5115   */\n  dup5\n    /* \"#utility.yul\":5108:5124   */\n  add\n    /* \"#utility.yul\":5101:5128   */\n  mstore\n    /* \"#utility.yul\":5037:5039   */\ntag_98:\n    /* \"#utility.yul\":4886:5144   */\n  pop\n  pop\n  pop\n  pop\n  jump\t// out\n    /* \"#utility.yul\":5150:5470   */\ntag_19:\n    /* \"#utility.yul\":5194:5200   */\n  0x00\n    /* \"#utility.yul\":5231:5232   */\n  0x02\n    /* \"#utility.yul\":5225:5229   */\n  dup3\n    /* \"#utility.yul\":5221:5233   */\n  div\n    /* \"#utility.yul\":5211:5233   */\n  swap1\n  pop\n    /* \"#utility.yul\":5278:5279   */\n  0x01\n    /* \"#utility.yul\":5272:5276   */\n  dup3\n    /* \"#utility.yul\":5268:5280   */\n  and\n    /* \"#utility.yul\":5299:5317   */\n  dup1\n    /* \"#utility.yul\":5289:5291   */\n  tag_100\n  jumpi\n    /* \"#utility.yul\":5355:5359   */\n  0x7f\n    /* \"#utility.yul\":5347:5353   */\n  dup3\n    /* \"#utility.yul\":5343:5360   */\n  and\n    /* \"#utility.yul\":5333:5360   */\n  swap2\n  pop\n    /* \"#utility.yul\":5289:5291   */\ntag_100:\n    /* \"#utility.yul\":5417:5419   */\n  0x20\n    /* \"#utility.yul\":5409:5415   */\n  dup3\n    /* \"#utility.yul\":5406:5420   */\n  lt\n    /* \"#utility.yul\":5386:5404   */\n  dup2\n    /* \"#utility.yul\":5383:5421   */\n  eq\n    /* \"#utility.yul\":5380:5382   */\n  iszero\n  tag_101\n  jumpi\n    /* \"#utility.yul\":5436:5454   */\n  tag_102\n  tag_103\n  jump\t// in\ntag_102:\n    /* \"#utility.yul\":5380:5382   */\ntag_101:\n    /* \"#utility.yul\":5201:5470   */\n  pop\n  swap2\n  swap1\n  pop\n  jump\t// out\n    /* \"#utility.yul\":5476:5757   */\ntag_86:\n    /* \"#utility.yul\":5559:5586   */\n  tag_105\n    /* \"#utility.yul\":5581:5585   */\n  dup3\n    /* \"#utility.yul\":5559:5586   */\n  tag_93\n  jump\t// in\ntag_105:\n    /* \"#utility.yul\":5551:5557   */\n  dup2\n    /* \"#utility.yul\":5547:5587   */\n  add\n    /* \"#utility.yul\":5689:5695   */\n  dup2\n    /* \"#utility.yul\":5677:5687   */\n  dup2\n    /* \"#utility.yul\":5674:5696   */\n  lt\n    /* \"#utility.yul\":5653:5671   */\n  0xffffffffffffffff\n    /* \"#utility.yul\":5641:5651   */\n  dup3\n    /* \"#utility.yul\":5638:5672   */\n  gt\n    /* \"#utility.yul\":5635:5697   */\n  or\n    /* \"#utility.yul\":5632:5634   */\n  iszero\n  tag_106\n  jumpi\n    /* \"#utility.yul\":5700:5718   */\n  tag_107\n  tag_91\n  jump\t// in\ntag_107:\n    /* \"#utility.yul\":5632:5634   */\ntag_106:\n    /* \"#utility.yul\":5740:5750   */\n  dup1\n    /* \"#utility.yul\":5736:5738   */\n  0x40\n    /* \"#utility.yul\":5729:5751   */\n  mstore\n    /* \"#utility.yul\":5519:5757   */\n  pop\n  pop\n  pop\n  jump\t// out\n    /* \"#utility.yul\":5763:5943   */\ntag_103:\n    /* \"#utility.yul\":5811:5888   */\n  0x4e487b7100000000000000000000000000000000000000000000000000000000\n    /* \"#utility.yul\":5808:5809   */\n  0x00\n    /* \"#utility.yul\":5801:5889   */\n  mstore\n    /* \"#utility.yul\":5908:5912   */\n  0x22\n    /* \"#utility.yul\":5905:5906   */\n  0x04\n    /* \"#utility.yul\":5898:5913   */\n  mstore\n    /* \"#utility.yul\":5932:5936   */\n  0x24\n    /* \"#utility.yul\":5929:5930   */\n  0x00\n    /* \"#utility.yul\":5922:5937   */\n  revert\n    /* \"#utility.yul\":5949:6129   */\ntag_91:\n    /* \"#utility.yul\":5997:6074   */\n  0x4e487b7100000000000000000000000000000000000000000000000000000000\n    /* \"#utility.yul\":5994:5995   */\n  0x00\n    /* \"#utility.yul\":5987:6075   */\n  mstore\n    /* \"#utility.yul\":6094:6098   */\n  0x41\n    /* \"#utility.yul\":6091:6092   */\n  0x04\n    /* \"#utility.yul\":6084:6099   */\n  mstore\n    /* \"#utility.yul\":6118:6122   */\n  0x24\n    /* \"#utility.yul\":6115:6116   */\n  0x00\n    /* \"#utility.yul\":6108:6123   */\n  revert\n    /* \"#utility.yul\":6135:6252   */\ntag_45:\n    /* \"#utility.yul\":6244:6245   */\n  0x00\n    /* \"#utility.yul\":6241:6242   */\n  dup1\n    /* \"#utility.yul\":6234:6246   */\n  revert\n    /* \"#utility.yul\":6258:6375   */\ntag_38:\n    /* \"#utility.yul\":6367:6368   */\n  0x00\n    /* \"#utility.yul\":6364:6365   */\n  dup1\n    /* \"#utility.yul\":6357:6369   */\n  revert\n    /* \"#utility.yul\":6381:6498   */\ntag_53:\n    /* \"#utility.yul\":6490:6491   */\n  0x00\n    /* \"#utility.yul\":6487:6488   */\n  dup1\n    /* \"#utility.yul\":6480:6492   */\n  revert\n    /* \"#utility.yul\":6504:6621   */\ntag_50:\n    /* \"#utility.yul\":6613:6614   */\n  0x00\n    /* \"#utility.yul\":6610:6611   */\n  dup1\n    /* \"#utility.yul\":6603:6615   */\n  revert\n    /* \"#utility.yul\":6627:6729   */\ntag_93:\n    /* \"#utility.yul\":6668:6674   */\n  0x00\n    /* \"#utility.yul\":6719:6721   */\n  0x1f\n    /* \"#utility.yul\":6715:6722   */\n  not\n    /* \"#utility.yul\":6710:6712   */\n  0x1f\n    /* \"#utility.yul\":6703:6708   */\n  dup4\n    /* \"#utility.yul\":6699:6713   */\n  add\n    /* \"#utility.yul\":6695:6723   */\n  and\n    /* \"#utility.yul\":6685:6723   */\n  swap1\n  pop\n    /* \"#utility.yul\":6675:6729   */\n  swap2\n  swap1\n  pop\n  jump\t// out\n    /* \"ethereum/contracts/charge_sheet.sol\":721:2011  contract ChargeSheet {\r... */\ntag_17:\n  dataSize(sub_0)\n  dup1\n  dataOffset(sub_0)\n  0x00\n  codecopy\n  0x00\n  return\nstop\n\nsub_0: assembly {\n        /* \"ethereum/contracts/charge_sheet.sol\":721:2011  contract ChargeSheet {\r... */\n      mstore(0x40, 0x80)\n      callvalue\n      dup1\n      iszero\n      tag_1\n      jumpi\n      0x00\n      dup1\n      revert\n    tag_1:\n      pop\n      jumpi(tag_2, lt(calldatasize, 0x04))\n      shr(0xe0, calldataload(0x00))\n      dup1\n      0x11ba2f2f\n      eq\n      tag_3\n      jumpi\n      dup1\n      0x3bc5de30\n      eq\n      tag_4\n      jumpi\n      dup1\n      0x9bb2ed94\n      eq\n      tag_5\n      jumpi\n    tag_2:\n      0x00\n      dup1\n      revert\n        /* \"ethereum/contracts/charge_sheet.sol\":1937:2008  function personIsNotGuilty() public {\r... */\n    tag_3:\n      tag_6\n      tag_7\n      jump\t// in\n    tag_6:\n      stop\n        /* \"ethereum/contracts/charge_sheet.sol\":1543:1854  function getData() public view returns(string memory, string memory,string memory,string memory,string memory,string memory,string memory,string memory,string memory,string memory, bool){\r... */\n    tag_4:\n      tag_8\n      tag_9\n      jump\t// in\n    tag_8:\n      mload(0x40)\n      tag_10\n      swap12\n      swap11\n      swap10\n      swap9\n      swap8\n      swap7\n      swap6\n      swap5\n      swap4\n      swap3\n      swap2\n      swap1\n      tag_11\n      jump\t// in\n    tag_10:\n      mload(0x40)\n      dup1\n      swap2\n      sub\n      swap1\n      return\n        /* \"ethereum/contracts/charge_sheet.sol\":1862:1929  function personIsGuilty() public {\r... */\n    tag_5:\n      tag_12\n      tag_13\n      jump\t// in\n    tag_12:\n      stop\n        /* \"ethereum/contracts/charge_sheet.sol\":1937:2008  function personIsNotGuilty() public {\r... */\n    tag_7:\n        /* \"ethereum/contracts/charge_sheet.sol\":1995:2000  false */\n      0x00\n        /* \"ethereum/contracts/charge_sheet.sol\":1984:1992  isGuilty */\n      0x0a\n      0x00\n        /* \"ethereum/contracts/charge_sheet.sol\":1984:2000  isGuilty = false */\n      0x0100\n      exp\n      dup2\n      sload\n      dup2\n      0xff\n      mul\n      not\n      and\n      swap1\n      dup4\n      iszero\n      iszero\n      mul\n      or\n      swap1\n      sstore\n      pop\n        /* \"ethereum/contracts/charge_sheet.sol\":1937:2008  function personIsNotGuilty() public {\r... */\n      jump\t// out\n        /* \"ethereum/contracts/charge_sheet.sol\":1543:1854  function getData() public view returns(string memory, string memory,string memory,string memory,string memory,string memory,string memory,string memory,string memory,string memory, bool){\r... */\n    tag_9:\n        /* \"ethereum/contracts/charge_sheet.sol\":1582:1595  string memory */\n      0x60\n        /* \"ethereum/contracts/charge_sheet.sol\":1597:1610  string memory */\n      dup1\n        /* \"ethereum/contracts/charge_sheet.sol\":1611:1624  string memory */\n      0x60\n        /* \"ethereum/contracts/charge_sheet.sol\":1625:1638  string memory */\n      dup1\n        /* \"ethereum/contracts/charge_sheet.sol\":1639:1652  string memory */\n      0x60\n        /* \"ethereum/contracts/charge_sheet.sol\":1653:1666  string memory */\n      dup1\n        /* \"ethereum/contracts/charge_sheet.sol\":1667:1680  string memory */\n      0x60\n        /* \"ethereum/contracts/charge_sheet.sol\":1681:1694  string memory */\n      dup1\n        /* \"ethereum/contracts/charge_sheet.sol\":1695:1708  string memory */\n      0x60\n        /* \"ethereum/contracts/charge_sheet.sol\":1709:1722  string memory */\n      dup1\n        /* \"ethereum/contracts/charge_sheet.sol\":1724:1728  bool */\n      0x00\n        /* \"ethereum/contracts/charge_sheet.sol\":1748:1752  name */\n      dup1\n        /* \"ethereum/contracts/charge_sheet.sol\":1754:1757  cid */\n      0x01\n        /* \"ethereum/contracts/charge_sheet.sol\":1759:1762  dob */\n      0x02\n        /* \"ethereum/contracts/charge_sheet.sol\":1764:1770  charge */\n      0x03\n        /* \"ethereum/contracts/charge_sheet.sol\":1772:1775  act */\n      0x04\n        /* \"ethereum/contracts/charge_sheet.sol\":1777:1784  section */\n      0x05\n        /* \"ethereum/contracts/charge_sheet.sol\":1786:1791  court */\n      0x06\n        /* \"ethereum/contracts/charge_sheet.sol\":1793:1805  courtAddress */\n      0x07\n        /* \"ethereum/contracts/charge_sheet.sol\":1807:1820  dateOfHearing */\n      0x08\n        /* \"ethereum/contracts/charge_sheet.sol\":1822:1835  timeOfHearing */\n      0x09\n        /* \"ethereum/contracts/charge_sheet.sol\":1837:1845  isGuilty */\n      0x0a\n      0x00\n      swap1\n      sload\n      swap1\n      0x0100\n      exp\n      swap1\n      div\n      0xff\n      and\n        /* \"ethereum/contracts/charge_sheet.sol\":1740:1846  return (name, cid, dob, charge, act, section, court, courtAddress, dateOfHearing, timeOfHearing, isGuilty) */\n      dup11\n      dup1\n      sload\n      tag_16\n      swap1\n      tag_17\n      jump\t// in\n    tag_16:\n      dup1\n      0x1f\n      add\n      0x20\n      dup1\n      swap2\n      div\n      mul\n      0x20\n      add\n      mload(0x40)\n      swap1\n      dup2\n      add\n      0x40\n      mstore\n      dup1\n      swap3\n      swap2\n      swap1\n      dup2\n      dup2\n      mstore\n      0x20\n      add\n      dup3\n      dup1\n      sload\n      tag_18\n      swap1\n      tag_17\n      jump\t// in\n    tag_18:\n      dup1\n      iszero\n      tag_19\n      jumpi\n      dup1\n      0x1f\n      lt\n      tag_20\n      jumpi\n      0x0100\n      dup1\n      dup4\n      sload\n      div\n      mul\n      dup4\n      mstore\n      swap2\n      0x20\n      add\n      swap2\n      jump(tag_19)\n    tag_20:\n      dup3\n      add\n      swap2\n      swap1\n      0x00\n      mstore\n      keccak256(0x00, 0x20)\n      swap1\n    tag_21:\n      dup2\n      sload\n      dup2\n      mstore\n      swap1\n      0x01\n      add\n      swap1\n      0x20\n      add\n      dup1\n      dup4\n      gt\n      tag_21\n      jumpi\n      dup3\n      swap1\n      sub\n      0x1f\n      and\n      dup3\n      add\n      swap2\n    tag_19:\n      pop\n      pop\n      pop\n      pop\n      pop\n      swap11\n      pop\n      dup10\n      dup1\n      sload\n      tag_22\n      swap1\n      tag_17\n      jump\t// in\n    tag_22:\n      dup1\n      0x1f\n      add\n      0x20\n      dup1\n      swap2\n      div\n      mul\n      0x20\n      add\n      mload(0x40)\n      swap1\n      dup2\n      add\n      0x40\n      mstore\n      dup1\n      swap3\n      swap2\n      swap1\n      dup2\n      dup2\n      mstore\n      0x20\n      add\n      dup3\n      dup1\n      sload\n      tag_23\n      swap1\n      tag_17\n      jump\t// in\n    tag_23:\n      dup1\n      iszero\n      tag_24\n      jumpi\n      dup1\n      0x1f\n      lt\n      tag_25\n      jumpi\n      0x0100\n      dup1\n      dup4\n      sload\n      div\n      mul\n      dup4\n      mstore\n      swap2\n      0x20\n      add\n      swap2\n      jump(tag_24)\n    tag_25:\n      dup3\n      add\n      swap2\n      swap1\n      0x00\n      mstore\n      keccak256(0x00, 0x20)\n      swap1\n    tag_26:\n      dup2\n      sload\n      dup2\n      mstore\n      swap1\n      0x01\n      add\n      swap1\n      0x20\n      add\n      dup1\n      dup4\n      gt\n      tag_26\n      jumpi\n      dup3\n      swap1\n      sub\n      0x1f\n      and\n      dup3\n      add\n      swap2\n    tag_24:\n      pop\n      pop\n      pop\n      pop\n      pop\n      swap10\n      pop\n      dup9\n      dup1\n      sload\n      tag_27\n      swap1\n      tag_17\n      jump\t// in\n    tag_27:\n      dup1\n      0x1f\n      add\n      0x20\n      dup1\n      swap2\n      div\n      mul\n      0x20\n      add\n      mload(0x40)\n      swap1\n      dup2\n      add\n      0x40\n      mstore\n      dup1\n      swap3\n      swap2\n      swap1\n      dup2\n      dup2\n      mstore\n      0x20\n      add\n      dup3\n      dup1\n      sload\n      tag_28\n      swap1\n      tag_17\n      jump\t// in\n    tag_28:\n      dup1\n      iszero\n      tag_29\n      jumpi\n      dup1\n      0x1f\n      lt\n      tag_30\n      jumpi\n      0x0100\n      dup1\n      dup4\n      sload\n      div\n      mul\n      dup4\n      mstore\n      swap2\n      0x20\n      add\n      swap2\n      jump(tag_29)\n    tag_30:\n      dup3\n      add\n      swap2\n      swap1\n      0x00\n      mstore\n      keccak256(0x00, 0x20)\n      swap1\n    tag_31:\n      dup2\n      sload\n      dup2\n      mstore\n      swap1\n      0x01\n      add\n      swap1\n      0x20\n      add\n      dup1\n      dup4\n      gt\n      tag_31\n      jumpi\n      dup3\n      swap1\n      sub\n      0x1f\n      and\n      dup3\n      add\n      swap2\n    tag_29:\n      pop\n      pop\n      pop\n      pop\n      pop\n      swap9\n      pop\n      dup8\n      dup1\n      sload\n      tag_32\n      swap1\n      tag_17\n      jump\t// in\n    tag_32:\n      dup1\n      0x1f\n      add\n      0x20\n      dup1\n      swap2\n      div\n      mul\n      0x20\n      add\n      mload(0x40)\n      swap1\n      dup2\n      add\n      0x40\n      mstore\n      dup1\n      swap3\n      swap2\n      swap1\n      dup2\n      dup2\n      mstore\n      0x20\n      add\n      dup3\n      dup1\n      sload\n      tag_33\n      swap1\n      tag_17\n      jump\t// in\n    tag_33:\n      dup1\n      iszero\n      tag_34\n      jumpi\n      dup1\n      0x1f\n      lt\n      tag_35\n      jumpi\n      0x0100\n      dup1\n      dup4\n      sload\n      div\n      mul\n      dup4\n      mstore\n      swap2\n      0x20\n      add\n      swap2\n      jump(tag_34)\n    tag_35:\n      dup3\n      add\n      swap2\n      swap1\n      0x00\n      mstore\n      keccak256(0x00, 0x20)\n      swap1\n    tag_36:\n      dup2\n      sload\n      dup2\n      mstore\n      swap1\n      0x01\n      add\n      swap1\n      0x20\n      add\n      dup1\n      dup4\n      gt\n      tag_36\n      jumpi\n      dup3\n      swap1\n      sub\n      0x1f\n      and\n      dup3\n      add\n      swap2\n    tag_34:\n      pop\n      pop\n      pop\n      pop\n      pop\n      swap8\n      pop\n      dup7\n      dup1\n      sload\n      tag_37\n      swap1\n      tag_17\n      jump\t// in\n    tag_37:\n      dup1\n      0x1f\n      add\n      0x20\n      dup1\n      swap2\n      div\n      mul\n      0x20\n      add\n      mload(0x40)\n      swap1\n      dup2\n      add\n      0x40\n      mstore\n      dup1\n      swap3\n      swap2\n      swap1\n      dup2\n      dup2\n      mstore\n      0x20\n      add\n      dup3\n      dup1\n      sload\n      tag_38\n      swap1\n      tag_17\n      jump\t// in\n    tag_38:\n      dup1\n      iszero\n      tag_39\n      jumpi\n      dup1\n      0x1f\n      lt\n      tag_40\n      jumpi\n      0x0100\n      dup1\n      dup4\n      sload\n      div\n      mul\n      dup4\n      mstore\n      swap2\n      0x20\n      add\n      swap2\n      jump(tag_39)\n    tag_40:\n      dup3\n      add\n      swap2\n      swap1\n      0x00\n      mstore\n      keccak256(0x00, 0x20)\n      swap1\n    tag_41:\n      dup2\n      sload\n      dup2\n      mstore\n      swap1\n      0x01\n      add\n      swap1\n      0x20\n      add\n      dup1\n      dup4\n      gt\n      tag_41\n      jumpi\n      dup3\n      swap1\n      sub\n      0x1f\n      and\n      dup3\n      add\n      swap2\n    tag_39:\n      pop\n      pop\n      pop\n      pop\n      pop\n      swap7\n      pop\n      dup6\n      dup1\n      sload\n      tag_42\n      swap1\n      tag_17\n      jump\t// in\n    tag_42:\n      dup1\n      0x1f\n      add\n      0x20\n      dup1\n      swap2\n      div\n      mul\n      0x20\n      add\n      mload(0x40)\n      swap1\n      dup2\n      add\n      0x40\n      mstore\n      dup1\n      swap3\n      swap2\n      swap1\n      dup2\n      dup2\n      mstore\n      0x20\n      add\n      dup3\n      dup1\n      sload\n      tag_43\n      swap1\n      tag_17\n      jump\t// in\n    tag_43:\n      dup1\n      iszero\n      tag_44\n      jumpi\n      dup1\n      0x1f\n      lt\n      tag_45\n      jumpi\n      0x0100\n      dup1\n      dup4\n      sload\n      div\n      mul\n      dup4\n      mstore\n      swap2\n      0x20\n      add\n      swap2\n      jump(tag_44)\n    tag_45:\n      dup3\n      add\n      swap2\n      swap1\n      0x00\n      mstore\n      keccak256(0x00, 0x20)\n      swap1\n    tag_46:\n      dup2\n      sload\n      dup2\n      mstore\n      swap1\n      0x01\n      add\n      swap1\n      0x20\n      add\n      dup1\n      dup4\n      gt\n      tag_46\n      jumpi\n      dup3\n      swap1\n      sub\n      0x1f\n      and\n      dup3\n      add\n      swap2\n    tag_44:\n      pop\n      pop\n      pop\n      pop\n      pop\n      swap6\n      pop\n      dup5\n      dup1\n      sload\n      tag_47\n      swap1\n      tag_17\n      jump\t// in\n    tag_47:\n      dup1\n      0x1f\n      add\n      0x20\n      dup1\n      swap2\n      div\n      mul\n      0x20\n      add\n      mload(0x40)\n      swap1\n      dup2\n      add\n      0x40\n      mstore\n      dup1\n      swap3\n      swap2\n      swap1\n      dup2\n      dup2\n      mstore\n      0x20\n      add\n      dup3\n      dup1\n      sload\n      tag_48\n      swap1\n      tag_17\n      jump\t// in\n    tag_48:\n      dup1\n      iszero\n      tag_49\n      jumpi\n      dup1\n      0x1f\n      lt\n      tag_50\n      jumpi\n      0x0100\n      dup1\n      dup4\n      sload\n      div\n      mul\n      dup4\n      mstore\n      swap2\n      0x20\n      add\n      swap2\n      jump(tag_49)\n    tag_50:\n      dup3\n      add\n      swap2\n      swap1\n      0x00\n      mstore\n      keccak256(0x00, 0x20)\n      swap1\n    tag_51:\n      dup2\n      sload\n      dup2\n      mstore\n      swap1\n      0x01\n      add\n      swap1\n      0x20\n      add\n      dup1\n      dup4\n      gt\n      tag_51\n      jumpi\n      dup3\n      swap1\n      sub\n      0x1f\n      and\n      dup3\n      add\n      swap2\n    tag_49:\n      pop\n      pop\n      pop\n      pop\n      pop\n      swap5\n      pop\n      dup4\n      dup1\n      sload\n      tag_52\n      swap1\n      tag_17\n      jump\t// in\n    tag_52:\n      dup1\n      0x1f\n      add\n      0x20\n      dup1\n      swap2\n      div\n      mul\n      0x20\n      add\n      mload(0x40)\n      swap1\n      dup2\n      add\n      0x40\n      mstore\n      dup1\n      swap3\n      swap2\n      swap1\n      dup2\n      dup2\n      mstore\n      0x20\n      add\n      dup3\n      dup1\n      sload\n      tag_53\n      swap1\n      tag_17\n      jump\t// in\n    tag_53:\n      dup1\n      iszero\n      tag_54\n      jumpi\n      dup1\n      0x1f\n      lt\n      tag_55\n      jumpi\n      0x0100\n      dup1\n      dup4\n      sload\n      div\n      mul\n      dup4\n      mstore\n      swap2\n      0x20\n      add\n      swap2\n      jump(tag_54)\n    tag_55:\n      dup3\n      add\n      swap2\n      swap1\n      0x00\n      mstore\n      keccak256(0x00, 0x20)\n      swap1\n    tag_56:\n      dup2\n      sload\n      dup2\n      mstore\n      swap1\n      0x01\n      add\n      swap1\n      0x20\n      add\n      dup1\n      dup4\n      gt\n      tag_56\n      jumpi\n      dup3\n      swap1\n      sub\n      0x1f\n      and\n      dup3\n      add\n      swap2\n    tag_54:\n      pop\n      pop\n      pop\n      pop\n      pop\n      swap4\n      pop\n      dup3\n      dup1\n      sload\n      tag_57\n      swap1\n      tag_17\n      jump\t// in\n    tag_57:\n      dup1\n      0x1f\n      add\n      0x20\n      dup1\n      swap2\n      div\n      mul\n      0x20\n      add\n      mload(0x40)\n      swap1\n      dup2\n      add\n      0x40\n      mstore\n      dup1\n      swap3\n      swap2\n      swap1\n      dup2\n      dup2\n      mstore\n      0x20\n      add\n      dup3\n      dup1\n      sload\n      tag_58\n      swap1\n      tag_17\n      jump\t// in\n    tag_58:\n      dup1\n      iszero\n      tag_59\n      jumpi\n      dup1\n      0x1f\n      lt\n      tag_60\n      jumpi\n      0x0100\n      dup1\n      dup4\n      sload\n      div\n      mul\n      dup4\n      mstore\n      swap2\n      0x20\n      add\n      swap2\n      jump(tag_59)\n    tag_60:\n      dup3\n      add\n      swap2\n      swap1\n      0x00\n      mstore\n      keccak256(0x00, 0x20)\n      swap1\n    tag_61:\n      dup2\n      sload\n      dup2\n      mstore\n      swap1\n      0x01\n      add\n      swap1\n      0x20\n      add\n      dup1\n      dup4\n      gt\n      tag_61\n      jumpi\n      dup3\n      swap1\n      sub\n      0x1f\n      and\n      dup3\n      add\n      swap2\n    tag_59:\n      pop\n      pop\n      pop\n      pop\n      pop\n      swap3\n      pop\n      dup2\n      dup1\n      sload\n      tag_62\n      swap1\n      tag_17\n      jump\t// in\n    tag_62:\n      dup1\n      0x1f\n      add\n      0x20\n      dup1\n      swap2\n      div\n      mul\n      0x20\n      add\n      mload(0x40)\n      swap1\n      dup2\n      add\n      0x40\n      mstore\n      dup1\n      swap3\n      swap2\n      swap1\n      dup2\n      dup2\n      mstore\n      0x20\n      add\n      dup3\n      dup1\n      sload\n      tag_63\n      swap1\n      tag_17\n      jump\t// in\n    tag_63:\n      dup1\n      iszero\n      tag_64\n      jumpi\n      dup1\n      0x1f\n      lt\n      tag_65\n      jumpi\n      0x0100\n      dup1\n      dup4\n      sload\n      div\n      mul\n      dup4\n      mstore\n      swap2\n      0x20\n      add\n      swap2\n      jump(tag_64)\n    tag_65:\n      dup3\n      add\n      swap2\n      swap1\n      0x00\n      mstore\n      keccak256(0x00, 0x20)\n      swap1\n    tag_66:\n      dup2\n      sload\n      dup2\n      mstore\n      swap1\n      0x01\n      add\n      swap1\n      0x20\n      add\n      dup1\n      dup4\n      gt\n      tag_66\n      jumpi\n      dup3\n      swap1\n      sub\n      0x1f\n      and\n      dup3\n      add\n      swap2\n    tag_64:\n      pop\n      pop\n      pop\n      pop\n      pop\n      swap2\n      pop\n      swap11\n      pop\n      swap11\n      pop\n      swap11\n      pop\n      swap11\n      pop\n      swap11\n      pop\n      swap11\n      pop\n      swap11\n      pop\n      swap11\n      pop\n      swap11\n      pop\n      swap11\n      pop\n      swap11\n      pop\n        /* \"ethereum/contracts/charge_sheet.sol\":1543:1854  function getData() public view returns(string memory, string memory,string memory,string memory,string memory,string memory,string memory,string memory,string memory,string memory, bool){\r... */\n      swap1\n      swap2\n      swap3\n      swap4\n      swap5\n      swap6\n      swap7\n      swap8\n      swap9\n      swap10\n      swap11\n      jump\t// out\n        /* \"ethereum/contracts/charge_sheet.sol\":1862:1929  function personIsGuilty() public {\r... */\n    tag_13:\n        /* \"ethereum/contracts/charge_sheet.sol\":1917:1921  true */\n      0x01\n        /* \"ethereum/contracts/charge_sheet.sol\":1906:1914  isGuilty */\n      0x0a\n      0x00\n        /* \"ethereum/contracts/charge_sheet.sol\":1906:1921  isGuilty = true */\n      0x0100\n      exp\n      dup2\n      sload\n      dup2\n      0xff\n      mul\n      not\n      and\n      swap1\n      dup4\n      iszero\n      iszero\n      mul\n      or\n      swap1\n      sstore\n      pop\n        /* \"ethereum/contracts/charge_sheet.sol\":1862:1929  function personIsGuilty() public {\r... */\n      jump\t// out\n        /* \"#utility.yul\":7:116   */\n    tag_69:\n        /* \"#utility.yul\":88:109   */\n      tag_71\n        /* \"#utility.yul\":103:108   */\n      dup2\n        /* \"#utility.yul\":88:109   */\n      tag_72\n      jump\t// in\n    tag_71:\n        /* \"#utility.yul\":83:86   */\n      dup3\n        /* \"#utility.yul\":76:110   */\n      mstore\n        /* \"#utility.yul\":66:116   */\n      pop\n      pop\n      jump\t// out\n        /* \"#utility.yul\":122:486   */\n    tag_73:\n        /* \"#utility.yul\":210:213   */\n      0x00\n        /* \"#utility.yul\":238:277   */\n      tag_75\n        /* \"#utility.yul\":271:276   */\n      dup3\n        /* \"#utility.yul\":238:277   */\n      tag_76\n      jump\t// in\n    tag_75:\n        /* \"#utility.yul\":293:364   */\n      tag_77\n        /* \"#utility.yul\":357:363   */\n      dup2\n        /* \"#utility.yul\":352:355   */\n      dup6\n        /* \"#utility.yul\":293:364   */\n      tag_78\n      jump\t// in\n    tag_77:\n        /* \"#utility.yul\":286:364   */\n      swap4\n      pop\n        /* \"#utility.yul\":373:425   */\n      tag_79\n        /* \"#utility.yul\":418:424   */\n      dup2\n        /* \"#utility.yul\":413:416   */\n      dup6\n        /* \"#utility.yul\":406:410   */\n      0x20\n        /* \"#utility.yul\":399:404   */\n      dup7\n        /* \"#utility.yul\":395:411   */\n      add\n        /* \"#utility.yul\":373:425   */\n      tag_80\n      jump\t// in\n    tag_79:\n        /* \"#utility.yul\":450:479   */\n      tag_81\n        /* \"#utility.yul\":472:478   */\n      dup2\n        /* \"#utility.yul\":450:479   */\n      tag_82\n      jump\t// in\n    tag_81:\n        /* \"#utility.yul\":445:448   */\n      dup5\n        /* \"#utility.yul\":441:480   */\n      add\n        /* \"#utility.yul\":434:480   */\n      swap2\n      pop\n        /* \"#utility.yul\":214:486   */\n      pop\n      swap3\n      swap2\n      pop\n      pop\n      jump\t// out\n        /* \"#utility.yul\":492:2722   */\n    tag_11:\n        /* \"#utility.yul\":1060:1064   */\n      0x00\n        /* \"#utility.yul\":1098:1101   */\n      0x0160\n        /* \"#utility.yul\":1087:1096   */\n      dup3\n        /* \"#utility.yul\":1083:1102   */\n      add\n        /* \"#utility.yul\":1075:1102   */\n      swap1\n      pop\n        /* \"#utility.yul\":1148:1157   */\n      dup2\n        /* \"#utility.yul\":1142:1146   */\n      dup2\n        /* \"#utility.yul\":1138:1158   */\n      sub\n        /* \"#utility.yul\":1134:1135   */\n      0x00\n        /* \"#utility.yul\":1123:1132   */\n      dup4\n        /* \"#utility.yul\":1119:1136   */\n      add\n        /* \"#utility.yul\":1112:1159   */\n      mstore\n        /* \"#utility.yul\":1176:1254   */\n      tag_84\n        /* \"#utility.yul\":1249:1253   */\n      dup2\n        /* \"#utility.yul\":1240:1246   */\n      dup15\n        /* \"#utility.yul\":1176:1254   */\n      tag_73\n      jump\t// in\n    tag_84:\n        /* \"#utility.yul\":1168:1254   */\n      swap1\n      pop\n        /* \"#utility.yul\":1301:1310   */\n      dup2\n        /* \"#utility.yul\":1295:1299   */\n      dup2\n        /* \"#utility.yul\":1291:1311   */\n      sub\n        /* \"#utility.yul\":1286:1288   */\n      0x20\n        /* \"#utility.yul\":1275:1284   */\n      dup4\n        /* \"#utility.yul\":1271:1289   */\n      add\n        /* \"#utility.yul\":1264:1312   */\n      mstore\n        /* \"#utility.yul\":1329:1407   */\n      tag_85\n        /* \"#utility.yul\":1402:1406   */\n      dup2\n        /* \"#utility.yul\":1393:1399   */\n      dup14\n        /* \"#utility.yul\":1329:1407   */\n      tag_73\n      jump\t// in\n    tag_85:\n        /* \"#utility.yul\":1321:1407   */\n      swap1\n      pop\n        /* \"#utility.yul\":1454:1463   */\n      dup2\n        /* \"#utility.yul\":1448:1452   */\n      dup2\n        /* \"#utility.yul\":1444:1464   */\n      sub\n        /* \"#utility.yul\":1439:1441   */\n      0x40\n        /* \"#utility.yul\":1428:1437   */\n      dup4\n        /* \"#utility.yul\":1424:1442   */\n      add\n        /* \"#utility.yul\":1417:1465   */\n      mstore\n        /* \"#utility.yul\":1482:1560   */\n      tag_86\n        /* \"#utility.yul\":1555:1559   */\n      dup2\n        /* \"#utility.yul\":1546:1552   */\n      dup13\n        /* \"#utility.yul\":1482:1560   */\n      tag_73\n      jump\t// in\n    tag_86:\n        /* \"#utility.yul\":1474:1560   */\n      swap1\n      pop\n        /* \"#utility.yul\":1607:1616   */\n      dup2\n        /* \"#utility.yul\":1601:1605   */\n      dup2\n        /* \"#utility.yul\":1597:1617   */\n      sub\n        /* \"#utility.yul\":1592:1594   */\n      0x60\n        /* \"#utility.yul\":1581:1590   */\n      dup4\n        /* \"#utility.yul\":1577:1595   */\n      add\n        /* \"#utility.yul\":1570:1618   */\n      mstore\n        /* \"#utility.yul\":1635:1713   */\n      tag_87\n        /* \"#utility.yul\":1708:1712   */\n      dup2\n        /* \"#utility.yul\":1699:1705   */\n      dup12\n        /* \"#utility.yul\":1635:1713   */\n      tag_73\n      jump\t// in\n    tag_87:\n        /* \"#utility.yul\":1627:1713   */\n      swap1\n      pop\n        /* \"#utility.yul\":1761:1770   */\n      dup2\n        /* \"#utility.yul\":1755:1759   */\n      dup2\n        /* \"#utility.yul\":1751:1771   */\n      sub\n        /* \"#utility.yul\":1745:1748   */\n      0x80\n        /* \"#utility.yul\":1734:1743   */\n      dup4\n        /* \"#utility.yul\":1730:1749   */\n      add\n        /* \"#utility.yul\":1723:1772   */\n      mstore\n        /* \"#utility.yul\":1789:1867   */\n      tag_88\n        /* \"#utility.yul\":1862:1866   */\n      dup2\n        /* \"#utility.yul\":1853:1859   */\n      dup11\n        /* \"#utility.yul\":1789:1867   */\n      tag_73\n      jump\t// in\n    tag_88:\n        /* \"#utility.yul\":1781:1867   */\n      swap1\n      pop\n        /* \"#utility.yul\":1915:1924   */\n      dup2\n        /* \"#utility.yul\":1909:1913   */\n      dup2\n        /* \"#utility.yul\":1905:1925   */\n      sub\n        /* \"#utility.yul\":1899:1902   */\n      0xa0\n        /* \"#utility.yul\":1888:1897   */\n      dup4\n        /* \"#utility.yul\":1884:1903   */\n      add\n        /* \"#utility.yul\":1877:1926   */\n      mstore\n        /* \"#utility.yul\":1943:2021   */\n      tag_89\n        /* \"#utility.yul\":2016:2020   */\n      dup2\n        /* \"#utility.yul\":2007:2013   */\n      dup10\n        /* \"#utility.yul\":1943:2021   */\n      tag_73\n      jump\t// in\n    tag_89:\n        /* \"#utility.yul\":1935:2021   */\n      swap1\n      pop\n        /* \"#utility.yul\":2069:2078   */\n      dup2\n        /* \"#utility.yul\":2063:2067   */\n      dup2\n        /* \"#utility.yul\":2059:2079   */\n      sub\n        /* \"#utility.yul\":2053:2056   */\n      0xc0\n        /* \"#utility.yul\":2042:2051   */\n      dup4\n        /* \"#utility.yul\":2038:2057   */\n      add\n        /* \"#utility.yul\":2031:2080   */\n      mstore\n        /* \"#utility.yul\":2097:2175   */\n      tag_90\n        /* \"#utility.yul\":2170:2174   */\n      dup2\n        /* \"#utility.yul\":2161:2167   */\n      dup9\n        /* \"#utility.yul\":2097:2175   */\n      tag_73\n      jump\t// in\n    tag_90:\n        /* \"#utility.yul\":2089:2175   */\n      swap1\n      pop\n        /* \"#utility.yul\":2223:2232   */\n      dup2\n        /* \"#utility.yul\":2217:2221   */\n      dup2\n        /* \"#utility.yul\":2213:2233   */\n      sub\n        /* \"#utility.yul\":2207:2210   */\n      0xe0\n        /* \"#utility.yul\":2196:2205   */\n      dup4\n        /* \"#utility.yul\":2192:2211   */\n      add\n        /* \"#utility.yul\":2185:2234   */\n      mstore\n        /* \"#utility.yul\":2251:2329   */\n      tag_91\n        /* \"#utility.yul\":2324:2328   */\n      dup2\n        /* \"#utility.yul\":2315:2321   */\n      dup8\n        /* \"#utility.yul\":2251:2329   */\n      tag_73\n      jump\t// in\n    tag_91:\n        /* \"#utility.yul\":2243:2329   */\n      swap1\n      pop\n        /* \"#utility.yul\":2377:2386   */\n      dup2\n        /* \"#utility.yul\":2371:2375   */\n      dup2\n        /* \"#utility.yul\":2367:2387   */\n      sub\n        /* \"#utility.yul\":2361:2364   */\n      0x0100\n        /* \"#utility.yul\":2350:2359   */\n      dup4\n        /* \"#utility.yul\":2346:2365   */\n      add\n        /* \"#utility.yul\":2339:2388   */\n      mstore\n        /* \"#utility.yul\":2405:2483   */\n      tag_92\n        /* \"#utility.yul\":2478:2482   */\n      dup2\n        /* \"#utility.yul\":2469:2475   */\n      dup7\n        /* \"#utility.yul\":2405:2483   */\n      tag_73\n      jump\t// in\n    tag_92:\n        /* \"#utility.yul\":2397:2483   */\n      swap1\n      pop\n        /* \"#utility.yul\":2531:2540   */\n      dup2\n        /* \"#utility.yul\":2525:2529   */\n      dup2\n        /* \"#utility.yul\":2521:2541   */\n      sub\n        /* \"#utility.yul\":2515:2518   */\n      0x0120\n        /* \"#utility.yul\":2504:2513   */\n      dup4\n        /* \"#utility.yul\":2500:2519   */\n      add\n        /* \"#utility.yul\":2493:2542   */\n      mstore\n        /* \"#utility.yul\":2559:2637   */\n      tag_93\n        /* \"#utility.yul\":2632:2636   */\n      dup2\n        /* \"#utility.yul\":2623:2629   */\n      dup6\n        /* \"#utility.yul\":2559:2637   */\n      tag_73\n      jump\t// in\n    tag_93:\n        /* \"#utility.yul\":2551:2637   */\n      swap1\n      pop\n        /* \"#utility.yul\":2647:2715   */\n      tag_94\n        /* \"#utility.yul\":2710:2713   */\n      0x0140\n        /* \"#utility.yul\":2699:2708   */\n      dup4\n        /* \"#utility.yul\":2695:2714   */\n      add\n        /* \"#utility.yul\":2685:2692   */\n      dup5\n        /* \"#utility.yul\":2647:2715   */\n      tag_69\n      jump\t// in\n    tag_94:\n        /* \"#utility.yul\":1065:2722   */\n      swap13\n      swap12\n      pop\n      pop\n      pop\n      pop\n      pop\n      pop\n      pop\n      pop\n      pop\n      pop\n      pop\n      pop\n      jump\t// out\n        /* \"#utility.yul\":2728:2827   */\n    tag_76:\n        /* \"#utility.yul\":2780:2786   */\n      0x00\n        /* \"#utility.yul\":2814:2819   */\n      dup2\n        /* \"#utility.yul\":2808:2820   */\n      mload\n        /* \"#utility.yul\":2798:2820   */\n      swap1\n      pop\n        /* \"#utility.yul\":2787:2827   */\n      swap2\n      swap1\n      pop\n      jump\t// out\n        /* \"#utility.yul\":2833:3002   */\n    tag_78:\n        /* \"#utility.yul\":2917:2928   */\n      0x00\n        /* \"#utility.yul\":2951:2957   */\n      dup3\n        /* \"#utility.yul\":2946:2949   */\n      dup3\n        /* \"#utility.yul\":2939:2958   */\n      mstore\n        /* \"#utility.yul\":2991:2995   */\n      0x20\n        /* \"#utility.yul\":2986:2989   */\n      dup3\n        /* \"#utility.yul\":2982:2996   */\n      add\n        /* \"#utility.yul\":2967:2996   */\n      swap1\n      pop\n        /* \"#utility.yul\":2929:3002   */\n      swap3\n      swap2\n      pop\n      pop\n      jump\t// out\n        /* \"#utility.yul\":3008:3098   */\n    tag_72:\n        /* \"#utility.yul\":3042:3049   */\n      0x00\n        /* \"#utility.yul\":3085:3090   */\n      dup2\n        /* \"#utility.yul\":3078:3091   */\n      iszero\n        /* \"#utility.yul\":3071:3092   */\n      iszero\n        /* \"#utility.yul\":3060:3092   */\n      swap1\n      pop\n        /* \"#utility.yul\":3050:3098   */\n      swap2\n      swap1\n      pop\n      jump\t// out\n        /* \"#utility.yul\":3104:3411   */\n    tag_80:\n        /* \"#utility.yul\":3172:3173   */\n      0x00\n        /* \"#utility.yul\":3182:3295   */\n    tag_99:\n        /* \"#utility.yul\":3196:3202   */\n      dup4\n        /* \"#utility.yul\":3193:3194   */\n      dup2\n        /* \"#utility.yul\":3190:3203   */\n      lt\n        /* \"#utility.yul\":3182:3295   */\n      iszero\n      tag_101\n      jumpi\n        /* \"#utility.yul\":3281:3282   */\n      dup1\n        /* \"#utility.yul\":3276:3279   */\n      dup3\n        /* \"#utility.yul\":3272:3283   */\n      add\n        /* \"#utility.yul\":3266:3284   */\n      mload\n        /* \"#utility.yul\":3262:3263   */\n      dup2\n        /* \"#utility.yul\":3257:3260   */\n      dup5\n        /* \"#utility.yul\":3253:3264   */\n      add\n        /* \"#utility.yul\":3246:3285   */\n      mstore\n        /* \"#utility.yul\":3218:3220   */\n      0x20\n        /* \"#utility.yul\":3215:3216   */\n      dup2\n        /* \"#utility.yul\":3211:3221   */\n      add\n        /* \"#utility.yul\":3206:3221   */\n      swap1\n      pop\n        /* \"#utility.yul\":3182:3295   */\n      jump(tag_99)\n    tag_101:\n        /* \"#utility.yul\":3313:3319   */\n      dup4\n        /* \"#utility.yul\":3310:3311   */\n      dup2\n        /* \"#utility.yul\":3307:3320   */\n      gt\n        /* \"#utility.yul\":3304:3306   */\n      iszero\n      tag_102\n      jumpi\n        /* \"#utility.yul\":3393:3394   */\n      0x00\n        /* \"#utility.yul\":3384:3390   */\n      dup5\n        /* \"#utility.yul\":3379:3382   */\n      dup5\n        /* \"#utility.yul\":3375:3391   */\n      add\n        /* \"#utility.yul\":3368:3395   */\n      mstore\n        /* \"#utility.yul\":3304:3306   */\n    tag_102:\n        /* \"#utility.yul\":3153:3411   */\n      pop\n      pop\n      pop\n      pop\n      jump\t// out\n        /* \"#utility.yul\":3417:3737   */\n    tag_17:\n        /* \"#utility.yul\":3461:3467   */\n      0x00\n        /* \"#utility.yul\":3498:3499   */\n      0x02\n        /* \"#utility.yul\":3492:3496   */\n      dup3\n        /* \"#utility.yul\":3488:3500   */\n      div\n        /* \"#utility.yul\":3478:3500   */\n      swap1\n      pop\n        /* \"#utility.yul\":3545:3546   */\n      0x01\n        /* \"#utility.yul\":3539:3543   */\n      dup3\n        /* \"#utility.yul\":3535:3547   */\n      and\n        /* \"#utility.yul\":3566:3584   */\n      dup1\n        /* \"#utility.yul\":3556:3558   */\n      tag_104\n      jumpi\n        /* \"#utility.yul\":3622:3626   */\n      0x7f\n        /* \"#utility.yul\":3614:3620   */\n      dup3\n        /* \"#utility.yul\":3610:3627   */\n      and\n        /* \"#utility.yul\":3600:3627   */\n      swap2\n      pop\n        /* \"#utility.yul\":3556:3558   */\n    tag_104:\n        /* \"#utility.yul\":3684:3686   */\n      0x20\n        /* \"#utility.yul\":3676:3682   */\n      dup3\n        /* \"#utility.yul\":3673:3687   */\n      lt\n        /* \"#utility.yul\":3653:3671   */\n      dup2\n        /* \"#utility.yul\":3650:3688   */\n      eq\n        /* \"#utility.yul\":3647:3649   */\n      iszero\n      tag_105\n      jumpi\n        /* \"#utility.yul\":3703:3721   */\n      tag_106\n      tag_107\n      jump\t// in\n    tag_106:\n        /* \"#utility.yul\":3647:3649   */\n    tag_105:\n        /* \"#utility.yul\":3468:3737   */\n      pop\n      swap2\n      swap1\n      pop\n      jump\t// out\n        /* \"#utility.yul\":3743:3923   */\n    tag_107:\n        /* \"#utility.yul\":3791:3868   */\n      0x4e487b7100000000000000000000000000000000000000000000000000000000\n        /* \"#utility.yul\":3788:3789   */\n      0x00\n        /* \"#utility.yul\":3781:3869   */\n      mstore\n        /* \"#utility.yul\":3888:3892   */\n      0x22\n        /* \"#utility.yul\":3885:3886   */\n      0x04\n        /* \"#utility.yul\":3878:3893   */\n      mstore\n        /* \"#utility.yul\":3912:3916   */\n      0x24\n        /* \"#utility.yul\":3909:3910   */\n      0x00\n        /* \"#utility.yul\":3902:3917   */\n      revert\n        /* \"#utility.yul\":3929:4031   */\n    tag_82:\n        /* \"#utility.yul\":3970:3976   */\n      0x00\n        /* \"#utility.yul\":4021:4023   */\n      0x1f\n        /* \"#utility.yul\":4017:4024   */\n      not\n        /* \"#utility.yul\":4012:4014   */\n      0x1f\n        /* \"#utility.yul\":4005:4010   */\n      dup4\n        /* \"#utility.yul\":4001:4015   */\n      add\n        /* \"#utility.yul\":3997:4025   */\n      and\n        /* \"#utility.yul\":3987:4025   */\n      swap1\n      pop\n        /* \"#utility.yul\":3977:4031   */\n      swap2\n      swap1\n      pop\n      jump\t// out\n\n    auxdata: 0xa26469706673582212200927d25fc3a984670ed5637adee4b1080c1a31ca3fd96002540cf9fa1609633364736f6c63430008060033\n}\n",
				"bytecode": {
					"linkReferences": {},
					"object": "60806040526000600a60006101000a81548160ff0219169083151502179055503480156200002c57600080fd5b5060405162000f1138038062000f1183398181016040528101906200005291906200028a565b89600090805190602001906200006a9291906200015c565b508860019080519060200190620000839291906200015c565b5087600290805190602001906200009c9291906200015c565b508660039080519060200190620000b59291906200015c565b508560049080519060200190620000ce9291906200015c565b508460059080519060200190620000e79291906200015c565b508360069080519060200190620001009291906200015c565b508260079080519060200190620001199291906200015c565b508160089080519060200190620001329291906200015c565b5080600990805190602001906200014b9291906200015c565b50505050505050505050506200063a565b8280546200016a906200054b565b90600052602060002090601f0160209004810192826200018e5760008555620001da565b82601f10620001a957805160ff1916838001178555620001da565b82800160010185558215620001da579182015b82811115620001d9578251825591602001919060010190620001bc565b5b509050620001e99190620001ed565b5090565b5b8082111562000208576000816000905550600101620001ee565b5090565b6000620002236200021d84620004df565b620004b6565b9050828152602081018484840111156200024257620002416200061a565b5b6200024f84828562000515565b509392505050565b600082601f8301126200026f576200026e62000615565b5b8151620002818482602086016200020c565b91505092915050565b6000806000806000806000806000806101408b8d031215620002b157620002b062000624565b5b60008b015167ffffffffffffffff811115620002d257620002d16200061f565b5b620002e08d828e0162000257565b9a505060208b015167ffffffffffffffff8111156200030457620003036200061f565b5b620003128d828e0162000257565b99505060408b015167ffffffffffffffff8111156200033657620003356200061f565b5b620003448d828e0162000257565b98505060608b015167ffffffffffffffff8111156200036857620003676200061f565b5b620003768d828e0162000257565b97505060808b015167ffffffffffffffff8111156200039a57620003996200061f565b5b620003a88d828e0162000257565b96505060a08b015167ffffffffffffffff811115620003cc57620003cb6200061f565b5b620003da8d828e0162000257565b95505060c08b015167ffffffffffffffff811115620003fe57620003fd6200061f565b5b6200040c8d828e0162000257565b94505060e08b015167ffffffffffffffff81111562000430576200042f6200061f565b5b6200043e8d828e0162000257565b9350506101008b015167ffffffffffffffff8111156200046357620004626200061f565b5b620004718d828e0162000257565b9250506101208b015167ffffffffffffffff8111156200049657620004956200061f565b5b620004a48d828e0162000257565b9150509295989b9194979a5092959850565b6000620004c2620004d5565b9050620004d0828262000581565b919050565b6000604051905090565b600067ffffffffffffffff821115620004fd57620004fc620005e6565b5b620005088262000629565b9050602081019050919050565b60005b838110156200053557808201518184015260208101905062000518565b8381111562000545576000848401525b50505050565b600060028204905060018216806200056457607f821691505b602082108114156200057b576200057a620005b7565b5b50919050565b6200058c8262000629565b810181811067ffffffffffffffff82111715620005ae57620005ad620005e6565b5b80604052505050565b7f4e487b7100000000000000000000000000000000000000000000000000000000600052602260045260246000fd5b7f4e487b7100000000000000000000000000000000000000000000000000000000600052604160045260246000fd5b600080fd5b600080fd5b600080fd5b600080fd5b6000601f19601f8301169050919050565b6108c7806200064a6000396000f3fe608060405234801561001057600080fd5b50600436106100415760003560e01c806311ba2f2f146100465780633bc5de30146100505780639bb2ed9414610078575b600080fd5b61004e610082565b005b61005861009f565b60405161006f9b9a999897969594939291906106d3565b60405180910390f35b61008061066e565b005b6000600a60006101000a81548160ff021916908315150217905550565b606080606080606080606080606080600080600160026003600460056006600760086009600a60009054906101000a900460ff168a80546100df9061081f565b80601f016020809104026020016040519081016040528092919081815260200182805461010b9061081f565b80156101585780601f1061012d57610100808354040283529160200191610158565b820191906000526020600020905b81548152906001019060200180831161013b57829003601f168201915b50505050509a5089805461016b9061081f565b80601f01602080910402602001604051908101604052809291908181526020018280546101979061081f565b80156101e45780601f106101b9576101008083540402835291602001916101e4565b820191906000526020600020905b8154815290600101906020018083116101c757829003601f168201915b505050505099508880546101f79061081f565b80601f01602080910402602001604051908101604052809291908181526020018280546102239061081f565b80156102705780601f1061024557610100808354040283529160200191610270565b820191906000526020600020905b81548152906001019060200180831161025357829003601f168201915b505050505098508780546102839061081f565b80601f01602080910402602001604051908101604052809291908181526020018280546102af9061081f565b80156102fc5780601f106102d1576101008083540402835291602001916102fc565b820191906000526020600020905b8154815290600101906020018083116102df57829003601f168201915b5050505050975086805461030f9061081f565b80601f016020809104026020016040519081016040528092919081815260200182805461033b9061081f565b80156103885780601f1061035d57610100808354040283529160200191610388565b820191906000526020600020905b81548152906001019060200180831161036b57829003601f168201915b5050505050965085805461039b9061081f565b80601f01602080910402602001604051908101604052809291908181526020018280546103c79061081f565b80156104145780601f106103e957610100808354040283529160200191610414565b820191906000526020600020905b8154815290600101906020018083116103f757829003601f168201915b505050505095508480546104279061081f565b80601f01602080910402602001604051908101604052809291908181526020018280546104539061081f565b80156104a05780601f10610475576101008083540402835291602001916104a0565b820191906000526020600020905b81548152906001019060200180831161048357829003601f168201915b505050505094508380546104b39061081f565b80601f01602080910402602001604051908101604052809291908181526020018280546104df9061081f565b801561052c5780601f106105015761010080835404028352916020019161052c565b820191906000526020600020905b81548152906001019060200180831161050f57829003601f168201915b5050505050935082805461053f9061081f565b80601f016020809104026020016040519081016040528092919081815260200182805461056b9061081f565b80156105b85780601f1061058d576101008083540402835291602001916105b8565b820191906000526020600020905b81548152906001019060200180831161059b57829003601f168201915b505050505092508180546105cb9061081f565b80601f01602080910402602001604051908101604052809291908181526020018280546105f79061081f565b80156106445780601f1061061957610100808354040283529160200191610644565b820191906000526020600020905b81548152906001019060200180831161062757829003601f168201915b505050505091509a509a509a509a509a509a509a509a509a509a509a50909192939495969798999a565b6001600a60006101000a81548160ff021916908315150217905550565b610694816107e0565b82525050565b60006106a5826107c4565b6106af81856107cf565b93506106bf8185602086016107ec565b6106c881610880565b840191505092915050565b60006101608201905081810360008301526106ee818e61069a565b90508181036020830152610702818d61069a565b90508181036040830152610716818c61069a565b9050818103606083015261072a818b61069a565b9050818103608083015261073e818a61069a565b905081810360a0830152610752818961069a565b905081810360c0830152610766818861069a565b905081810360e083015261077a818761069a565b905081810361010083015261078f818661069a565b90508181036101208301526107a4818561069a565b90506107b461014083018461068b565b9c9b505050505050505050505050565b600081519050919050565b600082825260208201905092915050565b60008115159050919050565b60005b8381101561080a5780820151818401526020810190506107ef565b83811115610819576000848401525b50505050565b6000600282049050600182168061083757607f821691505b6020821081141561084b5761084a610851565b5b50919050565b7f4e487b7100000000000000000000000000000000000000000000000000000000600052602260045260246000fd5b6000601f19601f830116905091905056fea26469706673582212200927d25fc3a984670ed5637adee4b1080c1a31ca3fd96002540cf9fa1609633364736f6c63430008060033",
					"opcodes": "PUSH1 0x80 PUSH1 0x40 MSTORE PUSH1 0x0 PUSH1 0xA PUSH1 0x0 PUSH2 0x100 EXP DUP2 SLOAD DUP2 PUSH1 0xFF MUL NOT AND SWAP1 DUP4 ISZERO ISZERO MUL OR SWAP1 SSTORE POP CALLVALUE DUP1 ISZERO PUSH3 0x2C JUMPI PUSH1 0x0 DUP1 REVERT JUMPDEST POP PUSH1 0x40 MLOAD PUSH3 0xF11 CODESIZE SUB DUP1 PUSH3 0xF11 DUP4 CODECOPY DUP2 DUP2 ADD PUSH1 0x40 MSTORE DUP2 ADD SWAP1 PUSH3 0x52 SWAP2 SWAP1 PUSH3 0x28A JUMP JUMPDEST DUP10 PUSH1 0x0 SWAP1 DUP1 MLOAD SWAP1 PUSH1 0x20 ADD SWAP1 PUSH3 0x6A SWAP3 SWAP2 SWAP1 PUSH3 0x15C JUMP JUMPDEST POP DUP9 PUSH1 0x1 SWAP1 DUP1 MLOAD SWAP1 PUSH1 0x20 ADD SWAP1 PUSH3 0x83 SWAP3 SWAP2 SWAP1 PUSH3 0x15C JUMP JUMPDEST POP DUP8 PUSH1 0x2 SWAP1 DUP1 MLOAD SWAP1 PUSH1 0x20 ADD SWAP1 PUSH3 0x9C SWAP3 SWAP2 SWAP1 PUSH3 0x15C JUMP JUMPDEST POP DUP7 PUSH1 0x3 SWAP1 DUP1 MLOAD SWAP1 PUSH1 0x20 ADD SWAP1 PUSH3 0xB5 SWAP3 SWAP2 SWAP1 PUSH3 0x15C JUMP JUMPDEST POP DUP6 PUSH1 0x4 SWAP1 DUP1 MLOAD SWAP1 PUSH1 0x20 ADD SWAP1 PUSH3 0xCE SWAP3 SWAP2 SWAP1 PUSH3 0x15C JUMP JUMPDEST POP DUP5 PUSH1 0x5 SWAP1 DUP1 MLOAD SWAP1 PUSH1 0x20 ADD SWAP1 PUSH3 0xE7 SWAP3 SWAP2 SWAP1 PUSH3 0x15C JUMP JUMPDEST POP DUP4 PUSH1 0x6 SWAP1 DUP1 MLOAD SWAP1 PUSH1 0x20 ADD SWAP1 PUSH3 0x100 SWAP3 SWAP2 SWAP1 PUSH3 0x15C JUMP JUMPDEST POP DUP3 PUSH1 0x7 SWAP1 DUP1 MLOAD SWAP1 PUSH1 0x20 ADD SWAP1 PUSH3 0x119 SWAP3 SWAP2 SWAP1 PUSH3 0x15C JUMP JUMPDEST POP DUP2 PUSH1 0x8 SWAP1 DUP1 MLOAD SWAP1 PUSH1 0x20 ADD SWAP1 PUSH3 0x132 SWAP3 SWAP2 SWAP1 PUSH3 0x15C JUMP JUMPDEST POP DUP1 PUSH1 0x9 SWAP1 DUP1 MLOAD SWAP1 PUSH1 0x20 ADD SWAP1 PUSH3 0x14B SWAP3 SWAP2 SWAP1 PUSH3 0x15C JUMP JUMPDEST POP POP POP POP POP POP POP POP POP POP POP PUSH3 0x63A JUMP JUMPDEST DUP3 DUP1 SLOAD PUSH3 0x16A SWAP1 PUSH3 0x54B JUMP JUMPDEST SWAP1 PUSH1 0x0 MSTORE PUSH1 0x20 PUSH1 0x0 KECCAK256 SWAP1 PUSH1 0x1F ADD PUSH1 0x20 SWAP1 DIV DUP2 ADD SWAP3 DUP3 PUSH3 0x18E JUMPI PUSH1 0x0 DUP6 SSTORE PUSH3 0x1DA JUMP JUMPDEST DUP3 PUSH1 0x1F LT PUSH3 0x1A9 JUMPI DUP1 MLOAD PUSH1 0xFF NOT AND DUP4 DUP1 ADD OR DUP6 SSTORE PUSH3 0x1DA JUMP JUMPDEST DUP3 DUP1 ADD PUSH1 0x1 ADD DUP6 SSTORE DUP3 ISZERO PUSH3 0x1DA JUMPI SWAP2 DUP3 ADD JUMPDEST DUP3 DUP2 GT ISZERO PUSH3 0x1D9 JUMPI DUP3 MLOAD DUP3 SSTORE SWAP2 PUSH1 0x20 ADD SWAP2 SWAP1 PUSH1 0x1 ADD SWAP1 PUSH3 0x1BC JUMP JUMPDEST JUMPDEST POP SWAP1 POP PUSH3 0x1E9 SWAP2 SWAP1 PUSH3 0x1ED JUMP JUMPDEST POP SWAP1 JUMP JUMPDEST JUMPDEST DUP1 DUP3 GT ISZERO PUSH3 0x208 JUMPI PUSH1 0x0 DUP2 PUSH1 0x0 SWAP1 SSTORE POP PUSH1 0x1 ADD PUSH3 0x1EE JUMP JUMPDEST POP SWAP1 JUMP JUMPDEST PUSH1 0x0 PUSH3 0x223 PUSH3 0x21D DUP5 PUSH3 0x4DF JUMP JUMPDEST PUSH3 0x4B6 JUMP JUMPDEST SWAP1 POP DUP3 DUP2 MSTORE PUSH1 0x20 DUP2 ADD DUP5 DUP5 DUP5 ADD GT ISZERO PUSH3 0x242 JUMPI PUSH3 0x241 PUSH3 0x61A JUMP JUMPDEST JUMPDEST PUSH3 0x24F DUP5 DUP3 DUP6 PUSH3 0x515 JUMP JUMPDEST POP SWAP4 SWAP3 POP POP POP JUMP JUMPDEST PUSH1 0x0 DUP3 PUSH1 0x1F DUP4 ADD SLT PUSH3 0x26F JUMPI PUSH3 0x26E PUSH3 0x615 JUMP JUMPDEST JUMPDEST DUP2 MLOAD PUSH3 0x281 DUP5 DUP3 PUSH1 0x20 DUP7 ADD PUSH3 0x20C JUMP JUMPDEST SWAP2 POP POP SWAP3 SWAP2 POP POP JUMP JUMPDEST PUSH1 0x0 DUP1 PUSH1 0x0 DUP1 PUSH1 0x0 DUP1 PUSH1 0x0 DUP1 PUSH1 0x0 DUP1 PUSH2 0x140 DUP12 DUP14 SUB SLT ISZERO PUSH3 0x2B1 JUMPI PUSH3 0x2B0 PUSH3 0x624 JUMP JUMPDEST JUMPDEST PUSH1 0x0 DUP12 ADD MLOAD PUSH8 0xFFFFFFFFFFFFFFFF DUP2 GT ISZERO PUSH3 0x2D2 JUMPI PUSH3 0x2D1 PUSH3 0x61F JUMP JUMPDEST JUMPDEST PUSH3 0x2E0 DUP14 DUP3 DUP15 ADD PUSH3 0x257 JUMP JUMPDEST SWAP11 POP POP PUSH1 0x20 DUP12 ADD MLOAD PUSH8 0xFFFFFFFFFFFFFFFF DUP2 GT ISZERO PUSH3 0x304 JUMPI PUSH3 0x303 PUSH3 0x61F JUMP JUMPDEST JUMPDEST PUSH3 0x312 DUP14 DUP3 DUP15 ADD PUSH3 0x257 JUMP JUMPDEST SWAP10 POP POP PUSH1 0x40 DUP12 ADD MLOAD PUSH8 0xFFFFFFFFFFFFFFFF DUP2 GT ISZERO PUSH3 0x336 JUMPI PUSH3 0x335 PUSH3 0x61F JUMP JUMPDEST JUMPDEST PUSH3 0x344 DUP14 DUP3 DUP15 ADD PUSH3 0x257 JUMP JUMPDEST SWAP9 POP POP PUSH1 0x60 DUP12 ADD MLOAD PUSH8 0xFFFFFFFFFFFFFFFF DUP2 GT ISZERO PUSH3 0x368 JUMPI PUSH3 0x367 PUSH3 0x61F JUMP JUMPDEST JUMPDEST PUSH3 0x376 DUP14 DUP3 DUP15 ADD PUSH3 0x257 JUMP JUMPDEST SWAP8 POP POP PUSH1 0x80 DUP12 ADD MLOAD PUSH8 0xFFFFFFFFFFFFFFFF DUP2 GT ISZERO PUSH3 0x39A JUMPI PUSH3 0x399 PUSH3 0x61F JUMP JUMPDEST JUMPDEST PUSH3 0x3A8 DUP14 DUP3 DUP15 ADD PUSH3 0x257 JUMP JUMPDEST SWAP7 POP POP PUSH1 0xA0 DUP12 ADD MLOAD PUSH8 0xFFFFFFFFFFFFFFFF DUP2 GT ISZERO PUSH3 0x3CC JUMPI PUSH3 0x3CB PUSH3 0x61F JUMP JUMPDEST JUMPDEST PUSH3 0x3DA DUP14 DUP3 DUP15 ADD PUSH3 0x257 JUMP JUMPDEST SWAP6 POP POP PUSH1 0xC0 DUP12 ADD MLOAD PUSH8 0xFFFFFFFFFFFFFFFF DUP2 GT ISZERO PUSH3 0x3FE JUMPI PUSH3 0x3FD PUSH3 0x61F JUMP JUMPDEST JUMPDEST PUSH3 0x40C DUP14 DUP3 DUP15 ADD PUSH3 0x257 JUMP JUMPDEST SWAP5 POP POP PUSH1 0xE0 DUP12 ADD MLOAD PUSH8 0xFFFFFFFFFFFFFFFF DUP2 GT ISZERO PUSH3 0x430 JUMPI PUSH3 0x42F PUSH3 0x61F JUMP JUMPDEST JUMPDEST PUSH3 0x43E DUP14 DUP3 DUP15 ADD PUSH3 0x257 JUMP JUMPDEST SWAP4 POP POP PUSH2 0x100 DUP12 ADD MLOAD PUSH8 0xFFFFFFFFFFFFFFFF DUP2 GT ISZERO PUSH3 0x463 JUMPI PUSH3 0x462 PUSH3 0x61F JUMP JUMPDEST JUMPDEST PUSH3 0x471 DUP14 DUP3 DUP15 ADD PUSH3 0x257 JUMP JUMPDEST SWAP3 POP POP PUSH2 0x120 DUP12 ADD MLOAD PUSH8 0xFFFFFFFFFFFFFFFF DUP2 GT ISZERO PUSH3 0x496 JUMPI PUSH3 0x495 PUSH3 0x61F JUMP JUMPDEST JUMPDEST PUSH3 0x4A4 DUP14 DUP3 DUP15 ADD PUSH3 0x257 JUMP JUMPDEST SWAP2 POP POP SWAP3 SWAP6 SWAP9 SWAP12 SWAP2 SWAP5 SWAP8 SWAP11 POP SWAP3 SWAP6 SWAP9 POP JUMP JUMPDEST PUSH1 0x0 PUSH3 0x4C2 PUSH3 0x4D5 JUMP JUMPDEST SWAP1 POP PUSH3 0x4D0 DUP3 DUP3 PUSH3 0x581 JUMP JUMPDEST SWAP2 SWAP1 POP JUMP JUMPDEST PUSH1 0x0 PUSH1 0x40 MLOAD SWAP1 POP SWAP1 JUMP JUMPDEST PUSH1 0x0 PUSH8 0xFFFFFFFFFFFFFFFF DUP3 GT ISZERO PUSH3 0x4FD JUMPI PUSH3 0x4FC PUSH3 0x5E6 JUMP JUMPDEST JUMPDEST PUSH3 0x508 DUP3 PUSH3 0x629 JUMP JUMPDEST SWAP1 POP PUSH1 0x20 DUP2 ADD SWAP1 POP SWAP2 SWAP1 POP JUMP JUMPDEST PUSH1 0x0 JUMPDEST DUP4 DUP2 LT ISZERO PUSH3 0x535 JUMPI DUP1 DUP3 ADD MLOAD DUP2 DUP5 ADD MSTORE PUSH1 0x20 DUP2 ADD SWAP1 POP PUSH3 0x518 JUMP JUMPDEST DUP4 DUP2 GT ISZERO PUSH3 0x545 JUMPI PUSH1 0x0 DUP5 DUP5 ADD MSTORE JUMPDEST POP POP POP POP JUMP JUMPDEST PUSH1 0x0 PUSH1 0x2 DUP3 DIV SWAP1 POP PUSH1 0x1 DUP3 AND DUP1 PUSH3 0x564 JUMPI PUSH1 0x7F DUP3 AND SWAP2 POP JUMPDEST PUSH1 0x20 DUP3 LT DUP2 EQ ISZERO PUSH3 0x57B JUMPI PUSH3 0x57A PUSH3 0x5B7 JUMP JUMPDEST JUMPDEST POP SWAP2 SWAP1 POP JUMP JUMPDEST PUSH3 0x58C DUP3 PUSH3 0x629 JUMP JUMPDEST DUP2 ADD DUP2 DUP2 LT PUSH8 0xFFFFFFFFFFFFFFFF DUP3 GT OR ISZERO PUSH3 0x5AE JUMPI PUSH3 0x5AD PUSH3 0x5E6 JUMP JUMPDEST JUMPDEST DUP1 PUSH1 0x40 MSTORE POP POP POP JUMP JUMPDEST PUSH32 0x4E487B7100000000000000000000000000000000000000000000000000000000 PUSH1 0x0 MSTORE PUSH1 0x22 PUSH1 0x4 MSTORE PUSH1 0x24 PUSH1 0x0 REVERT JUMPDEST PUSH32 0x4E487B7100000000000000000000000000000000000000000000000000000000 PUSH1 0x0 MSTORE PUSH1 0x41 PUSH1 0x4 MSTORE PUSH1 0x24 PUSH1 0x0 REVERT JUMPDEST PUSH1 0x0 DUP1 REVERT JUMPDEST PUSH1 0x0 DUP1 REVERT JUMPDEST PUSH1 0x0 DUP1 REVERT JUMPDEST PUSH1 0x0 DUP1 REVERT JUMPDEST PUSH1 0x0 PUSH1 0x1F NOT PUSH1 0x1F DUP4 ADD AND SWAP1 POP SWAP2 SWAP1 POP JUMP JUMPDEST PUSH2 0x8C7 DUP1 PUSH3 0x64A PUSH1 0x0 CODECOPY PUSH1 0x0 RETURN INVALID PUSH1 0x80 PUSH1 0x40 MSTORE CALLVALUE DUP1 ISZERO PUSH2 0x10 JUMPI PUSH1 0x0 DUP1 REVERT JUMPDEST POP PUSH1 0x4 CALLDATASIZE LT PUSH2 0x41 JUMPI PUSH1 0x0 CALLDATALOAD PUSH1 0xE0 SHR DUP1 PUSH4 0x11BA2F2F EQ PUSH2 0x46 JUMPI DUP1 PUSH4 0x3BC5DE30 EQ PUSH2 0x50 JUMPI DUP1 PUSH4 0x9BB2ED94 EQ PUSH2 0x78 JUMPI JUMPDEST PUSH1 0x0 DUP1 REVERT JUMPDEST PUSH2 0x4E PUSH2 0x82 JUMP JUMPDEST STOP JUMPDEST PUSH2 0x58 PUSH2 0x9F JUMP JUMPDEST PUSH1 0x40 MLOAD PUSH2 0x6F SWAP12 SWAP11 SWAP10 SWAP9 SWAP8 SWAP7 SWAP6 SWAP5 SWAP4 SWAP3 SWAP2 SWAP1 PUSH2 0x6D3 JUMP JUMPDEST PUSH1 0x40 MLOAD DUP1 SWAP2 SUB SWAP1 RETURN JUMPDEST PUSH2 0x80 PUSH2 0x66E JUMP JUMPDEST STOP JUMPDEST PUSH1 0x0 PUSH1 0xA PUSH1 0x0 PUSH2 0x100 EXP DUP2 SLOAD DUP2 PUSH1 0xFF MUL NOT AND SWAP1 DUP4 ISZERO ISZERO MUL OR SWAP1 SSTORE POP JUMP JUMPDEST PUSH1 0x60 DUP1 PUSH1 0x60 DUP1 PUSH1 0x60 DUP1 PUSH1 0x60 DUP1 PUSH1 0x60 DUP1 PUSH1 0x0 DUP1 PUSH1 0x1 PUSH1 0x2 PUSH1 0x3 PUSH1 0x4 PUSH1 0x5 PUSH1 0x6 PUSH1 0x7 PUSH1 0x8 PUSH1 0x9 PUSH1 0xA PUSH1 0x0 SWAP1 SLOAD SWAP1 PUSH2 0x100 EXP SWAP1 DIV PUSH1 0xFF AND DUP11 DUP1 SLOAD PUSH2 0xDF SWAP1 PUSH2 0x81F JUMP JUMPDEST DUP1 PUSH1 0x1F ADD PUSH1 0x20 DUP1 SWAP2 DIV MUL PUSH1 0x20 ADD PUSH1 0x40 MLOAD SWAP1 DUP2 ADD PUSH1 0x40 MSTORE DUP1 SWAP3 SWAP2 SWAP1 DUP2 DUP2 MSTORE PUSH1 0x20 ADD DUP3 DUP1 SLOAD PUSH2 0x10B SWAP1 PUSH2 0x81F JUMP JUMPDEST DUP1 ISZERO PUSH2 0x158 JUMPI DUP1 PUSH1 0x1F LT PUSH2 0x12D JUMPI PUSH2 0x100 DUP1 DUP4 SLOAD DIV MUL DUP4 MSTORE SWAP2 PUSH1 0x20 ADD SWAP2 PUSH2 0x158 JUMP JUMPDEST DUP3 ADD SWAP2 SWAP1 PUSH1 0x0 MSTORE PUSH1 0x20 PUSH1 0x0 KECCAK256 SWAP1 JUMPDEST DUP2 SLOAD DUP2 MSTORE SWAP1 PUSH1 0x1 ADD SWAP1 PUSH1 0x20 ADD DUP1 DUP4 GT PUSH2 0x13B JUMPI DUP3 SWAP1 SUB PUSH1 0x1F AND DUP3 ADD SWAP2 JUMPDEST POP POP POP POP POP SWAP11 POP DUP10 DUP1 SLOAD PUSH2 0x16B SWAP1 PUSH2 0x81F JUMP JUMPDEST DUP1 PUSH1 0x1F ADD PUSH1 0x20 DUP1 SWAP2 DIV MUL PUSH1 0x20 ADD PUSH1 0x40 MLOAD SWAP1 DUP2 ADD PUSH1 0x40 MSTORE DUP1 SWAP3 SWAP2 SWAP1 DUP2 DUP2 MSTORE PUSH1 0x20 ADD DUP3 DUP1 SLOAD PUSH2 0x197 SWAP1 PUSH2 0x81F JUMP JUMPDEST DUP1 ISZERO PUSH2 0x1E4 JUMPI DUP1 PUSH1 0x1F LT PUSH2 0x1B9 JUMPI PUSH2 0x100 DUP1 DUP4 SLOAD DIV MUL DUP4 MSTORE SWAP2 PUSH1 0x20 ADD SWAP2 PUSH2 0x1E4 JUMP JUMPDEST DUP3 ADD SWAP2 SWAP1 PUSH1 0x0 MSTORE PUSH1 0x20 PUSH1 0x0 KECCAK256 SWAP1 JUMPDEST DUP2 SLOAD DUP2 MSTORE SWAP1 PUSH1 0x1 ADD SWAP1 PUSH1 0x20 ADD DUP1 DUP4 GT PUSH2 0x1C7 JUMPI DUP3 SWAP1 SUB PUSH1 0x1F AND DUP3 ADD SWAP2 JUMPDEST POP POP POP POP POP SWAP10 POP DUP9 DUP1 SLOAD PUSH2 0x1F7 SWAP1 PUSH2 0x81F JUMP JUMPDEST DUP1 PUSH1 0x1F ADD PUSH1 0x20 DUP1 SWAP2 DIV MUL PUSH1 0x20 ADD PUSH1 0x40 MLOAD SWAP1 DUP2 ADD PUSH1 0x40 MSTORE DUP1 SWAP3 SWAP2 SWAP1 DUP2 DUP2 MSTORE PUSH1 0x20 ADD DUP3 DUP1 SLOAD PUSH2 0x223 SWAP1 PUSH2 0x81F JUMP JUMPDEST DUP1 ISZERO PUSH2 0x270 JUMPI DUP1 PUSH1 0x1F LT PUSH2 0x245 JUMPI PUSH2 0x100 DUP1 DUP4 SLOAD DIV MUL DUP4 MSTORE SWAP2 PUSH1 0x20 ADD SWAP2 PUSH2 0x270 JUMP JUMPDEST DUP3 ADD SWAP2 SWAP1 PUSH1 0x0 MSTORE PUSH1 0x20 PUSH1 0x0 KECCAK256 SWAP1 JUMPDEST DUP2 SLOAD DUP2 MSTORE SWAP1 PUSH1 0x1 ADD SWAP1 PUSH1 0x20 ADD DUP1 DUP4 GT PUSH2 0x253 JUMPI DUP3 SWAP1 SUB PUSH1 0x1F AND DUP3 ADD SWAP2 JUMPDEST POP POP POP POP POP SWAP9 POP DUP8 DUP1 SLOAD PUSH2 0x283 SWAP1 PUSH2 0x81F JUMP JUMPDEST DUP1 PUSH1 0x1F ADD PUSH1 0x20 DUP1 SWAP2 DIV MUL PUSH1 0x20 ADD PUSH1 0x40 MLOAD SWAP1 DUP2 ADD PUSH1 0x40 MSTORE DUP1 SWAP3 SWAP2 SWAP1 DUP2 DUP2 MSTORE PUSH1 0x20 ADD DUP3 DUP1 SLOAD PUSH2 0x2AF SWAP1 PUSH2 0x81F JUMP JUMPDEST DUP1 ISZERO PUSH2 0x2FC JUMPI DUP1 PUSH1 0x1F LT PUSH2 0x2D1 JUMPI PUSH2 0x100 DUP1 DUP4 SLOAD DIV MUL DUP4 MSTORE SWAP2 PUSH1 0x20 ADD SWAP2 PUSH2 0x2FC JUMP JUMPDEST DUP3 ADD SWAP2 SWAP1 PUSH1 0x0 MSTORE PUSH1 0x20 PUSH1 0x0 KECCAK256 SWAP1 JUMPDEST DUP2 SLOAD DUP2 MSTORE SWAP1 PUSH1 0x1 ADD SWAP1 PUSH1 0x20 ADD DUP1 DUP4 GT PUSH2 0x2DF JUMPI DUP3 SWAP1 SUB PUSH1 0x1F AND DUP3 ADD SWAP2 JUMPDEST POP POP POP POP POP SWAP8 POP DUP7 DUP1 SLOAD PUSH2 0x30F SWAP1 PUSH2 0x81F JUMP JUMPDEST DUP1 PUSH1 0x1F ADD PUSH1 0x20 DUP1 SWAP2 DIV MUL PUSH1 0x20 ADD PUSH1 0x40 MLOAD SWAP1 DUP2 ADD PUSH1 0x40 MSTORE DUP1 SWAP3 SWAP2 SWAP1 DUP2 DUP2 MSTORE PUSH1 0x20 ADD DUP3 DUP1 SLOAD PUSH2 0x33B SWAP1 PUSH2 0x81F JUMP JUMPDEST DUP1 ISZERO PUSH2 0x388 JUMPI DUP1 PUSH1 0x1F LT PUSH2 0x35D JUMPI PUSH2 0x100 DUP1 DUP4 SLOAD DIV MUL DUP4 MSTORE SWAP2 PUSH1 0x20 ADD SWAP2 PUSH2 0x388 JUMP JUMPDEST DUP3 ADD SWAP2 SWAP1 PUSH1 0x0 MSTORE PUSH1 0x20 PUSH1 0x0 KECCAK256 SWAP1 JUMPDEST DUP2 SLOAD DUP2 MSTORE SWAP1 PUSH1 0x1 ADD SWAP1 PUSH1 0x20 ADD DUP1 DUP4 GT PUSH2 0x36B JUMPI DUP3 SWAP1 SUB PUSH1 0x1F AND DUP3 ADD SWAP2 JUMPDEST POP POP POP POP POP SWAP7 POP DUP6 DUP1 SLOAD PUSH2 0x39B SWAP1 PUSH2 0x81F JUMP JUMPDEST DUP1 PUSH1 0x1F ADD PUSH1 0x20 DUP1 SWAP2 DIV MUL PUSH1 0x20 ADD PUSH1 0x40 MLOAD SWAP1 DUP2 ADD PUSH1 0x40 MSTORE DUP1 SWAP3 SWAP2 SWAP1 DUP2 DUP2 MSTORE PUSH1 0x20 ADD DUP3 DUP1 SLOAD PUSH2 0x3C7 SWAP1 PUSH2 0x81F JUMP JUMPDEST DUP1 ISZERO PUSH2 0x414 JUMPI DUP1 PUSH1 0x1F LT PUSH2 0x3E9 JUMPI PUSH2 0x100 DUP1 DUP4 SLOAD DIV MUL DUP4 MSTORE SWAP2 PUSH1 0x20 ADD SWAP2 PUSH2 0x414 JUMP JUMPDEST DUP3 ADD SWAP2 SWAP1 PUSH1 0x0 MSTORE PUSH1 0x20 PUSH1 0x0 KECCAK256 SWAP1 JUMPDEST DUP2 SLOAD DUP2 MSTORE SWAP1 PUSH1 0x1 ADD SWAP1 PUSH1 0x20 ADD DUP1 DUP4 GT PUSH2 0x3F7 JUMPI DUP3 SWAP1 SUB PUSH1 0x1F AND DUP3 ADD SWAP2 JUMPDEST POP POP POP POP POP SWAP6 POP DUP5 DUP1 SLOAD PUSH2 0x427 SWAP1 PUSH2 0x81F JUMP JUMPDEST DUP1 PUSH1 0x1F ADD PUSH1 0x20 DUP1 SWAP2 DIV MUL PUSH1 0x20 ADD PUSH1 0x40 MLOAD SWAP1 DUP2 ADD PUSH1 0x40 MSTORE DUP1 SWAP3 SWAP2 SWAP1 DUP2 DUP2 MSTORE PUSH1 0x20 ADD DUP3 DUP1 SLOAD PUSH2 0x453 SWAP1 PUSH2 0x81F JUMP JUMPDEST DUP1 ISZERO PUSH2 0x4A0 JUMPI DUP1 PUSH1 0x1F LT PUSH2 0x475 JUMPI PUSH2 0x100 DUP1 DUP4 SLOAD DIV MUL DUP4 MSTORE SWAP2 PUSH1 0x20 ADD SWAP2 PUSH2 0x4A0 JUMP JUMPDEST DUP3 ADD SWAP2 SWAP1 PUSH1 0x0 MSTORE PUSH1 0x20 PUSH1 0x0 KECCAK256 SWAP1 JUMPDEST DUP2 SLOAD DUP2 MSTORE SWAP1 PUSH1 0x1 ADD SWAP1 PUSH1 0x20 ADD DUP1 DUP4 GT PUSH2 0x483 JUMPI DUP3 SWAP1 SUB PUSH1 0x1F AND DUP3 ADD SWAP2 JUMPDEST POP POP POP POP POP SWAP5 POP DUP4 DUP1 SLOAD PUSH2 0x4B3 SWAP1 PUSH2 0x81F JUMP JUMPDEST DUP1 PUSH1 0x1F ADD PUSH1 0x20 DUP1 SWAP2 DIV MUL PUSH1 0x20 ADD PUSH1 0x40 MLOAD SWAP1 DUP2 ADD PUSH1 0x40 MSTORE DUP1 SWAP3 SWAP2 SWAP1 DUP2 DUP2 MSTORE PUSH1 0x20 ADD DUP3 DUP1 SLOAD PUSH2 0x4DF SWAP1 PUSH2 0x81F JUMP JUMPDEST DUP1 ISZERO PUSH2 0x52C JUMPI DUP1 PUSH1 0x1F LT PUSH2 0x501 JUMPI PUSH2 0x100 DUP1 DUP4 SLOAD DIV MUL DUP4 MSTORE SWAP2 PUSH1 0x20 ADD SWAP2 PUSH2 0x52C JUMP JUMPDEST DUP3 ADD SWAP2 SWAP1 PUSH1 0x0 MSTORE PUSH1 0x20 PUSH1 0x0 KECCAK256 SWAP1 JUMPDEST DUP2 SLOAD DUP2 MSTORE SWAP1 PUSH1 0x1 ADD SWAP1 PUSH1 0x20 ADD DUP1 DUP4 GT PUSH2 0x50F JUMPI DUP3 SWAP1 SUB PUSH1 0x1F AND DUP3 ADD SWAP2 JUMPDEST POP POP POP POP POP SWAP4 POP DUP3 DUP1 SLOAD PUSH2 0x53F SWAP1 PUSH2 0x81F JUMP JUMPDEST DUP1 PUSH1 0x1F ADD PUSH1 0x20 DUP1 SWAP2 DIV MUL PUSH1 0x20 ADD PUSH1 0x40 MLOAD SWAP1 DUP2 ADD PUSH1 0x40 MSTORE DUP1 SWAP3 SWAP2 SWAP1 DUP2 DUP2 MSTORE PUSH1 0x20 ADD DUP3 DUP1 SLOAD PUSH2 0x56B SWAP1 PUSH2 0x81F JUMP JUMPDEST DUP1 ISZERO PUSH2 0x5B8 JUMPI DUP1 PUSH1 0x1F LT PUSH2 0x58D JUMPI PUSH2 0x100 DUP1 DUP4 SLOAD DIV MUL DUP4 MSTORE SWAP2 PUSH1 0x20 ADD SWAP2 PUSH2 0x5B8 JUMP JUMPDEST DUP3 ADD SWAP2 SWAP1 PUSH1 0x0 MSTORE PUSH1 0x20 PUSH1 0x0 KECCAK256 SWAP1 JUMPDEST DUP2 SLOAD DUP2 MSTORE SWAP1 PUSH1 0x1 ADD SWAP1 PUSH1 0x20 ADD DUP1 DUP4 GT PUSH2 0x59B JUMPI DUP3 SWAP1 SUB PUSH1 0x1F AND DUP3 ADD SWAP2 JUMPDEST POP POP POP POP POP SWAP3 POP DUP2 DUP1 SLOAD PUSH2 0x5CB SWAP1 PUSH2 0x81F JUMP JUMPDEST DUP1 PUSH1 0x1F ADD PUSH1 0x20 DUP1 SWAP2 DIV MUL PUSH1 0x20 ADD PUSH1 0x40 MLOAD SWAP1 DUP2 ADD PUSH1 0x40 MSTORE DUP1 SWAP3 SWAP2 SWAP1 DUP2 DUP2 MSTORE PUSH1 0x20 ADD DUP3 DUP1 SLOAD PUSH2 0x5F7 SWAP1 PUSH2 0x81F JUMP JUMPDEST DUP1 ISZERO PUSH2 0x644 JUMPI DUP1 PUSH1 0x1F LT PUSH2 0x619 JUMPI PUSH2 0x100 DUP1 DUP4 SLOAD DIV MUL DUP4 MSTORE SWAP2 PUSH1 0x20 ADD SWAP2 PUSH2 0x644 JUMP JUMPDEST DUP3 ADD SWAP2 SWAP1 PUSH1 0x0 MSTORE PUSH1 0x20 PUSH1 0x0 KECCAK256 SWAP1 JUMPDEST DUP2 SLOAD DUP2 MSTORE SWAP1 PUSH1 0x1 ADD SWAP1 PUSH1 0x20 ADD DUP1 DUP4 GT PUSH2 0x627 JUMPI DUP3 SWAP1 SUB PUSH1 0x1F AND DUP3 ADD SWAP2 JUMPDEST POP POP POP POP POP SWAP2 POP SWAP11 POP SWAP11 POP SWAP11 POP SWAP11 POP SWAP11 POP SWAP11 POP SWAP11 POP SWAP11 POP SWAP11 POP SWAP11 POP SWAP11 POP SWAP1 SWAP2 SWAP3 SWAP4 SWAP5 SWAP6 SWAP7 SWAP8 SWAP9 SWAP10 SWAP11 JUMP JUMPDEST PUSH1 0x1 PUSH1 0xA PUSH1 0x0 PUSH2 0x100 EXP DUP2 SLOAD DUP2 PUSH1 0xFF MUL NOT AND SWAP1 DUP4 ISZERO ISZERO MUL OR SWAP1 SSTORE POP JUMP JUMPDEST PUSH2 0x694 DUP2 PUSH2 0x7E0 JUMP JUMPDEST DUP3 MSTORE POP POP JUMP JUMPDEST PUSH1 0x0 PUSH2 0x6A5 DUP3 PUSH2 0x7C4 JUMP JUMPDEST PUSH2 0x6AF DUP2 DUP6 PUSH2 0x7CF JUMP JUMPDEST SWAP4 POP PUSH2 0x6BF DUP2 DUP6 PUSH1 0x20 DUP7 ADD PUSH2 0x7EC JUMP JUMPDEST PUSH2 0x6C8 DUP2 PUSH2 0x880 JUMP JUMPDEST DUP5 ADD SWAP2 POP POP SWAP3 SWAP2 POP POP JUMP JUMPDEST PUSH1 0x0 PUSH2 0x160 DUP3 ADD SWAP1 POP DUP2 DUP2 SUB PUSH1 0x0 DUP4 ADD MSTORE PUSH2 0x6EE DUP2 DUP15 PUSH2 0x69A JUMP JUMPDEST SWAP1 POP DUP2 DUP2 SUB PUSH1 0x20 DUP4 ADD MSTORE PUSH2 0x702 DUP2 DUP14 PUSH2 0x69A JUMP JUMPDEST SWAP1 POP DUP2 DUP2 SUB PUSH1 0x40 DUP4 ADD MSTORE PUSH2 0x716 DUP2 DUP13 PUSH2 0x69A JUMP JUMPDEST SWAP1 POP DUP2 DUP2 SUB PUSH1 0x60 DUP4 ADD MSTORE PUSH2 0x72A DUP2 DUP12 PUSH2 0x69A JUMP JUMPDEST SWAP1 POP DUP2 DUP2 SUB PUSH1 0x80 DUP4 ADD MSTORE PUSH2 0x73E DUP2 DUP11 PUSH2 0x69A JUMP JUMPDEST SWAP1 POP DUP2 DUP2 SUB PUSH1 0xA0 DUP4 ADD MSTORE PUSH2 0x752 DUP2 DUP10 PUSH2 0x69A JUMP JUMPDEST SWAP1 POP DUP2 DUP2 SUB PUSH1 0xC0 DUP4 ADD MSTORE PUSH2 0x766 DUP2 DUP9 PUSH2 0x69A JUMP JUMPDEST SWAP1 POP DUP2 DUP2 SUB PUSH1 0xE0 DUP4 ADD MSTORE PUSH2 0x77A DUP2 DUP8 PUSH2 0x69A JUMP JUMPDEST SWAP1 POP DUP2 DUP2 SUB PUSH2 0x100 DUP4 ADD MSTORE PUSH2 0x78F DUP2 DUP7 PUSH2 0x69A JUMP JUMPDEST SWAP1 POP DUP2 DUP2 SUB PUSH2 0x120 DUP4 ADD MSTORE PUSH2 0x7A4 DUP2 DUP6 PUSH2 0x69A JUMP JUMPDEST SWAP1 POP PUSH2 0x7B4 PUSH2 0x140 DUP4 ADD DUP5 PUSH2 0x68B JUMP JUMPDEST SWAP13 SWAP12 POP POP POP POP POP POP POP POP POP POP POP POP JUMP JUMPDEST PUSH1 0x0 DUP2 MLOAD SWAP1 POP SWAP2 SWAP1 POP JUMP JUMPDEST PUSH1 0x0 DUP3 DUP3 MSTORE PUSH1 0x20 DUP3 ADD SWAP1 POP SWAP3 SWAP2 POP POP JUMP JUMPDEST PUSH1 0x0 DUP2 ISZERO ISZERO SWAP1 POP SWAP2 SWAP1 POP JUMP JUMPDEST PUSH1 0x0 JUMPDEST DUP4 DUP2 LT ISZERO PUSH2 0x80A JUMPI DUP1 DUP3 ADD MLOAD DUP2 DUP5 ADD MSTORE PUSH1 0x20 DUP2 ADD SWAP1 POP PUSH2 0x7EF JUMP JUMPDEST DUP4 DUP2 GT ISZERO PUSH2 0x819 JUMPI PUSH1 0x0 DUP5 DUP5 ADD MSTORE JUMPDEST POP POP POP POP JUMP JUMPDEST PUSH1 0x0 PUSH1 0x2 DUP3 DIV SWAP1 POP PUSH1 0x1 DUP3 AND DUP1 PUSH2 0x837 JUMPI PUSH1 0x7F DUP3 AND SWAP2 POP JUMPDEST PUSH1 0x20 DUP3 LT DUP2 EQ ISZERO PUSH2 0x84B JUMPI PUSH2 0x84A PUSH2 0x851 JUMP JUMPDEST JUMPDEST POP SWAP2 SWAP1 POP JUMP JUMPDEST PUSH32 0x4E487B7100000000000000000000000000000000000000000000000000000000 PUSH1 0x0 MSTORE PUSH1 0x22 PUSH1 0x4 MSTORE PUSH1 0x24 PUSH1 0x0 REVERT JUMPDEST PUSH1 0x0 PUSH1 0x1F NOT PUSH1 0x1F DUP4 ADD AND SWAP1 POP SWAP2 SWAP1 POP JUMP INVALID LOG2 PUSH5 0x6970667358 0x22 SLT KECCAK256 MULMOD 0x27 0xD2 0x5F 0xC3 0xA9 DUP5 PUSH8 0xED5637ADEE4B108 0xC BYTE BALANCE 0xCA EXTCODEHASH 0xD9 PUSH1 0x2 SLOAD 0xC 0xF9 STATICCALL AND MULMOD PUSH4 0x3364736F PUSH13 0x63430008060033000000000000 "
				},
				"gasEstimates": {
					"creation": {
						"codeDepositCost": "449400",
						"executionCost": "infinite",
						"totalCost": "infinite"
					},
					"external": {
						"getData()": "infinite",
						"personIsGuilty()": "24433",
						"personIsNotGuilty()": "24389"
					}
				},
				"methodIdentifiers": {
					"getData()": "3bc5de30",
					"personIsGuilty()": "9bb2ed94",
					"personIsNotGuilty()": "11ba2f2f"
				}
			},
			"storageLayout": {
				"storage": [
					{
						"astId": 62,
						"contract": "ethereum/contracts/charge_sheet.sol:ChargeSheet",
						"label": "name",
						"offset": 0,
						"slot": "0",
						"type": "t_string_storage"
					},
					{
						"astId": 64,
						"contract": "ethereum/contracts/charge_sheet.sol:ChargeSheet",
						"label": "cid",
						"offset": 0,
						"slot": "1",
						"type": "t_string_storage"
					},
					{
						"astId": 66,
						"contract": "ethereum/contracts/charge_sheet.sol:ChargeSheet",
						"label": "dob",
						"offset": 0,
						"slot": "2",
						"type": "t_string_storage"
					},
					{
						"astId": 68,
						"contract": "ethereum/contracts/charge_sheet.sol:ChargeSheet",
						"label": "charge",
						"offset": 0,
						"slot": "3",
						"type": "t_string_storage"
					},
					{
						"astId": 70,
						"contract": "ethereum/contracts/charge_sheet.sol:ChargeSheet",
						"label": "act",
						"offset": 0,
						"slot": "4",
						"type": "t_string_storage"
					},
					{
						"astId": 72,
						"contract": "ethereum/contracts/charge_sheet.sol:ChargeSheet",
						"label": "section",
						"offset": 0,
						"slot": "5",
						"type": "t_string_storage"
					},
					{
						"astId": 74,
						"contract": "ethereum/contracts/charge_sheet.sol:ChargeSheet",
						"label": "court",
						"offset": 0,
						"slot": "6",
						"type": "t_string_storage"
					},
					{
						"astId": 76,
						"contract": "ethereum/contracts/charge_sheet.sol:ChargeSheet",
						"label": "courtAddress",
						"offset": 0,
						"slot": "7",
						"type": "t_string_storage"
					},
					{
						"astId": 78,
						"contract": "ethereum/contracts/charge_sheet.sol:ChargeSheet",
						"label": "dateOfHearing",
						"offset": 0,
						"slot": "8",
						"type": "t_string_storage"
					},
					{
						"astId": 80,
						"contract": "ethereum/contracts/charge_sheet.sol:ChargeSheet",
						"label": "timeOfHearing",
						"offset": 0,
						"slot": "9",
						"type": "t_string_storage"
					},
					{
						"astId": 83,
						"contract": "ethereum/contracts/charge_sheet.sol:ChargeSheet",
						"label": "isGuilty",
						"offset": 0,
						"slot": "10",
						"type": "t_bool"
					}
				],
				"types": {
					"t_bool": {
						"encoding": "inplace",
						"label": "bool",
						"numberOfBytes": "1"
					},
					"t_string_storage": {
						"encoding": "bytes",
						"label": "string",
						"numberOfBytes": "32"
					}
				}
			},
			"userdoc": {
				"kind": "user",
				"methods": {},
				"version": 1
			}
		}
	}
}