{
	"ethereum/contracts/investigation.sol": {
		"CreateInvestigation": {
			"abi": [
				{
					"inputs": [
						{
							"internalType": "address",
							"name": "_FIRAddress",
							"type": "address"
						},
						{
							"internalType": "string",
							"name": "_name",
							"type": "string"
						},
						{
							"internalType": "string",
							"name": "_cid",
							"type": "string"
						},
						{
							"internalType": "string",
							"name": "_badgeNumber",
							"type": "string"
						},
						{
							"internalType": "string",
							"name": "_rank",
							"type": "string"
						}
					],
					"name": "createInvestigation",
					"outputs": [],
					"stateMutability": "nonpayable",
					"type": "function"
				},
				{
					"inputs": [
						{
							"internalType": "uint256",
							"name": "",
							"type": "uint256"
						}
					],
					"name": "deployedContracts",
					"outputs": [
						{
							"internalType": "address",
							"name": "",
							"type": "address"
						}
					],
					"stateMutability": "view",
					"type": "function"
				},
				{
					"inputs": [],
					"name": "getDeployedContracts",
					"outputs": [
						{
							"internalType": "address[]",
							"name": "",
							"type": "address[]"
						}
					],
					"stateMutability": "view",
					"type": "function"
				}
			],
			"devdoc": {
				"kind": "dev",
				"methods": {},
				"version": 1
			},
			"evm": {
				"assembly": "    /* \"ethereum/contracts/investigation.sol\":72:548  contract CreateInvestigation {\r... */\n  mstore(0x40, 0x80)\n  callvalue\n  dup1\n  iszero\n  tag_1\n  jumpi\n  0x00\n  dup1\n  revert\ntag_1:\n  pop\n  dataSize(sub_0)\n  dup1\n  dataOffset(sub_0)\n  0x00\n  codecopy\n  0x00\n  return\nstop\n\nsub_0: assembly {\n        /* \"ethereum/contracts/investigation.sol\":72:548  contract CreateInvestigation {\r... */\n      mstore(0x40, 0x80)\n      callvalue\n      dup1\n      iszero\n      tag_1\n      jumpi\n      0x00\n      dup1\n      revert\n    tag_1:\n      pop\n      jumpi(tag_2, lt(calldatasize, 0x04))\n      shr(0xe0, calldataload(0x00))\n      dup1\n      0x54e0b217\n      eq\n      tag_3\n      jumpi\n      dup1\n      0x9ad1ee10\n      eq\n      tag_4\n      jumpi\n      dup1\n      0xaa9a068f\n      eq\n      tag_5\n      jumpi\n    tag_2:\n      0x00\n      dup1\n      revert\n        /* \"ethereum/contracts/investigation.sol\":151:416  function createInvestigation(address _FIRAddress, string memory _name, string memory _cid, string memory _badgeNumber, string memory _rank) public {\r... */\n    tag_3:\n      tag_6\n      0x04\n      dup1\n      calldatasize\n      sub\n      dup2\n      add\n      swap1\n      tag_7\n      swap2\n      swap1\n      tag_8\n      jump\t// in\n    tag_7:\n      tag_9\n      jump\t// in\n    tag_6:\n      stop\n        /* \"ethereum/contracts/investigation.sol\":108:142  address[] public deployedContracts */\n    tag_4:\n      tag_10\n      0x04\n      dup1\n      calldatasize\n      sub\n      dup2\n      add\n      swap1\n      tag_11\n      swap2\n      swap1\n      tag_12\n      jump\t// in\n    tag_11:\n      tag_13\n      jump\t// in\n    tag_10:\n      mload(0x40)\n      tag_14\n      swap2\n      swap1\n      tag_15\n      jump\t// in\n    tag_14:\n      mload(0x40)\n      dup1\n      swap2\n      sub\n      swap1\n      return\n        /* \"ethereum/contracts/investigation.sol\":429:543  function getDeployedContracts() public view returns (address[] memory) {\r... */\n    tag_5:\n      tag_16\n      tag_17\n      jump\t// in\n    tag_16:\n      mload(0x40)\n      tag_18\n      swap2\n      swap1\n      tag_19\n      jump\t// in\n    tag_18:\n      mload(0x40)\n      dup1\n      swap2\n      sub\n      swap1\n      return\n        /* \"ethereum/contracts/investigation.sol\":151:416  function createInvestigation(address _FIRAddress, string memory _name, string memory _cid, string memory _badgeNumber, string memory _rank) public {\r... */\n    tag_9:\n        /* \"ethereum/contracts/investigation.sol\":309:326  deployedContracts */\n      0x00\n        /* \"ethereum/contracts/investigation.sol\":359:370  _FIRAddress */\n      dup6\n        /* \"ethereum/contracts/investigation.sol\":372:377  _name */\n      dup6\n        /* \"ethereum/contracts/investigation.sol\":379:383  _cid */\n      dup6\n        /* \"ethereum/contracts/investigation.sol\":385:397  _badgeNumber */\n      dup6\n        /* \"ethereum/contracts/investigation.sol\":399:404  _rank */\n      dup6\n        /* \"ethereum/contracts/investigation.sol\":341:405  new Investigation(_FIRAddress, _name, _cid, _badgeNumber, _rank) */\n      mload(0x40)\n      tag_21\n      swap1\n      tag_22\n      jump\t// in\n    tag_21:\n      tag_23\n      swap6\n      swap5\n      swap4\n      swap3\n      swap2\n      swap1\n      tag_24\n      jump\t// in\n    tag_23:\n      mload(0x40)\n      dup1\n      swap2\n      sub\n      swap1\n      0x00\n      create\n      dup1\n      iszero\n      dup1\n      iszero\n      tag_25\n      jumpi\n      returndatasize\n      0x00\n      dup1\n      returndatacopy\n      revert(0x00, returndatasize)\n    tag_25:\n      pop\n        /* \"ethereum/contracts/investigation.sol\":309:408  deployedContracts.push( address(new Investigation(_FIRAddress, _name, _cid, _badgeNumber, _rank)) ) */\n      swap1\n      dup1\n      0x01\n      dup2\n      sload\n      add\n      dup1\n      dup3\n      sstore\n      dup1\n      swap2\n      pop\n      pop\n      0x01\n      swap1\n      sub\n      swap1\n      0x00\n      mstore\n      keccak256(0x00, 0x20)\n      add\n      0x00\n      swap1\n      swap2\n      swap1\n      swap2\n      swap1\n      swap2\n      0x0100\n      exp\n      dup2\n      sload\n      dup2\n      0xffffffffffffffffffffffffffffffffffffffff\n      mul\n      not\n      and\n      swap1\n      dup4\n      0xffffffffffffffffffffffffffffffffffffffff\n      and\n      mul\n      or\n      swap1\n      sstore\n      pop\n        /* \"ethereum/contracts/investigation.sol\":151:416  function createInvestigation(address _FIRAddress, string memory _name, string memory _cid, string memory _badgeNumber, string memory _rank) public {\r... */\n      pop\n      pop\n      pop\n      pop\n      pop\n      jump\t// out\n        /* \"ethereum/contracts/investigation.sol\":108:142  address[] public deployedContracts */\n    tag_13:\n      0x00\n      dup2\n      dup2\n      sload\n      dup2\n      lt\n      tag_27\n      jumpi\n      0x00\n      dup1\n      revert\n    tag_27:\n      swap1\n      0x00\n      mstore\n      keccak256(0x00, 0x20)\n      add\n      0x00\n      swap2\n      pop\n      sload\n      swap1\n      0x0100\n      exp\n      swap1\n      div\n      0xffffffffffffffffffffffffffffffffffffffff\n      and\n      dup2\n      jump\t// out\n        /* \"ethereum/contracts/investigation.sol\":429:543  function getDeployedContracts() public view returns (address[] memory) {\r... */\n    tag_17:\n        /* \"ethereum/contracts/investigation.sol\":482:498  address[] memory */\n      0x60\n        /* \"ethereum/contracts/investigation.sol\":518:535  deployedContracts */\n      0x00\n        /* \"ethereum/contracts/investigation.sol\":511:535  return deployedContracts */\n      dup1\n      sload\n      dup1\n      0x20\n      mul\n      0x20\n      add\n      mload(0x40)\n      swap1\n      dup2\n      add\n      0x40\n      mstore\n      dup1\n      swap3\n      swap2\n      swap1\n      dup2\n      dup2\n      mstore\n      0x20\n      add\n      dup3\n      dup1\n      sload\n      dup1\n      iszero\n      tag_30\n      jumpi\n      0x20\n      mul\n      dup3\n      add\n      swap2\n      swap1\n      0x00\n      mstore\n      keccak256(0x00, 0x20)\n      swap1\n    tag_31:\n      dup2\n      0x00\n      swap1\n      sload\n      swap1\n      0x0100\n      exp\n      swap1\n      div\n      0xffffffffffffffffffffffffffffffffffffffff\n      and\n      0xffffffffffffffffffffffffffffffffffffffff\n      and\n      dup2\n      mstore\n      0x20\n      add\n      swap1\n      0x01\n      add\n      swap1\n      dup1\n      dup4\n      gt\n      tag_31\n      jumpi\n    tag_30:\n      pop\n      pop\n      pop\n      pop\n      pop\n      swap1\n      pop\n        /* \"ethereum/contracts/investigation.sol\":429:543  function getDeployedContracts() public view returns (address[] memory) {\r... */\n      swap1\n      jump\t// out\n    tag_22:\n      dataSize(sub_0)\n      dup1\n      dataOffset(sub_0)\n      dup4\n      codecopy\n      add\n      swap1\n      jump\t// out\n        /* \"#utility.yul\":7:419   */\n    tag_33:\n        /* \"#utility.yul\":85:90   */\n      0x00\n        /* \"#utility.yul\":110:176   */\n      tag_35\n        /* \"#utility.yul\":126:175   */\n      tag_36\n        /* \"#utility.yul\":168:174   */\n      dup5\n        /* \"#utility.yul\":126:175   */\n      tag_37\n      jump\t// in\n    tag_36:\n        /* \"#utility.yul\":110:176   */\n      tag_38\n      jump\t// in\n    tag_35:\n        /* \"#utility.yul\":101:176   */\n      swap1\n      pop\n        /* \"#utility.yul\":199:205   */\n      dup3\n        /* \"#utility.yul\":192:197   */\n      dup2\n        /* \"#utility.yul\":185:206   */\n      mstore\n        /* \"#utility.yul\":237:241   */\n      0x20\n        /* \"#utility.yul\":230:235   */\n      dup2\n        /* \"#utility.yul\":226:242   */\n      add\n        /* \"#utility.yul\":275:278   */\n      dup5\n        /* \"#utility.yul\":266:272   */\n      dup5\n        /* \"#utility.yul\":261:264   */\n      dup5\n        /* \"#utility.yul\":257:273   */\n      add\n        /* \"#utility.yul\":254:279   */\n      gt\n        /* \"#utility.yul\":251:253   */\n      iszero\n      tag_39\n      jumpi\n        /* \"#utility.yul\":282:361   */\n      tag_40\n      tag_41\n      jump\t// in\n    tag_40:\n        /* \"#utility.yul\":251:253   */\n    tag_39:\n        /* \"#utility.yul\":372:413   */\n      tag_42\n        /* \"#utility.yul\":406:412   */\n      dup5\n        /* \"#utility.yul\":401:404   */\n      dup3\n        /* \"#utility.yul\":396:399   */\n      dup6\n        /* \"#utility.yul\":372:413   */\n      tag_43\n      jump\t// in\n    tag_42:\n        /* \"#utility.yul\":91:419   */\n      pop\n      swap4\n      swap3\n      pop\n      pop\n      pop\n      jump\t// out\n        /* \"#utility.yul\":425:564   */\n    tag_44:\n        /* \"#utility.yul\":471:476   */\n      0x00\n        /* \"#utility.yul\":509:515   */\n      dup2\n        /* \"#utility.yul\":496:516   */\n      calldataload\n        /* \"#utility.yul\":487:516   */\n      swap1\n      pop\n        /* \"#utility.yul\":525:558   */\n      tag_46\n        /* \"#utility.yul\":552:557   */\n      dup2\n        /* \"#utility.yul\":525:558   */\n      tag_47\n      jump\t// in\n    tag_46:\n        /* \"#utility.yul\":477:564   */\n      swap3\n      swap2\n      pop\n      pop\n      jump\t// out\n        /* \"#utility.yul\":584:924   */\n    tag_48:\n        /* \"#utility.yul\":640:645   */\n      0x00\n        /* \"#utility.yul\":689:692   */\n      dup3\n        /* \"#utility.yul\":682:686   */\n      0x1f\n        /* \"#utility.yul\":674:680   */\n      dup4\n        /* \"#utility.yul\":670:687   */\n      add\n        /* \"#utility.yul\":666:693   */\n      slt\n        /* \"#utility.yul\":656:658   */\n      tag_50\n      jumpi\n        /* \"#utility.yul\":697:776   */\n      tag_51\n      tag_52\n      jump\t// in\n    tag_51:\n        /* \"#utility.yul\":656:658   */\n    tag_50:\n        /* \"#utility.yul\":814:820   */\n      dup2\n        /* \"#utility.yul\":801:821   */\n      calldataload\n        /* \"#utility.yul\":839:918   */\n      tag_53\n        /* \"#utility.yul\":914:917   */\n      dup5\n        /* \"#utility.yul\":906:912   */\n      dup3\n        /* \"#utility.yul\":899:903   */\n      0x20\n        /* \"#utility.yul\":891:897   */\n      dup7\n        /* \"#utility.yul\":887:904   */\n      add\n        /* \"#utility.yul\":839:918   */\n      tag_33\n      jump\t// in\n    tag_53:\n        /* \"#utility.yul\":830:918   */\n      swap2\n      pop\n        /* \"#utility.yul\":646:924   */\n      pop\n      swap3\n      swap2\n      pop\n      pop\n      jump\t// out\n        /* \"#utility.yul\":930:1069   */\n    tag_54:\n        /* \"#utility.yul\":976:981   */\n      0x00\n        /* \"#utility.yul\":1014:1020   */\n      dup2\n        /* \"#utility.yul\":1001:1021   */\n      calldataload\n        /* \"#utility.yul\":992:1021   */\n      swap1\n      pop\n        /* \"#utility.yul\":1030:1063   */\n      tag_56\n        /* \"#utility.yul\":1057:1062   */\n      dup2\n        /* \"#utility.yul\":1030:1063   */\n      tag_57\n      jump\t// in\n    tag_56:\n        /* \"#utility.yul\":982:1069   */\n      swap3\n      swap2\n      pop\n      pop\n      jump\t// out\n        /* \"#utility.yul\":1075:2706   */\n    tag_8:\n        /* \"#utility.yul\":1210:1216   */\n      0x00\n        /* \"#utility.yul\":1218:1224   */\n      dup1\n        /* \"#utility.yul\":1226:1232   */\n      0x00\n        /* \"#utility.yul\":1234:1240   */\n      dup1\n        /* \"#utility.yul\":1242:1248   */\n      0x00\n        /* \"#utility.yul\":1291:1294   */\n      0xa0\n        /* \"#utility.yul\":1279:1288   */\n      dup7\n        /* \"#utility.yul\":1270:1277   */\n      dup9\n        /* \"#utility.yul\":1266:1289   */\n      sub\n        /* \"#utility.yul\":1262:1295   */\n      slt\n        /* \"#utility.yul\":1259:1261   */\n      iszero\n      tag_59\n      jumpi\n        /* \"#utility.yul\":1298:1377   */\n      tag_60\n      tag_61\n      jump\t// in\n    tag_60:\n        /* \"#utility.yul\":1259:1261   */\n    tag_59:\n        /* \"#utility.yul\":1418:1419   */\n      0x00\n        /* \"#utility.yul\":1443:1496   */\n      tag_62\n        /* \"#utility.yul\":1488:1495   */\n      dup9\n        /* \"#utility.yul\":1479:1485   */\n      dup3\n        /* \"#utility.yul\":1468:1477   */\n      dup10\n        /* \"#utility.yul\":1464:1486   */\n      add\n        /* \"#utility.yul\":1443:1496   */\n      tag_44\n      jump\t// in\n    tag_62:\n        /* \"#utility.yul\":1433:1496   */\n      swap6\n      pop\n        /* \"#utility.yul\":1389:1506   */\n      pop\n        /* \"#utility.yul\":1573:1575   */\n      0x20\n        /* \"#utility.yul\":1562:1571   */\n      dup7\n        /* \"#utility.yul\":1558:1576   */\n      add\n        /* \"#utility.yul\":1545:1577   */\n      calldataload\n        /* \"#utility.yul\":1604:1622   */\n      0xffffffffffffffff\n        /* \"#utility.yul\":1596:1602   */\n      dup2\n        /* \"#utility.yul\":1593:1623   */\n      gt\n        /* \"#utility.yul\":1590:1592   */\n      iszero\n      tag_63\n      jumpi\n        /* \"#utility.yul\":1626:1705   */\n      tag_64\n      tag_65\n      jump\t// in\n    tag_64:\n        /* \"#utility.yul\":1590:1592   */\n    tag_63:\n        /* \"#utility.yul\":1731:1794   */\n      tag_66\n        /* \"#utility.yul\":1786:1793   */\n      dup9\n        /* \"#utility.yul\":1777:1783   */\n      dup3\n        /* \"#utility.yul\":1766:1775   */\n      dup10\n        /* \"#utility.yul\":1762:1784   */\n      add\n        /* \"#utility.yul\":1731:1794   */\n      tag_48\n      jump\t// in\n    tag_66:\n        /* \"#utility.yul\":1721:1794   */\n      swap5\n      pop\n        /* \"#utility.yul\":1516:1804   */\n      pop\n        /* \"#utility.yul\":1871:1873   */\n      0x40\n        /* \"#utility.yul\":1860:1869   */\n      dup7\n        /* \"#utility.yul\":1856:1874   */\n      add\n        /* \"#utility.yul\":1843:1875   */\n      calldataload\n        /* \"#utility.yul\":1902:1920   */\n      0xffffffffffffffff\n        /* \"#utility.yul\":1894:1900   */\n      dup2\n        /* \"#utility.yul\":1891:1921   */\n      gt\n        /* \"#utility.yul\":1888:1890   */\n      iszero\n      tag_67\n      jumpi\n        /* \"#utility.yul\":1924:2003   */\n      tag_68\n      tag_65\n      jump\t// in\n    tag_68:\n        /* \"#utility.yul\":1888:1890   */\n    tag_67:\n        /* \"#utility.yul\":2029:2092   */\n      tag_69\n        /* \"#utility.yul\":2084:2091   */\n      dup9\n        /* \"#utility.yul\":2075:2081   */\n      dup3\n        /* \"#utility.yul\":2064:2073   */\n      dup10\n        /* \"#utility.yul\":2060:2082   */\n      add\n        /* \"#utility.yul\":2029:2092   */\n      tag_48\n      jump\t// in\n    tag_69:\n        /* \"#utility.yul\":2019:2092   */\n      swap4\n      pop\n        /* \"#utility.yul\":1814:2102   */\n      pop\n        /* \"#utility.yul\":2169:2171   */\n      0x60\n        /* \"#utility.yul\":2158:2167   */\n      dup7\n        /* \"#utility.yul\":2154:2172   */\n      add\n        /* \"#utility.yul\":2141:2173   */\n      calldataload\n        /* \"#utility.yul\":2200:2218   */\n      0xffffffffffffffff\n        /* \"#utility.yul\":2192:2198   */\n      dup2\n        /* \"#utility.yul\":2189:2219   */\n      gt\n        /* \"#utility.yul\":2186:2188   */\n      iszero\n      tag_70\n      jumpi\n        /* \"#utility.yul\":2222:2301   */\n      tag_71\n      tag_65\n      jump\t// in\n    tag_71:\n        /* \"#utility.yul\":2186:2188   */\n    tag_70:\n        /* \"#utility.yul\":2327:2390   */\n      tag_72\n        /* \"#utility.yul\":2382:2389   */\n      dup9\n        /* \"#utility.yul\":2373:2379   */\n      dup3\n        /* \"#utility.yul\":2362:2371   */\n      dup10\n        /* \"#utility.yul\":2358:2380   */\n      add\n        /* \"#utility.yul\":2327:2390   */\n      tag_48\n      jump\t// in\n    tag_72:\n        /* \"#utility.yul\":2317:2390   */\n      swap3\n      pop\n        /* \"#utility.yul\":2112:2400   */\n      pop\n        /* \"#utility.yul\":2467:2470   */\n      0x80\n        /* \"#utility.yul\":2456:2465   */\n      dup7\n        /* \"#utility.yul\":2452:2471   */\n      add\n        /* \"#utility.yul\":2439:2472   */\n      calldataload\n        /* \"#utility.yul\":2499:2517   */\n      0xffffffffffffffff\n        /* \"#utility.yul\":2491:2497   */\n      dup2\n        /* \"#utility.yul\":2488:2518   */\n      gt\n        /* \"#utility.yul\":2485:2487   */\n      iszero\n      tag_73\n      jumpi\n        /* \"#utility.yul\":2521:2600   */\n      tag_74\n      tag_65\n      jump\t// in\n    tag_74:\n        /* \"#utility.yul\":2485:2487   */\n    tag_73:\n        /* \"#utility.yul\":2626:2689   */\n      tag_75\n        /* \"#utility.yul\":2681:2688   */\n      dup9\n        /* \"#utility.yul\":2672:2678   */\n      dup3\n        /* \"#utility.yul\":2661:2670   */\n      dup10\n        /* \"#utility.yul\":2657:2679   */\n      add\n        /* \"#utility.yul\":2626:2689   */\n      tag_48\n      jump\t// in\n    tag_75:\n        /* \"#utility.yul\":2616:2689   */\n      swap2\n      pop\n        /* \"#utility.yul\":2410:2699   */\n      pop\n        /* \"#utility.yul\":1249:2706   */\n      swap3\n      swap6\n      pop\n      swap3\n      swap6\n      swap1\n      swap4\n      pop\n      jump\t// out\n        /* \"#utility.yul\":2712:3041   */\n    tag_12:\n        /* \"#utility.yul\":2771:2777   */\n      0x00\n        /* \"#utility.yul\":2820:2822   */\n      0x20\n        /* \"#utility.yul\":2808:2817   */\n      dup3\n        /* \"#utility.yul\":2799:2806   */\n      dup5\n        /* \"#utility.yul\":2795:2818   */\n      sub\n        /* \"#utility.yul\":2791:2823   */\n      slt\n        /* \"#utility.yul\":2788:2790   */\n      iszero\n      tag_77\n      jumpi\n        /* \"#utility.yul\":2826:2905   */\n      tag_78\n      tag_61\n      jump\t// in\n    tag_78:\n        /* \"#utility.yul\":2788:2790   */\n    tag_77:\n        /* \"#utility.yul\":2946:2947   */\n      0x00\n        /* \"#utility.yul\":2971:3024   */\n      tag_79\n        /* \"#utility.yul\":3016:3023   */\n      dup5\n        /* \"#utility.yul\":3007:3013   */\n      dup3\n        /* \"#utility.yul\":2996:3005   */\n      dup6\n        /* \"#utility.yul\":2992:3014   */\n      add\n        /* \"#utility.yul\":2971:3024   */\n      tag_54\n      jump\t// in\n    tag_79:\n        /* \"#utility.yul\":2961:3024   */\n      swap2\n      pop\n        /* \"#utility.yul\":2917:3034   */\n      pop\n        /* \"#utility.yul\":2778:3041   */\n      swap3\n      swap2\n      pop\n      pop\n      jump\t// out\n        /* \"#utility.yul\":3047:3226   */\n    tag_80:\n        /* \"#utility.yul\":3116:3126   */\n      0x00\n        /* \"#utility.yul\":3137:3183   */\n      tag_82\n        /* \"#utility.yul\":3179:3182   */\n      dup4\n        /* \"#utility.yul\":3171:3177   */\n      dup4\n        /* \"#utility.yul\":3137:3183   */\n      tag_83\n      jump\t// in\n    tag_82:\n        /* \"#utility.yul\":3215:3219   */\n      0x20\n        /* \"#utility.yul\":3210:3213   */\n      dup4\n        /* \"#utility.yul\":3206:3220   */\n      add\n        /* \"#utility.yul\":3192:3220   */\n      swap1\n      pop\n        /* \"#utility.yul\":3127:3226   */\n      swap3\n      swap2\n      pop\n      pop\n      jump\t// out\n        /* \"#utility.yul\":3232:3340   */\n    tag_83:\n        /* \"#utility.yul\":3309:3333   */\n      tag_85\n        /* \"#utility.yul\":3327:3332   */\n      dup2\n        /* \"#utility.yul\":3309:3333   */\n      tag_86\n      jump\t// in\n    tag_85:\n        /* \"#utility.yul\":3304:3307   */\n      dup3\n        /* \"#utility.yul\":3297:3334   */\n      mstore\n        /* \"#utility.yul\":3287:3340   */\n      pop\n      pop\n      jump\t// out\n        /* \"#utility.yul\":3346:3464   */\n    tag_87:\n        /* \"#utility.yul\":3433:3457   */\n      tag_89\n        /* \"#utility.yul\":3451:3456   */\n      dup2\n        /* \"#utility.yul\":3433:3457   */\n      tag_86\n      jump\t// in\n    tag_89:\n        /* \"#utility.yul\":3428:3431   */\n      dup3\n        /* \"#utility.yul\":3421:3458   */\n      mstore\n        /* \"#utility.yul\":3411:3464   */\n      pop\n      pop\n      jump\t// out\n        /* \"#utility.yul\":3500:4232   */\n    tag_90:\n        /* \"#utility.yul\":3619:3622   */\n      0x00\n        /* \"#utility.yul\":3648:3702   */\n      tag_92\n        /* \"#utility.yul\":3696:3701   */\n      dup3\n        /* \"#utility.yul\":3648:3702   */\n      tag_93\n      jump\t// in\n    tag_92:\n        /* \"#utility.yul\":3718:3804   */\n      tag_94\n        /* \"#utility.yul\":3797:3803   */\n      dup2\n        /* \"#utility.yul\":3792:3795   */\n      dup6\n        /* \"#utility.yul\":3718:3804   */\n      tag_95\n      jump\t// in\n    tag_94:\n        /* \"#utility.yul\":3711:3804   */\n      swap4\n      pop\n        /* \"#utility.yul\":3828:3884   */\n      tag_96\n        /* \"#utility.yul\":3878:3883   */\n      dup4\n        /* \"#utility.yul\":3828:3884   */\n      tag_97\n      jump\t// in\n    tag_96:\n        /* \"#utility.yul\":3907:3914   */\n      dup1\n        /* \"#utility.yul\":3938:3939   */\n      0x00\n        /* \"#utility.yul\":3923:4207   */\n    tag_98:\n        /* \"#utility.yul\":3948:3954   */\n      dup4\n        /* \"#utility.yul\":3945:3946   */\n      dup2\n        /* \"#utility.yul\":3942:3955   */\n      lt\n        /* \"#utility.yul\":3923:4207   */\n      iszero\n      tag_100\n      jumpi\n        /* \"#utility.yul\":4024:4030   */\n      dup2\n        /* \"#utility.yul\":4018:4031   */\n      mload\n        /* \"#utility.yul\":4051:4114   */\n      tag_101\n        /* \"#utility.yul\":4110:4113   */\n      dup9\n        /* \"#utility.yul\":4095:4108   */\n      dup3\n        /* \"#utility.yul\":4051:4114   */\n      tag_80\n      jump\t// in\n    tag_101:\n        /* \"#utility.yul\":4044:4114   */\n      swap8\n      pop\n        /* \"#utility.yul\":4137:4197   */\n      tag_102\n        /* \"#utility.yul\":4190:4196   */\n      dup4\n        /* \"#utility.yul\":4137:4197   */\n      tag_103\n      jump\t// in\n    tag_102:\n        /* \"#utility.yul\":4127:4197   */\n      swap3\n      pop\n        /* \"#utility.yul\":3983:4207   */\n      pop\n        /* \"#utility.yul\":3970:3971   */\n      0x01\n        /* \"#utility.yul\":3967:3968   */\n      dup2\n        /* \"#utility.yul\":3963:3972   */\n      add\n        /* \"#utility.yul\":3958:3972   */\n      swap1\n      pop\n        /* \"#utility.yul\":3923:4207   */\n      jump(tag_98)\n    tag_100:\n        /* \"#utility.yul\":3927:3941   */\n      pop\n        /* \"#utility.yul\":4223:4226   */\n      dup6\n        /* \"#utility.yul\":4216:4226   */\n      swap4\n      pop\n        /* \"#utility.yul\":3624:4232   */\n      pop\n      pop\n      pop\n      swap3\n      swap2\n      pop\n      pop\n      jump\t// out\n        /* \"#utility.yul\":4238:4602   */\n    tag_104:\n        /* \"#utility.yul\":4326:4329   */\n      0x00\n        /* \"#utility.yul\":4354:4393   */\n      tag_106\n        /* \"#utility.yul\":4387:4392   */\n      dup3\n        /* \"#utility.yul\":4354:4393   */\n      tag_107\n      jump\t// in\n    tag_106:\n        /* \"#utility.yul\":4409:4480   */\n      tag_108\n        /* \"#utility.yul\":4473:4479   */\n      dup2\n        /* \"#utility.yul\":4468:4471   */\n      dup6\n        /* \"#utility.yul\":4409:4480   */\n      tag_109\n      jump\t// in\n    tag_108:\n        /* \"#utility.yul\":4402:4480   */\n      swap4\n      pop\n        /* \"#utility.yul\":4489:4541   */\n      tag_110\n        /* \"#utility.yul\":4534:4540   */\n      dup2\n        /* \"#utility.yul\":4529:4532   */\n      dup6\n        /* \"#utility.yul\":4522:4526   */\n      0x20\n        /* \"#utility.yul\":4515:4520   */\n      dup7\n        /* \"#utility.yul\":4511:4527   */\n      add\n        /* \"#utility.yul\":4489:4541   */\n      tag_111\n      jump\t// in\n    tag_110:\n        /* \"#utility.yul\":4566:4595   */\n      tag_112\n        /* \"#utility.yul\":4588:4594   */\n      dup2\n        /* \"#utility.yul\":4566:4595   */\n      tag_113\n      jump\t// in\n    tag_112:\n        /* \"#utility.yul\":4561:4564   */\n      dup5\n        /* \"#utility.yul\":4557:4596   */\n      add\n        /* \"#utility.yul\":4550:4596   */\n      swap2\n      pop\n        /* \"#utility.yul\":4330:4602   */\n      pop\n      swap3\n      swap2\n      pop\n      pop\n      jump\t// out\n        /* \"#utility.yul\":4608:4830   */\n    tag_15:\n        /* \"#utility.yul\":4701:4705   */\n      0x00\n        /* \"#utility.yul\":4739:4741   */\n      0x20\n        /* \"#utility.yul\":4728:4737   */\n      dup3\n        /* \"#utility.yul\":4724:4742   */\n      add\n        /* \"#utility.yul\":4716:4742   */\n      swap1\n      pop\n        /* \"#utility.yul\":4752:4823   */\n      tag_115\n        /* \"#utility.yul\":4820:4821   */\n      0x00\n        /* \"#utility.yul\":4809:4818   */\n      dup4\n        /* \"#utility.yul\":4805:4822   */\n      add\n        /* \"#utility.yul\":4796:4802   */\n      dup5\n        /* \"#utility.yul\":4752:4823   */\n      tag_87\n      jump\t// in\n    tag_115:\n        /* \"#utility.yul\":4706:4830   */\n      swap3\n      swap2\n      pop\n      pop\n      jump\t// out\n        /* \"#utility.yul\":4836:5864   */\n    tag_24:\n        /* \"#utility.yul\":5121:5125   */\n      0x00\n        /* \"#utility.yul\":5159:5162   */\n      0xa0\n        /* \"#utility.yul\":5148:5157   */\n      dup3\n        /* \"#utility.yul\":5144:5163   */\n      add\n        /* \"#utility.yul\":5136:5163   */\n      swap1\n      pop\n        /* \"#utility.yul\":5173:5244   */\n      tag_117\n        /* \"#utility.yul\":5241:5242   */\n      0x00\n        /* \"#utility.yul\":5230:5239   */\n      dup4\n        /* \"#utility.yul\":5226:5243   */\n      add\n        /* \"#utility.yul\":5217:5223   */\n      dup9\n        /* \"#utility.yul\":5173:5244   */\n      tag_87\n      jump\t// in\n    tag_117:\n        /* \"#utility.yul\":5291:5300   */\n      dup2\n        /* \"#utility.yul\":5285:5289   */\n      dup2\n        /* \"#utility.yul\":5281:5301   */\n      sub\n        /* \"#utility.yul\":5276:5278   */\n      0x20\n        /* \"#utility.yul\":5265:5274   */\n      dup4\n        /* \"#utility.yul\":5261:5279   */\n      add\n        /* \"#utility.yul\":5254:5302   */\n      mstore\n        /* \"#utility.yul\":5319:5397   */\n      tag_118\n        /* \"#utility.yul\":5392:5396   */\n      dup2\n        /* \"#utility.yul\":5383:5389   */\n      dup8\n        /* \"#utility.yul\":5319:5397   */\n      tag_104\n      jump\t// in\n    tag_118:\n        /* \"#utility.yul\":5311:5397   */\n      swap1\n      pop\n        /* \"#utility.yul\":5444:5453   */\n      dup2\n        /* \"#utility.yul\":5438:5442   */\n      dup2\n        /* \"#utility.yul\":5434:5454   */\n      sub\n        /* \"#utility.yul\":5429:5431   */\n      0x40\n        /* \"#utility.yul\":5418:5427   */\n      dup4\n        /* \"#utility.yul\":5414:5432   */\n      add\n        /* \"#utility.yul\":5407:5455   */\n      mstore\n        /* \"#utility.yul\":5472:5550   */\n      tag_119\n        /* \"#utility.yul\":5545:5549   */\n      dup2\n        /* \"#utility.yul\":5536:5542   */\n      dup7\n        /* \"#utility.yul\":5472:5550   */\n      tag_104\n      jump\t// in\n    tag_119:\n        /* \"#utility.yul\":5464:5550   */\n      swap1\n      pop\n        /* \"#utility.yul\":5597:5606   */\n      dup2\n        /* \"#utility.yul\":5591:5595   */\n      dup2\n        /* \"#utility.yul\":5587:5607   */\n      sub\n        /* \"#utility.yul\":5582:5584   */\n      0x60\n        /* \"#utility.yul\":5571:5580   */\n      dup4\n        /* \"#utility.yul\":5567:5585   */\n      add\n        /* \"#utility.yul\":5560:5608   */\n      mstore\n        /* \"#utility.yul\":5625:5703   */\n      tag_120\n        /* \"#utility.yul\":5698:5702   */\n      dup2\n        /* \"#utility.yul\":5689:5695   */\n      dup6\n        /* \"#utility.yul\":5625:5703   */\n      tag_104\n      jump\t// in\n    tag_120:\n        /* \"#utility.yul\":5617:5703   */\n      swap1\n      pop\n        /* \"#utility.yul\":5751:5760   */\n      dup2\n        /* \"#utility.yul\":5745:5749   */\n      dup2\n        /* \"#utility.yul\":5741:5761   */\n      sub\n        /* \"#utility.yul\":5735:5738   */\n      0x80\n        /* \"#utility.yul\":5724:5733   */\n      dup4\n        /* \"#utility.yul\":5720:5739   */\n      add\n        /* \"#utility.yul\":5713:5762   */\n      mstore\n        /* \"#utility.yul\":5779:5857   */\n      tag_121\n        /* \"#utility.yul\":5852:5856   */\n      dup2\n        /* \"#utility.yul\":5843:5849   */\n      dup5\n        /* \"#utility.yul\":5779:5857   */\n      tag_104\n      jump\t// in\n    tag_121:\n        /* \"#utility.yul\":5771:5857   */\n      swap1\n      pop\n        /* \"#utility.yul\":5126:5864   */\n      swap7\n      swap6\n      pop\n      pop\n      pop\n      pop\n      pop\n      pop\n      jump\t// out\n        /* \"#utility.yul\":5870:6243   */\n    tag_19:\n        /* \"#utility.yul\":6013:6017   */\n      0x00\n        /* \"#utility.yul\":6051:6053   */\n      0x20\n        /* \"#utility.yul\":6040:6049   */\n      dup3\n        /* \"#utility.yul\":6036:6054   */\n      add\n        /* \"#utility.yul\":6028:6054   */\n      swap1\n      pop\n        /* \"#utility.yul\":6100:6109   */\n      dup2\n        /* \"#utility.yul\":6094:6098   */\n      dup2\n        /* \"#utility.yul\":6090:6110   */\n      sub\n        /* \"#utility.yul\":6086:6087   */\n      0x00\n        /* \"#utility.yul\":6075:6084   */\n      dup4\n        /* \"#utility.yul\":6071:6088   */\n      add\n        /* \"#utility.yul\":6064:6111   */\n      mstore\n        /* \"#utility.yul\":6128:6236   */\n      tag_123\n        /* \"#utility.yul\":6231:6235   */\n      dup2\n        /* \"#utility.yul\":6222:6228   */\n      dup5\n        /* \"#utility.yul\":6128:6236   */\n      tag_90\n      jump\t// in\n    tag_123:\n        /* \"#utility.yul\":6120:6236   */\n      swap1\n      pop\n        /* \"#utility.yul\":6018:6243   */\n      swap3\n      swap2\n      pop\n      pop\n      jump\t// out\n        /* \"#utility.yul\":6249:6378   */\n    tag_38:\n        /* \"#utility.yul\":6283:6289   */\n      0x00\n        /* \"#utility.yul\":6310:6330   */\n      tag_125\n      tag_126\n      jump\t// in\n    tag_125:\n        /* \"#utility.yul\":6300:6330   */\n      swap1\n      pop\n        /* \"#utility.yul\":6339:6372   */\n      tag_127\n        /* \"#utility.yul\":6367:6371   */\n      dup3\n        /* \"#utility.yul\":6359:6365   */\n      dup3\n        /* \"#utility.yul\":6339:6372   */\n      tag_128\n      jump\t// in\n    tag_127:\n        /* \"#utility.yul\":6290:6378   */\n      swap2\n      swap1\n      pop\n      jump\t// out\n        /* \"#utility.yul\":6384:6459   */\n    tag_126:\n        /* \"#utility.yul\":6417:6423   */\n      0x00\n        /* \"#utility.yul\":6450:6452   */\n      0x40\n        /* \"#utility.yul\":6444:6453   */\n      mload\n        /* \"#utility.yul\":6434:6453   */\n      swap1\n      pop\n        /* \"#utility.yul\":6424:6459   */\n      swap1\n      jump\t// out\n        /* \"#utility.yul\":6465:6773   */\n    tag_37:\n        /* \"#utility.yul\":6527:6531   */\n      0x00\n        /* \"#utility.yul\":6617:6635   */\n      0xffffffffffffffff\n        /* \"#utility.yul\":6609:6615   */\n      dup3\n        /* \"#utility.yul\":6606:6636   */\n      gt\n        /* \"#utility.yul\":6603:6605   */\n      iszero\n      tag_131\n      jumpi\n        /* \"#utility.yul\":6639:6657   */\n      tag_132\n      tag_133\n      jump\t// in\n    tag_132:\n        /* \"#utility.yul\":6603:6605   */\n    tag_131:\n        /* \"#utility.yul\":6677:6706   */\n      tag_134\n        /* \"#utility.yul\":6699:6705   */\n      dup3\n        /* \"#utility.yul\":6677:6706   */\n      tag_113\n      jump\t// in\n    tag_134:\n        /* \"#utility.yul\":6669:6706   */\n      swap1\n      pop\n        /* \"#utility.yul\":6761:6765   */\n      0x20\n        /* \"#utility.yul\":6755:6759   */\n      dup2\n        /* \"#utility.yul\":6751:6766   */\n      add\n        /* \"#utility.yul\":6743:6766   */\n      swap1\n      pop\n        /* \"#utility.yul\":6532:6773   */\n      swap2\n      swap1\n      pop\n      jump\t// out\n        /* \"#utility.yul\":6779:6911   */\n    tag_97:\n        /* \"#utility.yul\":6846:6850   */\n      0x00\n        /* \"#utility.yul\":6869:6872   */\n      dup2\n        /* \"#utility.yul\":6861:6872   */\n      swap1\n      pop\n        /* \"#utility.yul\":6899:6903   */\n      0x20\n        /* \"#utility.yul\":6894:6897   */\n      dup3\n        /* \"#utility.yul\":6890:6904   */\n      add\n        /* \"#utility.yul\":6882:6904   */\n      swap1\n      pop\n        /* \"#utility.yul\":6851:6911   */\n      swap2\n      swap1\n      pop\n      jump\t// out\n        /* \"#utility.yul\":6917:7031   */\n    tag_93:\n        /* \"#utility.yul\":6984:6990   */\n      0x00\n        /* \"#utility.yul\":7018:7023   */\n      dup2\n        /* \"#utility.yul\":7012:7024   */\n      mload\n        /* \"#utility.yul\":7002:7024   */\n      swap1\n      pop\n        /* \"#utility.yul\":6991:7031   */\n      swap2\n      swap1\n      pop\n      jump\t// out\n        /* \"#utility.yul\":7037:7136   */\n    tag_107:\n        /* \"#utility.yul\":7089:7095   */\n      0x00\n        /* \"#utility.yul\":7123:7128   */\n      dup2\n        /* \"#utility.yul\":7117:7129   */\n      mload\n        /* \"#utility.yul\":7107:7129   */\n      swap1\n      pop\n        /* \"#utility.yul\":7096:7136   */\n      swap2\n      swap1\n      pop\n      jump\t// out\n        /* \"#utility.yul\":7142:7255   */\n    tag_103:\n        /* \"#utility.yul\":7212:7216   */\n      0x00\n        /* \"#utility.yul\":7244:7248   */\n      0x20\n        /* \"#utility.yul\":7239:7242   */\n      dup3\n        /* \"#utility.yul\":7235:7249   */\n      add\n        /* \"#utility.yul\":7227:7249   */\n      swap1\n      pop\n        /* \"#utility.yul\":7217:7255   */\n      swap2\n      swap1\n      pop\n      jump\t// out\n        /* \"#utility.yul\":7261:7445   */\n    tag_95:\n        /* \"#utility.yul\":7360:7371   */\n      0x00\n        /* \"#utility.yul\":7394:7400   */\n      dup3\n        /* \"#utility.yul\":7389:7392   */\n      dup3\n        /* \"#utility.yul\":7382:7401   */\n      mstore\n        /* \"#utility.yul\":7434:7438   */\n      0x20\n        /* \"#utility.yul\":7429:7432   */\n      dup3\n        /* \"#utility.yul\":7425:7439   */\n      add\n        /* \"#utility.yul\":7410:7439   */\n      swap1\n      pop\n        /* \"#utility.yul\":7372:7445   */\n      swap3\n      swap2\n      pop\n      pop\n      jump\t// out\n        /* \"#utility.yul\":7451:7620   */\n    tag_109:\n        /* \"#utility.yul\":7535:7546   */\n      0x00\n        /* \"#utility.yul\":7569:7575   */\n      dup3\n        /* \"#utility.yul\":7564:7567   */\n      dup3\n        /* \"#utility.yul\":7557:7576   */\n      mstore\n        /* \"#utility.yul\":7609:7613   */\n      0x20\n        /* \"#utility.yul\":7604:7607   */\n      dup3\n        /* \"#utility.yul\":7600:7614   */\n      add\n        /* \"#utility.yul\":7585:7614   */\n      swap1\n      pop\n        /* \"#utility.yul\":7547:7620   */\n      swap3\n      swap2\n      pop\n      pop\n      jump\t// out\n        /* \"#utility.yul\":7626:7722   */\n    tag_86:\n        /* \"#utility.yul\":7663:7670   */\n      0x00\n        /* \"#utility.yul\":7692:7716   */\n      tag_142\n        /* \"#utility.yul\":7710:7715   */\n      dup3\n        /* \"#utility.yul\":7692:7716   */\n      tag_143\n      jump\t// in\n    tag_142:\n        /* \"#utility.yul\":7681:7716   */\n      swap1\n      pop\n        /* \"#utility.yul\":7671:7722   */\n      swap2\n      swap1\n      pop\n      jump\t// out\n        /* \"#utility.yul\":7728:7854   */\n    tag_143:\n        /* \"#utility.yul\":7765:7772   */\n      0x00\n        /* \"#utility.yul\":7805:7847   */\n      0xffffffffffffffffffffffffffffffffffffffff\n        /* \"#utility.yul\":7798:7803   */\n      dup3\n        /* \"#utility.yul\":7794:7848   */\n      and\n        /* \"#utility.yul\":7783:7848   */\n      swap1\n      pop\n        /* \"#utility.yul\":7773:7854   */\n      swap2\n      swap1\n      pop\n      jump\t// out\n        /* \"#utility.yul\":7860:7937   */\n    tag_145:\n        /* \"#utility.yul\":7897:7904   */\n      0x00\n        /* \"#utility.yul\":7926:7931   */\n      dup2\n        /* \"#utility.yul\":7915:7931   */\n      swap1\n      pop\n        /* \"#utility.yul\":7905:7937   */\n      swap2\n      swap1\n      pop\n      jump\t// out\n        /* \"#utility.yul\":7943:8097   */\n    tag_43:\n        /* \"#utility.yul\":8027:8033   */\n      dup3\n        /* \"#utility.yul\":8022:8025   */\n      dup2\n        /* \"#utility.yul\":8017:8020   */\n      dup4\n        /* \"#utility.yul\":8004:8034   */\n      calldatacopy\n        /* \"#utility.yul\":8089:8090   */\n      0x00\n        /* \"#utility.yul\":8080:8086   */\n      dup4\n        /* \"#utility.yul\":8075:8078   */\n      dup4\n        /* \"#utility.yul\":8071:8087   */\n      add\n        /* \"#utility.yul\":8064:8091   */\n      mstore\n        /* \"#utility.yul\":7994:8097   */\n      pop\n      pop\n      pop\n      jump\t// out\n        /* \"#utility.yul\":8103:8410   */\n    tag_111:\n        /* \"#utility.yul\":8171:8172   */\n      0x00\n        /* \"#utility.yul\":8181:8294   */\n    tag_149:\n        /* \"#utility.yul\":8195:8201   */\n      dup4\n        /* \"#utility.yul\":8192:8193   */\n      dup2\n        /* \"#utility.yul\":8189:8202   */\n      lt\n        /* \"#utility.yul\":8181:8294   */\n      iszero\n      tag_151\n      jumpi\n        /* \"#utility.yul\":8280:8281   */\n      dup1\n        /* \"#utility.yul\":8275:8278   */\n      dup3\n        /* \"#utility.yul\":8271:8282   */\n      add\n        /* \"#utility.yul\":8265:8283   */\n      mload\n        /* \"#utility.yul\":8261:8262   */\n      dup2\n        /* \"#utility.yul\":8256:8259   */\n      dup5\n        /* \"#utility.yul\":8252:8263   */\n      add\n        /* \"#utility.yul\":8245:8284   */\n      mstore\n        /* \"#utility.yul\":8217:8219   */\n      0x20\n        /* \"#utility.yul\":8214:8215   */\n      dup2\n        /* \"#utility.yul\":8210:8220   */\n      add\n        /* \"#utility.yul\":8205:8220   */\n      swap1\n      pop\n        /* \"#utility.yul\":8181:8294   */\n      jump(tag_149)\n    tag_151:\n        /* \"#utility.yul\":8312:8318   */\n      dup4\n        /* \"#utility.yul\":8309:8310   */\n      dup2\n        /* \"#utility.yul\":8306:8319   */\n      gt\n        /* \"#utility.yul\":8303:8305   */\n      iszero\n      tag_152\n      jumpi\n        /* \"#utility.yul\":8392:8393   */\n      0x00\n        /* \"#utility.yul\":8383:8389   */\n      dup5\n        /* \"#utility.yul\":8378:8381   */\n      dup5\n        /* \"#utility.yul\":8374:8390   */\n      add\n        /* \"#utility.yul\":8367:8394   */\n      mstore\n        /* \"#utility.yul\":8303:8305   */\n    tag_152:\n        /* \"#utility.yul\":8152:8410   */\n      pop\n      pop\n      pop\n      pop\n      jump\t// out\n        /* \"#utility.yul\":8416:8697   */\n    tag_128:\n        /* \"#utility.yul\":8499:8526   */\n      tag_154\n        /* \"#utility.yul\":8521:8525   */\n      dup3\n        /* \"#utility.yul\":8499:8526   */\n      tag_113\n      jump\t// in\n    tag_154:\n        /* \"#utility.yul\":8491:8497   */\n      dup2\n        /* \"#utility.yul\":8487:8527   */\n      add\n        /* \"#utility.yul\":8629:8635   */\n      dup2\n        /* \"#utility.yul\":8617:8627   */\n      dup2\n        /* \"#utility.yul\":8614:8636   */\n      lt\n        /* \"#utility.yul\":8593:8611   */\n      0xffffffffffffffff\n        /* \"#utility.yul\":8581:8591   */\n      dup3\n        /* \"#utility.yul\":8578:8612   */\n      gt\n        /* \"#utility.yul\":8575:8637   */\n      or\n        /* \"#utility.yul\":8572:8574   */\n      iszero\n      tag_155\n      jumpi\n        /* \"#utility.yul\":8640:8658   */\n      tag_156\n      tag_133\n      jump\t// in\n    tag_156:\n        /* \"#utility.yul\":8572:8574   */\n    tag_155:\n        /* \"#utility.yul\":8680:8690   */\n      dup1\n        /* \"#utility.yul\":8676:8678   */\n      0x40\n        /* \"#utility.yul\":8669:8691   */\n      mstore\n        /* \"#utility.yul\":8459:8697   */\n      pop\n      pop\n      pop\n      jump\t// out\n        /* \"#utility.yul\":8703:8883   */\n    tag_133:\n        /* \"#utility.yul\":8751:8828   */\n      0x4e487b7100000000000000000000000000000000000000000000000000000000\n        /* \"#utility.yul\":8748:8749   */\n      0x00\n        /* \"#utility.yul\":8741:8829   */\n      mstore\n        /* \"#utility.yul\":8848:8852   */\n      0x41\n        /* \"#utility.yul\":8845:8846   */\n      0x04\n        /* \"#utility.yul\":8838:8853   */\n      mstore\n        /* \"#utility.yul\":8872:8876   */\n      0x24\n        /* \"#utility.yul\":8869:8870   */\n      0x00\n        /* \"#utility.yul\":8862:8877   */\n      revert\n        /* \"#utility.yul\":8889:9006   */\n    tag_52:\n        /* \"#utility.yul\":8998:8999   */\n      0x00\n        /* \"#utility.yul\":8995:8996   */\n      dup1\n        /* \"#utility.yul\":8988:9000   */\n      revert\n        /* \"#utility.yul\":9012:9129   */\n    tag_41:\n        /* \"#utility.yul\":9121:9122   */\n      0x00\n        /* \"#utility.yul\":9118:9119   */\n      dup1\n        /* \"#utility.yul\":9111:9123   */\n      revert\n        /* \"#utility.yul\":9135:9252   */\n    tag_65:\n        /* \"#utility.yul\":9244:9245   */\n      0x00\n        /* \"#utility.yul\":9241:9242   */\n      dup1\n        /* \"#utility.yul\":9234:9246   */\n      revert\n        /* \"#utility.yul\":9258:9375   */\n    tag_61:\n        /* \"#utility.yul\":9367:9368   */\n      0x00\n        /* \"#utility.yul\":9364:9365   */\n      dup1\n        /* \"#utility.yul\":9357:9369   */\n      revert\n        /* \"#utility.yul\":9381:9483   */\n    tag_113:\n        /* \"#utility.yul\":9422:9428   */\n      0x00\n        /* \"#utility.yul\":9473:9475   */\n      0x1f\n        /* \"#utility.yul\":9469:9476   */\n      not\n        /* \"#utility.yul\":9464:9466   */\n      0x1f\n        /* \"#utility.yul\":9457:9462   */\n      dup4\n        /* \"#utility.yul\":9453:9467   */\n      add\n        /* \"#utility.yul\":9449:9477   */\n      and\n        /* \"#utility.yul\":9439:9477   */\n      swap1\n      pop\n        /* \"#utility.yul\":9429:9483   */\n      swap2\n      swap1\n      pop\n      jump\t// out\n        /* \"#utility.yul\":9489:9611   */\n    tag_47:\n        /* \"#utility.yul\":9562:9586   */\n      tag_164\n        /* \"#utility.yul\":9580:9585   */\n      dup2\n        /* \"#utility.yul\":9562:9586   */\n      tag_86\n      jump\t// in\n    tag_164:\n        /* \"#utility.yul\":9555:9560   */\n      dup2\n        /* \"#utility.yul\":9552:9587   */\n      eq\n        /* \"#utility.yul\":9542:9544   */\n      tag_165\n      jumpi\n        /* \"#utility.yul\":9601:9602   */\n      0x00\n        /* \"#utility.yul\":9598:9599   */\n      dup1\n        /* \"#utility.yul\":9591:9603   */\n      revert\n        /* \"#utility.yul\":9542:9544   */\n    tag_165:\n        /* \"#utility.yul\":9532:9611   */\n      pop\n      jump\t// out\n        /* \"#utility.yul\":9617:9739   */\n    tag_57:\n        /* \"#utility.yul\":9690:9714   */\n      tag_167\n        /* \"#utility.yul\":9708:9713   */\n      dup2\n        /* \"#utility.yul\":9690:9714   */\n      tag_145\n      jump\t// in\n    tag_167:\n        /* \"#utility.yul\":9683:9688   */\n      dup2\n        /* \"#utility.yul\":9680:9715   */\n      eq\n        /* \"#utility.yul\":9670:9672   */\n      tag_168\n      jumpi\n        /* \"#utility.yul\":9729:9730   */\n      0x00\n        /* \"#utility.yul\":9726:9727   */\n      dup1\n        /* \"#utility.yul\":9719:9731   */\n      revert\n        /* \"#utility.yul\":9670:9672   */\n    tag_168:\n        /* \"#utility.yul\":9660:9739   */\n      pop\n      jump\t// out\n    stop\n\n    sub_0: assembly {\n            /* \"ethereum/contracts/investigation.sol\":552:1390  contract Investigation {\r... */\n          mstore(0x40, 0x80)\n            /* \"ethereum/contracts/investigation.sol\":710:1009  constructor(address _FIRAddress, string memory _name, string memory _cid, string memory _badgeNumber, string memory _rank){\r... */\n          callvalue\n          dup1\n          iszero\n          tag_1\n          jumpi\n          0x00\n          dup1\n          revert\n        tag_1:\n          pop\n          mload(0x40)\n          sub(codesize, bytecodeSize)\n          dup1\n          bytecodeSize\n          dup4\n          codecopy\n          dup2\n          dup2\n          add\n          0x40\n          mstore\n          dup2\n          add\n          swap1\n          tag_2\n          swap2\n          swap1\n          tag_3\n          jump\t// in\n        tag_2:\n            /* \"ethereum/contracts/investigation.sol\":856:867  _FIRAddress */\n          dup5\n            /* \"ethereum/contracts/investigation.sol\":843:853  FIRAddress */\n          0x00\n          dup1\n            /* \"ethereum/contracts/investigation.sol\":843:867  FIRAddress = _FIRAddress */\n          0x0100\n          exp\n          dup2\n          sload\n          dup2\n          0xffffffffffffffffffffffffffffffffffffffff\n          mul\n          not\n          and\n          swap1\n          dup4\n          0xffffffffffffffffffffffffffffffffffffffff\n          and\n          mul\n          or\n          swap1\n          sstore\n          pop\n            /* \"ethereum/contracts/investigation.sol\":885:890  _name */\n          dup4\n            /* \"ethereum/contracts/investigation.sol\":878:882  name */\n          0x01\n            /* \"ethereum/contracts/investigation.sol\":878:890  name = _name */\n          swap1\n          dup1\n          mload\n          swap1\n          0x20\n          add\n          swap1\n          tag_6\n          swap3\n          swap2\n          swap1\n          tag_7\n          jump\t// in\n        tag_6:\n          pop\n            /* \"ethereum/contracts/investigation.sol\":907:911  _cid */\n          dup3\n            /* \"ethereum/contracts/investigation.sol\":901:904  cid */\n          0x02\n            /* \"ethereum/contracts/investigation.sol\":901:911  cid = _cid */\n          swap1\n          dup1\n          mload\n          swap1\n          0x20\n          add\n          swap1\n          tag_8\n          swap3\n          swap2\n          swap1\n          tag_7\n          jump\t// in\n        tag_8:\n          pop\n            /* \"ethereum/contracts/investigation.sol\":936:948  _badgeNumber */\n          dup2\n            /* \"ethereum/contracts/investigation.sol\":922:933  badgeNumber */\n          0x03\n            /* \"ethereum/contracts/investigation.sol\":922:948  badgeNumber = _badgeNumber */\n          swap1\n          dup1\n          mload\n          swap1\n          0x20\n          add\n          swap1\n          tag_9\n          swap3\n          swap2\n          swap1\n          tag_7\n          jump\t// in\n        tag_9:\n          pop\n            /* \"ethereum/contracts/investigation.sol\":966:971  _rank */\n          dup1\n            /* \"ethereum/contracts/investigation.sol\":959:963  rank */\n          0x04\n            /* \"ethereum/contracts/investigation.sol\":959:971  rank = _rank */\n          swap1\n          dup1\n          mload\n          swap1\n          0x20\n          add\n          swap1\n          tag_10\n          swap3\n          swap2\n          swap1\n          tag_7\n          jump\t// in\n        tag_10:\n          pop\n            /* \"ethereum/contracts/investigation.sol\":996:1001  false */\n          0x00\n            /* \"ethereum/contracts/investigation.sol\":982:993  isCompleted */\n          0x05\n          0x00\n            /* \"ethereum/contracts/investigation.sol\":982:1001  isCompleted = false */\n          0x0100\n          exp\n          dup2\n          sload\n          dup2\n          0xff\n          mul\n          not\n          and\n          swap1\n          dup4\n          iszero\n          iszero\n          mul\n          or\n          swap1\n          sstore\n          pop\n            /* \"ethereum/contracts/investigation.sol\":710:1009  constructor(address _FIRAddress, string memory _name, string memory _cid, string memory _badgeNumber, string memory _rank){\r... */\n          pop\n          pop\n          pop\n          pop\n          pop\n            /* \"ethereum/contracts/investigation.sol\":552:1390  contract Investigation {\r... */\n          jump(tag_11)\n        tag_7:\n          dup3\n          dup1\n          sload\n          tag_12\n          swap1\n          tag_13\n          jump\t// in\n        tag_12:\n          swap1\n          0x00\n          mstore\n          keccak256(0x00, 0x20)\n          swap1\n          0x1f\n          add\n          0x20\n          swap1\n          div\n          dup2\n          add\n          swap3\n          dup3\n          tag_15\n          jumpi\n          0x00\n          dup6\n          sstore\n          jump(tag_14)\n        tag_15:\n          dup3\n          0x1f\n          lt\n          tag_16\n          jumpi\n          dup1\n          mload\n          not(0xff)\n          and\n          dup4\n          dup1\n          add\n          or\n          dup6\n          sstore\n          jump(tag_14)\n        tag_16:\n          dup3\n          dup1\n          add\n          0x01\n          add\n          dup6\n          sstore\n          dup3\n          iszero\n          tag_14\n          jumpi\n          swap2\n          dup3\n          add\n        tag_17:\n          dup3\n          dup2\n          gt\n          iszero\n          tag_18\n          jumpi\n          dup3\n          mload\n          dup3\n          sstore\n          swap2\n          0x20\n          add\n          swap2\n          swap1\n          0x01\n          add\n          swap1\n          jump(tag_17)\n        tag_18:\n        tag_14:\n          pop\n          swap1\n          pop\n          tag_19\n          swap2\n          swap1\n          tag_20\n          jump\t// in\n        tag_19:\n          pop\n          swap1\n          jump\t// out\n        tag_20:\n        tag_21:\n          dup1\n          dup3\n          gt\n          iszero\n          tag_22\n          jumpi\n          0x00\n          dup2\n          0x00\n          swap1\n          sstore\n          pop\n          0x01\n          add\n          jump(tag_21)\n        tag_22:\n          pop\n          swap1\n          jump\t// out\n            /* \"#utility.yul\":7:428   */\n        tag_24:\n            /* \"#utility.yul\":96:101   */\n          0x00\n            /* \"#utility.yul\":121:187   */\n          tag_26\n            /* \"#utility.yul\":137:186   */\n          tag_27\n            /* \"#utility.yul\":179:185   */\n          dup5\n            /* \"#utility.yul\":137:186   */\n          tag_28\n          jump\t// in\n        tag_27:\n            /* \"#utility.yul\":121:187   */\n          tag_29\n          jump\t// in\n        tag_26:\n            /* \"#utility.yul\":112:187   */\n          swap1\n          pop\n            /* \"#utility.yul\":210:216   */\n          dup3\n            /* \"#utility.yul\":203:208   */\n          dup2\n            /* \"#utility.yul\":196:217   */\n          mstore\n            /* \"#utility.yul\":248:252   */\n          0x20\n            /* \"#utility.yul\":241:246   */\n          dup2\n            /* \"#utility.yul\":237:253   */\n          add\n            /* \"#utility.yul\":286:289   */\n          dup5\n            /* \"#utility.yul\":277:283   */\n          dup5\n            /* \"#utility.yul\":272:275   */\n          dup5\n            /* \"#utility.yul\":268:284   */\n          add\n            /* \"#utility.yul\":265:290   */\n          gt\n            /* \"#utility.yul\":262:264   */\n          iszero\n          tag_30\n          jumpi\n            /* \"#utility.yul\":293:372   */\n          tag_31\n          tag_32\n          jump\t// in\n        tag_31:\n            /* \"#utility.yul\":262:264   */\n        tag_30:\n            /* \"#utility.yul\":383:422   */\n          tag_33\n            /* \"#utility.yul\":415:421   */\n          dup5\n            /* \"#utility.yul\":410:413   */\n          dup3\n            /* \"#utility.yul\":405:408   */\n          dup6\n            /* \"#utility.yul\":383:422   */\n          tag_34\n          jump\t// in\n        tag_33:\n            /* \"#utility.yul\":102:428   */\n          pop\n          swap4\n          swap3\n          pop\n          pop\n          pop\n          jump\t// out\n            /* \"#utility.yul\":434:577   */\n        tag_35:\n            /* \"#utility.yul\":491:496   */\n          0x00\n            /* \"#utility.yul\":522:528   */\n          dup2\n            /* \"#utility.yul\":516:529   */\n          mload\n            /* \"#utility.yul\":507:529   */\n          swap1\n          pop\n            /* \"#utility.yul\":538:571   */\n          tag_37\n            /* \"#utility.yul\":565:570   */\n          dup2\n            /* \"#utility.yul\":538:571   */\n          tag_38\n          jump\t// in\n        tag_37:\n            /* \"#utility.yul\":497:577   */\n          swap3\n          swap2\n          pop\n          pop\n          jump\t// out\n            /* \"#utility.yul\":597:952   */\n        tag_39:\n            /* \"#utility.yul\":664:669   */\n          0x00\n            /* \"#utility.yul\":713:716   */\n          dup3\n            /* \"#utility.yul\":706:710   */\n          0x1f\n            /* \"#utility.yul\":698:704   */\n          dup4\n            /* \"#utility.yul\":694:711   */\n          add\n            /* \"#utility.yul\":690:717   */\n          slt\n            /* \"#utility.yul\":680:682   */\n          tag_41\n          jumpi\n            /* \"#utility.yul\":721:800   */\n          tag_42\n          tag_43\n          jump\t// in\n        tag_42:\n            /* \"#utility.yul\":680:682   */\n        tag_41:\n            /* \"#utility.yul\":831:837   */\n          dup2\n            /* \"#utility.yul\":825:838   */\n          mload\n            /* \"#utility.yul\":856:946   */\n          tag_44\n            /* \"#utility.yul\":942:945   */\n          dup5\n            /* \"#utility.yul\":934:940   */\n          dup3\n            /* \"#utility.yul\":927:931   */\n          0x20\n            /* \"#utility.yul\":919:925   */\n          dup7\n            /* \"#utility.yul\":915:932   */\n          add\n            /* \"#utility.yul\":856:946   */\n          tag_24\n          jump\t// in\n        tag_44:\n            /* \"#utility.yul\":847:946   */\n          swap2\n          pop\n            /* \"#utility.yul\":670:952   */\n          pop\n          swap3\n          swap2\n          pop\n          pop\n          jump\t// out\n            /* \"#utility.yul\":958:2627   */\n        tag_3:\n            /* \"#utility.yul\":1104:1110   */\n          0x00\n            /* \"#utility.yul\":1112:1118   */\n          dup1\n            /* \"#utility.yul\":1120:1126   */\n          0x00\n            /* \"#utility.yul\":1128:1134   */\n          dup1\n            /* \"#utility.yul\":1136:1142   */\n          0x00\n            /* \"#utility.yul\":1185:1188   */\n          0xa0\n            /* \"#utility.yul\":1173:1182   */\n          dup7\n            /* \"#utility.yul\":1164:1171   */\n          dup9\n            /* \"#utility.yul\":1160:1183   */\n          sub\n            /* \"#utility.yul\":1156:1189   */\n          slt\n            /* \"#utility.yul\":1153:1155   */\n          iszero\n          tag_46\n          jumpi\n            /* \"#utility.yul\":1192:1271   */\n          tag_47\n          tag_48\n          jump\t// in\n        tag_47:\n            /* \"#utility.yul\":1153:1155   */\n        tag_46:\n            /* \"#utility.yul\":1312:1313   */\n          0x00\n            /* \"#utility.yul\":1337:1401   */\n          tag_49\n            /* \"#utility.yul\":1393:1400   */\n          dup9\n            /* \"#utility.yul\":1384:1390   */\n          dup3\n            /* \"#utility.yul\":1373:1382   */\n          dup10\n            /* \"#utility.yul\":1369:1391   */\n          add\n            /* \"#utility.yul\":1337:1401   */\n          tag_35\n          jump\t// in\n        tag_49:\n            /* \"#utility.yul\":1327:1401   */\n          swap6\n          pop\n            /* \"#utility.yul\":1283:1411   */\n          pop\n            /* \"#utility.yul\":1471:1473   */\n          0x20\n            /* \"#utility.yul\":1460:1469   */\n          dup7\n            /* \"#utility.yul\":1456:1474   */\n          add\n            /* \"#utility.yul\":1450:1475   */\n          mload\n            /* \"#utility.yul\":1502:1520   */\n          0xffffffffffffffff\n            /* \"#utility.yul\":1494:1500   */\n          dup2\n            /* \"#utility.yul\":1491:1521   */\n          gt\n            /* \"#utility.yul\":1488:1490   */\n          iszero\n          tag_50\n          jumpi\n            /* \"#utility.yul\":1524:1603   */\n          tag_51\n          tag_52\n          jump\t// in\n        tag_51:\n            /* \"#utility.yul\":1488:1490   */\n        tag_50:\n            /* \"#utility.yul\":1629:1703   */\n          tag_53\n            /* \"#utility.yul\":1695:1702   */\n          dup9\n            /* \"#utility.yul\":1686:1692   */\n          dup3\n            /* \"#utility.yul\":1675:1684   */\n          dup10\n            /* \"#utility.yul\":1671:1693   */\n          add\n            /* \"#utility.yul\":1629:1703   */\n          tag_39\n          jump\t// in\n        tag_53:\n            /* \"#utility.yul\":1619:1703   */\n          swap5\n          pop\n            /* \"#utility.yul\":1421:1713   */\n          pop\n            /* \"#utility.yul\":1773:1775   */\n          0x40\n            /* \"#utility.yul\":1762:1771   */\n          dup7\n            /* \"#utility.yul\":1758:1776   */\n          add\n            /* \"#utility.yul\":1752:1777   */\n          mload\n            /* \"#utility.yul\":1804:1822   */\n          0xffffffffffffffff\n            /* \"#utility.yul\":1796:1802   */\n          dup2\n            /* \"#utility.yul\":1793:1823   */\n          gt\n            /* \"#utility.yul\":1790:1792   */\n          iszero\n          tag_54\n          jumpi\n            /* \"#utility.yul\":1826:1905   */\n          tag_55\n          tag_52\n          jump\t// in\n        tag_55:\n            /* \"#utility.yul\":1790:1792   */\n        tag_54:\n            /* \"#utility.yul\":1931:2005   */\n          tag_56\n            /* \"#utility.yul\":1997:2004   */\n          dup9\n            /* \"#utility.yul\":1988:1994   */\n          dup3\n            /* \"#utility.yul\":1977:1986   */\n          dup10\n            /* \"#utility.yul\":1973:1995   */\n          add\n            /* \"#utility.yul\":1931:2005   */\n          tag_39\n          jump\t// in\n        tag_56:\n            /* \"#utility.yul\":1921:2005   */\n          swap4\n          pop\n            /* \"#utility.yul\":1723:2015   */\n          pop\n            /* \"#utility.yul\":2075:2077   */\n          0x60\n            /* \"#utility.yul\":2064:2073   */\n          dup7\n            /* \"#utility.yul\":2060:2078   */\n          add\n            /* \"#utility.yul\":2054:2079   */\n          mload\n            /* \"#utility.yul\":2106:2124   */\n          0xffffffffffffffff\n            /* \"#utility.yul\":2098:2104   */\n          dup2\n            /* \"#utility.yul\":2095:2125   */\n          gt\n            /* \"#utility.yul\":2092:2094   */\n          iszero\n          tag_57\n          jumpi\n            /* \"#utility.yul\":2128:2207   */\n          tag_58\n          tag_52\n          jump\t// in\n        tag_58:\n            /* \"#utility.yul\":2092:2094   */\n        tag_57:\n            /* \"#utility.yul\":2233:2307   */\n          tag_59\n            /* \"#utility.yul\":2299:2306   */\n          dup9\n            /* \"#utility.yul\":2290:2296   */\n          dup3\n            /* \"#utility.yul\":2279:2288   */\n          dup10\n            /* \"#utility.yul\":2275:2297   */\n          add\n            /* \"#utility.yul\":2233:2307   */\n          tag_39\n          jump\t// in\n        tag_59:\n            /* \"#utility.yul\":2223:2307   */\n          swap3\n          pop\n            /* \"#utility.yul\":2025:2317   */\n          pop\n            /* \"#utility.yul\":2377:2380   */\n          0x80\n            /* \"#utility.yul\":2366:2375   */\n          dup7\n            /* \"#utility.yul\":2362:2381   */\n          add\n            /* \"#utility.yul\":2356:2382   */\n          mload\n            /* \"#utility.yul\":2409:2427   */\n          0xffffffffffffffff\n            /* \"#utility.yul\":2401:2407   */\n          dup2\n            /* \"#utility.yul\":2398:2428   */\n          gt\n            /* \"#utility.yul\":2395:2397   */\n          iszero\n          tag_60\n          jumpi\n            /* \"#utility.yul\":2431:2510   */\n          tag_61\n          tag_52\n          jump\t// in\n        tag_61:\n            /* \"#utility.yul\":2395:2397   */\n        tag_60:\n            /* \"#utility.yul\":2536:2610   */\n          tag_62\n            /* \"#utility.yul\":2602:2609   */\n          dup9\n            /* \"#utility.yul\":2593:2599   */\n          dup3\n            /* \"#utility.yul\":2582:2591   */\n          dup10\n            /* \"#utility.yul\":2578:2600   */\n          add\n            /* \"#utility.yul\":2536:2610   */\n          tag_39\n          jump\t// in\n        tag_62:\n            /* \"#utility.yul\":2526:2610   */\n          swap2\n          pop\n            /* \"#utility.yul\":2327:2620   */\n          pop\n            /* \"#utility.yul\":1143:2627   */\n          swap3\n          swap6\n          pop\n          swap3\n          swap6\n          swap1\n          swap4\n          pop\n          jump\t// out\n            /* \"#utility.yul\":2633:2762   */\n        tag_29:\n            /* \"#utility.yul\":2667:2673   */\n          0x00\n            /* \"#utility.yul\":2694:2714   */\n          tag_64\n          tag_65\n          jump\t// in\n        tag_64:\n            /* \"#utility.yul\":2684:2714   */\n          swap1\n          pop\n            /* \"#utility.yul\":2723:2756   */\n          tag_66\n            /* \"#utility.yul\":2751:2755   */\n          dup3\n            /* \"#utility.yul\":2743:2749   */\n          dup3\n            /* \"#utility.yul\":2723:2756   */\n          tag_67\n          jump\t// in\n        tag_66:\n            /* \"#utility.yul\":2674:2762   */\n          swap2\n          swap1\n          pop\n          jump\t// out\n            /* \"#utility.yul\":2768:2843   */\n        tag_65:\n            /* \"#utility.yul\":2801:2807   */\n          0x00\n            /* \"#utility.yul\":2834:2836   */\n          0x40\n            /* \"#utility.yul\":2828:2837   */\n          mload\n            /* \"#utility.yul\":2818:2837   */\n          swap1\n          pop\n            /* \"#utility.yul\":2808:2843   */\n          swap1\n          jump\t// out\n            /* \"#utility.yul\":2849:3157   */\n        tag_28:\n            /* \"#utility.yul\":2911:2915   */\n          0x00\n            /* \"#utility.yul\":3001:3019   */\n          0xffffffffffffffff\n            /* \"#utility.yul\":2993:2999   */\n          dup3\n            /* \"#utility.yul\":2990:3020   */\n          gt\n            /* \"#utility.yul\":2987:2989   */\n          iszero\n          tag_70\n          jumpi\n            /* \"#utility.yul\":3023:3041   */\n          tag_71\n          tag_72\n          jump\t// in\n        tag_71:\n            /* \"#utility.yul\":2987:2989   */\n        tag_70:\n            /* \"#utility.yul\":3061:3090   */\n          tag_73\n            /* \"#utility.yul\":3083:3089   */\n          dup3\n            /* \"#utility.yul\":3061:3090   */\n          tag_74\n          jump\t// in\n        tag_73:\n            /* \"#utility.yul\":3053:3090   */\n          swap1\n          pop\n            /* \"#utility.yul\":3145:3149   */\n          0x20\n            /* \"#utility.yul\":3139:3143   */\n          dup2\n            /* \"#utility.yul\":3135:3150   */\n          add\n            /* \"#utility.yul\":3127:3150   */\n          swap1\n          pop\n            /* \"#utility.yul\":2916:3157   */\n          swap2\n          swap1\n          pop\n          jump\t// out\n            /* \"#utility.yul\":3163:3259   */\n        tag_75:\n            /* \"#utility.yul\":3200:3207   */\n          0x00\n            /* \"#utility.yul\":3229:3253   */\n          tag_77\n            /* \"#utility.yul\":3247:3252   */\n          dup3\n            /* \"#utility.yul\":3229:3253   */\n          tag_78\n          jump\t// in\n        tag_77:\n            /* \"#utility.yul\":3218:3253   */\n          swap1\n          pop\n            /* \"#utility.yul\":3208:3259   */\n          swap2\n          swap1\n          pop\n          jump\t// out\n            /* \"#utility.yul\":3265:3391   */\n        tag_78:\n            /* \"#utility.yul\":3302:3309   */\n          0x00\n            /* \"#utility.yul\":3342:3384   */\n          0xffffffffffffffffffffffffffffffffffffffff\n            /* \"#utility.yul\":3335:3340   */\n          dup3\n            /* \"#utility.yul\":3331:3385   */\n          and\n            /* \"#utility.yul\":3320:3385   */\n          swap1\n          pop\n            /* \"#utility.yul\":3310:3391   */\n          swap2\n          swap1\n          pop\n          jump\t// out\n            /* \"#utility.yul\":3397:3704   */\n        tag_34:\n            /* \"#utility.yul\":3465:3466   */\n          0x00\n            /* \"#utility.yul\":3475:3588   */\n        tag_81:\n            /* \"#utility.yul\":3489:3495   */\n          dup4\n            /* \"#utility.yul\":3486:3487   */\n          dup2\n            /* \"#utility.yul\":3483:3496   */\n          lt\n            /* \"#utility.yul\":3475:3588   */\n          iszero\n          tag_83\n          jumpi\n            /* \"#utility.yul\":3574:3575   */\n          dup1\n            /* \"#utility.yul\":3569:3572   */\n          dup3\n            /* \"#utility.yul\":3565:3576   */\n          add\n            /* \"#utility.yul\":3559:3577   */\n          mload\n            /* \"#utility.yul\":3555:3556   */\n          dup2\n            /* \"#utility.yul\":3550:3553   */\n          dup5\n            /* \"#utility.yul\":3546:3557   */\n          add\n            /* \"#utility.yul\":3539:3578   */\n          mstore\n            /* \"#utility.yul\":3511:3513   */\n          0x20\n            /* \"#utility.yul\":3508:3509   */\n          dup2\n            /* \"#utility.yul\":3504:3514   */\n          add\n            /* \"#utility.yul\":3499:3514   */\n          swap1\n          pop\n            /* \"#utility.yul\":3475:3588   */\n          jump(tag_81)\n        tag_83:\n            /* \"#utility.yul\":3606:3612   */\n          dup4\n            /* \"#utility.yul\":3603:3604   */\n          dup2\n            /* \"#utility.yul\":3600:3613   */\n          gt\n            /* \"#utility.yul\":3597:3599   */\n          iszero\n          tag_84\n          jumpi\n            /* \"#utility.yul\":3686:3687   */\n          0x00\n            /* \"#utility.yul\":3677:3683   */\n          dup5\n            /* \"#utility.yul\":3672:3675   */\n          dup5\n            /* \"#utility.yul\":3668:3684   */\n          add\n            /* \"#utility.yul\":3661:3688   */\n          mstore\n            /* \"#utility.yul\":3597:3599   */\n        tag_84:\n            /* \"#utility.yul\":3446:3704   */\n          pop\n          pop\n          pop\n          pop\n          jump\t// out\n            /* \"#utility.yul\":3710:4030   */\n        tag_13:\n            /* \"#utility.yul\":3754:3760   */\n          0x00\n            /* \"#utility.yul\":3791:3792   */\n          0x02\n            /* \"#utility.yul\":3785:3789   */\n          dup3\n            /* \"#utility.yul\":3781:3793   */\n          div\n            /* \"#utility.yul\":3771:3793   */\n          swap1\n          pop\n            /* \"#utility.yul\":3838:3839   */\n          0x01\n            /* \"#utility.yul\":3832:3836   */\n          dup3\n            /* \"#utility.yul\":3828:3840   */\n          and\n            /* \"#utility.yul\":3859:3877   */\n          dup1\n            /* \"#utility.yul\":3849:3851   */\n          tag_86\n          jumpi\n            /* \"#utility.yul\":3915:3919   */\n          0x7f\n            /* \"#utility.yul\":3907:3913   */\n          dup3\n            /* \"#utility.yul\":3903:3920   */\n          and\n            /* \"#utility.yul\":3893:3920   */\n          swap2\n          pop\n            /* \"#utility.yul\":3849:3851   */\n        tag_86:\n            /* \"#utility.yul\":3977:3979   */\n          0x20\n            /* \"#utility.yul\":3969:3975   */\n          dup3\n            /* \"#utility.yul\":3966:3980   */\n          lt\n            /* \"#utility.yul\":3946:3964   */\n          dup2\n            /* \"#utility.yul\":3943:3981   */\n          eq\n            /* \"#utility.yul\":3940:3942   */\n          iszero\n          tag_87\n          jumpi\n            /* \"#utility.yul\":3996:4014   */\n          tag_88\n          tag_89\n          jump\t// in\n        tag_88:\n            /* \"#utility.yul\":3940:3942   */\n        tag_87:\n            /* \"#utility.yul\":3761:4030   */\n          pop\n          swap2\n          swap1\n          pop\n          jump\t// out\n            /* \"#utility.yul\":4036:4317   */\n        tag_67:\n            /* \"#utility.yul\":4119:4146   */\n          tag_91\n            /* \"#utility.yul\":4141:4145   */\n          dup3\n            /* \"#utility.yul\":4119:4146   */\n          tag_74\n          jump\t// in\n        tag_91:\n            /* \"#utility.yul\":4111:4117   */\n          dup2\n            /* \"#utility.yul\":4107:4147   */\n          add\n            /* \"#utility.yul\":4249:4255   */\n          dup2\n            /* \"#utility.yul\":4237:4247   */\n          dup2\n            /* \"#utility.yul\":4234:4256   */\n          lt\n            /* \"#utility.yul\":4213:4231   */\n          0xffffffffffffffff\n            /* \"#utility.yul\":4201:4211   */\n          dup3\n            /* \"#utility.yul\":4198:4232   */\n          gt\n            /* \"#utility.yul\":4195:4257   */\n          or\n            /* \"#utility.yul\":4192:4194   */\n          iszero\n          tag_92\n          jumpi\n            /* \"#utility.yul\":4260:4278   */\n          tag_93\n          tag_72\n          jump\t// in\n        tag_93:\n            /* \"#utility.yul\":4192:4194   */\n        tag_92:\n            /* \"#utility.yul\":4300:4310   */\n          dup1\n            /* \"#utility.yul\":4296:4298   */\n          0x40\n            /* \"#utility.yul\":4289:4311   */\n          mstore\n            /* \"#utility.yul\":4079:4317   */\n          pop\n          pop\n          pop\n          jump\t// out\n            /* \"#utility.yul\":4323:4503   */\n        tag_89:\n            /* \"#utility.yul\":4371:4448   */\n          0x4e487b7100000000000000000000000000000000000000000000000000000000\n            /* \"#utility.yul\":4368:4369   */\n          0x00\n            /* \"#utility.yul\":4361:4449   */\n          mstore\n            /* \"#utility.yul\":4468:4472   */\n          0x22\n            /* \"#utility.yul\":4465:4466   */\n          0x04\n            /* \"#utility.yul\":4458:4473   */\n          mstore\n            /* \"#utility.yul\":4492:4496   */\n          0x24\n            /* \"#utility.yul\":4489:4490   */\n          0x00\n            /* \"#utility.yul\":4482:4497   */\n          revert\n            /* \"#utility.yul\":4509:4689   */\n        tag_72:\n            /* \"#utility.yul\":4557:4634   */\n          0x4e487b7100000000000000000000000000000000000000000000000000000000\n            /* \"#utility.yul\":4554:4555   */\n          0x00\n            /* \"#utility.yul\":4547:4635   */\n          mstore\n            /* \"#utility.yul\":4654:4658   */\n          0x41\n            /* \"#utility.yul\":4651:4652   */\n          0x04\n            /* \"#utility.yul\":4644:4659   */\n          mstore\n            /* \"#utility.yul\":4678:4682   */\n          0x24\n            /* \"#utility.yul\":4675:4676   */\n          0x00\n            /* \"#utility.yul\":4668:4683   */\n          revert\n            /* \"#utility.yul\":4695:4812   */\n        tag_43:\n            /* \"#utility.yul\":4804:4805   */\n          0x00\n            /* \"#utility.yul\":4801:4802   */\n          dup1\n            /* \"#utility.yul\":4794:4806   */\n          revert\n            /* \"#utility.yul\":4818:4935   */\n        tag_32:\n            /* \"#utility.yul\":4927:4928   */\n          0x00\n            /* \"#utility.yul\":4924:4925   */\n          dup1\n            /* \"#utility.yul\":4917:4929   */\n          revert\n            /* \"#utility.yul\":4941:5058   */\n        tag_52:\n            /* \"#utility.yul\":5050:5051   */\n          0x00\n            /* \"#utility.yul\":5047:5048   */\n          dup1\n            /* \"#utility.yul\":5040:5052   */\n          revert\n            /* \"#utility.yul\":5064:5181   */\n        tag_48:\n            /* \"#utility.yul\":5173:5174   */\n          0x00\n            /* \"#utility.yul\":5170:5171   */\n          dup1\n            /* \"#utility.yul\":5163:5175   */\n          revert\n            /* \"#utility.yul\":5187:5289   */\n        tag_74:\n            /* \"#utility.yul\":5228:5234   */\n          0x00\n            /* \"#utility.yul\":5279:5281   */\n          0x1f\n            /* \"#utility.yul\":5275:5282   */\n          not\n            /* \"#utility.yul\":5270:5272   */\n          0x1f\n            /* \"#utility.yul\":5263:5268   */\n          dup4\n            /* \"#utility.yul\":5259:5273   */\n          add\n            /* \"#utility.yul\":5255:5283   */\n          and\n            /* \"#utility.yul\":5245:5283   */\n          swap1\n          pop\n            /* \"#utility.yul\":5235:5289   */\n          swap2\n          swap1\n          pop\n          jump\t// out\n            /* \"#utility.yul\":5295:5417   */\n        tag_38:\n            /* \"#utility.yul\":5368:5392   */\n          tag_102\n            /* \"#utility.yul\":5386:5391   */\n          dup2\n            /* \"#utility.yul\":5368:5392   */\n          tag_75\n          jump\t// in\n        tag_102:\n            /* \"#utility.yul\":5361:5366   */\n          dup2\n            /* \"#utility.yul\":5358:5393   */\n          eq\n            /* \"#utility.yul\":5348:5350   */\n          tag_103\n          jumpi\n            /* \"#utility.yul\":5407:5408   */\n          0x00\n            /* \"#utility.yul\":5404:5405   */\n          dup1\n            /* \"#utility.yul\":5397:5409   */\n          revert\n            /* \"#utility.yul\":5348:5350   */\n        tag_103:\n            /* \"#utility.yul\":5338:5417   */\n          pop\n          jump\t// out\n            /* \"ethereum/contracts/investigation.sol\":552:1390  contract Investigation {\r... */\n        tag_11:\n          dataSize(sub_0)\n          dup1\n          dataOffset(sub_0)\n          0x00\n          codecopy\n          0x00\n          return\n        stop\n\n        sub_0: assembly {\n                /* \"ethereum/contracts/investigation.sol\":552:1390  contract Investigation {\r... */\n              mstore(0x40, 0x80)\n              callvalue\n              dup1\n              iszero\n              tag_1\n              jumpi\n              0x00\n              dup1\n              revert\n            tag_1:\n              pop\n              jumpi(tag_2, lt(calldatasize, 0x04))\n              shr(0xe0, calldataload(0x00))\n              dup1\n              0x3bc5de30\n              eq\n              tag_3\n              jumpi\n              dup1\n              0x973b46bb\n              eq\n              tag_4\n              jumpi\n              dup1\n              0xe7bb25e0\n              eq\n              tag_5\n              jumpi\n            tag_2:\n              0x00\n              dup1\n              revert\n                /* \"ethereum/contracts/investigation.sol\":1017:1212  function getData() public view returns (address, string memory, string memory, string memory, string memory, bool){\r... */\n            tag_3:\n              tag_6\n              tag_7\n              jump\t// in\n            tag_6:\n              mload(0x40)\n              tag_8\n              swap7\n              swap6\n              swap5\n              swap4\n              swap3\n              swap2\n              swap1\n              tag_9\n              jump\t// in\n            tag_8:\n              mload(0x40)\n              dup1\n              swap2\n              sub\n              swap1\n              return\n                /* \"ethereum/contracts/investigation.sol\":1305:1385  function investigationIncomplete() public {\r... */\n            tag_4:\n              tag_10\n              tag_11\n              jump\t// in\n            tag_10:\n              stop\n                /* \"ethereum/contracts/investigation.sol\":1220:1297  function investigationComplete() public {\r... */\n            tag_5:\n              tag_12\n              tag_13\n              jump\t// in\n            tag_12:\n              stop\n                /* \"ethereum/contracts/investigation.sol\":1017:1212  function getData() public view returns (address, string memory, string memory, string memory, string memory, bool){\r... */\n            tag_7:\n                /* \"ethereum/contracts/investigation.sol\":1057:1064  address */\n              0x00\n                /* \"ethereum/contracts/investigation.sol\":1066:1079  string memory */\n              0x60\n                /* \"ethereum/contracts/investigation.sol\":1081:1094  string memory */\n              dup1\n                /* \"ethereum/contracts/investigation.sol\":1096:1109  string memory */\n              0x60\n                /* \"ethereum/contracts/investigation.sol\":1111:1124  string memory */\n              dup1\n                /* \"ethereum/contracts/investigation.sol\":1126:1130  bool */\n              0x00\n                /* \"ethereum/contracts/investigation.sol\":1150:1160  FIRAddress */\n              dup1\n              0x00\n              swap1\n              sload\n              swap1\n              0x0100\n              exp\n              swap1\n              div\n              0xffffffffffffffffffffffffffffffffffffffff\n              and\n                /* \"ethereum/contracts/investigation.sol\":1162:1166  name */\n              0x01\n                /* \"ethereum/contracts/investigation.sol\":1168:1171  cid */\n              0x02\n                /* \"ethereum/contracts/investigation.sol\":1173:1184  badgeNumber */\n              0x03\n                /* \"ethereum/contracts/investigation.sol\":1186:1190  rank */\n              0x04\n                /* \"ethereum/contracts/investigation.sol\":1192:1203  isCompleted */\n              0x05\n              0x00\n              swap1\n              sload\n              swap1\n              0x0100\n              exp\n              swap1\n              div\n              0xff\n              and\n                /* \"ethereum/contracts/investigation.sol\":1142:1204  return (FIRAddress, name, cid, badgeNumber, rank, isCompleted) */\n              dup5\n              dup1\n              sload\n              tag_15\n              swap1\n              tag_16\n              jump\t// in\n            tag_15:\n              dup1\n              0x1f\n              add\n              0x20\n              dup1\n              swap2\n              div\n              mul\n              0x20\n              add\n              mload(0x40)\n              swap1\n              dup2\n              add\n              0x40\n              mstore\n              dup1\n              swap3\n              swap2\n              swap1\n              dup2\n              dup2\n              mstore\n              0x20\n              add\n              dup3\n              dup1\n              sload\n              tag_17\n              swap1\n              tag_16\n              jump\t// in\n            tag_17:\n              dup1\n              iszero\n              tag_18\n              jumpi\n              dup1\n              0x1f\n              lt\n              tag_19\n              jumpi\n              0x0100\n              dup1\n              dup4\n              sload\n              div\n              mul\n              dup4\n              mstore\n              swap2\n              0x20\n              add\n              swap2\n              jump(tag_18)\n            tag_19:\n              dup3\n              add\n              swap2\n              swap1\n              0x00\n              mstore\n              keccak256(0x00, 0x20)\n              swap1\n            tag_20:\n              dup2\n              sload\n              dup2\n              mstore\n              swap1\n              0x01\n              add\n              swap1\n              0x20\n              add\n              dup1\n              dup4\n              gt\n              tag_20\n              jumpi\n              dup3\n              swap1\n              sub\n              0x1f\n              and\n              dup3\n              add\n              swap2\n            tag_18:\n              pop\n              pop\n              pop\n              pop\n              pop\n              swap5\n              pop\n              dup4\n              dup1\n              sload\n              tag_21\n              swap1\n              tag_16\n              jump\t// in\n            tag_21:\n              dup1\n              0x1f\n              add\n              0x20\n              dup1\n              swap2\n              div\n              mul\n              0x20\n              add\n              mload(0x40)\n              swap1\n              dup2\n              add\n              0x40\n              mstore\n              dup1\n              swap3\n              swap2\n              swap1\n              dup2\n              dup2\n              mstore\n              0x20\n              add\n              dup3\n              dup1\n              sload\n              tag_22\n              swap1\n              tag_16\n              jump\t// in\n            tag_22:\n              dup1\n              iszero\n              tag_23\n              jumpi\n              dup1\n              0x1f\n              lt\n              tag_24\n              jumpi\n              0x0100\n              dup1\n              dup4\n              sload\n              div\n              mul\n              dup4\n              mstore\n              swap2\n              0x20\n              add\n              swap2\n              jump(tag_23)\n            tag_24:\n              dup3\n              add\n              swap2\n              swap1\n              0x00\n              mstore\n              keccak256(0x00, 0x20)\n              swap1\n            tag_25:\n              dup2\n              sload\n              dup2\n              mstore\n              swap1\n              0x01\n              add\n              swap1\n              0x20\n              add\n              dup1\n              dup4\n              gt\n              tag_25\n              jumpi\n              dup3\n              swap1\n              sub\n              0x1f\n              and\n              dup3\n              add\n              swap2\n            tag_23:\n              pop\n              pop\n              pop\n              pop\n              pop\n              swap4\n              pop\n              dup3\n              dup1\n              sload\n              tag_26\n              swap1\n              tag_16\n              jump\t// in\n            tag_26:\n              dup1\n              0x1f\n              add\n              0x20\n              dup1\n              swap2\n              div\n              mul\n              0x20\n              add\n              mload(0x40)\n              swap1\n              dup2\n              add\n              0x40\n              mstore\n              dup1\n              swap3\n              swap2\n              swap1\n              dup2\n              dup2\n              mstore\n              0x20\n              add\n              dup3\n              dup1\n              sload\n              tag_27\n              swap1\n              tag_16\n              jump\t// in\n            tag_27:\n              dup1\n              iszero\n              tag_28\n              jumpi\n              dup1\n              0x1f\n              lt\n              tag_29\n              jumpi\n              0x0100\n              dup1\n              dup4\n              sload\n              div\n              mul\n              dup4\n              mstore\n              swap2\n              0x20\n              add\n              swap2\n              jump(tag_28)\n            tag_29:\n              dup3\n              add\n              swap2\n              swap1\n              0x00\n              mstore\n              keccak256(0x00, 0x20)\n              swap1\n            tag_30:\n              dup2\n              sload\n              dup2\n              mstore\n              swap1\n              0x01\n              add\n              swap1\n              0x20\n              add\n              dup1\n              dup4\n              gt\n              tag_30\n              jumpi\n              dup3\n              swap1\n              sub\n              0x1f\n              and\n              dup3\n              add\n              swap2\n            tag_28:\n              pop\n              pop\n              pop\n              pop\n              pop\n              swap3\n              pop\n              dup2\n              dup1\n              sload\n              tag_31\n              swap1\n              tag_16\n              jump\t// in\n            tag_31:\n              dup1\n              0x1f\n              add\n              0x20\n              dup1\n              swap2\n              div\n              mul\n              0x20\n              add\n              mload(0x40)\n              swap1\n              dup2\n              add\n              0x40\n              mstore\n              dup1\n              swap3\n              swap2\n              swap1\n              dup2\n              dup2\n              mstore\n              0x20\n              add\n              dup3\n              dup1\n              sload\n              tag_32\n              swap1\n              tag_16\n              jump\t// in\n            tag_32:\n              dup1\n              iszero\n              tag_33\n              jumpi\n              dup1\n              0x1f\n              lt\n              tag_34\n              jumpi\n              0x0100\n              dup1\n              dup4\n              sload\n              div\n              mul\n              dup4\n              mstore\n              swap2\n              0x20\n              add\n              swap2\n              jump(tag_33)\n            tag_34:\n              dup3\n              add\n              swap2\n              swap1\n              0x00\n              mstore\n              keccak256(0x00, 0x20)\n              swap1\n            tag_35:\n              dup2\n              sload\n              dup2\n              mstore\n              swap1\n              0x01\n              add\n              swap1\n              0x20\n              add\n              dup1\n              dup4\n              gt\n              tag_35\n              jumpi\n              dup3\n              swap1\n              sub\n              0x1f\n              and\n              dup3\n              add\n              swap2\n            tag_33:\n              pop\n              pop\n              pop\n              pop\n              pop\n              swap2\n              pop\n              swap6\n              pop\n              swap6\n              pop\n              swap6\n              pop\n              swap6\n              pop\n              swap6\n              pop\n              swap6\n              pop\n                /* \"ethereum/contracts/investigation.sol\":1017:1212  function getData() public view returns (address, string memory, string memory, string memory, string memory, bool){\r... */\n              swap1\n              swap2\n              swap3\n              swap4\n              swap5\n              swap6\n              jump\t// out\n                /* \"ethereum/contracts/investigation.sol\":1305:1385  function investigationIncomplete() public {\r... */\n            tag_11:\n                /* \"ethereum/contracts/investigation.sol\":1372:1377  false */\n              0x00\n                /* \"ethereum/contracts/investigation.sol\":1358:1369  isCompleted */\n              0x05\n              0x00\n                /* \"ethereum/contracts/investigation.sol\":1358:1377  isCompleted = false */\n              0x0100\n              exp\n              dup2\n              sload\n              dup2\n              0xff\n              mul\n              not\n              and\n              swap1\n              dup4\n              iszero\n              iszero\n              mul\n              or\n              swap1\n              sstore\n              pop\n                /* \"ethereum/contracts/investigation.sol\":1305:1385  function investigationIncomplete() public {\r... */\n              jump\t// out\n                /* \"ethereum/contracts/investigation.sol\":1220:1297  function investigationComplete() public {\r... */\n            tag_13:\n                /* \"ethereum/contracts/investigation.sol\":1285:1289  true */\n              0x01\n                /* \"ethereum/contracts/investigation.sol\":1271:1282  isCompleted */\n              0x05\n              0x00\n                /* \"ethereum/contracts/investigation.sol\":1271:1289  isCompleted = true */\n              0x0100\n              exp\n              dup2\n              sload\n              dup2\n              0xff\n              mul\n              not\n              and\n              swap1\n              dup4\n              iszero\n              iszero\n              mul\n              or\n              swap1\n              sstore\n              pop\n                /* \"ethereum/contracts/investigation.sol\":1220:1297  function investigationComplete() public {\r... */\n              jump\t// out\n                /* \"#utility.yul\":7:125   */\n            tag_39:\n                /* \"#utility.yul\":94:118   */\n              tag_41\n                /* \"#utility.yul\":112:117   */\n              dup2\n                /* \"#utility.yul\":94:118   */\n              tag_42\n              jump\t// in\n            tag_41:\n                /* \"#utility.yul\":89:92   */\n              dup3\n                /* \"#utility.yul\":82:119   */\n              mstore\n                /* \"#utility.yul\":72:125   */\n              pop\n              pop\n              jump\t// out\n                /* \"#utility.yul\":131:240   */\n            tag_43:\n                /* \"#utility.yul\":212:233   */\n              tag_45\n                /* \"#utility.yul\":227:232   */\n              dup2\n                /* \"#utility.yul\":212:233   */\n              tag_46\n              jump\t// in\n            tag_45:\n                /* \"#utility.yul\":207:210   */\n              dup3\n                /* \"#utility.yul\":200:234   */\n              mstore\n                /* \"#utility.yul\":190:240   */\n              pop\n              pop\n              jump\t// out\n                /* \"#utility.yul\":246:610   */\n            tag_47:\n                /* \"#utility.yul\":334:337   */\n              0x00\n                /* \"#utility.yul\":362:401   */\n              tag_49\n                /* \"#utility.yul\":395:400   */\n              dup3\n                /* \"#utility.yul\":362:401   */\n              tag_50\n              jump\t// in\n            tag_49:\n                /* \"#utility.yul\":417:488   */\n              tag_51\n                /* \"#utility.yul\":481:487   */\n              dup2\n                /* \"#utility.yul\":476:479   */\n              dup6\n                /* \"#utility.yul\":417:488   */\n              tag_52\n              jump\t// in\n            tag_51:\n                /* \"#utility.yul\":410:488   */\n              swap4\n              pop\n                /* \"#utility.yul\":497:549   */\n              tag_53\n                /* \"#utility.yul\":542:548   */\n              dup2\n                /* \"#utility.yul\":537:540   */\n              dup6\n                /* \"#utility.yul\":530:534   */\n              0x20\n                /* \"#utility.yul\":523:528   */\n              dup7\n                /* \"#utility.yul\":519:535   */\n              add\n                /* \"#utility.yul\":497:549   */\n              tag_54\n              jump\t// in\n            tag_53:\n                /* \"#utility.yul\":574:603   */\n              tag_55\n                /* \"#utility.yul\":596:602   */\n              dup2\n                /* \"#utility.yul\":574:603   */\n              tag_56\n              jump\t// in\n            tag_55:\n                /* \"#utility.yul\":569:572   */\n              dup5\n                /* \"#utility.yul\":565:604   */\n              add\n                /* \"#utility.yul\":558:604   */\n              swap2\n              pop\n                /* \"#utility.yul\":338:610   */\n              pop\n              swap3\n              swap2\n              pop\n              pop\n              jump\t// out\n                /* \"#utility.yul\":616:1743   */\n            tag_9:\n                /* \"#utility.yul\":923:927   */\n              0x00\n                /* \"#utility.yul\":961:964   */\n              0xc0\n                /* \"#utility.yul\":950:959   */\n              dup3\n                /* \"#utility.yul\":946:965   */\n              add\n                /* \"#utility.yul\":938:965   */\n              swap1\n              pop\n                /* \"#utility.yul\":975:1046   */\n              tag_58\n                /* \"#utility.yul\":1043:1044   */\n              0x00\n                /* \"#utility.yul\":1032:1041   */\n              dup4\n                /* \"#utility.yul\":1028:1045   */\n              add\n                /* \"#utility.yul\":1019:1025   */\n              dup10\n                /* \"#utility.yul\":975:1046   */\n              tag_39\n              jump\t// in\n            tag_58:\n                /* \"#utility.yul\":1093:1102   */\n              dup2\n                /* \"#utility.yul\":1087:1091   */\n              dup2\n                /* \"#utility.yul\":1083:1103   */\n              sub\n                /* \"#utility.yul\":1078:1080   */\n              0x20\n                /* \"#utility.yul\":1067:1076   */\n              dup4\n                /* \"#utility.yul\":1063:1081   */\n              add\n                /* \"#utility.yul\":1056:1104   */\n              mstore\n                /* \"#utility.yul\":1121:1199   */\n              tag_59\n                /* \"#utility.yul\":1194:1198   */\n              dup2\n                /* \"#utility.yul\":1185:1191   */\n              dup9\n                /* \"#utility.yul\":1121:1199   */\n              tag_47\n              jump\t// in\n            tag_59:\n                /* \"#utility.yul\":1113:1199   */\n              swap1\n              pop\n                /* \"#utility.yul\":1246:1255   */\n              dup2\n                /* \"#utility.yul\":1240:1244   */\n              dup2\n                /* \"#utility.yul\":1236:1256   */\n              sub\n                /* \"#utility.yul\":1231:1233   */\n              0x40\n                /* \"#utility.yul\":1220:1229   */\n              dup4\n                /* \"#utility.yul\":1216:1234   */\n              add\n                /* \"#utility.yul\":1209:1257   */\n              mstore\n                /* \"#utility.yul\":1274:1352   */\n              tag_60\n                /* \"#utility.yul\":1347:1351   */\n              dup2\n                /* \"#utility.yul\":1338:1344   */\n              dup8\n                /* \"#utility.yul\":1274:1352   */\n              tag_47\n              jump\t// in\n            tag_60:\n                /* \"#utility.yul\":1266:1352   */\n              swap1\n              pop\n                /* \"#utility.yul\":1399:1408   */\n              dup2\n                /* \"#utility.yul\":1393:1397   */\n              dup2\n                /* \"#utility.yul\":1389:1409   */\n              sub\n                /* \"#utility.yul\":1384:1386   */\n              0x60\n                /* \"#utility.yul\":1373:1382   */\n              dup4\n                /* \"#utility.yul\":1369:1387   */\n              add\n                /* \"#utility.yul\":1362:1410   */\n              mstore\n                /* \"#utility.yul\":1427:1505   */\n              tag_61\n                /* \"#utility.yul\":1500:1504   */\n              dup2\n                /* \"#utility.yul\":1491:1497   */\n              dup7\n                /* \"#utility.yul\":1427:1505   */\n              tag_47\n              jump\t// in\n            tag_61:\n                /* \"#utility.yul\":1419:1505   */\n              swap1\n              pop\n                /* \"#utility.yul\":1553:1562   */\n              dup2\n                /* \"#utility.yul\":1547:1551   */\n              dup2\n                /* \"#utility.yul\":1543:1563   */\n              sub\n                /* \"#utility.yul\":1537:1540   */\n              0x80\n                /* \"#utility.yul\":1526:1535   */\n              dup4\n                /* \"#utility.yul\":1522:1541   */\n              add\n                /* \"#utility.yul\":1515:1564   */\n              mstore\n                /* \"#utility.yul\":1581:1659   */\n              tag_62\n                /* \"#utility.yul\":1654:1658   */\n              dup2\n                /* \"#utility.yul\":1645:1651   */\n              dup6\n                /* \"#utility.yul\":1581:1659   */\n              tag_47\n              jump\t// in\n            tag_62:\n                /* \"#utility.yul\":1573:1659   */\n              swap1\n              pop\n                /* \"#utility.yul\":1669:1736   */\n              tag_63\n                /* \"#utility.yul\":1731:1734   */\n              0xa0\n                /* \"#utility.yul\":1720:1729   */\n              dup4\n                /* \"#utility.yul\":1716:1735   */\n              add\n                /* \"#utility.yul\":1707:1713   */\n              dup5\n                /* \"#utility.yul\":1669:1736   */\n              tag_43\n              jump\t// in\n            tag_63:\n                /* \"#utility.yul\":928:1743   */\n              swap8\n              swap7\n              pop\n              pop\n              pop\n              pop\n              pop\n              pop\n              pop\n              jump\t// out\n                /* \"#utility.yul\":1749:1848   */\n            tag_50:\n                /* \"#utility.yul\":1801:1807   */\n              0x00\n                /* \"#utility.yul\":1835:1840   */\n              dup2\n                /* \"#utility.yul\":1829:1841   */\n              mload\n                /* \"#utility.yul\":1819:1841   */\n              swap1\n              pop\n                /* \"#utility.yul\":1808:1848   */\n              swap2\n              swap1\n              pop\n              jump\t// out\n                /* \"#utility.yul\":1854:2023   */\n            tag_52:\n                /* \"#utility.yul\":1938:1949   */\n              0x00\n                /* \"#utility.yul\":1972:1978   */\n              dup3\n                /* \"#utility.yul\":1967:1970   */\n              dup3\n                /* \"#utility.yul\":1960:1979   */\n              mstore\n                /* \"#utility.yul\":2012:2016   */\n              0x20\n                /* \"#utility.yul\":2007:2010   */\n              dup3\n                /* \"#utility.yul\":2003:2017   */\n              add\n                /* \"#utility.yul\":1988:2017   */\n              swap1\n              pop\n                /* \"#utility.yul\":1950:2023   */\n              swap3\n              swap2\n              pop\n              pop\n              jump\t// out\n                /* \"#utility.yul\":2029:2125   */\n            tag_42:\n                /* \"#utility.yul\":2066:2073   */\n              0x00\n                /* \"#utility.yul\":2095:2119   */\n              tag_67\n                /* \"#utility.yul\":2113:2118   */\n              dup3\n                /* \"#utility.yul\":2095:2119   */\n              tag_68\n              jump\t// in\n            tag_67:\n                /* \"#utility.yul\":2084:2119   */\n              swap1\n              pop\n                /* \"#utility.yul\":2074:2125   */\n              swap2\n              swap1\n              pop\n              jump\t// out\n                /* \"#utility.yul\":2131:2221   */\n            tag_46:\n                /* \"#utility.yul\":2165:2172   */\n              0x00\n                /* \"#utility.yul\":2208:2213   */\n              dup2\n                /* \"#utility.yul\":2201:2214   */\n              iszero\n                /* \"#utility.yul\":2194:2215   */\n              iszero\n                /* \"#utility.yul\":2183:2215   */\n              swap1\n              pop\n                /* \"#utility.yul\":2173:2221   */\n              swap2\n              swap1\n              pop\n              jump\t// out\n                /* \"#utility.yul\":2227:2353   */\n            tag_68:\n                /* \"#utility.yul\":2264:2271   */\n              0x00\n                /* \"#utility.yul\":2304:2346   */\n              0xffffffffffffffffffffffffffffffffffffffff\n                /* \"#utility.yul\":2297:2302   */\n              dup3\n                /* \"#utility.yul\":2293:2347   */\n              and\n                /* \"#utility.yul\":2282:2347   */\n              swap1\n              pop\n                /* \"#utility.yul\":2272:2353   */\n              swap2\n              swap1\n              pop\n              jump\t// out\n                /* \"#utility.yul\":2359:2666   */\n            tag_54:\n                /* \"#utility.yul\":2427:2428   */\n              0x00\n                /* \"#utility.yul\":2437:2550   */\n            tag_72:\n                /* \"#utility.yul\":2451:2457   */\n              dup4\n                /* \"#utility.yul\":2448:2449   */\n              dup2\n                /* \"#utility.yul\":2445:2458   */\n              lt\n                /* \"#utility.yul\":2437:2550   */\n              iszero\n              tag_74\n              jumpi\n                /* \"#utility.yul\":2536:2537   */\n              dup1\n                /* \"#utility.yul\":2531:2534   */\n              dup3\n                /* \"#utility.yul\":2527:2538   */\n              add\n                /* \"#utility.yul\":2521:2539   */\n              mload\n                /* \"#utility.yul\":2517:2518   */\n              dup2\n                /* \"#utility.yul\":2512:2515   */\n              dup5\n                /* \"#utility.yul\":2508:2519   */\n              add\n                /* \"#utility.yul\":2501:2540   */\n              mstore\n                /* \"#utility.yul\":2473:2475   */\n              0x20\n                /* \"#utility.yul\":2470:2471   */\n              dup2\n                /* \"#utility.yul\":2466:2476   */\n              add\n                /* \"#utility.yul\":2461:2476   */\n              swap1\n              pop\n                /* \"#utility.yul\":2437:2550   */\n              jump(tag_72)\n            tag_74:\n                /* \"#utility.yul\":2568:2574   */\n              dup4\n                /* \"#utility.yul\":2565:2566   */\n              dup2\n                /* \"#utility.yul\":2562:2575   */\n              gt\n                /* \"#utility.yul\":2559:2561   */\n              iszero\n              tag_75\n              jumpi\n                /* \"#utility.yul\":2648:2649   */\n              0x00\n                /* \"#utility.yul\":2639:2645   */\n              dup5\n                /* \"#utility.yul\":2634:2637   */\n              dup5\n                /* \"#utility.yul\":2630:2646   */\n              add\n                /* \"#utility.yul\":2623:2650   */\n              mstore\n                /* \"#utility.yul\":2559:2561   */\n            tag_75:\n                /* \"#utility.yul\":2408:2666   */\n              pop\n              pop\n              pop\n              pop\n              jump\t// out\n                /* \"#utility.yul\":2672:2992   */\n            tag_16:\n                /* \"#utility.yul\":2716:2722   */\n              0x00\n                /* \"#utility.yul\":2753:2754   */\n              0x02\n                /* \"#utility.yul\":2747:2751   */\n              dup3\n                /* \"#utility.yul\":2743:2755   */\n              div\n                /* \"#utility.yul\":2733:2755   */\n              swap1\n              pop\n                /* \"#utility.yul\":2800:2801   */\n              0x01\n                /* \"#utility.yul\":2794:2798   */\n              dup3\n                /* \"#utility.yul\":2790:2802   */\n              and\n                /* \"#utility.yul\":2821:2839   */\n              dup1\n                /* \"#utility.yul\":2811:2813   */\n              tag_77\n              jumpi\n                /* \"#utility.yul\":2877:2881   */\n              0x7f\n                /* \"#utility.yul\":2869:2875   */\n              dup3\n                /* \"#utility.yul\":2865:2882   */\n              and\n                /* \"#utility.yul\":2855:2882   */\n              swap2\n              pop\n                /* \"#utility.yul\":2811:2813   */\n            tag_77:\n                /* \"#utility.yul\":2939:2941   */\n              0x20\n                /* \"#utility.yul\":2931:2937   */\n              dup3\n                /* \"#utility.yul\":2928:2942   */\n              lt\n                /* \"#utility.yul\":2908:2926   */\n              dup2\n                /* \"#utility.yul\":2905:2943   */\n              eq\n                /* \"#utility.yul\":2902:2904   */\n              iszero\n              tag_78\n              jumpi\n                /* \"#utility.yul\":2958:2976   */\n              tag_79\n              tag_80\n              jump\t// in\n            tag_79:\n                /* \"#utility.yul\":2902:2904   */\n            tag_78:\n                /* \"#utility.yul\":2723:2992   */\n              pop\n              swap2\n              swap1\n              pop\n              jump\t// out\n                /* \"#utility.yul\":2998:3178   */\n            tag_80:\n                /* \"#utility.yul\":3046:3123   */\n              0x4e487b7100000000000000000000000000000000000000000000000000000000\n                /* \"#utility.yul\":3043:3044   */\n              0x00\n                /* \"#utility.yul\":3036:3124   */\n              mstore\n                /* \"#utility.yul\":3143:3147   */\n              0x22\n                /* \"#utility.yul\":3140:3141   */\n              0x04\n                /* \"#utility.yul\":3133:3148   */\n              mstore\n                /* \"#utility.yul\":3167:3171   */\n              0x24\n                /* \"#utility.yul\":3164:3165   */\n              0x00\n                /* \"#utility.yul\":3157:3172   */\n              revert\n                /* \"#utility.yul\":3184:3286   */\n            tag_56:\n                /* \"#utility.yul\":3225:3231   */\n              0x00\n                /* \"#utility.yul\":3276:3278   */\n              0x1f\n                /* \"#utility.yul\":3272:3279   */\n              not\n                /* \"#utility.yul\":3267:3269   */\n              0x1f\n                /* \"#utility.yul\":3260:3265   */\n              dup4\n                /* \"#utility.yul\":3256:3270   */\n              add\n                /* \"#utility.yul\":3252:3280   */\n              and\n                /* \"#utility.yul\":3242:3280   */\n              swap1\n              pop\n                /* \"#utility.yul\":3232:3286   */\n              swap2\n              swap1\n              pop\n              jump\t// out\n\n            auxdata: 0xa2646970667358221220fadfa511049d76825b5c59cb49ed3eaa81fad4ebeadcac2c30085ab7f3ed2d1a64736f6c63430008060033\n        }\n    }\n\n    auxdata: 0xa264697066735822122087c6f02d7323450f2bd0a44c80002b4b2940b897321b29093939cb724c1d678d64736f6c63430008060033\n}\n",
				"bytecode": {
					"linkReferences": {},
					"object": "608060405234801561001057600080fd5b5061126d806100206000396000f3fe60806040523480156200001157600080fd5b5060043610620000465760003560e01c806354e0b217146200004b5780639ad1ee10146200006b578063aa9a068f14620000a1575b600080fd5b620000696004803603810190620000639190620002f7565b620000c3565b005b620000896004803603810190620000839190620003fb565b6200016d565b60405162000098919062000514565b60405180910390f35b620000ab620001ad565b604051620000ba9190620005aa565b60405180910390f35b60008585858585604051620000d8906200023d565b620000e895949392919062000531565b604051809103906000f08015801562000105573d6000803e3d6000fd5b509080600181540180825580915050600190039060005260206000200160009091909190916101000a81548173ffffffffffffffffffffffffffffffffffffffff021916908373ffffffffffffffffffffffffffffffffffffffff1602179055505050505050565b600081815481106200017e57600080fd5b906000526020600020016000915054906101000a900473ffffffffffffffffffffffffffffffffffffffff1681565b606060008054806020026020016040519081016040528092919081815260200182805480156200023357602002820191906000526020600020905b8160009054906101000a900473ffffffffffffffffffffffffffffffffffffffff1673ffffffffffffffffffffffffffffffffffffffff1681526020019060010190808311620001e8575b5050505050905090565b610a7480620007c483390190565b6000620002626200025c84620005f7565b620005ce565b9050828152602081018484840111156200028157620002806200076f565b5b6200028e848285620006c0565b509392505050565b600081359050620002a7816200078f565b92915050565b600082601f830112620002c557620002c46200076a565b5b8135620002d78482602086016200024b565b91505092915050565b600081359050620002f181620007a9565b92915050565b600080600080600060a0868803121562000316576200031562000779565b5b6000620003268882890162000296565b955050602086013567ffffffffffffffff8111156200034a576200034962000774565b5b6200035888828901620002ad565b945050604086013567ffffffffffffffff8111156200037c576200037b62000774565b5b6200038a88828901620002ad565b935050606086013567ffffffffffffffff811115620003ae57620003ad62000774565b5b620003bc88828901620002ad565b925050608086013567ffffffffffffffff811115620003e057620003df62000774565b5b620003ee88828901620002ad565b9150509295509295909350565b60006020828403121562000414576200041362000779565b5b60006200042484828501620002e0565b91505092915050565b60006200043b838362000447565b60208301905092915050565b620004528162000682565b82525050565b620004638162000682565b82525050565b600062000476826200063d565b62000482818562000660565b93506200048f836200062d565b8060005b83811015620004c6578151620004aa88826200042d565b9750620004b78362000653565b92505060018101905062000493565b5085935050505092915050565b6000620004e08262000648565b620004ec818562000671565b9350620004fe818560208601620006cf565b62000509816200077e565b840191505092915050565b60006020820190506200052b600083018462000458565b92915050565b600060a08201905062000548600083018862000458565b81810360208301526200055c8187620004d3565b90508181036040830152620005728186620004d3565b90508181036060830152620005888185620004d3565b905081810360808301526200059e8184620004d3565b90509695505050505050565b60006020820190508181036000830152620005c6818462000469565b905092915050565b6000620005da620005ed565b9050620005e8828262000705565b919050565b6000604051905090565b600067ffffffffffffffff8211156200061557620006146200073b565b5b62000620826200077e565b9050602081019050919050565b6000819050602082019050919050565b600081519050919050565b600081519050919050565b6000602082019050919050565b600082825260208201905092915050565b600082825260208201905092915050565b60006200068f8262000696565b9050919050565b600073ffffffffffffffffffffffffffffffffffffffff82169050919050565b6000819050919050565b82818337600083830152505050565b60005b83811015620006ef578082015181840152602081019050620006d2565b83811115620006ff576000848401525b50505050565b62000710826200077e565b810181811067ffffffffffffffff821117156200073257620007316200073b565b5b80604052505050565b7f4e487b7100000000000000000000000000000000000000000000000000000000600052604160045260246000fd5b600080fd5b600080fd5b600080fd5b600080fd5b6000601f19601f8301169050919050565b6200079a8162000682565b8114620007a657600080fd5b50565b620007b481620006b6565b8114620007c057600080fd5b5056fe60806040523480156200001157600080fd5b5060405162000a7438038062000a74833981810160405281019062000037919062000246565b846000806101000a81548173ffffffffffffffffffffffffffffffffffffffff021916908373ffffffffffffffffffffffffffffffffffffffff16021790555083600190805190602001906200008f92919062000101565b508260029080519060200190620000a892919062000101565b508160039080519060200190620000c192919062000101565b508060049080519060200190620000da92919062000101565b506000600560006101000a81548160ff02191690831515021790555050505050506200051c565b8280546200010f9062000413565b90600052602060002090601f0160209004810192826200013357600085556200017f565b82601f106200014e57805160ff19168380011785556200017f565b828001600101855582156200017f579182015b828111156200017e57825182559160200191906001019062000161565b5b5090506200018e919062000192565b5090565b5b80821115620001ad57600081600090555060010162000193565b5090565b6000620001c8620001c28462000373565b6200034a565b905082815260208101848484011115620001e757620001e6620004e2565b5b620001f4848285620003dd565b509392505050565b6000815190506200020d8162000502565b92915050565b600082601f8301126200022b576200022a620004dd565b5b81516200023d848260208601620001b1565b91505092915050565b600080600080600060a08688031215620002655762000264620004ec565b5b60006200027588828901620001fc565b955050602086015167ffffffffffffffff811115620002995762000298620004e7565b5b620002a78882890162000213565b945050604086015167ffffffffffffffff811115620002cb57620002ca620004e7565b5b620002d98882890162000213565b935050606086015167ffffffffffffffff811115620002fd57620002fc620004e7565b5b6200030b8882890162000213565b925050608086015167ffffffffffffffff8111156200032f576200032e620004e7565b5b6200033d8882890162000213565b9150509295509295909350565b60006200035662000369565b905062000364828262000449565b919050565b6000604051905090565b600067ffffffffffffffff821115620003915762000390620004ae565b5b6200039c82620004f1565b9050602081019050919050565b6000620003b682620003bd565b9050919050565b600073ffffffffffffffffffffffffffffffffffffffff82169050919050565b60005b83811015620003fd578082015181840152602081019050620003e0565b838111156200040d576000848401525b50505050565b600060028204905060018216806200042c57607f821691505b602082108114156200044357620004426200047f565b5b50919050565b6200045482620004f1565b810181811067ffffffffffffffff82111715620004765762000475620004ae565b5b80604052505050565b7f4e487b7100000000000000000000000000000000000000000000000000000000600052602260045260246000fd5b7f4e487b7100000000000000000000000000000000000000000000000000000000600052604160045260246000fd5b600080fd5b600080fd5b600080fd5b600080fd5b6000601f19601f8301169050919050565b6200050d81620003a9565b81146200051957600080fd5b50565b610548806200052c6000396000f3fe608060405234801561001057600080fd5b50600436106100415760003560e01c80633bc5de3014610046578063973b46bb14610069578063e7bb25e014610073575b600080fd5b61004e61007d565b60405161006096959493929190610396565b60405180910390f35b610071610305565b005b61007b610322565b005b600060608060608060008060009054906101000a900473ffffffffffffffffffffffffffffffffffffffff166001600260036004600560009054906101000a900460ff168480546100cd906104a0565b80601f01602080910402602001604051908101604052809291908181526020018280546100f9906104a0565b80156101465780601f1061011b57610100808354040283529160200191610146565b820191906000526020600020905b81548152906001019060200180831161012957829003601f168201915b50505050509450838054610159906104a0565b80601f0160208091040260200160405190810160405280929190818152602001828054610185906104a0565b80156101d25780601f106101a7576101008083540402835291602001916101d2565b820191906000526020600020905b8154815290600101906020018083116101b557829003601f168201915b505050505093508280546101e5906104a0565b80601f0160208091040260200160405190810160405280929190818152602001828054610211906104a0565b801561025e5780601f106102335761010080835404028352916020019161025e565b820191906000526020600020905b81548152906001019060200180831161024157829003601f168201915b50505050509250818054610271906104a0565b80601f016020809104026020016040519081016040528092919081815260200182805461029d906104a0565b80156102ea5780601f106102bf576101008083540402835291602001916102ea565b820191906000526020600020905b8154815290600101906020018083116102cd57829003601f168201915b50505050509150955095509550955095509550909192939495565b6000600560006101000a81548160ff021916908315150217905550565b6001600560006101000a81548160ff021916908315150217905550565b6103488161042f565b82525050565b61035781610441565b82525050565b600061036882610413565b610372818561041e565b935061038281856020860161046d565b61038b81610501565b840191505092915050565b600060c0820190506103ab600083018961033f565b81810360208301526103bd818861035d565b905081810360408301526103d1818761035d565b905081810360608301526103e5818661035d565b905081810360808301526103f9818561035d565b905061040860a083018461034e565b979650505050505050565b600081519050919050565b600082825260208201905092915050565b600061043a8261044d565b9050919050565b60008115159050919050565b600073ffffffffffffffffffffffffffffffffffffffff82169050919050565b60005b8381101561048b578082015181840152602081019050610470565b8381111561049a576000848401525b50505050565b600060028204905060018216806104b857607f821691505b602082108114156104cc576104cb6104d2565b5b50919050565b7f4e487b7100000000000000000000000000000000000000000000000000000000600052602260045260246000fd5b6000601f19601f830116905091905056fea2646970667358221220fadfa511049d76825b5c59cb49ed3eaa81fad4ebeadcac2c30085ab7f3ed2d1a64736f6c63430008060033a264697066735822122087c6f02d7323450f2bd0a44c80002b4b2940b897321b29093939cb724c1d678d64736f6c63430008060033",
					"opcodes": "PUSH1 0x80 PUSH1 0x40 MSTORE CALLVALUE DUP1 ISZERO PUSH2 0x10 JUMPI PUSH1 0x0 DUP1 REVERT JUMPDEST POP PUSH2 0x126D DUP1 PUSH2 0x20 PUSH1 0x0 CODECOPY PUSH1 0x0 RETURN INVALID PUSH1 0x80 PUSH1 0x40 MSTORE CALLVALUE DUP1 ISZERO PUSH3 0x11 JUMPI PUSH1 0x0 DUP1 REVERT JUMPDEST POP PUSH1 0x4 CALLDATASIZE LT PUSH3 0x46 JUMPI PUSH1 0x0 CALLDATALOAD PUSH1 0xE0 SHR DUP1 PUSH4 0x54E0B217 EQ PUSH3 0x4B JUMPI DUP1 PUSH4 0x9AD1EE10 EQ PUSH3 0x6B JUMPI DUP1 PUSH4 0xAA9A068F EQ PUSH3 0xA1 JUMPI JUMPDEST PUSH1 0x0 DUP1 REVERT JUMPDEST PUSH3 0x69 PUSH1 0x4 DUP1 CALLDATASIZE SUB DUP2 ADD SWAP1 PUSH3 0x63 SWAP2 SWAP1 PUSH3 0x2F7 JUMP JUMPDEST PUSH3 0xC3 JUMP JUMPDEST STOP JUMPDEST PUSH3 0x89 PUSH1 0x4 DUP1 CALLDATASIZE SUB DUP2 ADD SWAP1 PUSH3 0x83 SWAP2 SWAP1 PUSH3 0x3FB JUMP JUMPDEST PUSH3 0x16D JUMP JUMPDEST PUSH1 0x40 MLOAD PUSH3 0x98 SWAP2 SWAP1 PUSH3 0x514 JUMP JUMPDEST PUSH1 0x40 MLOAD DUP1 SWAP2 SUB SWAP1 RETURN JUMPDEST PUSH3 0xAB PUSH3 0x1AD JUMP JUMPDEST PUSH1 0x40 MLOAD PUSH3 0xBA SWAP2 SWAP1 PUSH3 0x5AA JUMP JUMPDEST PUSH1 0x40 MLOAD DUP1 SWAP2 SUB SWAP1 RETURN JUMPDEST PUSH1 0x0 DUP6 DUP6 DUP6 DUP6 DUP6 PUSH1 0x40 MLOAD PUSH3 0xD8 SWAP1 PUSH3 0x23D JUMP JUMPDEST PUSH3 0xE8 SWAP6 SWAP5 SWAP4 SWAP3 SWAP2 SWAP1 PUSH3 0x531 JUMP JUMPDEST PUSH1 0x40 MLOAD DUP1 SWAP2 SUB SWAP1 PUSH1 0x0 CREATE DUP1 ISZERO DUP1 ISZERO PUSH3 0x105 JUMPI RETURNDATASIZE PUSH1 0x0 DUP1 RETURNDATACOPY RETURNDATASIZE PUSH1 0x0 REVERT JUMPDEST POP SWAP1 DUP1 PUSH1 0x1 DUP2 SLOAD ADD DUP1 DUP3 SSTORE DUP1 SWAP2 POP POP PUSH1 0x1 SWAP1 SUB SWAP1 PUSH1 0x0 MSTORE PUSH1 0x20 PUSH1 0x0 KECCAK256 ADD PUSH1 0x0 SWAP1 SWAP2 SWAP1 SWAP2 SWAP1 SWAP2 PUSH2 0x100 EXP DUP2 SLOAD DUP2 PUSH20 0xFFFFFFFFFFFFFFFFFFFFFFFFFFFFFFFFFFFFFFFF MUL NOT AND SWAP1 DUP4 PUSH20 0xFFFFFFFFFFFFFFFFFFFFFFFFFFFFFFFFFFFFFFFF AND MUL OR SWAP1 SSTORE POP POP POP POP POP POP JUMP JUMPDEST PUSH1 0x0 DUP2 DUP2 SLOAD DUP2 LT PUSH3 0x17E JUMPI PUSH1 0x0 DUP1 REVERT JUMPDEST SWAP1 PUSH1 0x0 MSTORE PUSH1 0x20 PUSH1 0x0 KECCAK256 ADD PUSH1 0x0 SWAP2 POP SLOAD SWAP1 PUSH2 0x100 EXP SWAP1 DIV PUSH20 0xFFFFFFFFFFFFFFFFFFFFFFFFFFFFFFFFFFFFFFFF AND DUP2 JUMP JUMPDEST PUSH1 0x60 PUSH1 0x0 DUP1 SLOAD DUP1 PUSH1 0x20 MUL PUSH1 0x20 ADD PUSH1 0x40 MLOAD SWAP1 DUP2 ADD PUSH1 0x40 MSTORE DUP1 SWAP3 SWAP2 SWAP1 DUP2 DUP2 MSTORE PUSH1 0x20 ADD DUP3 DUP1 SLOAD DUP1 ISZERO PUSH3 0x233 JUMPI PUSH1 0x20 MUL DUP3 ADD SWAP2 SWAP1 PUSH1 0x0 MSTORE PUSH1 0x20 PUSH1 0x0 KECCAK256 SWAP1 JUMPDEST DUP2 PUSH1 0x0 SWAP1 SLOAD SWAP1 PUSH2 0x100 EXP SWAP1 DIV PUSH20 0xFFFFFFFFFFFFFFFFFFFFFFFFFFFFFFFFFFFFFFFF AND PUSH20 0xFFFFFFFFFFFFFFFFFFFFFFFFFFFFFFFFFFFFFFFF AND DUP2 MSTORE PUSH1 0x20 ADD SWAP1 PUSH1 0x1 ADD SWAP1 DUP1 DUP4 GT PUSH3 0x1E8 JUMPI JUMPDEST POP POP POP POP POP SWAP1 POP SWAP1 JUMP JUMPDEST PUSH2 0xA74 DUP1 PUSH3 0x7C4 DUP4 CODECOPY ADD SWAP1 JUMP JUMPDEST PUSH1 0x0 PUSH3 0x262 PUSH3 0x25C DUP5 PUSH3 0x5F7 JUMP JUMPDEST PUSH3 0x5CE JUMP JUMPDEST SWAP1 POP DUP3 DUP2 MSTORE PUSH1 0x20 DUP2 ADD DUP5 DUP5 DUP5 ADD GT ISZERO PUSH3 0x281 JUMPI PUSH3 0x280 PUSH3 0x76F JUMP JUMPDEST JUMPDEST PUSH3 0x28E DUP5 DUP3 DUP6 PUSH3 0x6C0 JUMP JUMPDEST POP SWAP4 SWAP3 POP POP POP JUMP JUMPDEST PUSH1 0x0 DUP2 CALLDATALOAD SWAP1 POP PUSH3 0x2A7 DUP2 PUSH3 0x78F JUMP JUMPDEST SWAP3 SWAP2 POP POP JUMP JUMPDEST PUSH1 0x0 DUP3 PUSH1 0x1F DUP4 ADD SLT PUSH3 0x2C5 JUMPI PUSH3 0x2C4 PUSH3 0x76A JUMP JUMPDEST JUMPDEST DUP2 CALLDATALOAD PUSH3 0x2D7 DUP5 DUP3 PUSH1 0x20 DUP7 ADD PUSH3 0x24B JUMP JUMPDEST SWAP2 POP POP SWAP3 SWAP2 POP POP JUMP JUMPDEST PUSH1 0x0 DUP2 CALLDATALOAD SWAP1 POP PUSH3 0x2F1 DUP2 PUSH3 0x7A9 JUMP JUMPDEST SWAP3 SWAP2 POP POP JUMP JUMPDEST PUSH1 0x0 DUP1 PUSH1 0x0 DUP1 PUSH1 0x0 PUSH1 0xA0 DUP7 DUP9 SUB SLT ISZERO PUSH3 0x316 JUMPI PUSH3 0x315 PUSH3 0x779 JUMP JUMPDEST JUMPDEST PUSH1 0x0 PUSH3 0x326 DUP9 DUP3 DUP10 ADD PUSH3 0x296 JUMP JUMPDEST SWAP6 POP POP PUSH1 0x20 DUP7 ADD CALLDATALOAD PUSH8 0xFFFFFFFFFFFFFFFF DUP2 GT ISZERO PUSH3 0x34A JUMPI PUSH3 0x349 PUSH3 0x774 JUMP JUMPDEST JUMPDEST PUSH3 0x358 DUP9 DUP3 DUP10 ADD PUSH3 0x2AD JUMP JUMPDEST SWAP5 POP POP PUSH1 0x40 DUP7 ADD CALLDATALOAD PUSH8 0xFFFFFFFFFFFFFFFF DUP2 GT ISZERO PUSH3 0x37C JUMPI PUSH3 0x37B PUSH3 0x774 JUMP JUMPDEST JUMPDEST PUSH3 0x38A DUP9 DUP3 DUP10 ADD PUSH3 0x2AD JUMP JUMPDEST SWAP4 POP POP PUSH1 0x60 DUP7 ADD CALLDATALOAD PUSH8 0xFFFFFFFFFFFFFFFF DUP2 GT ISZERO PUSH3 0x3AE JUMPI PUSH3 0x3AD PUSH3 0x774 JUMP JUMPDEST JUMPDEST PUSH3 0x3BC DUP9 DUP3 DUP10 ADD PUSH3 0x2AD JUMP JUMPDEST SWAP3 POP POP PUSH1 0x80 DUP7 ADD CALLDATALOAD PUSH8 0xFFFFFFFFFFFFFFFF DUP2 GT ISZERO PUSH3 0x3E0 JUMPI PUSH3 0x3DF PUSH3 0x774 JUMP JUMPDEST JUMPDEST PUSH3 0x3EE DUP9 DUP3 DUP10 ADD PUSH3 0x2AD JUMP JUMPDEST SWAP2 POP POP SWAP3 SWAP6 POP SWAP3 SWAP6 SWAP1 SWAP4 POP JUMP JUMPDEST PUSH1 0x0 PUSH1 0x20 DUP3 DUP5 SUB SLT ISZERO PUSH3 0x414 JUMPI PUSH3 0x413 PUSH3 0x779 JUMP JUMPDEST JUMPDEST PUSH1 0x0 PUSH3 0x424 DUP5 DUP3 DUP6 ADD PUSH3 0x2E0 JUMP JUMPDEST SWAP2 POP POP SWAP3 SWAP2 POP POP JUMP JUMPDEST PUSH1 0x0 PUSH3 0x43B DUP4 DUP4 PUSH3 0x447 JUMP JUMPDEST PUSH1 0x20 DUP4 ADD SWAP1 POP SWAP3 SWAP2 POP POP JUMP JUMPDEST PUSH3 0x452 DUP2 PUSH3 0x682 JUMP JUMPDEST DUP3 MSTORE POP POP JUMP JUMPDEST PUSH3 0x463 DUP2 PUSH3 0x682 JUMP JUMPDEST DUP3 MSTORE POP POP JUMP JUMPDEST PUSH1 0x0 PUSH3 0x476 DUP3 PUSH3 0x63D JUMP JUMPDEST PUSH3 0x482 DUP2 DUP6 PUSH3 0x660 JUMP JUMPDEST SWAP4 POP PUSH3 0x48F DUP4 PUSH3 0x62D JUMP JUMPDEST DUP1 PUSH1 0x0 JUMPDEST DUP4 DUP2 LT ISZERO PUSH3 0x4C6 JUMPI DUP2 MLOAD PUSH3 0x4AA DUP9 DUP3 PUSH3 0x42D JUMP JUMPDEST SWAP8 POP PUSH3 0x4B7 DUP4 PUSH3 0x653 JUMP JUMPDEST SWAP3 POP POP PUSH1 0x1 DUP2 ADD SWAP1 POP PUSH3 0x493 JUMP JUMPDEST POP DUP6 SWAP4 POP POP POP POP SWAP3 SWAP2 POP POP JUMP JUMPDEST PUSH1 0x0 PUSH3 0x4E0 DUP3 PUSH3 0x648 JUMP JUMPDEST PUSH3 0x4EC DUP2 DUP6 PUSH3 0x671 JUMP JUMPDEST SWAP4 POP PUSH3 0x4FE DUP2 DUP6 PUSH1 0x20 DUP7 ADD PUSH3 0x6CF JUMP JUMPDEST PUSH3 0x509 DUP2 PUSH3 0x77E JUMP JUMPDEST DUP5 ADD SWAP2 POP POP SWAP3 SWAP2 POP POP JUMP JUMPDEST PUSH1 0x0 PUSH1 0x20 DUP3 ADD SWAP1 POP PUSH3 0x52B PUSH1 0x0 DUP4 ADD DUP5 PUSH3 0x458 JUMP JUMPDEST SWAP3 SWAP2 POP POP JUMP JUMPDEST PUSH1 0x0 PUSH1 0xA0 DUP3 ADD SWAP1 POP PUSH3 0x548 PUSH1 0x0 DUP4 ADD DUP9 PUSH3 0x458 JUMP JUMPDEST DUP2 DUP2 SUB PUSH1 0x20 DUP4 ADD MSTORE PUSH3 0x55C DUP2 DUP8 PUSH3 0x4D3 JUMP JUMPDEST SWAP1 POP DUP2 DUP2 SUB PUSH1 0x40 DUP4 ADD MSTORE PUSH3 0x572 DUP2 DUP7 PUSH3 0x4D3 JUMP JUMPDEST SWAP1 POP DUP2 DUP2 SUB PUSH1 0x60 DUP4 ADD MSTORE PUSH3 0x588 DUP2 DUP6 PUSH3 0x4D3 JUMP JUMPDEST SWAP1 POP DUP2 DUP2 SUB PUSH1 0x80 DUP4 ADD MSTORE PUSH3 0x59E DUP2 DUP5 PUSH3 0x4D3 JUMP JUMPDEST SWAP1 POP SWAP7 SWAP6 POP POP POP POP POP POP JUMP JUMPDEST PUSH1 0x0 PUSH1 0x20 DUP3 ADD SWAP1 POP DUP2 DUP2 SUB PUSH1 0x0 DUP4 ADD MSTORE PUSH3 0x5C6 DUP2 DUP5 PUSH3 0x469 JUMP JUMPDEST SWAP1 POP SWAP3 SWAP2 POP POP JUMP JUMPDEST PUSH1 0x0 PUSH3 0x5DA PUSH3 0x5ED JUMP JUMPDEST SWAP1 POP PUSH3 0x5E8 DUP3 DUP3 PUSH3 0x705 JUMP JUMPDEST SWAP2 SWAP1 POP JUMP JUMPDEST PUSH1 0x0 PUSH1 0x40 MLOAD SWAP1 POP SWAP1 JUMP JUMPDEST PUSH1 0x0 PUSH8 0xFFFFFFFFFFFFFFFF DUP3 GT ISZERO PUSH3 0x615 JUMPI PUSH3 0x614 PUSH3 0x73B JUMP JUMPDEST JUMPDEST PUSH3 0x620 DUP3 PUSH3 0x77E JUMP JUMPDEST SWAP1 POP PUSH1 0x20 DUP2 ADD SWAP1 POP SWAP2 SWAP1 POP JUMP JUMPDEST PUSH1 0x0 DUP2 SWAP1 POP PUSH1 0x20 DUP3 ADD SWAP1 POP SWAP2 SWAP1 POP JUMP JUMPDEST PUSH1 0x0 DUP2 MLOAD SWAP1 POP SWAP2 SWAP1 POP JUMP JUMPDEST PUSH1 0x0 DUP2 MLOAD SWAP1 POP SWAP2 SWAP1 POP JUMP JUMPDEST PUSH1 0x0 PUSH1 0x20 DUP3 ADD SWAP1 POP SWAP2 SWAP1 POP JUMP JUMPDEST PUSH1 0x0 DUP3 DUP3 MSTORE PUSH1 0x20 DUP3 ADD SWAP1 POP SWAP3 SWAP2 POP POP JUMP JUMPDEST PUSH1 0x0 DUP3 DUP3 MSTORE PUSH1 0x20 DUP3 ADD SWAP1 POP SWAP3 SWAP2 POP POP JUMP JUMPDEST PUSH1 0x0 PUSH3 0x68F DUP3 PUSH3 0x696 JUMP JUMPDEST SWAP1 POP SWAP2 SWAP1 POP JUMP JUMPDEST PUSH1 0x0 PUSH20 0xFFFFFFFFFFFFFFFFFFFFFFFFFFFFFFFFFFFFFFFF DUP3 AND SWAP1 POP SWAP2 SWAP1 POP JUMP JUMPDEST PUSH1 0x0 DUP2 SWAP1 POP SWAP2 SWAP1 POP JUMP JUMPDEST DUP3 DUP2 DUP4 CALLDATACOPY PUSH1 0x0 DUP4 DUP4 ADD MSTORE POP POP POP JUMP JUMPDEST PUSH1 0x0 JUMPDEST DUP4 DUP2 LT ISZERO PUSH3 0x6EF JUMPI DUP1 DUP3 ADD MLOAD DUP2 DUP5 ADD MSTORE PUSH1 0x20 DUP2 ADD SWAP1 POP PUSH3 0x6D2 JUMP JUMPDEST DUP4 DUP2 GT ISZERO PUSH3 0x6FF JUMPI PUSH1 0x0 DUP5 DUP5 ADD MSTORE JUMPDEST POP POP POP POP JUMP JUMPDEST PUSH3 0x710 DUP3 PUSH3 0x77E JUMP JUMPDEST DUP2 ADD DUP2 DUP2 LT PUSH8 0xFFFFFFFFFFFFFFFF DUP3 GT OR ISZERO PUSH3 0x732 JUMPI PUSH3 0x731 PUSH3 0x73B JUMP JUMPDEST JUMPDEST DUP1 PUSH1 0x40 MSTORE POP POP POP JUMP JUMPDEST PUSH32 0x4E487B7100000000000000000000000000000000000000000000000000000000 PUSH1 0x0 MSTORE PUSH1 0x41 PUSH1 0x4 MSTORE PUSH1 0x24 PUSH1 0x0 REVERT JUMPDEST PUSH1 0x0 DUP1 REVERT JUMPDEST PUSH1 0x0 DUP1 REVERT JUMPDEST PUSH1 0x0 DUP1 REVERT JUMPDEST PUSH1 0x0 DUP1 REVERT JUMPDEST PUSH1 0x0 PUSH1 0x1F NOT PUSH1 0x1F DUP4 ADD AND SWAP1 POP SWAP2 SWAP1 POP JUMP JUMPDEST PUSH3 0x79A DUP2 PUSH3 0x682 JUMP JUMPDEST DUP2 EQ PUSH3 0x7A6 JUMPI PUSH1 0x0 DUP1 REVERT JUMPDEST POP JUMP JUMPDEST PUSH3 0x7B4 DUP2 PUSH3 0x6B6 JUMP JUMPDEST DUP2 EQ PUSH3 0x7C0 JUMPI PUSH1 0x0 DUP1 REVERT JUMPDEST POP JUMP INVALID PUSH1 0x80 PUSH1 0x40 MSTORE CALLVALUE DUP1 ISZERO PUSH3 0x11 JUMPI PUSH1 0x0 DUP1 REVERT JUMPDEST POP PUSH1 0x40 MLOAD PUSH3 0xA74 CODESIZE SUB DUP1 PUSH3 0xA74 DUP4 CODECOPY DUP2 DUP2 ADD PUSH1 0x40 MSTORE DUP2 ADD SWAP1 PUSH3 0x37 SWAP2 SWAP1 PUSH3 0x246 JUMP JUMPDEST DUP5 PUSH1 0x0 DUP1 PUSH2 0x100 EXP DUP2 SLOAD DUP2 PUSH20 0xFFFFFFFFFFFFFFFFFFFFFFFFFFFFFFFFFFFFFFFF MUL NOT AND SWAP1 DUP4 PUSH20 0xFFFFFFFFFFFFFFFFFFFFFFFFFFFFFFFFFFFFFFFF AND MUL OR SWAP1 SSTORE POP DUP4 PUSH1 0x1 SWAP1 DUP1 MLOAD SWAP1 PUSH1 0x20 ADD SWAP1 PUSH3 0x8F SWAP3 SWAP2 SWAP1 PUSH3 0x101 JUMP JUMPDEST POP DUP3 PUSH1 0x2 SWAP1 DUP1 MLOAD SWAP1 PUSH1 0x20 ADD SWAP1 PUSH3 0xA8 SWAP3 SWAP2 SWAP1 PUSH3 0x101 JUMP JUMPDEST POP DUP2 PUSH1 0x3 SWAP1 DUP1 MLOAD SWAP1 PUSH1 0x20 ADD SWAP1 PUSH3 0xC1 SWAP3 SWAP2 SWAP1 PUSH3 0x101 JUMP JUMPDEST POP DUP1 PUSH1 0x4 SWAP1 DUP1 MLOAD SWAP1 PUSH1 0x20 ADD SWAP1 PUSH3 0xDA SWAP3 SWAP2 SWAP1 PUSH3 0x101 JUMP JUMPDEST POP PUSH1 0x0 PUSH1 0x5 PUSH1 0x0 PUSH2 0x100 EXP DUP2 SLOAD DUP2 PUSH1 0xFF MUL NOT AND SWAP1 DUP4 ISZERO ISZERO MUL OR SWAP1 SSTORE POP POP POP POP POP POP PUSH3 0x51C JUMP JUMPDEST DUP3 DUP1 SLOAD PUSH3 0x10F SWAP1 PUSH3 0x413 JUMP JUMPDEST SWAP1 PUSH1 0x0 MSTORE PUSH1 0x20 PUSH1 0x0 KECCAK256 SWAP1 PUSH1 0x1F ADD PUSH1 0x20 SWAP1 DIV DUP2 ADD SWAP3 DUP3 PUSH3 0x133 JUMPI PUSH1 0x0 DUP6 SSTORE PUSH3 0x17F JUMP JUMPDEST DUP3 PUSH1 0x1F LT PUSH3 0x14E JUMPI DUP1 MLOAD PUSH1 0xFF NOT AND DUP4 DUP1 ADD OR DUP6 SSTORE PUSH3 0x17F JUMP JUMPDEST DUP3 DUP1 ADD PUSH1 0x1 ADD DUP6 SSTORE DUP3 ISZERO PUSH3 0x17F JUMPI SWAP2 DUP3 ADD JUMPDEST DUP3 DUP2 GT ISZERO PUSH3 0x17E JUMPI DUP3 MLOAD DUP3 SSTORE SWAP2 PUSH1 0x20 ADD SWAP2 SWAP1 PUSH1 0x1 ADD SWAP1 PUSH3 0x161 JUMP JUMPDEST JUMPDEST POP SWAP1 POP PUSH3 0x18E SWAP2 SWAP1 PUSH3 0x192 JUMP JUMPDEST POP SWAP1 JUMP JUMPDEST JUMPDEST DUP1 DUP3 GT ISZERO PUSH3 0x1AD JUMPI PUSH1 0x0 DUP2 PUSH1 0x0 SWAP1 SSTORE POP PUSH1 0x1 ADD PUSH3 0x193 JUMP JUMPDEST POP SWAP1 JUMP JUMPDEST PUSH1 0x0 PUSH3 0x1C8 PUSH3 0x1C2 DUP5 PUSH3 0x373 JUMP JUMPDEST PUSH3 0x34A JUMP JUMPDEST SWAP1 POP DUP3 DUP2 MSTORE PUSH1 0x20 DUP2 ADD DUP5 DUP5 DUP5 ADD GT ISZERO PUSH3 0x1E7 JUMPI PUSH3 0x1E6 PUSH3 0x4E2 JUMP JUMPDEST JUMPDEST PUSH3 0x1F4 DUP5 DUP3 DUP6 PUSH3 0x3DD JUMP JUMPDEST POP SWAP4 SWAP3 POP POP POP JUMP JUMPDEST PUSH1 0x0 DUP2 MLOAD SWAP1 POP PUSH3 0x20D DUP2 PUSH3 0x502 JUMP JUMPDEST SWAP3 SWAP2 POP POP JUMP JUMPDEST PUSH1 0x0 DUP3 PUSH1 0x1F DUP4 ADD SLT PUSH3 0x22B JUMPI PUSH3 0x22A PUSH3 0x4DD JUMP JUMPDEST JUMPDEST DUP2 MLOAD PUSH3 0x23D DUP5 DUP3 PUSH1 0x20 DUP7 ADD PUSH3 0x1B1 JUMP JUMPDEST SWAP2 POP POP SWAP3 SWAP2 POP POP JUMP JUMPDEST PUSH1 0x0 DUP1 PUSH1 0x0 DUP1 PUSH1 0x0 PUSH1 0xA0 DUP7 DUP9 SUB SLT ISZERO PUSH3 0x265 JUMPI PUSH3 0x264 PUSH3 0x4EC JUMP JUMPDEST JUMPDEST PUSH1 0x0 PUSH3 0x275 DUP9 DUP3 DUP10 ADD PUSH3 0x1FC JUMP JUMPDEST SWAP6 POP POP PUSH1 0x20 DUP7 ADD MLOAD PUSH8 0xFFFFFFFFFFFFFFFF DUP2 GT ISZERO PUSH3 0x299 JUMPI PUSH3 0x298 PUSH3 0x4E7 JUMP JUMPDEST JUMPDEST PUSH3 0x2A7 DUP9 DUP3 DUP10 ADD PUSH3 0x213 JUMP JUMPDEST SWAP5 POP POP PUSH1 0x40 DUP7 ADD MLOAD PUSH8 0xFFFFFFFFFFFFFFFF DUP2 GT ISZERO PUSH3 0x2CB JUMPI PUSH3 0x2CA PUSH3 0x4E7 JUMP JUMPDEST JUMPDEST PUSH3 0x2D9 DUP9 DUP3 DUP10 ADD PUSH3 0x213 JUMP JUMPDEST SWAP4 POP POP PUSH1 0x60 DUP7 ADD MLOAD PUSH8 0xFFFFFFFFFFFFFFFF DUP2 GT ISZERO PUSH3 0x2FD JUMPI PUSH3 0x2FC PUSH3 0x4E7 JUMP JUMPDEST JUMPDEST PUSH3 0x30B DUP9 DUP3 DUP10 ADD PUSH3 0x213 JUMP JUMPDEST SWAP3 POP POP PUSH1 0x80 DUP7 ADD MLOAD PUSH8 0xFFFFFFFFFFFFFFFF DUP2 GT ISZERO PUSH3 0x32F JUMPI PUSH3 0x32E PUSH3 0x4E7 JUMP JUMPDEST JUMPDEST PUSH3 0x33D DUP9 DUP3 DUP10 ADD PUSH3 0x213 JUMP JUMPDEST SWAP2 POP POP SWAP3 SWAP6 POP SWAP3 SWAP6 SWAP1 SWAP4 POP JUMP JUMPDEST PUSH1 0x0 PUSH3 0x356 PUSH3 0x369 JUMP JUMPDEST SWAP1 POP PUSH3 0x364 DUP3 DUP3 PUSH3 0x449 JUMP JUMPDEST SWAP2 SWAP1 POP JUMP JUMPDEST PUSH1 0x0 PUSH1 0x40 MLOAD SWAP1 POP SWAP1 JUMP JUMPDEST PUSH1 0x0 PUSH8 0xFFFFFFFFFFFFFFFF DUP3 GT ISZERO PUSH3 0x391 JUMPI PUSH3 0x390 PUSH3 0x4AE JUMP JUMPDEST JUMPDEST PUSH3 0x39C DUP3 PUSH3 0x4F1 JUMP JUMPDEST SWAP1 POP PUSH1 0x20 DUP2 ADD SWAP1 POP SWAP2 SWAP1 POP JUMP JUMPDEST PUSH1 0x0 PUSH3 0x3B6 DUP3 PUSH3 0x3BD JUMP JUMPDEST SWAP1 POP SWAP2 SWAP1 POP JUMP JUMPDEST PUSH1 0x0 PUSH20 0xFFFFFFFFFFFFFFFFFFFFFFFFFFFFFFFFFFFFFFFF DUP3 AND SWAP1 POP SWAP2 SWAP1 POP JUMP JUMPDEST PUSH1 0x0 JUMPDEST DUP4 DUP2 LT ISZERO PUSH3 0x3FD JUMPI DUP1 DUP3 ADD MLOAD DUP2 DUP5 ADD MSTORE PUSH1 0x20 DUP2 ADD SWAP1 POP PUSH3 0x3E0 JUMP JUMPDEST DUP4 DUP2 GT ISZERO PUSH3 0x40D JUMPI PUSH1 0x0 DUP5 DUP5 ADD MSTORE JUMPDEST POP POP POP POP JUMP JUMPDEST PUSH1 0x0 PUSH1 0x2 DUP3 DIV SWAP1 POP PUSH1 0x1 DUP3 AND DUP1 PUSH3 0x42C JUMPI PUSH1 0x7F DUP3 AND SWAP2 POP JUMPDEST PUSH1 0x20 DUP3 LT DUP2 EQ ISZERO PUSH3 0x443 JUMPI PUSH3 0x442 PUSH3 0x47F JUMP JUMPDEST JUMPDEST POP SWAP2 SWAP1 POP JUMP JUMPDEST PUSH3 0x454 DUP3 PUSH3 0x4F1 JUMP JUMPDEST DUP2 ADD DUP2 DUP2 LT PUSH8 0xFFFFFFFFFFFFFFFF DUP3 GT OR ISZERO PUSH3 0x476 JUMPI PUSH3 0x475 PUSH3 0x4AE JUMP JUMPDEST JUMPDEST DUP1 PUSH1 0x40 MSTORE POP POP POP JUMP JUMPDEST PUSH32 0x4E487B7100000000000000000000000000000000000000000000000000000000 PUSH1 0x0 MSTORE PUSH1 0x22 PUSH1 0x4 MSTORE PUSH1 0x24 PUSH1 0x0 REVERT JUMPDEST PUSH32 0x4E487B7100000000000000000000000000000000000000000000000000000000 PUSH1 0x0 MSTORE PUSH1 0x41 PUSH1 0x4 MSTORE PUSH1 0x24 PUSH1 0x0 REVERT JUMPDEST PUSH1 0x0 DUP1 REVERT JUMPDEST PUSH1 0x0 DUP1 REVERT JUMPDEST PUSH1 0x0 DUP1 REVERT JUMPDEST PUSH1 0x0 DUP1 REVERT JUMPDEST PUSH1 0x0 PUSH1 0x1F NOT PUSH1 0x1F DUP4 ADD AND SWAP1 POP SWAP2 SWAP1 POP JUMP JUMPDEST PUSH3 0x50D DUP2 PUSH3 0x3A9 JUMP JUMPDEST DUP2 EQ PUSH3 0x519 JUMPI PUSH1 0x0 DUP1 REVERT JUMPDEST POP JUMP JUMPDEST PUSH2 0x548 DUP1 PUSH3 0x52C PUSH1 0x0 CODECOPY PUSH1 0x0 RETURN INVALID PUSH1 0x80 PUSH1 0x40 MSTORE CALLVALUE DUP1 ISZERO PUSH2 0x10 JUMPI PUSH1 0x0 DUP1 REVERT JUMPDEST POP PUSH1 0x4 CALLDATASIZE LT PUSH2 0x41 JUMPI PUSH1 0x0 CALLDATALOAD PUSH1 0xE0 SHR DUP1 PUSH4 0x3BC5DE30 EQ PUSH2 0x46 JUMPI DUP1 PUSH4 0x973B46BB EQ PUSH2 0x69 JUMPI DUP1 PUSH4 0xE7BB25E0 EQ PUSH2 0x73 JUMPI JUMPDEST PUSH1 0x0 DUP1 REVERT JUMPDEST PUSH2 0x4E PUSH2 0x7D JUMP JUMPDEST PUSH1 0x40 MLOAD PUSH2 0x60 SWAP7 SWAP6 SWAP5 SWAP4 SWAP3 SWAP2 SWAP1 PUSH2 0x396 JUMP JUMPDEST PUSH1 0x40 MLOAD DUP1 SWAP2 SUB SWAP1 RETURN JUMPDEST PUSH2 0x71 PUSH2 0x305 JUMP JUMPDEST STOP JUMPDEST PUSH2 0x7B PUSH2 0x322 JUMP JUMPDEST STOP JUMPDEST PUSH1 0x0 PUSH1 0x60 DUP1 PUSH1 0x60 DUP1 PUSH1 0x0 DUP1 PUSH1 0x0 SWAP1 SLOAD SWAP1 PUSH2 0x100 EXP SWAP1 DIV PUSH20 0xFFFFFFFFFFFFFFFFFFFFFFFFFFFFFFFFFFFFFFFF AND PUSH1 0x1 PUSH1 0x2 PUSH1 0x3 PUSH1 0x4 PUSH1 0x5 PUSH1 0x0 SWAP1 SLOAD SWAP1 PUSH2 0x100 EXP SWAP1 DIV PUSH1 0xFF AND DUP5 DUP1 SLOAD PUSH2 0xCD SWAP1 PUSH2 0x4A0 JUMP JUMPDEST DUP1 PUSH1 0x1F ADD PUSH1 0x20 DUP1 SWAP2 DIV MUL PUSH1 0x20 ADD PUSH1 0x40 MLOAD SWAP1 DUP2 ADD PUSH1 0x40 MSTORE DUP1 SWAP3 SWAP2 SWAP1 DUP2 DUP2 MSTORE PUSH1 0x20 ADD DUP3 DUP1 SLOAD PUSH2 0xF9 SWAP1 PUSH2 0x4A0 JUMP JUMPDEST DUP1 ISZERO PUSH2 0x146 JUMPI DUP1 PUSH1 0x1F LT PUSH2 0x11B JUMPI PUSH2 0x100 DUP1 DUP4 SLOAD DIV MUL DUP4 MSTORE SWAP2 PUSH1 0x20 ADD SWAP2 PUSH2 0x146 JUMP JUMPDEST DUP3 ADD SWAP2 SWAP1 PUSH1 0x0 MSTORE PUSH1 0x20 PUSH1 0x0 KECCAK256 SWAP1 JUMPDEST DUP2 SLOAD DUP2 MSTORE SWAP1 PUSH1 0x1 ADD SWAP1 PUSH1 0x20 ADD DUP1 DUP4 GT PUSH2 0x129 JUMPI DUP3 SWAP1 SUB PUSH1 0x1F AND DUP3 ADD SWAP2 JUMPDEST POP POP POP POP POP SWAP5 POP DUP4 DUP1 SLOAD PUSH2 0x159 SWAP1 PUSH2 0x4A0 JUMP JUMPDEST DUP1 PUSH1 0x1F ADD PUSH1 0x20 DUP1 SWAP2 DIV MUL PUSH1 0x20 ADD PUSH1 0x40 MLOAD SWAP1 DUP2 ADD PUSH1 0x40 MSTORE DUP1 SWAP3 SWAP2 SWAP1 DUP2 DUP2 MSTORE PUSH1 0x20 ADD DUP3 DUP1 SLOAD PUSH2 0x185 SWAP1 PUSH2 0x4A0 JUMP JUMPDEST DUP1 ISZERO PUSH2 0x1D2 JUMPI DUP1 PUSH1 0x1F LT PUSH2 0x1A7 JUMPI PUSH2 0x100 DUP1 DUP4 SLOAD DIV MUL DUP4 MSTORE SWAP2 PUSH1 0x20 ADD SWAP2 PUSH2 0x1D2 JUMP JUMPDEST DUP3 ADD SWAP2 SWAP1 PUSH1 0x0 MSTORE PUSH1 0x20 PUSH1 0x0 KECCAK256 SWAP1 JUMPDEST DUP2 SLOAD DUP2 MSTORE SWAP1 PUSH1 0x1 ADD SWAP1 PUSH1 0x20 ADD DUP1 DUP4 GT PUSH2 0x1B5 JUMPI DUP3 SWAP1 SUB PUSH1 0x1F AND DUP3 ADD SWAP2 JUMPDEST POP POP POP POP POP SWAP4 POP DUP3 DUP1 SLOAD PUSH2 0x1E5 SWAP1 PUSH2 0x4A0 JUMP JUMPDEST DUP1 PUSH1 0x1F ADD PUSH1 0x20 DUP1 SWAP2 DIV MUL PUSH1 0x20 ADD PUSH1 0x40 MLOAD SWAP1 DUP2 ADD PUSH1 0x40 MSTORE DUP1 SWAP3 SWAP2 SWAP1 DUP2 DUP2 MSTORE PUSH1 0x20 ADD DUP3 DUP1 SLOAD PUSH2 0x211 SWAP1 PUSH2 0x4A0 JUMP JUMPDEST DUP1 ISZERO PUSH2 0x25E JUMPI DUP1 PUSH1 0x1F LT PUSH2 0x233 JUMPI PUSH2 0x100 DUP1 DUP4 SLOAD DIV MUL DUP4 MSTORE SWAP2 PUSH1 0x20 ADD SWAP2 PUSH2 0x25E JUMP JUMPDEST DUP3 ADD SWAP2 SWAP1 PUSH1 0x0 MSTORE PUSH1 0x20 PUSH1 0x0 KECCAK256 SWAP1 JUMPDEST DUP2 SLOAD DUP2 MSTORE SWAP1 PUSH1 0x1 ADD SWAP1 PUSH1 0x20 ADD DUP1 DUP4 GT PUSH2 0x241 JUMPI DUP3 SWAP1 SUB PUSH1 0x1F AND DUP3 ADD SWAP2 JUMPDEST POP POP POP POP POP SWAP3 POP DUP2 DUP1 SLOAD PUSH2 0x271 SWAP1 PUSH2 0x4A0 JUMP JUMPDEST DUP1 PUSH1 0x1F ADD PUSH1 0x20 DUP1 SWAP2 DIV MUL PUSH1 0x20 ADD PUSH1 0x40 MLOAD SWAP1 DUP2 ADD PUSH1 0x40 MSTORE DUP1 SWAP3 SWAP2 SWAP1 DUP2 DUP2 MSTORE PUSH1 0x20 ADD DUP3 DUP1 SLOAD PUSH2 0x29D SWAP1 PUSH2 0x4A0 JUMP JUMPDEST DUP1 ISZERO PUSH2 0x2EA JUMPI DUP1 PUSH1 0x1F LT PUSH2 0x2BF JUMPI PUSH2 0x100 DUP1 DUP4 SLOAD DIV MUL DUP4 MSTORE SWAP2 PUSH1 0x20 ADD SWAP2 PUSH2 0x2EA JUMP JUMPDEST DUP3 ADD SWAP2 SWAP1 PUSH1 0x0 MSTORE PUSH1 0x20 PUSH1 0x0 KECCAK256 SWAP1 JUMPDEST DUP2 SLOAD DUP2 MSTORE SWAP1 PUSH1 0x1 ADD SWAP1 PUSH1 0x20 ADD DUP1 DUP4 GT PUSH2 0x2CD JUMPI DUP3 SWAP1 SUB PUSH1 0x1F AND DUP3 ADD SWAP2 JUMPDEST POP POP POP POP POP SWAP2 POP SWAP6 POP SWAP6 POP SWAP6 POP SWAP6 POP SWAP6 POP SWAP6 POP SWAP1 SWAP2 SWAP3 SWAP4 SWAP5 SWAP6 JUMP JUMPDEST PUSH1 0x0 PUSH1 0x5 PUSH1 0x0 PUSH2 0x100 EXP DUP2 SLOAD DUP2 PUSH1 0xFF MUL NOT AND SWAP1 DUP4 ISZERO ISZERO MUL OR SWAP1 SSTORE POP JUMP JUMPDEST PUSH1 0x1 PUSH1 0x5 PUSH1 0x0 PUSH2 0x100 EXP DUP2 SLOAD DUP2 PUSH1 0xFF MUL NOT AND SWAP1 DUP4 ISZERO ISZERO MUL OR SWAP1 SSTORE POP JUMP JUMPDEST PUSH2 0x348 DUP2 PUSH2 0x42F JUMP JUMPDEST DUP3 MSTORE POP POP JUMP JUMPDEST PUSH2 0x357 DUP2 PUSH2 0x441 JUMP JUMPDEST DUP3 MSTORE POP POP JUMP JUMPDEST PUSH1 0x0 PUSH2 0x368 DUP3 PUSH2 0x413 JUMP JUMPDEST PUSH2 0x372 DUP2 DUP6 PUSH2 0x41E JUMP JUMPDEST SWAP4 POP PUSH2 0x382 DUP2 DUP6 PUSH1 0x20 DUP7 ADD PUSH2 0x46D JUMP JUMPDEST PUSH2 0x38B DUP2 PUSH2 0x501 JUMP JUMPDEST DUP5 ADD SWAP2 POP POP SWAP3 SWAP2 POP POP JUMP JUMPDEST PUSH1 0x0 PUSH1 0xC0 DUP3 ADD SWAP1 POP PUSH2 0x3AB PUSH1 0x0 DUP4 ADD DUP10 PUSH2 0x33F JUMP JUMPDEST DUP2 DUP2 SUB PUSH1 0x20 DUP4 ADD MSTORE PUSH2 0x3BD DUP2 DUP9 PUSH2 0x35D JUMP JUMPDEST SWAP1 POP DUP2 DUP2 SUB PUSH1 0x40 DUP4 ADD MSTORE PUSH2 0x3D1 DUP2 DUP8 PUSH2 0x35D JUMP JUMPDEST SWAP1 POP DUP2 DUP2 SUB PUSH1 0x60 DUP4 ADD MSTORE PUSH2 0x3E5 DUP2 DUP7 PUSH2 0x35D JUMP JUMPDEST SWAP1 POP DUP2 DUP2 SUB PUSH1 0x80 DUP4 ADD MSTORE PUSH2 0x3F9 DUP2 DUP6 PUSH2 0x35D JUMP JUMPDEST SWAP1 POP PUSH2 0x408 PUSH1 0xA0 DUP4 ADD DUP5 PUSH2 0x34E JUMP JUMPDEST SWAP8 SWAP7 POP POP POP POP POP POP POP JUMP JUMPDEST PUSH1 0x0 DUP2 MLOAD SWAP1 POP SWAP2 SWAP1 POP JUMP JUMPDEST PUSH1 0x0 DUP3 DUP3 MSTORE PUSH1 0x20 DUP3 ADD SWAP1 POP SWAP3 SWAP2 POP POP JUMP JUMPDEST PUSH1 0x0 PUSH2 0x43A DUP3 PUSH2 0x44D JUMP JUMPDEST SWAP1 POP SWAP2 SWAP1 POP JUMP JUMPDEST PUSH1 0x0 DUP2 ISZERO ISZERO SWAP1 POP SWAP2 SWAP1 POP JUMP JUMPDEST PUSH1 0x0 PUSH20 0xFFFFFFFFFFFFFFFFFFFFFFFFFFFFFFFFFFFFFFFF DUP3 AND SWAP1 POP SWAP2 SWAP1 POP JUMP JUMPDEST PUSH1 0x0 JUMPDEST DUP4 DUP2 LT ISZERO PUSH2 0x48B JUMPI DUP1 DUP3 ADD MLOAD DUP2 DUP5 ADD MSTORE PUSH1 0x20 DUP2 ADD SWAP1 POP PUSH2 0x470 JUMP JUMPDEST DUP4 DUP2 GT ISZERO PUSH2 0x49A JUMPI PUSH1 0x0 DUP5 DUP5 ADD MSTORE JUMPDEST POP POP POP POP JUMP JUMPDEST PUSH1 0x0 PUSH1 0x2 DUP3 DIV SWAP1 POP PUSH1 0x1 DUP3 AND DUP1 PUSH2 0x4B8 JUMPI PUSH1 0x7F DUP3 AND SWAP2 POP JUMPDEST PUSH1 0x20 DUP3 LT DUP2 EQ ISZERO PUSH2 0x4CC JUMPI PUSH2 0x4CB PUSH2 0x4D2 JUMP JUMPDEST JUMPDEST POP SWAP2 SWAP1 POP JUMP JUMPDEST PUSH32 0x4E487B7100000000000000000000000000000000000000000000000000000000 PUSH1 0x0 MSTORE PUSH1 0x22 PUSH1 0x4 MSTORE PUSH1 0x24 PUSH1 0x0 REVERT JUMPDEST PUSH1 0x0 PUSH1 0x1F NOT PUSH1 0x1F DUP4 ADD AND SWAP1 POP SWAP2 SWAP1 POP JUMP INVALID LOG2 PUSH5 0x6970667358 0x22 SLT KECCAK256 STATICCALL 0xDF 0xA5 GT DIV SWAP14 PUSH23 0x825B5C59CB49ED3EAA81FAD4EBEADCAC2C30085AB7F3ED 0x2D BYTE PUSH5 0x736F6C6343 STOP ADDMOD MOD STOP CALLER LOG2 PUSH5 0x6970667358 0x22 SLT KECCAK256 DUP8 0xC6 CREATE 0x2D PUSH20 0x23450F2BD0A44C80002B4B2940B897321B290939 CODECOPY 0xCB PUSH19 0x4C1D678D64736F6C6343000806003300000000 "
				},
				"gasEstimates": {
					"creation": {
						"codeDepositCost": "943400",
						"executionCost": "981",
						"totalCost": "944381"
					},
					"external": {
						"createInvestigation(address,string,string,string,string)": "infinite",
						"deployedContracts(uint256)": "4956",
						"getDeployedContracts()": "infinite"
					}
				},
				"methodIdentifiers": {
					"createInvestigation(address,string,string,string,string)": "54e0b217",
					"deployedContracts(uint256)": "9ad1ee10",
					"getDeployedContracts()": "aa9a068f"
				}
			},
			"storageLayout": {
				"storage": [
					{
						"astId": 4,
						"contract": "ethereum/contracts/investigation.sol:CreateInvestigation",
						"label": "deployedContracts",
						"offset": 0,
						"slot": "0",
						"type": "t_array(t_address)dyn_storage"
					}
				],
				"types": {
					"t_address": {
						"encoding": "inplace",
						"label": "address",
						"numberOfBytes": "20"
					},
					"t_array(t_address)dyn_storage": {
						"base": "t_address",
						"encoding": "dynamic_array",
						"label": "address[]",
						"numberOfBytes": "32"
					}
				}
			},
			"userdoc": {
				"kind": "user",
				"methods": {},
				"version": 1
			}
		}
	}
}