{
	"ethereum/contracts/missing_person.sol": {
		"MissingPerson": {
			"abi": [
				{
					"inputs": [
						{
							"internalType": "string",
							"name": "_pid",
							"type": "string"
						},
						{
							"internalType": "string",
							"name": "_name",
							"type": "string"
						},
						{
							"internalType": "string",
							"name": "_cid",
							"type": "string"
						},
						{
							"internalType": "string",
							"name": "_phoneNumber",
							"type": "string"
						},
						{
							"internalType": "uint256",
							"name": "_age",
							"type": "uint256"
						},
						{
							"internalType": "uint256",
							"name": "_height",
							"type": "uint256"
						},
						{
							"internalType": "uint256",
							"name": "_weight",
							"type": "uint256"
						},
						{
							"internalType": "string",
							"name": "_dateLastSeen",
							"type": "string"
						},
						{
							"internalType": "string",
							"name": "_timeLastSeen",
							"type": "string"
						},
						{
							"internalType": "string",
							"name": "_locationLastSeen",
							"type": "string"
						},
						{
							"internalType": "string",
							"name": "_modeOfTransportUsed",
							"type": "string"
						}
					],
					"stateMutability": "nonpayable",
					"type": "constructor"
				},
				{
					"inputs": [],
					"name": "getData",
					"outputs": [
						{
							"internalType": "string",
							"name": "",
							"type": "string"
						},
						{
							"internalType": "string",
							"name": "",
							"type": "string"
						},
						{
							"internalType": "string",
							"name": "",
							"type": "string"
						},
						{
							"internalType": "uint256",
							"name": "",
							"type": "uint256"
						},
						{
							"internalType": "uint256",
							"name": "",
							"type": "uint256"
						},
						{
							"internalType": "uint256",
							"name": "",
							"type": "uint256"
						},
						{
							"internalType": "string",
							"name": "",
							"type": "string"
						},
						{
							"internalType": "string",
							"name": "",
							"type": "string"
						},
						{
							"internalType": "string",
							"name": "",
							"type": "string"
						},
						{
							"internalType": "string",
							"name": "",
							"type": "string"
						},
						{
							"internalType": "bool",
							"name": "",
							"type": "bool"
						},
						{
							"internalType": "bool",
							"name": "",
							"type": "bool"
						}
					],
					"stateMutability": "view",
					"type": "function"
				},
				{
					"inputs": [],
					"name": "getInvestigator",
					"outputs": [
						{
							"components": [
								{
									"internalType": "string",
									"name": "name",
									"type": "string"
								},
								{
									"internalType": "string",
									"name": "cid",
									"type": "string"
								},
								{
									"internalType": "string",
									"name": "badgeNumber",
									"type": "string"
								},
								{
									"internalType": "string",
									"name": "rank",
									"type": "string"
								}
							],
							"internalType": "struct MissingPerson.Investigator",
							"name": "",
							"type": "tuple"
						}
					],
					"stateMutability": "view",
					"type": "function"
				},
				{
					"inputs": [],
					"name": "getPictureID",
					"outputs": [
						{
							"internalType": "string",
							"name": "",
							"type": "string"
						}
					],
					"stateMutability": "view",
					"type": "function"
				},
				{
					"inputs": [],
					"name": "investigationStarted",
					"outputs": [],
					"stateMutability": "nonpayable",
					"type": "function"
				},
				{
					"inputs": [],
					"name": "markAsFound",
					"outputs": [],
					"stateMutability": "nonpayable",
					"type": "function"
				},
				{
					"inputs": [
						{
							"internalType": "string",
							"name": "_name",
							"type": "string"
						},
						{
							"internalType": "string",
							"name": "_cid",
							"type": "string"
						},
						{
							"internalType": "string",
							"name": "_badgeNumber",
							"type": "string"
						},
						{
							"internalType": "string",
							"name": "_rank",
							"type": "string"
						}
					],
					"name": "setInvestigator",
					"outputs": [],
					"stateMutability": "nonpayable",
					"type": "function"
				}
			],
			"devdoc": {
				"kind": "dev",
				"methods": {},
				"version": 1
			},
			"evm": {
				"assembly": "    /* \"ethereum/contracts/missing_person.sol\":1195:3945  contract MissingPerson {\r... */\n  mstore(0x40, 0x80)\n    /* \"ethereum/contracts/missing_person.sol\":1746:2555  constructor(\r... */\n  callvalue\n  dup1\n  iszero\n  tag_1\n  jumpi\n  0x00\n  dup1\n  revert\ntag_1:\n  pop\n  mload(0x40)\n  sub(codesize, bytecodeSize)\n  dup1\n  bytecodeSize\n  dup4\n  codecopy\n  dup2\n  dup2\n  add\n  0x40\n  mstore\n  dup2\n  add\n  swap1\n  tag_2\n  swap2\n  swap1\n  tag_3\n  jump\t// in\ntag_2:\n    /* \"ethereum/contracts/missing_person.sol\":2145:2149  _pid */\n  dup11\n    /* \"ethereum/contracts/missing_person.sol\":2139:2142  pid */\n  0x00\n    /* \"ethereum/contracts/missing_person.sol\":2139:2149  pid = _pid */\n  swap1\n  dup1\n  mload\n  swap1\n  0x20\n  add\n  swap1\n  tag_6\n  swap3\n  swap2\n  swap1\n  tag_7\n  jump\t// in\ntag_6:\n  pop\n    /* \"ethereum/contracts/missing_person.sol\":2167:2172  _name */\n  dup10\n    /* \"ethereum/contracts/missing_person.sol\":2160:2164  name */\n  0x01\n    /* \"ethereum/contracts/missing_person.sol\":2160:2172  name = _name */\n  swap1\n  dup1\n  mload\n  swap1\n  0x20\n  add\n  swap1\n  tag_8\n  swap3\n  swap2\n  swap1\n  tag_7\n  jump\t// in\ntag_8:\n  pop\n    /* \"ethereum/contracts/missing_person.sol\":2189:2193  _cid */\n  dup9\n    /* \"ethereum/contracts/missing_person.sol\":2183:2186  cid */\n  0x02\n    /* \"ethereum/contracts/missing_person.sol\":2183:2193  cid = _cid */\n  swap1\n  dup1\n  mload\n  swap1\n  0x20\n  add\n  swap1\n  tag_9\n  swap3\n  swap2\n  swap1\n  tag_7\n  jump\t// in\ntag_9:\n  pop\n    /* \"ethereum/contracts/missing_person.sol\":2218:2230  _phoneNumber */\n  dup8\n    /* \"ethereum/contracts/missing_person.sol\":2204:2215  phoneNumber */\n  0x03\n    /* \"ethereum/contracts/missing_person.sol\":2204:2230  phoneNumber = _phoneNumber */\n  swap1\n  dup1\n  mload\n  swap1\n  0x20\n  add\n  swap1\n  tag_10\n  swap3\n  swap2\n  swap1\n  tag_7\n  jump\t// in\ntag_10:\n  pop\n    /* \"ethereum/contracts/missing_person.sol\":2247:2251  _age */\n  dup7\n    /* \"ethereum/contracts/missing_person.sol\":2241:2244  age */\n  0x04\n    /* \"ethereum/contracts/missing_person.sol\":2241:2251  age = _age */\n  dup2\n  swap1\n  sstore\n  pop\n    /* \"ethereum/contracts/missing_person.sol\":2271:2278  _height */\n  dup6\n    /* \"ethereum/contracts/missing_person.sol\":2262:2268  height */\n  0x05\n    /* \"ethereum/contracts/missing_person.sol\":2262:2278  height = _height */\n  dup2\n  swap1\n  sstore\n  pop\n    /* \"ethereum/contracts/missing_person.sol\":2298:2305  _weight */\n  dup5\n    /* \"ethereum/contracts/missing_person.sol\":2289:2295  weight */\n  0x06\n    /* \"ethereum/contracts/missing_person.sol\":2289:2305  weight = _weight */\n  dup2\n  swap1\n  sstore\n  pop\n    /* \"ethereum/contracts/missing_person.sol\":2331:2344  _dateLastSeen */\n  dup4\n    /* \"ethereum/contracts/missing_person.sol\":2316:2328  dateLastSeen */\n  0x07\n    /* \"ethereum/contracts/missing_person.sol\":2316:2344  dateLastSeen = _dateLastSeen */\n  swap1\n  dup1\n  mload\n  swap1\n  0x20\n  add\n  swap1\n  tag_11\n  swap3\n  swap2\n  swap1\n  tag_7\n  jump\t// in\ntag_11:\n  pop\n    /* \"ethereum/contracts/missing_person.sol\":2370:2383  _timeLastSeen */\n  dup3\n    /* \"ethereum/contracts/missing_person.sol\":2355:2367  timeLastSeen */\n  0x08\n    /* \"ethereum/contracts/missing_person.sol\":2355:2383  timeLastSeen = _timeLastSeen */\n  swap1\n  dup1\n  mload\n  swap1\n  0x20\n  add\n  swap1\n  tag_12\n  swap3\n  swap2\n  swap1\n  tag_7\n  jump\t// in\ntag_12:\n  pop\n    /* \"ethereum/contracts/missing_person.sol\":2413:2430  _locationLastSeen */\n  dup2\n    /* \"ethereum/contracts/missing_person.sol\":2394:2410  locationLastSeen */\n  0x09\n    /* \"ethereum/contracts/missing_person.sol\":2394:2430  locationLastSeen = _locationLastSeen */\n  swap1\n  dup1\n  mload\n  swap1\n  0x20\n  add\n  swap1\n  tag_13\n  swap3\n  swap2\n  swap1\n  tag_7\n  jump\t// in\ntag_13:\n  pop\n    /* \"ethereum/contracts/missing_person.sol\":2463:2483  _modeOfTransportUsed */\n  dup1\n    /* \"ethereum/contracts/missing_person.sol\":2441:2460  modeOfTransportUsed */\n  0x0a\n    /* \"ethereum/contracts/missing_person.sol\":2441:2483  modeOfTransportUsed = _modeOfTransportUsed */\n  swap1\n  dup1\n  mload\n  swap1\n  0x20\n  add\n  swap1\n  tag_14\n  swap3\n  swap2\n  swap1\n  tag_7\n  jump\t// in\ntag_14:\n  pop\n    /* \"ethereum/contracts/missing_person.sol\":2516:2521  false */\n  0x00\n    /* \"ethereum/contracts/missing_person.sol\":2494:2513  isBeingInvestigated */\n  0x0b\n  0x00\n    /* \"ethereum/contracts/missing_person.sol\":2494:2521  isBeingInvestigated = false */\n  0x0100\n  exp\n  dup2\n  sload\n  dup2\n  0xff\n  mul\n  not\n  and\n  swap1\n  dup4\n  iszero\n  iszero\n  mul\n  or\n  swap1\n  sstore\n  pop\n    /* \"ethereum/contracts/missing_person.sol\":2542:2547  false */\n  0x00\n    /* \"ethereum/contracts/missing_person.sol\":2532:2539  isFound */\n  0x0b\n  0x01\n    /* \"ethereum/contracts/missing_person.sol\":2532:2547  isFound = false */\n  0x0100\n  exp\n  dup2\n  sload\n  dup2\n  0xff\n  mul\n  not\n  and\n  swap1\n  dup4\n  iszero\n  iszero\n  mul\n  or\n  swap1\n  sstore\n  pop\n    /* \"ethereum/contracts/missing_person.sol\":1746:2555  constructor(\r... */\n  pop\n  pop\n  pop\n  pop\n  pop\n  pop\n  pop\n  pop\n  pop\n  pop\n  pop\n    /* \"ethereum/contracts/missing_person.sol\":1195:3945  contract MissingPerson {\r... */\n  jump(tag_15)\ntag_7:\n  dup3\n  dup1\n  sload\n  tag_16\n  swap1\n  tag_17\n  jump\t// in\ntag_16:\n  swap1\n  0x00\n  mstore\n  keccak256(0x00, 0x20)\n  swap1\n  0x1f\n  add\n  0x20\n  swap1\n  div\n  dup2\n  add\n  swap3\n  dup3\n  tag_19\n  jumpi\n  0x00\n  dup6\n  sstore\n  jump(tag_18)\ntag_19:\n  dup3\n  0x1f\n  lt\n  tag_20\n  jumpi\n  dup1\n  mload\n  not(0xff)\n  and\n  dup4\n  dup1\n  add\n  or\n  dup6\n  sstore\n  jump(tag_18)\ntag_20:\n  dup3\n  dup1\n  add\n  0x01\n  add\n  dup6\n  sstore\n  dup3\n  iszero\n  tag_18\n  jumpi\n  swap2\n  dup3\n  add\ntag_21:\n  dup3\n  dup2\n  gt\n  iszero\n  tag_22\n  jumpi\n  dup3\n  mload\n  dup3\n  sstore\n  swap2\n  0x20\n  add\n  swap2\n  swap1\n  0x01\n  add\n  swap1\n  jump(tag_21)\ntag_22:\ntag_18:\n  pop\n  swap1\n  pop\n  tag_23\n  swap2\n  swap1\n  tag_24\n  jump\t// in\ntag_23:\n  pop\n  swap1\n  jump\t// out\ntag_24:\ntag_25:\n  dup1\n  dup3\n  gt\n  iszero\n  tag_26\n  jumpi\n  0x00\n  dup2\n  0x00\n  swap1\n  sstore\n  pop\n  0x01\n  add\n  jump(tag_25)\ntag_26:\n  pop\n  swap1\n  jump\t// out\n    /* \"#utility.yul\":7:428   */\ntag_28:\n    /* \"#utility.yul\":96:101   */\n  0x00\n    /* \"#utility.yul\":121:187   */\n  tag_30\n    /* \"#utility.yul\":137:186   */\n  tag_31\n    /* \"#utility.yul\":179:185   */\n  dup5\n    /* \"#utility.yul\":137:186   */\n  tag_32\n  jump\t// in\ntag_31:\n    /* \"#utility.yul\":121:187   */\n  tag_33\n  jump\t// in\ntag_30:\n    /* \"#utility.yul\":112:187   */\n  swap1\n  pop\n    /* \"#utility.yul\":210:216   */\n  dup3\n    /* \"#utility.yul\":203:208   */\n  dup2\n    /* \"#utility.yul\":196:217   */\n  mstore\n    /* \"#utility.yul\":248:252   */\n  0x20\n    /* \"#utility.yul\":241:246   */\n  dup2\n    /* \"#utility.yul\":237:253   */\n  add\n    /* \"#utility.yul\":286:289   */\n  dup5\n    /* \"#utility.yul\":277:283   */\n  dup5\n    /* \"#utility.yul\":272:275   */\n  dup5\n    /* \"#utility.yul\":268:284   */\n  add\n    /* \"#utility.yul\":265:290   */\n  gt\n    /* \"#utility.yul\":262:264   */\n  iszero\n  tag_34\n  jumpi\n    /* \"#utility.yul\":293:372   */\n  tag_35\n  tag_36\n  jump\t// in\ntag_35:\n    /* \"#utility.yul\":262:264   */\ntag_34:\n    /* \"#utility.yul\":383:422   */\n  tag_37\n    /* \"#utility.yul\":415:421   */\n  dup5\n    /* \"#utility.yul\":410:413   */\n  dup3\n    /* \"#utility.yul\":405:408   */\n  dup6\n    /* \"#utility.yul\":383:422   */\n  tag_38\n  jump\t// in\ntag_37:\n    /* \"#utility.yul\":102:428   */\n  pop\n  swap4\n  swap3\n  pop\n  pop\n  pop\n  jump\t// out\n    /* \"#utility.yul\":448:803   */\ntag_39:\n    /* \"#utility.yul\":515:520   */\n  0x00\n    /* \"#utility.yul\":564:567   */\n  dup3\n    /* \"#utility.yul\":557:561   */\n  0x1f\n    /* \"#utility.yul\":549:555   */\n  dup4\n    /* \"#utility.yul\":545:562   */\n  add\n    /* \"#utility.yul\":541:568   */\n  slt\n    /* \"#utility.yul\":531:533   */\n  tag_41\n  jumpi\n    /* \"#utility.yul\":572:651   */\n  tag_42\n  tag_43\n  jump\t// in\ntag_42:\n    /* \"#utility.yul\":531:533   */\ntag_41:\n    /* \"#utility.yul\":682:688   */\n  dup2\n    /* \"#utility.yul\":676:689   */\n  mload\n    /* \"#utility.yul\":707:797   */\n  tag_44\n    /* \"#utility.yul\":793:796   */\n  dup5\n    /* \"#utility.yul\":785:791   */\n  dup3\n    /* \"#utility.yul\":778:782   */\n  0x20\n    /* \"#utility.yul\":770:776   */\n  dup7\n    /* \"#utility.yul\":766:783   */\n  add\n    /* \"#utility.yul\":707:797   */\n  tag_28\n  jump\t// in\ntag_44:\n    /* \"#utility.yul\":698:797   */\n  swap2\n  pop\n    /* \"#utility.yul\":521:803   */\n  pop\n  swap3\n  swap2\n  pop\n  pop\n  jump\t// out\n    /* \"#utility.yul\":809:952   */\ntag_45:\n    /* \"#utility.yul\":866:871   */\n  0x00\n    /* \"#utility.yul\":897:903   */\n  dup2\n    /* \"#utility.yul\":891:904   */\n  mload\n    /* \"#utility.yul\":882:904   */\n  swap1\n  pop\n    /* \"#utility.yul\":913:946   */\n  tag_47\n    /* \"#utility.yul\":940:945   */\n  dup2\n    /* \"#utility.yul\":913:946   */\n  tag_48\n  jump\t// in\ntag_47:\n    /* \"#utility.yul\":872:952   */\n  swap3\n  swap2\n  pop\n  pop\n  jump\t// out\n    /* \"#utility.yul\":958:4263   */\ntag_3:\n    /* \"#utility.yul\":1198:1204   */\n  0x00\n    /* \"#utility.yul\":1206:1212   */\n  dup1\n    /* \"#utility.yul\":1214:1220   */\n  0x00\n    /* \"#utility.yul\":1222:1228   */\n  dup1\n    /* \"#utility.yul\":1230:1236   */\n  0x00\n    /* \"#utility.yul\":1238:1244   */\n  dup1\n    /* \"#utility.yul\":1246:1252   */\n  0x00\n    /* \"#utility.yul\":1254:1260   */\n  dup1\n    /* \"#utility.yul\":1262:1268   */\n  0x00\n    /* \"#utility.yul\":1270:1276   */\n  dup1\n    /* \"#utility.yul\":1278:1285   */\n  0x00\n    /* \"#utility.yul\":1328:1331   */\n  0x0160\n    /* \"#utility.yul\":1316:1325   */\n  dup13\n    /* \"#utility.yul\":1307:1314   */\n  dup15\n    /* \"#utility.yul\":1303:1326   */\n  sub\n    /* \"#utility.yul\":1299:1332   */\n  slt\n    /* \"#utility.yul\":1296:1298   */\n  iszero\n  tag_50\n  jumpi\n    /* \"#utility.yul\":1335:1414   */\n  tag_51\n  tag_52\n  jump\t// in\ntag_51:\n    /* \"#utility.yul\":1296:1298   */\ntag_50:\n    /* \"#utility.yul\":1476:1477   */\n  0x00\n    /* \"#utility.yul\":1465:1474   */\n  dup13\n    /* \"#utility.yul\":1461:1478   */\n  add\n    /* \"#utility.yul\":1455:1479   */\n  mload\n    /* \"#utility.yul\":1506:1524   */\n  0xffffffffffffffff\n    /* \"#utility.yul\":1498:1504   */\n  dup2\n    /* \"#utility.yul\":1495:1525   */\n  gt\n    /* \"#utility.yul\":1492:1494   */\n  iszero\n  tag_53\n  jumpi\n    /* \"#utility.yul\":1528:1607   */\n  tag_54\n  tag_55\n  jump\t// in\ntag_54:\n    /* \"#utility.yul\":1492:1494   */\ntag_53:\n    /* \"#utility.yul\":1633:1707   */\n  tag_56\n    /* \"#utility.yul\":1699:1706   */\n  dup15\n    /* \"#utility.yul\":1690:1696   */\n  dup3\n    /* \"#utility.yul\":1679:1688   */\n  dup16\n    /* \"#utility.yul\":1675:1697   */\n  add\n    /* \"#utility.yul\":1633:1707   */\n  tag_39\n  jump\t// in\ntag_56:\n    /* \"#utility.yul\":1623:1707   */\n  swap12\n  pop\n    /* \"#utility.yul\":1426:1717   */\n  pop\n    /* \"#utility.yul\":1777:1779   */\n  0x20\n    /* \"#utility.yul\":1766:1775   */\n  dup13\n    /* \"#utility.yul\":1762:1780   */\n  add\n    /* \"#utility.yul\":1756:1781   */\n  mload\n    /* \"#utility.yul\":1808:1826   */\n  0xffffffffffffffff\n    /* \"#utility.yul\":1800:1806   */\n  dup2\n    /* \"#utility.yul\":1797:1827   */\n  gt\n    /* \"#utility.yul\":1794:1796   */\n  iszero\n  tag_57\n  jumpi\n    /* \"#utility.yul\":1830:1909   */\n  tag_58\n  tag_55\n  jump\t// in\ntag_58:\n    /* \"#utility.yul\":1794:1796   */\ntag_57:\n    /* \"#utility.yul\":1935:2009   */\n  tag_59\n    /* \"#utility.yul\":2001:2008   */\n  dup15\n    /* \"#utility.yul\":1992:1998   */\n  dup3\n    /* \"#utility.yul\":1981:1990   */\n  dup16\n    /* \"#utility.yul\":1977:1999   */\n  add\n    /* \"#utility.yul\":1935:2009   */\n  tag_39\n  jump\t// in\ntag_59:\n    /* \"#utility.yul\":1925:2009   */\n  swap11\n  pop\n    /* \"#utility.yul\":1727:2019   */\n  pop\n    /* \"#utility.yul\":2079:2081   */\n  0x40\n    /* \"#utility.yul\":2068:2077   */\n  dup13\n    /* \"#utility.yul\":2064:2082   */\n  add\n    /* \"#utility.yul\":2058:2083   */\n  mload\n    /* \"#utility.yul\":2110:2128   */\n  0xffffffffffffffff\n    /* \"#utility.yul\":2102:2108   */\n  dup2\n    /* \"#utility.yul\":2099:2129   */\n  gt\n    /* \"#utility.yul\":2096:2098   */\n  iszero\n  tag_60\n  jumpi\n    /* \"#utility.yul\":2132:2211   */\n  tag_61\n  tag_55\n  jump\t// in\ntag_61:\n    /* \"#utility.yul\":2096:2098   */\ntag_60:\n    /* \"#utility.yul\":2237:2311   */\n  tag_62\n    /* \"#utility.yul\":2303:2310   */\n  dup15\n    /* \"#utility.yul\":2294:2300   */\n  dup3\n    /* \"#utility.yul\":2283:2292   */\n  dup16\n    /* \"#utility.yul\":2279:2301   */\n  add\n    /* \"#utility.yul\":2237:2311   */\n  tag_39\n  jump\t// in\ntag_62:\n    /* \"#utility.yul\":2227:2311   */\n  swap10\n  pop\n    /* \"#utility.yul\":2029:2321   */\n  pop\n    /* \"#utility.yul\":2381:2383   */\n  0x60\n    /* \"#utility.yul\":2370:2379   */\n  dup13\n    /* \"#utility.yul\":2366:2384   */\n  add\n    /* \"#utility.yul\":2360:2385   */\n  mload\n    /* \"#utility.yul\":2412:2430   */\n  0xffffffffffffffff\n    /* \"#utility.yul\":2404:2410   */\n  dup2\n    /* \"#utility.yul\":2401:2431   */\n  gt\n    /* \"#utility.yul\":2398:2400   */\n  iszero\n  tag_63\n  jumpi\n    /* \"#utility.yul\":2434:2513   */\n  tag_64\n  tag_55\n  jump\t// in\ntag_64:\n    /* \"#utility.yul\":2398:2400   */\ntag_63:\n    /* \"#utility.yul\":2539:2613   */\n  tag_65\n    /* \"#utility.yul\":2605:2612   */\n  dup15\n    /* \"#utility.yul\":2596:2602   */\n  dup3\n    /* \"#utility.yul\":2585:2594   */\n  dup16\n    /* \"#utility.yul\":2581:2603   */\n  add\n    /* \"#utility.yul\":2539:2613   */\n  tag_39\n  jump\t// in\ntag_65:\n    /* \"#utility.yul\":2529:2613   */\n  swap9\n  pop\n    /* \"#utility.yul\":2331:2623   */\n  pop\n    /* \"#utility.yul\":2662:2665   */\n  0x80\n    /* \"#utility.yul\":2689:2753   */\n  tag_66\n    /* \"#utility.yul\":2745:2752   */\n  dup15\n    /* \"#utility.yul\":2736:2742   */\n  dup3\n    /* \"#utility.yul\":2725:2734   */\n  dup16\n    /* \"#utility.yul\":2721:2743   */\n  add\n    /* \"#utility.yul\":2689:2753   */\n  tag_45\n  jump\t// in\ntag_66:\n    /* \"#utility.yul\":2679:2753   */\n  swap8\n  pop\n    /* \"#utility.yul\":2633:2763   */\n  pop\n    /* \"#utility.yul\":2802:2805   */\n  0xa0\n    /* \"#utility.yul\":2829:2893   */\n  tag_67\n    /* \"#utility.yul\":2885:2892   */\n  dup15\n    /* \"#utility.yul\":2876:2882   */\n  dup3\n    /* \"#utility.yul\":2865:2874   */\n  dup16\n    /* \"#utility.yul\":2861:2883   */\n  add\n    /* \"#utility.yul\":2829:2893   */\n  tag_45\n  jump\t// in\ntag_67:\n    /* \"#utility.yul\":2819:2893   */\n  swap7\n  pop\n    /* \"#utility.yul\":2773:2903   */\n  pop\n    /* \"#utility.yul\":2942:2945   */\n  0xc0\n    /* \"#utility.yul\":2969:3033   */\n  tag_68\n    /* \"#utility.yul\":3025:3032   */\n  dup15\n    /* \"#utility.yul\":3016:3022   */\n  dup3\n    /* \"#utility.yul\":3005:3014   */\n  dup16\n    /* \"#utility.yul\":3001:3023   */\n  add\n    /* \"#utility.yul\":2969:3033   */\n  tag_45\n  jump\t// in\ntag_68:\n    /* \"#utility.yul\":2959:3033   */\n  swap6\n  pop\n    /* \"#utility.yul\":2913:3043   */\n  pop\n    /* \"#utility.yul\":3103:3106   */\n  0xe0\n    /* \"#utility.yul\":3092:3101   */\n  dup13\n    /* \"#utility.yul\":3088:3107   */\n  add\n    /* \"#utility.yul\":3082:3108   */\n  mload\n    /* \"#utility.yul\":3135:3153   */\n  0xffffffffffffffff\n    /* \"#utility.yul\":3127:3133   */\n  dup2\n    /* \"#utility.yul\":3124:3154   */\n  gt\n    /* \"#utility.yul\":3121:3123   */\n  iszero\n  tag_69\n  jumpi\n    /* \"#utility.yul\":3157:3236   */\n  tag_70\n  tag_55\n  jump\t// in\ntag_70:\n    /* \"#utility.yul\":3121:3123   */\ntag_69:\n    /* \"#utility.yul\":3262:3336   */\n  tag_71\n    /* \"#utility.yul\":3328:3335   */\n  dup15\n    /* \"#utility.yul\":3319:3325   */\n  dup3\n    /* \"#utility.yul\":3308:3317   */\n  dup16\n    /* \"#utility.yul\":3304:3326   */\n  add\n    /* \"#utility.yul\":3262:3336   */\n  tag_39\n  jump\t// in\ntag_71:\n    /* \"#utility.yul\":3252:3336   */\n  swap5\n  pop\n    /* \"#utility.yul\":3053:3346   */\n  pop\n    /* \"#utility.yul\":3406:3409   */\n  0x0100\n    /* \"#utility.yul\":3395:3404   */\n  dup13\n    /* \"#utility.yul\":3391:3410   */\n  add\n    /* \"#utility.yul\":3385:3411   */\n  mload\n    /* \"#utility.yul\":3438:3456   */\n  0xffffffffffffffff\n    /* \"#utility.yul\":3430:3436   */\n  dup2\n    /* \"#utility.yul\":3427:3457   */\n  gt\n    /* \"#utility.yul\":3424:3426   */\n  iszero\n  tag_72\n  jumpi\n    /* \"#utility.yul\":3460:3539   */\n  tag_73\n  tag_55\n  jump\t// in\ntag_73:\n    /* \"#utility.yul\":3424:3426   */\ntag_72:\n    /* \"#utility.yul\":3565:3639   */\n  tag_74\n    /* \"#utility.yul\":3631:3638   */\n  dup15\n    /* \"#utility.yul\":3622:3628   */\n  dup3\n    /* \"#utility.yul\":3611:3620   */\n  dup16\n    /* \"#utility.yul\":3607:3629   */\n  add\n    /* \"#utility.yul\":3565:3639   */\n  tag_39\n  jump\t// in\ntag_74:\n    /* \"#utility.yul\":3555:3639   */\n  swap4\n  pop\n    /* \"#utility.yul\":3356:3649   */\n  pop\n    /* \"#utility.yul\":3709:3712   */\n  0x0120\n    /* \"#utility.yul\":3698:3707   */\n  dup13\n    /* \"#utility.yul\":3694:3713   */\n  add\n    /* \"#utility.yul\":3688:3714   */\n  mload\n    /* \"#utility.yul\":3741:3759   */\n  0xffffffffffffffff\n    /* \"#utility.yul\":3733:3739   */\n  dup2\n    /* \"#utility.yul\":3730:3760   */\n  gt\n    /* \"#utility.yul\":3727:3729   */\n  iszero\n  tag_75\n  jumpi\n    /* \"#utility.yul\":3763:3842   */\n  tag_76\n  tag_55\n  jump\t// in\ntag_76:\n    /* \"#utility.yul\":3727:3729   */\ntag_75:\n    /* \"#utility.yul\":3868:3942   */\n  tag_77\n    /* \"#utility.yul\":3934:3941   */\n  dup15\n    /* \"#utility.yul\":3925:3931   */\n  dup3\n    /* \"#utility.yul\":3914:3923   */\n  dup16\n    /* \"#utility.yul\":3910:3932   */\n  add\n    /* \"#utility.yul\":3868:3942   */\n  tag_39\n  jump\t// in\ntag_77:\n    /* \"#utility.yul\":3858:3942   */\n  swap3\n  pop\n    /* \"#utility.yul\":3659:3952   */\n  pop\n    /* \"#utility.yul\":4012:4015   */\n  0x0140\n    /* \"#utility.yul\":4001:4010   */\n  dup13\n    /* \"#utility.yul\":3997:4016   */\n  add\n    /* \"#utility.yul\":3991:4017   */\n  mload\n    /* \"#utility.yul\":4044:4062   */\n  0xffffffffffffffff\n    /* \"#utility.yul\":4036:4042   */\n  dup2\n    /* \"#utility.yul\":4033:4063   */\n  gt\n    /* \"#utility.yul\":4030:4032   */\n  iszero\n  tag_78\n  jumpi\n    /* \"#utility.yul\":4066:4145   */\n  tag_79\n  tag_55\n  jump\t// in\ntag_79:\n    /* \"#utility.yul\":4030:4032   */\ntag_78:\n    /* \"#utility.yul\":4172:4246   */\n  tag_80\n    /* \"#utility.yul\":4238:4245   */\n  dup15\n    /* \"#utility.yul\":4229:4235   */\n  dup3\n    /* \"#utility.yul\":4218:4227   */\n  dup16\n    /* \"#utility.yul\":4214:4236   */\n  add\n    /* \"#utility.yul\":4172:4246   */\n  tag_39\n  jump\t// in\ntag_80:\n    /* \"#utility.yul\":4161:4246   */\n  swap2\n  pop\n    /* \"#utility.yul\":3962:4256   */\n  pop\n    /* \"#utility.yul\":1286:4263   */\n  swap3\n  swap6\n  swap9\n  swap12\n  pop\n  swap3\n  swap6\n  swap9\n  swap12\n  swap1\n  swap4\n  swap7\n  swap10\n  pop\n  jump\t// out\n    /* \"#utility.yul\":4269:4398   */\ntag_33:\n    /* \"#utility.yul\":4303:4309   */\n  0x00\n    /* \"#utility.yul\":4330:4350   */\n  tag_82\n  tag_83\n  jump\t// in\ntag_82:\n    /* \"#utility.yul\":4320:4350   */\n  swap1\n  pop\n    /* \"#utility.yul\":4359:4392   */\n  tag_84\n    /* \"#utility.yul\":4387:4391   */\n  dup3\n    /* \"#utility.yul\":4379:4385   */\n  dup3\n    /* \"#utility.yul\":4359:4392   */\n  tag_85\n  jump\t// in\ntag_84:\n    /* \"#utility.yul\":4310:4398   */\n  swap2\n  swap1\n  pop\n  jump\t// out\n    /* \"#utility.yul\":4404:4479   */\ntag_83:\n    /* \"#utility.yul\":4437:4443   */\n  0x00\n    /* \"#utility.yul\":4470:4472   */\n  0x40\n    /* \"#utility.yul\":4464:4473   */\n  mload\n    /* \"#utility.yul\":4454:4473   */\n  swap1\n  pop\n    /* \"#utility.yul\":4444:4479   */\n  swap1\n  jump\t// out\n    /* \"#utility.yul\":4485:4793   */\ntag_32:\n    /* \"#utility.yul\":4547:4551   */\n  0x00\n    /* \"#utility.yul\":4637:4655   */\n  0xffffffffffffffff\n    /* \"#utility.yul\":4629:4635   */\n  dup3\n    /* \"#utility.yul\":4626:4656   */\n  gt\n    /* \"#utility.yul\":4623:4625   */\n  iszero\n  tag_88\n  jumpi\n    /* \"#utility.yul\":4659:4677   */\n  tag_89\n  tag_90\n  jump\t// in\ntag_89:\n    /* \"#utility.yul\":4623:4625   */\ntag_88:\n    /* \"#utility.yul\":4697:4726   */\n  tag_91\n    /* \"#utility.yul\":4719:4725   */\n  dup3\n    /* \"#utility.yul\":4697:4726   */\n  tag_92\n  jump\t// in\ntag_91:\n    /* \"#utility.yul\":4689:4726   */\n  swap1\n  pop\n    /* \"#utility.yul\":4781:4785   */\n  0x20\n    /* \"#utility.yul\":4775:4779   */\n  dup2\n    /* \"#utility.yul\":4771:4786   */\n  add\n    /* \"#utility.yul\":4763:4786   */\n  swap1\n  pop\n    /* \"#utility.yul\":4552:4793   */\n  swap2\n  swap1\n  pop\n  jump\t// out\n    /* \"#utility.yul\":4799:4876   */\ntag_93:\n    /* \"#utility.yul\":4836:4843   */\n  0x00\n    /* \"#utility.yul\":4865:4870   */\n  dup2\n    /* \"#utility.yul\":4854:4870   */\n  swap1\n  pop\n    /* \"#utility.yul\":4844:4876   */\n  swap2\n  swap1\n  pop\n  jump\t// out\n    /* \"#utility.yul\":4882:5189   */\ntag_38:\n    /* \"#utility.yul\":4950:4951   */\n  0x00\n    /* \"#utility.yul\":4960:5073   */\ntag_96:\n    /* \"#utility.yul\":4974:4980   */\n  dup4\n    /* \"#utility.yul\":4971:4972   */\n  dup2\n    /* \"#utility.yul\":4968:4981   */\n  lt\n    /* \"#utility.yul\":4960:5073   */\n  iszero\n  tag_98\n  jumpi\n    /* \"#utility.yul\":5059:5060   */\n  dup1\n    /* \"#utility.yul\":5054:5057   */\n  dup3\n    /* \"#utility.yul\":5050:5061   */\n  add\n    /* \"#utility.yul\":5044:5062   */\n  mload\n    /* \"#utility.yul\":5040:5041   */\n  dup2\n    /* \"#utility.yul\":5035:5038   */\n  dup5\n    /* \"#utility.yul\":5031:5042   */\n  add\n    /* \"#utility.yul\":5024:5063   */\n  mstore\n    /* \"#utility.yul\":4996:4998   */\n  0x20\n    /* \"#utility.yul\":4993:4994   */\n  dup2\n    /* \"#utility.yul\":4989:4999   */\n  add\n    /* \"#utility.yul\":4984:4999   */\n  swap1\n  pop\n    /* \"#utility.yul\":4960:5073   */\n  jump(tag_96)\ntag_98:\n    /* \"#utility.yul\":5091:5097   */\n  dup4\n    /* \"#utility.yul\":5088:5089   */\n  dup2\n    /* \"#utility.yul\":5085:5098   */\n  gt\n    /* \"#utility.yul\":5082:5084   */\n  iszero\n  tag_99\n  jumpi\n    /* \"#utility.yul\":5171:5172   */\n  0x00\n    /* \"#utility.yul\":5162:5168   */\n  dup5\n    /* \"#utility.yul\":5157:5160   */\n  dup5\n    /* \"#utility.yul\":5153:5169   */\n  add\n    /* \"#utility.yul\":5146:5173   */\n  mstore\n    /* \"#utility.yul\":5082:5084   */\ntag_99:\n    /* \"#utility.yul\":4931:5189   */\n  pop\n  pop\n  pop\n  pop\n  jump\t// out\n    /* \"#utility.yul\":5195:5515   */\ntag_17:\n    /* \"#utility.yul\":5239:5245   */\n  0x00\n    /* \"#utility.yul\":5276:5277   */\n  0x02\n    /* \"#utility.yul\":5270:5274   */\n  dup3\n    /* \"#utility.yul\":5266:5278   */\n  div\n    /* \"#utility.yul\":5256:5278   */\n  swap1\n  pop\n    /* \"#utility.yul\":5323:5324   */\n  0x01\n    /* \"#utility.yul\":5317:5321   */\n  dup3\n    /* \"#utility.yul\":5313:5325   */\n  and\n    /* \"#utility.yul\":5344:5362   */\n  dup1\n    /* \"#utility.yul\":5334:5336   */\n  tag_101\n  jumpi\n    /* \"#utility.yul\":5400:5404   */\n  0x7f\n    /* \"#utility.yul\":5392:5398   */\n  dup3\n    /* \"#utility.yul\":5388:5405   */\n  and\n    /* \"#utility.yul\":5378:5405   */\n  swap2\n  pop\n    /* \"#utility.yul\":5334:5336   */\ntag_101:\n    /* \"#utility.yul\":5462:5464   */\n  0x20\n    /* \"#utility.yul\":5454:5460   */\n  dup3\n    /* \"#utility.yul\":5451:5465   */\n  lt\n    /* \"#utility.yul\":5431:5449   */\n  dup2\n    /* \"#utility.yul\":5428:5466   */\n  eq\n    /* \"#utility.yul\":5425:5427   */\n  iszero\n  tag_102\n  jumpi\n    /* \"#utility.yul\":5481:5499   */\n  tag_103\n  tag_104\n  jump\t// in\ntag_103:\n    /* \"#utility.yul\":5425:5427   */\ntag_102:\n    /* \"#utility.yul\":5246:5515   */\n  pop\n  swap2\n  swap1\n  pop\n  jump\t// out\n    /* \"#utility.yul\":5521:5802   */\ntag_85:\n    /* \"#utility.yul\":5604:5631   */\n  tag_106\n    /* \"#utility.yul\":5626:5630   */\n  dup3\n    /* \"#utility.yul\":5604:5631   */\n  tag_92\n  jump\t// in\ntag_106:\n    /* \"#utility.yul\":5596:5602   */\n  dup2\n    /* \"#utility.yul\":5592:5632   */\n  add\n    /* \"#utility.yul\":5734:5740   */\n  dup2\n    /* \"#utility.yul\":5722:5732   */\n  dup2\n    /* \"#utility.yul\":5719:5741   */\n  lt\n    /* \"#utility.yul\":5698:5716   */\n  0xffffffffffffffff\n    /* \"#utility.yul\":5686:5696   */\n  dup3\n    /* \"#utility.yul\":5683:5717   */\n  gt\n    /* \"#utility.yul\":5680:5742   */\n  or\n    /* \"#utility.yul\":5677:5679   */\n  iszero\n  tag_107\n  jumpi\n    /* \"#utility.yul\":5745:5763   */\n  tag_108\n  tag_90\n  jump\t// in\ntag_108:\n    /* \"#utility.yul\":5677:5679   */\ntag_107:\n    /* \"#utility.yul\":5785:5795   */\n  dup1\n    /* \"#utility.yul\":5781:5783   */\n  0x40\n    /* \"#utility.yul\":5774:5796   */\n  mstore\n    /* \"#utility.yul\":5564:5802   */\n  pop\n  pop\n  pop\n  jump\t// out\n    /* \"#utility.yul\":5808:5988   */\ntag_104:\n    /* \"#utility.yul\":5856:5933   */\n  0x4e487b7100000000000000000000000000000000000000000000000000000000\n    /* \"#utility.yul\":5853:5854   */\n  0x00\n    /* \"#utility.yul\":5846:5934   */\n  mstore\n    /* \"#utility.yul\":5953:5957   */\n  0x22\n    /* \"#utility.yul\":5950:5951   */\n  0x04\n    /* \"#utility.yul\":5943:5958   */\n  mstore\n    /* \"#utility.yul\":5977:5981   */\n  0x24\n    /* \"#utility.yul\":5974:5975   */\n  0x00\n    /* \"#utility.yul\":5967:5982   */\n  revert\n    /* \"#utility.yul\":5994:6174   */\ntag_90:\n    /* \"#utility.yul\":6042:6119   */\n  0x4e487b7100000000000000000000000000000000000000000000000000000000\n    /* \"#utility.yul\":6039:6040   */\n  0x00\n    /* \"#utility.yul\":6032:6120   */\n  mstore\n    /* \"#utility.yul\":6139:6143   */\n  0x41\n    /* \"#utility.yul\":6136:6137   */\n  0x04\n    /* \"#utility.yul\":6129:6144   */\n  mstore\n    /* \"#utility.yul\":6163:6167   */\n  0x24\n    /* \"#utility.yul\":6160:6161   */\n  0x00\n    /* \"#utility.yul\":6153:6168   */\n  revert\n    /* \"#utility.yul\":6180:6297   */\ntag_43:\n    /* \"#utility.yul\":6289:6290   */\n  0x00\n    /* \"#utility.yul\":6286:6287   */\n  dup1\n    /* \"#utility.yul\":6279:6291   */\n  revert\n    /* \"#utility.yul\":6303:6420   */\ntag_36:\n    /* \"#utility.yul\":6412:6413   */\n  0x00\n    /* \"#utility.yul\":6409:6410   */\n  dup1\n    /* \"#utility.yul\":6402:6414   */\n  revert\n    /* \"#utility.yul\":6426:6543   */\ntag_55:\n    /* \"#utility.yul\":6535:6536   */\n  0x00\n    /* \"#utility.yul\":6532:6533   */\n  dup1\n    /* \"#utility.yul\":6525:6537   */\n  revert\n    /* \"#utility.yul\":6549:6666   */\ntag_52:\n    /* \"#utility.yul\":6658:6659   */\n  0x00\n    /* \"#utility.yul\":6655:6656   */\n  dup1\n    /* \"#utility.yul\":6648:6660   */\n  revert\n    /* \"#utility.yul\":6672:6774   */\ntag_92:\n    /* \"#utility.yul\":6713:6719   */\n  0x00\n    /* \"#utility.yul\":6764:6766   */\n  0x1f\n    /* \"#utility.yul\":6760:6767   */\n  not\n    /* \"#utility.yul\":6755:6757   */\n  0x1f\n    /* \"#utility.yul\":6748:6753   */\n  dup4\n    /* \"#utility.yul\":6744:6758   */\n  add\n    /* \"#utility.yul\":6740:6768   */\n  and\n    /* \"#utility.yul\":6730:6768   */\n  swap1\n  pop\n    /* \"#utility.yul\":6720:6774   */\n  swap2\n  swap1\n  pop\n  jump\t// out\n    /* \"#utility.yul\":6780:6902   */\ntag_48:\n    /* \"#utility.yul\":6853:6877   */\n  tag_117\n    /* \"#utility.yul\":6871:6876   */\n  dup2\n    /* \"#utility.yul\":6853:6877   */\n  tag_93\n  jump\t// in\ntag_117:\n    /* \"#utility.yul\":6846:6851   */\n  dup2\n    /* \"#utility.yul\":6843:6878   */\n  eq\n    /* \"#utility.yul\":6833:6835   */\n  tag_118\n  jumpi\n    /* \"#utility.yul\":6892:6893   */\n  0x00\n    /* \"#utility.yul\":6889:6890   */\n  dup1\n    /* \"#utility.yul\":6882:6894   */\n  revert\n    /* \"#utility.yul\":6833:6835   */\ntag_118:\n    /* \"#utility.yul\":6823:6902   */\n  pop\n  jump\t// out\n    /* \"ethereum/contracts/missing_person.sol\":1195:3945  contract MissingPerson {\r... */\ntag_15:\n  dataSize(sub_0)\n  dup1\n  dataOffset(sub_0)\n  0x00\n  codecopy\n  0x00\n  return\nstop\n\nsub_0: assembly {\n        /* \"ethereum/contracts/missing_person.sol\":1195:3945  contract MissingPerson {\r... */\n      mstore(0x40, 0x80)\n      callvalue\n      dup1\n      iszero\n      tag_1\n      jumpi\n      0x00\n      dup1\n      revert\n    tag_1:\n      pop\n      jumpi(tag_2, lt(calldatasize, 0x04))\n      shr(0xe0, calldataload(0x00))\n      dup1\n      0x30884b68\n      eq\n      tag_3\n      jumpi\n      dup1\n      0x3bc5de30\n      eq\n      tag_4\n      jumpi\n      dup1\n      0x47f450b0\n      eq\n      tag_5\n      jumpi\n      dup1\n      0x4a2bfdc7\n      eq\n      tag_6\n      jumpi\n      dup1\n      0x86444b43\n      eq\n      tag_7\n      jumpi\n      dup1\n      0xdc4ade84\n      eq\n      tag_8\n      jumpi\n    tag_2:\n      0x00\n      dup1\n      revert\n        /* \"ethereum/contracts/missing_person.sol\":3012:3101  function getPictureID() public view returns (string memory) {\r... */\n    tag_3:\n      tag_9\n      tag_10\n      jump\t// in\n    tag_9:\n      mload(0x40)\n      tag_11\n      swap2\n      swap1\n      tag_12\n      jump\t// in\n    tag_11:\n      mload(0x40)\n      dup1\n      swap2\n      sub\n      swap1\n      return\n        /* \"ethereum/contracts/missing_person.sol\":3109:3827  function getData()\r... */\n    tag_4:\n      tag_13\n      tag_14\n      jump\t// in\n    tag_13:\n      mload(0x40)\n      tag_15\n      swap13\n      swap12\n      swap11\n      swap10\n      swap9\n      swap8\n      swap7\n      swap6\n      swap5\n      swap4\n      swap3\n      swap2\n      swap1\n      tag_16\n      jump\t// in\n    tag_15:\n      mload(0x40)\n      dup1\n      swap2\n      sub\n      swap1\n      return\n        /* \"ethereum/contracts/missing_person.sol\":3835:3942  function getInvestigator() public view returns (Investigator memory) {\r... */\n    tag_5:\n      tag_17\n      tag_18\n      jump\t// in\n    tag_17:\n      mload(0x40)\n      tag_19\n      swap2\n      swap1\n      tag_20\n      jump\t// in\n    tag_19:\n      mload(0x40)\n      dup1\n      swap2\n      sub\n      swap1\n      return\n        /* \"ethereum/contracts/missing_person.sol\":2849:2933  function investigationStarted() public {\r... */\n    tag_6:\n      tag_21\n      tag_22\n      jump\t// in\n    tag_21:\n      stop\n        /* \"ethereum/contracts/missing_person.sol\":2563:2841  function setInvestigator(\r... */\n    tag_7:\n      tag_23\n      0x04\n      dup1\n      calldatasize\n      sub\n      dup2\n      add\n      swap1\n      tag_24\n      swap2\n      swap1\n      tag_25\n      jump\t// in\n    tag_24:\n      tag_26\n      jump\t// in\n    tag_23:\n      stop\n        /* \"ethereum/contracts/missing_person.sol\":2941:3004  function markAsFound() public {\r... */\n    tag_8:\n      tag_27\n      tag_28\n      jump\t// in\n    tag_27:\n      stop\n        /* \"ethereum/contracts/missing_person.sol\":3012:3101  function getPictureID() public view returns (string memory) {\r... */\n    tag_10:\n        /* \"ethereum/contracts/missing_person.sol\":3057:3070  string memory */\n      0x60\n        /* \"ethereum/contracts/missing_person.sol\":3090:3093  pid */\n      0x00\n        /* \"ethereum/contracts/missing_person.sol\":3083:3093  return pid */\n      dup1\n      sload\n      tag_30\n      swap1\n      tag_31\n      jump\t// in\n    tag_30:\n      dup1\n      0x1f\n      add\n      0x20\n      dup1\n      swap2\n      div\n      mul\n      0x20\n      add\n      mload(0x40)\n      swap1\n      dup2\n      add\n      0x40\n      mstore\n      dup1\n      swap3\n      swap2\n      swap1\n      dup2\n      dup2\n      mstore\n      0x20\n      add\n      dup3\n      dup1\n      sload\n      tag_32\n      swap1\n      tag_31\n      jump\t// in\n    tag_32:\n      dup1\n      iszero\n      tag_33\n      jumpi\n      dup1\n      0x1f\n      lt\n      tag_34\n      jumpi\n      0x0100\n      dup1\n      dup4\n      sload\n      div\n      mul\n      dup4\n      mstore\n      swap2\n      0x20\n      add\n      swap2\n      jump(tag_33)\n    tag_34:\n      dup3\n      add\n      swap2\n      swap1\n      0x00\n      mstore\n      keccak256(0x00, 0x20)\n      swap1\n    tag_35:\n      dup2\n      sload\n      dup2\n      mstore\n      swap1\n      0x01\n      add\n      swap1\n      0x20\n      add\n      dup1\n      dup4\n      gt\n      tag_35\n      jumpi\n      dup3\n      swap1\n      sub\n      0x1f\n      and\n      dup3\n      add\n      swap2\n    tag_33:\n      pop\n      pop\n      pop\n      pop\n      pop\n      swap1\n      pop\n        /* \"ethereum/contracts/missing_person.sol\":3012:3101  function getPictureID() public view returns (string memory) {\r... */\n      swap1\n      jump\t// out\n        /* \"ethereum/contracts/missing_person.sol\":3109:3827  function getData()\r... */\n    tag_14:\n        /* \"ethereum/contracts/missing_person.sol\":3190:3203  string memory */\n      0x60\n        /* \"ethereum/contracts/missing_person.sol\":3218:3231  string memory */\n      dup1\n        /* \"ethereum/contracts/missing_person.sol\":3246:3259  string memory */\n      0x60\n        /* \"ethereum/contracts/missing_person.sol\":3274:3281  uint256 */\n      0x00\n        /* \"ethereum/contracts/missing_person.sol\":3296:3303  uint256 */\n      dup1\n        /* \"ethereum/contracts/missing_person.sol\":3318:3325  uint256 */\n      0x00\n        /* \"ethereum/contracts/missing_person.sol\":3340:3353  string memory */\n      0x60\n        /* \"ethereum/contracts/missing_person.sol\":3368:3381  string memory */\n      dup1\n        /* \"ethereum/contracts/missing_person.sol\":3396:3409  string memory */\n      0x60\n        /* \"ethereum/contracts/missing_person.sol\":3424:3437  string memory */\n      dup1\n        /* \"ethereum/contracts/missing_person.sol\":3452:3456  bool */\n      0x00\n        /* \"ethereum/contracts/missing_person.sol\":3471:3475  bool */\n      dup1\n        /* \"ethereum/contracts/missing_person.sol\":3525:3529  name */\n      0x01\n        /* \"ethereum/contracts/missing_person.sol\":3544:3547  cid */\n      0x02\n        /* \"ethereum/contracts/missing_person.sol\":3562:3573  phoneNumber */\n      0x03\n        /* \"ethereum/contracts/missing_person.sol\":3588:3591  age */\n      sload(0x04)\n        /* \"ethereum/contracts/missing_person.sol\":3606:3612  height */\n      sload(0x05)\n        /* \"ethereum/contracts/missing_person.sol\":3627:3633  weight */\n      sload(0x06)\n        /* \"ethereum/contracts/missing_person.sol\":3648:3660  dateLastSeen */\n      0x07\n        /* \"ethereum/contracts/missing_person.sol\":3675:3687  timeLastSeen */\n      0x08\n        /* \"ethereum/contracts/missing_person.sol\":3702:3718  locationLastSeen */\n      0x09\n        /* \"ethereum/contracts/missing_person.sol\":3733:3752  modeOfTransportUsed */\n      0x0a\n        /* \"ethereum/contracts/missing_person.sol\":3767:3786  isBeingInvestigated */\n      0x0b\n      0x00\n      swap1\n      sload\n      swap1\n      0x0100\n      exp\n      swap1\n      div\n      0xff\n      and\n        /* \"ethereum/contracts/missing_person.sol\":3801:3808  isFound */\n      0x0b\n      0x01\n      swap1\n      sload\n      swap1\n      0x0100\n      exp\n      swap1\n      div\n      0xff\n      and\n        /* \"ethereum/contracts/missing_person.sol\":3503:3819  return (\r... */\n      dup12\n      dup1\n      sload\n      tag_37\n      swap1\n      tag_31\n      jump\t// in\n    tag_37:\n      dup1\n      0x1f\n      add\n      0x20\n      dup1\n      swap2\n      div\n      mul\n      0x20\n      add\n      mload(0x40)\n      swap1\n      dup2\n      add\n      0x40\n      mstore\n      dup1\n      swap3\n      swap2\n      swap1\n      dup2\n      dup2\n      mstore\n      0x20\n      add\n      dup3\n      dup1\n      sload\n      tag_38\n      swap1\n      tag_31\n      jump\t// in\n    tag_38:\n      dup1\n      iszero\n      tag_39\n      jumpi\n      dup1\n      0x1f\n      lt\n      tag_40\n      jumpi\n      0x0100\n      dup1\n      dup4\n      sload\n      div\n      mul\n      dup4\n      mstore\n      swap2\n      0x20\n      add\n      swap2\n      jump(tag_39)\n    tag_40:\n      dup3\n      add\n      swap2\n      swap1\n      0x00\n      mstore\n      keccak256(0x00, 0x20)\n      swap1\n    tag_41:\n      dup2\n      sload\n      dup2\n      mstore\n      swap1\n      0x01\n      add\n      swap1\n      0x20\n      add\n      dup1\n      dup4\n      gt\n      tag_41\n      jumpi\n      dup3\n      swap1\n      sub\n      0x1f\n      and\n      dup3\n      add\n      swap2\n    tag_39:\n      pop\n      pop\n      pop\n      pop\n      pop\n      swap12\n      pop\n      dup11\n      dup1\n      sload\n      tag_42\n      swap1\n      tag_31\n      jump\t// in\n    tag_42:\n      dup1\n      0x1f\n      add\n      0x20\n      dup1\n      swap2\n      div\n      mul\n      0x20\n      add\n      mload(0x40)\n      swap1\n      dup2\n      add\n      0x40\n      mstore\n      dup1\n      swap3\n      swap2\n      swap1\n      dup2\n      dup2\n      mstore\n      0x20\n      add\n      dup3\n      dup1\n      sload\n      tag_43\n      swap1\n      tag_31\n      jump\t// in\n    tag_43:\n      dup1\n      iszero\n      tag_44\n      jumpi\n      dup1\n      0x1f\n      lt\n      tag_45\n      jumpi\n      0x0100\n      dup1\n      dup4\n      sload\n      div\n      mul\n      dup4\n      mstore\n      swap2\n      0x20\n      add\n      swap2\n      jump(tag_44)\n    tag_45:\n      dup3\n      add\n      swap2\n      swap1\n      0x00\n      mstore\n      keccak256(0x00, 0x20)\n      swap1\n    tag_46:\n      dup2\n      sload\n      dup2\n      mstore\n      swap1\n      0x01\n      add\n      swap1\n      0x20\n      add\n      dup1\n      dup4\n      gt\n      tag_46\n      jumpi\n      dup3\n      swap1\n      sub\n      0x1f\n      and\n      dup3\n      add\n      swap2\n    tag_44:\n      pop\n      pop\n      pop\n      pop\n      pop\n      swap11\n      pop\n      dup10\n      dup1\n      sload\n      tag_47\n      swap1\n      tag_31\n      jump\t// in\n    tag_47:\n      dup1\n      0x1f\n      add\n      0x20\n      dup1\n      swap2\n      div\n      mul\n      0x20\n      add\n      mload(0x40)\n      swap1\n      dup2\n      add\n      0x40\n      mstore\n      dup1\n      swap3\n      swap2\n      swap1\n      dup2\n      dup2\n      mstore\n      0x20\n      add\n      dup3\n      dup1\n      sload\n      tag_48\n      swap1\n      tag_31\n      jump\t// in\n    tag_48:\n      dup1\n      iszero\n      tag_49\n      jumpi\n      dup1\n      0x1f\n      lt\n      tag_50\n      jumpi\n      0x0100\n      dup1\n      dup4\n      sload\n      div\n      mul\n      dup4\n      mstore\n      swap2\n      0x20\n      add\n      swap2\n      jump(tag_49)\n    tag_50:\n      dup3\n      add\n      swap2\n      swap1\n      0x00\n      mstore\n      keccak256(0x00, 0x20)\n      swap1\n    tag_51:\n      dup2\n      sload\n      dup2\n      mstore\n      swap1\n      0x01\n      add\n      swap1\n      0x20\n      add\n      dup1\n      dup4\n      gt\n      tag_51\n      jumpi\n      dup3\n      swap1\n      sub\n      0x1f\n      and\n      dup3\n      add\n      swap2\n    tag_49:\n      pop\n      pop\n      pop\n      pop\n      pop\n      swap10\n      pop\n      dup6\n      dup1\n      sload\n      tag_52\n      swap1\n      tag_31\n      jump\t// in\n    tag_52:\n      dup1\n      0x1f\n      add\n      0x20\n      dup1\n      swap2\n      div\n      mul\n      0x20\n      add\n      mload(0x40)\n      swap1\n      dup2\n      add\n      0x40\n      mstore\n      dup1\n      swap3\n      swap2\n      swap1\n      dup2\n      dup2\n      mstore\n      0x20\n      add\n      dup3\n      dup1\n      sload\n      tag_53\n      swap1\n      tag_31\n      jump\t// in\n    tag_53:\n      dup1\n      iszero\n      tag_54\n      jumpi\n      dup1\n      0x1f\n      lt\n      tag_55\n      jumpi\n      0x0100\n      dup1\n      dup4\n      sload\n      div\n      mul\n      dup4\n      mstore\n      swap2\n      0x20\n      add\n      swap2\n      jump(tag_54)\n    tag_55:\n      dup3\n      add\n      swap2\n      swap1\n      0x00\n      mstore\n      keccak256(0x00, 0x20)\n      swap1\n    tag_56:\n      dup2\n      sload\n      dup2\n      mstore\n      swap1\n      0x01\n      add\n      swap1\n      0x20\n      add\n      dup1\n      dup4\n      gt\n      tag_56\n      jumpi\n      dup3\n      swap1\n      sub\n      0x1f\n      and\n      dup3\n      add\n      swap2\n    tag_54:\n      pop\n      pop\n      pop\n      pop\n      pop\n      swap6\n      pop\n      dup5\n      dup1\n      sload\n      tag_57\n      swap1\n      tag_31\n      jump\t// in\n    tag_57:\n      dup1\n      0x1f\n      add\n      0x20\n      dup1\n      swap2\n      div\n      mul\n      0x20\n      add\n      mload(0x40)\n      swap1\n      dup2\n      add\n      0x40\n      mstore\n      dup1\n      swap3\n      swap2\n      swap1\n      dup2\n      dup2\n      mstore\n      0x20\n      add\n      dup3\n      dup1\n      sload\n      tag_58\n      swap1\n      tag_31\n      jump\t// in\n    tag_58:\n      dup1\n      iszero\n      tag_59\n      jumpi\n      dup1\n      0x1f\n      lt\n      tag_60\n      jumpi\n      0x0100\n      dup1\n      dup4\n      sload\n      div\n      mul\n      dup4\n      mstore\n      swap2\n      0x20\n      add\n      swap2\n      jump(tag_59)\n    tag_60:\n      dup3\n      add\n      swap2\n      swap1\n      0x00\n      mstore\n      keccak256(0x00, 0x20)\n      swap1\n    tag_61:\n      dup2\n      sload\n      dup2\n      mstore\n      swap1\n      0x01\n      add\n      swap1\n      0x20\n      add\n      dup1\n      dup4\n      gt\n      tag_61\n      jumpi\n      dup3\n      swap1\n      sub\n      0x1f\n      and\n      dup3\n      add\n      swap2\n    tag_59:\n      pop\n      pop\n      pop\n      pop\n      pop\n      swap5\n      pop\n      dup4\n      dup1\n      sload\n      tag_62\n      swap1\n      tag_31\n      jump\t// in\n    tag_62:\n      dup1\n      0x1f\n      add\n      0x20\n      dup1\n      swap2\n      div\n      mul\n      0x20\n      add\n      mload(0x40)\n      swap1\n      dup2\n      add\n      0x40\n      mstore\n      dup1\n      swap3\n      swap2\n      swap1\n      dup2\n      dup2\n      mstore\n      0x20\n      add\n      dup3\n      dup1\n      sload\n      tag_63\n      swap1\n      tag_31\n      jump\t// in\n    tag_63:\n      dup1\n      iszero\n      tag_64\n      jumpi\n      dup1\n      0x1f\n      lt\n      tag_65\n      jumpi\n      0x0100\n      dup1\n      dup4\n      sload\n      div\n      mul\n      dup4\n      mstore\n      swap2\n      0x20\n      add\n      swap2\n      jump(tag_64)\n    tag_65:\n      dup3\n      add\n      swap2\n      swap1\n      0x00\n      mstore\n      keccak256(0x00, 0x20)\n      swap1\n    tag_66:\n      dup2\n      sload\n      dup2\n      mstore\n      swap1\n      0x01\n      add\n      swap1\n      0x20\n      add\n      dup1\n      dup4\n      gt\n      tag_66\n      jumpi\n      dup3\n      swap1\n      sub\n      0x1f\n      and\n      dup3\n      add\n      swap2\n    tag_64:\n      pop\n      pop\n      pop\n      pop\n      pop\n      swap4\n      pop\n      dup3\n      dup1\n      sload\n      tag_67\n      swap1\n      tag_31\n      jump\t// in\n    tag_67:\n      dup1\n      0x1f\n      add\n      0x20\n      dup1\n      swap2\n      div\n      mul\n      0x20\n      add\n      mload(0x40)\n      swap1\n      dup2\n      add\n      0x40\n      mstore\n      dup1\n      swap3\n      swap2\n      swap1\n      dup2\n      dup2\n      mstore\n      0x20\n      add\n      dup3\n      dup1\n      sload\n      tag_68\n      swap1\n      tag_31\n      jump\t// in\n    tag_68:\n      dup1\n      iszero\n      tag_69\n      jumpi\n      dup1\n      0x1f\n      lt\n      tag_70\n      jumpi\n      0x0100\n      dup1\n      dup4\n      sload\n      div\n      mul\n      dup4\n      mstore\n      swap2\n      0x20\n      add\n      swap2\n      jump(tag_69)\n    tag_70:\n      dup3\n      add\n      swap2\n      swap1\n      0x00\n      mstore\n      keccak256(0x00, 0x20)\n      swap1\n    tag_71:\n      dup2\n      sload\n      dup2\n      mstore\n      swap1\n      0x01\n      add\n      swap1\n      0x20\n      add\n      dup1\n      dup4\n      gt\n      tag_71\n      jumpi\n      dup3\n      swap1\n      sub\n      0x1f\n      and\n      dup3\n      add\n      swap2\n    tag_69:\n      pop\n      pop\n      pop\n      pop\n      pop\n      swap3\n      pop\n      swap12\n      pop\n      swap12\n      pop\n      swap12\n      pop\n      swap12\n      pop\n      swap12\n      pop\n      swap12\n      pop\n      swap12\n      pop\n      swap12\n      pop\n      swap12\n      pop\n      swap12\n      pop\n      swap12\n      pop\n      swap12\n      pop\n        /* \"ethereum/contracts/missing_person.sol\":3109:3827  function getData()\r... */\n      swap1\n      swap2\n      swap3\n      swap4\n      swap5\n      swap6\n      swap7\n      swap8\n      swap9\n      swap10\n      swap11\n      swap12\n      jump\t// out\n        /* \"ethereum/contracts/missing_person.sol\":3835:3942  function getInvestigator() public view returns (Investigator memory) {\r... */\n    tag_18:\n        /* \"ethereum/contracts/missing_person.sol\":3883:3902  Investigator memory */\n      tag_72\n      tag_73\n      jump\t// in\n    tag_72:\n        /* \"ethereum/contracts/missing_person.sol\":3922:3934  investigator */\n      0x0c\n        /* \"ethereum/contracts/missing_person.sol\":3915:3934  return investigator */\n      mload(0x40)\n      dup1\n      0x80\n      add\n      0x40\n      mstore\n      swap1\n      dup2\n      0x00\n      dup3\n      add\n      dup1\n      sload\n      tag_75\n      swap1\n      tag_31\n      jump\t// in\n    tag_75:\n      dup1\n      0x1f\n      add\n      0x20\n      dup1\n      swap2\n      div\n      mul\n      0x20\n      add\n      mload(0x40)\n      swap1\n      dup2\n      add\n      0x40\n      mstore\n      dup1\n      swap3\n      swap2\n      swap1\n      dup2\n      dup2\n      mstore\n      0x20\n      add\n      dup3\n      dup1\n      sload\n      tag_76\n      swap1\n      tag_31\n      jump\t// in\n    tag_76:\n      dup1\n      iszero\n      tag_77\n      jumpi\n      dup1\n      0x1f\n      lt\n      tag_78\n      jumpi\n      0x0100\n      dup1\n      dup4\n      sload\n      div\n      mul\n      dup4\n      mstore\n      swap2\n      0x20\n      add\n      swap2\n      jump(tag_77)\n    tag_78:\n      dup3\n      add\n      swap2\n      swap1\n      0x00\n      mstore\n      keccak256(0x00, 0x20)\n      swap1\n    tag_79:\n      dup2\n      sload\n      dup2\n      mstore\n      swap1\n      0x01\n      add\n      swap1\n      0x20\n      add\n      dup1\n      dup4\n      gt\n      tag_79\n      jumpi\n      dup3\n      swap1\n      sub\n      0x1f\n      and\n      dup3\n      add\n      swap2\n    tag_77:\n      pop\n      pop\n      pop\n      pop\n      pop\n      dup2\n      mstore\n      0x20\n      add\n      0x01\n      dup3\n      add\n      dup1\n      sload\n      tag_80\n      swap1\n      tag_31\n      jump\t// in\n    tag_80:\n      dup1\n      0x1f\n      add\n      0x20\n      dup1\n      swap2\n      div\n      mul\n      0x20\n      add\n      mload(0x40)\n      swap1\n      dup2\n      add\n      0x40\n      mstore\n      dup1\n      swap3\n      swap2\n      swap1\n      dup2\n      dup2\n      mstore\n      0x20\n      add\n      dup3\n      dup1\n      sload\n      tag_81\n      swap1\n      tag_31\n      jump\t// in\n    tag_81:\n      dup1\n      iszero\n      tag_82\n      jumpi\n      dup1\n      0x1f\n      lt\n      tag_83\n      jumpi\n      0x0100\n      dup1\n      dup4\n      sload\n      div\n      mul\n      dup4\n      mstore\n      swap2\n      0x20\n      add\n      swap2\n      jump(tag_82)\n    tag_83:\n      dup3\n      add\n      swap2\n      swap1\n      0x00\n      mstore\n      keccak256(0x00, 0x20)\n      swap1\n    tag_84:\n      dup2\n      sload\n      dup2\n      mstore\n      swap1\n      0x01\n      add\n      swap1\n      0x20\n      add\n      dup1\n      dup4\n      gt\n      tag_84\n      jumpi\n      dup3\n      swap1\n      sub\n      0x1f\n      and\n      dup3\n      add\n      swap2\n    tag_82:\n      pop\n      pop\n      pop\n      pop\n      pop\n      dup2\n      mstore\n      0x20\n      add\n      0x02\n      dup3\n      add\n      dup1\n      sload\n      tag_85\n      swap1\n      tag_31\n      jump\t// in\n    tag_85:\n      dup1\n      0x1f\n      add\n      0x20\n      dup1\n      swap2\n      div\n      mul\n      0x20\n      add\n      mload(0x40)\n      swap1\n      dup2\n      add\n      0x40\n      mstore\n      dup1\n      swap3\n      swap2\n      swap1\n      dup2\n      dup2\n      mstore\n      0x20\n      add\n      dup3\n      dup1\n      sload\n      tag_86\n      swap1\n      tag_31\n      jump\t// in\n    tag_86:\n      dup1\n      iszero\n      tag_87\n      jumpi\n      dup1\n      0x1f\n      lt\n      tag_88\n      jumpi\n      0x0100\n      dup1\n      dup4\n      sload\n      div\n      mul\n      dup4\n      mstore\n      swap2\n      0x20\n      add\n      swap2\n      jump(tag_87)\n    tag_88:\n      dup3\n      add\n      swap2\n      swap1\n      0x00\n      mstore\n      keccak256(0x00, 0x20)\n      swap1\n    tag_89:\n      dup2\n      sload\n      dup2\n      mstore\n      swap1\n      0x01\n      add\n      swap1\n      0x20\n      add\n      dup1\n      dup4\n      gt\n      tag_89\n      jumpi\n      dup3\n      swap1\n      sub\n      0x1f\n      and\n      dup3\n      add\n      swap2\n    tag_87:\n      pop\n      pop\n      pop\n      pop\n      pop\n      dup2\n      mstore\n      0x20\n      add\n      0x03\n      dup3\n      add\n      dup1\n      sload\n      tag_90\n      swap1\n      tag_31\n      jump\t// in\n    tag_90:\n      dup1\n      0x1f\n      add\n      0x20\n      dup1\n      swap2\n      div\n      mul\n      0x20\n      add\n      mload(0x40)\n      swap1\n      dup2\n      add\n      0x40\n      mstore\n      dup1\n      swap3\n      swap2\n      swap1\n      dup2\n      dup2\n      mstore\n      0x20\n      add\n      dup3\n      dup1\n      sload\n      tag_91\n      swap1\n      tag_31\n      jump\t// in\n    tag_91:\n      dup1\n      iszero\n      tag_92\n      jumpi\n      dup1\n      0x1f\n      lt\n      tag_93\n      jumpi\n      0x0100\n      dup1\n      dup4\n      sload\n      div\n      mul\n      dup4\n      mstore\n      swap2\n      0x20\n      add\n      swap2\n      jump(tag_92)\n    tag_93:\n      dup3\n      add\n      swap2\n      swap1\n      0x00\n      mstore\n      keccak256(0x00, 0x20)\n      swap1\n    tag_94:\n      dup2\n      sload\n      dup2\n      mstore\n      swap1\n      0x01\n      add\n      swap1\n      0x20\n      add\n      dup1\n      dup4\n      gt\n      tag_94\n      jumpi\n      dup3\n      swap1\n      sub\n      0x1f\n      and\n      dup3\n      add\n      swap2\n    tag_92:\n      pop\n      pop\n      pop\n      pop\n      pop\n      dup2\n      mstore\n      pop\n      pop\n      swap1\n      pop\n        /* \"ethereum/contracts/missing_person.sol\":3835:3942  function getInvestigator() public view returns (Investigator memory) {\r... */\n      swap1\n      jump\t// out\n        /* \"ethereum/contracts/missing_person.sol\":2849:2933  function investigationStarted() public {\r... */\n    tag_22:\n        /* \"ethereum/contracts/missing_person.sol\":2921:2925  true */\n      0x01\n        /* \"ethereum/contracts/missing_person.sol\":2899:2918  isBeingInvestigated */\n      0x0b\n      0x00\n        /* \"ethereum/contracts/missing_person.sol\":2899:2925  isBeingInvestigated = true */\n      0x0100\n      exp\n      dup2\n      sload\n      dup2\n      0xff\n      mul\n      not\n      and\n      swap1\n      dup4\n      iszero\n      iszero\n      mul\n      or\n      swap1\n      sstore\n      pop\n        /* \"ethereum/contracts/missing_person.sol\":2849:2933  function investigationStarted() public {\r... */\n      jump\t// out\n        /* \"ethereum/contracts/missing_person.sol\":2563:2841  function setInvestigator(\r... */\n    tag_26:\n        /* \"ethereum/contracts/missing_person.sol\":2754:2800  Investigator(_name, _cid, _badgeNumber, _rank) */\n      mload(0x40)\n      dup1\n      0x80\n      add\n      0x40\n      mstore\n      dup1\n        /* \"ethereum/contracts/missing_person.sol\":2767:2772  _name */\n      dup6\n        /* \"ethereum/contracts/missing_person.sol\":2754:2800  Investigator(_name, _cid, _badgeNumber, _rank) */\n      dup2\n      mstore\n      0x20\n      add\n        /* \"ethereum/contracts/missing_person.sol\":2774:2778  _cid */\n      dup5\n        /* \"ethereum/contracts/missing_person.sol\":2754:2800  Investigator(_name, _cid, _badgeNumber, _rank) */\n      dup2\n      mstore\n      0x20\n      add\n        /* \"ethereum/contracts/missing_person.sol\":2780:2792  _badgeNumber */\n      dup4\n        /* \"ethereum/contracts/missing_person.sol\":2754:2800  Investigator(_name, _cid, _badgeNumber, _rank) */\n      dup2\n      mstore\n      0x20\n      add\n        /* \"ethereum/contracts/missing_person.sol\":2794:2799  _rank */\n      dup3\n        /* \"ethereum/contracts/missing_person.sol\":2754:2800  Investigator(_name, _cid, _badgeNumber, _rank) */\n      dup2\n      mstore\n      pop\n        /* \"ethereum/contracts/missing_person.sol\":2739:2751  investigator */\n      0x0c\n        /* \"ethereum/contracts/missing_person.sol\":2739:2800  investigator = Investigator(_name, _cid, _badgeNumber, _rank) */\n      0x00\n      dup3\n      add\n      mload\n      dup2\n      0x00\n      add\n      swap1\n      dup1\n      mload\n      swap1\n      0x20\n      add\n      swap1\n      tag_97\n      swap3\n      swap2\n      swap1\n      tag_98\n      jump\t// in\n    tag_97:\n      pop\n      0x20\n      dup3\n      add\n      mload\n      dup2\n      0x01\n      add\n      swap1\n      dup1\n      mload\n      swap1\n      0x20\n      add\n      swap1\n      tag_99\n      swap3\n      swap2\n      swap1\n      tag_98\n      jump\t// in\n    tag_99:\n      pop\n      0x40\n      dup3\n      add\n      mload\n      dup2\n      0x02\n      add\n      swap1\n      dup1\n      mload\n      swap1\n      0x20\n      add\n      swap1\n      tag_100\n      swap3\n      swap2\n      swap1\n      tag_98\n      jump\t// in\n    tag_100:\n      pop\n      0x60\n      dup3\n      add\n      mload\n      dup2\n      0x03\n      add\n      swap1\n      dup1\n      mload\n      swap1\n      0x20\n      add\n      swap1\n      tag_101\n      swap3\n      swap2\n      swap1\n      tag_98\n      jump\t// in\n    tag_101:\n      pop\n      swap1\n      pop\n      pop\n        /* \"ethereum/contracts/missing_person.sol\":2811:2833  investigationStarted() */\n      tag_102\n        /* \"ethereum/contracts/missing_person.sol\":2811:2831  investigationStarted */\n      tag_22\n        /* \"ethereum/contracts/missing_person.sol\":2811:2833  investigationStarted() */\n      jump\t// in\n    tag_102:\n        /* \"ethereum/contracts/missing_person.sol\":2563:2841  function setInvestigator(\r... */\n      pop\n      pop\n      pop\n      pop\n      jump\t// out\n        /* \"ethereum/contracts/missing_person.sol\":2941:3004  function markAsFound() public {\r... */\n    tag_28:\n        /* \"ethereum/contracts/missing_person.sol\":2992:2996  true */\n      0x01\n        /* \"ethereum/contracts/missing_person.sol\":2982:2989  isFound */\n      0x0b\n      0x01\n        /* \"ethereum/contracts/missing_person.sol\":2982:2996  isFound = true */\n      0x0100\n      exp\n      dup2\n      sload\n      dup2\n      0xff\n      mul\n      not\n      and\n      swap1\n      dup4\n      iszero\n      iszero\n      mul\n      or\n      swap1\n      sstore\n      pop\n        /* \"ethereum/contracts/missing_person.sol\":2941:3004  function markAsFound() public {\r... */\n      jump\t// out\n    tag_73:\n      mload(0x40)\n      dup1\n      0x80\n      add\n      0x40\n      mstore\n      dup1\n      0x60\n      dup2\n      mstore\n      0x20\n      add\n      0x60\n      dup2\n      mstore\n      0x20\n      add\n      0x60\n      dup2\n      mstore\n      0x20\n      add\n      0x60\n      dup2\n      mstore\n      pop\n      swap1\n      jump\t// out\n    tag_98:\n      dup3\n      dup1\n      sload\n      tag_104\n      swap1\n      tag_31\n      jump\t// in\n    tag_104:\n      swap1\n      0x00\n      mstore\n      keccak256(0x00, 0x20)\n      swap1\n      0x1f\n      add\n      0x20\n      swap1\n      div\n      dup2\n      add\n      swap3\n      dup3\n      tag_106\n      jumpi\n      0x00\n      dup6\n      sstore\n      jump(tag_105)\n    tag_106:\n      dup3\n      0x1f\n      lt\n      tag_107\n      jumpi\n      dup1\n      mload\n      not(0xff)\n      and\n      dup4\n      dup1\n      add\n      or\n      dup6\n      sstore\n      jump(tag_105)\n    tag_107:\n      dup3\n      dup1\n      add\n      0x01\n      add\n      dup6\n      sstore\n      dup3\n      iszero\n      tag_105\n      jumpi\n      swap2\n      dup3\n      add\n    tag_108:\n      dup3\n      dup2\n      gt\n      iszero\n      tag_109\n      jumpi\n      dup3\n      mload\n      dup3\n      sstore\n      swap2\n      0x20\n      add\n      swap2\n      swap1\n      0x01\n      add\n      swap1\n      jump(tag_108)\n    tag_109:\n    tag_105:\n      pop\n      swap1\n      pop\n      tag_110\n      swap2\n      swap1\n      tag_111\n      jump\t// in\n    tag_110:\n      pop\n      swap1\n      jump\t// out\n    tag_111:\n    tag_112:\n      dup1\n      dup3\n      gt\n      iszero\n      tag_113\n      jumpi\n      0x00\n      dup2\n      0x00\n      swap1\n      sstore\n      pop\n      0x01\n      add\n      jump(tag_112)\n    tag_113:\n      pop\n      swap1\n      jump\t// out\n        /* \"#utility.yul\":7:419   */\n    tag_115:\n        /* \"#utility.yul\":85:90   */\n      0x00\n        /* \"#utility.yul\":110:176   */\n      tag_117\n        /* \"#utility.yul\":126:175   */\n      tag_118\n        /* \"#utility.yul\":168:174   */\n      dup5\n        /* \"#utility.yul\":126:175   */\n      tag_119\n      jump\t// in\n    tag_118:\n        /* \"#utility.yul\":110:176   */\n      tag_120\n      jump\t// in\n    tag_117:\n        /* \"#utility.yul\":101:176   */\n      swap1\n      pop\n        /* \"#utility.yul\":199:205   */\n      dup3\n        /* \"#utility.yul\":192:197   */\n      dup2\n        /* \"#utility.yul\":185:206   */\n      mstore\n        /* \"#utility.yul\":237:241   */\n      0x20\n        /* \"#utility.yul\":230:235   */\n      dup2\n        /* \"#utility.yul\":226:242   */\n      add\n        /* \"#utility.yul\":275:278   */\n      dup5\n        /* \"#utility.yul\":266:272   */\n      dup5\n        /* \"#utility.yul\":261:264   */\n      dup5\n        /* \"#utility.yul\":257:273   */\n      add\n        /* \"#utility.yul\":254:279   */\n      gt\n        /* \"#utility.yul\":251:253   */\n      iszero\n      tag_121\n      jumpi\n        /* \"#utility.yul\":282:361   */\n      tag_122\n      tag_123\n      jump\t// in\n    tag_122:\n        /* \"#utility.yul\":251:253   */\n    tag_121:\n        /* \"#utility.yul\":372:413   */\n      tag_124\n        /* \"#utility.yul\":406:412   */\n      dup5\n        /* \"#utility.yul\":401:404   */\n      dup3\n        /* \"#utility.yul\":396:399   */\n      dup6\n        /* \"#utility.yul\":372:413   */\n      tag_125\n      jump\t// in\n    tag_124:\n        /* \"#utility.yul\":91:419   */\n      pop\n      swap4\n      swap3\n      pop\n      pop\n      pop\n      jump\t// out\n        /* \"#utility.yul\":439:779   */\n    tag_126:\n        /* \"#utility.yul\":495:500   */\n      0x00\n        /* \"#utility.yul\":544:547   */\n      dup3\n        /* \"#utility.yul\":537:541   */\n      0x1f\n        /* \"#utility.yul\":529:535   */\n      dup4\n        /* \"#utility.yul\":525:542   */\n      add\n        /* \"#utility.yul\":521:548   */\n      slt\n        /* \"#utility.yul\":511:513   */\n      tag_128\n      jumpi\n        /* \"#utility.yul\":552:631   */\n      tag_129\n      tag_130\n      jump\t// in\n    tag_129:\n        /* \"#utility.yul\":511:513   */\n    tag_128:\n        /* \"#utility.yul\":669:675   */\n      dup2\n        /* \"#utility.yul\":656:676   */\n      calldataload\n        /* \"#utility.yul\":694:773   */\n      tag_131\n        /* \"#utility.yul\":769:772   */\n      dup5\n        /* \"#utility.yul\":761:767   */\n      dup3\n        /* \"#utility.yul\":754:758   */\n      0x20\n        /* \"#utility.yul\":746:752   */\n      dup7\n        /* \"#utility.yul\":742:759   */\n      add\n        /* \"#utility.yul\":694:773   */\n      tag_115\n      jump\t// in\n    tag_131:\n        /* \"#utility.yul\":685:773   */\n      swap2\n      pop\n        /* \"#utility.yul\":501:779   */\n      pop\n      swap3\n      swap2\n      pop\n      pop\n      jump\t// out\n        /* \"#utility.yul\":785:2270   */\n    tag_25:\n        /* \"#utility.yul\":911:917   */\n      0x00\n        /* \"#utility.yul\":919:925   */\n      dup1\n        /* \"#utility.yul\":927:933   */\n      0x00\n        /* \"#utility.yul\":935:941   */\n      dup1\n        /* \"#utility.yul\":984:987   */\n      0x80\n        /* \"#utility.yul\":972:981   */\n      dup6\n        /* \"#utility.yul\":963:970   */\n      dup8\n        /* \"#utility.yul\":959:982   */\n      sub\n        /* \"#utility.yul\":955:988   */\n      slt\n        /* \"#utility.yul\":952:954   */\n      iszero\n      tag_133\n      jumpi\n        /* \"#utility.yul\":991:1070   */\n      tag_134\n      tag_135\n      jump\t// in\n    tag_134:\n        /* \"#utility.yul\":952:954   */\n    tag_133:\n        /* \"#utility.yul\":1139:1140   */\n      0x00\n        /* \"#utility.yul\":1128:1137   */\n      dup6\n        /* \"#utility.yul\":1124:1141   */\n      add\n        /* \"#utility.yul\":1111:1142   */\n      calldataload\n        /* \"#utility.yul\":1169:1187   */\n      0xffffffffffffffff\n        /* \"#utility.yul\":1161:1167   */\n      dup2\n        /* \"#utility.yul\":1158:1188   */\n      gt\n        /* \"#utility.yul\":1155:1157   */\n      iszero\n      tag_136\n      jumpi\n        /* \"#utility.yul\":1191:1270   */\n      tag_137\n      tag_138\n      jump\t// in\n    tag_137:\n        /* \"#utility.yul\":1155:1157   */\n    tag_136:\n        /* \"#utility.yul\":1296:1359   */\n      tag_139\n        /* \"#utility.yul\":1351:1358   */\n      dup8\n        /* \"#utility.yul\":1342:1348   */\n      dup3\n        /* \"#utility.yul\":1331:1340   */\n      dup9\n        /* \"#utility.yul\":1327:1349   */\n      add\n        /* \"#utility.yul\":1296:1359   */\n      tag_126\n      jump\t// in\n    tag_139:\n        /* \"#utility.yul\":1286:1359   */\n      swap5\n      pop\n        /* \"#utility.yul\":1082:1369   */\n      pop\n        /* \"#utility.yul\":1436:1438   */\n      0x20\n        /* \"#utility.yul\":1425:1434   */\n      dup6\n        /* \"#utility.yul\":1421:1439   */\n      add\n        /* \"#utility.yul\":1408:1440   */\n      calldataload\n        /* \"#utility.yul\":1467:1485   */\n      0xffffffffffffffff\n        /* \"#utility.yul\":1459:1465   */\n      dup2\n        /* \"#utility.yul\":1456:1486   */\n      gt\n        /* \"#utility.yul\":1453:1455   */\n      iszero\n      tag_140\n      jumpi\n        /* \"#utility.yul\":1489:1568   */\n      tag_141\n      tag_138\n      jump\t// in\n    tag_141:\n        /* \"#utility.yul\":1453:1455   */\n    tag_140:\n        /* \"#utility.yul\":1594:1657   */\n      tag_142\n        /* \"#utility.yul\":1649:1656   */\n      dup8\n        /* \"#utility.yul\":1640:1646   */\n      dup3\n        /* \"#utility.yul\":1629:1638   */\n      dup9\n        /* \"#utility.yul\":1625:1647   */\n      add\n        /* \"#utility.yul\":1594:1657   */\n      tag_126\n      jump\t// in\n    tag_142:\n        /* \"#utility.yul\":1584:1657   */\n      swap4\n      pop\n        /* \"#utility.yul\":1379:1667   */\n      pop\n        /* \"#utility.yul\":1734:1736   */\n      0x40\n        /* \"#utility.yul\":1723:1732   */\n      dup6\n        /* \"#utility.yul\":1719:1737   */\n      add\n        /* \"#utility.yul\":1706:1738   */\n      calldataload\n        /* \"#utility.yul\":1765:1783   */\n      0xffffffffffffffff\n        /* \"#utility.yul\":1757:1763   */\n      dup2\n        /* \"#utility.yul\":1754:1784   */\n      gt\n        /* \"#utility.yul\":1751:1753   */\n      iszero\n      tag_143\n      jumpi\n        /* \"#utility.yul\":1787:1866   */\n      tag_144\n      tag_138\n      jump\t// in\n    tag_144:\n        /* \"#utility.yul\":1751:1753   */\n    tag_143:\n        /* \"#utility.yul\":1892:1955   */\n      tag_145\n        /* \"#utility.yul\":1947:1954   */\n      dup8\n        /* \"#utility.yul\":1938:1944   */\n      dup3\n        /* \"#utility.yul\":1927:1936   */\n      dup9\n        /* \"#utility.yul\":1923:1945   */\n      add\n        /* \"#utility.yul\":1892:1955   */\n      tag_126\n      jump\t// in\n    tag_145:\n        /* \"#utility.yul\":1882:1955   */\n      swap3\n      pop\n        /* \"#utility.yul\":1677:1965   */\n      pop\n        /* \"#utility.yul\":2032:2034   */\n      0x60\n        /* \"#utility.yul\":2021:2030   */\n      dup6\n        /* \"#utility.yul\":2017:2035   */\n      add\n        /* \"#utility.yul\":2004:2036   */\n      calldataload\n        /* \"#utility.yul\":2063:2081   */\n      0xffffffffffffffff\n        /* \"#utility.yul\":2055:2061   */\n      dup2\n        /* \"#utility.yul\":2052:2082   */\n      gt\n        /* \"#utility.yul\":2049:2051   */\n      iszero\n      tag_146\n      jumpi\n        /* \"#utility.yul\":2085:2164   */\n      tag_147\n      tag_138\n      jump\t// in\n    tag_147:\n        /* \"#utility.yul\":2049:2051   */\n    tag_146:\n        /* \"#utility.yul\":2190:2253   */\n      tag_148\n        /* \"#utility.yul\":2245:2252   */\n      dup8\n        /* \"#utility.yul\":2236:2242   */\n      dup3\n        /* \"#utility.yul\":2225:2234   */\n      dup9\n        /* \"#utility.yul\":2221:2243   */\n      add\n        /* \"#utility.yul\":2190:2253   */\n      tag_126\n      jump\t// in\n    tag_148:\n        /* \"#utility.yul\":2180:2253   */\n      swap2\n      pop\n        /* \"#utility.yul\":1975:2263   */\n      pop\n        /* \"#utility.yul\":942:2270   */\n      swap3\n      swap6\n      swap2\n      swap5\n      pop\n      swap3\n      pop\n      jump\t// out\n        /* \"#utility.yul\":2276:2385   */\n    tag_149:\n        /* \"#utility.yul\":2357:2378   */\n      tag_151\n        /* \"#utility.yul\":2372:2377   */\n      dup2\n        /* \"#utility.yul\":2357:2378   */\n      tag_152\n      jump\t// in\n    tag_151:\n        /* \"#utility.yul\":2352:2355   */\n      dup3\n        /* \"#utility.yul\":2345:2379   */\n      mstore\n        /* \"#utility.yul\":2335:2385   */\n      pop\n      pop\n      jump\t// out\n        /* \"#utility.yul\":2391:2735   */\n    tag_153:\n        /* \"#utility.yul\":2469:2472   */\n      0x00\n        /* \"#utility.yul\":2497:2536   */\n      tag_155\n        /* \"#utility.yul\":2530:2535   */\n      dup3\n        /* \"#utility.yul\":2497:2536   */\n      tag_156\n      jump\t// in\n    tag_155:\n        /* \"#utility.yul\":2552:2613   */\n      tag_157\n        /* \"#utility.yul\":2606:2612   */\n      dup2\n        /* \"#utility.yul\":2601:2604   */\n      dup6\n        /* \"#utility.yul\":2552:2613   */\n      tag_158\n      jump\t// in\n    tag_157:\n        /* \"#utility.yul\":2545:2613   */\n      swap4\n      pop\n        /* \"#utility.yul\":2622:2674   */\n      tag_159\n        /* \"#utility.yul\":2667:2673   */\n      dup2\n        /* \"#utility.yul\":2662:2665   */\n      dup6\n        /* \"#utility.yul\":2655:2659   */\n      0x20\n        /* \"#utility.yul\":2648:2653   */\n      dup7\n        /* \"#utility.yul\":2644:2660   */\n      add\n        /* \"#utility.yul\":2622:2674   */\n      tag_160\n      jump\t// in\n    tag_159:\n        /* \"#utility.yul\":2699:2728   */\n      tag_161\n        /* \"#utility.yul\":2721:2727   */\n      dup2\n        /* \"#utility.yul\":2699:2728   */\n      tag_162\n      jump\t// in\n    tag_161:\n        /* \"#utility.yul\":2694:2697   */\n      dup5\n        /* \"#utility.yul\":2690:2729   */\n      add\n        /* \"#utility.yul\":2683:2729   */\n      swap2\n      pop\n        /* \"#utility.yul\":2473:2735   */\n      pop\n      swap3\n      swap2\n      pop\n      pop\n      jump\t// out\n        /* \"#utility.yul\":2741:3105   */\n    tag_163:\n        /* \"#utility.yul\":2829:2832   */\n      0x00\n        /* \"#utility.yul\":2857:2896   */\n      tag_165\n        /* \"#utility.yul\":2890:2895   */\n      dup3\n        /* \"#utility.yul\":2857:2896   */\n      tag_156\n      jump\t// in\n    tag_165:\n        /* \"#utility.yul\":2912:2983   */\n      tag_166\n        /* \"#utility.yul\":2976:2982   */\n      dup2\n        /* \"#utility.yul\":2971:2974   */\n      dup6\n        /* \"#utility.yul\":2912:2983   */\n      tag_167\n      jump\t// in\n    tag_166:\n        /* \"#utility.yul\":2905:2983   */\n      swap4\n      pop\n        /* \"#utility.yul\":2992:3044   */\n      tag_168\n        /* \"#utility.yul\":3037:3043   */\n      dup2\n        /* \"#utility.yul\":3032:3035   */\n      dup6\n        /* \"#utility.yul\":3025:3029   */\n      0x20\n        /* \"#utility.yul\":3018:3023   */\n      dup7\n        /* \"#utility.yul\":3014:3030   */\n      add\n        /* \"#utility.yul\":2992:3044   */\n      tag_160\n      jump\t// in\n    tag_168:\n        /* \"#utility.yul\":3069:3098   */\n      tag_169\n        /* \"#utility.yul\":3091:3097   */\n      dup2\n        /* \"#utility.yul\":3069:3098   */\n      tag_162\n      jump\t// in\n    tag_169:\n        /* \"#utility.yul\":3064:3067   */\n      dup5\n        /* \"#utility.yul\":3060:3099   */\n      add\n        /* \"#utility.yul\":3053:3099   */\n      swap2\n      pop\n        /* \"#utility.yul\":2833:3105   */\n      pop\n      swap3\n      swap2\n      pop\n      pop\n      jump\t// out\n        /* \"#utility.yul\":3189:4368   */\n    tag_170:\n        /* \"#utility.yul\":3314:3317   */\n      0x00\n        /* \"#utility.yul\":3350:3354   */\n      0x80\n        /* \"#utility.yul\":3345:3348   */\n      dup4\n        /* \"#utility.yul\":3341:3355   */\n      add\n        /* \"#utility.yul\":3437:3441   */\n      0x00\n        /* \"#utility.yul\":3430:3435   */\n      dup4\n        /* \"#utility.yul\":3426:3442   */\n      add\n        /* \"#utility.yul\":3420:3443   */\n      mload\n        /* \"#utility.yul\":3490:3493   */\n      dup5\n        /* \"#utility.yul\":3484:3488   */\n      dup3\n        /* \"#utility.yul\":3480:3494   */\n      sub\n        /* \"#utility.yul\":3473:3477   */\n      0x00\n        /* \"#utility.yul\":3468:3471   */\n      dup7\n        /* \"#utility.yul\":3464:3478   */\n      add\n        /* \"#utility.yul\":3457:3495   */\n      mstore\n        /* \"#utility.yul\":3516:3589   */\n      tag_172\n        /* \"#utility.yul\":3584:3588   */\n      dup3\n        /* \"#utility.yul\":3570:3582   */\n      dup3\n        /* \"#utility.yul\":3516:3589   */\n      tag_153\n      jump\t// in\n    tag_172:\n        /* \"#utility.yul\":3508:3589   */\n      swap2\n      pop\n        /* \"#utility.yul\":3365:3600   */\n      pop\n        /* \"#utility.yul\":3681:3685   */\n      0x20\n        /* \"#utility.yul\":3674:3679   */\n      dup4\n        /* \"#utility.yul\":3670:3686   */\n      add\n        /* \"#utility.yul\":3664:3687   */\n      mload\n        /* \"#utility.yul\":3734:3737   */\n      dup5\n        /* \"#utility.yul\":3728:3732   */\n      dup3\n        /* \"#utility.yul\":3724:3738   */\n      sub\n        /* \"#utility.yul\":3717:3721   */\n      0x20\n        /* \"#utility.yul\":3712:3715   */\n      dup7\n        /* \"#utility.yul\":3708:3722   */\n      add\n        /* \"#utility.yul\":3701:3739   */\n      mstore\n        /* \"#utility.yul\":3760:3833   */\n      tag_173\n        /* \"#utility.yul\":3828:3832   */\n      dup3\n        /* \"#utility.yul\":3814:3826   */\n      dup3\n        /* \"#utility.yul\":3760:3833   */\n      tag_153\n      jump\t// in\n    tag_173:\n        /* \"#utility.yul\":3752:3833   */\n      swap2\n      pop\n        /* \"#utility.yul\":3610:3844   */\n      pop\n        /* \"#utility.yul\":3933:3937   */\n      0x40\n        /* \"#utility.yul\":3926:3931   */\n      dup4\n        /* \"#utility.yul\":3922:3938   */\n      add\n        /* \"#utility.yul\":3916:3939   */\n      mload\n        /* \"#utility.yul\":3986:3989   */\n      dup5\n        /* \"#utility.yul\":3980:3984   */\n      dup3\n        /* \"#utility.yul\":3976:3990   */\n      sub\n        /* \"#utility.yul\":3969:3973   */\n      0x40\n        /* \"#utility.yul\":3964:3967   */\n      dup7\n        /* \"#utility.yul\":3960:3974   */\n      add\n        /* \"#utility.yul\":3953:3991   */\n      mstore\n        /* \"#utility.yul\":4012:4085   */\n      tag_174\n        /* \"#utility.yul\":4080:4084   */\n      dup3\n        /* \"#utility.yul\":4066:4078   */\n      dup3\n        /* \"#utility.yul\":4012:4085   */\n      tag_153\n      jump\t// in\n    tag_174:\n        /* \"#utility.yul\":4004:4085   */\n      swap2\n      pop\n        /* \"#utility.yul\":3854:4096   */\n      pop\n        /* \"#utility.yul\":4178:4182   */\n      0x60\n        /* \"#utility.yul\":4171:4176   */\n      dup4\n        /* \"#utility.yul\":4167:4183   */\n      add\n        /* \"#utility.yul\":4161:4184   */\n      mload\n        /* \"#utility.yul\":4231:4234   */\n      dup5\n        /* \"#utility.yul\":4225:4229   */\n      dup3\n        /* \"#utility.yul\":4221:4235   */\n      sub\n        /* \"#utility.yul\":4214:4218   */\n      0x60\n        /* \"#utility.yul\":4209:4212   */\n      dup7\n        /* \"#utility.yul\":4205:4219   */\n      add\n        /* \"#utility.yul\":4198:4236   */\n      mstore\n        /* \"#utility.yul\":4257:4330   */\n      tag_175\n        /* \"#utility.yul\":4325:4329   */\n      dup3\n        /* \"#utility.yul\":4311:4323   */\n      dup3\n        /* \"#utility.yul\":4257:4330   */\n      tag_153\n      jump\t// in\n    tag_175:\n        /* \"#utility.yul\":4249:4330   */\n      swap2\n      pop\n        /* \"#utility.yul\":4106:4341   */\n      pop\n        /* \"#utility.yul\":4358:4362   */\n      dup1\n        /* \"#utility.yul\":4351:4362   */\n      swap2\n      pop\n        /* \"#utility.yul\":3319:4368   */\n      pop\n      swap3\n      swap2\n      pop\n      pop\n      jump\t// out\n        /* \"#utility.yul\":4374:4492   */\n    tag_176:\n        /* \"#utility.yul\":4461:4485   */\n      tag_178\n        /* \"#utility.yul\":4479:4484   */\n      dup2\n        /* \"#utility.yul\":4461:4485   */\n      tag_179\n      jump\t// in\n    tag_178:\n        /* \"#utility.yul\":4456:4459   */\n      dup3\n        /* \"#utility.yul\":4449:4486   */\n      mstore\n        /* \"#utility.yul\":4439:4492   */\n      pop\n      pop\n      jump\t// out\n        /* \"#utility.yul\":4498:4811   */\n    tag_12:\n        /* \"#utility.yul\":4611:4615   */\n      0x00\n        /* \"#utility.yul\":4649:4651   */\n      0x20\n        /* \"#utility.yul\":4638:4647   */\n      dup3\n        /* \"#utility.yul\":4634:4652   */\n      add\n        /* \"#utility.yul\":4626:4652   */\n      swap1\n      pop\n        /* \"#utility.yul\":4698:4707   */\n      dup2\n        /* \"#utility.yul\":4692:4696   */\n      dup2\n        /* \"#utility.yul\":4688:4708   */\n      sub\n        /* \"#utility.yul\":4684:4685   */\n      0x00\n        /* \"#utility.yul\":4673:4682   */\n      dup4\n        /* \"#utility.yul\":4669:4686   */\n      add\n        /* \"#utility.yul\":4662:4709   */\n      mstore\n        /* \"#utility.yul\":4726:4804   */\n      tag_181\n        /* \"#utility.yul\":4799:4803   */\n      dup2\n        /* \"#utility.yul\":4790:4796   */\n      dup5\n        /* \"#utility.yul\":4726:4804   */\n      tag_163\n      jump\t// in\n    tag_181:\n        /* \"#utility.yul\":4718:4804   */\n      swap1\n      pop\n        /* \"#utility.yul\":4616:4811   */\n      swap3\n      swap2\n      pop\n      pop\n      jump\t// out\n        /* \"#utility.yul\":4817:6875   */\n    tag_16:\n        /* \"#utility.yul\":5348:5352   */\n      0x00\n        /* \"#utility.yul\":5386:5389   */\n      0x0180\n        /* \"#utility.yul\":5375:5384   */\n      dup3\n        /* \"#utility.yul\":5371:5390   */\n      add\n        /* \"#utility.yul\":5363:5390   */\n      swap1\n      pop\n        /* \"#utility.yul\":5436:5445   */\n      dup2\n        /* \"#utility.yul\":5430:5434   */\n      dup2\n        /* \"#utility.yul\":5426:5446   */\n      sub\n        /* \"#utility.yul\":5422:5423   */\n      0x00\n        /* \"#utility.yul\":5411:5420   */\n      dup4\n        /* \"#utility.yul\":5407:5424   */\n      add\n        /* \"#utility.yul\":5400:5447   */\n      mstore\n        /* \"#utility.yul\":5464:5542   */\n      tag_183\n        /* \"#utility.yul\":5537:5541   */\n      dup2\n        /* \"#utility.yul\":5528:5534   */\n      dup16\n        /* \"#utility.yul\":5464:5542   */\n      tag_163\n      jump\t// in\n    tag_183:\n        /* \"#utility.yul\":5456:5542   */\n      swap1\n      pop\n        /* \"#utility.yul\":5589:5598   */\n      dup2\n        /* \"#utility.yul\":5583:5587   */\n      dup2\n        /* \"#utility.yul\":5579:5599   */\n      sub\n        /* \"#utility.yul\":5574:5576   */\n      0x20\n        /* \"#utility.yul\":5563:5572   */\n      dup4\n        /* \"#utility.yul\":5559:5577   */\n      add\n        /* \"#utility.yul\":5552:5600   */\n      mstore\n        /* \"#utility.yul\":5617:5695   */\n      tag_184\n        /* \"#utility.yul\":5690:5694   */\n      dup2\n        /* \"#utility.yul\":5681:5687   */\n      dup15\n        /* \"#utility.yul\":5617:5695   */\n      tag_163\n      jump\t// in\n    tag_184:\n        /* \"#utility.yul\":5609:5695   */\n      swap1\n      pop\n        /* \"#utility.yul\":5742:5751   */\n      dup2\n        /* \"#utility.yul\":5736:5740   */\n      dup2\n        /* \"#utility.yul\":5732:5752   */\n      sub\n        /* \"#utility.yul\":5727:5729   */\n      0x40\n        /* \"#utility.yul\":5716:5725   */\n      dup4\n        /* \"#utility.yul\":5712:5730   */\n      add\n        /* \"#utility.yul\":5705:5753   */\n      mstore\n        /* \"#utility.yul\":5770:5848   */\n      tag_185\n        /* \"#utility.yul\":5843:5847   */\n      dup2\n        /* \"#utility.yul\":5834:5840   */\n      dup14\n        /* \"#utility.yul\":5770:5848   */\n      tag_163\n      jump\t// in\n    tag_185:\n        /* \"#utility.yul\":5762:5848   */\n      swap1\n      pop\n        /* \"#utility.yul\":5858:5930   */\n      tag_186\n        /* \"#utility.yul\":5926:5928   */\n      0x60\n        /* \"#utility.yul\":5915:5924   */\n      dup4\n        /* \"#utility.yul\":5911:5929   */\n      add\n        /* \"#utility.yul\":5902:5908   */\n      dup13\n        /* \"#utility.yul\":5858:5930   */\n      tag_176\n      jump\t// in\n    tag_186:\n        /* \"#utility.yul\":5940:6013   */\n      tag_187\n        /* \"#utility.yul\":6008:6011   */\n      0x80\n        /* \"#utility.yul\":5997:6006   */\n      dup4\n        /* \"#utility.yul\":5993:6012   */\n      add\n        /* \"#utility.yul\":5984:5990   */\n      dup12\n        /* \"#utility.yul\":5940:6013   */\n      tag_176\n      jump\t// in\n    tag_187:\n        /* \"#utility.yul\":6023:6096   */\n      tag_188\n        /* \"#utility.yul\":6091:6094   */\n      0xa0\n        /* \"#utility.yul\":6080:6089   */\n      dup4\n        /* \"#utility.yul\":6076:6095   */\n      add\n        /* \"#utility.yul\":6067:6073   */\n      dup11\n        /* \"#utility.yul\":6023:6096   */\n      tag_176\n      jump\t// in\n    tag_188:\n        /* \"#utility.yul\":6144:6153   */\n      dup2\n        /* \"#utility.yul\":6138:6142   */\n      dup2\n        /* \"#utility.yul\":6134:6154   */\n      sub\n        /* \"#utility.yul\":6128:6131   */\n      0xc0\n        /* \"#utility.yul\":6117:6126   */\n      dup4\n        /* \"#utility.yul\":6113:6132   */\n      add\n        /* \"#utility.yul\":6106:6155   */\n      mstore\n        /* \"#utility.yul\":6172:6250   */\n      tag_189\n        /* \"#utility.yul\":6245:6249   */\n      dup2\n        /* \"#utility.yul\":6236:6242   */\n      dup10\n        /* \"#utility.yul\":6172:6250   */\n      tag_163\n      jump\t// in\n    tag_189:\n        /* \"#utility.yul\":6164:6250   */\n      swap1\n      pop\n        /* \"#utility.yul\":6298:6307   */\n      dup2\n        /* \"#utility.yul\":6292:6296   */\n      dup2\n        /* \"#utility.yul\":6288:6308   */\n      sub\n        /* \"#utility.yul\":6282:6285   */\n      0xe0\n        /* \"#utility.yul\":6271:6280   */\n      dup4\n        /* \"#utility.yul\":6267:6286   */\n      add\n        /* \"#utility.yul\":6260:6309   */\n      mstore\n        /* \"#utility.yul\":6326:6404   */\n      tag_190\n        /* \"#utility.yul\":6399:6403   */\n      dup2\n        /* \"#utility.yul\":6390:6396   */\n      dup9\n        /* \"#utility.yul\":6326:6404   */\n      tag_163\n      jump\t// in\n    tag_190:\n        /* \"#utility.yul\":6318:6404   */\n      swap1\n      pop\n        /* \"#utility.yul\":6452:6461   */\n      dup2\n        /* \"#utility.yul\":6446:6450   */\n      dup2\n        /* \"#utility.yul\":6442:6462   */\n      sub\n        /* \"#utility.yul\":6436:6439   */\n      0x0100\n        /* \"#utility.yul\":6425:6434   */\n      dup4\n        /* \"#utility.yul\":6421:6440   */\n      add\n        /* \"#utility.yul\":6414:6463   */\n      mstore\n        /* \"#utility.yul\":6480:6558   */\n      tag_191\n        /* \"#utility.yul\":6553:6557   */\n      dup2\n        /* \"#utility.yul\":6544:6550   */\n      dup8\n        /* \"#utility.yul\":6480:6558   */\n      tag_163\n      jump\t// in\n    tag_191:\n        /* \"#utility.yul\":6472:6558   */\n      swap1\n      pop\n        /* \"#utility.yul\":6606:6615   */\n      dup2\n        /* \"#utility.yul\":6600:6604   */\n      dup2\n        /* \"#utility.yul\":6596:6616   */\n      sub\n        /* \"#utility.yul\":6590:6593   */\n      0x0120\n        /* \"#utility.yul\":6579:6588   */\n      dup4\n        /* \"#utility.yul\":6575:6594   */\n      add\n        /* \"#utility.yul\":6568:6617   */\n      mstore\n        /* \"#utility.yul\":6634:6712   */\n      tag_192\n        /* \"#utility.yul\":6707:6711   */\n      dup2\n        /* \"#utility.yul\":6698:6704   */\n      dup7\n        /* \"#utility.yul\":6634:6712   */\n      tag_163\n      jump\t// in\n    tag_192:\n        /* \"#utility.yul\":6626:6712   */\n      swap1\n      pop\n        /* \"#utility.yul\":6722:6790   */\n      tag_193\n        /* \"#utility.yul\":6785:6788   */\n      0x0140\n        /* \"#utility.yul\":6774:6783   */\n      dup4\n        /* \"#utility.yul\":6770:6789   */\n      add\n        /* \"#utility.yul\":6760:6767   */\n      dup6\n        /* \"#utility.yul\":6722:6790   */\n      tag_149\n      jump\t// in\n    tag_193:\n        /* \"#utility.yul\":6800:6868   */\n      tag_194\n        /* \"#utility.yul\":6863:6866   */\n      0x0160\n        /* \"#utility.yul\":6852:6861   */\n      dup4\n        /* \"#utility.yul\":6848:6867   */\n      add\n        /* \"#utility.yul\":6838:6845   */\n      dup5\n        /* \"#utility.yul\":6800:6868   */\n      tag_149\n      jump\t// in\n    tag_194:\n        /* \"#utility.yul\":5353:6875   */\n      swap14\n      swap13\n      pop\n      pop\n      pop\n      pop\n      pop\n      pop\n      pop\n      pop\n      pop\n      pop\n      pop\n      pop\n      pop\n      jump\t// out\n        /* \"#utility.yul\":6881:7266   */\n    tag_20:\n        /* \"#utility.yul\":7030:7034   */\n      0x00\n        /* \"#utility.yul\":7068:7070   */\n      0x20\n        /* \"#utility.yul\":7057:7066   */\n      dup3\n        /* \"#utility.yul\":7053:7071   */\n      add\n        /* \"#utility.yul\":7045:7071   */\n      swap1\n      pop\n        /* \"#utility.yul\":7117:7126   */\n      dup2\n        /* \"#utility.yul\":7111:7115   */\n      dup2\n        /* \"#utility.yul\":7107:7127   */\n      sub\n        /* \"#utility.yul\":7103:7104   */\n      0x00\n        /* \"#utility.yul\":7092:7101   */\n      dup4\n        /* \"#utility.yul\":7088:7105   */\n      add\n        /* \"#utility.yul\":7081:7128   */\n      mstore\n        /* \"#utility.yul\":7145:7259   */\n      tag_196\n        /* \"#utility.yul\":7254:7258   */\n      dup2\n        /* \"#utility.yul\":7245:7251   */\n      dup5\n        /* \"#utility.yul\":7145:7259   */\n      tag_170\n      jump\t// in\n    tag_196:\n        /* \"#utility.yul\":7137:7259   */\n      swap1\n      pop\n        /* \"#utility.yul\":7035:7266   */\n      swap3\n      swap2\n      pop\n      pop\n      jump\t// out\n        /* \"#utility.yul\":7272:7401   */\n    tag_120:\n        /* \"#utility.yul\":7306:7312   */\n      0x00\n        /* \"#utility.yul\":7333:7353   */\n      tag_198\n      tag_199\n      jump\t// in\n    tag_198:\n        /* \"#utility.yul\":7323:7353   */\n      swap1\n      pop\n        /* \"#utility.yul\":7362:7395   */\n      tag_200\n        /* \"#utility.yul\":7390:7394   */\n      dup3\n        /* \"#utility.yul\":7382:7388   */\n      dup3\n        /* \"#utility.yul\":7362:7395   */\n      tag_201\n      jump\t// in\n    tag_200:\n        /* \"#utility.yul\":7313:7401   */\n      swap2\n      swap1\n      pop\n      jump\t// out\n        /* \"#utility.yul\":7407:7482   */\n    tag_199:\n        /* \"#utility.yul\":7440:7446   */\n      0x00\n        /* \"#utility.yul\":7473:7475   */\n      0x40\n        /* \"#utility.yul\":7467:7476   */\n      mload\n        /* \"#utility.yul\":7457:7476   */\n      swap1\n      pop\n        /* \"#utility.yul\":7447:7482   */\n      swap1\n      jump\t// out\n        /* \"#utility.yul\":7488:7796   */\n    tag_119:\n        /* \"#utility.yul\":7550:7554   */\n      0x00\n        /* \"#utility.yul\":7640:7658   */\n      0xffffffffffffffff\n        /* \"#utility.yul\":7632:7638   */\n      dup3\n        /* \"#utility.yul\":7629:7659   */\n      gt\n        /* \"#utility.yul\":7626:7628   */\n      iszero\n      tag_204\n      jumpi\n        /* \"#utility.yul\":7662:7680   */\n      tag_205\n      tag_206\n      jump\t// in\n    tag_205:\n        /* \"#utility.yul\":7626:7628   */\n    tag_204:\n        /* \"#utility.yul\":7700:7729   */\n      tag_207\n        /* \"#utility.yul\":7722:7728   */\n      dup3\n        /* \"#utility.yul\":7700:7729   */\n      tag_162\n      jump\t// in\n    tag_207:\n        /* \"#utility.yul\":7692:7729   */\n      swap1\n      pop\n        /* \"#utility.yul\":7784:7788   */\n      0x20\n        /* \"#utility.yul\":7778:7782   */\n      dup2\n        /* \"#utility.yul\":7774:7789   */\n      add\n        /* \"#utility.yul\":7766:7789   */\n      swap1\n      pop\n        /* \"#utility.yul\":7555:7796   */\n      swap2\n      swap1\n      pop\n      jump\t// out\n        /* \"#utility.yul\":7802:7901   */\n    tag_156:\n        /* \"#utility.yul\":7854:7860   */\n      0x00\n        /* \"#utility.yul\":7888:7893   */\n      dup2\n        /* \"#utility.yul\":7882:7894   */\n      mload\n        /* \"#utility.yul\":7872:7894   */\n      swap1\n      pop\n        /* \"#utility.yul\":7861:7901   */\n      swap2\n      swap1\n      pop\n      jump\t// out\n        /* \"#utility.yul\":7907:8066   */\n    tag_158:\n        /* \"#utility.yul\":7981:7992   */\n      0x00\n        /* \"#utility.yul\":8015:8021   */\n      dup3\n        /* \"#utility.yul\":8010:8013   */\n      dup3\n        /* \"#utility.yul\":8003:8022   */\n      mstore\n        /* \"#utility.yul\":8055:8059   */\n      0x20\n        /* \"#utility.yul\":8050:8053   */\n      dup3\n        /* \"#utility.yul\":8046:8060   */\n      add\n        /* \"#utility.yul\":8031:8060   */\n      swap1\n      pop\n        /* \"#utility.yul\":7993:8066   */\n      swap3\n      swap2\n      pop\n      pop\n      jump\t// out\n        /* \"#utility.yul\":8072:8241   */\n    tag_167:\n        /* \"#utility.yul\":8156:8167   */\n      0x00\n        /* \"#utility.yul\":8190:8196   */\n      dup3\n        /* \"#utility.yul\":8185:8188   */\n      dup3\n        /* \"#utility.yul\":8178:8197   */\n      mstore\n        /* \"#utility.yul\":8230:8234   */\n      0x20\n        /* \"#utility.yul\":8225:8228   */\n      dup3\n        /* \"#utility.yul\":8221:8235   */\n      add\n        /* \"#utility.yul\":8206:8235   */\n      swap1\n      pop\n        /* \"#utility.yul\":8168:8241   */\n      swap3\n      swap2\n      pop\n      pop\n      jump\t// out\n        /* \"#utility.yul\":8247:8337   */\n    tag_152:\n        /* \"#utility.yul\":8281:8288   */\n      0x00\n        /* \"#utility.yul\":8324:8329   */\n      dup2\n        /* \"#utility.yul\":8317:8330   */\n      iszero\n        /* \"#utility.yul\":8310:8331   */\n      iszero\n        /* \"#utility.yul\":8299:8331   */\n      swap1\n      pop\n        /* \"#utility.yul\":8289:8337   */\n      swap2\n      swap1\n      pop\n      jump\t// out\n        /* \"#utility.yul\":8343:8420   */\n    tag_179:\n        /* \"#utility.yul\":8380:8387   */\n      0x00\n        /* \"#utility.yul\":8409:8414   */\n      dup2\n        /* \"#utility.yul\":8398:8414   */\n      swap1\n      pop\n        /* \"#utility.yul\":8388:8420   */\n      swap2\n      swap1\n      pop\n      jump\t// out\n        /* \"#utility.yul\":8426:8580   */\n    tag_125:\n        /* \"#utility.yul\":8510:8516   */\n      dup3\n        /* \"#utility.yul\":8505:8508   */\n      dup2\n        /* \"#utility.yul\":8500:8503   */\n      dup4\n        /* \"#utility.yul\":8487:8517   */\n      calldatacopy\n        /* \"#utility.yul\":8572:8573   */\n      0x00\n        /* \"#utility.yul\":8563:8569   */\n      dup4\n        /* \"#utility.yul\":8558:8561   */\n      dup4\n        /* \"#utility.yul\":8554:8570   */\n      add\n        /* \"#utility.yul\":8547:8574   */\n      mstore\n        /* \"#utility.yul\":8477:8580   */\n      pop\n      pop\n      pop\n      jump\t// out\n        /* \"#utility.yul\":8586:8893   */\n    tag_160:\n        /* \"#utility.yul\":8654:8655   */\n      0x00\n        /* \"#utility.yul\":8664:8777   */\n    tag_215:\n        /* \"#utility.yul\":8678:8684   */\n      dup4\n        /* \"#utility.yul\":8675:8676   */\n      dup2\n        /* \"#utility.yul\":8672:8685   */\n      lt\n        /* \"#utility.yul\":8664:8777   */\n      iszero\n      tag_217\n      jumpi\n        /* \"#utility.yul\":8763:8764   */\n      dup1\n        /* \"#utility.yul\":8758:8761   */\n      dup3\n        /* \"#utility.yul\":8754:8765   */\n      add\n        /* \"#utility.yul\":8748:8766   */\n      mload\n        /* \"#utility.yul\":8744:8745   */\n      dup2\n        /* \"#utility.yul\":8739:8742   */\n      dup5\n        /* \"#utility.yul\":8735:8746   */\n      add\n        /* \"#utility.yul\":8728:8767   */\n      mstore\n        /* \"#utility.yul\":8700:8702   */\n      0x20\n        /* \"#utility.yul\":8697:8698   */\n      dup2\n        /* \"#utility.yul\":8693:8703   */\n      add\n        /* \"#utility.yul\":8688:8703   */\n      swap1\n      pop\n        /* \"#utility.yul\":8664:8777   */\n      jump(tag_215)\n    tag_217:\n        /* \"#utility.yul\":8795:8801   */\n      dup4\n        /* \"#utility.yul\":8792:8793   */\n      dup2\n        /* \"#utility.yul\":8789:8802   */\n      gt\n        /* \"#utility.yul\":8786:8788   */\n      iszero\n      tag_218\n      jumpi\n        /* \"#utility.yul\":8875:8876   */\n      0x00\n        /* \"#utility.yul\":8866:8872   */\n      dup5\n        /* \"#utility.yul\":8861:8864   */\n      dup5\n        /* \"#utility.yul\":8857:8873   */\n      add\n        /* \"#utility.yul\":8850:8877   */\n      mstore\n        /* \"#utility.yul\":8786:8788   */\n    tag_218:\n        /* \"#utility.yul\":8635:8893   */\n      pop\n      pop\n      pop\n      pop\n      jump\t// out\n        /* \"#utility.yul\":8899:9219   */\n    tag_31:\n        /* \"#utility.yul\":8943:8949   */\n      0x00\n        /* \"#utility.yul\":8980:8981   */\n      0x02\n        /* \"#utility.yul\":8974:8978   */\n      dup3\n        /* \"#utility.yul\":8970:8982   */\n      div\n        /* \"#utility.yul\":8960:8982   */\n      swap1\n      pop\n        /* \"#utility.yul\":9027:9028   */\n      0x01\n        /* \"#utility.yul\":9021:9025   */\n      dup3\n        /* \"#utility.yul\":9017:9029   */\n      and\n        /* \"#utility.yul\":9048:9066   */\n      dup1\n        /* \"#utility.yul\":9038:9040   */\n      tag_220\n      jumpi\n        /* \"#utility.yul\":9104:9108   */\n      0x7f\n        /* \"#utility.yul\":9096:9102   */\n      dup3\n        /* \"#utility.yul\":9092:9109   */\n      and\n        /* \"#utility.yul\":9082:9109   */\n      swap2\n      pop\n        /* \"#utility.yul\":9038:9040   */\n    tag_220:\n        /* \"#utility.yul\":9166:9168   */\n      0x20\n        /* \"#utility.yul\":9158:9164   */\n      dup3\n        /* \"#utility.yul\":9155:9169   */\n      lt\n        /* \"#utility.yul\":9135:9153   */\n      dup2\n        /* \"#utility.yul\":9132:9170   */\n      eq\n        /* \"#utility.yul\":9129:9131   */\n      iszero\n      tag_221\n      jumpi\n        /* \"#utility.yul\":9185:9203   */\n      tag_222\n      tag_223\n      jump\t// in\n    tag_222:\n        /* \"#utility.yul\":9129:9131   */\n    tag_221:\n        /* \"#utility.yul\":8950:9219   */\n      pop\n      swap2\n      swap1\n      pop\n      jump\t// out\n        /* \"#utility.yul\":9225:9506   */\n    tag_201:\n        /* \"#utility.yul\":9308:9335   */\n      tag_225\n        /* \"#utility.yul\":9330:9334   */\n      dup3\n        /* \"#utility.yul\":9308:9335   */\n      tag_162\n      jump\t// in\n    tag_225:\n        /* \"#utility.yul\":9300:9306   */\n      dup2\n        /* \"#utility.yul\":9296:9336   */\n      add\n        /* \"#utility.yul\":9438:9444   */\n      dup2\n        /* \"#utility.yul\":9426:9436   */\n      dup2\n        /* \"#utility.yul\":9423:9445   */\n      lt\n        /* \"#utility.yul\":9402:9420   */\n      0xffffffffffffffff\n        /* \"#utility.yul\":9390:9400   */\n      dup3\n        /* \"#utility.yul\":9387:9421   */\n      gt\n        /* \"#utility.yul\":9384:9446   */\n      or\n        /* \"#utility.yul\":9381:9383   */\n      iszero\n      tag_226\n      jumpi\n        /* \"#utility.yul\":9449:9467   */\n      tag_227\n      tag_206\n      jump\t// in\n    tag_227:\n        /* \"#utility.yul\":9381:9383   */\n    tag_226:\n        /* \"#utility.yul\":9489:9499   */\n      dup1\n        /* \"#utility.yul\":9485:9487   */\n      0x40\n        /* \"#utility.yul\":9478:9500   */\n      mstore\n        /* \"#utility.yul\":9268:9506   */\n      pop\n      pop\n      pop\n      jump\t// out\n        /* \"#utility.yul\":9512:9692   */\n    tag_223:\n        /* \"#utility.yul\":9560:9637   */\n      0x4e487b7100000000000000000000000000000000000000000000000000000000\n        /* \"#utility.yul\":9557:9558   */\n      0x00\n        /* \"#utility.yul\":9550:9638   */\n      mstore\n        /* \"#utility.yul\":9657:9661   */\n      0x22\n        /* \"#utility.yul\":9654:9655   */\n      0x04\n        /* \"#utility.yul\":9647:9662   */\n      mstore\n        /* \"#utility.yul\":9681:9685   */\n      0x24\n        /* \"#utility.yul\":9678:9679   */\n      0x00\n        /* \"#utility.yul\":9671:9686   */\n      revert\n        /* \"#utility.yul\":9698:9878   */\n    tag_206:\n        /* \"#utility.yul\":9746:9823   */\n      0x4e487b7100000000000000000000000000000000000000000000000000000000\n        /* \"#utility.yul\":9743:9744   */\n      0x00\n        /* \"#utility.yul\":9736:9824   */\n      mstore\n        /* \"#utility.yul\":9843:9847   */\n      0x41\n        /* \"#utility.yul\":9840:9841   */\n      0x04\n        /* \"#utility.yul\":9833:9848   */\n      mstore\n        /* \"#utility.yul\":9867:9871   */\n      0x24\n        /* \"#utility.yul\":9864:9865   */\n      0x00\n        /* \"#utility.yul\":9857:9872   */\n      revert\n        /* \"#utility.yul\":9884:10001   */\n    tag_130:\n        /* \"#utility.yul\":9993:9994   */\n      0x00\n        /* \"#utility.yul\":9990:9991   */\n      dup1\n        /* \"#utility.yul\":9983:9995   */\n      revert\n        /* \"#utility.yul\":10007:10124   */\n    tag_123:\n        /* \"#utility.yul\":10116:10117   */\n      0x00\n        /* \"#utility.yul\":10113:10114   */\n      dup1\n        /* \"#utility.yul\":10106:10118   */\n      revert\n        /* \"#utility.yul\":10130:10247   */\n    tag_138:\n        /* \"#utility.yul\":10239:10240   */\n      0x00\n        /* \"#utility.yul\":10236:10237   */\n      dup1\n        /* \"#utility.yul\":10229:10241   */\n      revert\n        /* \"#utility.yul\":10253:10370   */\n    tag_135:\n        /* \"#utility.yul\":10362:10363   */\n      0x00\n        /* \"#utility.yul\":10359:10360   */\n      dup1\n        /* \"#utility.yul\":10352:10364   */\n      revert\n        /* \"#utility.yul\":10376:10478   */\n    tag_162:\n        /* \"#utility.yul\":10417:10423   */\n      0x00\n        /* \"#utility.yul\":10468:10470   */\n      0x1f\n        /* \"#utility.yul\":10464:10471   */\n      not\n        /* \"#utility.yul\":10459:10461   */\n      0x1f\n        /* \"#utility.yul\":10452:10457   */\n      dup4\n        /* \"#utility.yul\":10448:10462   */\n      add\n        /* \"#utility.yul\":10444:10472   */\n      and\n        /* \"#utility.yul\":10434:10472   */\n      swap1\n      pop\n        /* \"#utility.yul\":10424:10478   */\n      swap2\n      swap1\n      pop\n      jump\t// out\n\n    auxdata: 0xa264697066735822122096ceba9fd911b3154a97bd2049a5e8325c1229235d348a601758b927f13ac4d264736f6c63430008060033\n}\n",
				"bytecode": {
					"linkReferences": {},
					"object": "60806040523480156200001157600080fd5b50604051620015b3380380620015b38339818101604052810190620000379190620002a0565b8a600090805190602001906200004f9291906200015b565b508960019080519060200190620000689291906200015b565b508860029080519060200190620000819291906200015b565b5087600390805190602001906200009a9291906200015b565b508660048190555085600581905550846006819055508360079080519060200190620000c89291906200015b565b508260089080519060200190620000e19291906200015b565b508160099080519060200190620000fa9291906200015b565b5080600a9080519060200190620001139291906200015b565b506000600b60006101000a81548160ff0219169083151502179055506000600b60016101000a81548160ff02191690831515021790555050505050505050505050506200064d565b828054620001699062000544565b90600052602060002090601f0160209004810192826200018d5760008555620001d9565b82601f10620001a857805160ff1916838001178555620001d9565b82800160010185558215620001d9579182015b82811115620001d8578251825591602001919060010190620001bb565b5b509050620001e89190620001ec565b5090565b5b8082111562000207576000816000905550600101620001ed565b5090565b6000620002226200021c84620004ce565b620004a5565b90508281526020810184848401111562000241576200024062000613565b5b6200024e8482856200050e565b509392505050565b600082601f8301126200026e576200026d6200060e565b5b8151620002808482602086016200020b565b91505092915050565b6000815190506200029a8162000633565b92915050565b60008060008060008060008060008060006101608c8e031215620002c957620002c86200061d565b5b60008c015167ffffffffffffffff811115620002ea57620002e962000618565b5b620002f88e828f0162000256565b9b505060208c015167ffffffffffffffff8111156200031c576200031b62000618565b5b6200032a8e828f0162000256565b9a505060408c015167ffffffffffffffff8111156200034e576200034d62000618565b5b6200035c8e828f0162000256565b99505060608c015167ffffffffffffffff81111562000380576200037f62000618565b5b6200038e8e828f0162000256565b9850506080620003a18e828f0162000289565b97505060a0620003b48e828f0162000289565b96505060c0620003c78e828f0162000289565b95505060e08c015167ffffffffffffffff811115620003eb57620003ea62000618565b5b620003f98e828f0162000256565b9450506101008c015167ffffffffffffffff8111156200041e576200041d62000618565b5b6200042c8e828f0162000256565b9350506101208c015167ffffffffffffffff81111562000451576200045062000618565b5b6200045f8e828f0162000256565b9250506101408c015167ffffffffffffffff81111562000484576200048362000618565b5b620004928e828f0162000256565b9150509295989b509295989b9093969950565b6000620004b1620004c4565b9050620004bf82826200057a565b919050565b6000604051905090565b600067ffffffffffffffff821115620004ec57620004eb620005df565b5b620004f78262000622565b9050602081019050919050565b6000819050919050565b60005b838110156200052e57808201518184015260208101905062000511565b838111156200053e576000848401525b50505050565b600060028204905060018216806200055d57607f821691505b60208210811415620005745762000573620005b0565b5b50919050565b620005858262000622565b810181811067ffffffffffffffff82111715620005a757620005a6620005df565b5b80604052505050565b7f4e487b7100000000000000000000000000000000000000000000000000000000600052602260045260246000fd5b7f4e487b7100000000000000000000000000000000000000000000000000000000600052604160045260246000fd5b600080fd5b600080fd5b600080fd5b600080fd5b6000601f19601f8301169050919050565b6200063e8162000504565b81146200064a57600080fd5b50565b610f56806200065d6000396000f3fe608060405234801561001057600080fd5b50600436106100625760003560e01c806330884b68146100675780633bc5de301461008557806347f450b0146100ae5780634a2bfdc7146100cc57806386444b43146100d6578063dc4ade84146100f2575b600080fd5b61006f6100fc565b60405161007c9190610c30565b60405180910390f35b61008d61018e565b6040516100a59c9b9a99989796959493929190610c52565b60405180910390f35b6100b66105d2565b6040516100c39190610d3d565b60405180910390f35b6100d4610834565b005b6100f060048036038101906100eb9190610a51565b610851565b005b6100fa6108f9565b005b60606000805461010b90610e3a565b80601f016020809104026020016040519081016040528092919081815260200182805461013790610e3a565b80156101845780601f1061015957610100808354040283529160200191610184565b820191906000526020600020905b81548152906001019060200180831161016757829003601f168201915b5050505050905090565b60608060606000806000606080606080600080600160026003600454600554600654600760086009600a600b60009054906101000a900460ff16600b60019054906101000a900460ff168b80546101e490610e3a565b80601f016020809104026020016040519081016040528092919081815260200182805461021090610e3a565b801561025d5780601f106102325761010080835404028352916020019161025d565b820191906000526020600020905b81548152906001019060200180831161024057829003601f168201915b50505050509b508a805461027090610e3a565b80601f016020809104026020016040519081016040528092919081815260200182805461029c90610e3a565b80156102e95780601f106102be576101008083540402835291602001916102e9565b820191906000526020600020905b8154815290600101906020018083116102cc57829003601f168201915b50505050509a508980546102fc90610e3a565b80601f016020809104026020016040519081016040528092919081815260200182805461032890610e3a565b80156103755780601f1061034a57610100808354040283529160200191610375565b820191906000526020600020905b81548152906001019060200180831161035857829003601f168201915b5050505050995085805461038890610e3a565b80601f01602080910402602001604051908101604052809291908181526020018280546103b490610e3a565b80156104015780601f106103d657610100808354040283529160200191610401565b820191906000526020600020905b8154815290600101906020018083116103e457829003601f168201915b5050505050955084805461041490610e3a565b80601f016020809104026020016040519081016040528092919081815260200182805461044090610e3a565b801561048d5780601f106104625761010080835404028352916020019161048d565b820191906000526020600020905b81548152906001019060200180831161047057829003601f168201915b505050505094508380546104a090610e3a565b80601f01602080910402602001604051908101604052809291908181526020018280546104cc90610e3a565b80156105195780601f106104ee57610100808354040283529160200191610519565b820191906000526020600020905b8154815290600101906020018083116104fc57829003601f168201915b5050505050935082805461052c90610e3a565b80601f016020809104026020016040519081016040528092919081815260200182805461055890610e3a565b80156105a55780601f1061057a576101008083540402835291602001916105a5565b820191906000526020600020905b81548152906001019060200180831161058857829003601f168201915b505050505092509b509b509b509b509b509b509b509b509b509b509b509b50909192939495969798999a9b565b6105da610916565b600c6040518060800160405290816000820180546105f790610e3a565b80601f016020809104026020016040519081016040528092919081815260200182805461062390610e3a565b80156106705780601f1061064557610100808354040283529160200191610670565b820191906000526020600020905b81548152906001019060200180831161065357829003601f168201915b5050505050815260200160018201805461068990610e3a565b80601f01602080910402602001604051908101604052809291908181526020018280546106b590610e3a565b80156107025780601f106106d757610100808354040283529160200191610702565b820191906000526020600020905b8154815290600101906020018083116106e557829003601f168201915b5050505050815260200160028201805461071b90610e3a565b80601f016020809104026020016040519081016040528092919081815260200182805461074790610e3a565b80156107945780601f1061076957610100808354040283529160200191610794565b820191906000526020600020905b81548152906001019060200180831161077757829003601f168201915b505050505081526020016003820180546107ad90610e3a565b80601f01602080910402602001604051908101604052809291908181526020018280546107d990610e3a565b80156108265780601f106107fb57610100808354040283529160200191610826565b820191906000526020600020905b81548152906001019060200180831161080957829003601f168201915b505050505081525050905090565b6001600b60006101000a81548160ff021916908315150217905550565b604051806080016040528085815260200184815260200183815260200182815250600c600082015181600001908051906020019061089092919061093e565b5060208201518160010190805190602001906108ad92919061093e565b5060408201518160020190805190602001906108ca92919061093e565b5060608201518160030190805190602001906108e792919061093e565b509050506108f3610834565b50505050565b6001600b60016101000a81548160ff021916908315150217905550565b6040518060800160405280606081526020016060815260200160608152602001606081525090565b82805461094a90610e3a565b90600052602060002090601f01602090048101928261096c57600085556109b3565b82601f1061098557805160ff19168380011785556109b3565b828001600101855582156109b3579182015b828111156109b2578251825591602001919060010190610997565b5b5090506109c091906109c4565b5090565b5b808211156109dd5760008160009055506001016109c5565b5090565b60006109f46109ef84610d84565b610d5f565b905082815260208101848484011115610a1057610a0f610f00565b5b610a1b848285610df8565b509392505050565b600082601f830112610a3857610a37610efb565b5b8135610a488482602086016109e1565b91505092915050565b60008060008060808587031215610a6b57610a6a610f0a565b5b600085013567ffffffffffffffff811115610a8957610a88610f05565b5b610a9587828801610a23565b945050602085013567ffffffffffffffff811115610ab657610ab5610f05565b5b610ac287828801610a23565b935050604085013567ffffffffffffffff811115610ae357610ae2610f05565b5b610aef87828801610a23565b925050606085013567ffffffffffffffff811115610b1057610b0f610f05565b5b610b1c87828801610a23565b91505092959194509250565b610b3181610de2565b82525050565b6000610b4282610db5565b610b4c8185610dc0565b9350610b5c818560208601610e07565b610b6581610f0f565b840191505092915050565b6000610b7b82610db5565b610b858185610dd1565b9350610b95818560208601610e07565b610b9e81610f0f565b840191505092915050565b60006080830160008301518482036000860152610bc68282610b37565b91505060208301518482036020860152610be08282610b37565b91505060408301518482036040860152610bfa8282610b37565b91505060608301518482036060860152610c148282610b37565b9150508091505092915050565b610c2a81610dee565b82525050565b60006020820190508181036000830152610c4a8184610b70565b905092915050565b6000610180820190508181036000830152610c6d818f610b70565b90508181036020830152610c81818e610b70565b90508181036040830152610c95818d610b70565b9050610ca4606083018c610c21565b610cb1608083018b610c21565b610cbe60a083018a610c21565b81810360c0830152610cd08189610b70565b905081810360e0830152610ce48188610b70565b9050818103610100830152610cf98187610b70565b9050818103610120830152610d0e8186610b70565b9050610d1e610140830185610b28565b610d2c610160830184610b28565b9d9c50505050505050505050505050565b60006020820190508181036000830152610d578184610ba9565b905092915050565b6000610d69610d7a565b9050610d758282610e6c565b919050565b6000604051905090565b600067ffffffffffffffff821115610d9f57610d9e610ecc565b5b610da882610f0f565b9050602081019050919050565b600081519050919050565b600082825260208201905092915050565b600082825260208201905092915050565b60008115159050919050565b6000819050919050565b82818337600083830152505050565b60005b83811015610e25578082015181840152602081019050610e0a565b83811115610e34576000848401525b50505050565b60006002820490506001821680610e5257607f821691505b60208210811415610e6657610e65610e9d565b5b50919050565b610e7582610f0f565b810181811067ffffffffffffffff82111715610e9457610e93610ecc565b5b80604052505050565b7f4e487b7100000000000000000000000000000000000000000000000000000000600052602260045260246000fd5b7f4e487b7100000000000000000000000000000000000000000000000000000000600052604160045260246000fd5b600080fd5b600080fd5b600080fd5b600080fd5b6000601f19601f830116905091905056fea264697066735822122096ceba9fd911b3154a97bd2049a5e8325c1229235d348a601758b927f13ac4d264736f6c63430008060033",
					"opcodes": "PUSH1 0x80 PUSH1 0x40 MSTORE CALLVALUE DUP1 ISZERO PUSH3 0x11 JUMPI PUSH1 0x0 DUP1 REVERT JUMPDEST POP PUSH1 0x40 MLOAD PUSH3 0x15B3 CODESIZE SUB DUP1 PUSH3 0x15B3 DUP4 CODECOPY DUP2 DUP2 ADD PUSH1 0x40 MSTORE DUP2 ADD SWAP1 PUSH3 0x37 SWAP2 SWAP1 PUSH3 0x2A0 JUMP JUMPDEST DUP11 PUSH1 0x0 SWAP1 DUP1 MLOAD SWAP1 PUSH1 0x20 ADD SWAP1 PUSH3 0x4F SWAP3 SWAP2 SWAP1 PUSH3 0x15B JUMP JUMPDEST POP DUP10 PUSH1 0x1 SWAP1 DUP1 MLOAD SWAP1 PUSH1 0x20 ADD SWAP1 PUSH3 0x68 SWAP3 SWAP2 SWAP1 PUSH3 0x15B JUMP JUMPDEST POP DUP9 PUSH1 0x2 SWAP1 DUP1 MLOAD SWAP1 PUSH1 0x20 ADD SWAP1 PUSH3 0x81 SWAP3 SWAP2 SWAP1 PUSH3 0x15B JUMP JUMPDEST POP DUP8 PUSH1 0x3 SWAP1 DUP1 MLOAD SWAP1 PUSH1 0x20 ADD SWAP1 PUSH3 0x9A SWAP3 SWAP2 SWAP1 PUSH3 0x15B JUMP JUMPDEST POP DUP7 PUSH1 0x4 DUP2 SWAP1 SSTORE POP DUP6 PUSH1 0x5 DUP2 SWAP1 SSTORE POP DUP5 PUSH1 0x6 DUP2 SWAP1 SSTORE POP DUP4 PUSH1 0x7 SWAP1 DUP1 MLOAD SWAP1 PUSH1 0x20 ADD SWAP1 PUSH3 0xC8 SWAP3 SWAP2 SWAP1 PUSH3 0x15B JUMP JUMPDEST POP DUP3 PUSH1 0x8 SWAP1 DUP1 MLOAD SWAP1 PUSH1 0x20 ADD SWAP1 PUSH3 0xE1 SWAP3 SWAP2 SWAP1 PUSH3 0x15B JUMP JUMPDEST POP DUP2 PUSH1 0x9 SWAP1 DUP1 MLOAD SWAP1 PUSH1 0x20 ADD SWAP1 PUSH3 0xFA SWAP3 SWAP2 SWAP1 PUSH3 0x15B JUMP JUMPDEST POP DUP1 PUSH1 0xA SWAP1 DUP1 MLOAD SWAP1 PUSH1 0x20 ADD SWAP1 PUSH3 0x113 SWAP3 SWAP2 SWAP1 PUSH3 0x15B JUMP JUMPDEST POP PUSH1 0x0 PUSH1 0xB PUSH1 0x0 PUSH2 0x100 EXP DUP2 SLOAD DUP2 PUSH1 0xFF MUL NOT AND SWAP1 DUP4 ISZERO ISZERO MUL OR SWAP1 SSTORE POP PUSH1 0x0 PUSH1 0xB PUSH1 0x1 PUSH2 0x100 EXP DUP2 SLOAD DUP2 PUSH1 0xFF MUL NOT AND SWAP1 DUP4 ISZERO ISZERO MUL OR SWAP1 SSTORE POP POP POP POP POP POP POP POP POP POP POP POP PUSH3 0x64D JUMP JUMPDEST DUP3 DUP1 SLOAD PUSH3 0x169 SWAP1 PUSH3 0x544 JUMP JUMPDEST SWAP1 PUSH1 0x0 MSTORE PUSH1 0x20 PUSH1 0x0 KECCAK256 SWAP1 PUSH1 0x1F ADD PUSH1 0x20 SWAP1 DIV DUP2 ADD SWAP3 DUP3 PUSH3 0x18D JUMPI PUSH1 0x0 DUP6 SSTORE PUSH3 0x1D9 JUMP JUMPDEST DUP3 PUSH1 0x1F LT PUSH3 0x1A8 JUMPI DUP1 MLOAD PUSH1 0xFF NOT AND DUP4 DUP1 ADD OR DUP6 SSTORE PUSH3 0x1D9 JUMP JUMPDEST DUP3 DUP1 ADD PUSH1 0x1 ADD DUP6 SSTORE DUP3 ISZERO PUSH3 0x1D9 JUMPI SWAP2 DUP3 ADD JUMPDEST DUP3 DUP2 GT ISZERO PUSH3 0x1D8 JUMPI DUP3 MLOAD DUP3 SSTORE SWAP2 PUSH1 0x20 ADD SWAP2 SWAP1 PUSH1 0x1 ADD SWAP1 PUSH3 0x1BB JUMP JUMPDEST JUMPDEST POP SWAP1 POP PUSH3 0x1E8 SWAP2 SWAP1 PUSH3 0x1EC JUMP JUMPDEST POP SWAP1 JUMP JUMPDEST JUMPDEST DUP1 DUP3 GT ISZERO PUSH3 0x207 JUMPI PUSH1 0x0 DUP2 PUSH1 0x0 SWAP1 SSTORE POP PUSH1 0x1 ADD PUSH3 0x1ED JUMP JUMPDEST POP SWAP1 JUMP JUMPDEST PUSH1 0x0 PUSH3 0x222 PUSH3 0x21C DUP5 PUSH3 0x4CE JUMP JUMPDEST PUSH3 0x4A5 JUMP JUMPDEST SWAP1 POP DUP3 DUP2 MSTORE PUSH1 0x20 DUP2 ADD DUP5 DUP5 DUP5 ADD GT ISZERO PUSH3 0x241 JUMPI PUSH3 0x240 PUSH3 0x613 JUMP JUMPDEST JUMPDEST PUSH3 0x24E DUP5 DUP3 DUP6 PUSH3 0x50E JUMP JUMPDEST POP SWAP4 SWAP3 POP POP POP JUMP JUMPDEST PUSH1 0x0 DUP3 PUSH1 0x1F DUP4 ADD SLT PUSH3 0x26E JUMPI PUSH3 0x26D PUSH3 0x60E JUMP JUMPDEST JUMPDEST DUP2 MLOAD PUSH3 0x280 DUP5 DUP3 PUSH1 0x20 DUP7 ADD PUSH3 0x20B JUMP JUMPDEST SWAP2 POP POP SWAP3 SWAP2 POP POP JUMP JUMPDEST PUSH1 0x0 DUP2 MLOAD SWAP1 POP PUSH3 0x29A DUP2 PUSH3 0x633 JUMP JUMPDEST SWAP3 SWAP2 POP POP JUMP JUMPDEST PUSH1 0x0 DUP1 PUSH1 0x0 DUP1 PUSH1 0x0 DUP1 PUSH1 0x0 DUP1 PUSH1 0x0 DUP1 PUSH1 0x0 PUSH2 0x160 DUP13 DUP15 SUB SLT ISZERO PUSH3 0x2C9 JUMPI PUSH3 0x2C8 PUSH3 0x61D JUMP JUMPDEST JUMPDEST PUSH1 0x0 DUP13 ADD MLOAD PUSH8 0xFFFFFFFFFFFFFFFF DUP2 GT ISZERO PUSH3 0x2EA JUMPI PUSH3 0x2E9 PUSH3 0x618 JUMP JUMPDEST JUMPDEST PUSH3 0x2F8 DUP15 DUP3 DUP16 ADD PUSH3 0x256 JUMP JUMPDEST SWAP12 POP POP PUSH1 0x20 DUP13 ADD MLOAD PUSH8 0xFFFFFFFFFFFFFFFF DUP2 GT ISZERO PUSH3 0x31C JUMPI PUSH3 0x31B PUSH3 0x618 JUMP JUMPDEST JUMPDEST PUSH3 0x32A DUP15 DUP3 DUP16 ADD PUSH3 0x256 JUMP JUMPDEST SWAP11 POP POP PUSH1 0x40 DUP13 ADD MLOAD PUSH8 0xFFFFFFFFFFFFFFFF DUP2 GT ISZERO PUSH3 0x34E JUMPI PUSH3 0x34D PUSH3 0x618 JUMP JUMPDEST JUMPDEST PUSH3 0x35C DUP15 DUP3 DUP16 ADD PUSH3 0x256 JUMP JUMPDEST SWAP10 POP POP PUSH1 0x60 DUP13 ADD MLOAD PUSH8 0xFFFFFFFFFFFFFFFF DUP2 GT ISZERO PUSH3 0x380 JUMPI PUSH3 0x37F PUSH3 0x618 JUMP JUMPDEST JUMPDEST PUSH3 0x38E DUP15 DUP3 DUP16 ADD PUSH3 0x256 JUMP JUMPDEST SWAP9 POP POP PUSH1 0x80 PUSH3 0x3A1 DUP15 DUP3 DUP16 ADD PUSH3 0x289 JUMP JUMPDEST SWAP8 POP POP PUSH1 0xA0 PUSH3 0x3B4 DUP15 DUP3 DUP16 ADD PUSH3 0x289 JUMP JUMPDEST SWAP7 POP POP PUSH1 0xC0 PUSH3 0x3C7 DUP15 DUP3 DUP16 ADD PUSH3 0x289 JUMP JUMPDEST SWAP6 POP POP PUSH1 0xE0 DUP13 ADD MLOAD PUSH8 0xFFFFFFFFFFFFFFFF DUP2 GT ISZERO PUSH3 0x3EB JUMPI PUSH3 0x3EA PUSH3 0x618 JUMP JUMPDEST JUMPDEST PUSH3 0x3F9 DUP15 DUP3 DUP16 ADD PUSH3 0x256 JUMP JUMPDEST SWAP5 POP POP PUSH2 0x100 DUP13 ADD MLOAD PUSH8 0xFFFFFFFFFFFFFFFF DUP2 GT ISZERO PUSH3 0x41E JUMPI PUSH3 0x41D PUSH3 0x618 JUMP JUMPDEST JUMPDEST PUSH3 0x42C DUP15 DUP3 DUP16 ADD PUSH3 0x256 JUMP JUMPDEST SWAP4 POP POP PUSH2 0x120 DUP13 ADD MLOAD PUSH8 0xFFFFFFFFFFFFFFFF DUP2 GT ISZERO PUSH3 0x451 JUMPI PUSH3 0x450 PUSH3 0x618 JUMP JUMPDEST JUMPDEST PUSH3 0x45F DUP15 DUP3 DUP16 ADD PUSH3 0x256 JUMP JUMPDEST SWAP3 POP POP PUSH2 0x140 DUP13 ADD MLOAD PUSH8 0xFFFFFFFFFFFFFFFF DUP2 GT ISZERO PUSH3 0x484 JUMPI PUSH3 0x483 PUSH3 0x618 JUMP JUMPDEST JUMPDEST PUSH3 0x492 DUP15 DUP3 DUP16 ADD PUSH3 0x256 JUMP JUMPDEST SWAP2 POP POP SWAP3 SWAP6 SWAP9 SWAP12 POP SWAP3 SWAP6 SWAP9 SWAP12 SWAP1 SWAP4 SWAP7 SWAP10 POP JUMP JUMPDEST PUSH1 0x0 PUSH3 0x4B1 PUSH3 0x4C4 JUMP JUMPDEST SWAP1 POP PUSH3 0x4BF DUP3 DUP3 PUSH3 0x57A JUMP JUMPDEST SWAP2 SWAP1 POP JUMP JUMPDEST PUSH1 0x0 PUSH1 0x40 MLOAD SWAP1 POP SWAP1 JUMP JUMPDEST PUSH1 0x0 PUSH8 0xFFFFFFFFFFFFFFFF DUP3 GT ISZERO PUSH3 0x4EC JUMPI PUSH3 0x4EB PUSH3 0x5DF JUMP JUMPDEST JUMPDEST PUSH3 0x4F7 DUP3 PUSH3 0x622 JUMP JUMPDEST SWAP1 POP PUSH1 0x20 DUP2 ADD SWAP1 POP SWAP2 SWAP1 POP JUMP JUMPDEST PUSH1 0x0 DUP2 SWAP1 POP SWAP2 SWAP1 POP JUMP JUMPDEST PUSH1 0x0 JUMPDEST DUP4 DUP2 LT ISZERO PUSH3 0x52E JUMPI DUP1 DUP3 ADD MLOAD DUP2 DUP5 ADD MSTORE PUSH1 0x20 DUP2 ADD SWAP1 POP PUSH3 0x511 JUMP JUMPDEST DUP4 DUP2 GT ISZERO PUSH3 0x53E JUMPI PUSH1 0x0 DUP5 DUP5 ADD MSTORE JUMPDEST POP POP POP POP JUMP JUMPDEST PUSH1 0x0 PUSH1 0x2 DUP3 DIV SWAP1 POP PUSH1 0x1 DUP3 AND DUP1 PUSH3 0x55D JUMPI PUSH1 0x7F DUP3 AND SWAP2 POP JUMPDEST PUSH1 0x20 DUP3 LT DUP2 EQ ISZERO PUSH3 0x574 JUMPI PUSH3 0x573 PUSH3 0x5B0 JUMP JUMPDEST JUMPDEST POP SWAP2 SWAP1 POP JUMP JUMPDEST PUSH3 0x585 DUP3 PUSH3 0x622 JUMP JUMPDEST DUP2 ADD DUP2 DUP2 LT PUSH8 0xFFFFFFFFFFFFFFFF DUP3 GT OR ISZERO PUSH3 0x5A7 JUMPI PUSH3 0x5A6 PUSH3 0x5DF JUMP JUMPDEST JUMPDEST DUP1 PUSH1 0x40 MSTORE POP POP POP JUMP JUMPDEST PUSH32 0x4E487B7100000000000000000000000000000000000000000000000000000000 PUSH1 0x0 MSTORE PUSH1 0x22 PUSH1 0x4 MSTORE PUSH1 0x24 PUSH1 0x0 REVERT JUMPDEST PUSH32 0x4E487B7100000000000000000000000000000000000000000000000000000000 PUSH1 0x0 MSTORE PUSH1 0x41 PUSH1 0x4 MSTORE PUSH1 0x24 PUSH1 0x0 REVERT JUMPDEST PUSH1 0x0 DUP1 REVERT JUMPDEST PUSH1 0x0 DUP1 REVERT JUMPDEST PUSH1 0x0 DUP1 REVERT JUMPDEST PUSH1 0x0 DUP1 REVERT JUMPDEST PUSH1 0x0 PUSH1 0x1F NOT PUSH1 0x1F DUP4 ADD AND SWAP1 POP SWAP2 SWAP1 POP JUMP JUMPDEST PUSH3 0x63E DUP2 PUSH3 0x504 JUMP JUMPDEST DUP2 EQ PUSH3 0x64A JUMPI PUSH1 0x0 DUP1 REVERT JUMPDEST POP JUMP JUMPDEST PUSH2 0xF56 DUP1 PUSH3 0x65D PUSH1 0x0 CODECOPY PUSH1 0x0 RETURN INVALID PUSH1 0x80 PUSH1 0x40 MSTORE CALLVALUE DUP1 ISZERO PUSH2 0x10 JUMPI PUSH1 0x0 DUP1 REVERT JUMPDEST POP PUSH1 0x4 CALLDATASIZE LT PUSH2 0x62 JUMPI PUSH1 0x0 CALLDATALOAD PUSH1 0xE0 SHR DUP1 PUSH4 0x30884B68 EQ PUSH2 0x67 JUMPI DUP1 PUSH4 0x3BC5DE30 EQ PUSH2 0x85 JUMPI DUP1 PUSH4 0x47F450B0 EQ PUSH2 0xAE JUMPI DUP1 PUSH4 0x4A2BFDC7 EQ PUSH2 0xCC JUMPI DUP1 PUSH4 0x86444B43 EQ PUSH2 0xD6 JUMPI DUP1 PUSH4 0xDC4ADE84 EQ PUSH2 0xF2 JUMPI JUMPDEST PUSH1 0x0 DUP1 REVERT JUMPDEST PUSH2 0x6F PUSH2 0xFC JUMP JUMPDEST PUSH1 0x40 MLOAD PUSH2 0x7C SWAP2 SWAP1 PUSH2 0xC30 JUMP JUMPDEST PUSH1 0x40 MLOAD DUP1 SWAP2 SUB SWAP1 RETURN JUMPDEST PUSH2 0x8D PUSH2 0x18E JUMP JUMPDEST PUSH1 0x40 MLOAD PUSH2 0xA5 SWAP13 SWAP12 SWAP11 SWAP10 SWAP9 SWAP8 SWAP7 SWAP6 SWAP5 SWAP4 SWAP3 SWAP2 SWAP1 PUSH2 0xC52 JUMP JUMPDEST PUSH1 0x40 MLOAD DUP1 SWAP2 SUB SWAP1 RETURN JUMPDEST PUSH2 0xB6 PUSH2 0x5D2 JUMP JUMPDEST PUSH1 0x40 MLOAD PUSH2 0xC3 SWAP2 SWAP1 PUSH2 0xD3D JUMP JUMPDEST PUSH1 0x40 MLOAD DUP1 SWAP2 SUB SWAP1 RETURN JUMPDEST PUSH2 0xD4 PUSH2 0x834 JUMP JUMPDEST STOP JUMPDEST PUSH2 0xF0 PUSH1 0x4 DUP1 CALLDATASIZE SUB DUP2 ADD SWAP1 PUSH2 0xEB SWAP2 SWAP1 PUSH2 0xA51 JUMP JUMPDEST PUSH2 0x851 JUMP JUMPDEST STOP JUMPDEST PUSH2 0xFA PUSH2 0x8F9 JUMP JUMPDEST STOP JUMPDEST PUSH1 0x60 PUSH1 0x0 DUP1 SLOAD PUSH2 0x10B SWAP1 PUSH2 0xE3A JUMP JUMPDEST DUP1 PUSH1 0x1F ADD PUSH1 0x20 DUP1 SWAP2 DIV MUL PUSH1 0x20 ADD PUSH1 0x40 MLOAD SWAP1 DUP2 ADD PUSH1 0x40 MSTORE DUP1 SWAP3 SWAP2 SWAP1 DUP2 DUP2 MSTORE PUSH1 0x20 ADD DUP3 DUP1 SLOAD PUSH2 0x137 SWAP1 PUSH2 0xE3A JUMP JUMPDEST DUP1 ISZERO PUSH2 0x184 JUMPI DUP1 PUSH1 0x1F LT PUSH2 0x159 JUMPI PUSH2 0x100 DUP1 DUP4 SLOAD DIV MUL DUP4 MSTORE SWAP2 PUSH1 0x20 ADD SWAP2 PUSH2 0x184 JUMP JUMPDEST DUP3 ADD SWAP2 SWAP1 PUSH1 0x0 MSTORE PUSH1 0x20 PUSH1 0x0 KECCAK256 SWAP1 JUMPDEST DUP2 SLOAD DUP2 MSTORE SWAP1 PUSH1 0x1 ADD SWAP1 PUSH1 0x20 ADD DUP1 DUP4 GT PUSH2 0x167 JUMPI DUP3 SWAP1 SUB PUSH1 0x1F AND DUP3 ADD SWAP2 JUMPDEST POP POP POP POP POP SWAP1 POP SWAP1 JUMP JUMPDEST PUSH1 0x60 DUP1 PUSH1 0x60 PUSH1 0x0 DUP1 PUSH1 0x0 PUSH1 0x60 DUP1 PUSH1 0x60 DUP1 PUSH1 0x0 DUP1 PUSH1 0x1 PUSH1 0x2 PUSH1 0x3 PUSH1 0x4 SLOAD PUSH1 0x5 SLOAD PUSH1 0x6 SLOAD PUSH1 0x7 PUSH1 0x8 PUSH1 0x9 PUSH1 0xA PUSH1 0xB PUSH1 0x0 SWAP1 SLOAD SWAP1 PUSH2 0x100 EXP SWAP1 DIV PUSH1 0xFF AND PUSH1 0xB PUSH1 0x1 SWAP1 SLOAD SWAP1 PUSH2 0x100 EXP SWAP1 DIV PUSH1 0xFF AND DUP12 DUP1 SLOAD PUSH2 0x1E4 SWAP1 PUSH2 0xE3A JUMP JUMPDEST DUP1 PUSH1 0x1F ADD PUSH1 0x20 DUP1 SWAP2 DIV MUL PUSH1 0x20 ADD PUSH1 0x40 MLOAD SWAP1 DUP2 ADD PUSH1 0x40 MSTORE DUP1 SWAP3 SWAP2 SWAP1 DUP2 DUP2 MSTORE PUSH1 0x20 ADD DUP3 DUP1 SLOAD PUSH2 0x210 SWAP1 PUSH2 0xE3A JUMP JUMPDEST DUP1 ISZERO PUSH2 0x25D JUMPI DUP1 PUSH1 0x1F LT PUSH2 0x232 JUMPI PUSH2 0x100 DUP1 DUP4 SLOAD DIV MUL DUP4 MSTORE SWAP2 PUSH1 0x20 ADD SWAP2 PUSH2 0x25D JUMP JUMPDEST DUP3 ADD SWAP2 SWAP1 PUSH1 0x0 MSTORE PUSH1 0x20 PUSH1 0x0 KECCAK256 SWAP1 JUMPDEST DUP2 SLOAD DUP2 MSTORE SWAP1 PUSH1 0x1 ADD SWAP1 PUSH1 0x20 ADD DUP1 DUP4 GT PUSH2 0x240 JUMPI DUP3 SWAP1 SUB PUSH1 0x1F AND DUP3 ADD SWAP2 JUMPDEST POP POP POP POP POP SWAP12 POP DUP11 DUP1 SLOAD PUSH2 0x270 SWAP1 PUSH2 0xE3A JUMP JUMPDEST DUP1 PUSH1 0x1F ADD PUSH1 0x20 DUP1 SWAP2 DIV MUL PUSH1 0x20 ADD PUSH1 0x40 MLOAD SWAP1 DUP2 ADD PUSH1 0x40 MSTORE DUP1 SWAP3 SWAP2 SWAP1 DUP2 DUP2 MSTORE PUSH1 0x20 ADD DUP3 DUP1 SLOAD PUSH2 0x29C SWAP1 PUSH2 0xE3A JUMP JUMPDEST DUP1 ISZERO PUSH2 0x2E9 JUMPI DUP1 PUSH1 0x1F LT PUSH2 0x2BE JUMPI PUSH2 0x100 DUP1 DUP4 SLOAD DIV MUL DUP4 MSTORE SWAP2 PUSH1 0x20 ADD SWAP2 PUSH2 0x2E9 JUMP JUMPDEST DUP3 ADD SWAP2 SWAP1 PUSH1 0x0 MSTORE PUSH1 0x20 PUSH1 0x0 KECCAK256 SWAP1 JUMPDEST DUP2 SLOAD DUP2 MSTORE SWAP1 PUSH1 0x1 ADD SWAP1 PUSH1 0x20 ADD DUP1 DUP4 GT PUSH2 0x2CC JUMPI DUP3 SWAP1 SUB PUSH1 0x1F AND DUP3 ADD SWAP2 JUMPDEST POP POP POP POP POP SWAP11 POP DUP10 DUP1 SLOAD PUSH2 0x2FC SWAP1 PUSH2 0xE3A JUMP JUMPDEST DUP1 PUSH1 0x1F ADD PUSH1 0x20 DUP1 SWAP2 DIV MUL PUSH1 0x20 ADD PUSH1 0x40 MLOAD SWAP1 DUP2 ADD PUSH1 0x40 MSTORE DUP1 SWAP3 SWAP2 SWAP1 DUP2 DUP2 MSTORE PUSH1 0x20 ADD DUP3 DUP1 SLOAD PUSH2 0x328 SWAP1 PUSH2 0xE3A JUMP JUMPDEST DUP1 ISZERO PUSH2 0x375 JUMPI DUP1 PUSH1 0x1F LT PUSH2 0x34A JUMPI PUSH2 0x100 DUP1 DUP4 SLOAD DIV MUL DUP4 MSTORE SWAP2 PUSH1 0x20 ADD SWAP2 PUSH2 0x375 JUMP JUMPDEST DUP3 ADD SWAP2 SWAP1 PUSH1 0x0 MSTORE PUSH1 0x20 PUSH1 0x0 KECCAK256 SWAP1 JUMPDEST DUP2 SLOAD DUP2 MSTORE SWAP1 PUSH1 0x1 ADD SWAP1 PUSH1 0x20 ADD DUP1 DUP4 GT PUSH2 0x358 JUMPI DUP3 SWAP1 SUB PUSH1 0x1F AND DUP3 ADD SWAP2 JUMPDEST POP POP POP POP POP SWAP10 POP DUP6 DUP1 SLOAD PUSH2 0x388 SWAP1 PUSH2 0xE3A JUMP JUMPDEST DUP1 PUSH1 0x1F ADD PUSH1 0x20 DUP1 SWAP2 DIV MUL PUSH1 0x20 ADD PUSH1 0x40 MLOAD SWAP1 DUP2 ADD PUSH1 0x40 MSTORE DUP1 SWAP3 SWAP2 SWAP1 DUP2 DUP2 MSTORE PUSH1 0x20 ADD DUP3 DUP1 SLOAD PUSH2 0x3B4 SWAP1 PUSH2 0xE3A JUMP JUMPDEST DUP1 ISZERO PUSH2 0x401 JUMPI DUP1 PUSH1 0x1F LT PUSH2 0x3D6 JUMPI PUSH2 0x100 DUP1 DUP4 SLOAD DIV MUL DUP4 MSTORE SWAP2 PUSH1 0x20 ADD SWAP2 PUSH2 0x401 JUMP JUMPDEST DUP3 ADD SWAP2 SWAP1 PUSH1 0x0 MSTORE PUSH1 0x20 PUSH1 0x0 KECCAK256 SWAP1 JUMPDEST DUP2 SLOAD DUP2 MSTORE SWAP1 PUSH1 0x1 ADD SWAP1 PUSH1 0x20 ADD DUP1 DUP4 GT PUSH2 0x3E4 JUMPI DUP3 SWAP1 SUB PUSH1 0x1F AND DUP3 ADD SWAP2 JUMPDEST POP POP POP POP POP SWAP6 POP DUP5 DUP1 SLOAD PUSH2 0x414 SWAP1 PUSH2 0xE3A JUMP JUMPDEST DUP1 PUSH1 0x1F ADD PUSH1 0x20 DUP1 SWAP2 DIV MUL PUSH1 0x20 ADD PUSH1 0x40 MLOAD SWAP1 DUP2 ADD PUSH1 0x40 MSTORE DUP1 SWAP3 SWAP2 SWAP1 DUP2 DUP2 MSTORE PUSH1 0x20 ADD DUP3 DUP1 SLOAD PUSH2 0x440 SWAP1 PUSH2 0xE3A JUMP JUMPDEST DUP1 ISZERO PUSH2 0x48D JUMPI DUP1 PUSH1 0x1F LT PUSH2 0x462 JUMPI PUSH2 0x100 DUP1 DUP4 SLOAD DIV MUL DUP4 MSTORE SWAP2 PUSH1 0x20 ADD SWAP2 PUSH2 0x48D JUMP JUMPDEST DUP3 ADD SWAP2 SWAP1 PUSH1 0x0 MSTORE PUSH1 0x20 PUSH1 0x0 KECCAK256 SWAP1 JUMPDEST DUP2 SLOAD DUP2 MSTORE SWAP1 PUSH1 0x1 ADD SWAP1 PUSH1 0x20 ADD DUP1 DUP4 GT PUSH2 0x470 JUMPI DUP3 SWAP1 SUB PUSH1 0x1F AND DUP3 ADD SWAP2 JUMPDEST POP POP POP POP POP SWAP5 POP DUP4 DUP1 SLOAD PUSH2 0x4A0 SWAP1 PUSH2 0xE3A JUMP JUMPDEST DUP1 PUSH1 0x1F ADD PUSH1 0x20 DUP1 SWAP2 DIV MUL PUSH1 0x20 ADD PUSH1 0x40 MLOAD SWAP1 DUP2 ADD PUSH1 0x40 MSTORE DUP1 SWAP3 SWAP2 SWAP1 DUP2 DUP2 MSTORE PUSH1 0x20 ADD DUP3 DUP1 SLOAD PUSH2 0x4CC SWAP1 PUSH2 0xE3A JUMP JUMPDEST DUP1 ISZERO PUSH2 0x519 JUMPI DUP1 PUSH1 0x1F LT PUSH2 0x4EE JUMPI PUSH2 0x100 DUP1 DUP4 SLOAD DIV MUL DUP4 MSTORE SWAP2 PUSH1 0x20 ADD SWAP2 PUSH2 0x519 JUMP JUMPDEST DUP3 ADD SWAP2 SWAP1 PUSH1 0x0 MSTORE PUSH1 0x20 PUSH1 0x0 KECCAK256 SWAP1 JUMPDEST DUP2 SLOAD DUP2 MSTORE SWAP1 PUSH1 0x1 ADD SWAP1 PUSH1 0x20 ADD DUP1 DUP4 GT PUSH2 0x4FC JUMPI DUP3 SWAP1 SUB PUSH1 0x1F AND DUP3 ADD SWAP2 JUMPDEST POP POP POP POP POP SWAP4 POP DUP3 DUP1 SLOAD PUSH2 0x52C SWAP1 PUSH2 0xE3A JUMP JUMPDEST DUP1 PUSH1 0x1F ADD PUSH1 0x20 DUP1 SWAP2 DIV MUL PUSH1 0x20 ADD PUSH1 0x40 MLOAD SWAP1 DUP2 ADD PUSH1 0x40 MSTORE DUP1 SWAP3 SWAP2 SWAP1 DUP2 DUP2 MSTORE PUSH1 0x20 ADD DUP3 DUP1 SLOAD PUSH2 0x558 SWAP1 PUSH2 0xE3A JUMP JUMPDEST DUP1 ISZERO PUSH2 0x5A5 JUMPI DUP1 PUSH1 0x1F LT PUSH2 0x57A JUMPI PUSH2 0x100 DUP1 DUP4 SLOAD DIV MUL DUP4 MSTORE SWAP2 PUSH1 0x20 ADD SWAP2 PUSH2 0x5A5 JUMP JUMPDEST DUP3 ADD SWAP2 SWAP1 PUSH1 0x0 MSTORE PUSH1 0x20 PUSH1 0x0 KECCAK256 SWAP1 JUMPDEST DUP2 SLOAD DUP2 MSTORE SWAP1 PUSH1 0x1 ADD SWAP1 PUSH1 0x20 ADD DUP1 DUP4 GT PUSH2 0x588 JUMPI DUP3 SWAP1 SUB PUSH1 0x1F AND DUP3 ADD SWAP2 JUMPDEST POP POP POP POP POP SWAP3 POP SWAP12 POP SWAP12 POP SWAP12 POP SWAP12 POP SWAP12 POP SWAP12 POP SWAP12 POP SWAP12 POP SWAP12 POP SWAP12 POP SWAP12 POP SWAP12 POP SWAP1 SWAP2 SWAP3 SWAP4 SWAP5 SWAP6 SWAP7 SWAP8 SWAP9 SWAP10 SWAP11 SWAP12 JUMP JUMPDEST PUSH2 0x5DA PUSH2 0x916 JUMP JUMPDEST PUSH1 0xC PUSH1 0x40 MLOAD DUP1 PUSH1 0x80 ADD PUSH1 0x40 MSTORE SWAP1 DUP2 PUSH1 0x0 DUP3 ADD DUP1 SLOAD PUSH2 0x5F7 SWAP1 PUSH2 0xE3A JUMP JUMPDEST DUP1 PUSH1 0x1F ADD PUSH1 0x20 DUP1 SWAP2 DIV MUL PUSH1 0x20 ADD PUSH1 0x40 MLOAD SWAP1 DUP2 ADD PUSH1 0x40 MSTORE DUP1 SWAP3 SWAP2 SWAP1 DUP2 DUP2 MSTORE PUSH1 0x20 ADD DUP3 DUP1 SLOAD PUSH2 0x623 SWAP1 PUSH2 0xE3A JUMP JUMPDEST DUP1 ISZERO PUSH2 0x670 JUMPI DUP1 PUSH1 0x1F LT PUSH2 0x645 JUMPI PUSH2 0x100 DUP1 DUP4 SLOAD DIV MUL DUP4 MSTORE SWAP2 PUSH1 0x20 ADD SWAP2 PUSH2 0x670 JUMP JUMPDEST DUP3 ADD SWAP2 SWAP1 PUSH1 0x0 MSTORE PUSH1 0x20 PUSH1 0x0 KECCAK256 SWAP1 JUMPDEST DUP2 SLOAD DUP2 MSTORE SWAP1 PUSH1 0x1 ADD SWAP1 PUSH1 0x20 ADD DUP1 DUP4 GT PUSH2 0x653 JUMPI DUP3 SWAP1 SUB PUSH1 0x1F AND DUP3 ADD SWAP2 JUMPDEST POP POP POP POP POP DUP2 MSTORE PUSH1 0x20 ADD PUSH1 0x1 DUP3 ADD DUP1 SLOAD PUSH2 0x689 SWAP1 PUSH2 0xE3A JUMP JUMPDEST DUP1 PUSH1 0x1F ADD PUSH1 0x20 DUP1 SWAP2 DIV MUL PUSH1 0x20 ADD PUSH1 0x40 MLOAD SWAP1 DUP2 ADD PUSH1 0x40 MSTORE DUP1 SWAP3 SWAP2 SWAP1 DUP2 DUP2 MSTORE PUSH1 0x20 ADD DUP3 DUP1 SLOAD PUSH2 0x6B5 SWAP1 PUSH2 0xE3A JUMP JUMPDEST DUP1 ISZERO PUSH2 0x702 JUMPI DUP1 PUSH1 0x1F LT PUSH2 0x6D7 JUMPI PUSH2 0x100 DUP1 DUP4 SLOAD DIV MUL DUP4 MSTORE SWAP2 PUSH1 0x20 ADD SWAP2 PUSH2 0x702 JUMP JUMPDEST DUP3 ADD SWAP2 SWAP1 PUSH1 0x0 MSTORE PUSH1 0x20 PUSH1 0x0 KECCAK256 SWAP1 JUMPDEST DUP2 SLOAD DUP2 MSTORE SWAP1 PUSH1 0x1 ADD SWAP1 PUSH1 0x20 ADD DUP1 DUP4 GT PUSH2 0x6E5 JUMPI DUP3 SWAP1 SUB PUSH1 0x1F AND DUP3 ADD SWAP2 JUMPDEST POP POP POP POP POP DUP2 MSTORE PUSH1 0x20 ADD PUSH1 0x2 DUP3 ADD DUP1 SLOAD PUSH2 0x71B SWAP1 PUSH2 0xE3A JUMP JUMPDEST DUP1 PUSH1 0x1F ADD PUSH1 0x20 DUP1 SWAP2 DIV MUL PUSH1 0x20 ADD PUSH1 0x40 MLOAD SWAP1 DUP2 ADD PUSH1 0x40 MSTORE DUP1 SWAP3 SWAP2 SWAP1 DUP2 DUP2 MSTORE PUSH1 0x20 ADD DUP3 DUP1 SLOAD PUSH2 0x747 SWAP1 PUSH2 0xE3A JUMP JUMPDEST DUP1 ISZERO PUSH2 0x794 JUMPI DUP1 PUSH1 0x1F LT PUSH2 0x769 JUMPI PUSH2 0x100 DUP1 DUP4 SLOAD DIV MUL DUP4 MSTORE SWAP2 PUSH1 0x20 ADD SWAP2 PUSH2 0x794 JUMP JUMPDEST DUP3 ADD SWAP2 SWAP1 PUSH1 0x0 MSTORE PUSH1 0x20 PUSH1 0x0 KECCAK256 SWAP1 JUMPDEST DUP2 SLOAD DUP2 MSTORE SWAP1 PUSH1 0x1 ADD SWAP1 PUSH1 0x20 ADD DUP1 DUP4 GT PUSH2 0x777 JUMPI DUP3 SWAP1 SUB PUSH1 0x1F AND DUP3 ADD SWAP2 JUMPDEST POP POP POP POP POP DUP2 MSTORE PUSH1 0x20 ADD PUSH1 0x3 DUP3 ADD DUP1 SLOAD PUSH2 0x7AD SWAP1 PUSH2 0xE3A JUMP JUMPDEST DUP1 PUSH1 0x1F ADD PUSH1 0x20 DUP1 SWAP2 DIV MUL PUSH1 0x20 ADD PUSH1 0x40 MLOAD SWAP1 DUP2 ADD PUSH1 0x40 MSTORE DUP1 SWAP3 SWAP2 SWAP1 DUP2 DUP2 MSTORE PUSH1 0x20 ADD DUP3 DUP1 SLOAD PUSH2 0x7D9 SWAP1 PUSH2 0xE3A JUMP JUMPDEST DUP1 ISZERO PUSH2 0x826 JUMPI DUP1 PUSH1 0x1F LT PUSH2 0x7FB JUMPI PUSH2 0x100 DUP1 DUP4 SLOAD DIV MUL DUP4 MSTORE SWAP2 PUSH1 0x20 ADD SWAP2 PUSH2 0x826 JUMP JUMPDEST DUP3 ADD SWAP2 SWAP1 PUSH1 0x0 MSTORE PUSH1 0x20 PUSH1 0x0 KECCAK256 SWAP1 JUMPDEST DUP2 SLOAD DUP2 MSTORE SWAP1 PUSH1 0x1 ADD SWAP1 PUSH1 0x20 ADD DUP1 DUP4 GT PUSH2 0x809 JUMPI DUP3 SWAP1 SUB PUSH1 0x1F AND DUP3 ADD SWAP2 JUMPDEST POP POP POP POP POP DUP2 MSTORE POP POP SWAP1 POP SWAP1 JUMP JUMPDEST PUSH1 0x1 PUSH1 0xB PUSH1 0x0 PUSH2 0x100 EXP DUP2 SLOAD DUP2 PUSH1 0xFF MUL NOT AND SWAP1 DUP4 ISZERO ISZERO MUL OR SWAP1 SSTORE POP JUMP JUMPDEST PUSH1 0x40 MLOAD DUP1 PUSH1 0x80 ADD PUSH1 0x40 MSTORE DUP1 DUP6 DUP2 MSTORE PUSH1 0x20 ADD DUP5 DUP2 MSTORE PUSH1 0x20 ADD DUP4 DUP2 MSTORE PUSH1 0x20 ADD DUP3 DUP2 MSTORE POP PUSH1 0xC PUSH1 0x0 DUP3 ADD MLOAD DUP2 PUSH1 0x0 ADD SWAP1 DUP1 MLOAD SWAP1 PUSH1 0x20 ADD SWAP1 PUSH2 0x890 SWAP3 SWAP2 SWAP1 PUSH2 0x93E JUMP JUMPDEST POP PUSH1 0x20 DUP3 ADD MLOAD DUP2 PUSH1 0x1 ADD SWAP1 DUP1 MLOAD SWAP1 PUSH1 0x20 ADD SWAP1 PUSH2 0x8AD SWAP3 SWAP2 SWAP1 PUSH2 0x93E JUMP JUMPDEST POP PUSH1 0x40 DUP3 ADD MLOAD DUP2 PUSH1 0x2 ADD SWAP1 DUP1 MLOAD SWAP1 PUSH1 0x20 ADD SWAP1 PUSH2 0x8CA SWAP3 SWAP2 SWAP1 PUSH2 0x93E JUMP JUMPDEST POP PUSH1 0x60 DUP3 ADD MLOAD DUP2 PUSH1 0x3 ADD SWAP1 DUP1 MLOAD SWAP1 PUSH1 0x20 ADD SWAP1 PUSH2 0x8E7 SWAP3 SWAP2 SWAP1 PUSH2 0x93E JUMP JUMPDEST POP SWAP1 POP POP PUSH2 0x8F3 PUSH2 0x834 JUMP JUMPDEST POP POP POP POP JUMP JUMPDEST PUSH1 0x1 PUSH1 0xB PUSH1 0x1 PUSH2 0x100 EXP DUP2 SLOAD DUP2 PUSH1 0xFF MUL NOT AND SWAP1 DUP4 ISZERO ISZERO MUL OR SWAP1 SSTORE POP JUMP JUMPDEST PUSH1 0x40 MLOAD DUP1 PUSH1 0x80 ADD PUSH1 0x40 MSTORE DUP1 PUSH1 0x60 DUP2 MSTORE PUSH1 0x20 ADD PUSH1 0x60 DUP2 MSTORE PUSH1 0x20 ADD PUSH1 0x60 DUP2 MSTORE PUSH1 0x20 ADD PUSH1 0x60 DUP2 MSTORE POP SWAP1 JUMP JUMPDEST DUP3 DUP1 SLOAD PUSH2 0x94A SWAP1 PUSH2 0xE3A JUMP JUMPDEST SWAP1 PUSH1 0x0 MSTORE PUSH1 0x20 PUSH1 0x0 KECCAK256 SWAP1 PUSH1 0x1F ADD PUSH1 0x20 SWAP1 DIV DUP2 ADD SWAP3 DUP3 PUSH2 0x96C JUMPI PUSH1 0x0 DUP6 SSTORE PUSH2 0x9B3 JUMP JUMPDEST DUP3 PUSH1 0x1F LT PUSH2 0x985 JUMPI DUP1 MLOAD PUSH1 0xFF NOT AND DUP4 DUP1 ADD OR DUP6 SSTORE PUSH2 0x9B3 JUMP JUMPDEST DUP3 DUP1 ADD PUSH1 0x1 ADD DUP6 SSTORE DUP3 ISZERO PUSH2 0x9B3 JUMPI SWAP2 DUP3 ADD JUMPDEST DUP3 DUP2 GT ISZERO PUSH2 0x9B2 JUMPI DUP3 MLOAD DUP3 SSTORE SWAP2 PUSH1 0x20 ADD SWAP2 SWAP1 PUSH1 0x1 ADD SWAP1 PUSH2 0x997 JUMP JUMPDEST JUMPDEST POP SWAP1 POP PUSH2 0x9C0 SWAP2 SWAP1 PUSH2 0x9C4 JUMP JUMPDEST POP SWAP1 JUMP JUMPDEST JUMPDEST DUP1 DUP3 GT ISZERO PUSH2 0x9DD JUMPI PUSH1 0x0 DUP2 PUSH1 0x0 SWAP1 SSTORE POP PUSH1 0x1 ADD PUSH2 0x9C5 JUMP JUMPDEST POP SWAP1 JUMP JUMPDEST PUSH1 0x0 PUSH2 0x9F4 PUSH2 0x9EF DUP5 PUSH2 0xD84 JUMP JUMPDEST PUSH2 0xD5F JUMP JUMPDEST SWAP1 POP DUP3 DUP2 MSTORE PUSH1 0x20 DUP2 ADD DUP5 DUP5 DUP5 ADD GT ISZERO PUSH2 0xA10 JUMPI PUSH2 0xA0F PUSH2 0xF00 JUMP JUMPDEST JUMPDEST PUSH2 0xA1B DUP5 DUP3 DUP6 PUSH2 0xDF8 JUMP JUMPDEST POP SWAP4 SWAP3 POP POP POP JUMP JUMPDEST PUSH1 0x0 DUP3 PUSH1 0x1F DUP4 ADD SLT PUSH2 0xA38 JUMPI PUSH2 0xA37 PUSH2 0xEFB JUMP JUMPDEST JUMPDEST DUP2 CALLDATALOAD PUSH2 0xA48 DUP5 DUP3 PUSH1 0x20 DUP7 ADD PUSH2 0x9E1 JUMP JUMPDEST SWAP2 POP POP SWAP3 SWAP2 POP POP JUMP JUMPDEST PUSH1 0x0 DUP1 PUSH1 0x0 DUP1 PUSH1 0x80 DUP6 DUP8 SUB SLT ISZERO PUSH2 0xA6B JUMPI PUSH2 0xA6A PUSH2 0xF0A JUMP JUMPDEST JUMPDEST PUSH1 0x0 DUP6 ADD CALLDATALOAD PUSH8 0xFFFFFFFFFFFFFFFF DUP2 GT ISZERO PUSH2 0xA89 JUMPI PUSH2 0xA88 PUSH2 0xF05 JUMP JUMPDEST JUMPDEST PUSH2 0xA95 DUP8 DUP3 DUP9 ADD PUSH2 0xA23 JUMP JUMPDEST SWAP5 POP POP PUSH1 0x20 DUP6 ADD CALLDATALOAD PUSH8 0xFFFFFFFFFFFFFFFF DUP2 GT ISZERO PUSH2 0xAB6 JUMPI PUSH2 0xAB5 PUSH2 0xF05 JUMP JUMPDEST JUMPDEST PUSH2 0xAC2 DUP8 DUP3 DUP9 ADD PUSH2 0xA23 JUMP JUMPDEST SWAP4 POP POP PUSH1 0x40 DUP6 ADD CALLDATALOAD PUSH8 0xFFFFFFFFFFFFFFFF DUP2 GT ISZERO PUSH2 0xAE3 JUMPI PUSH2 0xAE2 PUSH2 0xF05 JUMP JUMPDEST JUMPDEST PUSH2 0xAEF DUP8 DUP3 DUP9 ADD PUSH2 0xA23 JUMP JUMPDEST SWAP3 POP POP PUSH1 0x60 DUP6 ADD CALLDATALOAD PUSH8 0xFFFFFFFFFFFFFFFF DUP2 GT ISZERO PUSH2 0xB10 JUMPI PUSH2 0xB0F PUSH2 0xF05 JUMP JUMPDEST JUMPDEST PUSH2 0xB1C DUP8 DUP3 DUP9 ADD PUSH2 0xA23 JUMP JUMPDEST SWAP2 POP POP SWAP3 SWAP6 SWAP2 SWAP5 POP SWAP3 POP JUMP JUMPDEST PUSH2 0xB31 DUP2 PUSH2 0xDE2 JUMP JUMPDEST DUP3 MSTORE POP POP JUMP JUMPDEST PUSH1 0x0 PUSH2 0xB42 DUP3 PUSH2 0xDB5 JUMP JUMPDEST PUSH2 0xB4C DUP2 DUP6 PUSH2 0xDC0 JUMP JUMPDEST SWAP4 POP PUSH2 0xB5C DUP2 DUP6 PUSH1 0x20 DUP7 ADD PUSH2 0xE07 JUMP JUMPDEST PUSH2 0xB65 DUP2 PUSH2 0xF0F JUMP JUMPDEST DUP5 ADD SWAP2 POP POP SWAP3 SWAP2 POP POP JUMP JUMPDEST PUSH1 0x0 PUSH2 0xB7B DUP3 PUSH2 0xDB5 JUMP JUMPDEST PUSH2 0xB85 DUP2 DUP6 PUSH2 0xDD1 JUMP JUMPDEST SWAP4 POP PUSH2 0xB95 DUP2 DUP6 PUSH1 0x20 DUP7 ADD PUSH2 0xE07 JUMP JUMPDEST PUSH2 0xB9E DUP2 PUSH2 0xF0F JUMP JUMPDEST DUP5 ADD SWAP2 POP POP SWAP3 SWAP2 POP POP JUMP JUMPDEST PUSH1 0x0 PUSH1 0x80 DUP4 ADD PUSH1 0x0 DUP4 ADD MLOAD DUP5 DUP3 SUB PUSH1 0x0 DUP7 ADD MSTORE PUSH2 0xBC6 DUP3 DUP3 PUSH2 0xB37 JUMP JUMPDEST SWAP2 POP POP PUSH1 0x20 DUP4 ADD MLOAD DUP5 DUP3 SUB PUSH1 0x20 DUP7 ADD MSTORE PUSH2 0xBE0 DUP3 DUP3 PUSH2 0xB37 JUMP JUMPDEST SWAP2 POP POP PUSH1 0x40 DUP4 ADD MLOAD DUP5 DUP3 SUB PUSH1 0x40 DUP7 ADD MSTORE PUSH2 0xBFA DUP3 DUP3 PUSH2 0xB37 JUMP JUMPDEST SWAP2 POP POP PUSH1 0x60 DUP4 ADD MLOAD DUP5 DUP3 SUB PUSH1 0x60 DUP7 ADD MSTORE PUSH2 0xC14 DUP3 DUP3 PUSH2 0xB37 JUMP JUMPDEST SWAP2 POP POP DUP1 SWAP2 POP POP SWAP3 SWAP2 POP POP JUMP JUMPDEST PUSH2 0xC2A DUP2 PUSH2 0xDEE JUMP JUMPDEST DUP3 MSTORE POP POP JUMP JUMPDEST PUSH1 0x0 PUSH1 0x20 DUP3 ADD SWAP1 POP DUP2 DUP2 SUB PUSH1 0x0 DUP4 ADD MSTORE PUSH2 0xC4A DUP2 DUP5 PUSH2 0xB70 JUMP JUMPDEST SWAP1 POP SWAP3 SWAP2 POP POP JUMP JUMPDEST PUSH1 0x0 PUSH2 0x180 DUP3 ADD SWAP1 POP DUP2 DUP2 SUB PUSH1 0x0 DUP4 ADD MSTORE PUSH2 0xC6D DUP2 DUP16 PUSH2 0xB70 JUMP JUMPDEST SWAP1 POP DUP2 DUP2 SUB PUSH1 0x20 DUP4 ADD MSTORE PUSH2 0xC81 DUP2 DUP15 PUSH2 0xB70 JUMP JUMPDEST SWAP1 POP DUP2 DUP2 SUB PUSH1 0x40 DUP4 ADD MSTORE PUSH2 0xC95 DUP2 DUP14 PUSH2 0xB70 JUMP JUMPDEST SWAP1 POP PUSH2 0xCA4 PUSH1 0x60 DUP4 ADD DUP13 PUSH2 0xC21 JUMP JUMPDEST PUSH2 0xCB1 PUSH1 0x80 DUP4 ADD DUP12 PUSH2 0xC21 JUMP JUMPDEST PUSH2 0xCBE PUSH1 0xA0 DUP4 ADD DUP11 PUSH2 0xC21 JUMP JUMPDEST DUP2 DUP2 SUB PUSH1 0xC0 DUP4 ADD MSTORE PUSH2 0xCD0 DUP2 DUP10 PUSH2 0xB70 JUMP JUMPDEST SWAP1 POP DUP2 DUP2 SUB PUSH1 0xE0 DUP4 ADD MSTORE PUSH2 0xCE4 DUP2 DUP9 PUSH2 0xB70 JUMP JUMPDEST SWAP1 POP DUP2 DUP2 SUB PUSH2 0x100 DUP4 ADD MSTORE PUSH2 0xCF9 DUP2 DUP8 PUSH2 0xB70 JUMP JUMPDEST SWAP1 POP DUP2 DUP2 SUB PUSH2 0x120 DUP4 ADD MSTORE PUSH2 0xD0E DUP2 DUP7 PUSH2 0xB70 JUMP JUMPDEST SWAP1 POP PUSH2 0xD1E PUSH2 0x140 DUP4 ADD DUP6 PUSH2 0xB28 JUMP JUMPDEST PUSH2 0xD2C PUSH2 0x160 DUP4 ADD DUP5 PUSH2 0xB28 JUMP JUMPDEST SWAP14 SWAP13 POP POP POP POP POP POP POP POP POP POP POP POP POP JUMP JUMPDEST PUSH1 0x0 PUSH1 0x20 DUP3 ADD SWAP1 POP DUP2 DUP2 SUB PUSH1 0x0 DUP4 ADD MSTORE PUSH2 0xD57 DUP2 DUP5 PUSH2 0xBA9 JUMP JUMPDEST SWAP1 POP SWAP3 SWAP2 POP POP JUMP JUMPDEST PUSH1 0x0 PUSH2 0xD69 PUSH2 0xD7A JUMP JUMPDEST SWAP1 POP PUSH2 0xD75 DUP3 DUP3 PUSH2 0xE6C JUMP JUMPDEST SWAP2 SWAP1 POP JUMP JUMPDEST PUSH1 0x0 PUSH1 0x40 MLOAD SWAP1 POP SWAP1 JUMP JUMPDEST PUSH1 0x0 PUSH8 0xFFFFFFFFFFFFFFFF DUP3 GT ISZERO PUSH2 0xD9F JUMPI PUSH2 0xD9E PUSH2 0xECC JUMP JUMPDEST JUMPDEST PUSH2 0xDA8 DUP3 PUSH2 0xF0F JUMP JUMPDEST SWAP1 POP PUSH1 0x20 DUP2 ADD SWAP1 POP SWAP2 SWAP1 POP JUMP JUMPDEST PUSH1 0x0 DUP2 MLOAD SWAP1 POP SWAP2 SWAP1 POP JUMP JUMPDEST PUSH1 0x0 DUP3 DUP3 MSTORE PUSH1 0x20 DUP3 ADD SWAP1 POP SWAP3 SWAP2 POP POP JUMP JUMPDEST PUSH1 0x0 DUP3 DUP3 MSTORE PUSH1 0x20 DUP3 ADD SWAP1 POP SWAP3 SWAP2 POP POP JUMP JUMPDEST PUSH1 0x0 DUP2 ISZERO ISZERO SWAP1 POP SWAP2 SWAP1 POP JUMP JUMPDEST PUSH1 0x0 DUP2 SWAP1 POP SWAP2 SWAP1 POP JUMP JUMPDEST DUP3 DUP2 DUP4 CALLDATACOPY PUSH1 0x0 DUP4 DUP4 ADD MSTORE POP POP POP JUMP JUMPDEST PUSH1 0x0 JUMPDEST DUP4 DUP2 LT ISZERO PUSH2 0xE25 JUMPI DUP1 DUP3 ADD MLOAD DUP2 DUP5 ADD MSTORE PUSH1 0x20 DUP2 ADD SWAP1 POP PUSH2 0xE0A JUMP JUMPDEST DUP4 DUP2 GT ISZERO PUSH2 0xE34 JUMPI PUSH1 0x0 DUP5 DUP5 ADD MSTORE JUMPDEST POP POP POP POP JUMP JUMPDEST PUSH1 0x0 PUSH1 0x2 DUP3 DIV SWAP1 POP PUSH1 0x1 DUP3 AND DUP1 PUSH2 0xE52 JUMPI PUSH1 0x7F DUP3 AND SWAP2 POP JUMPDEST PUSH1 0x20 DUP3 LT DUP2 EQ ISZERO PUSH2 0xE66 JUMPI PUSH2 0xE65 PUSH2 0xE9D JUMP JUMPDEST JUMPDEST POP SWAP2 SWAP1 POP JUMP JUMPDEST PUSH2 0xE75 DUP3 PUSH2 0xF0F JUMP JUMPDEST DUP2 ADD DUP2 DUP2 LT PUSH8 0xFFFFFFFFFFFFFFFF DUP3 GT OR ISZERO PUSH2 0xE94 JUMPI PUSH2 0xE93 PUSH2 0xECC JUMP JUMPDEST JUMPDEST DUP1 PUSH1 0x40 MSTORE POP POP POP JUMP JUMPDEST PUSH32 0x4E487B7100000000000000000000000000000000000000000000000000000000 PUSH1 0x0 MSTORE PUSH1 0x22 PUSH1 0x4 MSTORE PUSH1 0x24 PUSH1 0x0 REVERT JUMPDEST PUSH32 0x4E487B7100000000000000000000000000000000000000000000000000000000 PUSH1 0x0 MSTORE PUSH1 0x41 PUSH1 0x4 MSTORE PUSH1 0x24 PUSH1 0x0 REVERT JUMPDEST PUSH1 0x0 DUP1 REVERT JUMPDEST PUSH1 0x0 DUP1 REVERT JUMPDEST PUSH1 0x0 DUP1 REVERT JUMPDEST PUSH1 0x0 DUP1 REVERT JUMPDEST PUSH1 0x0 PUSH1 0x1F NOT PUSH1 0x1F DUP4 ADD AND SWAP1 POP SWAP2 SWAP1 POP JUMP INVALID LOG2 PUSH5 0x6970667358 0x22 SLT KECCAK256 SWAP7 0xCE 0xBA SWAP16 0xD9 GT 0xB3 ISZERO 0x4A SWAP8 0xBD KECCAK256 0x49 0xA5 0xE8 ORIGIN 0x5C SLT 0x29 0x23 0x5D CALLVALUE DUP11 PUSH1 0x17 PC 0xB9 0x27 CALL GASPRICE 0xC4 0xD2 PUSH5 0x736F6C6343 STOP ADDMOD MOD STOP CALLER "
				},
				"gasEstimates": {
					"creation": {
						"codeDepositCost": "785200",
						"executionCost": "infinite",
						"totalCost": "infinite"
					},
					"external": {
						"getData()": "infinite",
						"getInvestigator()": "infinite",
						"getPictureID()": "infinite",
						"investigationStarted()": "24455",
						"markAsFound()": "24549",
						"setInvestigator(string,string,string,string)": "infinite"
					}
				},
				"methodIdentifiers": {
					"getData()": "3bc5de30",
					"getInvestigator()": "47f450b0",
					"getPictureID()": "30884b68",
					"investigationStarted()": "4a2bfdc7",
					"markAsFound()": "dc4ade84",
					"setInvestigator(string,string,string,string)": "86444b43"
				}
			},
			"storageLayout": {
				"storage": [
					{
						"astId": 74,
						"contract": "ethereum/contracts/missing_person.sol:MissingPerson",
						"label": "pid",
						"offset": 0,
						"slot": "0",
						"type": "t_string_storage"
					},
					{
						"astId": 76,
						"contract": "ethereum/contracts/missing_person.sol:MissingPerson",
						"label": "name",
						"offset": 0,
						"slot": "1",
						"type": "t_string_storage"
					},
					{
						"astId": 78,
						"contract": "ethereum/contracts/missing_person.sol:MissingPerson",
						"label": "cid",
						"offset": 0,
						"slot": "2",
						"type": "t_string_storage"
					},
					{
						"astId": 80,
						"contract": "ethereum/contracts/missing_person.sol:MissingPerson",
						"label": "phoneNumber",
						"offset": 0,
						"slot": "3",
						"type": "t_string_storage"
					},
					{
						"astId": 82,
						"contract": "ethereum/contracts/missing_person.sol:MissingPerson",
						"label": "age",
						"offset": 0,
						"slot": "4",
						"type": "t_uint256"
					},
					{
						"astId": 84,
						"contract": "ethereum/contracts/missing_person.sol:MissingPerson",
						"label": "height",
						"offset": 0,
						"slot": "5",
						"type": "t_uint256"
					},
					{
						"astId": 86,
						"contract": "ethereum/contracts/missing_person.sol:MissingPerson",
						"label": "weight",
						"offset": 0,
						"slot": "6",
						"type": "t_uint256"
					},
					{
						"astId": 88,
						"contract": "ethereum/contracts/missing_person.sol:MissingPerson",
						"label": "dateLastSeen",
						"offset": 0,
						"slot": "7",
						"type": "t_string_storage"
					},
					{
						"astId": 90,
						"contract": "ethereum/contracts/missing_person.sol:MissingPerson",
						"label": "timeLastSeen",
						"offset": 0,
						"slot": "8",
						"type": "t_string_storage"
					},
					{
						"astId": 92,
						"contract": "ethereum/contracts/missing_person.sol:MissingPerson",
						"label": "locationLastSeen",
						"offset": 0,
						"slot": "9",
						"type": "t_string_storage"
					},
					{
						"astId": 94,
						"contract": "ethereum/contracts/missing_person.sol:MissingPerson",
						"label": "modeOfTransportUsed",
						"offset": 0,
						"slot": "10",
						"type": "t_string_storage"
					},
					{
						"astId": 96,
						"contract": "ethereum/contracts/missing_person.sol:MissingPerson",
						"label": "isBeingInvestigated",
						"offset": 0,
						"slot": "11",
						"type": "t_bool"
					},
					{
						"astId": 98,
						"contract": "ethereum/contracts/missing_person.sol:MissingPerson",
						"label": "isFound",
						"offset": 1,
						"slot": "11",
						"type": "t_bool"
					},
					{
						"astId": 101,
						"contract": "ethereum/contracts/missing_person.sol:MissingPerson",
						"label": "investigator",
						"offset": 0,
						"slot": "12",
						"type": "t_struct(Investigator)72_storage"
					}
				],
				"types": {
					"t_bool": {
						"encoding": "inplace",
						"label": "bool",
						"numberOfBytes": "1"
					},
					"t_string_storage": {
						"encoding": "bytes",
						"label": "string",
						"numberOfBytes": "32"
					},
					"t_struct(Investigator)72_storage": {
						"encoding": "inplace",
						"label": "struct MissingPerson.Investigator",
						"members": [
							{
								"astId": 65,
								"contract": "ethereum/contracts/missing_person.sol:MissingPerson",
								"label": "name",
								"offset": 0,
								"slot": "0",
								"type": "t_string_storage"
							},
							{
								"astId": 67,
								"contract": "ethereum/contracts/missing_person.sol:MissingPerson",
								"label": "cid",
								"offset": 0,
								"slot": "1",
								"type": "t_string_storage"
							},
							{
								"astId": 69,
								"contract": "ethereum/contracts/missing_person.sol:MissingPerson",
								"label": "badgeNumber",
								"offset": 0,
								"slot": "2",
								"type": "t_string_storage"
							},
							{
								"astId": 71,
								"contract": "ethereum/contracts/missing_person.sol:MissingPerson",
								"label": "rank",
								"offset": 0,
								"slot": "3",
								"type": "t_string_storage"
							}
						],
						"numberOfBytes": "128"
					},
					"t_uint256": {
						"encoding": "inplace",
						"label": "uint256",
						"numberOfBytes": "32"
					}
				}
			},
			"userdoc": {
				"kind": "user",
				"methods": {},
				"version": 1
			}
		}
	}
}